{
  "request": {
    "method": "GET",
    "urlPath": "/api/v2/transactions"
  },
  "response": {
    "status": 200,
    "body": "{\"items\":[{\"priority_fee\":\"0\",\"raw_input\":\"0x\",\"result\":\"success\",\"hash\":\"0xc036ef0152ea91a805dfdedd5573527e1b29502f778183d8c6b214e6cf417c74\",\"max_fee_per_gas\":\"5464245490\",\"revert_reason\":null,\"confirmation_duration\":[0,12000],\"transaction_burnt_fee\":\"114749155290000\",\"type\":2,\"token_transfers_overflow\":null,\"confirmations\":1,\"position\":207,\"max_priority_fee_per_gas\":\"0\",\"transaction_tag\":null,\"created_contract\":null,\"value\":\"25761024554118654\",\"from\":{\"ens_domain_name\":null,\"hash\":\"0x95222290DD7278Aa3Ddd389Cc1E1d165CC4BAfe5\",\"implementations\":[],\"is_contract\":false,\"is_scam\":false,\"is_verified\":false,\"metadata\":{\"tags\":[{\"meta\":{},\"name\":\"MEV Builder\",\"ordinal\":0,\"slug\":\"mev-builder\",\"tagType\":\"generic\"},{\"meta\":{\"tooltipUrl\":\"https://beaverbuild.org/\"},\"name\":\"beaverbuild\",\"ordinal\":10,\"slug\":\"beaverbuild\",\"tagType\":\"name\"}]},\"name\":null,\"private_tags\":[],\"proxy_type\":null,\"public_tags\":[],\"watchlist_names\":[]},\"gas_used\":\"21000\",\"status\":\"ok\",\"to\":{\"ens_domain_name\":null,\"hash\":\"0xe688b84b23f322a994A53dbF8E15FA82CDB71127\",\"implementations\":[],\"is_contract\":false,\"is_scam\":false,\"is_verified\":false,\"metadata\":{\"tags\":[{\"meta\":{},\"name\":\"Fee Recipient\",\"ordinal\":0,\"slug\":\"fee-recipient\",\"tagType\":\"protocol\"},{\"meta\":{},\"name\":\"Fee Recipient: 0xe68...127\",\"ordinal\":10,\"slug\":\"fee-recipient-0xe68127\",\"tagType\":\"name\"}]},\"name\":null,\"private_tags\":[],\"proxy_type\":null,\"public_tags\":[],\"watchlist_names\":[]},\"authorization_list\":[],\"method\":null,\"fee\":{\"type\":\"actual\",\"value\":\"114749155290000\"},\"actions\":[],\"gas_limit\":\"21000\",\"gas_price\":\"5464245490\",\"decoded_input\":null,\"token_transfers\":null,\"base_fee_per_gas\":\"5464245490\",\"timestamp\":\"2025-06-12T14:42:11.000000Z\",\"nonce\":2569431,\"historic_exchange_rate\":\"2775.54\",\"transaction_types\":[\"coin_transfer\"],\"exchange_rate\":\"2760.96\",\"block_number\":22689151,\"has_error_in_internal_transactions\":null},{\"priority_fee\":\"3231438000\",\"raw_input\":\"0x\",\"result\":\"success\",\"hash\":\"0x74dfa5f5c7dd33dca58d4810af7b26b4673f5e01ab8d0a64f4aac24d6f650cd7\",\"max_fee_per_gas\":\"10020957914\",\"revert_reason\":null,\"confirmation_duration\":[0,12000],\"transaction_burnt_fee\":\"114749155290000\",\"type\":2,\"token_transfers_overflow\":null,\"confirmations\":1,\"position\":206,\"max_priority_fee_per_gas\":\"153878\",\"transaction_tag\":null,\"created_contract\":null,\"value\":\"20117513430563079\",\"from\":{\"ens_domain_name\":null,\"hash\":\"0x8C8D7C46219D9205f056f28fee5950aD564d7465\",\"implementations\":[],\"is_contract\":false,\"is_scam\":false,\"is_verified\":false,\"metadata\":{\"tags\":[{\"meta\":{\"tooltipUrl\":\"https://mercuryo.io/\"},\"name\":\"mercuryo\",\"ordinal\":10,\"slug\":\"mercuryo\",\"tagType\":\"name\"}]},\"name\":null,\"private_tags\":[],\"proxy_type\":null,\"public_tags\":[],\"watchlist_names\":[]},\"gas_used\":\"21000\",\"status\":\"ok\",\"to\":{\"ens_domain_name\":null,\"hash\":\"0x74c25c1F9A26D95a94d9b72Fc5efbd9A25F90B15\",\"implementations\":[],\"is_contract\":false,\"is_scam\":false,\"is_verified\":false,\"metadata\":null,\"name\":null,\"private_tags\":[],\"proxy_type\":null,\"public_tags\":[],\"watchlist_names\":[]},\"authorization_list\":[],\"method\":null,\"fee\":{\"type\":\"actual\",\"value\":\"114752386728000\"},\"actions\":[],\"gas_limit\":\"21000\",\"gas_price\":\"5464399368\",\"decoded_input\":null,\"token_transfers\":null,\"base_fee_per_gas\":\"5464245490\",\"timestamp\":\"2025-06-12T14:42:11.000000Z\",\"nonce\":2144986,\"historic_exchange_rate\":\"2775.54\",\"transaction_types\":[\"coin_transfer\"],\"exchange_rate\":\"2760.96\",\"block_number\":22689151,\"has_error_in_internal_transactions\":null},{\"priority_fee\":\"3231438000\",\"raw_input\":\"0x\",\"result\":\"success\",\"hash\":\"0xff53a3af86cd46e9254c9fe170a0d1ab32baee0366030642af624e14ab985710\",\"max_fee_per_gas\":\"9539248754\",\"revert_reason\":null,\"confirmation_duration\":[0,12000],\"transaction_burnt_fee\":\"114749155290000\",\"type\":2,\"token_transfers_overflow\":null,\"confirmations\":1,\"position\":205,\"max_priority_fee_per_gas\":\"153878\",\"transaction_tag\":null,\"created_contract\":null,\"value\":\"37790758212323131\",\"from\":{\"ens_domain_name\":null,\"hash\":\"0x8C8D7C46219D9205f056f28fee5950aD564d7465\",\"implementations\":[],\"is_contract\":false,\"is_scam\":false,\"is_verified\":false,\"metadata\":{\"tags\":[{\"meta\":{\"tooltipUrl\":\"https://mercuryo.io/\"},\"name\":\"mercuryo\",\"ordinal\":10,\"slug\":\"mercuryo\",\"tagType\":\"name\"}]},\"name\":null,\"private_tags\":[],\"proxy_type\":null,\"public_tags\":[],\"watchlist_names\":[]},\"gas_used\":\"21000\",\"status\":\"ok\",\"to\":{\"ens_domain_name\":null,\"hash\":\"0xD69a449E88322A520AD72B879080D76CfF85B771\",\"implementations\":[],\"is_contract\":false,\"is_scam\":false,\"is_verified\":false,\"metadata\":null,\"name\":null,\"private_tags\":[],\"proxy_type\":null,\"public_tags\":[],\"watchlist_names\":[]},\"authorization_list\":[],\"method\":null,\"fee\":{\"type\":\"actual\",\"value\":\"114752386728000\"},\"actions\":[],\"gas_limit\":\"21000\",\"gas_price\":\"5464399368\",\"decoded_input\":null,\"token_transfers\":null,\"base_fee_per_gas\":\"5464245490\",\"timestamp\":\"2025-06-12T14:42:11.000000Z\",\"nonce\":2144985,\"historic_exchange_rate\":\"2775.54\",\"transaction_types\":[\"coin_transfer\"],\"exchange_rate\":\"2760.96\",\"block_number\":22689151,\"has_error_in_internal_transactions\":null},{\"priority_fee\":\"3231438000\",\"raw_input\":\"0x\",\"result\":\"success\",\"hash\":\"0x0f2cbb03a88041dda788788a8e882e800c781ca582301c88e14f9bddc2463e8f\",\"max_fee_per_gas\":\"7303300629\",\"revert_reason\":null,\"confirmation_duration\":[0,12000],\"transaction_burnt_fee\":\"114749155290000\",\"type\":2,\"token_transfers_overflow\":null,\"confirmations\":1,\"position\":204,\"max_priority_fee_per_gas\":\"153878\",\"transaction_tag\":null,\"created_contract\":null,\"value\":\"263157904943390000\",\"from\":{\"ens_domain_name\":null,\"hash\":\"0xBEa9f7FD27f4EE20066F18DEF0bc586eC221055A\",\"implementations\":[],\"is_contract\":false,\"is_scam\":false,\"is_verified\":false,\"metadata\":null,\"name\":null,\"private_tags\":[],\"proxy_type\":null,\"public_tags\":[],\"watchlist_names\":[]},\"gas_used\":\"21000\",\"status\":\"ok\",\"to\":{\"ens_domain_name\":null,\"hash\":\"0x169b8F5551BcFCbA0113Be7b81c9239B57fb8961\",\"implementations\":[],\"is_contract\":false,\"is_scam\":false,\"is_verified\":false,\"metadata\":null,\"name\":null,\"private_tags\":[],\"proxy_type\":null,\"public_tags\":[],\"watchlist_names\":[]},\"authorization_list\":[],\"method\":null,\"fee\":{\"type\":\"actual\",\"value\":\"114752386728000\"},\"actions\":[],\"gas_limit\":\"90000\",\"gas_price\":\"5464399368\",\"decoded_input\":null,\"token_transfers\":null,\"base_fee_per_gas\":\"5464245490\",\"timestamp\":\"2025-06-12T14:42:11.000000Z\",\"nonce\":8393,\"historic_exchange_rate\":\"2775.54\",\"transaction_types\":[\"coin_transfer\"],\"exchange_rate\":\"2760.96\",\"block_number\":22689151,\"has_error_in_internal_transactions\":null},{\"priority_fee\":\"3554565000\",\"raw_input\":\"0x\",\"result\":\"success\",\"hash\":\"0xdb1cf3e9e1f624e8d4f6980f35f3d114a4ef02b96e5a474f07d638c6b2a067a4\",\"max_fee_per_gas\":\"6262979440\",\"revert_reason\":null,\"confirmation_duration\":[0,12000],\"transaction_burnt_fee\":\"114749155290000\",\"type\":2,\"token_transfers_overflow\":null,\"confirmations\":1,\"position\":203,\"max_priority_fee_per_gas\":\"169265\",\"transaction_tag\":null,\"created_contract\":null,\"value\":\"409636379296537000\",\"from\":{\"ens_domain_name\":null,\"hash\":\"0x2C09315E8813880768eD6c01C0C6458d81373e71\",\"implementations\":[],\"is_contract\":false,\"is_scam\":false,\"is_verified\":false,\"metadata\":null,\"name\":null,\"private_tags\":[],\"proxy_type\":null,\"public_tags\":[],\"watchlist_names\":[]},\"gas_used\":\"21000\",\"status\":\"ok\",\"to\":{\"ens_domain_name\":null,\"hash\":\"0xDFaa75323fB721e5f29D43859390f62Cc4B600b8\",\"implementations\":[],\"is_contract\":false,\"is_scam\":false,\"is_verified\":false,\"metadata\":{\"tags\":[{\"meta\":{\"tooltipUrl\":\"https://shuffle.com\"},\"name\":\"Shuffle.com\",\"ordinal\":10,\"slug\":\"shufflecom\",\"tagType\":\"name\"}]},\"name\":null,\"private_tags\":[],\"proxy_type\":null,\"public_tags\":[],\"watchlist_names\":[]},\"authorization_list\":[],\"method\":null,\"fee\":{\"type\":\"actual\",\"value\":\"114752709855000\"},\"actions\":[],\"gas_limit\":\"21000\",\"gas_price\":\"5464414755\",\"decoded_input\":null,\"token_transfers\":null,\"base_fee_per_gas\":\"5464245490\",\"timestamp\":\"2025-06-12T14:42:11.000000Z\",\"nonce\":9,\"historic_exchange_rate\":\"2775.54\",\"transaction_types\":[\"coin_transfer\"],\"exchange_rate\":\"2760.96\",\"block_number\":22689151,\"has_error_in_internal_transactions\":null},{\"priority_fee\":\"3554565000\",\"raw_input\":\"0x\",\"result\":\"success\",\"hash\":\"0xcb7d3bf8a449dc251bcbd0693ec0b4c113708398e8b24839aa07caa82ecfc45c\",\"max_fee_per_gas\":\"6262979440\",\"revert_reason\":null,\"confirmation_duration\":[0,12000],\"transaction_burnt_fee\":\"114749155290000\",\"type\":2,\"token_transfers_overflow\":null,\"confirmations\":1,\"position\":202,\"max_priority_fee_per_gas\":\"169265\",\"transaction_tag\":null,\"created_contract\":null,\"value\":\"10164409767803000\",\"from\":{\"ens_domain_name\":null,\"hash\":\"0xc2BbBd63C003B24C57a0dEbe29d3AABa22B179Fe\",\"implementations\":[],\"is_contract\":false,\"is_scam\":false,\"is_verified\":false,\"metadata\":null,\"name\":null,\"private_tags\":[],\"proxy_type\":null,\"public_tags\":[],\"watchlist_names\":[]},\"gas_used\":\"21000\",\"status\":\"ok\",\"to\":{\"ens_domain_name\":null,\"hash\":\"0x7DBB4bdCfE614398D1a68ecc219F15280d0959E0\",\"implementations\":[],\"is_contract\":false,\"is_scam\":false,\"is_verified\":false,\"metadata\":null,\"name\":null,\"private_tags\":[],\"proxy_type\":null,\"public_tags\":[],\"watchlist_names\":[]},\"authorization_list\":[],\"method\":null,\"fee\":{\"type\":\"actual\",\"value\":\"114752709855000\"},\"actions\":[],\"gas_limit\":\"21000\",\"gas_price\":\"5464414755\",\"decoded_input\":null,\"token_transfers\":null,\"base_fee_per_gas\":\"5464245490\",\"timestamp\":\"2025-06-12T14:42:11.000000Z\",\"nonce\":15,\"historic_exchange_rate\":\"2775.54\",\"transaction_types\":[\"coin_transfer\"],\"exchange_rate\":\"2760.96\",\"block_number\":22689151,\"has_error_in_internal_transactions\":null},{\"priority_fee\":\"4847157000\",\"raw_input\":\"0x\",\"result\":\"success\",\"hash\":\"0x2a633e66103a90c52078cf9f53cf6751059f06ad6f1e062b048cb07cabe318e2\",\"max_fee_per_gas\":\"10849186770\",\"revert_reason\":null,\"confirmation_duration\":[0,12000],\"transaction_burnt_fee\":\"114749155290000\",\"type\":2,\"token_transfers_overflow\":null,\"confirmations\":1,\"position\":201,\"max_priority_fee_per_gas\":\"230817\",\"transaction_tag\":null,\"created_contract\":null,\"value\":\"43700000000000000\",\"from\":{\"ens_domain_name\":null,\"hash\":\"0x890Bb11f7fBAd3414EF550768abe2B6a1A7bA655\",\"implementations\":[],\"is_contract\":false,\"is_scam\":false,\"is_verified\":false,\"metadata\":null,\"name\":null,\"private_tags\":[],\"proxy_type\":null,\"public_tags\":[],\"watchlist_names\":[]},\"gas_used\":\"21000\",\"status\":\"ok\",\"to\":{\"ens_domain_name\":null,\"hash\":\"0xb9F7cC51c4b3f237f8787b78900a5d508ecC85F1\",\"implementations\":[],\"is_contract\":false,\"is_scam\":false,\"is_verified\":false,\"metadata\":null,\"name\":null,\"private_tags\":[],\"proxy_type\":null,\"public_tags\":[],\"watchlist_names\":[]},\"authorization_list\":[],\"method\":null,\"fee\":{\"type\":\"actual\",\"value\":\"114754002447000\"},\"actions\":[],\"gas_limit\":\"21000\",\"gas_price\":\"5464476307\",\"decoded_input\":null,\"token_transfers\":null,\"base_fee_per_gas\":\"5464245490\",\"timestamp\":\"2025-06-12T14:42:11.000000Z\",\"nonce\":21,\"historic_exchange_rate\":\"2775.54\",\"transaction_types\":[\"coin_transfer\"],\"exchange_rate\":\"2760.96\",\"block_number\":22689151,\"has_error_in_internal_transactions\":null},{\"priority_fee\":\"6462876000\",\"raw_input\":\"0x\",\"result\":\"success\",\"hash\":\"0xd9cac7d64bbbfd1399f8519ab40636f68671de528cd84fbb8c520ab59630f862\",\"max_fee_per_gas\":\"11242441160\",\"revert_reason\":null,\"confirmation_duration\":[0,12000],\"transaction_burnt_fee\":\"114749155290000\",\"type\":2,\"token_transfers_overflow\":null,\"confirmations\":1,\"position\":200,\"max_priority_fee_per_gas\":\"307756\",\"transaction_tag\":null,\"created_contract\":null,\"value\":\"50831000000000000\",\"from\":{\"ens_domain_name\":null,\"hash\":\"0x9C19B0497997Fe9E75862688a295168070456951\",\"implementations\":[],\"is_contract\":false,\"is_scam\":false,\"is_verified\":false,\"metadata\":{\"tags\":[{\"meta\":{\"tooltipUrl\":\"https://coincheck.com/\"},\"name\":\"Coincheck\",\"ordinal\":10,\"slug\":\"coincheck\",\"tagType\":\"name\"},{\"meta\":{},\"name\":\"Coincheck\",\"ordinal\":0,\"slug\":\"coincheck\",\"tagType\":\"generic\"}]},\"name\":null,\"private_tags\":[],\"proxy_type\":null,\"public_tags\":[],\"watchlist_names\":[]},\"gas_used\":\"21000\",\"status\":\"ok\",\"to\":{\"ens_domain_name\":null,\"hash\":\"0x4091eC2dbc0C9bb4B0C7a736B8346D48A09D9c16\",\"implementations\":[],\"is_contract\":false,\"is_scam\":false,\"is_verified\":false,\"metadata\":null,\"name\":null,\"private_tags\":[],\"proxy_type\":null,\"public_tags\":[],\"watchlist_names\":[]},\"authorization_list\":[],\"method\":null,\"fee\":{\"type\":\"actual\",\"value\":\"114755618166000\"},\"actions\":[],\"gas_limit\":\"21000\",\"gas_price\":\"5464553246\",\"decoded_input\":null,\"token_transfers\":null,\"base_fee_per_gas\":\"5464245490\",\"timestamp\":\"2025-06-12T14:42:11.000000Z\",\"nonce\":466128,\"historic_exchange_rate\":\"2775.54\",\"transaction_types\":[\"coin_transfer\"],\"exchange_rate\":\"2760.96\",\"block_number\":22689151,\"has_error_in_internal_transactions\":null},{\"priority_fee\":\"7134245714\",\"raw_input\":\"0x095ea7b3000000000000000000000000111111125421ca6dc452d289314280a0f8842a650000000000000000000000000000000000000000000098771d99e6c8eeb49682\",\"result\":\"success\",\"hash\":\"0xc15ebd7e5f8f60f746ca81255733814f6e84c229e75554f31c970c949e6a1ac1\",\"max_fee_per_gas\":\"11242287282\",\"revert_reason\":null,\"confirmation_duration\":[0,12000],\"transaction_burnt_fee\":\"253338813652870\",\"type\":2,\"token_transfers_overflow\":null,\"confirmations\":1,\"position\":199,\"max_priority_fee_per_gas\":\"153878\",\"transaction_tag\":null,\"created_contract\":null,\"value\":\"0\",\"from\":{\"ens_domain_name\":null,\"hash\":\"0x957e990408e2E81439f0a43bb1d4A2D137497Cd8\",\"implementations\":[],\"is_contract\":false,\"is_scam\":false,\"is_verified\":false,\"metadata\":null,\"name\":null,\"private_tags\":[],\"proxy_type\":null,\"public_tags\":[],\"watchlist_names\":[]},\"gas_used\":\"46363\",\"status\":\"ok\",\"to\":{\"ens_domain_name\":null,\"hash\":\"0x8BF30e9F44E5d068A9d0C20DA22660997a532e33\",\"implementations\":[],\"is_contract\":true,\"is_scam\":false,\"is_verified\":true,\"metadata\":{\"tags\":[{\"meta\":{},\"name\":\"GhostDAG: GDAG Token\",\"ordinal\":10,\"slug\":\"ghostdag-gdag-token\",\"tagType\":\"name\"}]},\"name\":\"GhostDAG org\",\"private_tags\":[],\"proxy_type\":\"unknown\",\"public_tags\":[],\"watchlist_names\":[]},\"authorization_list\":[],\"method\":\"approve\",\"fee\":{\"type\":\"actual\",\"value\":\"253345947898584\"},\"actions\":[],\"gas_limit\":\"51421\",\"gas_price\":\"5464399368\",\"decoded_input\":{\"method_call\":\"approve(address spender, uint256 amount)\",\"method_id\":\"095ea7b3\",\"parameters\":[{\"name\":\"spender\",\"type\":\"address\",\"value\":\"0x111111125421cA6dc452d289314280a0f8842A65\"},{\"name\":\"amount\",\"type\":\"uint256\",\"value\":\"719997000930606718424706\"}]},\"token_transfers\":null,\"base_fee_per_gas\":\"5464245490\",\"timestamp\":\"2025-06-12T14:42:11.000000Z\",\"nonce\":2135,\"historic_exchange_rate\":\"2775.54\",\"transaction_types\":[\"contract_call\"],\"exchange_rate\":\"2760.96\",\"block_number\":22689151,\"has_error_in_internal_transactions\":null},{\"priority_fee\":\"6565974260\",\"raw_input\":\"0xdeff4b240000000000000000000000000000000000000000000000000000000000000060000000000000000000000000000000000000000000000000000000000000a4b100000000000000000000000007ae8551be970cb1cca11dd7a11f47ae82e70e67000000000000000000000000580670dd2b317d3aad3cd96dc1e73a5ca2d15f53000000000000000000000000580670dd2b317d3aad3cd96dc1e73a5ca2d15f5300000000000000000000000000000000000000000000000000000000000000000000000000000000000000004200000000000000000000000000000000000006000000000000000000000000c02aaa39b223fe8d0a0e5c4f27ead9083c756cc20000000000000000000000000000000000000000000000000ea92b80d980d8000000000000000000000000000000000000000000000000000ea3ff0a28e42fd6000000000000000000000000000000000000000000000000000000000000210500000000000000000000000000000000000000000000000000000000003d730c00000000000000000000000000000000000000000000000000000000684b0a5c000000000000000000000000000000000000000000000000000000000000000000000000000000000000000000000000000000000000000000000000000001800000000000000000000000000000000000000000000000000000000000000000\",\"result\":\"awaiting_internal_transactions\",\"hash\":\"0xf278b64eec030e82e0713fd44b683e3d445dd59f2d3efffb942c5b052322ed93\",\"max_fee_per_gas\":\"13660767603\",\"revert_reason\":null,\"confirmation_duration\":[0,12000],\"transaction_burnt_fee\":\"233159355058300\",\"type\":2,\"token_transfers_overflow\":null,\"confirmations\":1,\"position\":198,\"max_priority_fee_per_gas\":\"153878\",\"transaction_tag\":null,\"created_contract\":null,\"value\":\"0\",\"from\":{\"ens_domain_name\":null,\"hash\":\"0x07aE8551Be970cB1cCa11Dd7a11F47Ae82e70E67\",\"implementations\":[],\"is_contract\":false,\"is_scam\":false,\"is_verified\":false,\"metadata\":null,\"name\":null,\"private_tags\":[],\"proxy_type\":\"unknown\",\"public_tags\":[],\"watchlist_names\":[]},\"gas_used\":\"42670\",\"status\":\"error\",\"to\":{\"ens_domain_name\":null,\"hash\":\"0x5c7BCd6E7De5423a257D81B442095A1a6ced35C5\",\"implementations\":[{\"address\":\"0x0190a2328e072Fc5a7fA00F6C9ae2a16c7F4E32a\",\"address_hash\":\"0x0190a2328e072Fc5a7fA00F6C9ae2a16c7F4E32a\",\"name\":\"Ethereum_SpokePool\"}],\"is_contract\":true,\"is_scam\":false,\"is_verified\":true,\"metadata\":{\"tags\":[{\"meta\":{\"bgColor\":\"#6DF8D7\",\"textColor\":\"#2F3237\"},\"name\":\"Across Protocol: Spoke Pool\",\"ordinal\":10,\"slug\":\"across-protocol-spoke-pool\",\"tagType\":\"name\"},{\"meta\":{\"bgColor\":\"#2F3237\",\"tagIcon\":\"https://blockscout-content.s3.amazonaws.com/across-protocol.svg\",\"tagUrl\":\"https://across.to/bridge?utm_source=Blockscout\",\"textColor\":\"#6DF8D7\",\"tooltipDescription\":\"Bridging method that combines an optimistic oracle, bonded relayers and single-sided liquidity pools to provide decentralized instant transactions from rollup chains to Ethereum mainnet.\",\"tooltipTitle\":\"Across Protocol\",\"tooltipUrl\":\"https://across.to/bridge\"},\"name\":\"Across Protocol\",\"ordinal\":0,\"slug\":\"across-protocol\",\"tagType\":\"protocol\"}]},\"name\":\"ERC1967Proxy\",\"private_tags\":[],\"proxy_type\":\"eip1967\",\"public_tags\":[],\"watchlist_names\":[]},\"authorization_list\":[],\"method\":\"fillRelay\",\"fee\":{\"type\":\"actual\",\"value\":\"233165921032560\"},\"actions\":[],\"gas_limit\":\"112137\",\"gas_price\":\"5464399368\",\"decoded_input\":{\"method_call\":\"fillRelay((bytes32,bytes32,bytes32,bytes32,bytes32,uint256,uint256,uint256,uint256,uint32,uint32,bytes) relayData, uint256 repaymentChainId, bytes32 repaymentAddress)\",\"method_id\":\"deff4b24\",\"parameters\":[{\"name\":\"relayData\",\"type\":\"(bytes32,bytes32,bytes32,bytes32,bytes32,uint256,uint256,uint256,uint256,uint32,uint32,bytes)\",\"value\":[\"0x000000000000000000000000580670dd2b317d3aad3cd96dc1e73a5ca2d15f53\",\"0x000000000000000000000000580670dd2b317d3aad3cd96dc1e73a5ca2d15f53\",\"0x0000000000000000000000000000000000000000000000000000000000000000\",\"0x0000000000000000000000004200000000000000000000000000000000000006\",\"0x000000000000000000000000c02aaa39b223fe8d0a0e5c4f27ead9083c756cc2\",\"1056423420000000000\",\"1054967156835626966\",\"8453\",\"4027148\",\"1749748316\",\"0\",\"0x\"]},{\"name\":\"repaymentChainId\",\"type\":\"uint256\",\"value\":\"42161\"},{\"name\":\"repaymentAddress\",\"type\":\"bytes32\",\"value\":\"0x00000000000000000000000007ae8551be970cb1cca11dd7a11f47ae82e70e67\"}]},\"token_transfers\":null,\"base_fee_per_gas\":\"5464245490\",\"timestamp\":\"2025-06-12T14:42:11.000000Z\",\"nonce\":308646,\"historic_exchange_rate\":\"2775.54\",\"transaction_types\":[\"contract_call\"],\"exchange_rate\":\"2760.96\",\"block_number\":22689151,\"has_error_in_internal_transactions\":null},{\"priority_fee\":\"31647011114\",\"raw_input\":\"0x07ed23790000000000000000000000005141b82f5ffda4c6fe1e372978f1c5427640a190000000000000000000000000eeeeeeeeeeeeeeeeeeeeeeeeeeeeeeeeeeeeeeee000000000000000000000000812ba41e071c7b7fa4ebcfb62df5f45f6fa853ee0000000000000000000000005141b82f5ffda4c6fe1e372978f1c5427640a190000000000000000000000000a402a0a7bb1cae19e6a6d7ec876297a349696b6800000000000000000000000000000000000000000000000006f05b59d3b20000000000000000000000000000000000000000000000000000000a47bdc88cb4850000000000000000000000000000000000000000000000000000000000000000000000000000000000000000000000000000000000000000000000000000012000000000000000000000000000000000000000000000000000000000000001150000000000000000000000000000000000000000000000f700006800004e00a0744c8c0900000000000000000000000000000000000000004a183b7ed67b9e14b3f45abfb2cf44ed22c29e54000000000000000000000000000000000000000000000000000e35fa931a00004041c02aaa39b223fe8d0a0e5c4f27ead9083c756cc2d0e30db00c20c02aaa39b223fe8d0a0e5c4f27ead9083c756cc2c555d55279023e732ccd32d812114caf5838fd466ae4071138002dc6c0c555d55279023e732ccd32d812114caf5838fd46111111125421ca6dc452d289314280a0f8842a65000000000000000000000000000000000000000000000000000a3a843a08c832c02aaa39b223fe8d0a0e5c4f27ead9083c756cc200000000000000000000006963f2b1\",\"result\":\"success\",\"hash\":\"0xad308f62ec26a01ef690e97d0677f8c7020953c232345eac72a2cb90e6c4ea56\",\"max_fee_per_gas\":\"10258620644\",\"revert_reason\":null,\"confirmation_duration\":[0,12000],\"transaction_burnt_fee\":\"1123793120209870\",\"type\":2,\"token_transfers_overflow\":null,\"confirmations\":1,\"position\":197,\"max_priority_fee_per_gas\":\"153878\",\"transaction_tag\":null,\"created_contract\":null,\"value\":\"500000000000000000\",\"from\":{\"ens_domain_name\":null,\"hash\":\"0xA402a0A7bB1cAe19E6A6d7Ec876297A349696B68\",\"implementations\":[],\"is_contract\":false,\"is_scam\":false,\"is_verified\":false,\"metadata\":null,\"name\":null,\"private_tags\":[],\"proxy_type\":null,\"public_tags\":[],\"watchlist_names\":[]},\"gas_used\":\"205663\",\"status\":\"ok\",\"to\":{\"ens_domain_name\":null,\"hash\":\"0x111111125421cA6dc452d289314280a0f8842A65\",\"implementations\":[],\"is_contract\":true,\"is_scam\":false,\"is_verified\":true,\"metadata\":{\"tags\":[{\"meta\":{},\"name\":\"1inch Network : Aggregation Router V6\",\"ordinal\":10,\"slug\":\"1inch-network--aggregation-router-v6\",\"tagType\":\"name\"}]},\"name\":\"AggregationRouterV6\",\"private_tags\":[],\"proxy_type\":\"unknown\",\"public_tags\":[],\"watchlist_names\":[]},\"authorization_list\":[],\"method\":\"swap\",\"fee\":{\"type\":\"actual\",\"value\":\"1123824767220984\"},\"actions\":[],\"gas_limit\":\"256551\",\"gas_price\":\"5464399368\",\"decoded_input\":{\"method_call\":\"swap(address executor, (address,address,address,address,uint256,uint256,uint256) desc, bytes data)\",\"method_id\":\"07ed2379\",\"parameters\":[{\"name\":\"executor\",\"type\":\"address\",\"value\":\"0x5141B82f5fFDa4c6fE1E372978F1C5427640a190\"},{\"name\":\"desc\",\"type\":\"(address,address,address,address,uint256,uint256,uint256)\",\"value\":[\"0xEeeeeEeeeEeEeeEeEeEeeEEEeeeeEeeeeeeeEEeE\",\"0x812Ba41e071C7b7fA4EBcFB62dF5F45f6fA853Ee\",\"0x5141B82f5fFDa4c6fE1E372978F1C5427640a190\",\"0xA402a0A7bB1cAe19E6A6d7Ec876297A349696B68\",\"500000000000000000\",\"2893630206162053\",\"0\"]},{\"name\":\"data\",\"type\":\"bytes\",\"value\":\"0x0000000000000000000000000000000000000000000000f700006800004e00a0744c8c0900000000000000000000000000000000000000004a183b7ed67b9e14b3f45abfb2cf44ed22c29e54000000000000000000000000000000000000000000000000000e35fa931a00004041c02aaa39b223fe8d0a0e5c4f27ead9083c756cc2d0e30db00c20c02aaa39b223fe8d0a0e5c4f27ead9083c756cc2c555d55279023e732ccd32d812114caf5838fd466ae4071138002dc6c0c555d55279023e732ccd32d812114caf5838fd46111111125421ca6dc452d289314280a0f8842a65000000000000000000000000000000000000000000000000000a3a843a08c832c02aaa39b223fe8d0a0e5c4f27ead9083c756cc2\"}]},\"token_transfers\":null,\"base_fee_per_gas\":\"5464245490\",\"timestamp\":\"2025-06-12T14:42:11.000000Z\",\"nonce\":53,\"historic_exchange_rate\":\"2775.54\",\"transaction_types\":[\"coin_transfer\",\"contract_call\",\"token_transfer\"],\"exchange_rate\":\"2760.96\",\"block_number\":22689151,\"has_error_in_internal_transactions\":null},{\"priority_fee\":\"45184000000\",\"raw_input\":\"0xa9059cbb0000000000000000000000006c5f9f5c181231b15cef6ccfb9792f6cf61ad36100000000000000000000000000000000000000000000000000000186ecbbb510\",\"result\":\"success\",\"hash\":\"0xca48391d748778a47a57b72651e0d7a55041b7d347c653fec6e7920abf3c4784\",\"max_fee_per_gas\":\"28106102900\",\"revert_reason\":null,\"confirmation_duration\":[0,12000],\"transaction_burnt_fee\":\"246896468220160\",\"type\":2,\"token_transfers_overflow\":null,\"confirmations\":1,\"position\":196,\"max_priority_fee_per_gas\":\"1000000\",\"transaction_tag\":null,\"created_contract\":null,\"value\":\"0\",\"from\":{\"ens_domain_name\":null,\"hash\":\"0x39F6a6C85d39d5ABAd8A398310c52E7c374F2bA3\",\"implementations\":[],\"is_contract\":false,\"is_scam\":false,\"is_verified\":false,\"metadata\":{\"tags\":[{\"meta\":{},\"name\":\"Exchange\",\"ordinal\":0,\"slug\":\"exchange\",\"tagType\":\"generic\"},{\"meta\":{\"tooltipDescription\":\"Centralized crypto-to-fiat exchange with a team of 80+ members.\",\"tooltipUrl\":\"https://whitebit.com/\"},\"name\":\"WhiteBIT\",\"ordinal\":10,\"slug\":\"whitebit\",\"tagType\":\"name\"},{\"meta\":{},\"name\":\"HOT WALLET\",\"ordinal\":0,\"slug\":\"hot-wallet\",\"tagType\":\"generic\"}]},\"name\":null,\"private_tags\":[],\"proxy_type\":null,\"public_tags\":[],\"watchlist_names\":[]},\"gas_used\":\"45184\",\"status\":\"ok\",\"to\":{\"ens_domain_name\":null,\"hash\":\"0xA0b86991c6218b36c1d19D4a2e9Eb0cE3606eB48\",\"implementations\":[{\"address\":\"0x43506849D7C04F9138D1A2050bbF3A0c054402dd\",\"address_hash\":\"0x43506849D7C04F9138D1A2050bbF3A0c054402dd\",\"name\":\"FiatTokenV2_2\"}],\"is_contract\":true,\"is_scam\":false,\"is_verified\":true,\"metadata\":{\"tags\":[{\"meta\":{\"tooltipDescription\":\"USDC is a US dollar-backed stablecoin issued by Circle. USDC is designed to provide a faster, safer, and more efficient way to send, spend, and exchange money around the world.\",\"tooltipUrl\":\"https://www.circle.com/en/usdc\"},\"name\":\"Circle: USDC Token\",\"ordinal\":10,\"slug\":\"circle-usdc-token\",\"tagType\":\"name\"},{\"meta\":{},\"name\":\"USDC\",\"ordinal\":0,\"slug\":\"usdc\",\"tagType\":\"generic\"},{\"meta\":{},\"name\":\"Token Contract\",\"ordinal\":0,\"slug\":\"token-contract\",\"tagType\":\"generic\"},{\"meta\":{},\"name\":\"Circle\",\"ordinal\":0,\"slug\":\"circle\",\"tagType\":\"protocol\"},{\"meta\":{},\"name\":\"Stablecoin\",\"ordinal\":0,\"slug\":\"stablecoin\",\"tagType\":\"generic\"}]},\"name\":\"USDC\",\"private_tags\":[],\"proxy_type\":\"eip1967\",\"public_tags\":[],\"watchlist_names\":[]},\"authorization_list\":[],\"method\":\"transfer\",\"fee\":{\"type\":\"actual\",\"value\":\"246941652220160\"},\"actions\":[],\"gas_limit\":\"170000\",\"gas_price\":\"5465245490\",\"decoded_input\":{\"method_call\":\"transfer(address to, uint256 value)\",\"method_id\":\"a9059cbb\",\"parameters\":[{\"name\":\"to\",\"type\":\"address\",\"value\":\"0x6C5f9F5C181231b15cEf6CcfB9792F6CF61AD361\"},{\"name\":\"value\",\"type\":\"uint256\",\"value\":\"1679008970000\"}]},\"token_transfers\":null,\"base_fee_per_gas\":\"5464245490\",\"timestamp\":\"2025-06-12T14:42:11.000000Z\",\"nonce\":850761,\"historic_exchange_rate\":\"2775.54\",\"transaction_types\":[\"contract_call\",\"token_transfer\"],\"exchange_rate\":\"2760.96\",\"block_number\":22689151,\"has_error_in_internal_transactions\":null},{\"priority_fee\":\"49262349042\",\"raw_input\":\"0x94a7900a000000000000000000000000000000000000000000000000000000000000006000000000000000000000000000000000000000000000000000000000000000a000000000000000000000000000000000000000000000000000000000000000e0000000000000000000000000000000000000000000000000000000000000000100000000000000000000000017eea5bdc2a2e52b5381e5b03f9ccc33808d448900000000000000000000000000000000000000000000000000000000000000010000000000000000000000000000000000000000000000000000000100069a40000000000000000000000000000000000000000000000000000000000000000168823ce5a28579cfb7283d61270e0b18efb6dc4344788ffcd0c3c0ca1bbb9759\",\"result\":\"success\",\"hash\":\"0xd5c73c933e689943cdb63606438e21789f9873c06ded0af028ed3b7ddd34ec79\",\"max_fee_per_gas\":\"8432061687\",\"revert_reason\":null,\"confirmation_duration\":[0,12000],\"transaction_burnt_fee\":\"1166212057948740\",\"type\":2,\"token_transfers_overflow\":null,\"confirmations\":1,\"position\":195,\"max_priority_fee_per_gas\":\"230817\",\"transaction_tag\":null,\"created_contract\":null,\"value\":\"0\",\"from\":{\"ens_domain_name\":null,\"hash\":\"0x40DC31da1209E963d59CAC8221BB542382788738\",\"implementations\":[],\"is_contract\":false,\"is_scam\":false,\"is_verified\":false,\"metadata\":null,\"name\":null,\"private_tags\":[],\"proxy_type\":\"unknown\",\"public_tags\":[],\"watchlist_names\":[]},\"gas_used\":\"213426\",\"status\":\"ok\",\"to\":{\"ens_domain_name\":null,\"hash\":\"0x57E9E78A627BaA30b71793885B952a9006298AF6\",\"implementations\":[],\"is_contract\":true,\"is_scam\":false,\"is_verified\":true,\"metadata\":null,\"name\":\"FastCCTP\",\"private_tags\":[],\"proxy_type\":\"unknown\",\"public_tags\":[],\"watchlist_names\":[]},\"authorization_list\":[],\"method\":\"fastFinishTransfer\",\"fee\":{\"type\":\"actual\",\"value\":\"1166261320297782\"},\"actions\":[],\"gas_limit\":\"244102\",\"gas_price\":\"5464476307\",\"decoded_input\":{\"method_call\":\"fastFinishTransfer(address[] zklighterRecipient, uint256[] fromAmount, bytes32[] messageHash)\",\"method_id\":\"94a7900a\",\"parameters\":[{\"name\":\"zklighterRecipient\",\"type\":\"address[]\",\"value\":[\"0x17eEA5bdc2A2e52B5381E5b03F9CcC33808d4489\"]},{\"name\":\"fromAmount\",\"type\":\"uint256[]\",\"value\":[\"4295400000\"]},{\"name\":\"messageHash\",\"type\":\"bytes32[]\",\"value\":[\"0x68823ce5a28579cfb7283d61270e0b18efb6dc4344788ffcd0c3c0ca1bbb9759\"]}]},\"token_transfers\":null,\"base_fee_per_gas\":\"5464245490\",\"timestamp\":\"2025-06-12T14:42:11.000000Z\",\"nonce\":81570,\"historic_exchange_rate\":\"2775.54\",\"transaction_types\":[\"contract_call\",\"token_transfer\"],\"exchange_rate\":\"2760.96\",\"block_number\":22689151,\"has_error_in_internal_transactions\":null},{\"priority_fee\":\"645990659860\",\"raw_input\":\"0xa9059cbb00000000000000000000000080aefb2e67cbcf1579b4ed6fd6cff016a01b5b0b000000000000000000000000000000000000000000000000000000012a05f200\",\"result\":\"success\",\"hash\":\"0x28d7cb1504fc03e82cf516b35cfaddb1ad2af357d63cea24c10f88a1071ff94e\",\"max_fee_per_gas\":\"11264926042\",\"revert_reason\":null,\"confirmation_duration\":[0,12000],\"transaction_burnt_fee\":\"313975545855400\",\"type\":2,\"token_transfers_overflow\":null,\"confirmations\":1,\"position\":194,\"max_priority_fee_per_gas\":\"11242441\",\"transaction_tag\":null,\"created_contract\":null,\"value\":\"0\",\"from\":{\"ens_domain_name\":null,\"hash\":\"0x5e2Cfd8B5F6CbD1962991BD6952B29574502BF99\",\"implementations\":[],\"is_contract\":false,\"is_scam\":false,\"is_verified\":false,\"metadata\":null,\"name\":null,\"private_tags\":[],\"proxy_type\":null,\"public_tags\":[],\"watchlist_names\":[]},\"gas_used\":\"57460\",\"status\":\"ok\",\"to\":{\"ens_domain_name\":null,\"hash\":\"0xA0b86991c6218b36c1d19D4a2e9Eb0cE3606eB48\",\"implementations\":[{\"address\":\"0x43506849D7C04F9138D1A2050bbF3A0c054402dd\",\"address_hash\":\"0x43506849D7C04F9138D1A2050bbF3A0c054402dd\",\"name\":\"FiatTokenV2_2\"}],\"is_contract\":true,\"is_scam\":false,\"is_verified\":true,\"metadata\":{\"tags\":[{\"meta\":{\"tooltipDescription\":\"USDC is a US dollar-backed stablecoin issued by Circle. USDC is designed to provide a faster, safer, and more efficient way to send, spend, and exchange money around the world.\",\"tooltipUrl\":\"https://www.circle.com/en/usdc\"},\"name\":\"Circle: USDC Token\",\"ordinal\":10,\"slug\":\"circle-usdc-token\",\"tagType\":\"name\"},{\"meta\":{},\"name\":\"USDC\",\"ordinal\":0,\"slug\":\"usdc\",\"tagType\":\"generic\"},{\"meta\":{},\"name\":\"Token Contract\",\"ordinal\":0,\"slug\":\"token-contract\",\"tagType\":\"generic\"},{\"meta\":{},\"name\":\"Circle\",\"ordinal\":0,\"slug\":\"circle\",\"tagType\":\"protocol\"},{\"meta\":{},\"name\":\"Stablecoin\",\"ordinal\":0,\"slug\":\"stablecoin\",\"tagType\":\"generic\"}]},\"name\":\"USDC\",\"private_tags\":[],\"proxy_type\":\"eip1967\",\"public_tags\":[],\"watchlist_names\":[]},\"authorization_list\":[],\"method\":\"transfer\",\"fee\":{\"type\":\"actual\",\"value\":\"314621536515260\"},\"actions\":[],\"gas_limit\":\"119783\",\"gas_price\":\"5475487931\",\"decoded_input\":{\"method_call\":\"transfer(address to, uint256 value)\",\"method_id\":\"a9059cbb\",\"parameters\":[{\"name\":\"to\",\"type\":\"address\",\"value\":\"0x80aeFb2e67cbCf1579b4Ed6fD6cff016a01B5b0b\"},{\"name\":\"value\",\"type\":\"uint256\",\"value\":\"5000000000\"}]},\"token_transfers\":null,\"base_fee_per_gas\":\"5464245490\",\"timestamp\":\"2025-06-12T14:42:11.000000Z\",\"nonce\":185,\"historic_exchange_rate\":\"2775.54\",\"transaction_types\":[\"contract_call\",\"token_transfer\"],\"exchange_rate\":\"2760.96\",\"block_number\":22689151,\"has_error_in_internal_transactions\":null},{\"priority_fee\":\"1566143400000\",\"raw_input\":\"0x01000e\",\"result\":\"success\",\"hash\":\"0xa9454b48a521658fd88fa41e908667fb6124f588c200afa96546314403569387\",\"max_fee_per_gas\":\"6200000000\",\"revert_reason\":null,\"confirmation_duration\":[0,12000],\"transaction_burnt_fee\":\"115240937384100\",\"type\":2,\"token_transfers_overflow\":null,\"confirmations\":1,\"position\":193,\"max_priority_fee_per_gas\":\"74260000\",\"transaction_tag\":null,\"created_contract\":null,\"value\":\"1086173374994117\",\"from\":{\"ens_domain_name\":null,\"hash\":\"0x300307a70450Cca5Fe49074800889BA0AF0cA20d\",\"implementations\":[],\"is_contract\":false,\"is_scam\":false,\"is_verified\":false,\"metadata\":null,\"name\":null,\"private_tags\":[],\"proxy_type\":null,\"public_tags\":[],\"watchlist_names\":[]},\"gas_used\":\"21090\",\"status\":\"ok\",\"to\":{\"ens_domain_name\":null,\"hash\":\"0x391E7C679d29bD940d63be94AD22A25d25b5A604\",\"implementations\":[],\"is_contract\":false,\"is_scam\":false,\"is_verified\":false,\"metadata\":null,\"name\":null,\"private_tags\":[],\"proxy_type\":null,\"public_tags\":[],\"watchlist_names\":[]},\"authorization_list\":[],\"method\":null,\"fee\":{\"type\":\"actual\",\"value\":\"116807080784100\"},\"actions\":[],\"gas_limit\":\"27417\",\"gas_price\":\"5538505490\",\"decoded_input\":null,\"token_transfers\":null,\"base_fee_per_gas\":\"5464245490\",\"timestamp\":\"2025-06-12T14:42:11.000000Z\",\"nonce\":1,\"historic_exchange_rate\":\"2775.54\",\"transaction_types\":[\"coin_transfer\"],\"exchange_rate\":\"2760.96\",\"block_number\":22689151,\"has_error_in_internal_transactions\":null},{\"priority_fee\":\"1659000000000\",\"raw_input\":\"0x\",\"result\":\"success\",\"hash\":\"0xe60125c798b6c854f94f77083dd0bd52070614f9b3913b0668c3d171a2bd2f89\",\"max_fee_per_gas\":\"11000000000\",\"revert_reason\":null,\"confirmation_duration\":[0,12000],\"transaction_burnt_fee\":\"114749155290000\",\"type\":2,\"token_transfers_overflow\":null,\"confirmations\":1,\"position\":192,\"max_priority_fee_per_gas\":\"79000000\",\"transaction_tag\":null,\"created_contract\":null,\"value\":\"99220440807455000\",\"from\":{\"ens_domain_name\":null,\"hash\":\"0xDa0729460A886525A23dbE38d60212254BCaE6A1\",\"implementations\":[],\"is_contract\":false,\"is_scam\":false,\"is_verified\":false,\"metadata\":null,\"name\":null,\"private_tags\":[],\"proxy_type\":null,\"public_tags\":[],\"watchlist_names\":[]},\"gas_used\":\"21000\",\"status\":\"ok\",\"to\":{\"ens_domain_name\":null,\"hash\":\"0x95976a9Bb943e1E3fDdD0486968C380E1C9a6b5C\",\"implementations\":[],\"is_contract\":false,\"is_scam\":false,\"is_verified\":false,\"metadata\":null,\"name\":null,\"private_tags\":[],\"proxy_type\":null,\"public_tags\":[],\"watchlist_names\":[]},\"authorization_list\":[],\"method\":null,\"fee\":{\"type\":\"actual\",\"value\":\"116408155290000\"},\"actions\":[],\"gas_limit\":\"23100\",\"gas_price\":\"5543245490\",\"decoded_input\":null,\"token_transfers\":null,\"base_fee_per_gas\":\"5464245490\",\"timestamp\":\"2025-06-12T14:42:11.000000Z\",\"nonce\":47,\"historic_exchange_rate\":\"2775.54\",\"transaction_types\":[\"coin_transfer\"],\"exchange_rate\":\"2760.96\",\"block_number\":22689151,\"has_error_in_internal_transactions\":null},{\"priority_fee\":\"1659000000000\",\"raw_input\":\"0x\",\"result\":\"success\",\"hash\":\"0xa542ddb4e69032e3973aca6c16e9ae94173ce3081e95659df1a2d890bd72f4a9\",\"max_fee_per_gas\":\"10000000000\",\"revert_reason\":null,\"confirmation_duration\":[0,12000],\"transaction_burnt_fee\":\"114749155290000\",\"type\":2,\"token_transfers_overflow\":null,\"confirmations\":1,\"position\":191,\"max_priority_fee_per_gas\":\"79000000\",\"transaction_tag\":null,\"created_contract\":null,\"value\":\"1880000000000000000\",\"from\":{\"ens_domain_name\":null,\"hash\":\"0x5cCD06617a8964F18e15C1CfD1dCbFf5CcBda5e1\",\"implementations\":[],\"is_contract\":false,\"is_scam\":false,\"is_verified\":false,\"metadata\":null,\"name\":null,\"private_tags\":[],\"proxy_type\":null,\"public_tags\":[],\"watchlist_names\":[]},\"gas_used\":\"21000\",\"status\":\"ok\",\"to\":{\"ens_domain_name\":\"bababooey.eth\",\"hash\":\"0x6Ced1c4828116389F9e6FcB27C8EC6995ccB7159\",\"implementations\":[],\"is_contract\":false,\"is_scam\":false,\"is_verified\":false,\"metadata\":null,\"name\":null,\"private_tags\":[],\"proxy_type\":null,\"public_tags\":[],\"watchlist_names\":[]},\"authorization_list\":[],\"method\":null,\"fee\":{\"type\":\"actual\",\"value\":\"116408155290000\"},\"actions\":[],\"gas_limit\":\"23100\",\"gas_price\":\"5543245490\",\"decoded_input\":null,\"token_transfers\":null,\"base_fee_per_gas\":\"5464245490\",\"timestamp\":\"2025-06-12T14:42:11.000000Z\",\"nonce\":63,\"historic_exchange_rate\":\"2775.54\",\"transaction_types\":[\"coin_transfer\"],\"exchange_rate\":\"2760.96\",\"block_number\":22689151,\"has_error_in_internal_transactions\":null},{\"priority_fee\":\"2065450000000\",\"raw_input\":\"0xa9059cbb0000000000000000000000009a64555d40cfd9558fc4aedc59f92f993a68da6e000000000000000000000000000000000000000000000000000000174876e800\",\"result\":\"success\",\"hash\":\"0x2e0e434e46763f4382e1a32ad9b4810277c59bc5b9bfcc4baa492e338c544a35\",\"max_fee_per_gas\":\"6011741950\",\"revert_reason\":null,\"confirmation_duration\":[0,12000],\"transaction_burnt_fee\":\"225722516946410\",\"type\":2,\"token_transfers_overflow\":null,\"confirmations\":1,\"position\":190,\"max_priority_fee_per_gas\":\"50000000\",\"transaction_tag\":null,\"created_contract\":null,\"value\":\"0\",\"from\":{\"ens_domain_name\":null,\"hash\":\"0xDE447853F8479EE4daE69ce938AE57edef04920B\",\"implementations\":[],\"is_contract\":false,\"is_scam\":false,\"is_verified\":false,\"metadata\":null,\"name\":null,\"private_tags\":[],\"proxy_type\":null,\"public_tags\":[],\"watchlist_names\":[]},\"gas_used\":\"41309\",\"status\":\"ok\",\"to\":{\"ens_domain_name\":null,\"hash\":\"0xdAC17F958D2ee523a2206206994597C13D831ec7\",\"implementations\":[],\"is_contract\":true,\"is_scam\":false,\"is_verified\":true,\"metadata\":{\"tags\":[{\"meta\":{\"tooltipDescription\":\"Tether gives you the joint benefits of open blockchain technology and traditional currency by converting your cash into a stable digital currency equivalent.\",\"tooltipUrl\":\"https://tether.to/\"},\"name\":\"Tether: USDT Stablecoin\",\"ordinal\":10,\"slug\":\"tether-usdt-stablecoin\",\"tagType\":\"name\"},{\"meta\":{},\"name\":\"Stablecoin\",\"ordinal\":0,\"slug\":\"stablecoin\",\"tagType\":\"generic\"},{\"meta\":{},\"name\":\"Tether\",\"ordinal\":0,\"slug\":\"tether\",\"tagType\":\"protocol\"},{\"meta\":{},\"name\":\"Token Contract\",\"ordinal\":0,\"slug\":\"token-contract\",\"tagType\":\"generic\"}]},\"name\":\"Tether\",\"private_tags\":[],\"proxy_type\":\"unknown\",\"public_tags\":[],\"watchlist_names\":[]},\"authorization_list\":[],\"method\":\"transfer\",\"fee\":{\"type\":\"actual\",\"value\":\"227787966946410\"},\"actions\":[],\"gas_limit\":\"84000\",\"gas_price\":\"5514245490\",\"decoded_input\":{\"method_call\":\"transfer(address _to, uint256 _value)\",\"method_id\":\"a9059cbb\",\"parameters\":[{\"name\":\"_to\",\"type\":\"address\",\"value\":\"0x9A64555d40cfD9558fc4AedC59f92F993a68da6E\"},{\"name\":\"_value\",\"type\":\"uint256\",\"value\":\"100000000000\"}]},\"token_transfers\":null,\"base_fee_per_gas\":\"5464245490\",\"timestamp\":\"2025-06-12T14:42:11.000000Z\",\"nonce\":4,\"historic_exchange_rate\":\"2775.54\",\"transaction_types\":[\"contract_call\",\"token_transfer\"],\"exchange_rate\":\"2760.96\",\"block_number\":22689151,\"has_error_in_internal_transactions\":null},{\"priority_fee\":null,\"raw_input\":\"0x\",\"result\":\"success\",\"hash\":\"0xb2bfd02bb49ad87d738005d22bfae4880270be8ccd347bd541a2d2b2796643f2\",\"max_fee_per_gas\":null,\"revert_reason\":null,\"confirmation_duration\":[0,12000],\"transaction_burnt_fee\":null,\"type\":0,\"token_transfers_overflow\":null,\"confirmations\":1,\"position\":189,\"max_priority_fee_per_gas\":null,\"transaction_tag\":null,\"created_contract\":null,\"value\":\"8257000000000000\",\"from\":{\"ens_domain_name\":null,\"hash\":\"0x18f58cf863399ef7022E5B0aDE5E76795B15Acb5\",\"implementations\":[],\"is_contract\":false,\"is_scam\":false,\"is_verified\":false,\"metadata\":null,\"name\":null,\"private_tags\":[],\"proxy_type\":null,\"public_tags\":[],\"watchlist_names\":[]},\"gas_used\":\"21000\",\"status\":\"ok\",\"to\":{\"ens_domain_name\":null,\"hash\":\"0x7a1F4D278682b9d35c9a30d502938AA8DB8Dc003\",\"implementations\":[],\"is_contract\":false,\"is_scam\":false,\"is_verified\":false,\"metadata\":null,\"name\":null,\"private_tags\":[],\"proxy_type\":null,\"public_tags\":[],\"watchlist_names\":[]},\"authorization_list\":[],\"method\":null,\"fee\":{\"type\":\"actual\",\"value\":\"160045632180000\"},\"actions\":[],\"gas_limit\":\"21000\",\"gas_price\":\"7621220580\",\"decoded_input\":null,\"token_transfers\":null,\"base_fee_per_gas\":\"5464245490\",\"timestamp\":\"2025-06-12T14:42:11.000000Z\",\"nonce\":545,\"historic_exchange_rate\":\"2775.54\",\"transaction_types\":[\"coin_transfer\"],\"exchange_rate\":\"2760.96\",\"block_number\":22689151,\"has_error_in_internal_transactions\":null},{\"priority_fee\":\"2305450000000\",\"raw_input\":\"0xa9059cbb000000000000000000000000fa4815839e6175e6e23d6330cf344f5a2dd1c551000000000000000000000000000000000000000000000000000000003af03220\",\"result\":\"success\",\"hash\":\"0x40a8ce550631b0746f61f0a3295f66c46b5ecb9e992d64d867ac4c5e3b179f7c\",\"max_fee_per_gas\":\"6312810175\",\"revert_reason\":null,\"confirmation_duration\":[0,12000],\"transaction_burnt_fee\":\"251950895298410\",\"type\":2,\"token_transfers_overflow\":null,\"confirmations\":1,\"position\":188,\"max_priority_fee_per_gas\":\"50000000\",\"transaction_tag\":null,\"created_contract\":null,\"value\":\"0\",\"from\":{\"ens_domain_name\":null,\"hash\":\"0x58b704065B7aFF3ED351052f8560019E05925023\",\"implementations\":[],\"is_contract\":false,\"is_scam\":false,\"is_verified\":false,\"metadata\":{\"tags\":[{\"meta\":{\"tooltipUrl\":\"https://bitso.com/\"},\"name\":\"Bitso 1\",\"ordinal\":10,\"slug\":\"bitso-1\",\"tagType\":\"name\"},{\"meta\":{},\"name\":\"HOT WALLET\",\"ordinal\":0,\"slug\":\"hot-wallet\",\"tagType\":\"generic\"},{\"meta\":{\"alertStatus\":\"info\",\"data\":\"This address has been tagged based on hildobby compilation.\"},\"name\":\"note_0\",\"ordinal\":0,\"slug\":\"note0\",\"tagType\":\"note\"},{\"meta\":{},\"name\":\"Bitso\",\"ordinal\":0,\"slug\":\"bitso\",\"tagType\":\"generic\"}]},\"name\":null,\"private_tags\":[],\"proxy_type\":null,\"public_tags\":[],\"watchlist_names\":[]},\"gas_used\":\"46109\",\"status\":\"ok\",\"to\":{\"ens_domain_name\":null,\"hash\":\"0xdAC17F958D2ee523a2206206994597C13D831ec7\",\"implementations\":[],\"is_contract\":true,\"is_scam\":false,\"is_verified\":true,\"metadata\":{\"tags\":[{\"meta\":{\"tooltipDescription\":\"Tether gives you the joint benefits of open blockchain technology and traditional currency by converting your cash into a stable digital currency equivalent.\",\"tooltipUrl\":\"https://tether.to/\"},\"name\":\"Tether: USDT Stablecoin\",\"ordinal\":10,\"slug\":\"tether-usdt-stablecoin\",\"tagType\":\"name\"},{\"meta\":{},\"name\":\"Stablecoin\",\"ordinal\":0,\"slug\":\"stablecoin\",\"tagType\":\"generic\"},{\"meta\":{},\"name\":\"Tether\",\"ordinal\":0,\"slug\":\"tether\",\"tagType\":\"protocol\"},{\"meta\":{},\"name\":\"Token Contract\",\"ordinal\":0,\"slug\":\"token-contract\",\"tagType\":\"generic\"}]},\"name\":\"Tether\",\"private_tags\":[],\"proxy_type\":\"unknown\",\"public_tags\":[],\"watchlist_names\":[]},\"authorization_list\":[],\"method\":\"transfer\",\"fee\":{\"type\":\"actual\",\"value\":\"254256345298410\"},\"actions\":[],\"gas_limit\":\"84000\",\"gas_price\":\"5514245490\",\"decoded_input\":{\"method_call\":\"transfer(address _to, uint256 _value)\",\"method_id\":\"a9059cbb\",\"parameters\":[{\"name\":\"_to\",\"type\":\"address\",\"value\":\"0xfA4815839e6175e6e23D6330CF344f5A2DD1c551\"},{\"name\":\"_value\",\"type\":\"uint256\",\"value\":\"988820000\"}]},\"token_transfers\":null,\"base_fee_per_gas\":\"5464245490\",\"timestamp\":\"2025-06-12T14:42:11.000000Z\",\"nonce\":698880,\"historic_exchange_rate\":\"2775.54\",\"transaction_types\":[\"contract_call\",\"token_transfer\"],\"exchange_rate\":\"2760.96\",\"block_number\":22689151,\"has_error_in_internal_transactions\":null},{\"priority_fee\":\"3113000000000\",\"raw_input\":\"0xa9059cbb0000000000000000000000008de2bf85c06d5d385a5e07031ce1c53cddce1cdf00000000000000000000000000000000000000000000000000000005d21dba00\",\"result\":\"success\",\"hash\":\"0x8d37b1dd16f6ed5db5177de627c80aa3d66a49d16c14416b6fe71d3cce36ae42\",\"max_fee_per_gas\":\"6312810175\",\"revert_reason\":null,\"confirmation_duration\":[0,12000],\"transaction_burnt_fee\":\"340203924207400\",\"type\":2,\"token_transfers_overflow\":null,\"confirmations\":1,\"position\":187,\"max_priority_fee_per_gas\":\"50000000\",\"transaction_tag\":null,\"created_contract\":null,\"value\":\"0\",\"from\":{\"ens_domain_name\":null,\"hash\":\"0x2A2ee92ae659E70527f190ab6276AD704B0602fF\",\"implementations\":[],\"is_contract\":false,\"is_scam\":false,\"is_verified\":false,\"metadata\":null,\"name\":null,\"private_tags\":[],\"proxy_type\":null,\"public_tags\":[],\"watchlist_names\":[]},\"gas_used\":\"62260\",\"status\":\"ok\",\"to\":{\"ens_domain_name\":null,\"hash\":\"0xA0b86991c6218b36c1d19D4a2e9Eb0cE3606eB48\",\"implementations\":[{\"address\":\"0x43506849D7C04F9138D1A2050bbF3A0c054402dd\",\"address_hash\":\"0x43506849D7C04F9138D1A2050bbF3A0c054402dd\",\"name\":\"FiatTokenV2_2\"}],\"is_contract\":true,\"is_scam\":false,\"is_verified\":true,\"metadata\":{\"tags\":[{\"meta\":{\"tooltipDescription\":\"USDC is a US dollar-backed stablecoin issued by Circle. USDC is designed to provide a faster, safer, and more efficient way to send, spend, and exchange money around the world.\",\"tooltipUrl\":\"https://www.circle.com/en/usdc\"},\"name\":\"Circle: USDC Token\",\"ordinal\":10,\"slug\":\"circle-usdc-token\",\"tagType\":\"name\"},{\"meta\":{},\"name\":\"USDC\",\"ordinal\":0,\"slug\":\"usdc\",\"tagType\":\"generic\"},{\"meta\":{},\"name\":\"Token Contract\",\"ordinal\":0,\"slug\":\"token-contract\",\"tagType\":\"generic\"},{\"meta\":{},\"name\":\"Circle\",\"ordinal\":0,\"slug\":\"circle\",\"tagType\":\"protocol\"},{\"meta\":{},\"name\":\"Stablecoin\",\"ordinal\":0,\"slug\":\"stablecoin\",\"tagType\":\"generic\"}]},\"name\":\"USDC\",\"private_tags\":[],\"proxy_type\":\"eip1967\",\"public_tags\":[],\"watchlist_names\":[]},\"authorization_list\":[],\"method\":\"transfer\",\"fee\":{\"type\":\"actual\",\"value\":\"343316924207400\"},\"actions\":[],\"gas_limit\":\"84000\",\"gas_price\":\"5514245490\",\"decoded_input\":{\"method_call\":\"transfer(address to, uint256 value)\",\"method_id\":\"a9059cbb\",\"parameters\":[{\"name\":\"to\",\"type\":\"address\",\"value\":\"0x8De2Bf85c06d5d385A5E07031CE1c53cdDce1cdF\"},{\"name\":\"value\",\"type\":\"uint256\",\"value\":\"25000000000\"}]},\"token_transfers\":null,\"base_fee_per_gas\":\"5464245490\",\"timestamp\":\"2025-06-12T14:42:11.000000Z\",\"nonce\":665,\"historic_exchange_rate\":\"2775.54\",\"transaction_types\":[\"contract_call\",\"token_transfer\"],\"exchange_rate\":\"2760.96\",\"block_number\":22689151,\"has_error_in_internal_transactions\":null},{\"priority_fee\":\"3230267340932\",\"raw_input\":\"0x2e7ba6ef0000000000000000000000000000000000000000000000000000000000004d2a000000000000000000000000c7e4c4292e0eabd3faa3781c23c01a197fa801730000000000000000000000000000000000000000000000629c672ff8fd2d19000000000000000000000000000000000000000000000000000000000000000080000000000000000000000000000000000000000000000000000000000000000f308feb953d24ee2a997dac8f9f12844596e5303e655cc8847aa3948479dababd54e4536a2de65fdf06de6486ffc0cba95ed4cbe9a785a9cb097bebbf43f1844d2ec059dca976ee3f77d228fbb1a0dcc577ec28ac15c35b6815e0c3085ce2510d39256c276bacdf12297c59fa6543dfe5fb872ba60dcf337d600a37318ca7c6e51bc5965070e7437b02b05015d2f833c72724c765743ca1d3cc3400cb35bdf83a83f2789128309a734a0fb5ccc358aa126897bcb8fdd0a75bd7ebfc5af0c6bba206fad1c5837ca30a2faa57ba8935916b8f221b4c9db9ca152c7b0170eab91747987849aca832a5079eea576d57d1dcacba6c660fcf2a3b8f916fb5c297056bcb7cf38d045f7fa5f265156764ec92fb6c4358efa4e9758daf7212ff12d09240640cb8d68df175bdc2931c84d2a9d8687c112f2c68265ec661f132878b4706c696d9c005e16670b69a33b40aa2a5dcb0ab813b1dce98981648d537515e0fbd57dc1fe668a484aa90e9b6a708fa83db7c2c465fc74654ceb9300df872003fdd06e7169e026fffc3d05460fbd5be502a34ca14b41c6066ee38f2f7115faf4f2a3f72024f9adf77ce20849703ee31a3f49e81a60748b21734ec22cb6da717f3bc8d3080c09fb027ab2d9c71a906b89c778c79229d463f6e0d566f317092e6466143e7\",\"result\":\"success\",\"hash\":\"0x53b5c463647bd970f7f10eae95e471b4280e67e2876192edc90a334f90052170\",\"max_fee_per_gas\":\"5498776446\",\"revert_reason\":null,\"confirmation_duration\":[0,12000],\"transaction_burnt_fee\":\"511163772853030\",\"type\":2,\"token_transfers_overflow\":null,\"confirmations\":1,\"position\":186,\"max_priority_fee_per_gas\":\"74260000\",\"transaction_tag\":null,\"created_contract\":null,\"value\":\"0\",\"from\":{\"ens_domain_name\":null,\"hash\":\"0xC7e4C4292e0EABD3faa3781c23c01a197fa80173\",\"implementations\":[],\"is_contract\":false,\"is_scam\":false,\"is_verified\":false,\"metadata\":null,\"name\":null,\"private_tags\":[],\"proxy_type\":null,\"public_tags\":[],\"watchlist_names\":[]},\"gas_used\":\"93547\",\"status\":\"ok\",\"to\":{\"ens_domain_name\":null,\"hash\":\"0xe857Fd582Ca91538d1E46fdEF90De72A61aEdCc2\",\"implementations\":[],\"is_contract\":true,\"is_scam\":false,\"is_verified\":false,\"metadata\":null,\"name\":null,\"private_tags\":[],\"proxy_type\":\"unknown\",\"public_tags\":[],\"watchlist_names\":[]},\"authorization_list\":[],\"method\":\"claim\",\"fee\":{\"type\":\"actual\",\"value\":\"514394040193962\"},\"actions\":[],\"gas_limit\":\"141751\",\"gas_price\":\"5498776446\",\"decoded_input\":{\"method_call\":\"claim(uint256 index, address beneficiary, uint256 amount, bytes32[] merkleProof)\",\"method_id\":\"2e7ba6ef\",\"parameters\":[{\"name\":\"index\",\"type\":\"uint256\",\"value\":\"19754\"},{\"name\":\"beneficiary\",\"type\":\"address\",\"value\":\"0xC7e4C4292e0EABD3faa3781c23c01a197fa80173\"},{\"name\":\"amount\",\"type\":\"uint256\",\"value\":\"1819050948562500000000\"},{\"name\":\"merkleProof\",\"type\":\"bytes32[]\",\"value\":[\"0x308feb953d24ee2a997dac8f9f12844596e5303e655cc8847aa3948479dababd\",\"0x54e4536a2de65fdf06de6486ffc0cba95ed4cbe9a785a9cb097bebbf43f1844d\",\"0x2ec059dca976ee3f77d228fbb1a0dcc577ec28ac15c35b6815e0c3085ce2510d\",\"0x39256c276bacdf12297c59fa6543dfe5fb872ba60dcf337d600a37318ca7c6e5\",\"0x1bc5965070e7437b02b05015d2f833c72724c765743ca1d3cc3400cb35bdf83a\",\"0x83f2789128309a734a0fb5ccc358aa126897bcb8fdd0a75bd7ebfc5af0c6bba2\",\"0x06fad1c5837ca30a2faa57ba8935916b8f221b4c9db9ca152c7b0170eab91747\",\"0x987849aca832a5079eea576d57d1dcacba6c660fcf2a3b8f916fb5c297056bcb\",\"0x7cf38d045f7fa5f265156764ec92fb6c4358efa4e9758daf7212ff12d0924064\",\"0x0cb8d68df175bdc2931c84d2a9d8687c112f2c68265ec661f132878b4706c696\",\"0xd9c005e16670b69a33b40aa2a5dcb0ab813b1dce98981648d537515e0fbd57dc\",\"0x1fe668a484aa90e9b6a708fa83db7c2c465fc74654ceb9300df872003fdd06e7\",\"0x169e026fffc3d05460fbd5be502a34ca14b41c6066ee38f2f7115faf4f2a3f72\",\"0x024f9adf77ce20849703ee31a3f49e81a60748b21734ec22cb6da717f3bc8d30\",\"0x80c09fb027ab2d9c71a906b89c778c79229d463f6e0d566f317092e6466143e7\"]}]},\"token_transfers\":null,\"base_fee_per_gas\":\"5464245490\",\"timestamp\":\"2025-06-12T14:42:11.000000Z\",\"nonce\":123,\"historic_exchange_rate\":\"2775.54\",\"transaction_types\":[\"contract_call\",\"token_transfer\"],\"exchange_rate\":\"2760.96\",\"block_number\":22689151,\"has_error_in_internal_transactions\":null},{\"priority_fee\":\"3392048280000\",\"raw_input\":\"0xa9059cbb000000000000000000000000f70da97812cb96acdf810712aa562db8dfa3dbef0000000000000000000000000000000000000000000000000000000165a0bc00f50c540334b224786578dc41cfdf90a08cd9bd77bf6873939e27ebebfa78a762\",\"result\":\"success\",\"hash\":\"0x94d8124c4db803aab2684cddd900cb38041a4a2a008ad2d848613b3d44a65c96\",\"max_fee_per_gas\":\"6200000000\",\"revert_reason\":null,\"confirmation_duration\":[0,12000],\"transaction_burnt_fee\":\"249595805492220\",\"type\":2,\"token_transfers_overflow\":null,\"confirmations\":1,\"position\":185,\"max_priority_fee_per_gas\":\"74260000\",\"transaction_tag\":null,\"created_contract\":null,\"value\":\"0\",\"from\":{\"ens_domain_name\":null,\"hash\":\"0x000001ac4e512d670c34feDf6c71cE2F49fb160a\",\"implementations\":[],\"is_contract\":false,\"is_scam\":false,\"is_verified\":false,\"metadata\":null,\"name\":null,\"private_tags\":[],\"proxy_type\":\"unknown\",\"public_tags\":[],\"watchlist_names\":[]},\"gas_used\":\"45678\",\"status\":\"ok\",\"to\":{\"ens_domain_name\":null,\"hash\":\"0xA0b86991c6218b36c1d19D4a2e9Eb0cE3606eB48\",\"implementations\":[{\"address\":\"0x43506849D7C04F9138D1A2050bbF3A0c054402dd\",\"address_hash\":\"0x43506849D7C04F9138D1A2050bbF3A0c054402dd\",\"name\":\"FiatTokenV2_2\"}],\"is_contract\":true,\"is_scam\":false,\"is_verified\":true,\"metadata\":{\"tags\":[{\"meta\":{\"tooltipDescription\":\"USDC is a US dollar-backed stablecoin issued by Circle. USDC is designed to provide a faster, safer, and more efficient way to send, spend, and exchange money around the world.\",\"tooltipUrl\":\"https://www.circle.com/en/usdc\"},\"name\":\"Circle: USDC Token\",\"ordinal\":10,\"slug\":\"circle-usdc-token\",\"tagType\":\"name\"},{\"meta\":{},\"name\":\"USDC\",\"ordinal\":0,\"slug\":\"usdc\",\"tagType\":\"generic\"},{\"meta\":{},\"name\":\"Token Contract\",\"ordinal\":0,\"slug\":\"token-contract\",\"tagType\":\"generic\"},{\"meta\":{},\"name\":\"Circle\",\"ordinal\":0,\"slug\":\"circle\",\"tagType\":\"protocol\"},{\"meta\":{},\"name\":\"Stablecoin\",\"ordinal\":0,\"slug\":\"stablecoin\",\"tagType\":\"generic\"}]},\"name\":\"USDC\",\"private_tags\":[],\"proxy_type\":\"eip1967\",\"public_tags\":[],\"watchlist_names\":[]},\"authorization_list\":[],\"method\":\"transfer\",\"fee\":{\"type\":\"actual\",\"value\":\"252987853772220\"},\"actions\":[],\"gas_limit\":\"69089\",\"gas_price\":\"5538505490\",\"decoded_input\":{\"method_call\":\"transfer(address to, uint256 value)\",\"method_id\":\"a9059cbb\",\"parameters\":[{\"name\":\"to\",\"type\":\"address\",\"value\":\"0xf70da97812CB96acDF810712Aa562db8dfA3dbEF\"},{\"name\":\"value\",\"type\":\"uint256\",\"value\":\"6000000000\"}]},\"token_transfers\":null,\"base_fee_per_gas\":\"5464245490\",\"timestamp\":\"2025-06-12T14:42:11.000000Z\",\"nonce\":9821,\"historic_exchange_rate\":\"2775.54\",\"transaction_types\":[\"contract_call\",\"token_transfer\"],\"exchange_rate\":\"2760.96\",\"block_number\":22689151,\"has_error_in_internal_transactions\":null},{\"priority_fee\":\"3398178617568\",\"raw_input\":\"0xa9059cbb000000000000000000000000a6210ff05a55b03006493507efccdb461cd9409e00000000000000000000000000000000000000000000000000000001128fd86f\",\"result\":\"success\",\"hash\":\"0x483cdb638fbc19200037425249267276e04d6352b73c2bdcac28f5a227638791\",\"max_fee_per_gas\":\"6632322132\",\"revert_reason\":null,\"confirmation_duration\":[0,12000],\"transaction_burnt_fee\":\"246830897274280\",\"type\":2,\"token_transfers_overflow\":null,\"confirmations\":1,\"position\":184,\"max_priority_fee_per_gas\":\"75227544\",\"transaction_tag\":null,\"created_contract\":null,\"value\":\"0\",\"from\":{\"ens_domain_name\":null,\"hash\":\"0xFAafe5FcaC0E87D40017E44CD462398026a12230\",\"implementations\":[],\"is_contract\":false,\"is_scam\":false,\"is_verified\":false,\"metadata\":null,\"name\":null,\"private_tags\":[],\"proxy_type\":null,\"public_tags\":[],\"watchlist_names\":[]},\"gas_used\":\"45172\",\"status\":\"ok\",\"to\":{\"ens_domain_name\":null,\"hash\":\"0xA0b86991c6218b36c1d19D4a2e9Eb0cE3606eB48\",\"implementations\":[{\"address\":\"0x43506849D7C04F9138D1A2050bbF3A0c054402dd\",\"address_hash\":\"0x43506849D7C04F9138D1A2050bbF3A0c054402dd\",\"name\":\"FiatTokenV2_2\"}],\"is_contract\":true,\"is_scam\":false,\"is_verified\":true,\"metadata\":{\"tags\":[{\"meta\":{\"tooltipDescription\":\"USDC is a US dollar-backed stablecoin issued by Circle. USDC is designed to provide a faster, safer, and more efficient way to send, spend, and exchange money around the world.\",\"tooltipUrl\":\"https://www.circle.com/en/usdc\"},\"name\":\"Circle: USDC Token\",\"ordinal\":10,\"slug\":\"circle-usdc-token\",\"tagType\":\"name\"},{\"meta\":{},\"name\":\"USDC\",\"ordinal\":0,\"slug\":\"usdc\",\"tagType\":\"generic\"},{\"meta\":{},\"name\":\"Token Contract\",\"ordinal\":0,\"slug\":\"token-contract\",\"tagType\":\"generic\"},{\"meta\":{},\"name\":\"Circle\",\"ordinal\":0,\"slug\":\"circle\",\"tagType\":\"protocol\"},{\"meta\":{},\"name\":\"Stablecoin\",\"ordinal\":0,\"slug\":\"stablecoin\",\"tagType\":\"generic\"}]},\"name\":\"USDC\",\"private_tags\":[],\"proxy_type\":\"eip1967\",\"public_tags\":[],\"watchlist_names\":[]},\"authorization_list\":[],\"method\":\"transfer\",\"fee\":{\"type\":\"actual\",\"value\":\"250229075891848\"},\"actions\":[],\"gas_limit\":\"200000\",\"gas_price\":\"5539473034\",\"decoded_input\":{\"method_call\":\"transfer(address to, uint256 value)\",\"method_id\":\"a9059cbb\",\"parameters\":[{\"name\":\"to\",\"type\":\"address\",\"value\":\"0xA6210Ff05A55b03006493507EFCCDB461CD9409e\"},{\"name\":\"value\",\"type\":\"uint256\",\"value\":\"4606384239\"}]},\"token_transfers\":null,\"base_fee_per_gas\":\"5464245490\",\"timestamp\":\"2025-06-12T14:42:11.000000Z\",\"nonce\":6139,\"historic_exchange_rate\":\"2775.54\",\"transaction_types\":[\"contract_call\",\"token_transfer\"],\"exchange_rate\":\"2760.96\",\"block_number\":22689151,\"has_error_in_internal_transactions\":null},{\"priority_fee\":\"3429475320000\",\"raw_input\":\"0x095ea7b3000000000000000000000000c13e21b648a5ee794902342038ff3adab66be9870000000000000000000000000000000000000000000000b07a6853175ddaeb91\",\"result\":\"success\",\"hash\":\"0xc0dadced8617e71063e35a1b22450be23393e019f3d211d91d736ecc56c27f2c\",\"max_fee_per_gas\":\"6200000000\",\"revert_reason\":null,\"confirmation_duration\":[0,12000],\"transaction_burnt_fee\":\"252349785219180\",\"type\":2,\"token_transfers_overflow\":null,\"confirmations\":1,\"position\":183,\"max_priority_fee_per_gas\":\"74260000\",\"transaction_tag\":null,\"created_contract\":null,\"value\":\"0\",\"from\":{\"ens_domain_name\":null,\"hash\":\"0xAA0b90BE81929B5831de6c771A782128B0e67f2d\",\"implementations\":[],\"is_contract\":false,\"is_scam\":false,\"is_verified\":false,\"metadata\":null,\"name\":null,\"private_tags\":[],\"proxy_type\":null,\"public_tags\":[],\"watchlist_names\":[]},\"gas_used\":\"46182\",\"status\":\"ok\",\"to\":{\"ens_domain_name\":null,\"hash\":\"0x6B175474E89094C44Da98b954EedeAC495271d0F\",\"implementations\":[],\"is_contract\":true,\"is_scam\":false,\"is_verified\":true,\"metadata\":{\"tags\":[{\"meta\":{},\"name\":\"DeFi\",\"ordinal\":0,\"slug\":\"defi\",\"tagType\":\"generic\"},{\"meta\":{\"tooltipDescription\":\"Multi-Collateral Dai, brings a lot of new and exciting features, such as support for new CDP collateral types and Dai Savings Rate.\",\"tooltipUrl\":\"https://makerdao.com/\"},\"name\":\"Maker: Dai Stablecoin\",\"ordinal\":10,\"slug\":\"maker-dai-stablecoin\",\"tagType\":\"name\"},{\"meta\":{},\"name\":\"Maker\",\"ordinal\":0,\"slug\":\"maker\",\"tagType\":\"protocol\"},{\"meta\":{},\"name\":\"Stablecoin\",\"ordinal\":0,\"slug\":\"stablecoin\",\"tagType\":\"generic\"},{\"meta\":{},\"name\":\"Token Contract\",\"ordinal\":0,\"slug\":\"token-contract\",\"tagType\":\"generic\"}]},\"name\":\"Dai\",\"private_tags\":[],\"proxy_type\":\"unknown\",\"public_tags\":[],\"watchlist_names\":[]},\"authorization_list\":[],\"method\":\"approve\",\"fee\":{\"type\":\"actual\",\"value\":\"255779260539180\"},\"actions\":[],\"gas_limit\":\"69846\",\"gas_price\":\"5538505490\",\"decoded_input\":{\"method_call\":\"approve(address usr, uint256 wad)\",\"method_id\":\"095ea7b3\",\"parameters\":[{\"name\":\"usr\",\"type\":\"address\",\"value\":\"0xC13e21B648A5Ee794902342038FF3aDAB66BE987\"},{\"name\":\"wad\",\"type\":\"uint256\",\"value\":\"3255447348202910182289\"}]},\"token_transfers\":null,\"base_fee_per_gas\":\"5464245490\",\"timestamp\":\"2025-06-12T14:42:11.000000Z\",\"nonce\":322,\"historic_exchange_rate\":\"2775.54\",\"transaction_types\":[\"contract_call\"],\"exchange_rate\":\"2760.96\",\"block_number\":22689151,\"has_error_in_internal_transactions\":null},{\"priority_fee\":\"3443436200000\",\"raw_input\":\"0x095ea7b3000000000000000000000000111111125421ca6dc452d289314280a0f8842a65000000000000000000000000000000000000000000000327242fd10223d10000\",\"result\":\"success\",\"hash\":\"0x10855a6d5d94a9f8442841fa5a9e30b3a8258ad729b0262330b97ece1d4d9614\",\"max_fee_per_gas\":\"6200000000\",\"revert_reason\":null,\"confirmation_duration\":[0,12000],\"transaction_burnt_fee\":\"253377063371300\",\"type\":2,\"token_transfers_overflow\":null,\"confirmations\":1,\"position\":182,\"max_priority_fee_per_gas\":\"74260000\",\"transaction_tag\":null,\"created_contract\":null,\"value\":\"0\",\"from\":{\"ens_domain_name\":null,\"hash\":\"0xacfdb1766ED0C7fbe6d3643f225451F111bA1405\",\"implementations\":[],\"is_contract\":false,\"is_scam\":false,\"is_verified\":false,\"metadata\":null,\"name\":null,\"private_tags\":[],\"proxy_type\":null,\"public_tags\":[],\"watchlist_names\":[]},\"gas_used\":\"46370\",\"status\":\"ok\",\"to\":{\"ens_domain_name\":null,\"hash\":\"0xABC930fdD6bCBBC2b5ae0d338138A025ec12eE55\",\"implementations\":[],\"is_contract\":true,\"is_scam\":false,\"is_verified\":false,\"metadata\":null,\"name\":\"LABUBU\",\"private_tags\":[],\"proxy_type\":\"unknown\",\"public_tags\":[],\"watchlist_names\":[]},\"authorization_list\":[],\"method\":\"approve\",\"fee\":{\"type\":\"actual\",\"value\":\"256820499571300\"},\"actions\":[],\"gas_limit\":\"70130\",\"gas_price\":\"5538505490\",\"decoded_input\":{\"method_call\":\"approve(address _to, uint256 _tokenId)\",\"method_id\":\"095ea7b3\",\"parameters\":[{\"name\":\"_to\",\"type\":\"address\",\"value\":\"0x111111125421cA6dc452d289314280a0f8842A65\"},{\"name\":\"_tokenId\",\"type\":\"uint256\",\"value\":\"14889130000000000000000\"}]},\"token_transfers\":null,\"base_fee_per_gas\":\"5464245490\",\"timestamp\":\"2025-06-12T14:42:11.000000Z\",\"nonce\":3540,\"historic_exchange_rate\":\"2775.54\",\"transaction_types\":[\"contract_call\"],\"exchange_rate\":\"2760.96\",\"block_number\":22689151,\"has_error_in_internal_transactions\":null},{\"priority_fee\":null,\"raw_input\":\"0x\",\"result\":\"success\",\"hash\":\"0xcb601fe25ade067be291f6976ecb833ea9a25bf30ab17f87160f0fe5ee34859d\",\"max_fee_per_gas\":null,\"revert_reason\":null,\"confirmation_duration\":[0,12000],\"transaction_burnt_fee\":null,\"type\":0,\"token_transfers_overflow\":null,\"confirmations\":1,\"position\":181,\"max_priority_fee_per_gas\":null,\"transaction_tag\":null,\"created_contract\":null,\"value\":\"34194320051106832\",\"from\":{\"ens_domain_name\":null,\"hash\":\"0x66a92d9381A0B8aDCE55f9E9185A25206711c2fF\",\"implementations\":[],\"is_contract\":false,\"is_scam\":false,\"is_verified\":false,\"metadata\":null,\"name\":null,\"private_tags\":[],\"proxy_type\":null,\"public_tags\":[],\"watchlist_names\":[]},\"gas_used\":\"21000\",\"status\":\"ok\",\"to\":{\"ens_domain_name\":null,\"hash\":\"0x087B8f85AC9f663DA1f08CcD4f8E6e81c1535b61\",\"implementations\":[],\"is_contract\":false,\"is_scam\":false,\"is_verified\":false,\"metadata\":null,\"name\":null,\"private_tags\":[],\"proxy_type\":null,\"public_tags\":[],\"watchlist_names\":[]},\"authorization_list\":[],\"method\":null,\"fee\":{\"type\":\"actual\",\"value\":\"130200000000000\"},\"actions\":[],\"gas_limit\":\"21000\",\"gas_price\":\"6200000000\",\"decoded_input\":null,\"token_transfers\":null,\"base_fee_per_gas\":\"5464245490\",\"timestamp\":\"2025-06-12T14:42:11.000000Z\",\"nonce\":4,\"historic_exchange_rate\":\"2775.54\",\"transaction_types\":[\"coin_transfer\"],\"exchange_rate\":\"2760.96\",\"block_number\":22689151,\"has_error_in_internal_transactions\":null},{\"priority_fee\":\"3555420280000\",\"raw_input\":\"0xb88d4fde000000000000000000000000348a737ec04ab0f05a41dac2f6c8eb04fbc9992a000000000000000000000000d48af94c5064d99762a2327fecd99f673f534c3f000000000000000000000000000000000000000000000000000000000000440900000000000000000000000000000000000000000000000000000000000000800000000000000000000000000000000000000000000000000000000000000000\",\"result\":\"success\",\"hash\":\"0xda6b56ac151316bb3ad5f39cde96ae7287ca5f95de0769f97aadcfe3d29cb4a3\",\"max_fee_per_gas\":\"6200000000\",\"revert_reason\":null,\"confirmation_duration\":[0,12000],\"transaction_burnt_fee\":\"261617145570220\",\"type\":2,\"token_transfers_overflow\":null,\"confirmations\":1,\"position\":180,\"max_priority_fee_per_gas\":\"74260000\",\"transaction_tag\":null,\"created_contract\":null,\"value\":\"0\",\"from\":{\"ens_domain_name\":\"meegs14427.eth\",\"hash\":\"0x348A737Ec04aB0f05a41Dac2F6C8EB04fBc9992a\",\"implementations\":[],\"is_contract\":false,\"is_scam\":false,\"is_verified\":false,\"metadata\":null,\"name\":null,\"private_tags\":[],\"proxy_type\":null,\"public_tags\":[],\"watchlist_names\":[]},\"gas_used\":\"47878\",\"status\":\"ok\",\"to\":{\"ens_domain_name\":null,\"hash\":\"0xd774557b647330C91Bf44cfEAB205095f7E6c367\",\"implementations\":[],\"is_contract\":true,\"is_scam\":false,\"is_verified\":true,\"metadata\":{\"tags\":[{\"meta\":{},\"name\":\"Nakamigos: NKMGS Token\",\"ordinal\":10,\"slug\":\"nakamigos-nkmgs-token\",\"tagType\":\"name\"}]},\"name\":\"Nakamigos\",\"private_tags\":[],\"proxy_type\":\"unknown\",\"public_tags\":[],\"watchlist_names\":[]},\"authorization_list\":[],\"method\":\"safeTransferFrom\",\"fee\":{\"type\":\"actual\",\"value\":\"265172565850220\"},\"actions\":[],\"gas_limit\":\"71817\",\"gas_price\":\"5538505490\",\"decoded_input\":{\"method_call\":\"safeTransferFrom(address from, address to, uint256 tokenId, bytes data)\",\"method_id\":\"b88d4fde\",\"parameters\":[{\"name\":\"from\",\"type\":\"address\",\"value\":\"0x348A737Ec04aB0f05a41Dac2F6C8EB04fBc9992a\"},{\"name\":\"to\",\"type\":\"address\",\"value\":\"0xd48af94C5064D99762a2327Fecd99F673f534C3f\"},{\"name\":\"tokenId\",\"type\":\"uint256\",\"value\":\"17417\"},{\"name\":\"data\",\"type\":\"bytes\",\"value\":\"0x\"}]},\"token_transfers\":null,\"base_fee_per_gas\":\"5464245490\",\"timestamp\":\"2025-06-12T14:42:11.000000Z\",\"nonce\":1098,\"historic_exchange_rate\":\"2775.54\",\"transaction_types\":[\"contract_call\",\"token_transfer\"],\"exchange_rate\":\"2760.96\",\"block_number\":22689151,\"has_error_in_internal_transactions\":null},{\"priority_fee\":\"3618021460000\",\"raw_input\":\"0x095ea7b30000000000000000000000000c3cf6bf9faffa39a8a9b6891e1777a898bb5754000000000000000000000000000000000000000000000000340ce104b379c000\",\"result\":\"success\",\"hash\":\"0xfe84fe1bff90863df6d5e464582538573fd95674cc92981fffad3b496b43e26a\",\"max_fee_per_gas\":\"6200000000\",\"revert_reason\":null,\"confirmation_duration\":[0,12000],\"transaction_burnt_fee\":\"266223504518290\",\"type\":2,\"token_transfers_overflow\":null,\"confirmations\":1,\"position\":179,\"max_priority_fee_per_gas\":\"74260000\",\"transaction_tag\":null,\"created_contract\":null,\"value\":\"0\",\"from\":{\"ens_domain_name\":null,\"hash\":\"0x15244a560642e5EB642c76076436ff9080689678\",\"implementations\":[],\"is_contract\":false,\"is_scam\":false,\"is_verified\":false,\"metadata\":null,\"name\":null,\"private_tags\":[],\"proxy_type\":null,\"public_tags\":[],\"watchlist_names\":[]},\"gas_used\":\"48721\",\"status\":\"ok\",\"to\":{\"ens_domain_name\":null,\"hash\":\"0xEA87148a703ADc0DE89dB2aC2b6b381093aE8ee0\",\"implementations\":[{\"address\":\"0xfdB5cC1C2C040A63F89ADbde33947650337959FB\",\"address_hash\":\"0xfdB5cC1C2C040A63F89ADbde33947650337959FB\",\"name\":null}],\"is_contract\":true,\"is_scam\":false,\"is_verified\":false,\"metadata\":null,\"name\":\"I.R.I.S by Virtuals\",\"private_tags\":[],\"proxy_type\":\"eip1167\",\"public_tags\":[],\"watchlist_names\":[]},\"authorization_list\":[],\"method\":\"approve\",\"fee\":{\"type\":\"actual\",\"value\":\"269841525978290\"},\"actions\":[],\"gas_limit\":\"73082\",\"gas_price\":\"5538505490\",\"decoded_input\":{\"method_call\":\"approve(address _to, uint256 _tokenId)\",\"method_id\":\"095ea7b3\",\"parameters\":[{\"name\":\"_to\",\"type\":\"address\",\"value\":\"0x0c3cf6bF9FAFFA39a8A9B6891e1777A898bB5754\"},{\"name\":\"_tokenId\",\"type\":\"uint256\",\"value\":\"3750620000000000000\"}]},\"token_transfers\":null,\"base_fee_per_gas\":\"5464245490\",\"timestamp\":\"2025-06-12T14:42:11.000000Z\",\"nonce\":16,\"historic_exchange_rate\":\"2775.54\",\"transaction_types\":[\"contract_call\"],\"exchange_rate\":\"2760.96\",\"block_number\":22689151,\"has_error_in_internal_transactions\":null},{\"priority_fee\":\"3674211000000\",\"raw_input\":\"0x095ea7b30000000000000000000000000000000000001ff3684f28c67538d4d072c22734ffffffffffffffffffffffffffffffffffffffffffffffffffffffffffffffff\",\"result\":\"success\",\"hash\":\"0xdf787b30795c4f77d6d908bbb801e844a6f3f28d6b84989226dadc98f5529c04\",\"max_fee_per_gas\":\"11000000000\",\"revert_reason\":null,\"confirmation_duration\":[0,12000],\"transaction_burnt_fee\":\"254136593494410\",\"type\":2,\"token_transfers_overflow\":null,\"confirmations\":1,\"position\":178,\"max_priority_fee_per_gas\":\"79000000\",\"transaction_tag\":null,\"created_contract\":null,\"value\":\"0\",\"from\":{\"ens_domain_name\":null,\"hash\":\"0x34e8932d5b7Df942b8755a465a2DF9eb5cB8dff5\",\"implementations\":[],\"is_contract\":false,\"is_scam\":false,\"is_verified\":false,\"metadata\":null,\"name\":null,\"private_tags\":[],\"proxy_type\":null,\"public_tags\":[],\"watchlist_names\":[]},\"gas_used\":\"46509\",\"status\":\"ok\",\"to\":{\"ens_domain_name\":null,\"hash\":\"0x774eaF7A53471628768dc679dA945847d34b9a55\",\"implementations\":[],\"is_contract\":true,\"is_scam\":false,\"is_verified\":true,\"metadata\":null,\"name\":\"Gasspas\",\"private_tags\":[],\"proxy_type\":\"unknown\",\"public_tags\":[],\"watchlist_names\":[]},\"authorization_list\":[],\"method\":\"approve\",\"fee\":{\"type\":\"actual\",\"value\":\"257810804494410\"},\"actions\":[],\"gas_limit\":\"60462\",\"gas_price\":\"5543245490\",\"decoded_input\":{\"method_call\":\"approve(address spender, uint256 amount)\",\"method_id\":\"095ea7b3\",\"parameters\":[{\"name\":\"spender\",\"type\":\"address\",\"value\":\"0x0000000000001fF3684f28c67538d4D072C22734\"},{\"name\":\"amount\",\"type\":\"uint256\",\"value\":\"115792089237316195423570985008687907853269984665640564039457584007913129639935\"}]},\"token_transfers\":null,\"base_fee_per_gas\":\"5464245490\",\"timestamp\":\"2025-06-12T14:42:11.000000Z\",\"nonce\":17,\"historic_exchange_rate\":\"2775.54\",\"transaction_types\":[\"contract_call\"],\"exchange_rate\":\"2760.96\",\"block_number\":22689151,\"has_error_in_internal_transactions\":null},{\"priority_fee\":\"3827337549000\",\"raw_input\":\"0x\",\"result\":\"success\",\"hash\":\"0x38ebdabea67f319a32c1383a59d93b22c11fc93638d99e72e0b5c9b706475462\",\"max_fee_per_gas\":\"7584816597\",\"revert_reason\":null,\"confirmation_duration\":[0,12000],\"transaction_burnt_fee\":\"114749155290000\",\"type\":2,\"token_transfers_overflow\":null,\"confirmations\":1,\"position\":177,\"max_priority_fee_per_gas\":\"182254169\",\"transaction_tag\":null,\"created_contract\":null,\"value\":\"216779843810122520\",\"from\":{\"ens_domain_name\":null,\"hash\":\"0xDb6233fE170b324C8Fd94F9F1664382736CF897F\",\"implementations\":[],\"is_contract\":false,\"is_scam\":false,\"is_verified\":false,\"metadata\":null,\"name\":null,\"private_tags\":[],\"proxy_type\":null,\"public_tags\":[],\"watchlist_names\":[]},\"gas_used\":\"21000\",\"status\":\"ok\",\"to\":{\"ens_domain_name\":null,\"hash\":\"0x4Cb7F20240A2acCAbF4C660ea7B87Fe9952CF3dc\",\"implementations\":[],\"is_contract\":false,\"is_scam\":false,\"is_verified\":false,\"metadata\":null,\"name\":null,\"private_tags\":[],\"proxy_type\":null,\"public_tags\":[],\"watchlist_names\":[]},\"authorization_list\":[],\"method\":null,\"fee\":{\"type\":\"actual\",\"value\":\"118576492839000\"},\"actions\":[],\"gas_limit\":\"21000\",\"gas_price\":\"5646499659\",\"decoded_input\":null,\"token_transfers\":null,\"base_fee_per_gas\":\"5464245490\",\"timestamp\":\"2025-06-12T14:42:11.000000Z\",\"nonce\":19,\"historic_exchange_rate\":\"2775.54\",\"transaction_types\":[\"coin_transfer\"],\"exchange_rate\":\"2760.96\",\"block_number\":22689151,\"has_error_in_internal_transactions\":null},{\"priority_fee\":\"20660060568000\",\"raw_input\":\"0x\",\"result\":\"success\",\"hash\":\"0x9610a5948cc08d9bb98a0135e7315ca8006f5b1c1b184e3d60cbb1796b4d5711\",\"max_fee_per_gas\":\"7872948294\",\"revert_reason\":null,\"confirmation_duration\":[0,12000],\"transaction_burnt_fee\":\"114749155290000\",\"type\":2,\"token_transfers_overflow\":null,\"confirmations\":1,\"position\":176,\"max_priority_fee_per_gas\":\"983812408\",\"transaction_tag\":null,\"created_contract\":null,\"value\":\"18084883207824250\",\"from\":{\"ens_domain_name\":null,\"hash\":\"0x99D892fDc486D0787436cdfB9D346D1e027C6DED\",\"implementations\":[],\"is_contract\":false,\"is_scam\":false,\"is_verified\":false,\"metadata\":null,\"name\":null,\"private_tags\":[],\"proxy_type\":null,\"public_tags\":[],\"watchlist_names\":[]},\"gas_used\":\"21000\",\"status\":\"ok\",\"to\":{\"ens_domain_name\":null,\"hash\":\"0xA4160484077AF316d539CCbdDE6952b4eCA22a70\",\"implementations\":[],\"is_contract\":false,\"is_scam\":false,\"is_verified\":false,\"metadata\":null,\"name\":null,\"private_tags\":[],\"proxy_type\":null,\"public_tags\":[],\"watchlist_names\":[]},\"authorization_list\":[],\"method\":null,\"fee\":{\"type\":\"actual\",\"value\":\"135409215858000\"},\"actions\":[],\"gas_limit\":\"21000\",\"gas_price\":\"6448057898\",\"decoded_input\":null,\"token_transfers\":null,\"base_fee_per_gas\":\"5464245490\",\"timestamp\":\"2025-06-12T14:42:11.000000Z\",\"nonce\":9,\"historic_exchange_rate\":\"2775.54\",\"transaction_types\":[\"coin_transfer\"],\"exchange_rate\":\"2760.96\",\"block_number\":22689151,\"has_error_in_internal_transactions\":null},{\"priority_fee\":\"21000000000000\",\"raw_input\":\"0x\",\"result\":\"success\",\"hash\":\"0xd4bdba076ed23dc006dfc6219cb9c241d1e0c1b69a4694479574ceb6ed23c67c\",\"max_fee_per_gas\":\"7745280042\",\"revert_reason\":null,\"confirmation_duration\":[0,12000],\"transaction_burnt_fee\":\"114749155290000\",\"type\":2,\"token_transfers_overflow\":null,\"confirmations\":1,\"position\":175,\"max_priority_fee_per_gas\":\"1000000000\",\"transaction_tag\":null,\"created_contract\":null,\"value\":\"88536914193837650\",\"from\":{\"ens_domain_name\":null,\"hash\":\"0xf580bd44259821426005b90984dE6814De14090a\",\"implementations\":[],\"is_contract\":false,\"is_scam\":false,\"is_verified\":false,\"metadata\":null,\"name\":null,\"private_tags\":[],\"proxy_type\":null,\"public_tags\":[],\"watchlist_names\":[]},\"gas_used\":\"21000\",\"status\":\"ok\",\"to\":{\"ens_domain_name\":null,\"hash\":\"0xcdb93E7FA7F3eb9B8113Ac4EC6e6434e0Ca22608\",\"implementations\":[],\"is_contract\":false,\"is_scam\":false,\"is_verified\":false,\"metadata\":null,\"name\":null,\"private_tags\":[],\"proxy_type\":null,\"public_tags\":[],\"watchlist_names\":[]},\"authorization_list\":[],\"method\":null,\"fee\":{\"type\":\"actual\",\"value\":\"135749155290000\"},\"actions\":[],\"gas_limit\":\"21000\",\"gas_price\":\"6464245490\",\"decoded_input\":null,\"token_transfers\":null,\"base_fee_per_gas\":\"5464245490\",\"timestamp\":\"2025-06-12T14:42:11.000000Z\",\"nonce\":298,\"historic_exchange_rate\":\"2775.54\",\"transaction_types\":[\"coin_transfer\"],\"exchange_rate\":\"2760.96\",\"block_number\":22689151,\"has_error_in_internal_transactions\":null},{\"priority_fee\":\"4542670000000\",\"raw_input\":\"0xa9059cbb00000000000000000000000077e7c5cbeaad915cf5462064b02984e16a902e670000000000000000000000000000000000000000000000000000000005f5e100\",\"result\":\"success\",\"hash\":\"0x72cb6917ff6cb4062838bc9886d274024158501fcc196f2a596565ccc11456c1\",\"max_fee_per_gas\":\"7477803737\",\"revert_reason\":null,\"confirmation_duration\":[0,12000],\"transaction_burnt_fee\":\"225656946000530\",\"type\":2,\"token_transfers_overflow\":null,\"confirmations\":1,\"position\":174,\"max_priority_fee_per_gas\":\"110000000\",\"transaction_tag\":null,\"created_contract\":null,\"value\":\"0\",\"from\":{\"ens_domain_name\":null,\"hash\":\"0xBF7002E7Ff29C7ee71ABBEc67Ae0E36164B7735f\",\"implementations\":[],\"is_contract\":false,\"is_scam\":false,\"is_verified\":false,\"metadata\":null,\"name\":null,\"private_tags\":[],\"proxy_type\":null,\"public_tags\":[],\"watchlist_names\":[]},\"gas_used\":\"41297\",\"status\":\"ok\",\"to\":{\"ens_domain_name\":null,\"hash\":\"0xdAC17F958D2ee523a2206206994597C13D831ec7\",\"implementations\":[],\"is_contract\":true,\"is_scam\":false,\"is_verified\":true,\"metadata\":{\"tags\":[{\"meta\":{\"tooltipDescription\":\"Tether gives you the joint benefits of open blockchain technology and traditional currency by converting your cash into a stable digital currency equivalent.\",\"tooltipUrl\":\"https://tether.to/\"},\"name\":\"Tether: USDT Stablecoin\",\"ordinal\":10,\"slug\":\"tether-usdt-stablecoin\",\"tagType\":\"name\"},{\"meta\":{},\"name\":\"Stablecoin\",\"ordinal\":0,\"slug\":\"stablecoin\",\"tagType\":\"generic\"},{\"meta\":{},\"name\":\"Tether\",\"ordinal\":0,\"slug\":\"tether\",\"tagType\":\"protocol\"},{\"meta\":{},\"name\":\"Token Contract\",\"ordinal\":0,\"slug\":\"token-contract\",\"tagType\":\"generic\"}]},\"name\":\"Tether\",\"private_tags\":[],\"proxy_type\":\"unknown\",\"public_tags\":[],\"watchlist_names\":[]},\"authorization_list\":[],\"method\":\"transfer\",\"fee\":{\"type\":\"actual\",\"value\":\"230199616000530\"},\"actions\":[],\"gas_limit\":\"50834\",\"gas_price\":\"5574245490\",\"decoded_input\":{\"method_call\":\"transfer(address _to, uint256 _value)\",\"method_id\":\"a9059cbb\",\"parameters\":[{\"name\":\"_to\",\"type\":\"address\",\"value\":\"0x77E7c5CBeAaD915cf5462064B02984E16A902e67\"},{\"name\":\"_value\",\"type\":\"uint256\",\"value\":\"100000000\"}]},\"token_transfers\":null,\"base_fee_per_gas\":\"5464245490\",\"timestamp\":\"2025-06-12T14:42:11.000000Z\",\"nonce\":2,\"historic_exchange_rate\":\"2775.54\",\"transaction_types\":[\"contract_call\",\"token_transfer\"],\"exchange_rate\":\"2760.96\",\"block_number\":22689151,\"has_error_in_internal_transactions\":null},{\"priority_fee\":\"5336199700000\",\"raw_input\":\"0xa9059cbb000000000000000000000000599afb373b2d47cb1b20f98f9c049e8a8dbc0dba00000000000000000000000000000000000000000000000000000007058b8240\",\"result\":\"success\",\"hash\":\"0xd8895e03acb2221691dc3ecd0a2bcb307da1af61eb78256f54cafa0f66679a7d\",\"max_fee_per_gas\":\"11357833404\",\"revert_reason\":null,\"confirmation_duration\":[0,12000],\"transaction_burnt_fee\":\"252016466244290\",\"type\":2,\"token_transfers_overflow\":null,\"confirmations\":1,\"position\":173,\"max_priority_fee_per_gas\":\"115700000\",\"transaction_tag\":null,\"created_contract\":null,\"value\":\"0\",\"from\":{\"ens_domain_name\":null,\"hash\":\"0xCD531Ae9EFCCE479654c4926dec5F6209531Ca7b\",\"implementations\":[],\"is_contract\":false,\"is_scam\":false,\"is_verified\":false,\"metadata\":{\"tags\":[{\"meta\":{\"tooltipUrl\":\"https://prime.coinbase.com/\"},\"name\":\"Coinbase Prime\",\"ordinal\":10,\"slug\":\"coinbase-prime\",\"tagType\":\"name\"},{\"meta\":{},\"name\":\"Coinbase\",\"ordinal\":0,\"slug\":\"coinbase\",\"tagType\":\"generic\"}]},\"name\":null,\"private_tags\":[],\"proxy_type\":null,\"public_tags\":[],\"watchlist_names\":[]},\"gas_used\":\"46121\",\"status\":\"ok\",\"to\":{\"ens_domain_name\":null,\"hash\":\"0xdAC17F958D2ee523a2206206994597C13D831ec7\",\"implementations\":[],\"is_contract\":true,\"is_scam\":false,\"is_verified\":true,\"metadata\":{\"tags\":[{\"meta\":{\"tooltipDescription\":\"Tether gives you the joint benefits of open blockchain technology and traditional currency by converting your cash into a stable digital currency equivalent.\",\"tooltipUrl\":\"https://tether.to/\"},\"name\":\"Tether: USDT Stablecoin\",\"ordinal\":10,\"slug\":\"tether-usdt-stablecoin\",\"tagType\":\"name\"},{\"meta\":{},\"name\":\"Stablecoin\",\"ordinal\":0,\"slug\":\"stablecoin\",\"tagType\":\"generic\"},{\"meta\":{},\"name\":\"Tether\",\"ordinal\":0,\"slug\":\"tether\",\"tagType\":\"protocol\"},{\"meta\":{},\"name\":\"Token Contract\",\"ordinal\":0,\"slug\":\"token-contract\",\"tagType\":\"generic\"}]},\"name\":\"Tether\",\"private_tags\":[],\"proxy_type\":\"unknown\",\"public_tags\":[],\"watchlist_names\":[]},\"authorization_list\":[],\"method\":\"transfer\",\"fee\":{\"type\":\"actual\",\"value\":\"257352665944290\"},\"actions\":[],\"gas_limit\":\"200000\",\"gas_price\":\"5579945490\",\"decoded_input\":{\"method_call\":\"transfer(address _to, uint256 _value)\",\"method_id\":\"a9059cbb\",\"parameters\":[{\"name\":\"_to\",\"type\":\"address\",\"value\":\"0x599afB373B2d47CB1B20F98f9c049e8A8DBc0DBA\"},{\"name\":\"_value\",\"type\":\"uint256\",\"value\":\"30157800000\"}]},\"token_transfers\":null,\"base_fee_per_gas\":\"5464245490\",\"timestamp\":\"2025-06-12T14:42:11.000000Z\",\"nonce\":171378,\"historic_exchange_rate\":\"2775.54\",\"transaction_types\":[\"contract_call\",\"token_transfer\"],\"exchange_rate\":\"2760.96\",\"block_number\":22689151,\"has_error_in_internal_transactions\":null},{\"priority_fee\":\"5624533000000\",\"raw_input\":\"0xa9059cbb00000000000000000000000000d3d94de7f8f13a7d051da48131941132953d9c00000000000000000000000000000000000000000000000000000000f75279dc\",\"result\":\"success\",\"hash\":\"0x1ac8d92f0c534cad26fd9dff86a51f64187d1770b8b80d8e38aa5a0e24e2dce3\",\"max_fee_per_gas\":\"6412700039\",\"revert_reason\":null,\"confirmation_duration\":[0,12000],\"transaction_burnt_fee\":\"345323922231530\",\"type\":2,\"token_transfers_overflow\":null,\"confirmations\":1,\"position\":172,\"max_priority_fee_per_gas\":\"89000000\",\"transaction_tag\":null,\"created_contract\":null,\"value\":\"0\",\"from\":{\"ens_domain_name\":null,\"hash\":\"0x4dE96e0aEE412Ff081947DF01B202d99818139eF\",\"implementations\":[],\"is_contract\":false,\"is_scam\":false,\"is_verified\":false,\"metadata\":null,\"name\":null,\"private_tags\":[],\"proxy_type\":null,\"public_tags\":[],\"watchlist_names\":[]},\"gas_used\":\"63197\",\"status\":\"ok\",\"to\":{\"ens_domain_name\":null,\"hash\":\"0xdAC17F958D2ee523a2206206994597C13D831ec7\",\"implementations\":[],\"is_contract\":true,\"is_scam\":false,\"is_verified\":true,\"metadata\":{\"tags\":[{\"meta\":{\"tooltipDescription\":\"Tether gives you the joint benefits of open blockchain technology and traditional currency by converting your cash into a stable digital currency equivalent.\",\"tooltipUrl\":\"https://tether.to/\"},\"name\":\"Tether: USDT Stablecoin\",\"ordinal\":10,\"slug\":\"tether-usdt-stablecoin\",\"tagType\":\"name\"},{\"meta\":{},\"name\":\"Stablecoin\",\"ordinal\":0,\"slug\":\"stablecoin\",\"tagType\":\"generic\"},{\"meta\":{},\"name\":\"Tether\",\"ordinal\":0,\"slug\":\"tether\",\"tagType\":\"protocol\"},{\"meta\":{},\"name\":\"Token Contract\",\"ordinal\":0,\"slug\":\"token-contract\",\"tagType\":\"generic\"}]},\"name\":\"Tether\",\"private_tags\":[],\"proxy_type\":\"unknown\",\"public_tags\":[],\"watchlist_names\":[]},\"authorization_list\":[],\"method\":\"transfer\",\"fee\":{\"type\":\"actual\",\"value\":\"350948455231530\"},\"actions\":[],\"gas_limit\":\"70434\",\"gas_price\":\"5553245490\",\"decoded_input\":{\"method_call\":\"transfer(address _to, uint256 _value)\",\"method_id\":\"a9059cbb\",\"parameters\":[{\"name\":\"_to\",\"type\":\"address\",\"value\":\"0x00d3d94DE7f8F13a7D051Da48131941132953d9c\"},{\"name\":\"_value\",\"type\":\"uint256\",\"value\":\"4149377500\"}]},\"token_transfers\":null,\"base_fee_per_gas\":\"5464245490\",\"timestamp\":\"2025-06-12T14:42:11.000000Z\",\"nonce\":1061,\"historic_exchange_rate\":\"2775.54\",\"transaction_types\":[\"contract_call\",\"token_transfer\"],\"exchange_rate\":\"2760.96\",\"block_number\":22689151,\"has_error_in_internal_transactions\":null},{\"priority_fee\":\"5625601000000\",\"raw_input\":\"0xa9059cbb0000000000000000000000007b824662b4d881409d1838ef24c7653d37c42b6f000000000000000000000000000000000000000000000000000000003e496f40\",\"result\":\"success\",\"hash\":\"0x6a3b86bb9be54c29ae543faeed4cc64754cba7bb1e1b736a536fa301135a3913\",\"max_fee_per_gas\":\"5859387555\",\"revert_reason\":null,\"confirmation_duration\":[0,12000],\"transaction_burnt_fee\":\"345389493177410\",\"type\":2,\"token_transfers_overflow\":null,\"confirmations\":1,\"position\":171,\"max_priority_fee_per_gas\":\"89000000\",\"transaction_tag\":null,\"created_contract\":null,\"value\":\"0\",\"from\":{\"ens_domain_name\":null,\"hash\":\"0x6BEE0fcf2024683Ce50858B4485519EF271a2653\",\"implementations\":[],\"is_contract\":false,\"is_scam\":false,\"is_verified\":false,\"metadata\":null,\"name\":null,\"private_tags\":[],\"proxy_type\":null,\"public_tags\":[],\"watchlist_names\":[]},\"gas_used\":\"63209\",\"status\":\"ok\",\"to\":{\"ens_domain_name\":null,\"hash\":\"0xdAC17F958D2ee523a2206206994597C13D831ec7\",\"implementations\":[],\"is_contract\":true,\"is_scam\":false,\"is_verified\":true,\"metadata\":{\"tags\":[{\"meta\":{\"tooltipDescription\":\"Tether gives you the joint benefits of open blockchain technology and traditional currency by converting your cash into a stable digital currency equivalent.\",\"tooltipUrl\":\"https://tether.to/\"},\"name\":\"Tether: USDT Stablecoin\",\"ordinal\":10,\"slug\":\"tether-usdt-stablecoin\",\"tagType\":\"name\"},{\"meta\":{},\"name\":\"Stablecoin\",\"ordinal\":0,\"slug\":\"stablecoin\",\"tagType\":\"generic\"},{\"meta\":{},\"name\":\"Tether\",\"ordinal\":0,\"slug\":\"tether\",\"tagType\":\"protocol\"},{\"meta\":{},\"name\":\"Token Contract\",\"ordinal\":0,\"slug\":\"token-contract\",\"tagType\":\"generic\"}]},\"name\":\"Tether\",\"private_tags\":[],\"proxy_type\":\"unknown\",\"public_tags\":[],\"watchlist_names\":[]},\"authorization_list\":[],\"method\":\"transfer\",\"fee\":{\"type\":\"actual\",\"value\":\"351015094177410\"},\"actions\":[],\"gas_limit\":\"70447\",\"gas_price\":\"5553245490\",\"decoded_input\":{\"method_call\":\"transfer(address _to, uint256 _value)\",\"method_id\":\"a9059cbb\",\"parameters\":[{\"name\":\"_to\",\"type\":\"address\",\"value\":\"0x7b824662b4d881409d1838eF24c7653d37C42B6F\"},{\"name\":\"_value\",\"type\":\"uint256\",\"value\":\"1045000000\"}]},\"token_transfers\":null,\"base_fee_per_gas\":\"5464245490\",\"timestamp\":\"2025-06-12T14:42:11.000000Z\",\"nonce\":102,\"historic_exchange_rate\":\"2775.54\",\"transaction_types\":[\"contract_call\",\"token_transfer\"],\"exchange_rate\":\"2760.96\",\"block_number\":22689151,\"has_error_in_internal_transactions\":null},{\"priority_fee\":\"5637800000000\",\"raw_input\":\"0xa9059cbb0000000000000000000000006c23acff18210a5d274f655f5355514771a6922a0000000000000000000000000000000000000000000000015af1d78b58c40000\",\"result\":\"success\",\"hash\":\"0xaa3af52f61bfb423d3825858f905a4813f30df1928cb20624a741399a0e956b0\",\"max_fee_per_gas\":\"500000000000\",\"revert_reason\":null,\"confirmation_duration\":[0,12000],\"transaction_burnt_fee\":\"308063232235220\",\"type\":2,\"token_transfers_overflow\":null,\"confirmations\":1,\"position\":170,\"max_priority_fee_per_gas\":\"100000000\",\"transaction_tag\":null,\"created_contract\":null,\"value\":\"0\",\"from\":{\"ens_domain_name\":null,\"hash\":\"0x8ea52E2F810845194370372C8957fB1B5A69EBCd\",\"implementations\":[],\"is_contract\":false,\"is_scam\":false,\"is_verified\":false,\"metadata\":null,\"name\":null,\"private_tags\":[],\"proxy_type\":null,\"public_tags\":[],\"watchlist_names\":[]},\"gas_used\":\"56378\",\"status\":\"ok\",\"to\":{\"ens_domain_name\":null,\"hash\":\"0x075F23b9CdfCE2cC0cA466F4eE6cb4bD29d83bef\",\"implementations\":[{\"address\":\"0xE046e5a00edFF63bc38cfac6be6D0Fc13B4E6A69\",\"address_hash\":\"0xE046e5a00edFF63bc38cfac6be6D0Fc13B4E6A69\",\"name\":null}],\"is_contract\":true,\"is_scam\":false,\"is_verified\":true,\"metadata\":null,\"name\":\"ERC1967Proxy\",\"private_tags\":[],\"proxy_type\":\"eip1967\",\"public_tags\":[],\"watchlist_names\":[]},\"authorization_list\":[],\"method\":\"transfer\",\"fee\":{\"type\":\"actual\",\"value\":\"313701032235220\"},\"actions\":[],\"gas_limit\":\"300000\",\"gas_price\":\"5564245490\",\"decoded_input\":{\"method_call\":\"transfer(address _to, uint256 _tokenId)\",\"method_id\":\"a9059cbb\",\"parameters\":[{\"name\":\"_to\",\"type\":\"address\",\"value\":\"0x6C23acFf18210A5D274F655f5355514771A6922A\"},{\"name\":\"_tokenId\",\"type\":\"uint256\",\"value\":\"25000000000000000000\"}]},\"token_transfers\":null,\"base_fee_per_gas\":\"5464245490\",\"timestamp\":\"2025-06-12T14:42:11.000000Z\",\"nonce\":176,\"historic_exchange_rate\":\"2775.54\",\"transaction_types\":[\"contract_call\",\"token_transfer\"],\"exchange_rate\":\"2760.96\",\"block_number\":22689151,\"has_error_in_internal_transactions\":null},{\"priority_fee\":null,\"raw_input\":\"0xfb3bdb410000000000000000000000000000000000000000000000001f244dee7133b32500000000000000000000000000000000000000000000000000000000000000800000000000000000000000002cff77fef4f02acbdfc123264c092254f7d37c6400000000000000000000000000000000000000000000000000000000684c38b80000000000000000000000000000000000000000000000000000000000000002000000000000000000000000c02aaa39b223fe8d0a0e5c4f27ead9083c756cc20000000000000000000000004d4574f50dd8b9dbe623cf329dcc78d76935e610\",\"result\":\"success\",\"hash\":\"0x78b52a25ecb6fccb3860fb1764fb91bfbc2fac8995f8dd9f2a5e8bb366c3541d\",\"max_fee_per_gas\":null,\"revert_reason\":null,\"confirmation_duration\":[0,12000],\"transaction_burnt_fee\":null,\"type\":0,\"token_transfers_overflow\":null,\"confirmations\":1,\"position\":169,\"max_priority_fee_per_gas\":null,\"transaction_tag\":null,\"created_contract\":null,\"value\":\"34776185573722640\",\"from\":{\"ens_domain_name\":null,\"hash\":\"0x2cff77fef4F02AcBDfc123264c092254f7d37c64\",\"implementations\":[],\"is_contract\":false,\"is_scam\":false,\"is_verified\":false,\"metadata\":null,\"name\":null,\"private_tags\":[],\"proxy_type\":null,\"public_tags\":[],\"watchlist_names\":[]},\"gas_used\":\"133812\",\"status\":\"ok\",\"to\":{\"ens_domain_name\":null,\"hash\":\"0x7a250d5630B4cF539739dF2C5dAcb4c659F2488D\",\"implementations\":[],\"is_contract\":true,\"is_scam\":false,\"is_verified\":true,\"metadata\":{\"tags\":[{\"meta\":{\"bgColor\":\"#FFFFFF\",\"textColor\":\"#FF007A\",\"tooltipUrl\":\"https://uniswap.info\"},\"name\":\"Uniswap V3: Universal Router\",\"ordinal\":10,\"slug\":\"uniswap-v3-universal-router\",\"tagType\":\"name\"},{\"meta\":{},\"name\":\"DEX\",\"ordinal\":0,\"slug\":\"dex\",\"tagType\":\"generic\"},{\"meta\":{\"bgColor\":\"#FF007A\",\"tagIcon\":\"https://blockscout-content.s3.amazonaws.com/uniswap.png\",\"tagUrl\":\"https://uniswap.org/?utm_source=Blockscout\",\"textColor\":\"#FFFFFF\",\"tooltipDescription\":\"Trade crypto and NFTs safely on the top DeFi platform. Swapping made simple. Buy and sell crypto on Ethereum, Base, Arbitrum, Polygon, and more.\",\"tooltipTitle\":\"Uniswap\",\"tooltipUrl\":\"https://uniswap.org/?utm_source=Blockscout\"},\"name\":\"Uniswap V2\",\"ordinal\":1,\"slug\":\"uniswap-v2\",\"tagType\":\"protocol\"}]},\"name\":\"UniswapV2Router02\",\"private_tags\":[],\"proxy_type\":\"unknown\",\"public_tags\":[],\"watchlist_names\":[]},\"authorization_list\":[],\"method\":\"swapETHForExactTokens\",\"fee\":{\"type\":\"actual\",\"value\":\"857966960177712\"},\"actions\":[],\"gas_limit\":\"300000\",\"gas_price\":\"6411734076\",\"decoded_input\":{\"method_call\":\"swapETHForExactTokens(uint256 amountOut, address[] path, address to, uint256 deadline)\",\"method_id\":\"fb3bdb41\",\"parameters\":[{\"name\":\"amountOut\",\"type\":\"uint256\",\"value\":\"2244004200834118437\"},{\"name\":\"path\",\"type\":\"address[]\",\"value\":[\"0xC02aaA39b223FE8D0A0e5C4F27eAD9083C756Cc2\",\"0x4D4574f50dd8B9dBe623cF329DCc78D76935E610\"]},{\"name\":\"to\",\"type\":\"address\",\"value\":\"0x2cff77fef4F02AcBDfc123264c092254f7d37c64\"},{\"name\":\"deadline\",\"type\":\"uint256\",\"value\":\"1749825720\"}]},\"token_transfers\":null,\"base_fee_per_gas\":\"5464245490\",\"timestamp\":\"2025-06-12T14:42:11.000000Z\",\"nonce\":21,\"historic_exchange_rate\":\"2775.54\",\"transaction_types\":[\"coin_transfer\",\"contract_call\",\"token_transfer\"],\"exchange_rate\":\"2760.96\",\"block_number\":22689151,\"has_error_in_internal_transactions\":null},{\"priority_fee\":\"47901725592000\",\"raw_input\":\"0x\",\"result\":\"success\",\"hash\":\"0xf2407ee3108adcef8f90789f3253e7fa2161f978179818b2864b22854b860994\",\"max_fee_per_gas\":\"7745280042\",\"revert_reason\":null,\"confirmation_duration\":[0,12000],\"transaction_burnt_fee\":\"114749155290000\",\"type\":2,\"token_transfers_overflow\":null,\"confirmations\":1,\"position\":168,\"max_priority_fee_per_gas\":\"7745280042\",\"transaction_tag\":null,\"created_contract\":null,\"value\":\"6932307360433116\",\"from\":{\"ens_domain_name\":null,\"hash\":\"0x6ed59Eaaf25B80148bb35fEeA0Ab67646983EE65\",\"implementations\":[],\"is_contract\":false,\"is_scam\":false,\"is_verified\":false,\"metadata\":null,\"name\":null,\"private_tags\":[],\"proxy_type\":null,\"public_tags\":[],\"watchlist_names\":[]},\"gas_used\":\"21000\",\"status\":\"ok\",\"to\":{\"ens_domain_name\":null,\"hash\":\"0x683BF9075D5446C830908386d24714Db4935138D\",\"implementations\":[],\"is_contract\":false,\"is_scam\":false,\"is_verified\":false,\"metadata\":null,\"name\":null,\"private_tags\":[],\"proxy_type\":null,\"public_tags\":[],\"watchlist_names\":[]},\"authorization_list\":[],\"method\":null,\"fee\":{\"type\":\"actual\",\"value\":\"162650880882000\"},\"actions\":[],\"gas_limit\":\"21000\",\"gas_price\":\"7745280042\",\"decoded_input\":null,\"token_transfers\":null,\"base_fee_per_gas\":\"5464245490\",\"timestamp\":\"2025-06-12T14:42:11.000000Z\",\"nonce\":5,\"historic_exchange_rate\":\"2775.54\",\"transaction_types\":[\"coin_transfer\"],\"exchange_rate\":\"2760.96\",\"block_number\":22689151,\"has_error_in_internal_transactions\":null},{\"priority_fee\":\"6944126860000\",\"raw_input\":\"0x2e7ba6ef00000000000000000000000000000000000000000000000000000000000022ad0000000000000000000000004f4a8369e290d2e3d3b9f09786f4048a3ead4ca80000000000000000000000000000000000000000000000dbfe733a8f4d5e87000000000000000000000000000000000000000000000000000000000000000080000000000000000000000000000000000000000000000000000000000000000f52752a5ed5544b6fb6265d6c7abf468082e0bfe2ab35a4c099c042a7c59a9c0f964e143fc52fe309bcf6b8444f7ffcc49a264a7aa8bddbf38d188e030fcc6cf463fa0a35bcfbb5c83e2e83695abd038fd65231605d5801491df49cc324193ade0a469395a30bb344f398b5c171bfd6581cb36900d0d9239f1aba0b05d9caf60abdd8ec38389b20ddb4c811f376135565be5a3e22bef8610dcf9feed388a92faa2aca189eeaac0feba61be7c6221317610e431b99fc2824509b927905d06c2611b1551450ccf17634a128627b70e3d89401c586949c1f995418a76fb75a59f698f07f28cfd40bc086f8b9955a2686c957bc5b7a3ac0991a3b2362c061612d2b30a7e0719611aedb9c349ddefd683c491319b8668c1ce8a0ace68927b8636fd87abd82c126e8bc13c07905f43e0367311099741594c77fda5567423f96741a83652e4ee9093d1f0ff138d3573eb6266d298495243967c9ced4d00615008ecd38012dea88db8c24daa6fd5cded511e134e7795aadda3c6f7ee1556e15d7302d8f46a21cfc51cd2b2ff295ebd2e3f9eaf6bd9f64e500cfe913c65226b146db9cf67f2befce51f0b2aaa9d1fd73aed321383daba71dc5527e53b26d4e2e53c77d4e6780c09fb027ab2d9c71a906b89c778c79229d463f6e0d566f317092e6466143e7\",\"result\":\"success\",\"hash\":\"0x29212b5d2ea4fb9ad604124ef73d173d1a4c8fe4b5b6230c3dd3125a703b5f65\",\"max_fee_per_gas\":\"6200000000\",\"revert_reason\":null,\"confirmation_duration\":[0,12000],\"transaction_burnt_fee\":\"510967060015390\",\"type\":2,\"token_transfers_overflow\":null,\"confirmations\":1,\"position\":167,\"max_priority_fee_per_gas\":\"74260000\",\"transaction_tag\":null,\"created_contract\":null,\"value\":\"0\",\"from\":{\"ens_domain_name\":null,\"hash\":\"0x4f4A8369e290d2E3d3b9f09786f4048a3eaD4CA8\",\"implementations\":[],\"is_contract\":false,\"is_scam\":false,\"is_verified\":false,\"metadata\":null,\"name\":null,\"private_tags\":[],\"proxy_type\":null,\"public_tags\":[],\"watchlist_names\":[]},\"gas_used\":\"93511\",\"status\":\"ok\",\"to\":{\"ens_domain_name\":null,\"hash\":\"0xe857Fd582Ca91538d1E46fdEF90De72A61aEdCc2\",\"implementations\":[],\"is_contract\":true,\"is_scam\":false,\"is_verified\":false,\"metadata\":null,\"name\":null,\"private_tags\":[],\"proxy_type\":\"unknown\",\"public_tags\":[],\"watchlist_names\":[]},\"authorization_list\":[],\"method\":\"claim\",\"fee\":{\"type\":\"actual\",\"value\":\"517911186875390\"},\"actions\":[],\"gas_limit\":\"141698\",\"gas_price\":\"5538505490\",\"decoded_input\":{\"method_call\":\"claim(uint256 index, address beneficiary, uint256 amount, bytes32[] merkleProof)\",\"method_id\":\"2e7ba6ef\",\"parameters\":[{\"name\":\"index\",\"type\":\"uint256\",\"value\":\"8877\"},{\"name\":\"beneficiary\",\"type\":\"address\",\"value\":\"0x4f4A8369e290d2E3d3b9f09786f4048a3eaD4CA8\"},{\"name\":\"amount\",\"type\":\"uint256\",\"value\":\"4058172015037500000000\"},{\"name\":\"merkleProof\",\"type\":\"bytes32[]\",\"value\":[\"0x52752a5ed5544b6fb6265d6c7abf468082e0bfe2ab35a4c099c042a7c59a9c0f\",\"0x964e143fc52fe309bcf6b8444f7ffcc49a264a7aa8bddbf38d188e030fcc6cf4\",\"0x63fa0a35bcfbb5c83e2e83695abd038fd65231605d5801491df49cc324193ade\",\"0x0a469395a30bb344f398b5c171bfd6581cb36900d0d9239f1aba0b05d9caf60a\",\"0xbdd8ec38389b20ddb4c811f376135565be5a3e22bef8610dcf9feed388a92faa\",\"0x2aca189eeaac0feba61be7c6221317610e431b99fc2824509b927905d06c2611\",\"0xb1551450ccf17634a128627b70e3d89401c586949c1f995418a76fb75a59f698\",\"0xf07f28cfd40bc086f8b9955a2686c957bc5b7a3ac0991a3b2362c061612d2b30\",\"0xa7e0719611aedb9c349ddefd683c491319b8668c1ce8a0ace68927b8636fd87a\",\"0xbd82c126e8bc13c07905f43e0367311099741594c77fda5567423f96741a8365\",\"0x2e4ee9093d1f0ff138d3573eb6266d298495243967c9ced4d00615008ecd3801\",\"0x2dea88db8c24daa6fd5cded511e134e7795aadda3c6f7ee1556e15d7302d8f46\",\"0xa21cfc51cd2b2ff295ebd2e3f9eaf6bd9f64e500cfe913c65226b146db9cf67f\",\"0x2befce51f0b2aaa9d1fd73aed321383daba71dc5527e53b26d4e2e53c77d4e67\",\"0x80c09fb027ab2d9c71a906b89c778c79229d463f6e0d566f317092e6466143e7\"]}]},\"token_transfers\":null,\"base_fee_per_gas\":\"5464245490\",\"timestamp\":\"2025-06-12T14:42:11.000000Z\",\"nonce\":0,\"historic_exchange_rate\":\"2775.54\",\"transaction_types\":[\"contract_call\",\"token_transfer\"],\"exchange_rate\":\"2760.96\",\"block_number\":22689151,\"has_error_in_internal_transactions\":null},{\"priority_fee\":null,\"raw_input\":\"0xfb3bdb4100000000000000000000000000000000000000000000008c09f09723f01cfd880000000000000000000000000000000000000000000000000000000000000080000000000000000000000000c945ba5b40f56a40b2a3e29ad9d870a5cd15b04800000000000000000000000000000000000000000000000000000000684c38b70000000000000000000000000000000000000000000000000000000000000002000000000000000000000000c02aaa39b223fe8d0a0e5c4f27ead9083c756cc20000000000000000000000004a35feae3378298d65f123576c61acd62b52a920\",\"result\":\"success\",\"hash\":\"0xc66a43ed4be8114087fa46c26380ce3589a19dd7bfb6821c35d506e2809cf7b9\",\"max_fee_per_gas\":null,\"revert_reason\":null,\"confirmation_duration\":[0,12000],\"transaction_burnt_fee\":null,\"type\":0,\"token_transfers_overflow\":null,\"confirmations\":1,\"position\":166,\"max_priority_fee_per_gas\":null,\"transaction_tag\":null,\"created_contract\":null,\"value\":\"244038802251447553\",\"from\":{\"ens_domain_name\":null,\"hash\":\"0xC945BA5b40F56A40b2A3E29aD9D870a5CD15B048\",\"implementations\":[],\"is_contract\":false,\"is_scam\":false,\"is_verified\":false,\"metadata\":null,\"name\":null,\"private_tags\":[],\"proxy_type\":null,\"public_tags\":[],\"watchlist_names\":[]},\"gas_used\":\"137409\",\"status\":\"ok\",\"to\":{\"ens_domain_name\":null,\"hash\":\"0x7a250d5630B4cF539739dF2C5dAcb4c659F2488D\",\"implementations\":[],\"is_contract\":true,\"is_scam\":false,\"is_verified\":true,\"metadata\":{\"tags\":[{\"meta\":{\"bgColor\":\"#FFFFFF\",\"textColor\":\"#FF007A\",\"tooltipUrl\":\"https://uniswap.info\"},\"name\":\"Uniswap V3: Universal Router\",\"ordinal\":10,\"slug\":\"uniswap-v3-universal-router\",\"tagType\":\"name\"},{\"meta\":{},\"name\":\"DEX\",\"ordinal\":0,\"slug\":\"dex\",\"tagType\":\"generic\"},{\"meta\":{\"bgColor\":\"#FF007A\",\"tagIcon\":\"https://blockscout-content.s3.amazonaws.com/uniswap.png\",\"tagUrl\":\"https://uniswap.org/?utm_source=Blockscout\",\"textColor\":\"#FFFFFF\",\"tooltipDescription\":\"Trade crypto and NFTs safely on the top DeFi platform. Swapping made simple. Buy and sell crypto on Ethereum, Base, Arbitrum, Polygon, and more.\",\"tooltipTitle\":\"Uniswap\",\"tooltipUrl\":\"https://uniswap.org/?utm_source=Blockscout\"},\"name\":\"Uniswap V2\",\"ordinal\":1,\"slug\":\"uniswap-v2\",\"tagType\":\"protocol\"}]},\"name\":\"UniswapV2Router02\",\"private_tags\":[],\"proxy_type\":\"unknown\",\"public_tags\":[],\"watchlist_names\":[]},\"authorization_list\":[],\"method\":\"swapETHForExactTokens\",\"fee\":{\"type\":\"actual\",\"value\":\"881029967649084\"},\"actions\":[],\"gas_limit\":\"600000\",\"gas_price\":\"6411734076\",\"decoded_input\":{\"method_call\":\"swapETHForExactTokens(uint256 amountOut, address[] path, address to, uint256 deadline)\",\"method_id\":\"fb3bdb41\",\"parameters\":[{\"name\":\"amountOut\",\"type\":\"uint256\",\"value\":\"2583260408840697216392\"},{\"name\":\"path\",\"type\":\"address[]\",\"value\":[\"0xC02aaA39b223FE8D0A0e5C4F27eAD9083C756Cc2\",\"0x4a35feae3378298d65F123576C61ACD62b52A920\"]},{\"name\":\"to\",\"type\":\"address\",\"value\":\"0xC945BA5b40F56A40b2A3E29aD9D870a5CD15B048\"},{\"name\":\"deadline\",\"type\":\"uint256\",\"value\":\"1749825719\"}]},\"token_transfers\":null,\"base_fee_per_gas\":\"5464245490\",\"timestamp\":\"2025-06-12T14:42:11.000000Z\",\"nonce\":318,\"historic_exchange_rate\":\"2775.54\",\"transaction_types\":[\"coin_transfer\",\"contract_call\",\"token_transfer\"],\"exchange_rate\":\"2760.96\",\"block_number\":22689151,\"has_error_in_internal_transactions\":null},{\"priority_fee\":null,\"raw_input\":\"0xfb3bdb4100000000000000000000000000000000000000000000009504487641502d5ba40000000000000000000000000000000000000000000000000000000000000080000000000000000000000000fbac8a1fa46cdcb3337d60c680f44bae971f0dad00000000000000000000000000000000000000000000000000000000684c38b80000000000000000000000000000000000000000000000000000000000000002000000000000000000000000c02aaa39b223fe8d0a0e5c4f27ead9083c756cc20000000000000000000000004a35feae3378298d65f123576c61acd62b52a920\",\"result\":\"success\",\"hash\":\"0xc9c8dbecdf1704694822a79306d57d2b2ea221a01d893e0be9fd1ecd85409cb1\",\"max_fee_per_gas\":null,\"revert_reason\":null,\"confirmation_duration\":[0,12000],\"transaction_burnt_fee\":null,\"type\":0,\"token_transfers_overflow\":null,\"confirmations\":1,\"position\":165,\"max_priority_fee_per_gas\":null,\"transaction_tag\":null,\"created_contract\":null,\"value\":\"259710717171756372\",\"from\":{\"ens_domain_name\":null,\"hash\":\"0xFbAC8a1Fa46CdCb3337D60C680f44bae971f0DAd\",\"implementations\":[],\"is_contract\":false,\"is_scam\":false,\"is_verified\":false,\"metadata\":null,\"name\":null,\"private_tags\":[],\"proxy_type\":null,\"public_tags\":[],\"watchlist_names\":[]},\"gas_used\":\"137409\",\"status\":\"ok\",\"to\":{\"ens_domain_name\":null,\"hash\":\"0x7a250d5630B4cF539739dF2C5dAcb4c659F2488D\",\"implementations\":[],\"is_contract\":true,\"is_scam\":false,\"is_verified\":true,\"metadata\":{\"tags\":[{\"meta\":{\"bgColor\":\"#FFFFFF\",\"textColor\":\"#FF007A\",\"tooltipUrl\":\"https://uniswap.info\"},\"name\":\"Uniswap V3: Universal Router\",\"ordinal\":10,\"slug\":\"uniswap-v3-universal-router\",\"tagType\":\"name\"},{\"meta\":{},\"name\":\"DEX\",\"ordinal\":0,\"slug\":\"dex\",\"tagType\":\"generic\"},{\"meta\":{\"bgColor\":\"#FF007A\",\"tagIcon\":\"https://blockscout-content.s3.amazonaws.com/uniswap.png\",\"tagUrl\":\"https://uniswap.org/?utm_source=Blockscout\",\"textColor\":\"#FFFFFF\",\"tooltipDescription\":\"Trade crypto and NFTs safely on the top DeFi platform. Swapping made simple. Buy and sell crypto on Ethereum, Base, Arbitrum, Polygon, and more.\",\"tooltipTitle\":\"Uniswap\",\"tooltipUrl\":\"https://uniswap.org/?utm_source=Blockscout\"},\"name\":\"Uniswap V2\",\"ordinal\":1,\"slug\":\"uniswap-v2\",\"tagType\":\"protocol\"}]},\"name\":\"UniswapV2Router02\",\"private_tags\":[],\"proxy_type\":\"unknown\",\"public_tags\":[],\"watchlist_names\":[]},\"authorization_list\":[],\"method\":\"swapETHForExactTokens\",\"fee\":{\"type\":\"actual\",\"value\":\"881029967649084\"},\"actions\":[],\"gas_limit\":\"600000\",\"gas_price\":\"6411734076\",\"decoded_input\":{\"method_call\":\"swapETHForExactTokens(uint256 amountOut, address[] path, address to, uint256 deadline)\",\"method_id\":\"fb3bdb41\",\"parameters\":[{\"name\":\"amountOut\",\"type\":\"uint256\",\"value\":\"2748873493580088171428\"},{\"name\":\"path\",\"type\":\"address[]\",\"value\":[\"0xC02aaA39b223FE8D0A0e5C4F27eAD9083C756Cc2\",\"0x4a35feae3378298d65F123576C61ACD62b52A920\"]},{\"name\":\"to\",\"type\":\"address\",\"value\":\"0xFbAC8a1Fa46CdCb3337D60C680f44bae971f0DAd\"},{\"name\":\"deadline\",\"type\":\"uint256\",\"value\":\"1749825720\"}]},\"token_transfers\":null,\"base_fee_per_gas\":\"5464245490\",\"timestamp\":\"2025-06-12T14:42:11.000000Z\",\"nonce\":308,\"historic_exchange_rate\":\"2775.54\",\"transaction_types\":[\"coin_transfer\",\"contract_call\",\"token_transfer\"],\"exchange_rate\":\"2760.96\",\"block_number\":22689151,\"has_error_in_internal_transactions\":null},{\"priority_fee\":null,\"raw_input\":\"0x791ac94700000000000000000000000000000000000000000000004abb5d2bf1e814b2f3000000000000000000000000000000000000000000000000018ec138b59a936300000000000000000000000000000000000000000000000000000000000000a000000000000000000000000081c185dbcf599da83be192a448973baebbfc4cce00000000000000000000000000000000000000000000000000000000684c38b800000000000000000000000000000000000000000000000000000000000000020000000000000000000000004a35feae3378298d65f123576c61acd62b52a920000000000000000000000000c02aaa39b223fe8d0a0e5c4f27ead9083c756cc2\",\"result\":\"success\",\"hash\":\"0xb4f161bc5f5b6fb056353a1d36fcb1f8e650b4cccc993944edd1eaa3031a493c\",\"max_fee_per_gas\":null,\"revert_reason\":null,\"confirmation_duration\":[0,12000],\"transaction_burnt_fee\":null,\"type\":0,\"token_transfers_overflow\":null,\"confirmations\":1,\"position\":164,\"max_priority_fee_per_gas\":null,\"transaction_tag\":null,\"created_contract\":null,\"value\":\"0\",\"from\":{\"ens_domain_name\":null,\"hash\":\"0x81c185dBcf599da83be192A448973BaEbBfC4CCE\",\"implementations\":[],\"is_contract\":false,\"is_scam\":false,\"is_verified\":false,\"metadata\":null,\"name\":null,\"private_tags\":[],\"proxy_type\":null,\"public_tags\":[],\"watchlist_names\":[]},\"gas_used\":\"149164\",\"status\":\"ok\",\"to\":{\"ens_domain_name\":null,\"hash\":\"0x7a250d5630B4cF539739dF2C5dAcb4c659F2488D\",\"implementations\":[],\"is_contract\":true,\"is_scam\":false,\"is_verified\":true,\"metadata\":{\"tags\":[{\"meta\":{\"bgColor\":\"#FFFFFF\",\"textColor\":\"#FF007A\",\"tooltipUrl\":\"https://uniswap.info\"},\"name\":\"Uniswap V3: Universal Router\",\"ordinal\":10,\"slug\":\"uniswap-v3-universal-router\",\"tagType\":\"name\"},{\"meta\":{},\"name\":\"DEX\",\"ordinal\":0,\"slug\":\"dex\",\"tagType\":\"generic\"},{\"meta\":{\"bgColor\":\"#FF007A\",\"tagIcon\":\"https://blockscout-content.s3.amazonaws.com/uniswap.png\",\"tagUrl\":\"https://uniswap.org/?utm_source=Blockscout\",\"textColor\":\"#FFFFFF\",\"tooltipDescription\":\"Trade crypto and NFTs safely on the top DeFi platform. Swapping made simple. Buy and sell crypto on Ethereum, Base, Arbitrum, Polygon, and more.\",\"tooltipTitle\":\"Uniswap\",\"tooltipUrl\":\"https://uniswap.org/?utm_source=Blockscout\"},\"name\":\"Uniswap V2\",\"ordinal\":1,\"slug\":\"uniswap-v2\",\"tagType\":\"protocol\"}]},\"name\":\"UniswapV2Router02\",\"private_tags\":[],\"proxy_type\":\"unknown\",\"public_tags\":[],\"watchlist_names\":[]},\"authorization_list\":[],\"method\":\"swapExactTokensForETHSupportingFeeOnTransferTokens\",\"fee\":{\"type\":\"actual\",\"value\":\"956399901712464\"},\"actions\":[],\"gas_limit\":\"600000\",\"gas_price\":\"6411734076\",\"decoded_input\":{\"method_call\":\"swapExactTokensForETHSupportingFeeOnTransferTokens(uint256 amountIn, uint256 amountOutMin, address[] path, address to, uint256 deadline)\",\"method_id\":\"791ac947\",\"parameters\":[{\"name\":\"amountIn\",\"type\":\"uint256\",\"value\":\"1378560057030414217971\"},{\"name\":\"amountOutMin\",\"type\":\"uint256\",\"value\":\"112239490039976803\"},{\"name\":\"path\",\"type\":\"address[]\",\"value\":[\"0x4a35feae3378298d65F123576C61ACD62b52A920\",\"0xC02aaA39b223FE8D0A0e5C4F27eAD9083C756Cc2\"]},{\"name\":\"to\",\"type\":\"address\",\"value\":\"0x81c185dBcf599da83be192A448973BaEbBfC4CCE\"},{\"name\":\"deadline\",\"type\":\"uint256\",\"value\":\"1749825720\"}]},\"token_transfers\":null,\"base_fee_per_gas\":\"5464245490\",\"timestamp\":\"2025-06-12T14:42:11.000000Z\",\"nonce\":280,\"historic_exchange_rate\":\"2775.54\",\"transaction_types\":[\"contract_call\",\"token_transfer\"],\"exchange_rate\":\"2760.96\",\"block_number\":22689151,\"has_error_in_internal_transactions\":null},{\"priority_fee\":null,\"raw_input\":\"0x791ac94700000000000000000000000000000000000000000000004abb5d2bf1e814b2f3000000000000000000000000000000000000000000000000018ec138b59a936300000000000000000000000000000000000000000000000000000000000000a000000000000000000000000035792fed225144168bfa8e0c9d4e71994bdeca6a00000000000000000000000000000000000000000000000000000000684c38b800000000000000000000000000000000000000000000000000000000000000020000000000000000000000004a35feae3378298d65f123576c61acd62b52a920000000000000000000000000c02aaa39b223fe8d0a0e5c4f27ead9083c756cc2\",\"result\":\"success\",\"hash\":\"0x7d8da7c0d65f8cb2c647b9569727ceda7b5c42f4627b363bcbac7a114bc98ae1\",\"max_fee_per_gas\":null,\"revert_reason\":null,\"confirmation_duration\":[0,12000],\"transaction_burnt_fee\":null,\"type\":0,\"token_transfers_overflow\":null,\"confirmations\":1,\"position\":163,\"max_priority_fee_per_gas\":null,\"transaction_tag\":null,\"created_contract\":null,\"value\":\"0\",\"from\":{\"ens_domain_name\":null,\"hash\":\"0x35792Fed225144168bFa8E0c9D4E71994bdEca6A\",\"implementations\":[],\"is_contract\":false,\"is_scam\":false,\"is_verified\":false,\"metadata\":null,\"name\":null,\"private_tags\":[],\"proxy_type\":null,\"public_tags\":[],\"watchlist_names\":[]},\"gas_used\":\"159580\",\"status\":\"ok\",\"to\":{\"ens_domain_name\":null,\"hash\":\"0x7a250d5630B4cF539739dF2C5dAcb4c659F2488D\",\"implementations\":[],\"is_contract\":true,\"is_scam\":false,\"is_verified\":true,\"metadata\":{\"tags\":[{\"meta\":{\"bgColor\":\"#FFFFFF\",\"textColor\":\"#FF007A\",\"tooltipUrl\":\"https://uniswap.info\"},\"name\":\"Uniswap V3: Universal Router\",\"ordinal\":10,\"slug\":\"uniswap-v3-universal-router\",\"tagType\":\"name\"},{\"meta\":{},\"name\":\"DEX\",\"ordinal\":0,\"slug\":\"dex\",\"tagType\":\"generic\"},{\"meta\":{\"bgColor\":\"#FF007A\",\"tagIcon\":\"https://blockscout-content.s3.amazonaws.com/uniswap.png\",\"tagUrl\":\"https://uniswap.org/?utm_source=Blockscout\",\"textColor\":\"#FFFFFF\",\"tooltipDescription\":\"Trade crypto and NFTs safely on the top DeFi platform. Swapping made simple. Buy and sell crypto on Ethereum, Base, Arbitrum, Polygon, and more.\",\"tooltipTitle\":\"Uniswap\",\"tooltipUrl\":\"https://uniswap.org/?utm_source=Blockscout\"},\"name\":\"Uniswap V2\",\"ordinal\":1,\"slug\":\"uniswap-v2\",\"tagType\":\"protocol\"}]},\"name\":\"UniswapV2Router02\",\"private_tags\":[],\"proxy_type\":\"unknown\",\"public_tags\":[],\"watchlist_names\":[]},\"authorization_list\":[],\"method\":\"swapExactTokensForETHSupportingFeeOnTransferTokens\",\"fee\":{\"type\":\"actual\",\"value\":\"1023184523848080\"},\"actions\":[],\"gas_limit\":\"600000\",\"gas_price\":\"6411734076\",\"decoded_input\":{\"method_call\":\"swapExactTokensForETHSupportingFeeOnTransferTokens(uint256 amountIn, uint256 amountOutMin, address[] path, address to, uint256 deadline)\",\"method_id\":\"791ac947\",\"parameters\":[{\"name\":\"amountIn\",\"type\":\"uint256\",\"value\":\"1378560057030414217971\"},{\"name\":\"amountOutMin\",\"type\":\"uint256\",\"value\":\"112239490039976803\"},{\"name\":\"path\",\"type\":\"address[]\",\"value\":[\"0x4a35feae3378298d65F123576C61ACD62b52A920\",\"0xC02aaA39b223FE8D0A0e5C4F27eAD9083C756Cc2\"]},{\"name\":\"to\",\"type\":\"address\",\"value\":\"0x35792Fed225144168bFa8E0c9D4E71994bdEca6A\"},{\"name\":\"deadline\",\"type\":\"uint256\",\"value\":\"1749825720\"}]},\"token_transfers\":null,\"base_fee_per_gas\":\"5464245490\",\"timestamp\":\"2025-06-12T14:42:11.000000Z\",\"nonce\":317,\"historic_exchange_rate\":\"2775.54\",\"transaction_types\":[\"contract_call\",\"token_transfer\"],\"exchange_rate\":\"2760.96\",\"block_number\":22689151,\"has_error_in_internal_transactions\":null},{\"priority_fee\":\"45647910000000\",\"raw_input\":\"0xa9059cbb0000000000000000000000008d3e89202b82ec813ce78d5c255bfff29925a6070000000000000000000000000000000000000000000000000000000008f0d180\",\"result\":\"success\",\"hash\":\"0x80a6722d4eacda6eec721b49ce6f357c30b52bbba27ee6606b02cd6cc159ea11\",\"max_fee_per_gas\":\"8230000000\",\"revert_reason\":null,\"confirmation_duration\":[0,12000],\"transaction_burnt_fee\":\"251950895298410\",\"type\":2,\"token_transfers_overflow\":null,\"confirmations\":1,\"position\":162,\"max_priority_fee_per_gas\":\"990000000\",\"transaction_tag\":null,\"created_contract\":null,\"value\":\"0\",\"from\":{\"ens_domain_name\":null,\"hash\":\"0xDd719e2Cf803Ec91c873cf5f9d378c5ceE48221E\",\"implementations\":[],\"is_contract\":false,\"is_scam\":false,\"is_verified\":false,\"metadata\":null,\"name\":null,\"private_tags\":[],\"proxy_type\":null,\"public_tags\":[],\"watchlist_names\":[]},\"gas_used\":\"46109\",\"status\":\"ok\",\"to\":{\"ens_domain_name\":null,\"hash\":\"0xdAC17F958D2ee523a2206206994597C13D831ec7\",\"implementations\":[],\"is_contract\":true,\"is_scam\":false,\"is_verified\":true,\"metadata\":{\"tags\":[{\"meta\":{\"tooltipDescription\":\"Tether gives you the joint benefits of open blockchain technology and traditional currency by converting your cash into a stable digital currency equivalent.\",\"tooltipUrl\":\"https://tether.to/\"},\"name\":\"Tether: USDT Stablecoin\",\"ordinal\":10,\"slug\":\"tether-usdt-stablecoin\",\"tagType\":\"name\"},{\"meta\":{},\"name\":\"Stablecoin\",\"ordinal\":0,\"slug\":\"stablecoin\",\"tagType\":\"generic\"},{\"meta\":{},\"name\":\"Tether\",\"ordinal\":0,\"slug\":\"tether\",\"tagType\":\"protocol\"},{\"meta\":{},\"name\":\"Token Contract\",\"ordinal\":0,\"slug\":\"token-contract\",\"tagType\":\"generic\"}]},\"name\":\"Tether\",\"private_tags\":[],\"proxy_type\":\"unknown\",\"public_tags\":[],\"watchlist_names\":[]},\"authorization_list\":[],\"method\":\"transfer\",\"fee\":{\"type\":\"actual\",\"value\":\"297598805298410\"},\"actions\":[],\"gas_limit\":\"69736\",\"gas_price\":\"6454245490\",\"decoded_input\":{\"method_call\":\"transfer(address _to, uint256 _value)\",\"method_id\":\"a9059cbb\",\"parameters\":[{\"name\":\"_to\",\"type\":\"address\",\"value\":\"0x8d3E89202b82Ec813Ce78d5c255bFFF29925a607\"},{\"name\":\"_value\",\"type\":\"uint256\",\"value\":\"150000000\"}]},\"token_transfers\":null,\"base_fee_per_gas\":\"5464245490\",\"timestamp\":\"2025-06-12T14:42:11.000000Z\",\"nonce\":14,\"historic_exchange_rate\":\"2775.54\",\"transaction_types\":[\"contract_call\",\"token_transfer\"],\"exchange_rate\":\"2760.96\",\"block_number\":22689151,\"has_error_in_internal_transactions\":null},{\"priority_fee\":null,\"raw_input\":\"0x\",\"result\":\"success\",\"hash\":\"0x5aac3c1ea628c3d74fd5b0756a2cc0a66e9335690c4f0ceb8f5eb971a8beca96\",\"max_fee_per_gas\":null,\"revert_reason\":null,\"confirmation_duration\":[0,12000],\"transaction_burnt_fee\":null,\"type\":0,\"token_transfers_overflow\":null,\"confirmations\":1,\"position\":161,\"max_priority_fee_per_gas\":null,\"transaction_tag\":null,\"created_contract\":null,\"value\":\"105909752086210995\",\"from\":{\"ens_domain_name\":null,\"hash\":\"0x1167A42569b534518f56c1fD666D67A0A7682289\",\"implementations\":[],\"is_contract\":false,\"is_scam\":false,\"is_verified\":false,\"metadata\":null,\"name\":null,\"private_tags\":[],\"proxy_type\":null,\"public_tags\":[],\"watchlist_names\":[]},\"gas_used\":\"21000\",\"status\":\"ok\",\"to\":{\"ens_domain_name\":null,\"hash\":\"0x760b6A52D5f857Cbd1bADC9d3DD58eca4e425a7D\",\"implementations\":[],\"is_contract\":false,\"is_scam\":false,\"is_verified\":false,\"metadata\":null,\"name\":null,\"private_tags\":[],\"proxy_type\":null,\"public_tags\":[],\"watchlist_names\":[]},\"authorization_list\":[],\"method\":null,\"fee\":{\"type\":\"actual\",\"value\":\"123947913789000\"},\"actions\":[],\"gas_limit\":\"21000\",\"gas_price\":\"5902281609\",\"decoded_input\":null,\"token_transfers\":null,\"base_fee_per_gas\":\"5464245490\",\"timestamp\":\"2025-06-12T14:42:11.000000Z\",\"nonce\":0,\"historic_exchange_rate\":\"2775.54\",\"transaction_types\":[\"coin_transfer\"],\"exchange_rate\":\"2760.96\",\"block_number\":22689151,\"has_error_in_internal_transactions\":null},{\"priority_fee\":\"10999407000000\",\"raw_input\":\"0xb930370100000000000000000000000000000000000000000000000000000000000000c0000000000000000000000000000000000000000000000000000001976497112d0000000000000000000000000000000000000000000000000000000000000380000000000000000000000000000000000000000000000000000000000000786e00000000000000000000000000000000000000000000000000000000000003a000000000000000000000000000000000000000000000000000000000000003c00000000000000000000000000000000000000000000000000000000000000000000000000000000000000000000000000000000000000000115324ce916028290000000000000000000000000000000000000000000000000000000000000160000000000000000000000000000000000000000000000000112783b4476b0a21000000000000000000000000000000000000000000000000000000000000210500000000000000000000000000000000000000000000000000000000000001a0000000000000000000000000e217731a61c20505fc5af5990cf893fc61b720e000000000000000000000000000000000000000000000000000000000000001e0000000000000000000000000000000000000000000000000000000000000022000000000000000000000000000000000000000000000000000000000000002600000000000000000000000000000000000000000000000000000000000000280000000000000000000000000000000000000000000000000000000000000001400000000000000000000000000000000000000000000000000000000000000000000000000000000000000000000000000000000000000000000000000000014e217731a61c20505fc5af5990cf893fc61b720e000000000000000000000000000000000000000000000000000000000000000000000000000000000000000140746e7e4d15f30885616b4ac3d274393354e80c00000000000000000000000000000000000000000000000000000000000000000000000000000000000000014555ce236c0220695b68341bc48c68d52210cc35b00000000000000000000000000000000000000000000000000000000000000000000000000000000000000000000000000000000000000000000000000000000000000000000000000000014e217731a61c20505fc5af5990cf893fc61b720e00000000000000000000000000000000000000000000000000000000000000000000000000000000000000000000000000000000000000000000000000000000000000000000000000000000000000000000000000000000000000000000000000000000000000000000000420101005500a8108553f4650200000000000000000000000000210a6b47b4832711000000000000000000000000000000000000000000000000000000000000000000000000000000000000000000000000000000000000000000000000000000\",\"result\":\"success\",\"hash\":\"0x7c53b5fd19c2f14bcaa645bcd4e13a7c03fa0f2edc6802ba7e94faf3d00eb36e\",\"max_fee_per_gas\":\"10000000000\",\"revert_reason\":null,\"confirmation_duration\":[0,12000],\"transaction_burnt_fee\":\"760803292309170\",\"type\":2,\"token_transfers_overflow\":null,\"confirmations\":1,\"position\":160,\"max_priority_fee_per_gas\":\"79000000\",\"transaction_tag\":null,\"created_contract\":null,\"value\":\"1249381991332620329\",\"from\":{\"ens_domain_name\":null,\"hash\":\"0xE217731a61c20505Fc5AF5990Cf893fC61B720E0\",\"implementations\":[],\"is_contract\":false,\"is_scam\":false,\"is_verified\":false,\"metadata\":null,\"name\":null,\"private_tags\":[],\"proxy_type\":null,\"public_tags\":[],\"watchlist_names\":[]},\"gas_used\":\"139233\",\"status\":\"ok\",\"to\":{\"ens_domain_name\":null,\"hash\":\"0xeF4fB24aD0916217251F553c0596F8Edc630EB66\",\"implementations\":[{\"address\":\"0x7Ec2E51A9c4f088354aD8Ad8703C12D81BF21677\",\"address_hash\":\"0x7Ec2E51A9c4f088354aD8Ad8703C12D81BF21677\",\"name\":\"DlnSource\"}],\"is_contract\":true,\"is_scam\":false,\"is_verified\":true,\"metadata\":{\"tags\":[{\"meta\":{},\"name\":\"deBridge\",\"ordinal\":0,\"slug\":\"debridge\",\"tagType\":\"protocol\"},{\"meta\":{\"tooltipDescription\":\"Used to place orders on DLN\",\"tooltipUrl\":\"https://app.dln.trade/\"},\"name\":\"deBridge: DlnSource\",\"ordinal\":10,\"slug\":\"debridge-dlnsource\",\"tagType\":\"name\"},{\"meta\":{},\"name\":\"Dln: Source\",\"ordinal\":10,\"slug\":\"dln-source\",\"tagType\":\"name\"}]},\"name\":\"TransparentUpgradeableProxy\",\"private_tags\":[],\"proxy_type\":\"eip1967\",\"public_tags\":[],\"watchlist_names\":[]},\"authorization_list\":[],\"method\":\"createSaltedOrder\",\"fee\":{\"type\":\"actual\",\"value\":\"771802699309170\"},\"actions\":[],\"gas_limit\":\"181003\",\"gas_price\":\"5543245490\",\"decoded_input\":{\"method_call\":\"createSaltedOrder((address,uint256,bytes,uint256,uint256,bytes,address,bytes,bytes,bytes,bytes) _orderCreation, uint64 _salt, bytes _affiliateFee, uint32 _referralCode, bytes _permitEnvelope, bytes _metadata)\",\"method_id\":\"b9303701\",\"parameters\":[{\"name\":\"_orderCreation\",\"type\":\"(address,uint256,bytes,uint256,uint256,bytes,address,bytes,bytes,bytes,bytes)\",\"value\":[\"0x0000000000000000000000000000000000000000\",\"1248381991332620329\",\"0x0000000000000000000000000000000000000000\",\"1236101433052039713\",\"8453\",\"0xe217731a61c20505fc5af5990cf893fc61b720e0\",\"0xE217731a61c20505Fc5AF5990Cf893fC61B720E0\",\"0x0746e7e4d15f30885616b4ac3d274393354e80c0\",\"0x555ce236c0220695b68341bc48c68d52210cc35b\",\"0x\",\"0xe217731a61c20505fc5af5990cf893fc61b720e0\"]},{\"name\":\"_salt\",\"type\":\"uint64\",\"value\":\"1749739311405\"},{\"name\":\"_affiliateFee\",\"type\":\"bytes\",\"value\":\"0x\"},{\"name\":\"_referralCode\",\"type\":\"uint32\",\"value\":\"30830\"},{\"name\":\"_permitEnvelope\",\"type\":\"bytes\",\"value\":\"0x\"},{\"name\":\"_metadata\",\"type\":\"bytes\",\"value\":\"0x0101005500a8108553f4650200000000000000000000000000210a6b47b4832711000000000000000000000000000000000000000000000000000000000000000000\"}]},\"token_transfers\":null,\"base_fee_per_gas\":\"5464245490\",\"timestamp\":\"2025-06-12T14:42:11.000000Z\",\"nonce\":334,\"historic_exchange_rate\":\"2775.54\",\"transaction_types\":[\"coin_transfer\",\"contract_call\"],\"exchange_rate\":\"2760.96\",\"block_number\":22689151,\"has_error_in_internal_transactions\":null},{\"priority_fee\":\"10585020400000\",\"raw_input\":\"0xe1e1384700000000000000000000000000000000000000000000000000000000000000000000000000000000000000000e1f8d873b12c6e804e3cce83697beb785297fa4\",\"result\":\"success\",\"hash\":\"0xbc16ca7753bd98602c8148bf535d904601fa1ceb5338b1c17ca8b06f2e7801fb\",\"max_fee_per_gas\":\"6200000000\",\"revert_reason\":null,\"confirmation_duration\":[0,12000],\"transaction_burnt_fee\":\"778873552144600\",\"type\":2,\"token_transfers_overflow\":null,\"confirmations\":1,\"position\":159,\"max_priority_fee_per_gas\":\"74260000\",\"transaction_tag\":null,\"created_contract\":null,\"value\":\"0\",\"from\":{\"ens_domain_name\":null,\"hash\":\"0x0E1F8D873b12c6e804e3CcE83697BeB785297Fa4\",\"implementations\":[],\"is_contract\":false,\"is_scam\":false,\"is_verified\":false,\"metadata\":null,\"name\":null,\"private_tags\":[],\"proxy_type\":null,\"public_tags\":[],\"watchlist_names\":[]},\"gas_used\":\"142540\",\"status\":\"ok\",\"to\":{\"ens_domain_name\":null,\"hash\":\"0xFE4BCE4b3949c35fB17691D8b03c3caDBE2E5E23\",\"implementations\":[{\"address\":\"0x1d2D1e12db390D5F6046102EEE25DbF2Cfd827E6\",\"address_hash\":\"0x1d2D1e12db390D5F6046102EEE25DbF2Cfd827E6\",\"name\":\"ResolvStaking\"}],\"is_contract\":true,\"is_scam\":false,\"is_verified\":true,\"metadata\":null,\"name\":\"TransparentUpgradeableProxy\",\"private_tags\":[],\"proxy_type\":\"eip1967\",\"public_tags\":[],\"watchlist_names\":[]},\"authorization_list\":[],\"method\":\"withdraw\",\"fee\":{\"type\":\"actual\",\"value\":\"789458572544600\"},\"actions\":[],\"gas_limit\":\"252359\",\"gas_price\":\"5538505490\",\"decoded_input\":{\"method_call\":\"withdraw(bool _claimRewards, address _receiver)\",\"method_id\":\"e1e13847\",\"parameters\":[{\"name\":\"_claimRewards\",\"type\":\"bool\",\"value\":\"false\"},{\"name\":\"_receiver\",\"type\":\"address\",\"value\":\"0x0E1F8D873b12c6e804e3CcE83697BeB785297Fa4\"}]},\"token_transfers\":null,\"base_fee_per_gas\":\"5464245490\",\"timestamp\":\"2025-06-12T14:42:11.000000Z\",\"nonce\":41,\"historic_exchange_rate\":\"2775.54\",\"transaction_types\":[\"contract_call\",\"token_transfer\"],\"exchange_rate\":\"2760.96\",\"block_number\":22689151,\"has_error_in_internal_transactions\":null},{\"priority_fee\":\"12096559000000\",\"raw_input\":\"0x2213bc0b0000000000000000000000005418226af9c8d5d287a78fbbbcd337b86ec07d61000000000000000000000000abc930fdd6bcbbc2b5ae0d338138a025ec12ee55000000000000000000000000000000000000000000000c93e4a3fab3cee0fec00000000000000000000000005418226af9c8d5d287a78fbbbcd337b86ec07d6100000000000000000000000000000000000000000000000000000000000000a000000000000000000000000000000000000000000000000000000000000005a41fff991f00000000000000000000000008e7153f1019b57b9824e70cf788ae7f14b4c9e9000000000000000000000000eeeeeeeeeeeeeeeeeeeeeeeeeeeeeeeeeeeeeeee000000000000000000000000000000000000000000000000033854b535dda57d00000000000000000000000000000000000000000000000000000000000000a052e2056a7fa2448fbbeca5e22068d400000000000000000000000000000000000000000000000000000000000000000000000000000000000000000000000004000000000000000000000000000000000000000000000000000000000000008000000000000000000000000000000000000000000000000000000000000001a000000000000000000000000000000000000000000000000000000000000002a000000000000000000000000000000000000000000000000000000000000003e000000000000000000000000000000000000000000000000000000000000000e4c1fb425e00000000000000000000000064305e6ad49a5279b766ddd5bad7a1a5d06794d7000000000000000000000000abc930fdd6bcbbc2b5ae0d338138a025ec12ee55000000000000000000000000000000000000000000000c93e4a3fab3cee0fec0000000000000000000000000000000000000000000000000000000000000000000000000000000000000000000000000000000000000000000000000684ae86300000000000000000000000000000000000000000000000000000000000000c000000000000000000000000000000000000000000000000000000000000000000000000000000000000000000000000000000000000000000000000000000000000000000000000000000000000000000000000000000000000000c4103b48be0000000000000000000000005418226af9c8d5d287a78fbbbcd337b86ec07d61000000000000000000000000abc930fdd6bcbbc2b5ae0d338138a025ec12ee55000000000000000000000000000000000000000000000000000000000000000000000000000000000000000064305e6ad49a5279b766ddd5bad7a1a5d06794d70000000000000000000000000000000000000000000000000000000000001e01000000000000000000000000000000000000000000000000000000000000000000000000000000000000000000000000000000000000000000000000000000000000000000000000000000000000000000000000000000000000010438c9c147000000000000000000000000c02aaa39b223fe8d0a0e5c4f27ead9083c756cc20000000000000000000000000000000000000000000000000000000000002710000000000000000000000000c02aaa39b223fe8d0a0e5c4f27ead9083c756cc2000000000000000000000000000000000000000000000000000000000000000400000000000000000000000000000000000000000000000000000000000000a000000000000000000000000000000000000000000000000000000000000000242e1a7d4d0000000000000000000000000000000000000000000000000000000000000000000000000000000000000000000000000000000000000000000000000000000000000000000000000000000000000000000000000000000000000000000000000000000000000000000000000000000000000000000000c438c9c147000000000000000000000000eeeeeeeeeeeeeeeeeeeeeeeeeeeeeeeeeeeeeeee00000000000000000000000000000000000000000000000000000000000000550000000000000000000000007afa9d836d2fccf172b66622625e56404e465dbd000000000000000000000000000000000000000000000000000000000000000000000000000000000000000000000000000000000000000000000000000000a000000000000000000000000000000000000000000000000000000000000000000000000000000000000000000000000000000000000000000000000000000000000000000000000000000000000000000000000000000000\",\"result\":\"success\",\"hash\":\"0x33191c2f27313feccd5275856704d953817d610647be5afd7182030656af1699\",\"max_fee_per_gas\":\"11000000000\",\"revert_reason\":null,\"confirmation_duration\":[0,12000],\"transaction_burnt_fee\":\"836690733674290\",\"type\":2,\"token_transfers_overflow\":null,\"confirmations\":1,\"position\":158,\"max_priority_fee_per_gas\":\"79000000\",\"transaction_tag\":null,\"created_contract\":null,\"value\":\"0\",\"from\":{\"ens_domain_name\":null,\"hash\":\"0x08e7153f1019b57b9824E70Cf788AE7F14b4c9E9\",\"implementations\":[],\"is_contract\":false,\"is_scam\":false,\"is_verified\":false,\"metadata\":null,\"name\":null,\"private_tags\":[],\"proxy_type\":null,\"public_tags\":[],\"watchlist_names\":[]},\"gas_used\":\"153121\",\"status\":\"ok\",\"to\":{\"ens_domain_name\":null,\"hash\":\"0x0000000000001fF3684f28c67538d4D072C22734\",\"implementations\":[],\"is_contract\":true,\"is_scam\":false,\"is_verified\":true,\"metadata\":null,\"name\":\"AllowanceHolder\",\"private_tags\":[],\"proxy_type\":\"unknown\",\"public_tags\":[],\"watchlist_names\":[]},\"authorization_list\":[],\"method\":\"0x2213bc0b\",\"fee\":{\"type\":\"actual\",\"value\":\"848787292674290\"},\"actions\":[],\"gas_limit\":\"199058\",\"gas_price\":\"5543245490\",\"decoded_input\":null,\"token_transfers\":null,\"base_fee_per_gas\":\"5464245490\",\"timestamp\":\"2025-06-12T14:42:11.000000Z\",\"nonce\":20,\"historic_exchange_rate\":\"2775.54\",\"transaction_types\":[\"contract_call\",\"token_transfer\"],\"exchange_rate\":\"2760.96\",\"block_number\":22689151,\"has_error_in_internal_transactions\":null}],\"next_page_params\":{\"block_number\":22689151,\"index\":158,\"items_count\":50}}",
    "headers": {
      "Content-Type": "application/json"
    }
  }
}