{
  "request": {
    "method": "GET",
    "urlPath": "/api/v2/transactions"
  },
  "response": {
    "status": 200,
    "body": "{\"items\":[{\"priority_fee\":\"0\",\"tx_burnt_fee\":\"18982283667360\",\"raw_input\":\"0x\",\"result\":\"success\",\"hash\":\"0xd12c864e63b586256dd63ece883f08da1df5dd1ab307dda52bfb53371bb16958\",\"max_fee_per_gas\":\"800534905\",\"revert_reason\":null,\"confirmation_duration\":[0,12000],\"transaction_burnt_fee\":\"18982283667360\",\"type\":2,\"token_transfers_overflow\":null,\"confirmations\":1,\"position\":152,\"max_priority_fee_per_gas\":\"0\",\"transaction_tag\":null,\"created_contract\":null,\"value\":\"27395054734292162\",\"from\":{\"ens_domain_name\":\"titanbuilder.eth\",\"hash\":\"0x4838B106FCe9647Bdf1E7877BF73cE8B0BAD5f97\",\"implementations\":[],\"is_contract\":false,\"is_scam\":false,\"is_verified\":false,\"metadata\":{\"tags\":[{\"meta\":{},\"name\":\"MEV Builder\",\"ordinal\":0,\"slug\":\"mev-builder\",\"tagType\":\"generic\"},{\"meta\":{\"tooltipUrl\":\"https://www.titanbuilder.xyz/\"},\"name\":\"Titan Builder\",\"ordinal\":10,\"slug\":\"titan-builder\",\"tagType\":\"name\"}]},\"name\":null,\"private_tags\":[],\"proxy_type\":null,\"public_tags\":[],\"watchlist_names\":[]},\"gas_used\":\"23712\",\"status\":\"ok\",\"to\":{\"ens_domain_name\":null,\"hash\":\"0xE1589A4eA37427C66085007D973Af4bf3784F12C\",\"implementations\":[{\"address\":\"0xFE1b6a789e2BD96a69C49a14353E51116b48107F\",\"name\":\"FeeRecipient\"}],\"is_contract\":true,\"is_scam\":false,\"is_verified\":true,\"metadata\":null,\"name\":null,\"private_tags\":[],\"proxy_type\":\"eip1167\",\"public_tags\":[],\"watchlist_names\":[]},\"authorization_list\":[],\"method\":null,\"fee\":{\"type\":\"actual\",\"value\":\"18982283667360\"},\"actions\":[],\"gas_limit\":\"23712\",\"gas_price\":\"800534905\",\"decoded_input\":null,\"token_transfers\":null,\"base_fee_per_gas\":\"800534905\",\"timestamp\":\"2025-02-19T08:27:35.000000Z\",\"nonce\":1280457,\"transaction_types\":[\"coin_transfer\",\"contract_call\"],\"exchange_rate\":\"2713.51\",\"block_number\":21879216,\"has_error_in_internal_transactions\":false},{\"priority_fee\":\"871357011000\",\"tx_burnt_fee\":\"16811233005000\",\"raw_input\":\"0x\",\"result\":\"success\",\"hash\":\"0x6caf568e5b1cf78f6d448b6515319955cbd2f46396ac6184ce006e244926e63a\",\"max_fee_per_gas\":\"842028096\",\"revert_reason\":null,\"confirmation_duration\":[0,12000],\"transaction_burnt_fee\":\"16811233005000\",\"type\":2,\"token_transfers_overflow\":null,\"confirmations\":1,\"position\":151,\"max_priority_fee_per_gas\":\"842028096\",\"transaction_tag\":null,\"created_contract\":null,\"value\":\"22844639666913229\",\"from\":{\"ens_domain_name\":null,\"hash\":\"0x45D376DE6D5516Fe2fb26E35e65eC2f43e8E25D8\",\"implementations\":[],\"is_contract\":false,\"is_scam\":false,\"is_verified\":false,\"metadata\":null,\"name\":null,\"private_tags\":[],\"proxy_type\":null,\"public_tags\":[],\"watchlist_names\":[]},\"gas_used\":\"21000\",\"status\":\"ok\",\"to\":{\"ens_domain_name\":null,\"hash\":\"0xf58E47A9C7FB0f439143335170C82A97880eee3C\",\"implementations\":[],\"is_contract\":false,\"is_scam\":false,\"is_verified\":false,\"metadata\":null,\"name\":null,\"private_tags\":[],\"proxy_type\":null,\"public_tags\":[],\"watchlist_names\":[]},\"authorization_list\":[],\"method\":null,\"fee\":{\"type\":\"actual\",\"value\":\"17682590016000\"},\"actions\":[],\"gas_limit\":\"21000\",\"gas_price\":\"842028096\",\"decoded_input\":null,\"token_transfers\":null,\"base_fee_per_gas\":\"800534905\",\"timestamp\":\"2025-02-19T08:27:35.000000Z\",\"nonce\":7,\"transaction_types\":[\"coin_transfer\"],\"exchange_rate\":\"2713.51\",\"block_number\":21879216,\"has_error_in_internal_transactions\":false},{\"priority_fee\":\"25025259506060\",\"tx_burnt_fee\":\"49841303185300\",\"raw_input\":\"0xa9059cbb000000000000000000000000fa6a202cfa2274f9234ad013646147cff59ed13a000000000000000000000000000000000000000000000000000000004e2186a0\",\"result\":\"success\",\"hash\":\"0x6c6b36c8558fd0aca5d58848d898972f4aca338b951dde1213c04651a6bd4744\",\"max_fee_per_gas\":\"1365254409\",\"revert_reason\":null,\"confirmation_duration\":[0,12000],\"transaction_burnt_fee\":\"49841303185300\",\"type\":2,\"token_transfers_overflow\":null,\"confirmations\":1,\"position\":150,\"max_priority_fee_per_gas\":\"401947631\",\"transaction_tag\":null,\"created_contract\":null,\"value\":\"0\",\"from\":{\"ens_domain_name\":null,\"hash\":\"0xDb90bB4Bfdf2De866B3567AF1D78B58d743Ff448\",\"implementations\":[],\"is_contract\":false,\"is_scam\":false,\"is_verified\":false,\"metadata\":null,\"name\":null,\"private_tags\":[],\"proxy_type\":null,\"public_tags\":[],\"watchlist_names\":[]},\"gas_used\":\"62260\",\"status\":\"ok\",\"to\":{\"ens_domain_name\":null,\"hash\":\"0xA0b86991c6218b36c1d19D4a2e9Eb0cE3606eB48\",\"implementations\":[{\"address\":\"0x43506849D7C04F9138D1A2050bbF3A0c054402dd\",\"name\":\"FiatTokenV2_2\"}],\"is_contract\":true,\"is_scam\":false,\"is_verified\":true,\"metadata\":{\"tags\":[{\"meta\":{},\"name\":\"Stablecoin\",\"ordinal\":0,\"slug\":\"stablecoin\",\"tagType\":\"generic\"},{\"meta\":{},\"name\":\"Circle\",\"ordinal\":0,\"slug\":\"circle\",\"tagType\":\"generic\"},{\"meta\":{},\"name\":\"Token Contract\",\"ordinal\":0,\"slug\":\"token-contract\",\"tagType\":\"generic\"},{\"meta\":{\"tooltipDescription\":\"USDC is a US dollar-backed stablecoin issued by Circle. USDC is designed to provide a faster, safer, and more efficient way to send, spend, and exchange money around the world.\",\"tooltipUrl\":\"https://www.circle.com/en/usdc\"},\"name\":\"Circle: USDC Token\",\"ordinal\":10,\"slug\":\"circle-usdc-token\",\"tagType\":\"name\"},{\"meta\":{},\"name\":\"USDC\",\"ordinal\":0,\"slug\":\"usdc\",\"tagType\":\"generic\"},{\"meta\":{},\"name\":\"Circle\",\"ordinal\":0,\"slug\":\"circle\",\"tagType\":\"protocol\"}]},\"name\":\"USDC\",\"private_tags\":[],\"proxy_type\":\"eip1967\",\"public_tags\":[],\"watchlist_names\":[]},\"authorization_list\":[],\"method\":\"transfer\",\"fee\":{\"type\":\"actual\",\"value\":\"74866562691360\"},\"actions\":[],\"gas_limit\":\"62745\",\"gas_price\":\"1202482536\",\"decoded_input\":{\"method_call\":\"transfer(address to, uint256 value)\",\"method_id\":\"a9059cbb\",\"parameters\":[{\"name\":\"to\",\"type\":\"address\",\"value\":\"0xfA6a202Cfa2274F9234aD013646147CFF59ED13a\"},{\"name\":\"value\",\"type\":\"uint256\",\"value\":\"1310820000\"}]},\"token_transfers\":null,\"base_fee_per_gas\":\"800534905\",\"timestamp\":\"2025-02-19T08:27:35.000000Z\",\"nonce\":4,\"transaction_types\":[\"contract_call\",\"token_transfer\"],\"exchange_rate\":\"2713.51\",\"block_number\":21879216,\"has_error_in_internal_transactions\":false},{\"priority_fee\":null,\"tx_burnt_fee\":null,\"raw_input\":\"0x010b000000000000000000000000000000000000000000000000000000000000b65f00000000000000000000000000000000000000000000000000000000012d458300000321001951d1a2ecb00026fc865e1a9794f4dd21efe3c3787fc67975df2cf42da0231158a4c6041c4e8e821651\",\"result\":\"success\",\"hash\":\"0x6d508502b5e7bec6d2cd2d375bde4c74a9b1f27923cb0f2eab9899532931bd47\",\"max_fee_per_gas\":null,\"revert_reason\":null,\"confirmation_duration\":[0,12000],\"transaction_burnt_fee\":null,\"type\":0,\"token_transfers_overflow\":null,\"confirmations\":1,\"position\":149,\"max_priority_fee_per_gas\":null,\"transaction_tag\":null,\"created_contract\":null,\"value\":\"0\",\"from\":{\"ens_domain_name\":null,\"hash\":\"0x1A9da0aedA630dDf2748a453BF6d92560762D914\",\"implementations\":[],\"is_contract\":false,\"is_scam\":false,\"is_verified\":false,\"metadata\":null,\"name\":null,\"private_tags\":[],\"proxy_type\":null,\"public_tags\":[],\"watchlist_names\":[]},\"gas_used\":\"22064\",\"status\":\"ok\",\"to\":{\"ens_domain_name\":null,\"hash\":\"0xFf00000000000000000000000000000000001088\",\"implementations\":[],\"is_contract\":false,\"is_scam\":false,\"is_verified\":false,\"metadata\":null,\"name\":null,\"private_tags\":[],\"proxy_type\":null,\"public_tags\":[],\"watchlist_names\":[]},\"authorization_list\":[],\"method\":null,\"fee\":{\"type\":\"actual\",\"value\":\"551600000000000\"},\"actions\":[],\"gas_limit\":\"22398\",\"gas_price\":\"25000000000\",\"decoded_input\":null,\"token_transfers\":null,\"base_fee_per_gas\":\"800534905\",\"timestamp\":\"2025-02-19T08:27:35.000000Z\",\"nonce\":4042,\"transaction_types\":[],\"exchange_rate\":\"2713.51\",\"block_number\":21879216,\"has_error_in_internal_transactions\":false},{\"priority_fee\":\"10500000000000\",\"tx_burnt_fee\":\"16811233005000\",\"raw_input\":\"0x\",\"result\":\"success\",\"hash\":\"0x4798e121b4e6d518e87f6f3da2739d670712f7f8d86818519539f2738f748513\",\"max_fee_per_gas\":\"1584668262\",\"revert_reason\":null,\"confirmation_duration\":[0,12000],\"transaction_burnt_fee\":\"16811233005000\",\"type\":2,\"token_transfers_overflow\":null,\"confirmations\":1,\"position\":148,\"max_priority_fee_per_gas\":\"500000000\",\"transaction_tag\":null,\"created_contract\":null,\"value\":\"3683000000000000\",\"from\":{\"ens_domain_name\":null,\"hash\":\"0x5B3e3b28EC066d15b63c5423E0A32B6c44401824\",\"implementations\":[],\"is_contract\":false,\"is_scam\":false,\"is_verified\":false,\"metadata\":null,\"name\":null,\"private_tags\":[],\"proxy_type\":null,\"public_tags\":[],\"watchlist_names\":[]},\"gas_used\":\"21000\",\"status\":\"ok\",\"to\":{\"ens_domain_name\":\"blackwolf.eth\",\"hash\":\"0x9fffe8E9AF8C872F67a41337bc9784C8AD60B3Ea\",\"implementations\":[],\"is_contract\":false,\"is_scam\":false,\"is_verified\":false,\"metadata\":null,\"name\":null,\"private_tags\":[],\"proxy_type\":null,\"public_tags\":[],\"watchlist_names\":[]},\"authorization_list\":[],\"method\":null,\"fee\":{\"type\":\"actual\",\"value\":\"27311233005000\"},\"actions\":[],\"gas_limit\":\"21000\",\"gas_price\":\"1300534905\",\"decoded_input\":null,\"token_transfers\":null,\"base_fee_per_gas\":\"800534905\",\"timestamp\":\"2025-02-19T08:27:35.000000Z\",\"nonce\":110,\"transaction_types\":[\"coin_transfer\"],\"exchange_rate\":\"2713.51\",\"block_number\":21879216,\"has_error_in_internal_transactions\":false},{\"priority_fee\":\"871357011000\",\"tx_burnt_fee\":\"16811233005000\",\"raw_input\":\"0x\",\"result\":\"success\",\"hash\":\"0x60b0c3b542f5e11069c6b0031b1a0bdbd1f5298f53d021d23bd6db508f92faaa\",\"max_fee_per_gas\":\"842028096\",\"revert_reason\":null,\"confirmation_duration\":[0,12000],\"transaction_burnt_fee\":\"16811233005000\",\"type\":2,\"token_transfers_overflow\":null,\"confirmations\":1,\"position\":147,\"max_priority_fee_per_gas\":\"842028096\",\"transaction_tag\":null,\"created_contract\":null,\"value\":\"31304162844590708\",\"from\":{\"ens_domain_name\":null,\"hash\":\"0x280fC1313E7A2AF162cAaA4BBa76807F5A84d805\",\"implementations\":[],\"is_contract\":false,\"is_scam\":false,\"is_verified\":false,\"metadata\":null,\"name\":null,\"private_tags\":[],\"proxy_type\":null,\"public_tags\":[],\"watchlist_names\":[]},\"gas_used\":\"21000\",\"status\":\"ok\",\"to\":{\"ens_domain_name\":null,\"hash\":\"0xC519f678B3766D9BDCa273cFF3F38a215ee641Ee\",\"implementations\":[],\"is_contract\":false,\"is_scam\":false,\"is_verified\":false,\"metadata\":null,\"name\":null,\"private_tags\":[],\"proxy_type\":null,\"public_tags\":[],\"watchlist_names\":[]},\"authorization_list\":[],\"method\":null,\"fee\":{\"type\":\"actual\",\"value\":\"17682590016000\"},\"actions\":[],\"gas_limit\":\"21000\",\"gas_price\":\"842028096\",\"decoded_input\":null,\"token_transfers\":null,\"base_fee_per_gas\":\"800534905\",\"timestamp\":\"2025-02-19T08:27:35.000000Z\",\"nonce\":7,\"transaction_types\":[\"coin_transfer\"],\"exchange_rate\":\"2713.51\",\"block_number\":21879216,\"has_error_in_internal_transactions\":false},{\"priority_fee\":\"126442000000000\",\"tx_burnt_fee\":\"50610617229005\",\"raw_input\":\"0xa9059cbb000000000000000000000000781b98692ab53243c2fb868f2068bb37b510200b00000000000000000000000000000000000000000000000000000004a8188b50\",\"result\":\"success\",\"hash\":\"0xcb024df125630e1e1dc8b432a547457637249728fd788f9f469e2abbdfd14079\",\"max_fee_per_gas\":\"502000000000\",\"revert_reason\":null,\"confirmation_duration\":[0,12000],\"transaction_burnt_fee\":\"50610617229005\",\"type\":2,\"token_transfers_overflow\":null,\"confirmations\":1,\"position\":146,\"max_priority_fee_per_gas\":\"2000000000\",\"transaction_tag\":null,\"created_contract\":null,\"value\":\"0\",\"from\":{\"ens_domain_name\":null,\"hash\":\"0x5041ed759Dd4aFc3a72b8192C143F72f4724081A\",\"implementations\":[],\"is_contract\":false,\"is_scam\":false,\"is_verified\":false,\"metadata\":{\"tags\":[{\"meta\":{\"tooltipUrl\":\"www.okx.com/\"},\"name\":\"Okx 7\",\"ordinal\":10,\"slug\":\"okx-7\",\"tagType\":\"name\"},{\"meta\":{},\"name\":\"HOT WALLET\",\"ordinal\":0,\"slug\":\"hot-wallet\",\"tagType\":\"generic\"},{\"meta\":{},\"name\":\"OKX\",\"ordinal\":0,\"slug\":\"okx\",\"tagType\":\"generic\"},{\"meta\":{},\"name\":\"Exchange\",\"ordinal\":0,\"slug\":\"exchange\",\"tagType\":\"generic\"}]},\"name\":null,\"private_tags\":[],\"proxy_type\":null,\"public_tags\":[],\"watchlist_names\":[]},\"gas_used\":\"63221\",\"status\":\"ok\",\"to\":{\"ens_domain_name\":null,\"hash\":\"0xdAC17F958D2ee523a2206206994597C13D831ec7\",\"implementations\":[],\"is_contract\":true,\"is_scam\":false,\"is_verified\":true,\"metadata\":{\"tags\":[{\"meta\":{\"tooltipDescription\":\"Tether gives you the joint benefits of open blockchain technology and traditional currency by converting your cash into a stable digital currency equivalent.\",\"tooltipUrl\":\"https://tether.to/\"},\"name\":\"Tether: USDT Stablecoin\",\"ordinal\":10,\"slug\":\"tether-usdt-stablecoin\",\"tagType\":\"name\"},{\"meta\":{},\"name\":\"Tether\",\"ordinal\":0,\"slug\":\"tether\",\"tagType\":\"protocol\"},{\"meta\":{},\"name\":\"Stablecoin\",\"ordinal\":0,\"slug\":\"stablecoin\",\"tagType\":\"generic\"},{\"meta\":{},\"name\":\"Tether\",\"ordinal\":0,\"slug\":\"tether\",\"tagType\":\"generic\"},{\"meta\":{},\"name\":\"Token Contract\",\"ordinal\":0,\"slug\":\"token-contract\",\"tagType\":\"generic\"}]},\"name\":\"Tether\",\"private_tags\":[],\"proxy_type\":\"unknown\",\"public_tags\":[],\"watchlist_names\":[]},\"authorization_list\":[],\"method\":\"transfer\",\"fee\":{\"type\":\"actual\",\"value\":\"177052617229005\"},\"actions\":[],\"gas_limit\":\"210000\",\"gas_price\":\"2800534905\",\"decoded_input\":{\"method_call\":\"transfer(address _to, uint256 _value)\",\"method_id\":\"a9059cbb\",\"parameters\":[{\"name\":\"_to\",\"type\":\"address\",\"value\":\"0x781B98692Ab53243c2FB868f2068BB37B510200b\"},{\"name\":\"_value\",\"type\":\"uint256\",\"value\":\"20000050000\"}]},\"token_transfers\":null,\"base_fee_per_gas\":\"800534905\",\"timestamp\":\"2025-02-19T08:27:35.000000Z\",\"nonce\":2135434,\"transaction_types\":[\"contract_call\",\"token_transfer\"],\"exchange_rate\":\"2713.51\",\"block_number\":21879216,\"has_error_in_internal_transactions\":false},{\"priority_fee\":\"1511310000000000\",\"tx_burnt_fee\":\"120985640727555\",\"raw_input\":\"0x31721c730000000000000000000000008c15ef5b4b21951d50e53e4fbda8298ffad2505700000000000000000000000000000000000000000000013e2f7fb9b62d6ed5de0000000000000000000000000000000000000000000000000000000067b598460000000000000000000000000000000000000000000000000000000000002710000000000000000000000000000000000000000000000000000000000000006400000000000000000000000000000000000000000000000000000000014dd9ae0000000000000000000000000000000000000000000000000000000067b595df\",\"result\":\"success\",\"hash\":\"0xe056def23409aa7b23651a9c83688b030115ecbc1d560f0522fcf434eb5f31b1\",\"max_fee_per_gas\":\"11051297620\",\"revert_reason\":null,\"confirmation_duration\":[0,12000],\"transaction_burnt_fee\":\"120985640727555\",\"type\":2,\"token_transfers_overflow\":null,\"confirmations\":1,\"position\":145,\"max_priority_fee_per_gas\":\"10000000000\",\"transaction_tag\":null,\"created_contract\":null,\"value\":\"500000000000000000\",\"from\":{\"ens_domain_name\":null,\"hash\":\"0xf34dD705f20C496757fB821385005F7A00BFCe0a\",\"implementations\":[],\"is_contract\":false,\"is_scam\":false,\"is_verified\":false,\"metadata\":null,\"name\":null,\"private_tags\":[],\"proxy_type\":null,\"public_tags\":[],\"watchlist_names\":[]},\"gas_used\":\"151131\",\"status\":\"ok\",\"to\":{\"ens_domain_name\":null,\"hash\":\"0x055C48651015Cf5b21599a4DED8c402Fdc718058\",\"implementations\":[],\"is_contract\":true,\"is_scam\":false,\"is_verified\":false,\"metadata\":null,\"name\":null,\"private_tags\":[],\"proxy_type\":null,\"public_tags\":[],\"watchlist_names\":[]},\"authorization_list\":[],\"method\":\"0x31721c73\",\"fee\":{\"type\":\"actual\",\"value\":\"1632295640727555\"},\"actions\":[],\"gas_limit\":\"217457\",\"gas_price\":\"10800534905\",\"decoded_input\":null,\"token_transfers\":null,\"base_fee_per_gas\":\"800534905\",\"timestamp\":\"2025-02-19T08:27:35.000000Z\",\"nonce\":463,\"transaction_types\":[\"coin_transfer\",\"contract_call\",\"token_transfer\"],\"exchange_rate\":\"2713.51\",\"block_number\":21879216,\"has_error_in_internal_transactions\":false},{\"priority_fee\":null,\"tx_burnt_fee\":null,\"raw_input\":\"0x\",\"result\":\"success\",\"hash\":\"0xea0cd05a763bdaa90aab9b97a0f017c82cc947cca7a317e0547fefcd8493f5ad\",\"max_fee_per_gas\":null,\"revert_reason\":null,\"confirmation_duration\":[0,12000],\"transaction_burnt_fee\":null,\"type\":1,\"token_transfers_overflow\":null,\"confirmations\":1,\"position\":144,\"max_priority_fee_per_gas\":null,\"transaction_tag\":null,\"created_contract\":null,\"value\":\"3000000000000000\",\"from\":{\"ens_domain_name\":null,\"hash\":\"0x7da4D1F20D014f7440749d7D30eec3F018E49e47\",\"implementations\":[],\"is_contract\":false,\"is_scam\":false,\"is_verified\":false,\"metadata\":null,\"name\":null,\"private_tags\":[],\"proxy_type\":null,\"public_tags\":[],\"watchlist_names\":[]},\"gas_used\":\"21000\",\"status\":\"ok\",\"to\":{\"ens_domain_name\":null,\"hash\":\"0xF2811C8E6c80A555A0f741E417f3553628129451\",\"implementations\":[],\"is_contract\":false,\"is_scam\":false,\"is_verified\":false,\"metadata\":null,\"name\":null,\"private_tags\":[],\"proxy_type\":null,\"public_tags\":[],\"watchlist_names\":[]},\"authorization_list\":[],\"method\":null,\"fee\":{\"type\":\"actual\",\"value\":\"29007752613000\"},\"actions\":[],\"gas_limit\":\"21000\",\"gas_price\":\"1381321553\",\"decoded_input\":null,\"token_transfers\":null,\"base_fee_per_gas\":\"800534905\",\"timestamp\":\"2025-02-19T08:27:35.000000Z\",\"nonce\":5,\"transaction_types\":[\"coin_transfer\"],\"exchange_rate\":\"2713.51\",\"block_number\":21879216,\"has_error_in_internal_transactions\":false},{\"priority_fee\":\"10500000000000\",\"tx_burnt_fee\":\"16811233005000\",\"raw_input\":\"0x\",\"result\":\"success\",\"hash\":\"0xb33fb9fb1b7deb18b9619d4054b34d6ed2b989653d38de4e99f148adec896ccb\",\"max_fee_per_gas\":\"1523987519\",\"revert_reason\":null,\"confirmation_duration\":[0,12000],\"transaction_burnt_fee\":\"16811233005000\",\"type\":2,\"token_transfers_overflow\":null,\"confirmations\":1,\"position\":143,\"max_priority_fee_per_gas\":\"500000000\",\"transaction_tag\":null,\"created_contract\":null,\"value\":\"5100000000000000\",\"from\":{\"ens_domain_name\":null,\"hash\":\"0x469463a46B69B4408CD2cdd19daaB5C872B997B3\",\"implementations\":[],\"is_contract\":false,\"is_scam\":false,\"is_verified\":false,\"metadata\":null,\"name\":null,\"private_tags\":[],\"proxy_type\":null,\"public_tags\":[],\"watchlist_names\":[]},\"gas_used\":\"21000\",\"status\":\"ok\",\"to\":{\"ens_domain_name\":null,\"hash\":\"0x261B8E22Ee4Fc70FB4f578D7c2F0ffbfBd9aA12e\",\"implementations\":[],\"is_contract\":false,\"is_scam\":false,\"is_verified\":false,\"metadata\":null,\"name\":null,\"private_tags\":[],\"proxy_type\":null,\"public_tags\":[],\"watchlist_names\":[]},\"authorization_list\":[],\"method\":null,\"fee\":{\"type\":\"actual\",\"value\":\"27311233005000\"},\"actions\":[],\"gas_limit\":\"21000\",\"gas_price\":\"1300534905\",\"decoded_input\":null,\"token_transfers\":null,\"base_fee_per_gas\":\"800534905\",\"timestamp\":\"2025-02-19T08:27:35.000000Z\",\"nonce\":1105,\"transaction_types\":[\"coin_transfer\"],\"exchange_rate\":\"2713.51\",\"block_number\":21879216,\"has_error_in_internal_transactions\":false},{\"priority_fee\":\"701053229625\",\"tx_burnt_fee\":\"124879442505475\",\"raw_input\":\"0x000000000000000000000000000000000000000000000000000000000000000067b595f70000000000000000000000009f2ebe69a86c079f3d4c3b94a11932b676b72f74000000000000000000000000c02aaa39b223fe8d0a0e5c4f27ead9083c756cc2000000000000000000000000ac57de9c1a09fec648e93eb98875b212db0d460b00000000000000000000000000000000000000000000000003295a683176b1a000000000000000000000000000000000000000000000001451f35615b1909fdb000000000000000000000000000000000000000006483f2123e026817d99373c0000000000000000000000000000000000000000000000000000000000000000\",\"result\":\"success\",\"hash\":\"0x673138930d498f874939f39334b1482ac5806d8e466b0891ef7bc961fbe94553\",\"max_fee_per_gas\":\"909008057\",\"revert_reason\":null,\"confirmation_duration\":[0,12000],\"transaction_burnt_fee\":\"124879442505475\",\"type\":2,\"token_transfers_overflow\":null,\"confirmations\":1,\"position\":142,\"max_priority_fee_per_gas\":\"4494075\",\"transaction_tag\":null,\"created_contract\":null,\"value\":\"12503\",\"from\":{\"ens_domain_name\":null,\"hash\":\"0x6E3608AAE0BC428269F65EA77e87caa44400D28b\",\"implementations\":[],\"is_contract\":false,\"is_scam\":false,\"is_verified\":false,\"metadata\":null,\"name\":null,\"private_tags\":[],\"proxy_type\":null,\"public_tags\":[],\"watchlist_names\":[]},\"gas_used\":\"155995\",\"status\":\"ok\",\"to\":{\"ens_domain_name\":null,\"hash\":\"0xEff6cb8b614999d130E537751Ee99724D01aA167\",\"implementations\":[],\"is_contract\":true,\"is_scam\":false,\"is_verified\":false,\"metadata\":null,\"name\":null,\"private_tags\":[],\"proxy_type\":null,\"public_tags\":[],\"watchlist_names\":[]},\"authorization_list\":[],\"method\":\"0x00000000\",\"fee\":{\"type\":\"actual\",\"value\":\"125580495735100\"},\"actions\":[],\"gas_limit\":\"246060\",\"gas_price\":\"805028980\",\"decoded_input\":null,\"token_transfers\":null,\"base_fee_per_gas\":\"800534905\",\"timestamp\":\"2025-02-19T08:27:35.000000Z\",\"nonce\":3617,\"transaction_types\":[\"coin_transfer\",\"contract_call\",\"token_transfer\"],\"exchange_rate\":\"2713.51\",\"block_number\":21879216,\"has_error_in_internal_transactions\":false},{\"priority_fee\":\"4103701000000\",\"tx_burnt_fee\":\"36911863934645\",\"raw_input\":\"0xa9059cbb000000000000000000000000f9e7fe749fab3eb9a4144213aa1ac3555f68bda1000000000000000000000000000000000000000000000000000000046c7cfe00\",\"result\":\"success\",\"hash\":\"0xb28ec7638869e9385c8d43d6fd4d7ff1b619c04e63132163ff4cc9cb33aef7da\",\"max_fee_per_gas\":\"1035167858\",\"revert_reason\":null,\"confirmation_duration\":[0,12000],\"transaction_burnt_fee\":\"36911863934645\",\"type\":2,\"token_transfers_overflow\":null,\"confirmations\":1,\"position\":141,\"max_priority_fee_per_gas\":\"89000000\",\"transaction_tag\":null,\"created_contract\":null,\"value\":\"0\",\"from\":{\"ens_domain_name\":null,\"hash\":\"0xe4eB52Be100FCe6697b00fC188b8aac748505DB8\",\"implementations\":[],\"is_contract\":false,\"is_scam\":false,\"is_verified\":false,\"metadata\":null,\"name\":null,\"private_tags\":[],\"proxy_type\":null,\"public_tags\":[],\"watchlist_names\":[]},\"gas_used\":\"46109\",\"status\":\"ok\",\"to\":{\"ens_domain_name\":null,\"hash\":\"0xdAC17F958D2ee523a2206206994597C13D831ec7\",\"implementations\":[],\"is_contract\":true,\"is_scam\":false,\"is_verified\":true,\"metadata\":{\"tags\":[{\"meta\":{\"tooltipDescription\":\"Tether gives you the joint benefits of open blockchain technology and traditional currency by converting your cash into a stable digital currency equivalent.\",\"tooltipUrl\":\"https://tether.to/\"},\"name\":\"Tether: USDT Stablecoin\",\"ordinal\":10,\"slug\":\"tether-usdt-stablecoin\",\"tagType\":\"name\"},{\"meta\":{},\"name\":\"Tether\",\"ordinal\":0,\"slug\":\"tether\",\"tagType\":\"protocol\"},{\"meta\":{},\"name\":\"Stablecoin\",\"ordinal\":0,\"slug\":\"stablecoin\",\"tagType\":\"generic\"},{\"meta\":{},\"name\":\"Tether\",\"ordinal\":0,\"slug\":\"tether\",\"tagType\":\"generic\"},{\"meta\":{},\"name\":\"Token Contract\",\"ordinal\":0,\"slug\":\"token-contract\",\"tagType\":\"generic\"}]},\"name\":\"Tether\",\"private_tags\":[],\"proxy_type\":\"unknown\",\"public_tags\":[],\"watchlist_names\":[]},\"authorization_list\":[],\"method\":\"transfer\",\"fee\":{\"type\":\"actual\",\"value\":\"41015564934645\"},\"actions\":[],\"gas_limit\":\"51140\",\"gas_price\":\"889534905\",\"decoded_input\":{\"method_call\":\"transfer(address _to, uint256 _value)\",\"method_id\":\"a9059cbb\",\"parameters\":[{\"name\":\"_to\",\"type\":\"address\",\"value\":\"0xF9e7fe749FAB3EB9A4144213aa1AC3555F68bDA1\"},{\"name\":\"_value\",\"type\":\"uint256\",\"value\":\"19000000000\"}]},\"token_transfers\":null,\"base_fee_per_gas\":\"800534905\",\"timestamp\":\"2025-02-19T08:27:35.000000Z\",\"nonce\":4,\"transaction_types\":[\"contract_call\",\"token_transfer\"],\"exchange_rate\":\"2713.51\",\"block_number\":21879216,\"has_error_in_internal_transactions\":false},{\"priority_fee\":\"87412000000000\",\"tx_burnt_fee\":\"34988178557930\",\"raw_input\":\"0x23b872dd0000000000000000000000000aad9190161af2e222d65ae3028f20787f174b7e00000000000000000000000089e51fa8ca5d66cd220baed62ed01e8951aa7c4000000000000000000000000000000000000000000000000000000000221ad12c\",\"result\":\"success\",\"hash\":\"0x178269f5009273d04f0e549a0e41d5e4b5ae5d1990004db3845cb238a4ead8a6\",\"max_fee_per_gas\":\"5456574627\",\"revert_reason\":null,\"confirmation_duration\":[0,12000],\"transaction_burnt_fee\":\"34988178557930\",\"type\":2,\"token_transfers_overflow\":null,\"confirmations\":1,\"position\":140,\"max_priority_fee_per_gas\":\"2000000000\",\"transaction_tag\":null,\"created_contract\":null,\"value\":\"0\",\"from\":{\"ens_domain_name\":null,\"hash\":\"0x89e51fA8CA5D66cd220bAed62ED01e8951aa7c40\",\"implementations\":[],\"is_contract\":false,\"is_scam\":false,\"is_verified\":false,\"metadata\":{\"tags\":[{\"meta\":{\"tooltipUrl\":\"https://www.kraken.com/\"},\"name\":\"Kraken 7\",\"ordinal\":10,\"slug\":\"kraken-7\",\"tagType\":\"name\"},{\"meta\":{},\"name\":\"Kraken\",\"ordinal\":0,\"slug\":\"kraken\",\"tagType\":\"generic\"},{\"meta\":{},\"name\":\"Exchange\",\"ordinal\":0,\"slug\":\"exchange\",\"tagType\":\"generic\"}]},\"name\":null,\"private_tags\":[],\"proxy_type\":null,\"public_tags\":[],\"watchlist_names\":[]},\"gas_used\":\"43706\",\"status\":\"ok\",\"to\":{\"ens_domain_name\":null,\"hash\":\"0xdAC17F958D2ee523a2206206994597C13D831ec7\",\"implementations\":[],\"is_contract\":true,\"is_scam\":false,\"is_verified\":true,\"metadata\":{\"tags\":[{\"meta\":{\"tooltipDescription\":\"Tether gives you the joint benefits of open blockchain technology and traditional currency by converting your cash into a stable digital currency equivalent.\",\"tooltipUrl\":\"https://tether.to/\"},\"name\":\"Tether: USDT Stablecoin\",\"ordinal\":10,\"slug\":\"tether-usdt-stablecoin\",\"tagType\":\"name\"},{\"meta\":{},\"name\":\"Tether\",\"ordinal\":0,\"slug\":\"tether\",\"tagType\":\"protocol\"},{\"meta\":{},\"name\":\"Stablecoin\",\"ordinal\":0,\"slug\":\"stablecoin\",\"tagType\":\"generic\"},{\"meta\":{},\"name\":\"Tether\",\"ordinal\":0,\"slug\":\"tether\",\"tagType\":\"generic\"},{\"meta\":{},\"name\":\"Token Contract\",\"ordinal\":0,\"slug\":\"token-contract\",\"tagType\":\"generic\"}]},\"name\":\"Tether\",\"private_tags\":[],\"proxy_type\":\"unknown\",\"public_tags\":[],\"watchlist_names\":[]},\"authorization_list\":[],\"method\":\"transferFrom\",\"fee\":{\"type\":\"actual\",\"value\":\"122400178557930\"},\"actions\":[],\"gas_limit\":\"55942\",\"gas_price\":\"2800534905\",\"decoded_input\":{\"method_call\":\"transferFrom(address _from, address _to, uint256 _value)\",\"method_id\":\"23b872dd\",\"parameters\":[{\"name\":\"_from\",\"type\":\"address\",\"value\":\"0x0AAD9190161Af2e222D65Ae3028f20787f174b7e\"},{\"name\":\"_to\",\"type\":\"address\",\"value\":\"0x89e51fA8CA5D66cd220bAed62ED01e8951aa7c40\"},{\"name\":\"_value\",\"type\":\"uint256\",\"value\":\"572182828\"}]},\"token_transfers\":null,\"base_fee_per_gas\":\"800534905\",\"timestamp\":\"2025-02-19T08:27:35.000000Z\",\"nonce\":2813398,\"transaction_types\":[\"contract_call\",\"token_transfer\"],\"exchange_rate\":\"2713.51\",\"block_number\":21879216,\"has_error_in_internal_transactions\":false},{\"priority_fee\":\"871357011000\",\"tx_burnt_fee\":\"16811233005000\",\"raw_input\":\"0x\",\"result\":\"success\",\"hash\":\"0xb3440fb4fc5239b8143e6a5f2de6402dda81e0b6e8b4068d4b85a63e7f95f570\",\"max_fee_per_gas\":\"842028096\",\"revert_reason\":null,\"confirmation_duration\":[0,12000],\"transaction_burnt_fee\":\"16811233005000\",\"type\":2,\"token_transfers_overflow\":null,\"confirmations\":1,\"position\":139,\"max_priority_fee_per_gas\":\"842028096\",\"transaction_tag\":null,\"created_contract\":null,\"value\":\"30515434257913226\",\"from\":{\"ens_domain_name\":null,\"hash\":\"0xF9cca944B6F63AFb3611981668f1B492f6890cc2\",\"implementations\":[],\"is_contract\":false,\"is_scam\":false,\"is_verified\":false,\"metadata\":null,\"name\":null,\"private_tags\":[],\"proxy_type\":null,\"public_tags\":[],\"watchlist_names\":[]},\"gas_used\":\"21000\",\"status\":\"ok\",\"to\":{\"ens_domain_name\":null,\"hash\":\"0x3b3e0801fF46EbB93aF68d0AADEac4fA23DeEf9f\",\"implementations\":[],\"is_contract\":false,\"is_scam\":false,\"is_verified\":false,\"metadata\":null,\"name\":null,\"private_tags\":[],\"proxy_type\":null,\"public_tags\":[],\"watchlist_names\":[]},\"authorization_list\":[],\"method\":null,\"fee\":{\"type\":\"actual\",\"value\":\"17682590016000\"},\"actions\":[],\"gas_limit\":\"21000\",\"gas_price\":\"842028096\",\"decoded_input\":null,\"token_transfers\":null,\"base_fee_per_gas\":\"800534905\",\"timestamp\":\"2025-02-19T08:27:35.000000Z\",\"nonce\":7,\"transaction_types\":[\"coin_transfer\"],\"exchange_rate\":\"2713.51\",\"block_number\":21879216,\"has_error_in_internal_transactions\":false},{\"priority_fee\":\"367400000000000\",\"tx_burnt_fee\":\"147058262048500\",\"raw_input\":\"0x3593564c000000000000000000000000000000000000000000000000000000000000006000000000000000000000000000000000000000000000000000000000000000a00000000000000000000000000000000000000000000000000000000067b59ce800000000000000000000000000000000000000000000000000000000000000040a08060c00000000000000000000000000000000000000000000000000000000000000000000000000000000000000000000000000000000000000000000000400000000000000000000000000000000000000000000000000000000000000800000000000000000000000000000000000000000000000000000000000000200000000000000000000000000000000000000000000000000000000000000032000000000000000000000000000000000000000000000000000000000000003a000000000000000000000000000000000000000000000000000000000000001600000000000000000000000004e9fcd48af4738e3bf1382009dc1e93ebfce698f000000000000000000000000ffffffffffffffffffffffffffffffffffffffff0000000000000000000000000000000000000000000000000000000067dd22dd000000000000000000000000000000000000000000000000000000000000000000000000000000000000000066a9893cc07d91d95644aedd05d03f95e1dba8af0000000000000000000000000000000000000000000000000000000067b59ce500000000000000000000000000000000000000000000000000000000000000e00000000000000000000000000000000000000000000000000000000000000041fe6c08aa45f453d34cd347a6b0e3af8fb59d66161b0903fad2f8991deeef0b760d19484f65048a8bd15bd0e5b0b735eca286c2f3c86d4d5cfdc8d19e09b85e491b00000000000000000000000000000000000000000000000000000000000000000000000000000000000000000000000000000000000000000000000000010000000000000000000000000000000000000000000000000000000000000000020000000000000000000000000000000000000000000030b453321fc603c00000000000000000000000000000000000000000000000000000000000000000000000000000000000000000000000000000000000000000000000000000000000a0000000000000000000000000000000000000000000000000000000000000000100000000000000000000000000000000000000000000000000000000000000020000000000000000000000004e9fcd48af4738e3bf1382009dc1e93ebfce698f000000000000000000000000c02aaa39b223fe8d0a0e5c4f27ead9083c756cc20000000000000000000000000000000000000000000000000000000000000060000000000000000000000000c02aaa39b223fe8d0a0e5c4f27ead9083c756cc2000000000000000000000000000000fee13a103a10d593b9ae06b3e05f2e7e1c00000000000000000000000000000000000000000000000000000000000000190000000000000000000000000000000000000000000000000000000000000040000000000000000000000000a5b928f3fa1e60d6401a6b249ea70202cd8c8fe300000000000000000000000000000000000000000000000001fd5076d9149e200b\",\"result\":\"success\",\"hash\":\"0xfb012c8c5a633c7fd2713c80efffc0058358144ce92502c9813e748aa0c83f14\",\"max_fee_per_gas\":\"2993476251\",\"revert_reason\":null,\"confirmation_duration\":[0,12000],\"transaction_burnt_fee\":\"147058262048500\",\"type\":2,\"token_transfers_overflow\":null,\"confirmations\":1,\"position\":138,\"max_priority_fee_per_gas\":\"2000000000\",\"transaction_tag\":null,\"created_contract\":null,\"value\":\"0\",\"from\":{\"ens_domain_name\":null,\"hash\":\"0xa5b928F3fA1e60d6401A6b249eA70202cd8C8FE3\",\"implementations\":[],\"is_contract\":false,\"is_scam\":false,\"is_verified\":false,\"metadata\":null,\"name\":null,\"private_tags\":[],\"proxy_type\":null,\"public_tags\":[],\"watchlist_names\":[]},\"gas_used\":\"183700\",\"status\":\"ok\",\"to\":{\"ens_domain_name\":null,\"hash\":\"0x66a9893cC07D91D95644AEDD05D03f95e1dBA8Af\",\"implementations\":[],\"is_contract\":true,\"is_scam\":false,\"is_verified\":true,\"metadata\":null,\"name\":\"UniversalRouter\",\"private_tags\":[],\"proxy_type\":null,\"public_tags\":[],\"watchlist_names\":[]},\"authorization_list\":[],\"method\":\"execute\",\"fee\":{\"type\":\"actual\",\"value\":\"514458262048500\"},\"actions\":[],\"gas_limit\":\"226738\",\"gas_price\":\"2800534905\",\"decoded_input\":{\"method_call\":\"execute(bytes commands, bytes[] inputs, uint256 deadline)\",\"method_id\":\"3593564c\",\"parameters\":[{\"name\":\"commands\",\"type\":\"bytes\",\"value\":\"0x0a08060c\"},{\"name\":\"inputs\",\"type\":\"bytes[]\",\"value\":[\"0x0000000000000000000000004e9fcd48af4738e3bf1382009dc1e93ebfce698f000000000000000000000000ffffffffffffffffffffffffffffffffffffffff0000000000000000000000000000000000000000000000000000000067dd22dd000000000000000000000000000000000000000000000000000000000000000000000000000000000000000066a9893cc07d91d95644aedd05d03f95e1dba8af0000000000000000000000000000000000000000000000000000000067b59ce500000000000000000000000000000000000000000000000000000000000000e00000000000000000000000000000000000000000000000000000000000000041fe6c08aa45f453d34cd347a6b0e3af8fb59d66161b0903fad2f8991deeef0b760d19484f65048a8bd15bd0e5b0b735eca286c2f3c86d4d5cfdc8d19e09b85e491b00000000000000000000000000000000000000000000000000000000000000\",\"0x00000000000000000000000000000000000000000000000000000000000000020000000000000000000000000000000000000000000030b453321fc603c00000000000000000000000000000000000000000000000000000000000000000000000000000000000000000000000000000000000000000000000000000000000a0000000000000000000000000000000000000000000000000000000000000000100000000000000000000000000000000000000000000000000000000000000020000000000000000000000004e9fcd48af4738e3bf1382009dc1e93ebfce698f000000000000000000000000c02aaa39b223fe8d0a0e5c4f27ead9083c756cc2\",\"0x000000000000000000000000c02aaa39b223fe8d0a0e5c4f27ead9083c756cc2000000000000000000000000000000fee13a103a10d593b9ae06b3e05f2e7e1c0000000000000000000000000000000000000000000000000000000000000019\",\"0x000000000000000000000000a5b928f3fa1e60d6401a6b249ea70202cd8c8fe300000000000000000000000000000000000000000000000001fd5076d9149e20\"]},{\"name\":\"deadline\",\"type\":\"uint256\",\"value\":\"1739955432\"}]},\"token_transfers\":null,\"base_fee_per_gas\":\"800534905\",\"timestamp\":\"2025-02-19T08:27:35.000000Z\",\"nonce\":16,\"transaction_types\":[\"contract_call\",\"token_transfer\"],\"exchange_rate\":\"2713.51\",\"block_number\":21879216,\"has_error_in_internal_transactions\":false},{\"priority_fee\":\"8560550000000\",\"tx_burnt_fee\":\"137060381619955\",\"raw_input\":\"0x0741a80300000000000000000000000000000000000000000000000000000000000000a000000000000000000000000000000000000000000000000000000000000000c00000000000000000000000000000000000000000000000000000000000000180000000000000000000000000313e7ef7d52f5c10ac04ebaa4d33cdc68634c21200000000000000000000000000000000000000000000000000000000000001a000000000000000000000000000000000000000000000000000000000000000000000000000000000000000000000000000000000000000000000000000000001000000000000000000000000fb35fd0095dd1096b1ca49ad44d8c5812a20167700000000000000000000000000000000000000000000000000000000000000010000000000000000000000000000000000000000000000000000000000000000000000000000000000000000cd5fe23c85820f7b72d0926fc9b05b43e359b7ee00000000000000000000000000000000000000000000000000018e5aa31da76000000000000000000000000000000000000000000000000000000000000000000000000000000000000000000000000000000000000000000000000000000000\",\"result\":\"success\",\"hash\":\"0xb190450a1393cfdeca180476a881935476085e77becf5989bee02449a2711dc0\",\"max_fee_per_gas\":\"900000000\",\"revert_reason\":null,\"confirmation_duration\":[0,12000],\"transaction_burnt_fee\":\"137060381619955\",\"type\":2,\"token_transfers_overflow\":null,\"confirmations\":1,\"position\":137,\"max_priority_fee_per_gas\":\"50000000\",\"transaction_tag\":null,\"created_contract\":null,\"value\":\"0\",\"from\":{\"ens_domain_name\":null,\"hash\":\"0x318cbC0aA18FDe5D9c19e5fE2144fa2Fa518d9e7\",\"implementations\":[],\"is_contract\":false,\"is_scam\":false,\"is_verified\":false,\"metadata\":null,\"name\":null,\"private_tags\":[],\"proxy_type\":null,\"public_tags\":[],\"watchlist_names\":[]},\"gas_used\":\"171211\",\"status\":\"ok\",\"to\":{\"ens_domain_name\":null,\"hash\":\"0x888888888889758F76e7103c6CbF23ABbF58F946\",\"implementations\":[],\"is_contract\":true,\"is_scam\":false,\"is_verified\":true,\"metadata\":{\"tags\":[{\"meta\":{},\"name\":\"Pendle: RouterV4\",\"ordinal\":10,\"slug\":\"pendle-routerv4\",\"tagType\":\"name\"}]},\"name\":\"PendleRouterV4\",\"private_tags\":[],\"proxy_type\":\"unknown\",\"public_tags\":[],\"watchlist_names\":[]},\"authorization_list\":[],\"method\":\"redeemDueInterestAndRewardsV2\",\"fee\":{\"type\":\"actual\",\"value\":\"145620931619955\"},\"actions\":[],\"gas_limit\":\"329619\",\"gas_price\":\"850534905\",\"decoded_input\":{\"method_call\":\"redeemDueInterestAndRewardsV2(address[] SYs, (address,bool,bool,address,uint256)[] YTs, address[] markets, address pendleSwap, (address,address,uint256,(uint8,address,bytes,bool))[] swaps)\",\"method_id\":\"0741a803\",\"parameters\":[{\"name\":\"SYs\",\"type\":\"address[]\",\"value\":[]},{\"name\":\"YTs\",\"type\":\"(address,bool,bool,address,uint256)[]\",\"value\":[[\"0xfb35Fd0095dD1096b1Ca49AD44d8C5812A201677\",\"true\",\"false\",\"0xCd5fE23C85820F7B72D0926FC9b05b43E359b7ee\",\"437994911541088\"]]},{\"name\":\"markets\",\"type\":\"address[]\",\"value\":[]},{\"name\":\"pendleSwap\",\"type\":\"address\",\"value\":\"0x313e7Ef7d52f5C10aC04ebaa4d33CDc68634c212\"},{\"name\":\"swaps\",\"type\":\"(address,address,uint256,(uint8,address,bytes,bool))[]\",\"value\":[]}]},\"token_transfers\":null,\"base_fee_per_gas\":\"800534905\",\"timestamp\":\"2025-02-19T08:27:35.000000Z\",\"nonce\":75,\"transaction_types\":[\"contract_call\",\"token_transfer\"],\"exchange_rate\":\"2713.51\",\"block_number\":21879216,\"has_error_in_internal_transactions\":false},{\"priority_fee\":\"871357011000\",\"tx_burnt_fee\":\"16811233005000\",\"raw_input\":\"0x\",\"result\":\"success\",\"hash\":\"0xef1d4e492db1efc8d283db936f79b14def5ce586b54225516f4a453fe2ca6d50\",\"max_fee_per_gas\":\"842028096\",\"revert_reason\":null,\"confirmation_duration\":[0,12000],\"transaction_burnt_fee\":\"16811233005000\",\"type\":2,\"token_transfers_overflow\":null,\"confirmations\":1,\"position\":136,\"max_priority_fee_per_gas\":\"842028096\",\"transaction_tag\":null,\"created_contract\":null,\"value\":\"23125496619922445\",\"from\":{\"ens_domain_name\":null,\"hash\":\"0xa27CA9a5D2dbF1172449e03C750aD645E0439e21\",\"implementations\":[],\"is_contract\":false,\"is_scam\":false,\"is_verified\":false,\"metadata\":null,\"name\":null,\"private_tags\":[],\"proxy_type\":null,\"public_tags\":[],\"watchlist_names\":[]},\"gas_used\":\"21000\",\"status\":\"ok\",\"to\":{\"ens_domain_name\":null,\"hash\":\"0x2d74D062C85f77AE2de7dC87a39F4aD72E5Cb44B\",\"implementations\":[],\"is_contract\":false,\"is_scam\":false,\"is_verified\":false,\"metadata\":null,\"name\":null,\"private_tags\":[],\"proxy_type\":null,\"public_tags\":[],\"watchlist_names\":[]},\"authorization_list\":[],\"method\":null,\"fee\":{\"type\":\"actual\",\"value\":\"17682590016000\"},\"actions\":[],\"gas_limit\":\"21000\",\"gas_price\":\"842028096\",\"decoded_input\":null,\"token_transfers\":null,\"base_fee_per_gas\":\"800534905\",\"timestamp\":\"2025-02-19T08:27:35.000000Z\",\"nonce\":7,\"transaction_types\":[\"coin_transfer\"],\"exchange_rate\":\"2713.51\",\"block_number\":21879216,\"has_error_in_internal_transactions\":false},{\"priority_fee\":\"333860757007\",\"tx_burnt_fee\":\"29049010097735\",\"raw_input\":\"0xa9059cbb00000000000000000000000058edf78281334335effa23101bbe3371b6a36a510000000000000000000000000000000000000000000000043a77aabd00780000\",\"result\":\"success\",\"hash\":\"0x79cab8ac7158e4177eb97fc3189e4fe69688b129a70aa8dbc791ea098823da26\",\"max_fee_per_gas\":\"809735466\",\"revert_reason\":null,\"confirmation_duration\":[0,12000],\"transaction_burnt_fee\":\"29049010097735\",\"type\":2,\"token_transfers_overflow\":null,\"confirmations\":1,\"position\":135,\"max_priority_fee_per_gas\":\"10000000\",\"transaction_tag\":null,\"created_contract\":null,\"value\":\"0\",\"from\":{\"ens_domain_name\":null,\"hash\":\"0xF963823027F062880e06a4ea50d0977E655b6691\",\"implementations\":[],\"is_contract\":false,\"is_scam\":false,\"is_verified\":false,\"metadata\":null,\"name\":null,\"private_tags\":[],\"proxy_type\":null,\"public_tags\":[],\"watchlist_names\":[]},\"gas_used\":\"36287\",\"status\":\"ok\",\"to\":{\"ens_domain_name\":null,\"hash\":\"0x362bc847A3a9637d3af6624EeC853618a43ed7D2\",\"implementations\":[],\"is_contract\":true,\"is_scam\":false,\"is_verified\":true,\"metadata\":{\"tags\":[{\"meta\":{},\"name\":\"PARSIQ: PRQ Token\",\"ordinal\":10,\"slug\":\"parsiq-prq-token\",\"tagType\":\"name\"}]},\"name\":\"PARSIQ\",\"private_tags\":[],\"proxy_type\":\"unknown\",\"public_tags\":[],\"watchlist_names\":[]},\"authorization_list\":[],\"method\":\"transfer\",\"fee\":{\"type\":\"actual\",\"value\":\"29382870854742\"},\"actions\":[],\"gas_limit\":\"80000\",\"gas_price\":\"809735466\",\"decoded_input\":{\"method_call\":\"transfer(address recipient, uint256 amount)\",\"method_id\":\"a9059cbb\",\"parameters\":[{\"name\":\"recipient\",\"type\":\"address\",\"value\":\"0x58edF78281334335EfFa23101bBe3371b6a36A51\"},{\"name\":\"amount\",\"type\":\"uint256\",\"value\":\"78000000000000000000\"}]},\"token_transfers\":null,\"base_fee_per_gas\":\"800534905\",\"timestamp\":\"2025-02-19T08:27:35.000000Z\",\"nonce\":0,\"transaction_types\":[\"contract_call\",\"token_transfer\"],\"exchange_rate\":\"2713.51\",\"block_number\":21879216,\"has_error_in_internal_transactions\":false},{\"priority_fee\":\"333971163739\",\"tx_burnt_fee\":\"29058616516595\",\"raw_input\":\"0xa9059cbb00000000000000000000000058edf78281334335effa23101bbe3371b6a36a510000000000000000000000000000000000000000000000056bc75e2d63100000\",\"result\":\"success\",\"hash\":\"0xa5ad3b5c61f121f72159f4ad73fefaa4987f83950d8cf9e0f7c4df7c0b7f55b6\",\"max_fee_per_gas\":\"809735466\",\"revert_reason\":null,\"confirmation_duration\":[0,12000],\"transaction_burnt_fee\":\"29058616516595\",\"type\":2,\"token_transfers_overflow\":null,\"confirmations\":1,\"position\":134,\"max_priority_fee_per_gas\":\"10000000\",\"transaction_tag\":null,\"created_contract\":null,\"value\":\"0\",\"from\":{\"ens_domain_name\":null,\"hash\":\"0x7197e1f243F642314F8c565353748A3c416425b9\",\"implementations\":[],\"is_contract\":false,\"is_scam\":false,\"is_verified\":false,\"metadata\":null,\"name\":null,\"private_tags\":[],\"proxy_type\":null,\"public_tags\":[],\"watchlist_names\":[]},\"gas_used\":\"36299\",\"status\":\"ok\",\"to\":{\"ens_domain_name\":null,\"hash\":\"0x362bc847A3a9637d3af6624EeC853618a43ed7D2\",\"implementations\":[],\"is_contract\":true,\"is_scam\":false,\"is_verified\":true,\"metadata\":{\"tags\":[{\"meta\":{},\"name\":\"PARSIQ: PRQ Token\",\"ordinal\":10,\"slug\":\"parsiq-prq-token\",\"tagType\":\"name\"}]},\"name\":\"PARSIQ\",\"private_tags\":[],\"proxy_type\":\"unknown\",\"public_tags\":[],\"watchlist_names\":[]},\"authorization_list\":[],\"method\":\"transfer\",\"fee\":{\"type\":\"actual\",\"value\":\"29392587680334\"},\"actions\":[],\"gas_limit\":\"80000\",\"gas_price\":\"809735466\",\"decoded_input\":{\"method_call\":\"transfer(address recipient, uint256 amount)\",\"method_id\":\"a9059cbb\",\"parameters\":[{\"name\":\"recipient\",\"type\":\"address\",\"value\":\"0x58edF78281334335EfFa23101bBe3371b6a36A51\"},{\"name\":\"amount\",\"type\":\"uint256\",\"value\":\"100000000000000000000\"}]},\"token_transfers\":null,\"base_fee_per_gas\":\"800534905\",\"timestamp\":\"2025-02-19T08:27:35.000000Z\",\"nonce\":0,\"transaction_types\":[\"contract_call\",\"token_transfer\"],\"exchange_rate\":\"2713.51\",\"block_number\":21879216,\"has_error_in_internal_transactions\":false},{\"priority_fee\":\"334081570471\",\"tx_burnt_fee\":\"29068222935455\",\"raw_input\":\"0xa9059cbb00000000000000000000000058edf78281334335effa23101bbe3371b6a36a51000000000000000000000000000000000000000000000006b5aa2249e8fe1400\",\"result\":\"success\",\"hash\":\"0xac64b74054cfdcd33dc8c7fdcb156852925fe6424d816ee69f7f24252df79768\",\"max_fee_per_gas\":\"809735466\",\"revert_reason\":null,\"confirmation_duration\":[0,12000],\"transaction_burnt_fee\":\"29068222935455\",\"type\":2,\"token_transfers_overflow\":null,\"confirmations\":1,\"position\":133,\"max_priority_fee_per_gas\":\"10000000\",\"transaction_tag\":null,\"created_contract\":null,\"value\":\"0\",\"from\":{\"ens_domain_name\":null,\"hash\":\"0x9c29aee9441D9750A38e394C34648FD34b0023eF\",\"implementations\":[],\"is_contract\":false,\"is_scam\":false,\"is_verified\":false,\"metadata\":null,\"name\":null,\"private_tags\":[],\"proxy_type\":null,\"public_tags\":[],\"watchlist_names\":[]},\"gas_used\":\"36311\",\"status\":\"ok\",\"to\":{\"ens_domain_name\":null,\"hash\":\"0x362bc847A3a9637d3af6624EeC853618a43ed7D2\",\"implementations\":[],\"is_contract\":true,\"is_scam\":false,\"is_verified\":true,\"metadata\":{\"tags\":[{\"meta\":{},\"name\":\"PARSIQ: PRQ Token\",\"ordinal\":10,\"slug\":\"parsiq-prq-token\",\"tagType\":\"name\"}]},\"name\":\"PARSIQ\",\"private_tags\":[],\"proxy_type\":\"unknown\",\"public_tags\":[],\"watchlist_names\":[]},\"authorization_list\":[],\"method\":\"transfer\",\"fee\":{\"type\":\"actual\",\"value\":\"29402304505926\"},\"actions\":[],\"gas_limit\":\"80000\",\"gas_price\":\"809735466\",\"decoded_input\":{\"method_call\":\"transfer(address recipient, uint256 amount)\",\"method_id\":\"a9059cbb\",\"parameters\":[{\"name\":\"recipient\",\"type\":\"address\",\"value\":\"0x58edF78281334335EfFa23101bBe3371b6a36A51\"},{\"name\":\"amount\",\"type\":\"uint256\",\"value\":\"123770777410000000000\"}]},\"token_transfers\":null,\"base_fee_per_gas\":\"800534905\",\"timestamp\":\"2025-02-19T08:27:35.000000Z\",\"nonce\":0,\"transaction_types\":[\"contract_call\",\"token_transfer\"],\"exchange_rate\":\"2713.51\",\"block_number\":21879216,\"has_error_in_internal_transactions\":false},{\"priority_fee\":\"334081570471\",\"tx_burnt_fee\":\"29068222935455\",\"raw_input\":\"0xa9059cbb00000000000000000000000058edf78281334335effa23101bbe3371b6a36a510000000000000000000000000000000000000000000000053affb3392f7c8000\",\"result\":\"success\",\"hash\":\"0x96d3c1acc3eebde6eba5310d4b3e01a568a71cdd3a60e4bc01912962a538e44a\",\"max_fee_per_gas\":\"809735466\",\"revert_reason\":null,\"confirmation_duration\":[0,12000],\"transaction_burnt_fee\":\"29068222935455\",\"type\":2,\"token_transfers_overflow\":null,\"confirmations\":1,\"position\":132,\"max_priority_fee_per_gas\":\"10000000\",\"transaction_tag\":null,\"created_contract\":null,\"value\":\"0\",\"from\":{\"ens_domain_name\":null,\"hash\":\"0xaa41C735Db99fF4EA3463a2b823B3fF070984bFc\",\"implementations\":[],\"is_contract\":false,\"is_scam\":false,\"is_verified\":false,\"metadata\":null,\"name\":null,\"private_tags\":[],\"proxy_type\":null,\"public_tags\":[],\"watchlist_names\":[]},\"gas_used\":\"36311\",\"status\":\"ok\",\"to\":{\"ens_domain_name\":null,\"hash\":\"0x362bc847A3a9637d3af6624EeC853618a43ed7D2\",\"implementations\":[],\"is_contract\":true,\"is_scam\":false,\"is_verified\":true,\"metadata\":{\"tags\":[{\"meta\":{},\"name\":\"PARSIQ: PRQ Token\",\"ordinal\":10,\"slug\":\"parsiq-prq-token\",\"tagType\":\"name\"}]},\"name\":\"PARSIQ\",\"private_tags\":[],\"proxy_type\":\"unknown\",\"public_tags\":[],\"watchlist_names\":[]},\"authorization_list\":[],\"method\":\"transfer\",\"fee\":{\"type\":\"actual\",\"value\":\"29402304505926\"},\"actions\":[],\"gas_limit\":\"80000\",\"gas_price\":\"809735466\",\"decoded_input\":{\"method_call\":\"transfer(address recipient, uint256 amount)\",\"method_id\":\"a9059cbb\",\"parameters\":[{\"name\":\"recipient\",\"type\":\"address\",\"value\":\"0x58edF78281334335EfFa23101bBe3371b6a36A51\"},{\"name\":\"amount\",\"type\":\"uint256\",\"value\":\"96485033999999991808\"}]},\"token_transfers\":null,\"base_fee_per_gas\":\"800534905\",\"timestamp\":\"2025-02-19T08:27:35.000000Z\",\"nonce\":0,\"transaction_types\":[\"contract_call\",\"token_transfer\"],\"exchange_rate\":\"2713.51\",\"block_number\":21879216,\"has_error_in_internal_transactions\":false},{\"priority_fee\":\"334191977203\",\"tx_burnt_fee\":\"29077829354315\",\"raw_input\":\"0xa9059cbb00000000000000000000000058edf78281334335effa23101bbe3371b6a36a51000000000000000000000000000000000000000000000003d61b0cff43ad4ea3\",\"result\":\"success\",\"hash\":\"0xe516a4da21a1beb78a824dc7d5b45bf770df386cefd698928a2ce35fbb217aa6\",\"max_fee_per_gas\":\"809735466\",\"revert_reason\":null,\"confirmation_duration\":[0,12000],\"transaction_burnt_fee\":\"29077829354315\",\"type\":2,\"token_transfers_overflow\":null,\"confirmations\":1,\"position\":131,\"max_priority_fee_per_gas\":\"10000000\",\"transaction_tag\":null,\"created_contract\":null,\"value\":\"0\",\"from\":{\"ens_domain_name\":null,\"hash\":\"0xC2E1228eD0594241c9C888966aaF230DDA5F7317\",\"implementations\":[],\"is_contract\":false,\"is_scam\":false,\"is_verified\":false,\"metadata\":null,\"name\":null,\"private_tags\":[],\"proxy_type\":null,\"public_tags\":[],\"watchlist_names\":[]},\"gas_used\":\"36323\",\"status\":\"ok\",\"to\":{\"ens_domain_name\":null,\"hash\":\"0x362bc847A3a9637d3af6624EeC853618a43ed7D2\",\"implementations\":[],\"is_contract\":true,\"is_scam\":false,\"is_verified\":true,\"metadata\":{\"tags\":[{\"meta\":{},\"name\":\"PARSIQ: PRQ Token\",\"ordinal\":10,\"slug\":\"parsiq-prq-token\",\"tagType\":\"name\"}]},\"name\":\"PARSIQ\",\"private_tags\":[],\"proxy_type\":\"unknown\",\"public_tags\":[],\"watchlist_names\":[]},\"authorization_list\":[],\"method\":\"transfer\",\"fee\":{\"type\":\"actual\",\"value\":\"29412021331518\"},\"actions\":[],\"gas_limit\":\"80000\",\"gas_price\":\"809735466\",\"decoded_input\":{\"method_call\":\"transfer(address recipient, uint256 amount)\",\"method_id\":\"a9059cbb\",\"parameters\":[{\"name\":\"recipient\",\"type\":\"address\",\"value\":\"0x58edF78281334335EfFa23101bBe3371b6a36A51\"},{\"name\":\"amount\",\"type\":\"uint256\",\"value\":\"70768171460108045987\"}]},\"token_transfers\":null,\"base_fee_per_gas\":\"800534905\",\"timestamp\":\"2025-02-19T08:27:35.000000Z\",\"nonce\":0,\"transaction_types\":[\"contract_call\",\"token_transfer\"],\"exchange_rate\":\"2713.51\",\"block_number\":21879216,\"has_error_in_internal_transactions\":false},{\"priority_fee\":\"2120790000000\",\"tx_burnt_fee\":\"16811233005000\",\"raw_input\":\"0x\",\"result\":\"success\",\"hash\":\"0x5a8ea2d3e9dd92ebe6eb78de6299629426023830559517765d8f3110611aecef\",\"max_fee_per_gas\":\"1842028096\",\"revert_reason\":null,\"confirmation_duration\":[0,12000],\"transaction_burnt_fee\":\"16811233005000\",\"type\":2,\"token_transfers_overflow\":null,\"confirmations\":1,\"position\":130,\"max_priority_fee_per_gas\":\"100990000\",\"transaction_tag\":null,\"created_contract\":null,\"value\":\"137770960435000000\",\"from\":{\"ens_domain_name\":null,\"hash\":\"0xa7465f656714d74a4B7b41602B152F6d5041f645\",\"implementations\":[],\"is_contract\":false,\"is_scam\":false,\"is_verified\":false,\"metadata\":null,\"name\":null,\"private_tags\":[],\"proxy_type\":null,\"public_tags\":[],\"watchlist_names\":[]},\"gas_used\":\"21000\",\"status\":\"ok\",\"to\":{\"ens_domain_name\":null,\"hash\":\"0x1AB4973a48dc892Cd9971ECE8e01DcC7688f8F23\",\"implementations\":[],\"is_contract\":false,\"is_scam\":false,\"is_verified\":false,\"metadata\":{\"tags\":[{\"meta\":{\"main_entity\":\"Bitget\",\"tooltipUrl\":\"https://www.bitget.com/\"},\"name\":\"Bitget 6\",\"ordinal\":10,\"slug\":\"bitget-6\",\"tagType\":\"name\"},{\"meta\":{},\"name\":\"Exchange\",\"ordinal\":0,\"slug\":\"exchange\",\"tagType\":\"generic\"},{\"meta\":{},\"name\":\"Bitget\",\"ordinal\":0,\"slug\":\"bitget\",\"tagType\":\"generic\"}]},\"name\":null,\"private_tags\":[],\"proxy_type\":null,\"public_tags\":[],\"watchlist_names\":[]},\"authorization_list\":[],\"method\":null,\"fee\":{\"type\":\"actual\",\"value\":\"18932023005000\"},\"actions\":[],\"gas_limit\":\"100000\",\"gas_price\":\"901524905\",\"decoded_input\":null,\"token_transfers\":null,\"base_fee_per_gas\":\"800534905\",\"timestamp\":\"2025-02-19T08:27:35.000000Z\",\"nonce\":0,\"transaction_types\":[\"coin_transfer\"],\"exchange_rate\":\"2713.51\",\"block_number\":21879216,\"has_error_in_internal_transactions\":false},{\"priority_fee\":null,\"tx_burnt_fee\":null,\"raw_input\":\"0x\",\"result\":\"success\",\"hash\":\"0xa97740efe92ff2bb981f20fd99876fcafcf89734dd3c604cf7b8032cd8d9dbf8\",\"max_fee_per_gas\":null,\"revert_reason\":null,\"confirmation_duration\":[0,12000],\"transaction_burnt_fee\":null,\"type\":0,\"token_transfers_overflow\":null,\"confirmations\":1,\"position\":129,\"max_priority_fee_per_gas\":null,\"transaction_tag\":null,\"created_contract\":null,\"value\":\"6672410000000000\",\"from\":{\"ens_domain_name\":null,\"hash\":\"0x01dDf5A0acD62FfdE08fEBD4F4BE2346646E6E68\",\"implementations\":[],\"is_contract\":false,\"is_scam\":false,\"is_verified\":false,\"metadata\":null,\"name\":null,\"private_tags\":[],\"proxy_type\":null,\"public_tags\":[],\"watchlist_names\":[]},\"gas_used\":\"21000\",\"status\":\"ok\",\"to\":{\"ens_domain_name\":null,\"hash\":\"0xEbA88149813BEc1cCcccFDb0daCEFaaa5DE94cB1\",\"implementations\":[],\"is_contract\":false,\"is_scam\":false,\"is_verified\":false,\"metadata\":{\"tags\":[{\"meta\":{\"main_entity\":\"ChangeNow\"},\"name\":\"ChangeNow (0xeba8)\",\"ordinal\":0,\"slug\":\"changenow-0xeba8\",\"tagType\":\"name\"}]},\"name\":null,\"private_tags\":[],\"proxy_type\":null,\"public_tags\":[],\"watchlist_names\":[]},\"authorization_list\":[],\"method\":null,\"fee\":{\"type\":\"actual\",\"value\":\"21000000000000\"},\"actions\":[],\"gas_limit\":\"22000\",\"gas_price\":\"1000000000\",\"decoded_input\":null,\"token_transfers\":null,\"base_fee_per_gas\":\"800534905\",\"timestamp\":\"2025-02-19T08:27:35.000000Z\",\"nonce\":0,\"transaction_types\":[\"coin_transfer\"],\"exchange_rate\":\"2713.51\",\"block_number\":21879216,\"has_error_in_internal_transactions\":false},{\"priority_fee\":\"6237245910000\",\"tx_burnt_fee\":\"33069296390645\",\"raw_input\":\"0xa9059cbb0000000000000000000000001ab4973a48dc892cd9971ece8e01dcc7688f8f23000000000000000000000000000000000000000000000000000000000b457acf\",\"result\":\"success\",\"hash\":\"0x21020c3dacd21e803b92f9770289125f2e69870180ce6f3de55418d777226a2b\",\"max_fee_per_gas\":\"1842028096\",\"revert_reason\":null,\"confirmation_duration\":[0,12000],\"transaction_burnt_fee\":\"33069296390645\",\"type\":2,\"token_transfers_overflow\":null,\"confirmations\":1,\"position\":128,\"max_priority_fee_per_gas\":\"150990000\",\"transaction_tag\":null,\"created_contract\":null,\"value\":\"0\",\"from\":{\"ens_domain_name\":null,\"hash\":\"0xD052fbB173400E11Fa02A0aAf1D4366b6a7b2D09\",\"implementations\":[],\"is_contract\":false,\"is_scam\":false,\"is_verified\":false,\"metadata\":null,\"name\":null,\"private_tags\":[],\"proxy_type\":null,\"public_tags\":[],\"watchlist_names\":[]},\"gas_used\":\"41309\",\"status\":\"ok\",\"to\":{\"ens_domain_name\":null,\"hash\":\"0xdAC17F958D2ee523a2206206994597C13D831ec7\",\"implementations\":[],\"is_contract\":true,\"is_scam\":false,\"is_verified\":true,\"metadata\":{\"tags\":[{\"meta\":{\"tooltipDescription\":\"Tether gives you the joint benefits of open blockchain technology and traditional currency by converting your cash into a stable digital currency equivalent.\",\"tooltipUrl\":\"https://tether.to/\"},\"name\":\"Tether: USDT Stablecoin\",\"ordinal\":10,\"slug\":\"tether-usdt-stablecoin\",\"tagType\":\"name\"},{\"meta\":{},\"name\":\"Tether\",\"ordinal\":0,\"slug\":\"tether\",\"tagType\":\"protocol\"},{\"meta\":{},\"name\":\"Stablecoin\",\"ordinal\":0,\"slug\":\"stablecoin\",\"tagType\":\"generic\"},{\"meta\":{},\"name\":\"Tether\",\"ordinal\":0,\"slug\":\"tether\",\"tagType\":\"generic\"},{\"meta\":{},\"name\":\"Token Contract\",\"ordinal\":0,\"slug\":\"token-contract\",\"tagType\":\"generic\"}]},\"name\":\"Tether\",\"private_tags\":[],\"proxy_type\":\"unknown\",\"public_tags\":[],\"watchlist_names\":[]},\"authorization_list\":[],\"method\":\"transfer\",\"fee\":{\"type\":\"actual\",\"value\":\"39306542300645\"},\"actions\":[],\"gas_limit\":\"100000\",\"gas_price\":\"951524905\",\"decoded_input\":{\"method_call\":\"transfer(address _to, uint256 _value)\",\"method_id\":\"a9059cbb\",\"parameters\":[{\"name\":\"_to\",\"type\":\"address\",\"value\":\"0x1AB4973a48dc892Cd9971ECE8e01DcC7688f8F23\"},{\"name\":\"_value\",\"type\":\"uint256\",\"value\":\"189102799\"}]},\"token_transfers\":null,\"base_fee_per_gas\":\"800534905\",\"timestamp\":\"2025-02-19T08:27:35.000000Z\",\"nonce\":1,\"transaction_types\":[\"contract_call\",\"token_transfer\"],\"exchange_rate\":\"2713.51\",\"block_number\":21879216,\"has_error_in_internal_transactions\":false},{\"priority_fee\":\"6863367761915\",\"tx_burnt_fee\":\"36911863934645\",\"raw_input\":\"0xa9059cbb0000000000000000000000005491ff717db95b6b2076a8988bb97cc3bed061fb0000000000000000000000000000000000000000000000000000000034212a21\",\"result\":\"success\",\"hash\":\"0x5a7822cec9f9d22495f06ca21a53059d3e26ab107d7f40f825f92456eafa4ad5\",\"max_fee_per_gas\":\"949385840\",\"revert_reason\":null,\"confirmation_duration\":[0,12000],\"transaction_burnt_fee\":\"36911863934645\",\"type\":2,\"token_transfers_overflow\":null,\"confirmations\":1,\"position\":127,\"max_priority_fee_per_gas\":\"949385840\",\"transaction_tag\":null,\"created_contract\":null,\"value\":\"0\",\"from\":{\"ens_domain_name\":null,\"hash\":\"0x2b3FeD49557bd88f78b898684F82FBb355305DbB\",\"implementations\":[],\"is_contract\":false,\"is_scam\":false,\"is_verified\":false,\"metadata\":null,\"name\":null,\"private_tags\":[],\"proxy_type\":null,\"public_tags\":[],\"watchlist_names\":[]},\"gas_used\":\"46109\",\"status\":\"ok\",\"to\":{\"ens_domain_name\":null,\"hash\":\"0xdAC17F958D2ee523a2206206994597C13D831ec7\",\"implementations\":[],\"is_contract\":true,\"is_scam\":false,\"is_verified\":true,\"metadata\":{\"tags\":[{\"meta\":{\"tooltipDescription\":\"Tether gives you the joint benefits of open blockchain technology and traditional currency by converting your cash into a stable digital currency equivalent.\",\"tooltipUrl\":\"https://tether.to/\"},\"name\":\"Tether: USDT Stablecoin\",\"ordinal\":10,\"slug\":\"tether-usdt-stablecoin\",\"tagType\":\"name\"},{\"meta\":{},\"name\":\"Tether\",\"ordinal\":0,\"slug\":\"tether\",\"tagType\":\"protocol\"},{\"meta\":{},\"name\":\"Stablecoin\",\"ordinal\":0,\"slug\":\"stablecoin\",\"tagType\":\"generic\"},{\"meta\":{},\"name\":\"Tether\",\"ordinal\":0,\"slug\":\"tether\",\"tagType\":\"generic\"},{\"meta\":{},\"name\":\"Token Contract\",\"ordinal\":0,\"slug\":\"token-contract\",\"tagType\":\"generic\"}]},\"name\":\"Tether\",\"private_tags\":[],\"proxy_type\":\"unknown\",\"public_tags\":[],\"watchlist_names\":[]},\"authorization_list\":[],\"method\":\"transfer\",\"fee\":{\"type\":\"actual\",\"value\":\"43775231696560\"},\"actions\":[],\"gas_limit\":\"74386\",\"gas_price\":\"949385840\",\"decoded_input\":{\"method_call\":\"transfer(address _to, uint256 _value)\",\"method_id\":\"a9059cbb\",\"parameters\":[{\"name\":\"_to\",\"type\":\"address\",\"value\":\"0x5491FF717DB95B6B2076A8988bb97cc3BED061fB\"},{\"name\":\"_value\",\"type\":\"uint256\",\"value\":\"874588705\"}]},\"token_transfers\":null,\"base_fee_per_gas\":\"800534905\",\"timestamp\":\"2025-02-19T08:27:35.000000Z\",\"nonce\":736990,\"transaction_types\":[\"contract_call\",\"token_transfer\"],\"exchange_rate\":\"2713.51\",\"block_number\":21879216,\"has_error_in_internal_transactions\":false},{\"priority_fee\":\"10500000000000\",\"tx_burnt_fee\":\"16811233005000\",\"raw_input\":\"0x\",\"result\":\"success\",\"hash\":\"0x44ae905fbae634dc204df05e64aa1c0d994dadb225f02c9df8a6c2c6467ad28a\",\"max_fee_per_gas\":\"1523987519\",\"revert_reason\":null,\"confirmation_duration\":[0,12000],\"transaction_burnt_fee\":\"16811233005000\",\"type\":2,\"token_transfers_overflow\":null,\"confirmations\":1,\"position\":126,\"max_priority_fee_per_gas\":\"500000000\",\"transaction_tag\":null,\"created_contract\":null,\"value\":\"2504869703000000\",\"from\":{\"ens_domain_name\":null,\"hash\":\"0x8212807875db7948398da905115A8873f98c7789\",\"implementations\":[],\"is_contract\":false,\"is_scam\":false,\"is_verified\":false,\"metadata\":null,\"name\":null,\"private_tags\":[],\"proxy_type\":null,\"public_tags\":[],\"watchlist_names\":[]},\"gas_used\":\"21000\",\"status\":\"ok\",\"to\":{\"ens_domain_name\":null,\"hash\":\"0x8Ea18dA1d4e184Fc52010a8115aC4788C5BdDf63\",\"implementations\":[],\"is_contract\":false,\"is_scam\":false,\"is_verified\":false,\"metadata\":null,\"name\":null,\"private_tags\":[],\"proxy_type\":null,\"public_tags\":[],\"watchlist_names\":[]},\"authorization_list\":[],\"method\":null,\"fee\":{\"type\":\"actual\",\"value\":\"27311233005000\"},\"actions\":[],\"gas_limit\":\"21000\",\"gas_price\":\"1300534905\",\"decoded_input\":null,\"token_transfers\":null,\"base_fee_per_gas\":\"800534905\",\"timestamp\":\"2025-02-19T08:27:35.000000Z\",\"nonce\":110,\"transaction_types\":[\"coin_transfer\"],\"exchange_rate\":\"2713.51\",\"block_number\":21879216,\"has_error_in_internal_transactions\":false},{\"priority_fee\":\"92218000000000\",\"tx_burnt_fee\":\"36911863934645\",\"raw_input\":\"0xa9059cbb0000000000000000000000005e55e898b2b62be66c9d93ac983c263a9c0e363d0000000000000000000000000000000000000000000000000000000005f64818\",\"result\":\"success\",\"hash\":\"0x9deb71f3a377922e8d1043411d98a4788f7d9cd35324c4db64b5a15261a6212b\",\"max_fee_per_gas\":\"6875000000\",\"revert_reason\":null,\"confirmation_duration\":[0,12000],\"transaction_burnt_fee\":\"36911863934645\",\"type\":2,\"token_transfers_overflow\":null,\"confirmations\":1,\"position\":125,\"max_priority_fee_per_gas\":\"2000000000\",\"transaction_tag\":null,\"created_contract\":null,\"value\":\"0\",\"from\":{\"ens_domain_name\":null,\"hash\":\"0x8e53018ec93724AcBAaC642B5Ca98C662aBe09fC\",\"implementations\":[],\"is_contract\":false,\"is_scam\":false,\"is_verified\":false,\"metadata\":null,\"name\":null,\"private_tags\":[],\"proxy_type\":null,\"public_tags\":[],\"watchlist_names\":[]},\"gas_used\":\"46109\",\"status\":\"ok\",\"to\":{\"ens_domain_name\":null,\"hash\":\"0xdAC17F958D2ee523a2206206994597C13D831ec7\",\"implementations\":[],\"is_contract\":true,\"is_scam\":false,\"is_verified\":true,\"metadata\":{\"tags\":[{\"meta\":{\"tooltipDescription\":\"Tether gives you the joint benefits of open blockchain technology and traditional currency by converting your cash into a stable digital currency equivalent.\",\"tooltipUrl\":\"https://tether.to/\"},\"name\":\"Tether: USDT Stablecoin\",\"ordinal\":10,\"slug\":\"tether-usdt-stablecoin\",\"tagType\":\"name\"},{\"meta\":{},\"name\":\"Tether\",\"ordinal\":0,\"slug\":\"tether\",\"tagType\":\"protocol\"},{\"meta\":{},\"name\":\"Stablecoin\",\"ordinal\":0,\"slug\":\"stablecoin\",\"tagType\":\"generic\"},{\"meta\":{},\"name\":\"Tether\",\"ordinal\":0,\"slug\":\"tether\",\"tagType\":\"generic\"},{\"meta\":{},\"name\":\"Token Contract\",\"ordinal\":0,\"slug\":\"token-contract\",\"tagType\":\"generic\"}]},\"name\":\"Tether\",\"private_tags\":[],\"proxy_type\":\"unknown\",\"public_tags\":[],\"watchlist_names\":[]},\"authorization_list\":[],\"method\":\"transfer\",\"fee\":{\"type\":\"actual\",\"value\":\"129129863934645\"},\"actions\":[],\"gas_limit\":\"80000\",\"gas_price\":\"2800534905\",\"decoded_input\":{\"method_call\":\"transfer(address _to, uint256 _value)\",\"method_id\":\"a9059cbb\",\"parameters\":[{\"name\":\"_to\",\"type\":\"address\",\"value\":\"0x5e55e898b2B62bE66c9d93aC983c263a9c0e363D\"},{\"name\":\"_value\",\"type\":\"uint256\",\"value\":\"100026392\"}]},\"token_transfers\":null,\"base_fee_per_gas\":\"800534905\",\"timestamp\":\"2025-02-19T08:27:35.000000Z\",\"nonce\":238,\"transaction_types\":[\"contract_call\",\"token_transfer\"],\"exchange_rate\":\"2713.51\",\"block_number\":21879216,\"has_error_in_internal_transactions\":false},{\"priority_fee\":\"301916012000000\",\"tx_burnt_fee\":\"195229649421970\",\"raw_input\":\"0x07ed23790000000000000000000000004838b106fce9647bdf1e7877bf73ce8b0bad5f97000000000000000000000000000000000000000000000000000000000000000000000000000000000000000000000000000000000000000000000000000000e0000000000000000000000000000000000000000000000000000000000000014000000000000000000000000000000000000000000000000000000000000001a0000000000000000000000000000000000000000000000000000000000000020000000000000000000000000000000000000000000000000000000000000004c00000000000000000000000000000000000000000000000000000000000000002000000000000000000000000c02aaa39b223fe8d0a0e5c4f27ead9083c756cc2000000000000000000000000c24d52e3d3a36e9481af0715180e530cbe4667ca0000000000000000000000000000000000000000000000000000000000000002000000000000000000000000ffffffffffffffffffffffffffffffffffffffff000000000000000000000000158cdfd6f03d115c95887f9aba21b3d6867163150000000000000000000000000000000000000000000000000000000000000002000000000000000000000000000000000000000000000000000000000000001d0000000000000000000000000000000000000000000000000000000000000002000000000000000000000000000000000000000000000000000000000000000100000000000000000000000000000000000000000000000000000000000000200000000000000000000000000000000000000000000000000000000000000260000000000000000000000000000000000000000000000000000000000000002000000000000000000000000000000000000000002f82cb3843c36aa51b23f7870000000000000000000000008dbeb652804997df1d4ea5cc75e987f887e5d9c40000000000000000000000000000000000000000000000000000000000000000000000000000000000000000c24d52e3d3a36e9481af0715180e530cbe4667ca000000000000000000000000c02aaa39b223fe8d0a0e5c4f27ead9083c756cc2000000000000000000000000000000000000000000000000000222cb8ff0ed7400000000000000000000000000000000000000000000000038b0d5db5378800040000000000000000000000000000000000067b698e70000000000000000000000000000000000000000000000000000000000000000000000000000000001a0000000000000000000000000000000000000000000000000000222cb8ff0ed7400000000000000000000000000000000000000000000000038af62540214780009ebcaf301651cfc5fdb69206a57a0434f1724a9c7a91c040e43eae53b6d18430000000000000000000000000000000000000000000000000000000000000220000000000000000000000000000000000000000000000000000000000000004182592763f7b080898963ffa93542a0a7e2654c9f01489d4b2a8abca599460c90765706d0cc7e558e8902bd263bda4010f307b59d854f2612c3d2d755fa06d0e61b000000000000000000000000000000000000000000000000000000000000000000000000000000000000000000000000000000000000000000000000000000000000000000000000000000000000000000000000000000000000000000000100000000000000000000000000000000000000000000000000000000000000200000000000000000000000000000000000000000000000000000000000000260000000000000000000000000000000000000000000000000000000000000002000000000000000000000000000000000000000002f82cb3843c36aa51b23f7870000000000000000000000008dbeb652804997df1d4ea5cc75e987f887e5d9c40000000000000000000000000000000000000000000000000000000000000000000000000000000000000000c24d52e3d3a36e9481af0715180e530cbe4667ca000000000000000000000000c02aaa39b223fe8d0a0e5c4f27ead9083c756cc2000000000000000000000000000000000000000000000000000222cb8ff0ed7400000000000000000000000000000000000000000000000038b0d5db5378800040000000000000000000000000000000000067b698e70000000000000000000000000000000000000000000000000000000000000000000000000000000001a0000000000000000000000000000000000000000000000000000222cb8ff0ed7400000000000000000000000000000000000000000000000038af62540214780009ebcaf301651cfc5fdb69206a57a0434f1724a9c7a91c040e43eae53b6d18430000000000000000000000000000000000000000000000000000000000000220000000000000000000000000000000000000000000000000000000000000004182592763f7b080898963ffa93542a0a7e2654c9f01489d4b2a8abca599460c90765706d0cc7e558e8902bd263bda4010f307b59d854f2612c3d2d755fa06d0e61b000000000000000000000000000000000000000000000000000000000000000000000000000000000000000000000000000000000000000000000000000000\",\"result\":\"success\",\"hash\":\"0xf57c19fef3247c28019ba9ca9fff1530882a57e281c080767427a712e120bce2\",\"max_fee_per_gas\":\"2038534905\",\"revert_reason\":null,\"confirmation_duration\":[0,12000],\"transaction_burnt_fee\":\"195229649421970\",\"type\":2,\"token_transfers_overflow\":null,\"confirmations\":1,\"position\":124,\"max_priority_fee_per_gas\":\"2038534905\",\"transaction_tag\":null,\"created_contract\":null,\"value\":\"411\",\"from\":{\"ens_domain_name\":null,\"hash\":\"0x7ac8d212922c1Ca49a7B7a78b1E652C511fbbDc7\",\"implementations\":[],\"is_contract\":false,\"is_scam\":false,\"is_verified\":false,\"metadata\":null,\"name\":null,\"private_tags\":[],\"proxy_type\":null,\"public_tags\":[],\"watchlist_names\":[]},\"gas_used\":\"243874\",\"status\":\"ok\",\"to\":{\"ens_domain_name\":null,\"hash\":\"0x0d0cC2E166FDC8E7fF33B841A8e27aE85d59f1c9\",\"implementations\":[],\"is_contract\":true,\"is_scam\":false,\"is_verified\":false,\"metadata\":null,\"name\":null,\"private_tags\":[],\"proxy_type\":\"unknown\",\"public_tags\":[],\"watchlist_names\":[]},\"authorization_list\":[],\"method\":\"0x07ed2379\",\"fee\":{\"type\":\"actual\",\"value\":\"497145661421970\"},\"actions\":[],\"gas_limit\":\"1200000\",\"gas_price\":\"2038534905\",\"decoded_input\":null,\"token_transfers\":null,\"base_fee_per_gas\":\"800534905\",\"timestamp\":\"2025-02-19T08:27:35.000000Z\",\"nonce\":1629,\"transaction_types\":[\"coin_transfer\",\"contract_call\",\"token_transfer\"],\"exchange_rate\":\"2713.51\",\"block_number\":21879216,\"has_error_in_internal_transactions\":false},{\"priority_fee\":\"35313300000\",\"tx_burnt_fee\":\"28555080061350\",\"raw_input\":\"0x095ea7b3000000000000000000000000c67a8c5f22b40274ca7c4a56db89569ee2ad3fab0000000000000000000000000000000000000000000000000000000003126b73\",\"result\":\"success\",\"hash\":\"0x987652950223244a63ebcf26d35e06253d4f1a765b1f6fc4a3c44aaae6e29e17\",\"max_fee_per_gas\":\"883981189\",\"revert_reason\":null,\"confirmation_duration\":[0,12000],\"transaction_burnt_fee\":\"28555080061350\",\"type\":2,\"token_transfers_overflow\":null,\"confirmations\":1,\"position\":123,\"max_priority_fee_per_gas\":\"990000\",\"transaction_tag\":null,\"created_contract\":null,\"value\":\"0\",\"from\":{\"ens_domain_name\":\"nickthegrizzly.eth\",\"hash\":\"0xe5C7B4166d5cFaa9cAE93048cf683F870Ad4faEb\",\"implementations\":[],\"is_contract\":false,\"is_scam\":false,\"is_verified\":false,\"metadata\":{\"tags\":[{\"meta\":{\"bgColor\":\"#8465CB\",\"tagIcon\":\"data:image/svg+xml;utf8,%3Csvg%20xmlns%3D%22http%3A%2F%2Fwww.w3.org%2F2000%2Fsvg%22%20xmlns%3Axlink%3D%22http%3A%2F%2Fwww.w3.org%2F1999%2Fxlink%22%20viewBox%3D%220%200%2032%2029%22%3E%3Cpath%20d%3D%22M%205.507%200.072%20L%2026.097%200.072%20L%2026.097%204.167%20L%2031.952%204.167%20L%2030.725%208.263%20L%2029.686%208.263%20L%2029.686%2024.833%20C%2030.207%2024.833%2030.63%2025.249%2030.63%2025.763%20L%2030.63%2026.88%20L%2030.819%2026.88%20C%2031.341%2026.88%2031.764%2027.297%2031.764%2027.811%20L%2031.764%2028.928%20L%2021.185%2028.928%20L%2021.185%2027.811%20C%2021.185%2027.297%2021.608%2026.88%2022.13%2026.88%20L%2022.319%2026.88%20L%2022.319%2025.763%20C%2022.319%2025.316%2022.639%2024.943%2023.065%2024.853%20L%2023.045%2015.71%20C%2022.711%2012.057%2019.596%209.194%2015.802%209.194%20C%2012.008%209.194%208.893%2012.057%208.559%2015.71%20L%208.539%2024.845%20C%209.043%2024.919%209.663%2025.302%209.663%2025.763%20L%209.663%2026.88%20L%209.852%2026.88%20C%2010.373%2026.88%2010.796%2027.297%2010.796%2027.811%20L%2010.796%2028.928%20L%200.218%2028.928%20L%200.218%2027.811%20C%200.218%2027.297%200.641%2026.88%201.162%2026.88%20L%201.351%2026.88%20L%201.351%2025.763%20C%201.351%2025.249%201.774%2024.833%202.296%2024.833%20L%202.296%208.263%20L%201.257%208.263%20L%200.029%204.167%20L%205.507%204.167%20L%205.507%200.072%20Z%22%20fill%3D%22rgb(255%2C%20255%2C%20255)%22%3E%3C%2Fpath%3E%3Cpath%20d%3D%22M%2026.097%200.072%20L%2026.166%200.072%20L%2026.166%200.004%20L%2026.097%200.004%20Z%20M%205.507%200.072%20L%205.507%200.004%20L%205.438%200.004%20L%205.438%200.072%20Z%20M%2026.097%204.167%20L%2026.028%204.167%20L%2026.028%204.235%20L%2026.097%204.235%20Z%20M%2031.952%204.167%20L%2032.019%204.187%20L%2032.045%204.099%20L%2031.952%204.099%20L%2031.952%204.167%20Z%20M%2030.725%208.263%20L%2030.725%208.331%20L%2030.776%208.331%20L%2030.791%208.282%20Z%20M%2029.686%208.263%20L%2029.686%208.195%20L%2029.617%208.195%20L%2029.617%208.263%20Z%20M%2029.686%2024.833%20L%2029.617%2024.833%20L%2029.617%2024.901%20L%2029.686%2024.901%20Z%20M%2030.63%2026.88%20L%2030.561%2026.88%20L%2030.561%2026.948%20L%2030.63%2026.948%20Z%20M%2031.764%2028.928%20L%2031.764%2028.996%20L%2031.832%2028.996%20L%2031.832%2028.928%20Z%20M%2021.185%2028.928%20L%2021.116%2028.928%20L%2021.116%2028.996%20L%2021.185%2028.996%20Z%20M%2022.319%2026.88%20L%2022.319%2026.948%20L%2022.388%2026.948%20L%2022.388%2026.88%20Z%20M%2023.065%2024.853%20L%2023.08%2024.919%20L%2023.134%2024.908%20L%2023.134%2024.853%20Z%20M%2023.045%2015.71%20L%2023.114%2015.71%20L%2023.114%2015.707%20L%2023.113%2015.704%20Z%20M%208.559%2015.71%20L%208.49%2015.704%20L%208.49%2015.707%20L%208.49%2015.71%20Z%20M%208.539%2024.845%20L%208.47%2024.845%20L%208.469%2024.904%20L%208.528%2024.913%20Z%20M%209.663%2026.88%20L%209.594%2026.88%20L%209.594%2026.948%20L%209.663%2026.948%20Z%20M%2010.796%2028.928%20L%2010.796%2028.996%20L%2010.865%2028.996%20L%2010.865%2028.928%20Z%20M%200.218%2028.928%20L%200.149%2028.928%20L%200.149%2028.996%20L%200.218%2028.996%20Z%20M%201.351%2026.88%20L%201.351%2026.948%20L%201.42%2026.948%20L%201.42%2026.88%20Z%20M%202.296%2024.833%20L%202.296%2024.901%20L%202.365%2024.901%20L%202.365%2024.833%20Z%20M%202.296%208.263%20L%202.365%208.263%20L%202.365%208.195%20L%202.296%208.195%20Z%20M%201.257%208.263%20L%201.191%208.282%20L%201.205%208.331%20L%201.257%208.331%20Z%20M%200.029%204.167%20L%200.029%204.1%20L%20-0.063%204.1%20L%20-0.037%204.187%20L%200.029%204.167%20Z%20M%205.507%204.167%20L%205.507%204.235%20L%205.576%204.235%20L%205.576%204.167%20Z%20M%2026.097%200.004%20L%205.507%200.004%20L%205.507%200.139%20L%2026.097%200.139%20Z%20M%2026.166%204.167%20L%2026.166%200.072%20L%2026.028%200.072%20L%2026.028%204.167%20L%2026.166%204.167%20Z%20M%2031.952%204.099%20L%2026.097%204.099%20L%2026.097%204.235%20L%2031.952%204.235%20Z%20M%2030.791%208.282%20L%2032.019%204.187%20L%2031.886%204.148%20L%2030.658%208.244%20Z%20M%2029.686%208.331%20L%2030.725%208.331%20L%2030.725%208.195%20L%2029.686%208.195%20Z%20M%2029.755%2024.833%20L%2029.755%208.263%20L%2029.617%208.263%20L%2029.617%2024.833%20Z%20M%2030.699%2025.763%20C%2030.699%2025.212%2030.245%2024.765%2029.686%2024.765%20L%2029.686%2024.9%20C%2030.169%2024.9%2030.561%2025.287%2030.561%2025.763%20Z%20M%2030.699%2026.88%20L%2030.699%2025.763%20L%2030.561%2025.763%20L%2030.561%2026.88%20Z%20M%2030.819%2026.813%20L%2030.63%2026.813%20L%2030.63%2026.948%20L%2030.819%2026.948%20Z%20M%2031.832%2027.811%20C%2031.832%2027.26%2031.379%2026.813%2030.819%2026.813%20L%2030.819%2026.948%20C%2031.303%2026.948%2031.695%2027.335%2031.695%2027.811%20Z%20M%2031.832%2028.928%20L%2031.832%2027.811%20L%2031.695%2027.811%20L%2031.695%2028.928%20Z%20M%2026.097%2028.996%20L%2031.764%2028.996%20L%2031.764%2028.86%20L%2026.097%2028.86%20Z%20M%2023.074%2028.996%20L%2026.097%2028.996%20L%2026.097%2028.86%20L%2023.074%2028.86%20Z%20M%2021.185%2028.996%20L%2023.074%2028.996%20L%2023.074%2028.86%20L%2021.185%2028.86%20Z%20M%2021.116%2027.811%20L%2021.116%2028.928%20L%2021.254%2028.928%20L%2021.254%2027.811%20Z%20M%2022.13%2026.813%20C%2021.57%2026.813%2021.116%2027.26%2021.116%2027.811%20L%2021.254%2027.811%20C%2021.254%2027.335%2021.646%2026.948%2022.13%2026.948%20Z%20M%2022.319%2026.813%20L%2022.13%2026.813%20L%2022.13%2026.948%20L%2022.319%2026.948%20Z%20M%2022.25%2025.763%20L%2022.25%2026.88%20L%2022.388%2026.88%20L%2022.388%2025.763%20Z%20M%2023.051%2024.787%20C%2022.593%2024.883%2022.25%2025.284%2022.25%2025.763%20L%2022.388%2025.763%20C%2022.388%2025.349%2022.684%2025.003%2023.08%2024.919%20Z%20M%2022.976%2015.71%20L%2022.996%2024.853%20L%2023.134%2024.853%20L%2023.114%2015.71%20Z%20M%2015.802%209.262%20C%2019.559%209.262%2022.645%2012.098%2022.976%2015.716%20L%2023.113%2015.704%20C%2022.776%2012.016%2019.632%209.126%2015.802%209.126%20Z%20M%208.628%2015.716%20C%208.959%2012.098%2012.044%209.262%2015.802%209.262%20L%2015.802%209.126%20C%2011.972%209.126%208.828%2012.016%208.49%2015.704%20Z%20M%208.608%2024.845%20L%208.628%2015.71%20L%208.49%2015.71%20L%208.47%2024.845%20Z%20M%209.732%2025.763%20C%209.732%2025.502%209.557%2025.273%209.331%2025.105%20C%209.104%2024.935%208.812%2024.817%208.549%2024.778%20L%208.528%2024.912%20C%208.769%2024.948%209.039%2025.057%209.248%2025.213%20C%209.459%2025.37%209.594%2025.563%209.594%2025.763%20Z%20M%209.732%2026.88%20L%209.732%2025.763%20L%209.594%2025.763%20L%209.594%2026.88%20Z%20M%209.852%2026.813%20L%209.663%2026.813%20L%209.663%2026.948%20L%209.852%2026.948%20Z%20M%2010.865%2027.811%20C%2010.865%2027.26%2010.411%2026.813%209.852%2026.813%20L%209.852%2026.948%20C%2010.335%2026.948%2010.727%2027.335%2010.727%2027.811%20Z%20M%2010.865%2028.928%20L%2010.865%2027.811%20L%2010.727%2027.811%20L%2010.727%2028.928%20Z%20M%208.529%2028.996%20L%2010.796%2028.996%20L%2010.796%2028.86%20L%208.529%2028.86%20Z%20M%208.372%2028.996%20L%208.529%2028.996%20L%208.529%2028.86%20L%208.372%2028.86%20Z%20M%205.507%2028.996%20L%208.372%2028.996%20L%208.372%2028.86%20L%205.507%2028.86%20Z%20M%200.218%2028.996%20L%205.507%2028.996%20L%205.507%2028.86%20L%200.218%2028.86%20Z%20M%200.149%2027.811%20L%200.149%2028.928%20L%200.287%2028.928%20L%200.287%2027.811%20Z%20M%201.162%2026.813%20C%200.603%2026.813%200.149%2027.26%200.149%2027.811%20L%200.287%2027.811%20C%200.287%2027.335%200.679%2026.948%201.162%2026.948%20Z%20M%201.351%2026.813%20L%201.162%2026.813%20L%201.162%2026.948%20L%201.351%2026.948%20Z%20M%201.282%2025.763%20L%201.282%2026.88%20L%201.42%2026.88%20L%201.42%2025.763%20Z%20M%202.296%2024.765%20C%201.736%2024.765%201.282%2025.212%201.282%2025.763%20L%201.42%2025.763%20C%201.42%2025.287%201.812%2024.9%202.296%2024.9%20Z%20M%202.227%208.263%20L%202.227%2024.833%20L%202.365%2024.833%20L%202.365%208.263%20Z%20M%201.257%208.331%20L%202.296%208.331%20L%202.296%208.195%20L%201.257%208.195%20Z%20M%20-0.037%204.187%20L%201.191%208.282%20L%201.323%208.244%20L%200.095%204.148%20Z%20M%205.507%204.099%20L%200.029%204.099%20L%200.029%204.235%20L%205.507%204.235%20L%205.507%204.099%20Z%20M%205.438%200.072%20L%205.438%204.167%20L%205.576%204.167%20L%205.576%200.072%20Z%22%20fill%3D%22rgb(255%2C255%2C255)%22%3E%3C%2Fpath%3E%3C%2Fsvg%3E\",\"tagUrl\":\"https://warpcast.com/nickthegrizzly\",\"textColor\":\"#FFFFFF\",\"tooltipDescription\":\"This address is linked to a Farcaster account\",\"warpcastHandle\":\"nickthegrizzly\"},\"name\":\"Farcaster\",\"ordinal\":5,\"slug\":\"warpcast-account\",\"tagType\":\"classifier\"}]},\"name\":null,\"private_tags\":[],\"proxy_type\":null,\"public_tags\":[],\"watchlist_names\":[]},\"gas_used\":\"35670\",\"status\":\"ok\",\"to\":{\"ens_domain_name\":null,\"hash\":\"0xA0b86991c6218b36c1d19D4a2e9Eb0cE3606eB48\",\"implementations\":[{\"address\":\"0x43506849D7C04F9138D1A2050bbF3A0c054402dd\",\"name\":\"FiatTokenV2_2\"}],\"is_contract\":true,\"is_scam\":false,\"is_verified\":true,\"metadata\":{\"tags\":[{\"meta\":{},\"name\":\"Stablecoin\",\"ordinal\":0,\"slug\":\"stablecoin\",\"tagType\":\"generic\"},{\"meta\":{},\"name\":\"Circle\",\"ordinal\":0,\"slug\":\"circle\",\"tagType\":\"generic\"},{\"meta\":{},\"name\":\"Token Contract\",\"ordinal\":0,\"slug\":\"token-contract\",\"tagType\":\"generic\"},{\"meta\":{\"tooltipDescription\":\"USDC is a US dollar-backed stablecoin issued by Circle. USDC is designed to provide a faster, safer, and more efficient way to send, spend, and exchange money around the world.\",\"tooltipUrl\":\"https://www.circle.com/en/usdc\"},\"name\":\"Circle: USDC Token\",\"ordinal\":10,\"slug\":\"circle-usdc-token\",\"tagType\":\"name\"},{\"meta\":{},\"name\":\"USDC\",\"ordinal\":0,\"slug\":\"usdc\",\"tagType\":\"generic\"},{\"meta\":{},\"name\":\"Circle\",\"ordinal\":0,\"slug\":\"circle\",\"tagType\":\"protocol\"}]},\"name\":\"USDC\",\"private_tags\":[],\"proxy_type\":\"eip1967\",\"public_tags\":[],\"watchlist_names\":[]},\"authorization_list\":[],\"method\":\"approve\",\"fee\":{\"type\":\"actual\",\"value\":\"28590393361350\"},\"actions\":[],\"gas_limit\":\"55949\",\"gas_price\":\"801524905\",\"decoded_input\":{\"method_call\":\"approve(address spender, uint256 value)\",\"method_id\":\"095ea7b3\",\"parameters\":[{\"name\":\"spender\",\"type\":\"address\",\"value\":\"0xC67A8c5f22b40274Ca7C4A56Db89569Ee2AD3FAb\"},{\"name\":\"value\",\"type\":\"uint256\",\"value\":\"51538803\"}]},\"token_transfers\":null,\"base_fee_per_gas\":\"800534905\",\"timestamp\":\"2025-02-19T08:27:35.000000Z\",\"nonce\":1863,\"transaction_types\":[\"contract_call\"],\"exchange_rate\":\"2713.51\",\"block_number\":21879216,\"has_error_in_internal_transactions\":false},{\"priority_fee\":\"61637400000\",\"tx_burnt_fee\":\"49841303185300\",\"raw_input\":\"0xa9059cbb0000000000000000000000008acc847b20b552faf210f0477dd88e1351b0c454000000000000000000000000000000000000000000000000000000001dc91391\",\"result\":\"success\",\"hash\":\"0xe04acfc46561b19fffaf01c06bf89fa57a9bcd4cf9be64c8e0d611a33b4c5ff9\",\"max_fee_per_gas\":\"1602059810\",\"revert_reason\":null,\"confirmation_duration\":[0,12000],\"transaction_burnt_fee\":\"49841303185300\",\"type\":2,\"token_transfers_overflow\":null,\"confirmations\":1,\"position\":122,\"max_priority_fee_per_gas\":\"990000\",\"transaction_tag\":null,\"created_contract\":null,\"value\":\"0\",\"from\":{\"ens_domain_name\":null,\"hash\":\"0x1C727a55eA3c11B0ab7D3a361Fe0F3C47cE6de5d\",\"implementations\":[],\"is_contract\":false,\"is_scam\":false,\"is_verified\":false,\"metadata\":{\"tags\":[{\"meta\":{\"tooltipUrl\":\"https://uphold.com/\"},\"name\":\"Uphold\",\"ordinal\":10,\"slug\":\"uphold\",\"tagType\":\"name\"},{\"meta\":{},\"name\":\"Uphold\",\"ordinal\":0,\"slug\":\"uphold\",\"tagType\":\"generic\"},{\"meta\":{},\"name\":\"Exchange\",\"ordinal\":0,\"slug\":\"exchange\",\"tagType\":\"generic\"}]},\"name\":null,\"private_tags\":[],\"proxy_type\":null,\"public_tags\":[],\"watchlist_names\":[]},\"gas_used\":\"62260\",\"status\":\"ok\",\"to\":{\"ens_domain_name\":null,\"hash\":\"0xA0b86991c6218b36c1d19D4a2e9Eb0cE3606eB48\",\"implementations\":[{\"address\":\"0x43506849D7C04F9138D1A2050bbF3A0c054402dd\",\"name\":\"FiatTokenV2_2\"}],\"is_contract\":true,\"is_scam\":false,\"is_verified\":true,\"metadata\":{\"tags\":[{\"meta\":{},\"name\":\"Stablecoin\",\"ordinal\":0,\"slug\":\"stablecoin\",\"tagType\":\"generic\"},{\"meta\":{},\"name\":\"Circle\",\"ordinal\":0,\"slug\":\"circle\",\"tagType\":\"generic\"},{\"meta\":{},\"name\":\"Token Contract\",\"ordinal\":0,\"slug\":\"token-contract\",\"tagType\":\"generic\"},{\"meta\":{\"tooltipDescription\":\"USDC is a US dollar-backed stablecoin issued by Circle. USDC is designed to provide a faster, safer, and more efficient way to send, spend, and exchange money around the world.\",\"tooltipUrl\":\"https://www.circle.com/en/usdc\"},\"name\":\"Circle: USDC Token\",\"ordinal\":10,\"slug\":\"circle-usdc-token\",\"tagType\":\"name\"},{\"meta\":{},\"name\":\"USDC\",\"ordinal\":0,\"slug\":\"usdc\",\"tagType\":\"generic\"},{\"meta\":{},\"name\":\"Circle\",\"ordinal\":0,\"slug\":\"circle\",\"tagType\":\"protocol\"}]},\"name\":\"USDC\",\"private_tags\":[],\"proxy_type\":\"eip1967\",\"public_tags\":[],\"watchlist_names\":[]},\"authorization_list\":[],\"method\":\"transfer\",\"fee\":{\"type\":\"actual\",\"value\":\"49902940585300\"},\"actions\":[],\"gas_limit\":\"126180\",\"gas_price\":\"801524905\",\"decoded_input\":{\"method_call\":\"transfer(address to, uint256 value)\",\"method_id\":\"a9059cbb\",\"parameters\":[{\"name\":\"to\",\"type\":\"address\",\"value\":\"0x8acC847b20b552fAf210F0477Dd88E1351b0c454\"},{\"name\":\"value\",\"type\":\"uint256\",\"value\":\"499717009\"}]},\"token_transfers\":null,\"base_fee_per_gas\":\"800534905\",\"timestamp\":\"2025-02-19T08:27:35.000000Z\",\"nonce\":1083673,\"transaction_types\":[\"contract_call\",\"token_transfer\"],\"exchange_rate\":\"2713.51\",\"block_number\":21879216,\"has_error_in_internal_transactions\":false},{\"priority_fee\":\"49103010000\",\"tx_burnt_fee\":\"39705730753095\",\"raw_input\":\"0xa9059cbb00000000000000000000000076eff07febb7347a5ad8dad12f5c55b087f46a340000000000000000000000000000000000000000000000000000000000035b60\",\"result\":\"success\",\"hash\":\"0x8cadc96d32017598df3a5e31cd08afdb146179574158efcd06b2a87aa7ab42f3\",\"max_fee_per_gas\":\"843018096\",\"revert_reason\":null,\"confirmation_duration\":[0,12000],\"transaction_burnt_fee\":\"39705730753095\",\"type\":2,\"token_transfers_overflow\":null,\"confirmations\":1,\"position\":121,\"max_priority_fee_per_gas\":\"990000\",\"transaction_tag\":null,\"created_contract\":null,\"value\":\"0\",\"from\":{\"ens_domain_name\":null,\"hash\":\"0x6934FF3ecDaBb876012AF1743F89d9EcE15C4dB2\",\"implementations\":[],\"is_contract\":false,\"is_scam\":false,\"is_verified\":false,\"metadata\":null,\"name\":null,\"private_tags\":[],\"proxy_type\":null,\"public_tags\":[],\"watchlist_names\":[]},\"gas_used\":\"49599\",\"status\":\"ok\",\"to\":{\"ens_domain_name\":null,\"hash\":\"0x2260FAC5E5542a773Aa44fBCfeDf7C193bc2C599\",\"implementations\":[],\"is_contract\":true,\"is_scam\":false,\"is_verified\":true,\"metadata\":{\"tags\":[{\"meta\":{\"tooltipDescription\":\"Wrapped Bitcoin (WBTC) is an ERC20 token backed 1:1 with Bitcoin. Completely transparent. 100% verifiable. Community led.\",\"tooltipUrl\":\"https://www.wbtc.network/\"},\"name\":\"Wrapped BTC: WBTC Token\",\"ordinal\":10,\"slug\":\"wrapped-btc-wbtc-token\",\"tagType\":\"name\"},{\"meta\":{},\"name\":\"Wrapped BTC\",\"ordinal\":0,\"slug\":\"wrapped-btc\",\"tagType\":\"protocol\"},{\"meta\":{},\"name\":\"Wrapped Bitcoin\",\"ordinal\":0,\"slug\":\"wrapped-bitcoin\",\"tagType\":\"generic\"},{\"meta\":{},\"name\":\"Token Contract\",\"ordinal\":0,\"slug\":\"token-contract\",\"tagType\":\"generic\"},{\"meta\":{},\"name\":\"Bitcoin Pegged\",\"ordinal\":0,\"slug\":\"bitcoin-pegged\",\"tagType\":\"generic\"}]},\"name\":\"Wrapped Bitcoin\",\"private_tags\":[],\"proxy_type\":\"unknown\",\"public_tags\":[],\"watchlist_names\":[]},\"authorization_list\":[],\"method\":\"transfer\",\"fee\":{\"type\":\"actual\",\"value\":\"39754833763095\"},\"actions\":[],\"gas_limit\":\"68908\",\"gas_price\":\"801524905\",\"decoded_input\":{\"method_call\":\"transfer(address _to, uint256 _value)\",\"method_id\":\"a9059cbb\",\"parameters\":[{\"name\":\"_to\",\"type\":\"address\",\"value\":\"0x76eFf07febB7347a5Ad8Dad12F5C55b087f46a34\"},{\"name\":\"_value\",\"type\":\"uint256\",\"value\":\"220000\"}]},\"token_transfers\":null,\"base_fee_per_gas\":\"800534905\",\"timestamp\":\"2025-02-19T08:27:35.000000Z\",\"nonce\":9,\"transaction_types\":[\"contract_call\",\"token_transfer\"],\"exchange_rate\":\"2713.51\",\"block_number\":21879216,\"has_error_in_internal_transactions\":false},{\"priority_fee\":\"57465540000\",\"tx_burnt_fee\":\"46467849095630\",\"raw_input\":\"0xc9bbea99000000000000000000000000fe9cb5423f54c8d69917c5beeb8c00503b4a1a9100000000000000000000000000000000000000000000000058d832c781987263\",\"result\":\"success\",\"hash\":\"0x02ad198e1527836a2f65b516a65dfc9170e0446b79d368ace2c9b5ce61b926a4\",\"max_fee_per_gas\":\"1683066192\",\"revert_reason\":null,\"confirmation_duration\":[0,12000],\"transaction_burnt_fee\":\"46467849095630\",\"type\":2,\"token_transfers_overflow\":null,\"confirmations\":1,\"position\":120,\"max_priority_fee_per_gas\":\"990000\",\"transaction_tag\":null,\"created_contract\":null,\"value\":\"0\",\"from\":{\"ens_domain_name\":null,\"hash\":\"0xaF3960e040591bea674677dF567c649258962c22\",\"implementations\":[],\"is_contract\":false,\"is_scam\":false,\"is_verified\":false,\"metadata\":null,\"name\":null,\"private_tags\":[],\"proxy_type\":null,\"public_tags\":[],\"watchlist_names\":[]},\"gas_used\":\"58046\",\"status\":\"ok\",\"to\":{\"ens_domain_name\":null,\"hash\":\"0x5dC62cea20B0E7c3607aDCc61a885Ff9369dbc60\",\"implementations\":[],\"is_contract\":true,\"is_scam\":false,\"is_verified\":false,\"metadata\":null,\"name\":null,\"private_tags\":[],\"proxy_type\":null,\"public_tags\":[],\"watchlist_names\":[]},\"authorization_list\":[],\"method\":\"degenInOKX_3353250592\",\"fee\":{\"type\":\"actual\",\"value\":\"46525314635630\"},\"actions\":[],\"gas_limit\":\"200000\",\"gas_price\":\"801524905\",\"decoded_input\":{\"method_call\":\"degenInOKX_3353250592(address a1, uint256 u1)\",\"method_id\":\"c9bbea99\",\"parameters\":[{\"name\":\"a1\",\"type\":\"address\",\"value\":\"0xfe9CB5423f54C8d69917c5bEeb8c00503B4a1A91\"},{\"name\":\"u1\",\"type\":\"uint256\",\"value\":\"6401922702761292387\"}]},\"token_transfers\":null,\"base_fee_per_gas\":\"800534905\",\"timestamp\":\"2025-02-19T08:27:35.000000Z\",\"nonce\":36342,\"transaction_types\":[\"contract_call\",\"token_transfer\"],\"exchange_rate\":\"2713.51\",\"block_number\":21879216,\"has_error_in_internal_transactions\":false},{\"priority_fee\":\"20790000000\",\"tx_burnt_fee\":\"16811233005000\",\"raw_input\":\"0x\",\"result\":\"success\",\"hash\":\"0xc93e632ee9c6a4171d0577d657008dd8e04c14524a732eab02a2f217fbb06066\",\"max_fee_per_gas\":\"1519988548\",\"revert_reason\":null,\"confirmation_duration\":[0,12000],\"transaction_burnt_fee\":\"16811233005000\",\"type\":2,\"token_transfers_overflow\":null,\"confirmations\":1,\"position\":119,\"max_priority_fee_per_gas\":\"990000\",\"transaction_tag\":null,\"created_contract\":null,\"value\":\"899260870295823465\",\"from\":{\"ens_domain_name\":null,\"hash\":\"0x8C8D7C46219D9205f056f28fee5950aD564d7465\",\"implementations\":[],\"is_contract\":false,\"is_scam\":false,\"is_verified\":false,\"metadata\":{\"tags\":[{\"meta\":{\"tooltipUrl\":\"https://mercuryo.io/\"},\"name\":\"mercuryo\",\"ordinal\":10,\"slug\":\"mercuryo\",\"tagType\":\"name\"}]},\"name\":null,\"private_tags\":[],\"proxy_type\":null,\"public_tags\":[],\"watchlist_names\":[]},\"gas_used\":\"21000\",\"status\":\"ok\",\"to\":{\"ens_domain_name\":null,\"hash\":\"0x119bb9bf5fAD9cB888A9297930B88efd8abB2c91\",\"implementations\":[],\"is_contract\":false,\"is_scam\":false,\"is_verified\":false,\"metadata\":null,\"name\":null,\"private_tags\":[],\"proxy_type\":null,\"public_tags\":[],\"watchlist_names\":[]},\"authorization_list\":[],\"method\":null,\"fee\":{\"type\":\"actual\",\"value\":\"16832023005000\"},\"actions\":[],\"gas_limit\":\"21000\",\"gas_price\":\"801524905\",\"decoded_input\":null,\"token_transfers\":null,\"base_fee_per_gas\":\"800534905\",\"timestamp\":\"2025-02-19T08:27:35.000000Z\",\"nonce\":1854351,\"transaction_types\":[\"coin_transfer\"],\"exchange_rate\":\"2713.51\",\"block_number\":21879216,\"has_error_in_internal_transactions\":false},{\"priority_fee\":\"20790000000\",\"tx_burnt_fee\":\"16811233005000\",\"raw_input\":\"0x\",\"result\":\"success\",\"hash\":\"0xcb0f0865853d080945b6005e9ebd19866d46abeb933ce61ff00e65010baa4f75\",\"max_fee_per_gas\":\"1720726182\",\"revert_reason\":null,\"confirmation_duration\":[0,12000],\"transaction_burnt_fee\":\"16811233005000\",\"type\":2,\"token_transfers_overflow\":null,\"confirmations\":1,\"position\":118,\"max_priority_fee_per_gas\":\"990000\",\"transaction_tag\":null,\"created_contract\":null,\"value\":\"18105909103497116\",\"from\":{\"ens_domain_name\":null,\"hash\":\"0x8C8D7C46219D9205f056f28fee5950aD564d7465\",\"implementations\":[],\"is_contract\":false,\"is_scam\":false,\"is_verified\":false,\"metadata\":{\"tags\":[{\"meta\":{\"tooltipUrl\":\"https://mercuryo.io/\"},\"name\":\"mercuryo\",\"ordinal\":10,\"slug\":\"mercuryo\",\"tagType\":\"name\"}]},\"name\":null,\"private_tags\":[],\"proxy_type\":null,\"public_tags\":[],\"watchlist_names\":[]},\"gas_used\":\"21000\",\"status\":\"ok\",\"to\":{\"ens_domain_name\":null,\"hash\":\"0xBce2e12b90e25E9Bf5c206Ae788DEe41847Eb9Ab\",\"implementations\":[],\"is_contract\":false,\"is_scam\":false,\"is_verified\":false,\"metadata\":null,\"name\":null,\"private_tags\":[],\"proxy_type\":null,\"public_tags\":[],\"watchlist_names\":[]},\"authorization_list\":[],\"method\":null,\"fee\":{\"type\":\"actual\",\"value\":\"16832023005000\"},\"actions\":[],\"gas_limit\":\"21000\",\"gas_price\":\"801524905\",\"decoded_input\":null,\"token_transfers\":null,\"base_fee_per_gas\":\"800534905\",\"timestamp\":\"2025-02-19T08:27:35.000000Z\",\"nonce\":1854350,\"transaction_types\":[\"coin_transfer\"],\"exchange_rate\":\"2713.51\",\"block_number\":21879216,\"has_error_in_internal_transactions\":false},{\"priority_fee\":\"51857190000\",\"tx_burnt_fee\":\"41932818858805\",\"raw_input\":\"0xa9059cbb000000000000000000000000c6e4f641a3931580dde8ea35c9532800c2ecad5a0000000000000000000000000000000000000000000000000cbbf8569de60000\",\"result\":\"success\",\"hash\":\"0xbb03a94cd8e56961e81df393aff9e6d7188ea83d5050cae50fff13d058a22c5a\",\"max_fee_per_gas\":\"1683066192\",\"revert_reason\":null,\"confirmation_duration\":[0,12000],\"transaction_burnt_fee\":\"41932818858805\",\"type\":2,\"token_transfers_overflow\":null,\"confirmations\":1,\"position\":117,\"max_priority_fee_per_gas\":\"990000\",\"transaction_tag\":null,\"created_contract\":null,\"value\":\"0\",\"from\":{\"ens_domain_name\":null,\"hash\":\"0xEA4983C42D579563B3175aA9A564743e7688fAED\",\"implementations\":[],\"is_contract\":false,\"is_scam\":false,\"is_verified\":false,\"metadata\":null,\"name\":null,\"private_tags\":[],\"proxy_type\":null,\"public_tags\":[],\"watchlist_names\":[]},\"gas_used\":\"52381\",\"status\":\"ok\",\"to\":{\"ens_domain_name\":null,\"hash\":\"0xae4533189C7281501F04bA4b7c37e3ADeD402902\",\"implementations\":[],\"is_contract\":true,\"is_scam\":false,\"is_verified\":true,\"metadata\":null,\"name\":\"WFCAToken\",\"private_tags\":[],\"proxy_type\":\"unknown\",\"public_tags\":[],\"watchlist_names\":[]},\"authorization_list\":[],\"method\":\"transfer\",\"fee\":{\"type\":\"actual\",\"value\":\"41984676048805\"},\"actions\":[],\"gas_limit\":\"53172\",\"gas_price\":\"801524905\",\"decoded_input\":{\"method_call\":\"transfer(address to, uint256 amount)\",\"method_id\":\"a9059cbb\",\"parameters\":[{\"name\":\"to\",\"type\":\"address\",\"value\":\"0xc6E4F641a3931580DdE8eA35C9532800c2eCAd5A\"},{\"name\":\"amount\",\"type\":\"uint256\",\"value\":\"917600000000000000\"}]},\"token_transfers\":null,\"base_fee_per_gas\":\"800534905\",\"timestamp\":\"2025-02-19T08:27:35.000000Z\",\"nonce\":7132,\"transaction_types\":[\"contract_call\",\"token_transfer\"],\"exchange_rate\":\"2713.51\",\"block_number\":21879216,\"has_error_in_internal_transactions\":false},{\"priority_fee\":\"259423560000\",\"tx_burnt_fee\":\"174812807204850\",\"raw_input\":\"0x252f7b010000000000000000000000000000000000000000000000000000000000000066000000000000000000000000296f55f8fb28e498b858d0bcda06d955b2cb3f97000000000000000000000000000000000000000000000000000000000004323869526089c2c53a5580cbaa277d6bb4ed335a6217792f471483c7133b365a94d369526089c2c53a5580cbaa277d6bb4ed335a6217792f471483c7133b365a94d300000000000000000000000000000000000000000000000000000000000000c000000000000000000000000000000000000000000000000000000000000002740000000000000000000000004d73adb72bc3dd368966edd0f0b2148401a178e20000000000010b7200666694340fc020c5e6b96567843da2df01b2ce1eb60065296f55f8fb28e498b858d0bcda06d955b2cb3f97000000000000000000000000000000000000000000000000000000000000000100000000000000000000000000000000000000000000000000000000000000020000000000000000000000000000000000000000000000000000000000000002000000000000000000000000000000000000000000000000000000000000000000000000000000000000000000000000000000000000000000000000000000000000000000000000000000000000000000000000000000000000018708fbf3c00000000000000000000000000000000000000000000000000000000000d03f0700000000000000000000000000000000000000000000000000000000000088d7000000000000000000000000000000000000000000000000000000000000224d0000000000000000000000000000000000000000000000000000000000000000000000000000000000000000000000000000000000000000000000000000224d0000000000000000000000000000000000000000000000000000000000d10c7800000000000000000000000000000000000000000000000000000000000001c000000000000000000000000000000000000000000000000000000000000002000000000000000000000000000000000000000000000000000000000000000014aa22666eca1b1f4a258bcd096c8c304f30b0262c0000000000000000000000000000000000000000000000000000000000000000000000000000000000000000000000000000000000000000\",\"result\":\"success\",\"hash\":\"0xdecc5a6cc7afb3e24daea3faf1337ce25f5eb804e9a3d0c355e26aff812ecad3\",\"max_fee_per_gas\":\"961829886\",\"revert_reason\":null,\"confirmation_duration\":[0,12000],\"transaction_burnt_fee\":\"174812807204850\",\"type\":2,\"token_transfers_overflow\":null,\"confirmations\":1,\"position\":116,\"max_priority_fee_per_gas\":\"1188000\",\"transaction_tag\":null,\"created_contract\":null,\"value\":\"0\",\"from\":{\"ens_domain_name\":null,\"hash\":\"0xe93685f3bBA03016F02bD1828BaDD6195988D950\",\"implementations\":[],\"is_contract\":false,\"is_scam\":false,\"is_verified\":false,\"metadata\":{\"tags\":[{\"meta\":{\"tooltipUrl\":\"https://layerzero.network/\"},\"name\":\"Layer Zero: Executor\",\"ordinal\":10,\"slug\":\"layer-zero-executor\",\"tagType\":\"name\"},{\"meta\":{},\"name\":\"Layer Zero\",\"ordinal\":0,\"slug\":\"layer-zero\",\"tagType\":\"protocol\"}]},\"name\":null,\"private_tags\":[],\"proxy_type\":null,\"public_tags\":[],\"watchlist_names\":[]},\"gas_used\":\"218370\",\"status\":\"ok\",\"to\":{\"ens_domain_name\":null,\"hash\":\"0x902F09715B6303d4173037652FA7377e5b98089E\",\"implementations\":[{\"address\":\"0xB830a5AfCBEBb936c30C607a18BbbA9f5B0a592f\",\"name\":\"RelayerV2\"}],\"is_contract\":true,\"is_scam\":false,\"is_verified\":true,\"metadata\":{\"tags\":[{\"meta\":{},\"name\":\"Layer Zero\",\"ordinal\":0,\"slug\":\"layer-zero\",\"tagType\":\"protocol\"},{\"meta\":{\"tooltipUrl\":\"https://layerzero.network/\"},\"name\":\"Layer Zero: Relayer V2\",\"ordinal\":10,\"slug\":\"layer-zero-relayer-v2\",\"tagType\":\"name\"}]},\"name\":\"OptimizedTransparentUpgradeableProxy\",\"private_tags\":[],\"proxy_type\":\"eip1967\",\"public_tags\":[],\"watchlist_names\":[]},\"authorization_list\":[],\"method\":\"validateTransactionProofV1\",\"fee\":{\"type\":\"actual\",\"value\":\"175072230764850\"},\"actions\":[],\"gas_limit\":\"1308608\",\"gas_price\":\"801722905\",\"decoded_input\":{\"method_call\":\"validateTransactionProofV1(uint16 _srcChainId, address _dstAddress, uint256 _gasLimit, bytes32 _blockHash, bytes32 _data, bytes _transactionProof)\",\"method_id\":\"252f7b01\",\"parameters\":[{\"name\":\"_srcChainId\",\"type\":\"uint16\",\"value\":\"102\"},{\"name\":\"_dstAddress\",\"type\":\"address\",\"value\":\"0x296F55F8Fb28E498B858d0BcDA06D955B2Cb3f97\"},{\"name\":\"_gasLimit\",\"type\":\"uint256\",\"value\":\"275000\"},{\"name\":\"_blockHash\",\"type\":\"bytes32\",\"value\":\"0x69526089c2c53a5580cbaa277d6bb4ed335a6217792f471483c7133b365a94d3\"},{\"name\":\"_data\",\"type\":\"bytes32\",\"value\":\"0x69526089c2c53a5580cbaa277d6bb4ed335a6217792f471483c7133b365a94d3\"},{\"name\":\"_transactionProof\",\"type\":\"bytes\",\"value\":\"0x0000000000000000000000004d73adb72bc3dd368966edd0f0b2148401a178e20000000000010b7200666694340fc020c5e6b96567843da2df01b2ce1eb60065296f55f8fb28e498b858d0bcda06d955b2cb3f97000000000000000000000000000000000000000000000000000000000000000100000000000000000000000000000000000000000000000000000000000000020000000000000000000000000000000000000000000000000000000000000002000000000000000000000000000000000000000000000000000000000000000000000000000000000000000000000000000000000000000000000000000000000000000000000000000000000000000000000000000000000000018708fbf3c00000000000000000000000000000000000000000000000000000000000d03f0700000000000000000000000000000000000000000000000000000000000088d7000000000000000000000000000000000000000000000000000000000000224d0000000000000000000000000000000000000000000000000000000000000000000000000000000000000000000000000000000000000000000000000000224d0000000000000000000000000000000000000000000000000000000000d10c7800000000000000000000000000000000000000000000000000000000000001c000000000000000000000000000000000000000000000000000000000000002000000000000000000000000000000000000000000000000000000000000000014aa22666eca1b1f4a258bcd096c8c304f30b0262c0000000000000000000000000000000000000000000000000000000000000000000000000000000000000000\"}]},\"token_transfers\":null,\"base_fee_per_gas\":\"800534905\",\"timestamp\":\"2025-02-19T08:27:35.000000Z\",\"nonce\":1343273,\"transaction_types\":[\"contract_call\",\"token_transfer\"],\"exchange_rate\":\"2713.51\",\"block_number\":21879216,\"has_error_in_internal_transactions\":false},{\"priority_fee\":\"180818352000\",\"tx_burnt_fee\":\"121844614680620\",\"raw_input\":\"0xcfc3257000000000000000000000000000000000000000000000000000000000000000200000000000000000000000006d6620efa72948c5f68a3c8646d58c00d3f4a98000000000000000000000000000000000000000000000000000000000000075e80000000000000000000000005634c4a5fed09819e3c46d86a965dd9447d86e47000000000000000000000000000000000000000000000000000000000000a711e6ccc892b84115781a3eab773d966345fa7fd81ec403465379ac42664bd61811000000000000000000000000000000000000000000000000000000000000010000000000000000000000000000000000000000000000000000000000000001e00000000000000000000000000000000000000000000000000000000000039dc800000000000000000000000000000000000000000000000000000000000000a202000000000000000000000000000000000000000000000000000eebe0b40e8000000d000000000000000000000000629062c5533f51cfac8812055af0df0b464a1456000000000000966700000d000000000000000000000000726ba488c128b44ef3cce43afda7a8ea1ac9bc5f000000000009175800000d000000000000000000000000f4642ccc6b902cd0b239bca7c30d1e425ecd695a0000000000035ac8000000000000000000000000000000000000000000000000000000000000000000000000000000000000000000000000000000000000000000000000000000\",\"result\":\"success\",\"hash\":\"0x36fe937eea7b9bfb4c5d7b3557a77753ffde916d98c93314b65904a8537163d6\",\"max_fee_per_gas\":\"961829886\",\"revert_reason\":null,\"confirmation_duration\":[0,12000],\"transaction_burnt_fee\":\"121844614680620\",\"type\":2,\"token_transfers_overflow\":null,\"confirmations\":1,\"position\":115,\"max_priority_fee_per_gas\":\"1188000\",\"transaction_tag\":null,\"created_contract\":null,\"value\":\"0\",\"from\":{\"ens_domain_name\":null,\"hash\":\"0xe93685f3bBA03016F02bD1828BaDD6195988D950\",\"implementations\":[],\"is_contract\":false,\"is_scam\":false,\"is_verified\":false,\"metadata\":{\"tags\":[{\"meta\":{\"tooltipUrl\":\"https://layerzero.network/\"},\"name\":\"Layer Zero: Executor\",\"ordinal\":10,\"slug\":\"layer-zero-executor\",\"tagType\":\"name\"},{\"meta\":{},\"name\":\"Layer Zero\",\"ordinal\":0,\"slug\":\"layer-zero\",\"tagType\":\"protocol\"}]},\"name\":null,\"private_tags\":[],\"proxy_type\":null,\"public_tags\":[],\"watchlist_names\":[]},\"gas_used\":\"152204\",\"status\":\"ok\",\"to\":{\"ens_domain_name\":null,\"hash\":\"0x173272739Bd7Aa6e4e214714048a9fE699453059\",\"implementations\":[{\"address\":\"0xfE9AB78eD4f9f3DbB168d9f5E5213d78605C9805\",\"name\":null}],\"is_contract\":true,\"is_scam\":false,\"is_verified\":true,\"metadata\":null,\"name\":\"OptimizedTransparentUpgradeableProxy\",\"private_tags\":[],\"proxy_type\":\"eip1967\",\"public_tags\":[],\"watchlist_names\":[]},\"authorization_list\":[],\"method\":\"0xcfc32570\",\"fee\":{\"type\":\"actual\",\"value\":\"122025433032620\"},\"actions\":[],\"gas_limit\":\"525188\",\"gas_price\":\"801722905\",\"decoded_input\":null,\"token_transfers\":null,\"base_fee_per_gas\":\"800534905\",\"timestamp\":\"2025-02-19T08:27:35.000000Z\",\"nonce\":1343272,\"transaction_types\":[\"contract_call\"],\"exchange_rate\":\"2713.51\",\"block_number\":21879216,\"has_error_in_internal_transactions\":false},{\"priority_fee\":\"91262160000\",\"tx_burnt_fee\":\"61497091402100\",\"raw_input\":\"0x0894edf1000000000000000000000000000000000000000000000000000000000000004011de202429d47a35f17eb09d007ce4b751ddb936bf7e7d380502a1dcd8544e6f000000000000000000000000000000000000000000000000000000000000005101000000000000a713000075e80000000000000000000000005634c4a5fed09819e3c46d86a965dd9447d86e47000075950000000000000000000000006d6620efa72948c5f68a3c8646d58c00d3f4a980000000000000000000000000000000\",\"result\":\"success\",\"hash\":\"0xdd0fe7b81f0799fd626892aeeb8f07799add18f1772486291f99b5ef19e1a6e8\",\"max_fee_per_gas\":\"961829886\",\"revert_reason\":null,\"confirmation_duration\":[0,12000],\"transaction_burnt_fee\":\"61497091402100\",\"type\":2,\"token_transfers_overflow\":null,\"confirmations\":1,\"position\":114,\"max_priority_fee_per_gas\":\"1188000\",\"transaction_tag\":null,\"created_contract\":null,\"value\":\"0\",\"from\":{\"ens_domain_name\":null,\"hash\":\"0xe93685f3bBA03016F02bD1828BaDD6195988D950\",\"implementations\":[],\"is_contract\":false,\"is_scam\":false,\"is_verified\":false,\"metadata\":{\"tags\":[{\"meta\":{\"tooltipUrl\":\"https://layerzero.network/\"},\"name\":\"Layer Zero: Executor\",\"ordinal\":10,\"slug\":\"layer-zero-executor\",\"tagType\":\"name\"},{\"meta\":{},\"name\":\"Layer Zero\",\"ordinal\":0,\"slug\":\"layer-zero\",\"tagType\":\"protocol\"}]},\"name\":null,\"private_tags\":[],\"proxy_type\":null,\"public_tags\":[],\"watchlist_names\":[]},\"gas_used\":\"76820\",\"status\":\"ok\",\"to\":{\"ens_domain_name\":null,\"hash\":\"0xc02Ab410f0734EFa3F14628780e6e695156024C2\",\"implementations\":[],\"is_contract\":true,\"is_scam\":false,\"is_verified\":true,\"metadata\":null,\"name\":\"ReceiveUln302\",\"private_tags\":[],\"proxy_type\":\"unknown\",\"public_tags\":[],\"watchlist_names\":[]},\"authorization_list\":[],\"method\":\"commitVerification\",\"fee\":{\"type\":\"actual\",\"value\":\"61588353562100\"},\"actions\":[],\"gas_limit\":\"343476\",\"gas_price\":\"801722905\",\"decoded_input\":{\"method_call\":\"commitVerification(bytes _packetHeader, bytes32 _payloadHash)\",\"method_id\":\"0894edf1\",\"parameters\":[{\"name\":\"_packetHeader\",\"type\":\"bytes\",\"value\":\"0x01000000000000a713000075e80000000000000000000000005634c4a5fed09819e3c46d86a965dd9447d86e47000075950000000000000000000000006d6620efa72948c5f68a3c8646d58c00d3f4a980\"},{\"name\":\"_payloadHash\",\"type\":\"bytes32\",\"value\":\"0x11de202429d47a35f17eb09d007ce4b751ddb936bf7e7d380502a1dcd8544e6f\"}]},\"token_transfers\":null,\"base_fee_per_gas\":\"800534905\",\"timestamp\":\"2025-02-19T08:27:35.000000Z\",\"nonce\":1343271,\"transaction_types\":[\"contract_call\"],\"exchange_rate\":\"2713.51\",\"block_number\":21879216,\"has_error_in_internal_transactions\":false},{\"priority_fee\":\"871357011000\",\"tx_burnt_fee\":\"16811233005000\",\"raw_input\":\"0x\",\"result\":\"success\",\"hash\":\"0xe33331385e485321e121417810a9c549aaa02770566f75afcd99ed414742cc31\",\"max_fee_per_gas\":\"842028096\",\"revert_reason\":null,\"confirmation_duration\":[0,12000],\"transaction_burnt_fee\":\"16811233005000\",\"type\":2,\"token_transfers_overflow\":null,\"confirmations\":1,\"position\":113,\"max_priority_fee_per_gas\":\"842028096\",\"transaction_tag\":null,\"created_contract\":null,\"value\":\"107913690273467315\",\"from\":{\"ens_domain_name\":null,\"hash\":\"0xfe29429C87f88639f07b5807915C03192b02DEC9\",\"implementations\":[],\"is_contract\":false,\"is_scam\":false,\"is_verified\":false,\"metadata\":null,\"name\":null,\"private_tags\":[],\"proxy_type\":null,\"public_tags\":[],\"watchlist_names\":[]},\"gas_used\":\"21000\",\"status\":\"ok\",\"to\":{\"ens_domain_name\":null,\"hash\":\"0x84fc37a3475d625E1975CF21b9C07f5a6EC21Ca2\",\"implementations\":[],\"is_contract\":false,\"is_scam\":false,\"is_verified\":false,\"metadata\":null,\"name\":null,\"private_tags\":[],\"proxy_type\":null,\"public_tags\":[],\"watchlist_names\":[]},\"authorization_list\":[],\"method\":null,\"fee\":{\"type\":\"actual\",\"value\":\"17682590016000\"},\"actions\":[],\"gas_limit\":\"21000\",\"gas_price\":\"842028096\",\"decoded_input\":null,\"token_transfers\":null,\"base_fee_per_gas\":\"800534905\",\"timestamp\":\"2025-02-19T08:27:35.000000Z\",\"nonce\":9,\"transaction_types\":[\"coin_transfer\"],\"exchange_rate\":\"2713.51\",\"block_number\":21879216,\"has_error_in_internal_transactions\":false},{\"priority_fee\":\"871357011000\",\"tx_burnt_fee\":\"16811233005000\",\"raw_input\":\"0x\",\"result\":\"success\",\"hash\":\"0x675808c23594648eee88fd1095aed8b286c603d054ec39090c5d3620dbff9d22\",\"max_fee_per_gas\":\"842028096\",\"revert_reason\":null,\"confirmation_duration\":[0,12000],\"transaction_burnt_fee\":\"16811233005000\",\"type\":2,\"token_transfers_overflow\":null,\"confirmations\":1,\"position\":112,\"max_priority_fee_per_gas\":\"842028096\",\"transaction_tag\":null,\"created_contract\":null,\"value\":\"70523828935486198\",\"from\":{\"ens_domain_name\":null,\"hash\":\"0x00d973334Dc215A6Dc500E636A8a9a8A1Ae77Fea\",\"implementations\":[],\"is_contract\":false,\"is_scam\":false,\"is_verified\":false,\"metadata\":null,\"name\":null,\"private_tags\":[],\"proxy_type\":null,\"public_tags\":[],\"watchlist_names\":[]},\"gas_used\":\"21000\",\"status\":\"ok\",\"to\":{\"ens_domain_name\":null,\"hash\":\"0xF8AF1e4805413EE39f762E31FbaE0f3c836C241c\",\"implementations\":[],\"is_contract\":false,\"is_scam\":false,\"is_verified\":false,\"metadata\":null,\"name\":null,\"private_tags\":[],\"proxy_type\":null,\"public_tags\":[],\"watchlist_names\":[]},\"authorization_list\":[],\"method\":null,\"fee\":{\"type\":\"actual\",\"value\":\"17682590016000\"},\"actions\":[],\"gas_limit\":\"21000\",\"gas_price\":\"842028096\",\"decoded_input\":null,\"token_transfers\":null,\"base_fee_per_gas\":\"800534905\",\"timestamp\":\"2025-02-19T08:27:35.000000Z\",\"nonce\":9,\"transaction_types\":[\"coin_transfer\"],\"exchange_rate\":\"2713.51\",\"block_number\":21879216,\"has_error_in_internal_transactions\":false},{\"priority_fee\":\"871357011000\",\"tx_burnt_fee\":\"16811233005000\",\"raw_input\":\"0x\",\"result\":\"success\",\"hash\":\"0xf1ad217e9814ef9aff1cb77a4cddc8df5f88d6beb2b288f5cf91f78fac33fbab\",\"max_fee_per_gas\":\"842028096\",\"revert_reason\":null,\"confirmation_duration\":[0,12000],\"transaction_burnt_fee\":\"16811233005000\",\"type\":2,\"token_transfers_overflow\":null,\"confirmations\":1,\"position\":111,\"max_priority_fee_per_gas\":\"842028096\",\"transaction_tag\":null,\"created_contract\":null,\"value\":\"22139288424147384\",\"from\":{\"ens_domain_name\":null,\"hash\":\"0x5471463eaCF0cf733F1e9309ca2BC80C15B0BFeF\",\"implementations\":[],\"is_contract\":false,\"is_scam\":false,\"is_verified\":false,\"metadata\":null,\"name\":null,\"private_tags\":[],\"proxy_type\":null,\"public_tags\":[],\"watchlist_names\":[]},\"gas_used\":\"21000\",\"status\":\"ok\",\"to\":{\"ens_domain_name\":null,\"hash\":\"0x8925Ab252dd2594Dd30c833D59e84AFc57e9a4CC\",\"implementations\":[],\"is_contract\":false,\"is_scam\":false,\"is_verified\":false,\"metadata\":null,\"name\":null,\"private_tags\":[],\"proxy_type\":null,\"public_tags\":[],\"watchlist_names\":[]},\"authorization_list\":[],\"method\":null,\"fee\":{\"type\":\"actual\",\"value\":\"17682590016000\"},\"actions\":[],\"gas_limit\":\"21000\",\"gas_price\":\"842028096\",\"decoded_input\":null,\"token_transfers\":null,\"base_fee_per_gas\":\"800534905\",\"timestamp\":\"2025-02-19T08:27:35.000000Z\",\"nonce\":7,\"transaction_types\":[\"coin_transfer\"],\"exchange_rate\":\"2713.51\",\"block_number\":21879216,\"has_error_in_internal_transactions\":false},{\"priority_fee\":\"871357011000\",\"tx_burnt_fee\":\"16811233005000\",\"raw_input\":\"0x\",\"result\":\"success\",\"hash\":\"0x797db44ad5b8761e984c2401aff8dbf161ffd845e85b29b289717a0caefbe423\",\"max_fee_per_gas\":\"842028096\",\"revert_reason\":null,\"confirmation_duration\":[0,12000],\"transaction_burnt_fee\":\"16811233005000\",\"type\":2,\"token_transfers_overflow\":null,\"confirmations\":1,\"position\":110,\"max_priority_fee_per_gas\":\"842028096\",\"transaction_tag\":null,\"created_contract\":null,\"value\":\"20884310578041716\",\"from\":{\"ens_domain_name\":null,\"hash\":\"0x5be8769300324757AD166EE4Ba9dDfC25F111319\",\"implementations\":[],\"is_contract\":false,\"is_scam\":false,\"is_verified\":false,\"metadata\":null,\"name\":null,\"private_tags\":[],\"proxy_type\":null,\"public_tags\":[],\"watchlist_names\":[]},\"gas_used\":\"21000\",\"status\":\"ok\",\"to\":{\"ens_domain_name\":null,\"hash\":\"0xa8f9484e16cce7E48B9972122Fa5022a9E5a2fDF\",\"implementations\":[],\"is_contract\":false,\"is_scam\":false,\"is_verified\":false,\"metadata\":null,\"name\":null,\"private_tags\":[],\"proxy_type\":null,\"public_tags\":[],\"watchlist_names\":[]},\"authorization_list\":[],\"method\":null,\"fee\":{\"type\":\"actual\",\"value\":\"17682590016000\"},\"actions\":[],\"gas_limit\":\"21000\",\"gas_price\":\"842028096\",\"decoded_input\":null,\"token_transfers\":null,\"base_fee_per_gas\":\"800534905\",\"timestamp\":\"2025-02-19T08:27:35.000000Z\",\"nonce\":7,\"transaction_types\":[\"coin_transfer\"],\"exchange_rate\":\"2713.51\",\"block_number\":21879216,\"has_error_in_internal_transactions\":false},{\"priority_fee\":\"871357011000\",\"tx_burnt_fee\":\"16811233005000\",\"raw_input\":\"0x\",\"result\":\"success\",\"hash\":\"0x3b79e7648b6f661bc5e67a1e7310ab1c92f29394c2e273b4ba4f5a76113b2f7a\",\"max_fee_per_gas\":\"842028096\",\"revert_reason\":null,\"confirmation_duration\":[0,12000],\"transaction_burnt_fee\":\"16811233005000\",\"type\":2,\"token_transfers_overflow\":null,\"confirmations\":1,\"position\":109,\"max_priority_fee_per_gas\":\"842028096\",\"transaction_tag\":null,\"created_contract\":null,\"value\":\"59661451734433615\",\"from\":{\"ens_domain_name\":null,\"hash\":\"0x68c5a676333F1fC3752eC22A41467a7FaACc1f76\",\"implementations\":[],\"is_contract\":false,\"is_scam\":false,\"is_verified\":false,\"metadata\":null,\"name\":null,\"private_tags\":[],\"proxy_type\":null,\"public_tags\":[],\"watchlist_names\":[]},\"gas_used\":\"21000\",\"status\":\"ok\",\"to\":{\"ens_domain_name\":null,\"hash\":\"0xDB00e316BAa4bB610DfA11a26d062D6e326E7075\",\"implementations\":[],\"is_contract\":false,\"is_scam\":false,\"is_verified\":false,\"metadata\":null,\"name\":null,\"private_tags\":[],\"proxy_type\":null,\"public_tags\":[],\"watchlist_names\":[]},\"authorization_list\":[],\"method\":null,\"fee\":{\"type\":\"actual\",\"value\":\"17682590016000\"},\"actions\":[],\"gas_limit\":\"21000\",\"gas_price\":\"842028096\",\"decoded_input\":null,\"token_transfers\":null,\"base_fee_per_gas\":\"800534905\",\"timestamp\":\"2025-02-19T08:27:35.000000Z\",\"nonce\":6,\"transaction_types\":[\"coin_transfer\"],\"exchange_rate\":\"2713.51\",\"block_number\":21879216,\"has_error_in_internal_transactions\":false},{\"priority_fee\":\"871357011000\",\"tx_burnt_fee\":\"16811233005000\",\"raw_input\":\"0x\",\"result\":\"success\",\"hash\":\"0xa6c2b6fdcde9e25535f18b12b830f5aa31ad22694cc648a1c6dd50403ce97f06\",\"max_fee_per_gas\":\"842028096\",\"revert_reason\":null,\"confirmation_duration\":[0,12000],\"transaction_burnt_fee\":\"16811233005000\",\"type\":2,\"token_transfers_overflow\":null,\"confirmations\":1,\"position\":108,\"max_priority_fee_per_gas\":\"842028096\",\"transaction_tag\":null,\"created_contract\":null,\"value\":\"71462028149905876\",\"from\":{\"ens_domain_name\":null,\"hash\":\"0xa46A00Bf134bc6b8C6098738C5a02D41b7BbCee4\",\"implementations\":[],\"is_contract\":false,\"is_scam\":false,\"is_verified\":false,\"metadata\":null,\"name\":null,\"private_tags\":[],\"proxy_type\":null,\"public_tags\":[],\"watchlist_names\":[]},\"gas_used\":\"21000\",\"status\":\"ok\",\"to\":{\"ens_domain_name\":null,\"hash\":\"0x17695204e4a113c2d7D91DA5B4d4c2135A1fa3FD\",\"implementations\":[],\"is_contract\":false,\"is_scam\":false,\"is_verified\":false,\"metadata\":null,\"name\":null,\"private_tags\":[],\"proxy_type\":null,\"public_tags\":[],\"watchlist_names\":[]},\"authorization_list\":[],\"method\":null,\"fee\":{\"type\":\"actual\",\"value\":\"17682590016000\"},\"actions\":[],\"gas_limit\":\"21000\",\"gas_price\":\"842028096\",\"decoded_input\":null,\"token_transfers\":null,\"base_fee_per_gas\":\"800534905\",\"timestamp\":\"2025-02-19T08:27:35.000000Z\",\"nonce\":8,\"transaction_types\":[\"coin_transfer\"],\"exchange_rate\":\"2713.51\",\"block_number\":21879216,\"has_error_in_internal_transactions\":false},{\"priority_fee\":null,\"tx_burnt_fee\":null,\"raw_input\":\"0x3137313934207573647428657263323029202d3e2031373036322e31313939323520757364742874726f6e292066726f6d686173683a2030786131663536383539323335636537643162323031396335386136373565353466376462353165353261376261343437376535323038633337633338323331396520746f686173683a2064616239613532626134373139306461383063663830393834613533306334653064356262653162333231383634323563383134326264643639656163653231\",\"result\":\"success\",\"hash\":\"0xa2cd92f003317e215ff042eeb3e4146a773ee9bc8819b78af1abd429c3576a92\",\"max_fee_per_gas\":null,\"revert_reason\":null,\"confirmation_duration\":[0,12000],\"transaction_burnt_fee\":null,\"type\":0,\"token_transfers_overflow\":null,\"confirmations\":1,\"position\":107,\"max_priority_fee_per_gas\":null,\"transaction_tag\":null,\"created_contract\":null,\"value\":\"0\",\"from\":{\"ens_domain_name\":null,\"hash\":\"0xa15eDE0cf46c12E4a79632dF33BA1B2f428E5D15\",\"implementations\":[],\"is_contract\":false,\"is_scam\":false,\"is_verified\":false,\"metadata\":null,\"name\":null,\"private_tags\":[],\"proxy_type\":null,\"public_tags\":[],\"watchlist_names\":[]},\"gas_used\":\"24104\",\"status\":\"ok\",\"to\":{\"ens_domain_name\":null,\"hash\":\"0x3c6baDCDb67f029C6a9fE01421e4390C57eA3f22\",\"implementations\":[],\"is_contract\":false,\"is_scam\":false,\"is_verified\":false,\"metadata\":null,\"name\":null,\"private_tags\":[],\"proxy_type\":null,\"public_tags\":[],\"watchlist_names\":[]},\"authorization_list\":[],\"method\":null,\"fee\":{\"type\":\"actual\",\"value\":\"20449861078560\"},\"actions\":[],\"gas_limit\":\"400000\",\"gas_price\":\"848401140\",\"decoded_input\":null,\"token_transfers\":null,\"base_fee_per_gas\":\"800534905\",\"timestamp\":\"2025-02-19T08:27:35.000000Z\",\"nonce\":18471,\"transaction_types\":[],\"exchange_rate\":\"2713.51\",\"block_number\":21879216,\"has_error_in_internal_transactions\":false},{\"priority_fee\":\"217965330000\",\"tx_burnt_fee\":\"58750456143045\",\"raw_input\":\"0x8aaa8f3b0000000000000000000000000000000000000000000000000000000000000080000000000000000000000000000000000000000000000000000000000000016000000000000000000000000000000000000000000000000000000000000002400000000000000000000000000000000000000000000000000000000000000320000000000000000000000000000000000000000000000000000000000000000600000000000000000000000029f7bbbc757abb299dd18e70f0d0f08cc7d570e600000000000000000000000026d8632f5ebeed2e72100efaff5c347bf4927bfb00000000000000000000000026d8632f5ebeed2e72100efaff5c347bf4927bfb000000000000000000000000a486c18410b32bb1d6ede632663b95423aaf531000000000000000000000000029f7bbbc757abb299dd18e70f0d0f08cc7d570e60000000000000000000000005c351e5da659ac83969045d6e0642ea0895a5a5800000000000000000000000000000000000000000000000000000000000000060000000000000000000000002af3c30c36d04a8aecaa2e09d879a9ef553b78f700000000000000000000000096fe760888f54ea1faf0e08e8900bbfe2ce48723000000000000000000000000bd58581def7f72e8894de2c802e039c6d6410e67000000000000000000000000c529afa07107ec49f5f816e57a2a899c208d09f800000000000000000000000068b5ce01f2e8a3a1c6de0bf0a7eb76714acbcfce000000000000000000000000c1ef3ec5249e2d5a5c92c335fe2d0a0501202a9a000000000000000000000000000000000000000000000000000000000000000600000000000000000000000052d6fd2c8c8aefa365df3439e15efea7899f7a1100000000000000000000000043ba05e13775d0cec0b8da459d1e90e75345489a000000000000000000000000f081383326ca40dc1b8c1c9ae6a81d3087f3ea54000000000000000000000000e8e4dafd6be89c5d0bef1b9d19d7932e5d6496aa0000000000000000000000000492c995b1e4f190b8b423d1f66c898e008b6df2000000000000000000000000537cb0d38116cef944c3eee70eb15a98bc577593000000000000000000000000000000000000000000000000000000000000000600000000000000000000000000000000000000000000000000bd33bb448854000000000000000000000000000000000000000000000000000000000008f0d1800000000000000000000000000000000000000000000000000000000005f5e1000000000000000000000000000000000000000000000055f8fa954f99256800000000000000000000000000000000000000000000000000009b5a5203c964e0000000000000000000000000000000000000000000000000000000001218b38a2c\",\"result\":\"success\",\"hash\":\"0x04c5901d1293d14cb4d2131cd7c64a7a369887e3a16b37baad51d6848e5f23c7\",\"max_fee_per_gas\":\"3366132384\",\"revert_reason\":null,\"confirmation_duration\":[0,12000],\"transaction_burnt_fee\":\"58750456143045\",\"type\":2,\"token_transfers_overflow\":null,\"confirmations\":1,\"position\":106,\"max_priority_fee_per_gas\":\"2970000\",\"transaction_tag\":null,\"created_contract\":null,\"value\":\"0\",\"from\":{\"ens_domain_name\":null,\"hash\":\"0x7730b1C005d8b3c42784b98264B45Fd71E47Ba3f\",\"implementations\":[],\"is_contract\":false,\"is_scam\":false,\"is_verified\":false,\"metadata\":null,\"name\":null,\"private_tags\":[],\"proxy_type\":null,\"public_tags\":[],\"watchlist_names\":[]},\"gas_used\":\"73389\",\"status\":\"ok\",\"to\":{\"ens_domain_name\":null,\"hash\":\"0xDb2AD2BDA31091242ADdd0421e4bC5ac51552E9A\",\"implementations\":[],\"is_contract\":true,\"is_scam\":false,\"is_verified\":false,\"metadata\":null,\"name\":null,\"private_tags\":[],\"proxy_type\":null,\"public_tags\":[],\"watchlist_names\":[]},\"authorization_list\":[],\"method\":\"0x8aaa8f3b\",\"fee\":{\"type\":\"actual\",\"value\":\"58968421473045\"},\"actions\":[],\"gas_limit\":\"111394\",\"gas_price\":\"803504905\",\"decoded_input\":null,\"token_transfers\":null,\"base_fee_per_gas\":\"800534905\",\"timestamp\":\"2025-02-19T08:27:35.000000Z\",\"nonce\":3950,\"transaction_types\":[\"contract_call\",\"token_transfer\"],\"exchange_rate\":\"2713.51\",\"block_number\":21879216,\"has_error_in_internal_transactions\":false},{\"priority_fee\":null,\"tx_burnt_fee\":null,\"raw_input\":\"0xdbf41b3c0000000000000000000000007a250d5630b4cf539739df2c5dacb4c659f2488d000000000000000000000000000000000000000000000000000286bce626365600000000000000000000000000000000000000000000000000000000000000c0000000000000000000000000ed58cc613f8f24b52b1e1ad173a4be5c6edde59200000000000000000000000000000000000000000000000000000000cf6b2e3200000000000000000000000000000000000000000000000000000000000000640000000000000000000000000000000000000000000000000000000000000002000000000000000000000000c02aaa39b223fe8d0a0e5c4f27ead9083c756cc2000000000000000000000000cf0c122c6b73ff809c693db761e7baebe62b6a2e\",\"result\":\"success\",\"hash\":\"0x7a792ca41c2247c8d3ec19532e92ba9351a505ba3e246f311f80258af6468d1d\",\"max_fee_per_gas\":null,\"revert_reason\":null,\"confirmation_duration\":[0,12000],\"transaction_burnt_fee\":null,\"type\":0,\"token_transfers_overflow\":null,\"confirmations\":1,\"position\":105,\"max_priority_fee_per_gas\":null,\"transaction_tag\":null,\"created_contract\":null,\"value\":\"28000000000000000\",\"from\":{\"ens_domain_name\":null,\"hash\":\"0xEd58cC613f8f24B52b1E1Ad173A4be5C6EDde592\",\"implementations\":[],\"is_contract\":false,\"is_scam\":false,\"is_verified\":false,\"metadata\":null,\"name\":null,\"private_tags\":[],\"proxy_type\":null,\"public_tags\":[],\"watchlist_names\":[]},\"gas_used\":\"196403\",\"status\":\"ok\",\"to\":{\"ens_domain_name\":null,\"hash\":\"0xAf48b95059134E16118477cb8eA52Bc5Cd3CaF1F\",\"implementations\":[],\"is_contract\":true,\"is_scam\":false,\"is_verified\":true,\"metadata\":null,\"name\":\"UniswapV2ProxyDegen\",\"private_tags\":[],\"proxy_type\":\"unknown\",\"public_tags\":[],\"watchlist_names\":[]},\"authorization_list\":[],\"method\":\"swapExactETHForTokensSupportingFeeOnTransferTokens\",\"fee\":{\"type\":\"actual\",\"value\":\"173645686188500\"},\"actions\":[],\"gas_limit\":\"286978\",\"gas_price\":\"884129500\",\"decoded_input\":{\"method_call\":\"swapExactETHForTokensSupportingFeeOnTransferTokens(address router, uint256 amountOutMin, address[] path, address to, uint256 deadline, uint256 feePercetage)\",\"method_id\":\"dbf41b3c\",\"parameters\":[{\"name\":\"router\",\"type\":\"address\",\"value\":\"0x7a250d5630B4cF539739dF2C5dAcb4c659F2488D\"},{\"name\":\"amountOutMin\",\"type\":\"uint256\",\"value\":\"711095826658902\"},{\"name\":\"path\",\"type\":\"address[]\",\"value\":[\"0xC02aaA39b223FE8D0A0e5C4F27eAD9083C756Cc2\",\"0xcf0C122c6b73ff809C693DB761e7BaeBe62b6a2E\"]},{\"name\":\"to\",\"type\":\"address\",\"value\":\"0xEd58cC613f8f24B52b1E1Ad173A4be5C6EDde592\"},{\"name\":\"deadline\",\"type\":\"uint256\",\"value\":\"3479907890\"},{\"name\":\"feePercetage\",\"type\":\"uint256\",\"value\":\"100\"}]},\"token_transfers\":null,\"base_fee_per_gas\":\"800534905\",\"timestamp\":\"2025-02-19T08:27:35.000000Z\",\"nonce\":10,\"transaction_types\":[\"coin_transfer\",\"contract_call\",\"token_transfer\"],\"exchange_rate\":\"2713.51\",\"block_number\":21879216,\"has_error_in_internal_transactions\":false},{\"priority_fee\":\"58045355000000\",\"tx_burnt_fee\":\"522104862366475\",\"raw_input\":\"0x26a38e640000000000000000000000003ee841f47947fefbe510366e4bbb49e1454841950000000000000000000000003ee841f47947fefbe510366e4bbb49e145484195000000000000000000000000f589273a91622f1f48c0cd378881f0b3e6c40a950000000000000000000000000000000000000000000000000000000000000002000000000000000000000000000000000000000000000000000000000000014000000000000000000000000000000000000000000000000000000000000001a000000000000000000000000000000000000000000000000334b37592e6545d6a000000000000000000000000000000000000000000000000000000000000000000000000000000000000000000000000000000000000000000000000000000010000000000000000000000000000000000000000000000000000000000000000000000000000000000000000000000000000000000000000000000000000000200000000000000000000000066a1e37c9b0eaddca17d3662d6c05f4decf3e110000000000000000000000000a0b86991c6218b36c1d19d4a2e9eb0ce3606eb480000000000000000000000000000000000000000000000000000000000000002000000000000000000000000000000000000000000000001a055690d9db800000000000000000000000000000000000000000000000000000000000001c9c380\",\"result\":\"success\",\"hash\":\"0xae0d297f4dd806842a4f631a67b953e5dc901ab48f0c2ed60123b74a25c41c42\",\"max_fee_per_gas\":\"1610000000\",\"revert_reason\":null,\"confirmation_duration\":[0,12000],\"transaction_burnt_fee\":\"522104862366475\",\"type\":2,\"token_transfers_overflow\":null,\"confirmations\":1,\"position\":104,\"max_priority_fee_per_gas\":\"89000000\",\"transaction_tag\":null,\"created_contract\":null,\"value\":\"0\",\"from\":{\"ens_domain_name\":null,\"hash\":\"0xf4A91A7BDF0b5eF3bc29db2359784c4b2ea06a5d\",\"implementations\":[],\"is_contract\":false,\"is_scam\":false,\"is_verified\":false,\"metadata\":null,\"name\":null,\"private_tags\":[],\"proxy_type\":null,\"public_tags\":[],\"watchlist_names\":[]},\"gas_used\":\"652195\",\"status\":\"ok\",\"to\":{\"ens_domain_name\":null,\"hash\":\"0x56C526b0159a258887e0d79ec3a80dfb940d0cD7\",\"implementations\":[],\"is_contract\":true,\"is_scam\":false,\"is_verified\":false,\"metadata\":null,\"name\":null,\"private_tags\":[],\"proxy_type\":\"unknown\",\"public_tags\":[],\"watchlist_names\":[]},\"authorization_list\":[],\"method\":\"0x26a38e64\",\"fee\":{\"type\":\"actual\",\"value\":\"580150217366475\"},\"actions\":[],\"gas_limit\":\"1468128\",\"gas_price\":\"889534905\",\"decoded_input\":null,\"token_transfers\":null,\"base_fee_per_gas\":\"800534905\",\"timestamp\":\"2025-02-19T08:27:35.000000Z\",\"nonce\":67,\"transaction_types\":[\"contract_call\",\"token_transfer\"],\"exchange_rate\":\"2713.51\",\"block_number\":21879216,\"has_error_in_internal_transactions\":false},{\"priority_fee\":\"34131300000000\",\"tx_burnt_fee\":\"273232970030265\",\"raw_input\":\"0x2213bc0b0000000000000000000000000d0e364aa7852291883c162b22d6d81f6355428f000000000000000000000000467719ad09025fcc6cf6f8311755809d45a5e5f300000000000000000000000000000000000000000000000000000000116518630000000000000000000000000d0e364aa7852291883c162b22d6d81f6355428f00000000000000000000000000000000000000000000000000000000000000a00000000000000000000000000000000000000000000000000000000000000b441fff991f0000000000000000000000007b285b16d93b7c62c1af9a222cb2b3b26c1dbbbd000000000000000000000000b0ac2b5a73da0e67a8e5489ba922b3f8d582e058000000000000000000000000000000000000000012d85f9dc5952ecca731f61000000000000000000000000000000000000000000000000000000000000000a08e75b9c325f52d5b1d907e6a2057350000000000000000000000000000000000000000000000000000000000000000000000000000000000000000000000000700000000000000000000000000000000000000000000000000000000000000e0000000000000000000000000000000000000000000000000000000000000020000000000000000000000000000000000000000000000000000000000000003e0000000000000000000000000000000000000000000000000000000000000058000000000000000000000000000000000000000000000000000000000000006c000000000000000000000000000000000000000000000000000000000000007c0000000000000000000000000000000000000000000000000000000000000092000000000000000000000000000000000000000000000000000000000000000e4c1fb425e0000000000000000000000000d0e364aa7852291883c162b22d6d81f6355428f000000000000000000000000467719ad09025fcc6cf6f8311755809d45a5e5f3000000000000000000000000000000000000000000000000000000001165186300000000000000000000000000000000000000000000000000000000000000000000000000000000000000000000000000000000000000000000000067b5970f00000000000000000000000000000000000000000000000000000000000000c000000000000000000000000000000000000000000000000000000000000000000000000000000000000000000000000000000000000000000000000000000000000000000000000000000000000000000000000000000000000001a4d92aadfb0000000000000000000000000d0e364aa7852291883c162b22d6d81f6355428f000000000000000000000000dac17f958d2ee523a2206206994597c13d831ec70000000000000000000000000000000000000000000000000000000007c8700106f1b5e667c030475db87840b2be8b848d95ba4f56a8234d12b96ddacf091b580000000000000000000000000000000000000000000000000000000067b5961f000000000000000000000000807cf9a772d5a3f9cefbc1192e939d62f0d9bd380000000000000000000000000000000000000000000000000000000000000120000000000000000000000000467719ad09025fcc6cf6f8311755809d45a5e5f30000000000000000000000000000000000000000000000000000000011651863000000000000000000000000000000000000000000000000000000000000004105025c213b92c66a837078d32118d127d1d2446c2257152716b6fefe0eb4442c5418949090a522efd30849ed4278dd70e320fb323d26852cc804d23d9e2f0b1d1c00000000000000000000000000000000000000000000000000000000000000000000000000000000000000000000000000000000000000000000000000000000000000000000000000000000000000000000000000000000000164af72634f0000000000000000000000000d0e364aa7852291883c162b22d6d81f6355428f000000000000000000000000dac17f958d2ee523a2206206994597c13d831ec7000000000000000000000000000000000000000000000000000000000000271000000000000000000000000000000000000000000000000000000000000000000000000000000000000000000000000000000000000000000000000000000002000000000000000000000000000000000000000000000000ffffffffffffffc5000000000000000000000000000000000000000000000000000000000000010000000000000000000000000000000000000000000000000000000000000000000000000000000000000000000000000000000000000000000000000000000034271001eeeeeeeeeeeeeeeeeeeeeeeeeeeeeeeeeeeeeeee000064000001000000000000000000000000000000000000000000000000000000000000000000000000000000000000000000000000000000000000000000000000000000000000000000000000000000000000000000000000000000000000000000010438c9c147000000000000000000000000eeeeeeeeeeeeeeeeeeeeeeeeeeeeeeeeeeeeeeee0000000000000000000000000000000000000000000000000000000000002710000000000000000000000000c02aaa39b223fe8d0a0e5c4f27ead9083c756cc2000000000000000000000000000000000000000000000000000000000000000400000000000000000000000000000000000000000000000000000000000000a00000000000000000000000000000000000000000000000000000000000000024d0e30db00000000000000000000000000000000000000000000000000000000000000000000000000000000000000000000000000000000000000000000000000000000000000000000000000000000000000000000000000000000000000000000000000000000000000000000000000000000000000000000000c4103b48be0000000000000000000000000d0e364aa7852291883c162b22d6d81f6355428f000000000000000000000000c02aaa39b223fe8d0a0e5c4f27ead9083c756cc20000000000000000000000000000000000000000000000000000000000002710000000000000000000000000d293d05e83035a757d510e2a5ebfe705c4f05b1f0000000000000000000000000000000000000000000000000000000000001e00000000000000000000000000000000000000000000000000000000000000000000000000000000000000000000000000000000000000000000000000000000000000000000000000000000000000000000000000000000000000012438c9c147000000000000000000000000b0ac2b5a73da0e67a8e5489ba922b3f8d582e0580000000000000000000000000000000000000000000000000000000000000064000000000000000000000000b0ac2b5a73da0e67a8e5489ba922b3f8d582e058000000000000000000000000000000000000000000000000000000000000002400000000000000000000000000000000000000000000000000000000000000a00000000000000000000000000000000000000000000000000000000000000044a9059cbb000000000000000000000000382ffce2287252f930e1c8dc9328dac5bf282ba100000000000000000000000000000000000000000000000000000000000000000000000000000000000000000000000000000000000000000000000000000000000000000000000000000000000000000000000000000000000000000000000000000000000000000000000000000000000000000000012438c9c147000000000000000000000000b0ac2b5a73da0e67a8e5489ba922b3f8d582e058000000000000000000000000000000000000000000000000000000000000000a000000000000000000000000b0ac2b5a73da0e67a8e5489ba922b3f8d582e058000000000000000000000000000000000000000000000000000000000000002400000000000000000000000000000000000000000000000000000000000000a00000000000000000000000000000000000000000000000000000000000000044a9059cbb000000000000000000000000ad01c20d5886137e056775af56915de824c8fce50000000000000000000000000000000000000000000000000000000000000000000000000000000000000000000000000000000000000000000000000000000000000000000000000000000000000000000000000000000000000000000000000000000000000000000000000000000000000000\",\"result\":\"success\",\"hash\":\"0xa492f55e471ce787edd1a1ef9d47a9bff91cc8868287130075656494b5116b69\",\"max_fee_per_gas\":\"960399123\",\"revert_reason\":null,\"confirmation_duration\":[0,12000],\"transaction_burnt_fee\":\"273232970030265\",\"type\":2,\"token_transfers_overflow\":null,\"confirmations\":1,\"position\":103,\"max_priority_fee_per_gas\":\"100000000\",\"transaction_tag\":null,\"created_contract\":null,\"value\":\"0\",\"from\":{\"ens_domain_name\":null,\"hash\":\"0x7B285B16D93b7C62C1af9a222cB2B3b26c1dBBbd\",\"implementations\":[],\"is_contract\":false,\"is_scam\":false,\"is_verified\":false,\"metadata\":null,\"name\":null,\"private_tags\":[],\"proxy_type\":null,\"public_tags\":[],\"watchlist_names\":[]},\"gas_used\":\"341313\",\"status\":\"ok\",\"to\":{\"ens_domain_name\":null,\"hash\":\"0x0000000000001fF3684f28c67538d4D072C22734\",\"implementations\":[],\"is_contract\":true,\"is_scam\":false,\"is_verified\":true,\"metadata\":null,\"name\":\"AllowanceHolder\",\"private_tags\":[],\"proxy_type\":\"unknown\",\"public_tags\":[],\"watchlist_names\":[]},\"authorization_list\":[],\"method\":\"0x2213bc0b\",\"fee\":{\"type\":\"actual\",\"value\":\"307364270030265\"},\"actions\":[],\"gas_limit\":\"486888\",\"gas_price\":\"900534905\",\"decoded_input\":null,\"token_transfers\":null,\"base_fee_per_gas\":\"800534905\",\"timestamp\":\"2025-02-19T08:27:35.000000Z\",\"nonce\":34,\"transaction_types\":[\"contract_call\",\"token_transfer\"],\"exchange_rate\":\"2713.51\",\"block_number\":21879216,\"has_error_in_internal_transactions\":false}],\"next_page_params\":{\"block_number\":21879216,\"index\":103,\"items_count\":50}}",
    "headers": {
      "Content-Type": "application/json"
    }
  }
}