{
  "request": {
    "method": "GET",
    "urlPath": "/api/v2/transactions"
  },
  "response": {
    "status": 200,
    "body": "{\"items\":[{\"priority_fee\":\"0\",\"raw_input\":\"0x\",\"result\":\"success\",\"hash\":\"0x479fe27195a0620debfc3cbab4a9ee7101588f980ae50601ab0d44672f0b0ca6\",\"max_fee_per_gas\":\"4141138449\",\"revert_reason\":null,\"confirmation_duration\":[0,12000],\"transaction_burnt_fee\":\"86963907429000\",\"type\":2,\"token_transfers_overflow\":null,\"confirmations\":1,\"position\":159,\"max_priority_fee_per_gas\":\"0\",\"transaction_tag\":null,\"created_contract\":null,\"value\":\"34382968843921391\",\"from\":{\"ens_domain_name\":\"buildernet.eth\",\"hash\":\"0xdadB0d80178819F2319190D340ce9A924f783711\",\"implementations\":[],\"is_contract\":false,\"is_scam\":false,\"is_verified\":false,\"metadata\":null,\"name\":null,\"private_tags\":[],\"proxy_type\":null,\"public_tags\":[],\"watchlist_names\":[]},\"gas_used\":\"21000\",\"status\":\"ok\",\"to\":{\"ens_domain_name\":null,\"hash\":\"0x5995510b29924a0c68E5E21cb95ac426519c43BF\",\"implementations\":[],\"is_contract\":false,\"is_scam\":false,\"is_verified\":false,\"metadata\":null,\"name\":null,\"private_tags\":[],\"proxy_type\":null,\"public_tags\":[],\"watchlist_names\":[]},\"authorization_list\":[],\"method\":null,\"fee\":{\"type\":\"actual\",\"value\":\"86963907429000\"},\"actions\":[],\"gas_limit\":\"21000\",\"gas_price\":\"4141138449\",\"decoded_input\":null,\"token_transfers\":null,\"base_fee_per_gas\":\"4141138449\",\"timestamp\":\"2025-06-12T15:41:23.000000Z\",\"nonce\":68962,\"historic_exchange_rate\":\"2775.54\",\"transaction_types\":[\"coin_transfer\"],\"exchange_rate\":\"2754.57\",\"block_number\":22689445,\"has_error_in_internal_transactions\":false},{\"priority_fee\":\"3231438000\",\"raw_input\":\"0x\",\"result\":\"success\",\"hash\":\"0x4d2aea87377c5bb526f883fc4f52e794a6f034b00d8d5a27c284b968614c9323\",\"max_fee_per_gas\":\"5526139399\",\"revert_reason\":null,\"confirmation_duration\":[0,12000],\"transaction_burnt_fee\":\"86963907429000\",\"type\":2,\"token_transfers_overflow\":null,\"confirmations\":1,\"position\":158,\"max_priority_fee_per_gas\":\"153878\",\"transaction_tag\":null,\"created_contract\":null,\"value\":\"18019896525681000\",\"from\":{\"ens_domain_name\":null,\"hash\":\"0x22C1c6E2249fC79470154376b82Cd6026C2F16e7\",\"implementations\":[],\"is_contract\":false,\"is_scam\":false,\"is_verified\":false,\"metadata\":null,\"name\":null,\"private_tags\":[],\"proxy_type\":null,\"public_tags\":[],\"watchlist_names\":[]},\"gas_used\":\"21000\",\"status\":\"ok\",\"to\":{\"ens_domain_name\":null,\"hash\":\"0x307576Dd4F73f91BB8c4A2EdB762938E8e067d31\",\"implementations\":[],\"is_contract\":false,\"is_scam\":false,\"is_verified\":false,\"metadata\":null,\"name\":null,\"private_tags\":[],\"proxy_type\":null,\"public_tags\":[],\"watchlist_names\":[]},\"authorization_list\":[],\"method\":null,\"fee\":{\"type\":\"actual\",\"value\":\"86967138867000\"},\"actions\":[],\"gas_limit\":\"21000\",\"gas_price\":\"4141292327\",\"decoded_input\":null,\"token_transfers\":null,\"base_fee_per_gas\":\"4141138449\",\"timestamp\":\"2025-06-12T15:41:23.000000Z\",\"nonce\":55,\"historic_exchange_rate\":\"2775.54\",\"transaction_types\":[\"coin_transfer\"],\"exchange_rate\":\"2754.57\",\"block_number\":22689445,\"has_error_in_internal_transactions\":false},{\"priority_fee\":\"23675106000\",\"raw_input\":\"0x\",\"result\":\"success\",\"hash\":\"0x8c4ad28fae9e28ba85aa284ff3d7db28b01d3370b08f89a89a0777b6ff189262\",\"max_fee_per_gas\":\"4142265835\",\"revert_reason\":null,\"confirmation_duration\":[0,12000],\"transaction_burnt_fee\":\"86963907429000\",\"type\":2,\"token_transfers_overflow\":null,\"confirmations\":1,\"position\":157,\"max_priority_fee_per_gas\":\"401127620\",\"transaction_tag\":null,\"created_contract\":null,\"value\":\"4998200000000000000\",\"from\":{\"ens_domain_name\":null,\"hash\":\"0xC49E71b3f1CF4F6bDFdDb58b47B5b923BD22e12d\",\"implementations\":[],\"is_contract\":false,\"is_scam\":false,\"is_verified\":false,\"metadata\":null,\"name\":null,\"private_tags\":[],\"proxy_type\":null,\"public_tags\":[],\"watchlist_names\":[]},\"gas_used\":\"21000\",\"status\":\"ok\",\"to\":{\"ens_domain_name\":null,\"hash\":\"0xA6f80A1D7Ea6222Bb0D7c669717C1f479fF05Bba\",\"implementations\":[],\"is_contract\":false,\"is_scam\":false,\"is_verified\":false,\"metadata\":{\"tags\":[{\"meta\":{},\"name\":\"Binance\",\"ordinal\":0,\"slug\":\"binance\",\"tagType\":\"generic\"},{\"meta\":{},\"name\":\"DEPOSIT ADDRESS\",\"ordinal\":0,\"slug\":\"deposit-address\",\"tagType\":\"generic\"}]},\"name\":null,\"private_tags\":[],\"proxy_type\":null,\"public_tags\":[],\"watchlist_names\":[]},\"authorization_list\":[],\"method\":null,\"fee\":{\"type\":\"actual\",\"value\":\"86987582535000\"},\"actions\":[],\"gas_limit\":\"150000\",\"gas_price\":\"4142265835\",\"decoded_input\":null,\"token_transfers\":null,\"base_fee_per_gas\":\"4141138449\",\"timestamp\":\"2025-06-12T15:41:23.000000Z\",\"nonce\":25384,\"historic_exchange_rate\":\"2775.54\",\"transaction_types\":[\"coin_transfer\"],\"exchange_rate\":\"2754.57\",\"block_number\":22689445,\"has_error_in_internal_transactions\":false},{\"priority_fee\":\"28039803038\",\"raw_input\":\"0x1fff991f000000000000000000000000d8fe3fdf3d95d630cf65f7bd6ed9273d65f50aca000000000000000000000000a0b86991c6218b36c1d19d4a2e9eb0ce3606eb48000000000000000000000000000000000000000000000000000000000074ad3400000000000000000000000000000000000000000000000000000000000000a0fdb6ef30627fff52c661f61683528d000000000000000000000000000000000000000000000000000000000000000000000000000000000000000000000000040000000000000000000000000000000000000000000000000000000000000080000000000000000000000000000000000000000000000000000000000000018000000000000000000000000000000000000000000000000000000000000002c000000000000000000000000000000000000000000000000000000000000004a000000000000000000000000000000000000000000000000000000000000000c438c9c147000000000000000000000000eeeeeeeeeeeeeeeeeeeeeeeeeeeeeeeeeeeeeeee000000000000000000000000000000000000000000000000000000000000004600000000000000000000000086924c37a93734e8611eb081238928a9d18a63c0000000000000000000000000000000000000000000000000000000000000000000000000000000000000000000000000000000000000000000000000000000a0000000000000000000000000000000000000000000000000000000000000000000000000000000000000000000000000000000000000000000000000000000000000000000000000000000000000000000000000000000000000010438c9c147000000000000000000000000eeeeeeeeeeeeeeeeeeeeeeeeeeeeeeeeeeeeeeee0000000000000000000000000000000000000000000000000000000000002710000000000000000000000000c02aaa39b223fe8d0a0e5c4f27ead9083c756cc2000000000000000000000000000000000000000000000000000000000000000400000000000000000000000000000000000000000000000000000000000000a00000000000000000000000000000000000000000000000000000000000000024d0e30db00000000000000000000000000000000000000000000000000000000000000000000000000000000000000000000000000000000000000000000000000000000000000000000000000000000000000000000000000000000000000000000000000000000000000000000000000000000000000000000001a4d92aadfb0000000000000000000000005418226af9c8d5d287a78fbbbcd337b86ec07d61000000000000000000000000a0b86991c6218b36c1d19d4a2e9eb0ce3606eb480000000000000000000000000000000000000000000000000000000000760750ff9eec24058b739d57d6cbde709c5a0d521d903015709c02acf0eee5ec01aaf500000000000000000000000000000000000000000000000000000000684af550000000000000000000000000a8020ecbc321e0c8cea26b3507f207482d0100c20000000000000000000000000000000000000000000000000000000000000120000000000000000000000000c02aaa39b223fe8d0a0e5c4f27ead9083c756cc20000000000000000000000000000000000000000000000000009fcc18c1d16000000000000000000000000000000000000000000000000000000000000000041eeff1f0e01f44664db6f9600618fff9f8e9580c62a94fcea7fee889574bc35fb15549d09d152227d394b5b70a9ea96120639d1b8ba716080350a04cf556c87a11b0000000000000000000000000000000000000000000000000000000000000000000000000000000000000000000000000000000000000000000000000000000000000000000000000000000000000000000000000000000000012438c9c147000000000000000000000000a0b86991c6218b36c1d19d4a2e9eb0ce3606eb48000000000000000000000000000000000000000000000000000000000000000f000000000000000000000000a0b86991c6218b36c1d19d4a2e9eb0ce3606eb48000000000000000000000000000000000000000000000000000000000000002400000000000000000000000000000000000000000000000000000000000000a00000000000000000000000000000000000000000000000000000000000000044a9059cbb000000000000000000000000ad01c20d5886137e056775af56915de824c8fce500000000000000000000000000000000000000000000000000000000000000000000000000000000000000000000000000000000000000000000000000000000000000000000000000000000000000000000000000000000\",\"result\":\"success\",\"hash\":\"0xb6ff59700b880f475d717ddcfb4c4052d64a88b0ee342b7c580ebbbe180c287c\",\"max_fee_per_gas\":\"4971749124\",\"revert_reason\":null,\"confirmation_duration\":[0,12000],\"transaction_burnt_fee\":\"754602389315229\",\"type\":2,\"token_transfers_overflow\":null,\"confirmations\":1,\"position\":156,\"max_priority_fee_per_gas\":\"153878\",\"transaction_tag\":null,\"created_contract\":null,\"value\":\"2831000000000000\",\"from\":{\"ens_domain_name\":null,\"hash\":\"0xD8Fe3FDF3d95D630cF65f7BD6ed9273d65f50AcA\",\"implementations\":[],\"is_contract\":false,\"is_scam\":false,\"is_verified\":false,\"metadata\":null,\"name\":null,\"private_tags\":[],\"proxy_type\":null,\"public_tags\":[],\"watchlist_names\":[]},\"gas_used\":\"182221\",\"status\":\"ok\",\"to\":{\"ens_domain_name\":null,\"hash\":\"0x5418226aF9C8d5D287A78FbBbCD337b86ec07D61\",\"implementations\":[],\"is_contract\":true,\"is_scam\":false,\"is_verified\":true,\"metadata\":null,\"name\":\"MainnetSettler\",\"private_tags\":[],\"proxy_type\":\"unknown\",\"public_tags\":[],\"watchlist_names\":[]},\"authorization_list\":[],\"method\":\"execute\",\"fee\":{\"type\":\"actual\",\"value\":\"754630429118267\"},\"actions\":[],\"gas_limit\":\"270032\",\"gas_price\":\"4141292327\",\"decoded_input\":{\"method_call\":\"execute((address,address,uint256) slippage, bytes[] actions, bytes32 arg2)\",\"method_id\":\"1fff991f\",\"parameters\":[{\"name\":\"slippage\",\"type\":\"(address,address,uint256)\",\"value\":[\"0xD8Fe3FDF3d95D630cF65f7BD6ed9273d65f50AcA\",\"0xA0b86991c6218b36c1d19D4a2e9Eb0cE3606eB48\",\"7646516\"]},{\"name\":\"actions\",\"type\":\"bytes[]\",\"value\":[\"0x38c9c147000000000000000000000000eeeeeeeeeeeeeeeeeeeeeeeeeeeeeeeeeeeeeeee000000000000000000000000000000000000000000000000000000000000004600000000000000000000000086924c37a93734e8611eb081238928a9d18a63c0000000000000000000000000000000000000000000000000000000000000000000000000000000000000000000000000000000000000000000000000000000a00000000000000000000000000000000000000000000000000000000000000000\",\"0x38c9c147000000000000000000000000eeeeeeeeeeeeeeeeeeeeeeeeeeeeeeeeeeeeeeee0000000000000000000000000000000000000000000000000000000000002710000000000000000000000000c02aaa39b223fe8d0a0e5c4f27ead9083c756cc2000000000000000000000000000000000000000000000000000000000000000400000000000000000000000000000000000000000000000000000000000000a00000000000000000000000000000000000000000000000000000000000000024d0e30db0000000000000000000000000000000000000000000000000000000000000000000000000000000000000000000000000000000000000000000000000\",\"0xd92aadfb0000000000000000000000005418226af9c8d5d287a78fbbbcd337b86ec07d61000000000000000000000000a0b86991c6218b36c1d19d4a2e9eb0ce3606eb480000000000000000000000000000000000000000000000000000000000760750ff9eec24058b739d57d6cbde709c5a0d521d903015709c02acf0eee5ec01aaf500000000000000000000000000000000000000000000000000000000684af550000000000000000000000000a8020ecbc321e0c8cea26b3507f207482d0100c20000000000000000000000000000000000000000000000000000000000000120000000000000000000000000c02aaa39b223fe8d0a0e5c4f27ead9083c756cc20000000000000000000000000000000000000000000000000009fcc18c1d16000000000000000000000000000000000000000000000000000000000000000041eeff1f0e01f44664db6f9600618fff9f8e9580c62a94fcea7fee889574bc35fb15549d09d152227d394b5b70a9ea96120639d1b8ba716080350a04cf556c87a11b00000000000000000000000000000000000000000000000000000000000000\",\"0x38c9c147000000000000000000000000a0b86991c6218b36c1d19d4a2e9eb0ce3606eb48000000000000000000000000000000000000000000000000000000000000000f000000000000000000000000a0b86991c6218b36c1d19d4a2e9eb0ce3606eb48000000000000000000000000000000000000000000000000000000000000002400000000000000000000000000000000000000000000000000000000000000a00000000000000000000000000000000000000000000000000000000000000044a9059cbb000000000000000000000000ad01c20d5886137e056775af56915de824c8fce5000000000000000000000000000000000000000000000000000000000000000000000000000000000000000000000000000000000000000000000000\"]},{\"name\":\"arg2\",\"type\":\"bytes32\",\"value\":\"0xfdb6ef30627fff52c661f61683528d0000000000000000000000000000000000\"}]},\"token_transfers\":null,\"base_fee_per_gas\":\"4141138449\",\"timestamp\":\"2025-06-12T15:41:23.000000Z\",\"nonce\":1,\"historic_exchange_rate\":\"2775.54\",\"transaction_types\":[\"coin_transfer\",\"contract_call\",\"token_transfer\"],\"exchange_rate\":\"2754.57\",\"block_number\":22689445,\"has_error_in_internal_transactions\":false},{\"priority_fee\":null,\"raw_input\":\"0x\",\"result\":\"success\",\"hash\":\"0x486dd9c08c32847fbef56c58723e8ec18bf03453bf20ae3780c5d53d1fbb1e19\",\"max_fee_per_gas\":null,\"revert_reason\":null,\"confirmation_duration\":[0,12000],\"transaction_burnt_fee\":null,\"type\":0,\"token_transfers_overflow\":null,\"confirmations\":1,\"position\":155,\"max_priority_fee_per_gas\":null,\"transaction_tag\":null,\"created_contract\":null,\"value\":\"0\",\"from\":{\"ens_domain_name\":null,\"hash\":\"0xAEAef9aF9C78974D180D74e03D082D2a6B61Ed19\",\"implementations\":[],\"is_contract\":false,\"is_scam\":false,\"is_verified\":false,\"metadata\":null,\"name\":null,\"private_tags\":[],\"proxy_type\":null,\"public_tags\":[],\"watchlist_names\":[]},\"gas_used\":\"21000\",\"status\":\"ok\",\"to\":{\"ens_domain_name\":null,\"hash\":\"0xA1AcB3c02A18F14D2085850bE528913584beCE41\",\"implementations\":[],\"is_contract\":false,\"is_scam\":false,\"is_verified\":false,\"metadata\":null,\"name\":null,\"private_tags\":[],\"proxy_type\":null,\"public_tags\":[],\"watchlist_names\":[]},\"authorization_list\":[],\"method\":null,\"fee\":{\"type\":\"actual\",\"value\":\"87161409867000\"},\"actions\":[],\"gas_limit\":\"21000\",\"gas_price\":\"4150543327\",\"decoded_input\":null,\"token_transfers\":null,\"base_fee_per_gas\":\"4141138449\",\"timestamp\":\"2025-06-12T15:41:23.000000Z\",\"nonce\":0,\"historic_exchange_rate\":\"2775.54\",\"transaction_types\":[],\"exchange_rate\":\"2754.57\",\"block_number\":22689445,\"has_error_in_internal_transactions\":false},{\"priority_fee\":null,\"raw_input\":\"0x\",\"result\":\"success\",\"hash\":\"0x8bd74a41b3254c6d493ec8a4caa1ae80dab8ef49c3e979162a0dcbfe0e1b10bc\",\"max_fee_per_gas\":null,\"revert_reason\":null,\"confirmation_duration\":[0,12000],\"transaction_burnt_fee\":null,\"type\":0,\"token_transfers_overflow\":null,\"confirmations\":1,\"position\":154,\"max_priority_fee_per_gas\":null,\"transaction_tag\":null,\"created_contract\":null,\"value\":\"0\",\"from\":{\"ens_domain_name\":null,\"hash\":\"0xF440831d01badE4Bf0Bc4eFBA7E0080083E1E76e\",\"implementations\":[],\"is_contract\":false,\"is_scam\":false,\"is_verified\":false,\"metadata\":null,\"name\":null,\"private_tags\":[],\"proxy_type\":null,\"public_tags\":[],\"watchlist_names\":[]},\"gas_used\":\"21000\",\"status\":\"ok\",\"to\":{\"ens_domain_name\":null,\"hash\":\"0xCfC75A2EAA7E0Ef32701c6c33d39320cc368F29d\",\"implementations\":[],\"is_contract\":false,\"is_scam\":false,\"is_verified\":false,\"metadata\":null,\"name\":null,\"private_tags\":[],\"proxy_type\":null,\"public_tags\":[],\"watchlist_names\":[]},\"authorization_list\":[],\"method\":null,\"fee\":{\"type\":\"actual\",\"value\":\"87161409867000\"},\"actions\":[],\"gas_limit\":\"21000\",\"gas_price\":\"4150543327\",\"decoded_input\":null,\"token_transfers\":null,\"base_fee_per_gas\":\"4141138449\",\"timestamp\":\"2025-06-12T15:41:23.000000Z\",\"nonce\":0,\"historic_exchange_rate\":\"2775.54\",\"transaction_types\":[],\"exchange_rate\":\"2754.57\",\"block_number\":22689445,\"has_error_in_internal_transactions\":false},{\"priority_fee\":\"226173924548\",\"raw_input\":\"0x6a76120200000000000000000000000087870bca3f3fd6335c3f4ce8392d69350b4fa4e20000000000000000000000000000000000000000000000000000000000000000000000000000000000000000000000000000000000000000000000000000014000000000000000000000000000000000000000000000000000000000000000000000000000000000000000000000000000000000000000000000000000000000000000000000000000000000000000000000000000000000000000000000000000000000000000000000000000000000000000000000000000000000000000000000000000000000000000000000000000000000000000000000000000000000000000000000000000000000000000000000000000000000000000000000000000000000000000000000000000000000000000000000000000000000000002000000000000000000000000000000000000000000000000000000000000000084617ba037000000000000000000000000dac17f958d2ee523a2206206994597c13d831ec7000000000000000000000000000000000000000000000000000009f972939020000000000000000000000000ec4b5628785a562f4912cadb1f9658d43a89b31400000000000000000000000000000000000000000000000000000000000000000000000000000000000000000000000000000000000000000000000000000000000000000000000000000000000000000000000000000000000000821cf64d48f9faea8a6fe13f0d2456df6985c17f0d986942a56e5e485c4bff627624dd4e48591aa547b0faa19c3e67a86959ea848c3b760b68191c73dcbd42fefe1b4c1e8120e97027ed6cd31ceefa4043148443b1b187b1aae534d74cf43cbd522b75420bb9374b203430acd91b5af701ed85525b4b554a1a78cc24820b55fa29921b000000000000000000000000000000000000000000000000000000000000\",\"result\":\"success\",\"hash\":\"0x2fba80b56b3e7969160e425c98ece0010d1b756eb755dc6a839f0e96a6f36d81\",\"max_fee_per_gas\":\"4142265835\",\"revert_reason\":null,\"confirmation_duration\":[0,12000],\"transaction_burnt_fee\":\"830786913361482\",\"type\":2,\"token_transfers_overflow\":null,\"confirmations\":1,\"position\":153,\"max_priority_fee_per_gas\":\"401127620\",\"transaction_tag\":null,\"created_contract\":null,\"value\":\"0\",\"from\":{\"ens_domain_name\":null,\"hash\":\"0x08D4658F5ED7e593177ef6eF407B2f64e6fBF3D4\",\"implementations\":[],\"is_contract\":false,\"is_scam\":false,\"is_verified\":false,\"metadata\":null,\"name\":null,\"private_tags\":[],\"proxy_type\":null,\"public_tags\":[],\"watchlist_names\":[]},\"gas_used\":\"200618\",\"status\":\"ok\",\"to\":{\"ens_domain_name\":null,\"hash\":\"0xeC4B5628785A562f4912CADb1f9658d43A89b314\",\"implementations\":[],\"is_contract\":true,\"is_scam\":false,\"is_verified\":false,\"metadata\":null,\"name\":null,\"private_tags\":[],\"proxy_type\":null,\"public_tags\":[],\"watchlist_names\":[]},\"authorization_list\":[],\"method\":\"execTransaction\",\"fee\":{\"type\":\"actual\",\"value\":\"831013087286030\"},\"actions\":[],\"gas_limit\":\"214312\",\"gas_price\":\"4142265835\",\"decoded_input\":{\"method_call\":\"execTransaction(address to, uint256 value, bytes data, uint8 operation, uint256 safeTxGas, uint256 baseGas, uint256 gasPrice, address gasToken, address refundReceiver, bytes signatures)\",\"method_id\":\"6a761202\",\"parameters\":[{\"name\":\"to\",\"type\":\"address\",\"value\":\"0x87870Bca3F3fD6335C3F4ce8392D69350B4fA4E2\"},{\"name\":\"value\",\"type\":\"uint256\",\"value\":\"0\"},{\"name\":\"data\",\"type\":\"bytes\",\"value\":\"0x617ba037000000000000000000000000dac17f958d2ee523a2206206994597c13d831ec7000000000000000000000000000000000000000000000000000009f972939020000000000000000000000000ec4b5628785a562f4912cadb1f9658d43a89b3140000000000000000000000000000000000000000000000000000000000000000\"},{\"name\":\"operation\",\"type\":\"uint8\",\"value\":\"0\"},{\"name\":\"safeTxGas\",\"type\":\"uint256\",\"value\":\"0\"},{\"name\":\"baseGas\",\"type\":\"uint256\",\"value\":\"0\"},{\"name\":\"gasPrice\",\"type\":\"uint256\",\"value\":\"0\"},{\"name\":\"gasToken\",\"type\":\"address\",\"value\":\"0x0000000000000000000000000000000000000000\"},{\"name\":\"refundReceiver\",\"type\":\"address\",\"value\":\"0x0000000000000000000000000000000000000000\"},{\"name\":\"signatures\",\"type\":\"bytes\",\"value\":\"0x1cf64d48f9faea8a6fe13f0d2456df6985c17f0d986942a56e5e485c4bff627624dd4e48591aa547b0faa19c3e67a86959ea848c3b760b68191c73dcbd42fefe1b4c1e8120e97027ed6cd31ceefa4043148443b1b187b1aae534d74cf43cbd522b75420bb9374b203430acd91b5af701ed85525b4b554a1a78cc24820b55fa29921b\"}]},\"token_transfers\":null,\"base_fee_per_gas\":\"4141138449\",\"timestamp\":\"2025-06-12T15:41:23.000000Z\",\"nonce\":49,\"historic_exchange_rate\":\"2775.54\",\"transaction_types\":[\"contract_call\",\"token_transfer\"],\"exchange_rate\":\"2754.57\",\"block_number\":22689445,\"has_error_in_internal_transactions\":false},{\"priority_fee\":null,\"raw_input\":\"0x\",\"result\":\"success\",\"hash\":\"0x4ca0bfda5ce2cf67208ce942348ad51ed79459faf99f71be0412727db9eb104e\",\"max_fee_per_gas\":null,\"revert_reason\":null,\"confirmation_duration\":[0,12000],\"transaction_burnt_fee\":null,\"type\":0,\"token_transfers_overflow\":null,\"confirmations\":1,\"position\":152,\"max_priority_fee_per_gas\":null,\"transaction_tag\":null,\"created_contract\":null,\"value\":\"69092312383157900\",\"from\":{\"ens_domain_name\":null,\"hash\":\"0xFb19ffd1Ff9316b7f5Bba076eF4b78E4bBeDf4E1\",\"implementations\":[],\"is_contract\":false,\"is_scam\":false,\"is_verified\":false,\"metadata\":null,\"name\":null,\"private_tags\":[],\"proxy_type\":null,\"public_tags\":[],\"watchlist_names\":[]},\"gas_used\":\"21000\",\"status\":\"ok\",\"to\":{\"ens_domain_name\":null,\"hash\":\"0xc773De265202A2C4da1dB07dD1df4e85ABB653D3\",\"implementations\":[],\"is_contract\":false,\"is_scam\":false,\"is_verified\":false,\"metadata\":null,\"name\":null,\"private_tags\":[],\"proxy_type\":null,\"public_tags\":[],\"watchlist_names\":[]},\"authorization_list\":[],\"method\":null,\"fee\":{\"type\":\"actual\",\"value\":\"87661889112000\"},\"actions\":[],\"gas_limit\":\"21000\",\"gas_price\":\"4174375672\",\"decoded_input\":null,\"token_transfers\":null,\"base_fee_per_gas\":\"4141138449\",\"timestamp\":\"2025-06-12T15:41:23.000000Z\",\"nonce\":276253,\"historic_exchange_rate\":\"2775.54\",\"transaction_types\":[\"coin_transfer\"],\"exchange_rate\":\"2754.57\",\"block_number\":22689445,\"has_error_in_internal_transactions\":false},{\"priority_fee\":null,\"raw_input\":\"0x\",\"result\":\"success\",\"hash\":\"0xfac36ad81bed43bbec845ca10719c5beaaef5ca6db0dd5c6ee634ce0a802f533\",\"max_fee_per_gas\":null,\"revert_reason\":null,\"confirmation_duration\":[0,12000],\"transaction_burnt_fee\":null,\"type\":0,\"token_transfers_overflow\":null,\"confirmations\":1,\"position\":151,\"max_priority_fee_per_gas\":null,\"transaction_tag\":null,\"created_contract\":null,\"value\":\"696617359363661000\",\"from\":{\"ens_domain_name\":null,\"hash\":\"0xbb5c3C17230223CF74A775Ca60DFCfe3F375BD1c\",\"implementations\":[],\"is_contract\":false,\"is_scam\":false,\"is_verified\":false,\"metadata\":null,\"name\":null,\"private_tags\":[],\"proxy_type\":null,\"public_tags\":[],\"watchlist_names\":[]},\"gas_used\":\"21000\",\"status\":\"ok\",\"to\":{\"ens_domain_name\":null,\"hash\":\"0xD9f617fEae10475a39ee811b0dA53352F82Bb8E3\",\"implementations\":[],\"is_contract\":false,\"is_scam\":false,\"is_verified\":false,\"metadata\":null,\"name\":null,\"private_tags\":[],\"proxy_type\":null,\"public_tags\":[],\"watchlist_names\":[]},\"authorization_list\":[],\"method\":null,\"fee\":{\"type\":\"actual\",\"value\":\"87704079582000\"},\"actions\":[],\"gas_limit\":\"21000\",\"gas_price\":\"4176384742\",\"decoded_input\":null,\"token_transfers\":null,\"base_fee_per_gas\":\"4141138449\",\"timestamp\":\"2025-06-12T15:41:23.000000Z\",\"nonce\":4,\"historic_exchange_rate\":\"2775.54\",\"transaction_types\":[\"coin_transfer\"],\"exchange_rate\":\"2754.57\",\"block_number\":22689445,\"has_error_in_internal_transactions\":false},{\"priority_fee\":\"1308299979000\",\"raw_input\":\"0x\",\"result\":\"success\",\"hash\":\"0x4171d6d983f78f2715b91b8313f0f737b538c574cc0cc59c75f729bcdc01fc7f\",\"max_fee_per_gas\":\"5378865454\",\"revert_reason\":null,\"confirmation_duration\":[0,12000],\"transaction_burnt_fee\":\"86963907429000\",\"type\":2,\"token_transfers_overflow\":null,\"confirmations\":1,\"position\":150,\"max_priority_fee_per_gas\":\"62299999\",\"transaction_tag\":null,\"created_contract\":null,\"value\":\"13217594753694537\",\"from\":{\"ens_domain_name\":null,\"hash\":\"0xd2E89d4f134ef1245eC5A971d24c9Acfd255CdF3\",\"implementations\":[],\"is_contract\":false,\"is_scam\":false,\"is_verified\":false,\"metadata\":null,\"name\":null,\"private_tags\":[],\"proxy_type\":null,\"public_tags\":[],\"watchlist_names\":[]},\"gas_used\":\"21000\",\"status\":\"ok\",\"to\":{\"ens_domain_name\":null,\"hash\":\"0x307576Dd4F73f91BB8c4A2EdB762938E8e067d31\",\"implementations\":[],\"is_contract\":false,\"is_scam\":false,\"is_verified\":false,\"metadata\":null,\"name\":null,\"private_tags\":[],\"proxy_type\":null,\"public_tags\":[],\"watchlist_names\":[]},\"authorization_list\":[],\"method\":null,\"fee\":{\"type\":\"actual\",\"value\":\"88272207408000\"},\"actions\":[],\"gas_limit\":\"21000\",\"gas_price\":\"4203438448\",\"decoded_input\":null,\"token_transfers\":null,\"base_fee_per_gas\":\"4141138449\",\"timestamp\":\"2025-06-12T15:41:23.000000Z\",\"nonce\":3,\"historic_exchange_rate\":\"2775.54\",\"transaction_types\":[\"coin_transfer\"],\"exchange_rate\":\"2754.57\",\"block_number\":22689445,\"has_error_in_internal_transactions\":false},{\"priority_fee\":\"1659000000000\",\"raw_input\":\"0x\",\"result\":\"success\",\"hash\":\"0x9b53e4c3833b73961fb5bc6feff6a2d3a6e2308df041b922df2be3b5b69937ad\",\"max_fee_per_gas\":\"5604985521\",\"revert_reason\":null,\"confirmation_duration\":[0,12000],\"transaction_burnt_fee\":\"86963907429000\",\"type\":2,\"token_transfers_overflow\":null,\"confirmations\":1,\"position\":149,\"max_priority_fee_per_gas\":\"79000000\",\"transaction_tag\":null,\"created_contract\":null,\"value\":\"100354435079133730\",\"from\":{\"ens_domain_name\":null,\"hash\":\"0x8b71A97C1d81EDb301a1e6ee73f1fa1909ec1Ca9\",\"implementations\":[],\"is_contract\":false,\"is_scam\":false,\"is_verified\":false,\"metadata\":null,\"name\":null,\"private_tags\":[],\"proxy_type\":null,\"public_tags\":[],\"watchlist_names\":[]},\"gas_used\":\"21000\",\"status\":\"ok\",\"to\":{\"ens_domain_name\":null,\"hash\":\"0xCF7BA68418a0bDE6E945312eBe34F4172F4859d7\",\"implementations\":[],\"is_contract\":false,\"is_scam\":false,\"is_verified\":false,\"metadata\":null,\"name\":null,\"private_tags\":[],\"proxy_type\":null,\"public_tags\":[],\"watchlist_names\":[]},\"authorization_list\":[],\"method\":null,\"fee\":{\"type\":\"actual\",\"value\":\"88622907429000\"},\"actions\":[],\"gas_limit\":\"21000\",\"gas_price\":\"4220138449\",\"decoded_input\":null,\"token_transfers\":null,\"base_fee_per_gas\":\"4141138449\",\"timestamp\":\"2025-06-12T15:41:23.000000Z\",\"nonce\":22632,\"historic_exchange_rate\":\"2775.54\",\"transaction_types\":[\"coin_transfer\"],\"exchange_rate\":\"2754.57\",\"block_number\":22689445,\"has_error_in_internal_transactions\":false},{\"priority_fee\":\"1659000000000\",\"raw_input\":\"0x\",\"result\":\"success\",\"hash\":\"0xde65a724e84a1dcda62e19820ccb97286e5fcbedcba668177807527af248540f\",\"max_fee_per_gas\":\"8400000000\",\"revert_reason\":null,\"confirmation_duration\":[0,12000],\"transaction_burnt_fee\":\"86963907429000\",\"type\":2,\"token_transfers_overflow\":null,\"confirmations\":1,\"position\":148,\"max_priority_fee_per_gas\":\"79000000\",\"transaction_tag\":null,\"created_contract\":null,\"value\":\"60062310709608330\",\"from\":{\"ens_domain_name\":null,\"hash\":\"0xd72BB5A972D8D13b3B31088D366F0F2f6F9dC2e1\",\"implementations\":[],\"is_contract\":false,\"is_scam\":false,\"is_verified\":false,\"metadata\":null,\"name\":null,\"private_tags\":[],\"proxy_type\":null,\"public_tags\":[],\"watchlist_names\":[]},\"gas_used\":\"21000\",\"status\":\"ok\",\"to\":{\"ens_domain_name\":null,\"hash\":\"0x06CD0eEC4a6d2574daE74b8670f0291422aC1156\",\"implementations\":[],\"is_contract\":false,\"is_scam\":false,\"is_verified\":false,\"metadata\":null,\"name\":null,\"private_tags\":[],\"proxy_type\":null,\"public_tags\":[],\"watchlist_names\":[]},\"authorization_list\":[],\"method\":null,\"fee\":{\"type\":\"actual\",\"value\":\"88622907429000\"},\"actions\":[],\"gas_limit\":\"23100\",\"gas_price\":\"4220138449\",\"decoded_input\":null,\"token_transfers\":null,\"base_fee_per_gas\":\"4141138449\",\"timestamp\":\"2025-06-12T15:41:23.000000Z\",\"nonce\":21,\"historic_exchange_rate\":\"2775.54\",\"transaction_types\":[\"coin_transfer\"],\"exchange_rate\":\"2754.57\",\"block_number\":22689445,\"has_error_in_internal_transactions\":false},{\"priority_fee\":\"1869000000000\",\"raw_input\":\"0x\",\"result\":\"success\",\"hash\":\"0xf88ccdb7887a7c8203e15ee761e9f57ec35d33cf261dda0b5597400b0692c104\",\"max_fee_per_gas\":\"5405565455\",\"revert_reason\":null,\"confirmation_duration\":[0,12000],\"transaction_burnt_fee\":\"86963907429000\",\"type\":2,\"token_transfers_overflow\":null,\"confirmations\":1,\"position\":147,\"max_priority_fee_per_gas\":\"89000000\",\"transaction_tag\":null,\"created_contract\":null,\"value\":\"410255270000000000\",\"from\":{\"ens_domain_name\":null,\"hash\":\"0x22fFF189C37302C02635322911c3B64f80CE7203\",\"implementations\":[],\"is_contract\":false,\"is_scam\":false,\"is_verified\":false,\"metadata\":null,\"name\":null,\"private_tags\":[],\"proxy_type\":null,\"public_tags\":[],\"watchlist_names\":[]},\"gas_used\":\"21000\",\"status\":\"ok\",\"to\":{\"ens_domain_name\":null,\"hash\":\"0xA0979784f3EadEABD4CC0E0bfbebaBC2B65dd0d0\",\"implementations\":[],\"is_contract\":false,\"is_scam\":false,\"is_verified\":false,\"metadata\":null,\"name\":null,\"private_tags\":[],\"proxy_type\":null,\"public_tags\":[],\"watchlist_names\":[]},\"authorization_list\":[],\"method\":null,\"fee\":{\"type\":\"actual\",\"value\":\"88832907429000\"},\"actions\":[],\"gas_limit\":\"21000\",\"gas_price\":\"4230138449\",\"decoded_input\":null,\"token_transfers\":null,\"base_fee_per_gas\":\"4141138449\",\"timestamp\":\"2025-06-12T15:41:23.000000Z\",\"nonce\":158367,\"historic_exchange_rate\":\"2775.54\",\"transaction_types\":[\"coin_transfer\"],\"exchange_rate\":\"2754.57\",\"block_number\":22689445,\"has_error_in_internal_transactions\":false},{\"priority_fee\":null,\"raw_input\":\"0x\",\"result\":\"success\",\"hash\":\"0x29cefb1994b3f4985ce6a591571a68c7cde4f179732d90b9c45af182316edaec\",\"max_fee_per_gas\":null,\"revert_reason\":null,\"confirmation_duration\":[0,12000],\"transaction_burnt_fee\":null,\"type\":0,\"token_transfers_overflow\":null,\"confirmations\":1,\"position\":146,\"max_priority_fee_per_gas\":null,\"transaction_tag\":null,\"created_contract\":null,\"value\":\"18022816953612125\",\"from\":{\"ens_domain_name\":null,\"hash\":\"0x0B71711a376f28686366e0afb9c39e6771cfF1f5\",\"implementations\":[],\"is_contract\":false,\"is_scam\":false,\"is_verified\":false,\"metadata\":null,\"name\":null,\"private_tags\":[],\"proxy_type\":null,\"public_tags\":[],\"watchlist_names\":[]},\"gas_used\":\"21000\",\"status\":\"ok\",\"to\":{\"ens_domain_name\":null,\"hash\":\"0x611Ca9e25D1776E42964f341180FF3A7b0985D5b\",\"implementations\":[],\"is_contract\":false,\"is_scam\":false,\"is_verified\":false,\"metadata\":null,\"name\":null,\"private_tags\":[],\"proxy_type\":null,\"public_tags\":[],\"watchlist_names\":[]},\"authorization_list\":[],\"method\":null,\"fee\":{\"type\":\"actual\",\"value\":\"89075171955000\"},\"actions\":[],\"gas_limit\":\"21000\",\"gas_price\":\"4241674855\",\"decoded_input\":null,\"token_transfers\":null,\"base_fee_per_gas\":\"4141138449\",\"timestamp\":\"2025-06-12T15:41:23.000000Z\",\"nonce\":9,\"historic_exchange_rate\":\"2775.54\",\"transaction_types\":[\"coin_transfer\"],\"exchange_rate\":\"2754.57\",\"block_number\":22689445,\"has_error_in_internal_transactions\":false},{\"priority_fee\":\"2131104000000\",\"raw_input\":\"0x095ea7b3000000000000000000000000b965602e41af7a92b3f4b48729736aded9c94e47000000000000000000000000000000000000000000000000000001b84c7c7ab1\",\"result\":\"success\",\"hash\":\"0xdc16b5759fe9d7f8f34f08d66e9625ac6eb58745aa7ed6b11f67a766f6d8fa1f\",\"max_fee_per_gas\":\"8400000000\",\"revert_reason\":null,\"confirmation_duration\":[0,12000],\"transaction_burnt_fee\":\"111711350800224\",\"type\":2,\"token_transfers_overflow\":null,\"confirmations\":1,\"position\":145,\"max_priority_fee_per_gas\":\"79000000\",\"transaction_tag\":null,\"created_contract\":null,\"value\":\"0\",\"from\":{\"ens_domain_name\":null,\"hash\":\"0x6de2E6015020cA72B32fb1bEB08a0EdA4FcB63de\",\"implementations\":[],\"is_contract\":false,\"is_scam\":false,\"is_verified\":false,\"metadata\":null,\"name\":null,\"private_tags\":[],\"proxy_type\":null,\"public_tags\":[],\"watchlist_names\":[]},\"gas_used\":\"26976\",\"status\":\"ok\",\"to\":{\"ens_domain_name\":null,\"hash\":\"0xd21d59D9585ECa561AE5Bfa871d1b7289E36EfA8\",\"implementations\":[],\"is_contract\":true,\"is_scam\":false,\"is_verified\":false,\"metadata\":null,\"name\":\"AyeAyeCoin\",\"private_tags\":[],\"proxy_type\":\"unknown\",\"public_tags\":[],\"watchlist_names\":[]},\"authorization_list\":[],\"method\":\"approve\",\"fee\":{\"type\":\"actual\",\"value\":\"113842454800224\"},\"actions\":[],\"gas_limit\":\"27320\",\"gas_price\":\"4220138449\",\"decoded_input\":{\"method_call\":\"approve(address _to, uint256 _tokenId)\",\"method_id\":\"095ea7b3\",\"parameters\":[{\"name\":\"_to\",\"type\":\"address\",\"value\":\"0xb965602E41Af7A92B3F4b48729736Aded9C94E47\"},{\"name\":\"_tokenId\",\"type\":\"uint256\",\"value\":\"1891068836529\"}]},\"token_transfers\":null,\"base_fee_per_gas\":\"4141138449\",\"timestamp\":\"2025-06-12T15:41:23.000000Z\",\"nonce\":120,\"historic_exchange_rate\":\"2775.54\",\"transaction_types\":[\"contract_call\"],\"exchange_rate\":\"2754.57\",\"block_number\":22689445,\"has_error_in_internal_transactions\":false},{\"priority_fee\":\"3730933000000\",\"raw_input\":\"0x095ea7b3000000000000000000000000000000000022d473030f116ddee9f6b43ac78ba3ffffffffffffffffffffffffffffffffffffffffffffffffffffffffffffffff\",\"result\":\"success\",\"hash\":\"0xe754a87bb7fd3feafc74ed846e25aa3b5e38a5e9842d59f278cc09da7179d5b4\",\"max_fee_per_gas\":\"8600000000\",\"revert_reason\":null,\"confirmation_duration\":[0,12000],\"transaction_burnt_fee\":\"195573545530923\",\"type\":2,\"token_transfers_overflow\":null,\"confirmations\":1,\"position\":144,\"max_priority_fee_per_gas\":\"79000000\",\"transaction_tag\":null,\"created_contract\":null,\"value\":\"0\",\"from\":{\"ens_domain_name\":null,\"hash\":\"0xe459797011Fc8A3B18AA296ea2467eb7eeD3da00\",\"implementations\":[],\"is_contract\":false,\"is_scam\":false,\"is_verified\":false,\"metadata\":null,\"name\":null,\"private_tags\":[],\"proxy_type\":null,\"public_tags\":[],\"watchlist_names\":[]},\"gas_used\":\"47227\",\"status\":\"ok\",\"to\":{\"ens_domain_name\":null,\"hash\":\"0x44ff8620b8cA30902395A7bD3F2407e1A091BF73\",\"implementations\":[],\"is_contract\":true,\"is_scam\":false,\"is_verified\":true,\"metadata\":null,\"name\":\"Virtuals Protocol\",\"private_tags\":[],\"proxy_type\":\"unknown\",\"public_tags\":[],\"watchlist_names\":[]},\"authorization_list\":[],\"method\":\"approve\",\"fee\":{\"type\":\"actual\",\"value\":\"199304478530923\"},\"actions\":[],\"gas_limit\":\"54752\",\"gas_price\":\"4220138449\",\"decoded_input\":{\"method_call\":\"approve(address spender, uint256 value)\",\"method_id\":\"095ea7b3\",\"parameters\":[{\"name\":\"spender\",\"type\":\"address\",\"value\":\"0x000000000022D473030F116dDEE9F6B43aC78BA3\"},{\"name\":\"value\",\"type\":\"uint256\",\"value\":\"115792089237316195423570985008687907853269984665640564039457584007913129639935\"}]},\"token_transfers\":null,\"base_fee_per_gas\":\"4141138449\",\"timestamp\":\"2025-06-12T15:41:23.000000Z\",\"nonce\":0,\"historic_exchange_rate\":\"2775.54\",\"transaction_types\":[\"contract_call\"],\"exchange_rate\":\"2754.57\",\"block_number\":22689445,\"has_error_in_internal_transactions\":false},{\"priority_fee\":\"3756292000000\",\"raw_input\":\"0xa9059cbb00000000000000000000000038f1110bb419798882652b955a6779659fe38d3f0000000000000000000000000000000000000000000000008ac7230489e80000\",\"result\":\"success\",\"hash\":\"0xceca864575c3472f4feeecb84a16cbd0e575ef1729e05ed778c6ba9323c06bac\",\"max_fee_per_gas\":\"8600000000\",\"revert_reason\":null,\"confirmation_duration\":[0,12000],\"transaction_burnt_fee\":\"196902850973052\",\"type\":2,\"token_transfers_overflow\":null,\"confirmations\":1,\"position\":143,\"max_priority_fee_per_gas\":\"79000000\",\"transaction_tag\":null,\"created_contract\":null,\"value\":\"0\",\"from\":{\"ens_domain_name\":null,\"hash\":\"0x084D452101af46DE8Dda2F606eD8f63FDEed7398\",\"implementations\":[],\"is_contract\":false,\"is_scam\":false,\"is_verified\":false,\"metadata\":null,\"name\":null,\"private_tags\":[],\"proxy_type\":null,\"public_tags\":[],\"watchlist_names\":[]},\"gas_used\":\"47548\",\"status\":\"ok\",\"to\":{\"ens_domain_name\":null,\"hash\":\"0xEfC814a4C676a7314a13954e283dE6CEF597e6b2\",\"implementations\":[],\"is_contract\":true,\"is_scam\":false,\"is_verified\":true,\"metadata\":null,\"name\":\"Token\",\"private_tags\":[],\"proxy_type\":\"unknown\",\"public_tags\":[],\"watchlist_names\":[]},\"authorization_list\":[],\"method\":\"transfer\",\"fee\":{\"type\":\"actual\",\"value\":\"200659142973052\"},\"actions\":[],\"gas_limit\":\"57780\",\"gas_price\":\"4220138449\",\"decoded_input\":{\"method_call\":\"transfer(address recipient, uint256 amount)\",\"method_id\":\"a9059cbb\",\"parameters\":[{\"name\":\"recipient\",\"type\":\"address\",\"value\":\"0x38F1110Bb419798882652b955a6779659fE38D3F\"},{\"name\":\"amount\",\"type\":\"uint256\",\"value\":\"10000000000000000000\"}]},\"token_transfers\":null,\"base_fee_per_gas\":\"4141138449\",\"timestamp\":\"2025-06-12T15:41:23.000000Z\",\"nonce\":0,\"historic_exchange_rate\":\"2775.54\",\"transaction_types\":[\"contract_call\",\"token_transfer\"],\"exchange_rate\":\"2754.57\",\"block_number\":22689445,\"has_error_in_internal_transactions\":false},{\"priority_fee\":\"4096492000000\",\"raw_input\":\"0x095ea7b3000000000000000000000000888888888889758f76e7103c6cbf23abbf58f94600000000000000000000000000000000000000000000007aeec45d7a947e4e5e\",\"result\":\"success\",\"hash\":\"0x89362f2676891df336debcd41ac1c1e97468f95f1a179de53392e912d7ea209f\",\"max_fee_per_gas\":\"4230138449\",\"revert_reason\":null,\"confirmation_duration\":[0,12000],\"transaction_burnt_fee\":\"190608320530572\",\"type\":2,\"token_transfers_overflow\":null,\"confirmations\":1,\"position\":142,\"max_priority_fee_per_gas\":\"89000000\",\"transaction_tag\":null,\"created_contract\":null,\"value\":\"0\",\"from\":{\"ens_domain_name\":null,\"hash\":\"0xA6708f4A6a596aD3B6CEc4F66989626acBD01163\",\"implementations\":[],\"is_contract\":false,\"is_scam\":false,\"is_verified\":false,\"metadata\":null,\"name\":null,\"private_tags\":[],\"proxy_type\":null,\"public_tags\":[],\"watchlist_names\":[]},\"gas_used\":\"46028\",\"status\":\"ok\",\"to\":{\"ens_domain_name\":null,\"hash\":\"0xFfEc096c087C13Cc268497B89A613cACE4DF9A48\",\"implementations\":[],\"is_contract\":true,\"is_scam\":false,\"is_verified\":true,\"metadata\":null,\"name\":\"PendlePrincipalToken\",\"private_tags\":[],\"proxy_type\":\"unknown\",\"public_tags\":[],\"watchlist_names\":[]},\"authorization_list\":[],\"method\":\"approve\",\"fee\":{\"type\":\"actual\",\"value\":\"194704812530572\"},\"actions\":[],\"gas_limit\":\"146410\",\"gas_price\":\"4230138449\",\"decoded_input\":{\"method_call\":\"approve(address spender, uint256 amount)\",\"method_id\":\"095ea7b3\",\"parameters\":[{\"name\":\"spender\",\"type\":\"address\",\"value\":\"0x888888888889758F76e7103c6CbF23ABbF58F946\"},{\"name\":\"amount\",\"type\":\"uint256\",\"value\":\"2267707756250086133342\"}]},\"token_transfers\":null,\"base_fee_per_gas\":\"4141138449\",\"timestamp\":\"2025-06-12T15:41:23.000000Z\",\"nonce\":94,\"historic_exchange_rate\":\"2775.54\",\"transaction_types\":[\"contract_call\"],\"exchange_rate\":\"2754.57\",\"block_number\":22689445,\"has_error_in_internal_transactions\":false},{\"priority_fee\":\"4102633000000\",\"raw_input\":\"0xa9059cbb000000000000000000000000e6acd80c48a730e47c9db3b23fdcc3459c0faf6e00000000000000000000000000000000000000000000000000000000202fbf00\",\"result\":\"success\",\"hash\":\"0xb44c74ab77f3d4eaae35640110392c62123734a1f3b79f36f3c439ea6efab7d7\",\"max_fee_per_gas\":\"4787259722\",\"revert_reason\":null,\"confirmation_duration\":[0,12000],\"transaction_burnt_fee\":\"190894059083553\",\"type\":2,\"token_transfers_overflow\":null,\"confirmations\":1,\"position\":141,\"max_priority_fee_per_gas\":\"89000000\",\"transaction_tag\":null,\"created_contract\":null,\"value\":\"0\",\"from\":{\"ens_domain_name\":null,\"hash\":\"0xDcfCB3e1E31288daB9a138a631c0eb6Cc572CD19\",\"implementations\":[],\"is_contract\":false,\"is_scam\":false,\"is_verified\":false,\"metadata\":null,\"name\":null,\"private_tags\":[],\"proxy_type\":null,\"public_tags\":[],\"watchlist_names\":[]},\"gas_used\":\"46097\",\"status\":\"ok\",\"to\":{\"ens_domain_name\":null,\"hash\":\"0xdAC17F958D2ee523a2206206994597C13D831ec7\",\"implementations\":[],\"is_contract\":true,\"is_scam\":false,\"is_verified\":true,\"metadata\":{\"tags\":[{\"meta\":{\"tooltipDescription\":\"Tether gives you the joint benefits of open blockchain technology and traditional currency by converting your cash into a stable digital currency equivalent.\",\"tooltipUrl\":\"https://tether.to/\"},\"name\":\"Tether: USDT Stablecoin\",\"ordinal\":10,\"slug\":\"tether-usdt-stablecoin\",\"tagType\":\"name\"},{\"meta\":{},\"name\":\"Tether\",\"ordinal\":0,\"slug\":\"tether\",\"tagType\":\"protocol\"},{\"meta\":{},\"name\":\"Token Contract\",\"ordinal\":0,\"slug\":\"token-contract\",\"tagType\":\"generic\"},{\"meta\":{},\"name\":\"Stablecoin\",\"ordinal\":0,\"slug\":\"stablecoin\",\"tagType\":\"generic\"}]},\"name\":\"Tether\",\"private_tags\":[],\"proxy_type\":\"unknown\",\"public_tags\":[],\"watchlist_names\":[]},\"authorization_list\":[],\"method\":\"transfer\",\"fee\":{\"type\":\"actual\",\"value\":\"194996692083553\"},\"actions\":[],\"gas_limit\":\"51126\",\"gas_price\":\"4230138449\",\"decoded_input\":{\"method_call\":\"transfer(address _to, uint256 _value)\",\"method_id\":\"a9059cbb\",\"parameters\":[{\"name\":\"_to\",\"type\":\"address\",\"value\":\"0xe6acD80C48A730E47C9DB3b23FDCC3459c0FAF6e\"},{\"name\":\"_value\",\"type\":\"uint256\",\"value\":\"540000000\"}]},\"token_transfers\":null,\"base_fee_per_gas\":\"4141138449\",\"timestamp\":\"2025-06-12T15:41:23.000000Z\",\"nonce\":4,\"historic_exchange_rate\":\"2775.54\",\"transaction_types\":[\"contract_call\",\"token_transfer\"],\"exchange_rate\":\"2754.57\",\"block_number\":22689445,\"has_error_in_internal_transactions\":false},{\"priority_fee\":\"4143000000000\",\"raw_input\":\"0xa9059cbb000000000000000000000000246edcda7ca58f15f0a18c4318f08ef0376a352e00000000000000000000000000000000000000000000002111735814dc480000\",\"result\":\"success\",\"hash\":\"0xfc86d58036fab7d620db479943825fc8e13377b2618b60e92ae7a77d013b9261\",\"max_fee_per_gas\":\"4779439890\",\"revert_reason\":null,\"confirmation_duration\":[0,12000],\"transaction_burnt_fee\":\"171567365942070\",\"type\":2,\"token_transfers_overflow\":null,\"confirmations\":1,\"position\":140,\"max_priority_fee_per_gas\":\"100000000\",\"transaction_tag\":null,\"created_contract\":null,\"value\":\"0\",\"from\":{\"ens_domain_name\":null,\"hash\":\"0xD69545191FAFA08140670c5F1f6D2d6A35e85F4a\",\"implementations\":[],\"is_contract\":false,\"is_scam\":false,\"is_verified\":false,\"metadata\":null,\"name\":null,\"private_tags\":[],\"proxy_type\":null,\"public_tags\":[],\"watchlist_names\":[]},\"gas_used\":\"41430\",\"status\":\"ok\",\"to\":{\"ens_domain_name\":null,\"hash\":\"0x8f1A7720d0798d50a01111b15f8c48d43CbC96AF\",\"implementations\":[],\"is_contract\":true,\"is_scam\":false,\"is_verified\":false,\"metadata\":null,\"name\":\"Tether USD\",\"private_tags\":[],\"proxy_type\":\"unknown\",\"public_tags\":[],\"watchlist_names\":[]},\"authorization_list\":[],\"method\":\"transfer\",\"fee\":{\"type\":\"actual\",\"value\":\"175710365942070\"},\"actions\":[],\"gas_limit\":\"52253\",\"gas_price\":\"4241138449\",\"decoded_input\":{\"method_call\":\"transfer(address _to, uint256 _tokenId)\",\"method_id\":\"a9059cbb\",\"parameters\":[{\"name\":\"_to\",\"type\":\"address\",\"value\":\"0x246edcDa7CA58f15F0A18c4318F08Ef0376A352e\"},{\"name\":\"_tokenId\",\"type\":\"uint256\",\"value\":\"610000000000000000000\"}]},\"token_transfers\":null,\"base_fee_per_gas\":\"4141138449\",\"timestamp\":\"2025-06-12T15:41:23.000000Z\",\"nonce\":1346,\"historic_exchange_rate\":\"2775.54\",\"transaction_types\":[\"contract_call\",\"token_transfer\"],\"exchange_rate\":\"2754.57\",\"block_number\":22689445,\"has_error_in_internal_transactions\":false},{\"priority_fee\":\"4579472000000\",\"raw_input\":\"0xa9059cbb0000000000000000000000008b64c10746b4fbf7c0bd08b8570da32dbb67274d000000000000000000000000000000000000000000000000000000138eca4800\",\"result\":\"success\",\"hash\":\"0x075b27e2b5c4a570b592fd07ce5fa25172602da7b6f1a9255d22f88e92cd74de\",\"max_fee_per_gas\":\"8600000000\",\"revert_reason\":null,\"confirmation_duration\":[0,12000],\"transaction_burnt_fee\":\"240053513611632\",\"type\":2,\"token_transfers_overflow\":null,\"confirmations\":1,\"position\":139,\"max_priority_fee_per_gas\":\"79000000\",\"transaction_tag\":null,\"created_contract\":null,\"value\":\"0\",\"from\":{\"ens_domain_name\":null,\"hash\":\"0x3a0F70EeAB5e1f31e96976D21859cf4254eB1483\",\"implementations\":[],\"is_contract\":false,\"is_scam\":false,\"is_verified\":false,\"metadata\":null,\"name\":null,\"private_tags\":[],\"proxy_type\":null,\"public_tags\":[],\"watchlist_names\":[]},\"gas_used\":\"57968\",\"status\":\"ok\",\"to\":{\"ens_domain_name\":null,\"hash\":\"0xE0f63A424a4439cBE457D80E4f4b51aD25b2c56C\",\"implementations\":[],\"is_contract\":true,\"is_scam\":false,\"is_verified\":true,\"metadata\":{\"tags\":[{\"meta\":{},\"name\":\"Token Contract\",\"ordinal\":0,\"slug\":\"token-contract\",\"tagType\":\"generic\"},{\"meta\":{\"tooltipDescription\":\"SPX6900 is an advanced blockchain cryptography token with limitless possibilities and scientific utilization.\",\"tooltipUrl\":\"https://www.spx6900.com/\"},\"name\":\"SPX6900: SPX Token\",\"ordinal\":0,\"slug\":\"spx6900-spx-token\",\"tagType\":\"name\"},{\"meta\":{},\"name\":\"SPX6900\",\"ordinal\":0,\"slug\":\"spx6900\",\"tagType\":\"protocol\"},{\"meta\":{},\"name\":\"MEME\",\"ordinal\":0,\"slug\":\"meme\",\"tagType\":\"generic\"}]},\"name\":\"SPX\",\"private_tags\":[],\"proxy_type\":\"unknown\",\"public_tags\":[],\"watchlist_names\":[]},\"authorization_list\":[],\"method\":\"transfer\",\"fee\":{\"type\":\"actual\",\"value\":\"244632985611632\"},\"actions\":[],\"gas_limit\":\"64659\",\"gas_price\":\"4220138449\",\"decoded_input\":{\"method_call\":\"transfer(address recipient, uint256 amount)\",\"method_id\":\"a9059cbb\",\"parameters\":[{\"name\":\"recipient\",\"type\":\"address\",\"value\":\"0x8b64C10746B4fBf7C0bd08B8570DA32DBb67274D\"},{\"name\":\"amount\",\"type\":\"uint256\",\"value\":\"84000000000\"}]},\"token_transfers\":null,\"base_fee_per_gas\":\"4141138449\",\"timestamp\":\"2025-06-12T15:41:23.000000Z\",\"nonce\":89,\"historic_exchange_rate\":\"2775.54\",\"transaction_types\":[\"contract_call\",\"token_transfer\"],\"exchange_rate\":\"2754.57\",\"block_number\":22689445,\"has_error_in_internal_transactions\":false},{\"priority_fee\":null,\"raw_input\":\"0x\",\"result\":\"success\",\"hash\":\"0x15724e36900884175f91766ad9daa298b22be8d7c4ba4593f4e790ae690693a9\",\"max_fee_per_gas\":null,\"revert_reason\":null,\"confirmation_duration\":[0,12000],\"transaction_burnt_fee\":null,\"type\":0,\"token_transfers_overflow\":null,\"confirmations\":1,\"position\":138,\"max_priority_fee_per_gas\":null,\"transaction_tag\":null,\"created_contract\":null,\"value\":\"91747427100000\",\"from\":{\"ens_domain_name\":null,\"hash\":\"0x1367a850998ccdcFd518DC9F64A60f9353C5474c\",\"implementations\":[],\"is_contract\":false,\"is_scam\":false,\"is_verified\":false,\"metadata\":null,\"name\":null,\"private_tags\":[],\"proxy_type\":null,\"public_tags\":[],\"watchlist_names\":[]},\"gas_used\":\"21000\",\"status\":\"ok\",\"to\":{\"ens_domain_name\":null,\"hash\":\"0xc3205B220B9724B06d430d35EfdD084cD9dc17a2\",\"implementations\":[],\"is_contract\":false,\"is_scam\":false,\"is_verified\":false,\"metadata\":null,\"name\":null,\"private_tags\":[],\"proxy_type\":null,\"public_tags\":[],\"watchlist_names\":[]},\"authorization_list\":[],\"method\":null,\"fee\":{\"type\":\"actual\",\"value\":\"91747427100000\"},\"actions\":[],\"gas_limit\":\"21000\",\"gas_price\":\"4368925100\",\"decoded_input\":null,\"token_transfers\":null,\"base_fee_per_gas\":\"4141138449\",\"timestamp\":\"2025-06-12T15:41:23.000000Z\",\"nonce\":14719,\"historic_exchange_rate\":\"2775.54\",\"transaction_types\":[\"coin_transfer\"],\"exchange_rate\":\"2754.57\",\"block_number\":22689445,\"has_error_in_internal_transactions\":false},{\"priority_fee\":null,\"raw_input\":\"0x\",\"result\":\"success\",\"hash\":\"0xa7627d3d66041d7f98a49806d7de3d215fa5fe62d07e179ea000e1c4b6119b88\",\"max_fee_per_gas\":null,\"revert_reason\":null,\"confirmation_duration\":[0,12000],\"transaction_burnt_fee\":null,\"type\":0,\"token_transfers_overflow\":null,\"confirmations\":1,\"position\":137,\"max_priority_fee_per_gas\":null,\"transaction_tag\":null,\"created_contract\":null,\"value\":\"91747427100000\",\"from\":{\"ens_domain_name\":null,\"hash\":\"0x828b684fbaA3f9d588deD8f361227F261577bB2d\",\"implementations\":[],\"is_contract\":false,\"is_scam\":false,\"is_verified\":false,\"metadata\":null,\"name\":null,\"private_tags\":[],\"proxy_type\":null,\"public_tags\":[],\"watchlist_names\":[]},\"gas_used\":\"21000\",\"status\":\"ok\",\"to\":{\"ens_domain_name\":null,\"hash\":\"0x83711D145BaB22517E6D358a82bBf41Db175d6E0\",\"implementations\":[],\"is_contract\":false,\"is_scam\":false,\"is_verified\":false,\"metadata\":null,\"name\":null,\"private_tags\":[],\"proxy_type\":null,\"public_tags\":[],\"watchlist_names\":[]},\"authorization_list\":[],\"method\":null,\"fee\":{\"type\":\"actual\",\"value\":\"91747427100000\"},\"actions\":[],\"gas_limit\":\"21000\",\"gas_price\":\"4368925100\",\"decoded_input\":null,\"token_transfers\":null,\"base_fee_per_gas\":\"4141138449\",\"timestamp\":\"2025-06-12T15:41:23.000000Z\",\"nonce\":39507,\"historic_exchange_rate\":\"2775.54\",\"transaction_types\":[\"coin_transfer\"],\"exchange_rate\":\"2754.57\",\"block_number\":22689445,\"has_error_in_internal_transactions\":false},{\"priority_fee\":\"5190680000000\",\"raw_input\":\"0x095ea7b3000000000000000000000000d1ca1f4dbb645710f5d5a9917aa984a47524f49affffffffffffffffffffffffffffffffffffffffffffffffffffffffffffffff\",\"result\":\"success\",\"hash\":\"0x381d67e50585d7e7481b91e56f89d8e8378c7025d7abeef4429afbce8529d524\",\"max_fee_per_gas\":\"6115010135\",\"revert_reason\":null,\"confirmation_duration\":[0,12000],\"transaction_burnt_fee\":\"195412041131412\",\"type\":2,\"token_transfers_overflow\":null,\"confirmations\":1,\"position\":136,\"max_priority_fee_per_gas\":\"110000000\",\"transaction_tag\":null,\"created_contract\":null,\"value\":\"0\",\"from\":{\"ens_domain_name\":null,\"hash\":\"0x1747a28A99e82F30b570a10F7FCDF0021c4FD3Ad\",\"implementations\":[],\"is_contract\":false,\"is_scam\":false,\"is_verified\":false,\"metadata\":null,\"name\":null,\"private_tags\":[],\"proxy_type\":null,\"public_tags\":[],\"watchlist_names\":[]},\"gas_used\":\"47188\",\"status\":\"ok\",\"to\":{\"ens_domain_name\":null,\"hash\":\"0x90001c5F2C6fFD4B90A801AfDDEfcbf31965c667\",\"implementations\":[],\"is_contract\":true,\"is_scam\":false,\"is_verified\":true,\"metadata\":null,\"name\":\"TokenMintERC20Token\",\"private_tags\":[],\"proxy_type\":\"unknown\",\"public_tags\":[],\"watchlist_names\":[]},\"authorization_list\":[],\"method\":\"approve\",\"fee\":{\"type\":\"actual\",\"value\":\"200602721131412\"},\"actions\":[],\"gas_limit\":\"52329\",\"gas_price\":\"4251138449\",\"decoded_input\":{\"method_call\":\"approve(address spender, uint256 amount)\",\"method_id\":\"095ea7b3\",\"parameters\":[{\"name\":\"spender\",\"type\":\"address\",\"value\":\"0xD1ca1F4dBB645710f5D5a9917AA984a47524f49A\"},{\"name\":\"amount\",\"type\":\"uint256\",\"value\":\"115792089237316195423570985008687907853269984665640564039457584007913129639935\"}]},\"token_transfers\":null,\"base_fee_per_gas\":\"4141138449\",\"timestamp\":\"2025-06-12T15:41:23.000000Z\",\"nonce\":70,\"historic_exchange_rate\":\"2775.54\",\"transaction_types\":[\"contract_call\"],\"exchange_rate\":\"2754.57\",\"block_number\":22689445,\"has_error_in_internal_transactions\":false},{\"priority_fee\":\"5378670000000\",\"raw_input\":\"0x095ea7b300000000000000000000000022ce84a7f86662b78e49c6ec9e51d60fdde7b70affffffffffffffffffffffffffffffffffffffffffffffffffffffffffffffff\",\"result\":\"success\",\"hash\":\"0x61d00312b6b0d3f033286c27f64176699f2c3425c59e975cc1faf028dd36bfc6\",\"max_fee_per_gas\":\"6208374997\",\"revert_reason\":null,\"confirmation_duration\":[0,12000],\"transaction_burnt_fee\":\"202489246740753\",\"type\":2,\"token_transfers_overflow\":null,\"confirmations\":1,\"position\":135,\"max_priority_fee_per_gas\":\"110000000\",\"transaction_tag\":null,\"created_contract\":null,\"value\":\"0\",\"from\":{\"ens_domain_name\":null,\"hash\":\"0xe0e2ec227fD6b8F89Ab3e921d8F0f9D77315D349\",\"implementations\":[],\"is_contract\":false,\"is_scam\":false,\"is_verified\":false,\"metadata\":null,\"name\":null,\"private_tags\":[],\"proxy_type\":null,\"public_tags\":[],\"watchlist_names\":[]},\"gas_used\":\"48897\",\"status\":\"ok\",\"to\":{\"ens_domain_name\":null,\"hash\":\"0xdAC17F958D2ee523a2206206994597C13D831ec7\",\"implementations\":[],\"is_contract\":true,\"is_scam\":false,\"is_verified\":true,\"metadata\":{\"tags\":[{\"meta\":{\"tooltipDescription\":\"Tether gives you the joint benefits of open blockchain technology and traditional currency by converting your cash into a stable digital currency equivalent.\",\"tooltipUrl\":\"https://tether.to/\"},\"name\":\"Tether: USDT Stablecoin\",\"ordinal\":10,\"slug\":\"tether-usdt-stablecoin\",\"tagType\":\"name\"},{\"meta\":{},\"name\":\"Tether\",\"ordinal\":0,\"slug\":\"tether\",\"tagType\":\"protocol\"},{\"meta\":{},\"name\":\"Token Contract\",\"ordinal\":0,\"slug\":\"token-contract\",\"tagType\":\"generic\"},{\"meta\":{},\"name\":\"Stablecoin\",\"ordinal\":0,\"slug\":\"stablecoin\",\"tagType\":\"generic\"}]},\"name\":\"Tether\",\"private_tags\":[],\"proxy_type\":\"unknown\",\"public_tags\":[],\"watchlist_names\":[]},\"authorization_list\":[],\"method\":\"approve\",\"fee\":{\"type\":\"actual\",\"value\":\"207867916740753\"},\"actions\":[],\"gas_limit\":\"70478\",\"gas_price\":\"4251138449\",\"decoded_input\":{\"method_call\":\"approve(address _spender, uint256 _value)\",\"method_id\":\"095ea7b3\",\"parameters\":[{\"name\":\"_spender\",\"type\":\"address\",\"value\":\"0x22cE84A7F86662b78E49C6ec9E51D60FddE7b70A\"},{\"name\":\"_value\",\"type\":\"uint256\",\"value\":\"115792089237316195423570985008687907853269984665640564039457584007913129639935\"}]},\"token_transfers\":null,\"base_fee_per_gas\":\"4141138449\",\"timestamp\":\"2025-06-12T15:41:23.000000Z\",\"nonce\":0,\"historic_exchange_rate\":\"2775.54\",\"transaction_types\":[\"contract_call\"],\"exchange_rate\":\"2754.57\",\"block_number\":22689445,\"has_error_in_internal_transactions\":false},{\"priority_fee\":\"5541140000000\",\"raw_input\":\"0xa9059cbb000000000000000000000000a494629aec24b520abc32d63f2fe270450a9e3960000000000000000000000000000000000000000000000000000000050681b40\",\"result\":\"success\",\"hash\":\"0x9a19115d86baa3a9fd587cf9705f948a23acb0d8b5f2fdfcbc38e65102238be6\",\"max_fee_per_gas\":\"4787259722\",\"revert_reason\":null,\"confirmation_duration\":[0,12000],\"transaction_burnt_fee\":\"257827279834740\",\"type\":2,\"token_transfers_overflow\":null,\"confirmations\":1,\"position\":134,\"max_priority_fee_per_gas\":\"89000000\",\"transaction_tag\":null,\"created_contract\":null,\"value\":\"0\",\"from\":{\"ens_domain_name\":null,\"hash\":\"0xBb1fB84dD2bF049ab6dAdD603eC2d3fE0D0ebf17\",\"implementations\":[],\"is_contract\":false,\"is_scam\":false,\"is_verified\":false,\"metadata\":null,\"name\":null,\"private_tags\":[],\"proxy_type\":null,\"public_tags\":[],\"watchlist_names\":[]},\"gas_used\":\"62260\",\"status\":\"ok\",\"to\":{\"ens_domain_name\":null,\"hash\":\"0xA0b86991c6218b36c1d19D4a2e9Eb0cE3606eB48\",\"implementations\":[{\"address\":\"0x43506849D7C04F9138D1A2050bbF3A0c054402dd\",\"address_hash\":\"0x43506849D7C04F9138D1A2050bbF3A0c054402dd\",\"name\":\"FiatTokenV2_2\"}],\"is_contract\":true,\"is_scam\":false,\"is_verified\":true,\"metadata\":{\"tags\":[{\"meta\":{},\"name\":\"Stablecoin\",\"ordinal\":0,\"slug\":\"stablecoin\",\"tagType\":\"generic\"},{\"meta\":{\"tooltipDescription\":\"USDC is a US dollar-backed stablecoin issued by Circle. USDC is designed to provide a faster, safer, and more efficient way to send, spend, and exchange money around the world.\",\"tooltipUrl\":\"https://www.circle.com/en/usdc\"},\"name\":\"Circle: USDC Token\",\"ordinal\":10,\"slug\":\"circle-usdc-token\",\"tagType\":\"name\"},{\"meta\":{},\"name\":\"Token Contract\",\"ordinal\":0,\"slug\":\"token-contract\",\"tagType\":\"generic\"},{\"meta\":{},\"name\":\"USDC\",\"ordinal\":0,\"slug\":\"usdc\",\"tagType\":\"generic\"},{\"meta\":{},\"name\":\"Circle\",\"ordinal\":0,\"slug\":\"circle\",\"tagType\":\"protocol\"}]},\"name\":\"USDC\",\"private_tags\":[],\"proxy_type\":\"eip1967\",\"public_tags\":[],\"watchlist_names\":[]},\"authorization_list\":[],\"method\":\"transfer\",\"fee\":{\"type\":\"actual\",\"value\":\"263368419834740\"},\"actions\":[],\"gas_limit\":\"69399\",\"gas_price\":\"4230138449\",\"decoded_input\":{\"method_call\":\"transfer(address to, uint256 value)\",\"method_id\":\"a9059cbb\",\"parameters\":[{\"name\":\"to\",\"type\":\"address\",\"value\":\"0xA494629Aec24B520abc32D63F2FE270450a9E396\"},{\"name\":\"value\",\"type\":\"uint256\",\"value\":\"1349000000\"}]},\"token_transfers\":null,\"base_fee_per_gas\":\"4141138449\",\"timestamp\":\"2025-06-12T15:41:23.000000Z\",\"nonce\":14,\"historic_exchange_rate\":\"2775.54\",\"transaction_types\":[\"contract_call\",\"token_transfer\"],\"exchange_rate\":\"2754.57\",\"block_number\":22689445,\"has_error_in_internal_transactions\":false},{\"priority_fee\":\"5624533000000\",\"raw_input\":\"0xa9059cbb0000000000000000000000000f9748f34be39dd67748214339920d7dc118c25c0000000000000000000000000000000000000000000000000000000003e41800\",\"result\":\"success\",\"hash\":\"0x11260d55d4cc3e0b0fdf5b9d6e8f5709108163c82df50c2dfd442258c0366fd0\",\"max_fee_per_gas\":\"4787259722\",\"revert_reason\":null,\"confirmation_duration\":[0,12000],\"transaction_burnt_fee\":\"261707526561453\",\"type\":2,\"token_transfers_overflow\":null,\"confirmations\":1,\"position\":133,\"max_priority_fee_per_gas\":\"89000000\",\"transaction_tag\":null,\"created_contract\":null,\"value\":\"0\",\"from\":{\"ens_domain_name\":null,\"hash\":\"0x8Ff7A5C57B4e2ACB6014b191dcA6A85dc18cCa86\",\"implementations\":[],\"is_contract\":false,\"is_scam\":false,\"is_verified\":false,\"metadata\":null,\"name\":null,\"private_tags\":[],\"proxy_type\":null,\"public_tags\":[],\"watchlist_names\":[]},\"gas_used\":\"63197\",\"status\":\"ok\",\"to\":{\"ens_domain_name\":null,\"hash\":\"0xdAC17F958D2ee523a2206206994597C13D831ec7\",\"implementations\":[],\"is_contract\":true,\"is_scam\":false,\"is_verified\":true,\"metadata\":{\"tags\":[{\"meta\":{\"tooltipDescription\":\"Tether gives you the joint benefits of open blockchain technology and traditional currency by converting your cash into a stable digital currency equivalent.\",\"tooltipUrl\":\"https://tether.to/\"},\"name\":\"Tether: USDT Stablecoin\",\"ordinal\":10,\"slug\":\"tether-usdt-stablecoin\",\"tagType\":\"name\"},{\"meta\":{},\"name\":\"Tether\",\"ordinal\":0,\"slug\":\"tether\",\"tagType\":\"protocol\"},{\"meta\":{},\"name\":\"Token Contract\",\"ordinal\":0,\"slug\":\"token-contract\",\"tagType\":\"generic\"},{\"meta\":{},\"name\":\"Stablecoin\",\"ordinal\":0,\"slug\":\"stablecoin\",\"tagType\":\"generic\"}]},\"name\":\"Tether\",\"private_tags\":[],\"proxy_type\":\"unknown\",\"public_tags\":[],\"watchlist_names\":[]},\"authorization_list\":[],\"method\":\"transfer\",\"fee\":{\"type\":\"actual\",\"value\":\"267332059561453\"},\"actions\":[],\"gas_limit\":\"70434\",\"gas_price\":\"4230138449\",\"decoded_input\":{\"method_call\":\"transfer(address _to, uint256 _value)\",\"method_id\":\"a9059cbb\",\"parameters\":[{\"name\":\"_to\",\"type\":\"address\",\"value\":\"0x0F9748f34Be39Dd67748214339920d7Dc118c25C\"},{\"name\":\"_value\",\"type\":\"uint256\",\"value\":\"65280000\"}]},\"token_transfers\":null,\"base_fee_per_gas\":\"4141138449\",\"timestamp\":\"2025-06-12T15:41:23.000000Z\",\"nonce\":1469,\"historic_exchange_rate\":\"2775.54\",\"transaction_types\":[\"contract_call\",\"token_transfer\"],\"exchange_rate\":\"2754.57\",\"block_number\":22689445,\"has_error_in_internal_transactions\":false},{\"priority_fee\":\"5625601000000\",\"raw_input\":\"0xa9059cbb000000000000000000000000c7068a31f2a4f231467570fffadfe85a3257cce600000000000000000000000000000000000000000000000000000000017d7840\",\"result\":\"success\",\"hash\":\"0xb95dd6a06ee53540c4ea4dbc5dfcc9b0f2aa66339976702047eae18c4b4f7e36\",\"max_fee_per_gas\":\"5405565455\",\"revert_reason\":null,\"confirmation_duration\":[0,12000],\"transaction_burnt_fee\":\"261757220222841\",\"type\":2,\"token_transfers_overflow\":null,\"confirmations\":1,\"position\":132,\"max_priority_fee_per_gas\":\"89000000\",\"transaction_tag\":null,\"created_contract\":null,\"value\":\"0\",\"from\":{\"ens_domain_name\":null,\"hash\":\"0x68C68ba58F50bdbE5C4a6FaF0186b140eab2B764\",\"implementations\":[],\"is_contract\":false,\"is_scam\":false,\"is_verified\":false,\"metadata\":null,\"name\":null,\"private_tags\":[],\"proxy_type\":null,\"public_tags\":[],\"watchlist_names\":[]},\"gas_used\":\"63209\",\"status\":\"ok\",\"to\":{\"ens_domain_name\":null,\"hash\":\"0xdAC17F958D2ee523a2206206994597C13D831ec7\",\"implementations\":[],\"is_contract\":true,\"is_scam\":false,\"is_verified\":true,\"metadata\":{\"tags\":[{\"meta\":{\"tooltipDescription\":\"Tether gives you the joint benefits of open blockchain technology and traditional currency by converting your cash into a stable digital currency equivalent.\",\"tooltipUrl\":\"https://tether.to/\"},\"name\":\"Tether: USDT Stablecoin\",\"ordinal\":10,\"slug\":\"tether-usdt-stablecoin\",\"tagType\":\"name\"},{\"meta\":{},\"name\":\"Tether\",\"ordinal\":0,\"slug\":\"tether\",\"tagType\":\"protocol\"},{\"meta\":{},\"name\":\"Token Contract\",\"ordinal\":0,\"slug\":\"token-contract\",\"tagType\":\"generic\"},{\"meta\":{},\"name\":\"Stablecoin\",\"ordinal\":0,\"slug\":\"stablecoin\",\"tagType\":\"generic\"}]},\"name\":\"Tether\",\"private_tags\":[],\"proxy_type\":\"unknown\",\"public_tags\":[],\"watchlist_names\":[]},\"authorization_list\":[],\"method\":\"transfer\",\"fee\":{\"type\":\"actual\",\"value\":\"267382821222841\"},\"actions\":[],\"gas_limit\":\"84000\",\"gas_price\":\"4230138449\",\"decoded_input\":{\"method_call\":\"transfer(address _to, uint256 _value)\",\"method_id\":\"a9059cbb\",\"parameters\":[{\"name\":\"_to\",\"type\":\"address\",\"value\":\"0xC7068a31f2A4F231467570ffFAdfe85a3257cce6\"},{\"name\":\"_value\",\"type\":\"uint256\",\"value\":\"25000000\"}]},\"token_transfers\":null,\"base_fee_per_gas\":\"4141138449\",\"timestamp\":\"2025-06-12T15:41:23.000000Z\",\"nonce\":19,\"historic_exchange_rate\":\"2775.54\",\"transaction_types\":[\"contract_call\",\"token_transfer\"],\"exchange_rate\":\"2754.57\",\"block_number\":22689445,\"has_error_in_internal_transactions\":false},{\"priority_fee\":\"7387369000000\",\"raw_input\":\"0x2e7ba6ef000000000000000000000000000000000000000000000000000000000000567c000000000000000000000000f29057a9911d8c904cf12f5f2ab611413cda03620000000000000000000000000000000000000000000010aabc759ac89400a7000000000000000000000000000000000000000000000000000000000000000080000000000000000000000000000000000000000000000000000000000000000fdccc29f7cd5aab66578a51c4971117cfb1d6313c76606c09b58543eaf1db274813011fad149572ff34a209baa10dd5a08995c7b158dcc2c3513b09612c3bd9f29ff3bf212348826e689ee0a10bbb679f58a34689306306a193cc0289662a07f2efb4820797270c83f0050fd4a6fa3cd6c279b91a076276941f396594029e10480b515b7c59c0f819763068e9908d92ac8f6f36c1f13aa972e4c7399a7004496e5f7518531f5f08aca401e09a7da8e4f99e57b541beedbcafb5a1e7edf568623288f9d278a6f50199c1f4e2fd8c8cd0cc06f93cd0ee499f2bb681aab8821635ea7c38d5290c76b0810d67fbc9b7f86e05a0e0ab03c4b89559e9e211712d98c224273e42dc1cdd014a90d58178c463e69773369d6203fd9c7826ae00015e4b8dfd7306871461fd37042b11ee9c1847bfe22e5bba855ea119f725e01e967bdc05f9d013771296e371436a8fcf1e98c457228e1bf39c1de3ffad2725da4ede58d026b3bf1608fdadbae64af1ed6217696213f6d47c3f0b96cbb44817cae309972b4e89b2bf36f79a05c352de05eb758279f99ddd1c0547de274cf6812c99775380692f6f03b2ddb3f6eaa9adf063828a7e8b5efd8321fffba9b3d281a7e01f8cb1de6b955f66ca1c1470e93079b7e3248374112859deecc6d9dcb92254b2b301625a\",\"result\":\"success\",\"hash\":\"0xe8fa4d41ca1ac500208ef48f4019d7d1b132e97e016b97a44b8a5c7239515bf6\",\"max_fee_per_gas\":\"8600000000\",\"revert_reason\":null,\"confirmation_duration\":[0,12000],\"transaction_burnt_fee\":\"387241997504439\",\"type\":2,\"token_transfers_overflow\":null,\"confirmations\":1,\"position\":131,\"max_priority_fee_per_gas\":\"79000000\",\"transaction_tag\":null,\"created_contract\":null,\"value\":\"0\",\"from\":{\"ens_domain_name\":null,\"hash\":\"0xF29057a9911D8c904cF12f5F2aB611413Cda0362\",\"implementations\":[],\"is_contract\":false,\"is_scam\":false,\"is_verified\":false,\"metadata\":null,\"name\":null,\"private_tags\":[],\"proxy_type\":null,\"public_tags\":[],\"watchlist_names\":[]},\"gas_used\":\"93511\",\"status\":\"ok\",\"to\":{\"ens_domain_name\":null,\"hash\":\"0xe857Fd582Ca91538d1E46fdEF90De72A61aEdCc2\",\"implementations\":[],\"is_contract\":true,\"is_scam\":false,\"is_verified\":false,\"metadata\":null,\"name\":null,\"private_tags\":[],\"proxy_type\":\"unknown\",\"public_tags\":[],\"watchlist_names\":[]},\"authorization_list\":[],\"method\":\"claim\",\"fee\":{\"type\":\"actual\",\"value\":\"394629366504439\"},\"actions\":[],\"gas_limit\":\"103912\",\"gas_price\":\"4220138449\",\"decoded_input\":{\"method_call\":\"claim(uint256 index, address beneficiary, uint256 amount, bytes32[] merkleProof)\",\"method_id\":\"2e7ba6ef\",\"parameters\":[{\"name\":\"index\",\"type\":\"uint256\",\"value\":\"22140\"},{\"name\":\"beneficiary\",\"type\":\"address\",\"value\":\"0xF29057a9911D8c904cF12f5F2aB611413Cda0362\"},{\"name\":\"amount\",\"type\":\"uint256\",\"value\":\"78707390148882620000000\"},{\"name\":\"merkleProof\",\"type\":\"bytes32[]\",\"value\":[\"0xdccc29f7cd5aab66578a51c4971117cfb1d6313c76606c09b58543eaf1db2748\",\"0x13011fad149572ff34a209baa10dd5a08995c7b158dcc2c3513b09612c3bd9f2\",\"0x9ff3bf212348826e689ee0a10bbb679f58a34689306306a193cc0289662a07f2\",\"0xefb4820797270c83f0050fd4a6fa3cd6c279b91a076276941f396594029e1048\",\"0x0b515b7c59c0f819763068e9908d92ac8f6f36c1f13aa972e4c7399a7004496e\",\"0x5f7518531f5f08aca401e09a7da8e4f99e57b541beedbcafb5a1e7edf5686232\",\"0x88f9d278a6f50199c1f4e2fd8c8cd0cc06f93cd0ee499f2bb681aab8821635ea\",\"0x7c38d5290c76b0810d67fbc9b7f86e05a0e0ab03c4b89559e9e211712d98c224\",\"0x273e42dc1cdd014a90d58178c463e69773369d6203fd9c7826ae00015e4b8dfd\",\"0x7306871461fd37042b11ee9c1847bfe22e5bba855ea119f725e01e967bdc05f9\",\"0xd013771296e371436a8fcf1e98c457228e1bf39c1de3ffad2725da4ede58d026\",\"0xb3bf1608fdadbae64af1ed6217696213f6d47c3f0b96cbb44817cae309972b4e\",\"0x89b2bf36f79a05c352de05eb758279f99ddd1c0547de274cf6812c9977538069\",\"0x2f6f03b2ddb3f6eaa9adf063828a7e8b5efd8321fffba9b3d281a7e01f8cb1de\",\"0x6b955f66ca1c1470e93079b7e3248374112859deecc6d9dcb92254b2b301625a\"]}]},\"token_transfers\":null,\"base_fee_per_gas\":\"4141138449\",\"timestamp\":\"2025-06-12T15:41:23.000000Z\",\"nonce\":2,\"historic_exchange_rate\":\"2775.54\",\"transaction_types\":[\"contract_call\",\"token_transfer\"],\"exchange_rate\":\"2754.57\",\"block_number\":22689445,\"has_error_in_internal_transactions\":false},{\"priority_fee\":\"7558900000000\",\"raw_input\":\"0xb79c48e5000000000000000000000000806a72273b961145cf5c5f040ad1fcd112b3f11a000000000000000000000000000000000000000000000006571ac72895991a0d\",\"result\":\"Reverted\",\"hash\":\"0xca257b5c9de1872b44138902adb977f3633271fa82d974f9d6a7e284f3511944\",\"max_fee_per_gas\":\"4779439890\",\"revert_reason\":{\"raw\":null},\"confirmation_duration\":[0,12000],\"transaction_burnt_fee\":\"313024514221461\",\"type\":2,\"token_transfers_overflow\":null,\"confirmations\":1,\"position\":130,\"max_priority_fee_per_gas\":\"100000000\",\"transaction_tag\":null,\"created_contract\":null,\"value\":\"10000000000000000\",\"from\":{\"ens_domain_name\":null,\"hash\":\"0x37EC90cd6d5D382e21edE2fa0881C30C997eF337\",\"implementations\":[],\"is_contract\":false,\"is_scam\":false,\"is_verified\":false,\"metadata\":null,\"name\":null,\"private_tags\":[],\"proxy_type\":null,\"public_tags\":[],\"watchlist_names\":[]},\"gas_used\":\"75589\",\"status\":\"error\",\"to\":{\"ens_domain_name\":null,\"hash\":\"0xb965602E41Af7A92B3F4b48729736Aded9C94E47\",\"implementations\":[],\"is_contract\":true,\"is_scam\":false,\"is_verified\":true,\"metadata\":null,\"name\":\"DEXScreenerRouter\",\"private_tags\":[],\"proxy_type\":\"unknown\",\"public_tags\":[],\"watchlist_names\":[]},\"authorization_list\":[],\"method\":\"swapExactETHForTokens\",\"fee\":{\"type\":\"actual\",\"value\":\"320583414221461\"},\"actions\":[],\"gas_limit\":\"500000\",\"gas_price\":\"4241138449\",\"decoded_input\":{\"method_call\":\"swapExactETHForTokens(address tokenOut, uint256 amountOutMin)\",\"method_id\":\"b79c48e5\",\"parameters\":[{\"name\":\"tokenOut\",\"type\":\"address\",\"value\":\"0x806a72273B961145cf5c5f040Ad1FCd112b3f11A\"},{\"name\":\"amountOutMin\",\"type\":\"uint256\",\"value\":\"116957012450073975309\"}]},\"token_transfers\":null,\"base_fee_per_gas\":\"4141138449\",\"timestamp\":\"2025-06-12T15:41:23.000000Z\",\"nonce\":130,\"historic_exchange_rate\":\"2775.54\",\"transaction_types\":[\"coin_transfer\",\"contract_call\"],\"exchange_rate\":\"2754.57\",\"block_number\":22689445,\"has_error_in_internal_transactions\":true},{\"priority_fee\":null,\"raw_input\":\"0xa9059cbb000000000000000000000000ec98cae521e7505158d5de6c4182190054cafc32000000000000000000000000000000000000000000000000000000001dcd6500\",\"result\":\"success\",\"hash\":\"0x87d40d354c9e58b91c500fe681b01ade0281b518d073f2948af82cf0a7582dae\",\"max_fee_per_gas\":null,\"revert_reason\":null,\"confirmation_duration\":[0,12000],\"transaction_burnt_fee\":null,\"type\":0,\"token_transfers_overflow\":null,\"confirmations\":1,\"position\":129,\"max_priority_fee_per_gas\":null,\"transaction_tag\":null,\"created_contract\":null,\"value\":\"0\",\"from\":{\"ens_domain_name\":null,\"hash\":\"0x805bd2b4DeE91B58EFDaAd82e29FCE737649380b\",\"implementations\":[],\"is_contract\":false,\"is_scam\":false,\"is_verified\":false,\"metadata\":null,\"name\":null,\"private_tags\":[],\"proxy_type\":null,\"public_tags\":[],\"watchlist_names\":[]},\"gas_used\":\"46085\",\"status\":\"ok\",\"to\":{\"ens_domain_name\":null,\"hash\":\"0xdAC17F958D2ee523a2206206994597C13D831ec7\",\"implementations\":[],\"is_contract\":true,\"is_scam\":false,\"is_verified\":true,\"metadata\":{\"tags\":[{\"meta\":{\"tooltipDescription\":\"Tether gives you the joint benefits of open blockchain technology and traditional currency by converting your cash into a stable digital currency equivalent.\",\"tooltipUrl\":\"https://tether.to/\"},\"name\":\"Tether: USDT Stablecoin\",\"ordinal\":10,\"slug\":\"tether-usdt-stablecoin\",\"tagType\":\"name\"},{\"meta\":{},\"name\":\"Tether\",\"ordinal\":0,\"slug\":\"tether\",\"tagType\":\"protocol\"},{\"meta\":{},\"name\":\"Token Contract\",\"ordinal\":0,\"slug\":\"token-contract\",\"tagType\":\"generic\"},{\"meta\":{},\"name\":\"Stablecoin\",\"ordinal\":0,\"slug\":\"stablecoin\",\"tagType\":\"generic\"}]},\"name\":\"Tether\",\"private_tags\":[],\"proxy_type\":\"unknown\",\"public_tags\":[],\"watchlist_names\":[]},\"authorization_list\":[],\"method\":\"transfer\",\"fee\":{\"type\":\"actual\",\"value\":\"199111209225045\"},\"actions\":[],\"gas_limit\":\"120000\",\"gas_price\":\"4320520977\",\"decoded_input\":{\"method_call\":\"transfer(address _to, uint256 _value)\",\"method_id\":\"a9059cbb\",\"parameters\":[{\"name\":\"_to\",\"type\":\"address\",\"value\":\"0xec98Cae521E7505158D5De6C4182190054cAFC32\"},{\"name\":\"_value\",\"type\":\"uint256\",\"value\":\"500000000\"}]},\"token_transfers\":null,\"base_fee_per_gas\":\"4141138449\",\"timestamp\":\"2025-06-12T15:41:23.000000Z\",\"nonce\":1239,\"historic_exchange_rate\":\"2775.54\",\"transaction_types\":[\"contract_call\",\"token_transfer\"],\"exchange_rate\":\"2754.57\",\"block_number\":22689445,\"has_error_in_internal_transactions\":false},{\"priority_fee\":null,\"raw_input\":\"0x\",\"result\":\"success\",\"hash\":\"0x785d90ac2eb9b802d8582b0a8ebb25a48cc56966762893e4b763c3414de94aca\",\"max_fee_per_gas\":null,\"revert_reason\":null,\"confirmation_duration\":[0,12000],\"transaction_burnt_fee\":null,\"type\":0,\"token_transfers_overflow\":null,\"confirmations\":1,\"position\":128,\"max_priority_fee_per_gas\":null,\"transaction_tag\":null,\"created_contract\":null,\"value\":\"0\",\"from\":{\"ens_domain_name\":null,\"hash\":\"0x0d503bDcf0d0602197af4d62C9aabdBef2DB8E27\",\"implementations\":[],\"is_contract\":false,\"is_scam\":false,\"is_verified\":false,\"metadata\":null,\"name\":null,\"private_tags\":[],\"proxy_type\":null,\"public_tags\":[],\"watchlist_names\":[]},\"gas_used\":\"21000\",\"status\":\"ok\",\"to\":{\"ens_domain_name\":null,\"hash\":\"0x880d78a54A9d80eFe87Ae2fFcca55b6193C5bB61\",\"implementations\":[],\"is_contract\":false,\"is_scam\":false,\"is_verified\":false,\"metadata\":null,\"name\":null,\"private_tags\":[],\"proxy_type\":null,\"public_tags\":[],\"watchlist_names\":[]},\"authorization_list\":[],\"method\":null,\"fee\":{\"type\":\"actual\",\"value\":\"95813326875000\"},\"actions\":[],\"gas_limit\":\"21000\",\"gas_price\":\"4562539375\",\"decoded_input\":null,\"token_transfers\":null,\"base_fee_per_gas\":\"4141138449\",\"timestamp\":\"2025-06-12T15:41:23.000000Z\",\"nonce\":0,\"historic_exchange_rate\":\"2775.54\",\"transaction_types\":[],\"exchange_rate\":\"2754.57\",\"block_number\":22689445,\"has_error_in_internal_transactions\":false},{\"priority_fee\":null,\"raw_input\":\"0x\",\"result\":\"success\",\"hash\":\"0xafbf739c9f15e710e0e297dbb8d0df13df3d7a90767a537fc6b0aaedfa2621b6\",\"max_fee_per_gas\":null,\"revert_reason\":null,\"confirmation_duration\":[0,12000],\"transaction_burnt_fee\":null,\"type\":0,\"token_transfers_overflow\":null,\"confirmations\":1,\"position\":127,\"max_priority_fee_per_gas\":null,\"transaction_tag\":null,\"created_contract\":null,\"value\":\"0\",\"from\":{\"ens_domain_name\":null,\"hash\":\"0x8800a8b9d7A80e968Fc3842f677Dd3a77D9C7B61\",\"implementations\":[],\"is_contract\":false,\"is_scam\":false,\"is_verified\":false,\"metadata\":null,\"name\":null,\"private_tags\":[],\"proxy_type\":null,\"public_tags\":[],\"watchlist_names\":[]},\"gas_used\":\"21000\",\"status\":\"ok\",\"to\":{\"ens_domain_name\":null,\"hash\":\"0x0d5a4C0118E18b58e9e92E8E3Bc3C97652aAbE27\",\"implementations\":[],\"is_contract\":false,\"is_scam\":false,\"is_verified\":false,\"metadata\":null,\"name\":null,\"private_tags\":[],\"proxy_type\":null,\"public_tags\":[],\"watchlist_names\":[]},\"authorization_list\":[],\"method\":null,\"fee\":{\"type\":\"actual\",\"value\":\"95813326875000\"},\"actions\":[],\"gas_limit\":\"21000\",\"gas_price\":\"4562539375\",\"decoded_input\":null,\"token_transfers\":null,\"base_fee_per_gas\":\"4141138449\",\"timestamp\":\"2025-06-12T15:41:23.000000Z\",\"nonce\":0,\"historic_exchange_rate\":\"2775.54\",\"transaction_types\":[],\"exchange_rate\":\"2754.57\",\"block_number\":22689445,\"has_error_in_internal_transactions\":false},{\"priority_fee\":null,\"raw_input\":\"0x\",\"result\":\"success\",\"hash\":\"0xdce9de0153ba67ac66ad7ee6dc9c622e5cea6afdfae34b7fe910c6270f820b98\",\"max_fee_per_gas\":null,\"revert_reason\":null,\"confirmation_duration\":[0,12000],\"transaction_burnt_fee\":null,\"type\":0,\"token_transfers_overflow\":null,\"confirmations\":1,\"position\":126,\"max_priority_fee_per_gas\":null,\"transaction_tag\":null,\"created_contract\":null,\"value\":\"2030940422026040000\",\"from\":{\"ens_domain_name\":null,\"hash\":\"0x46340b20830761efd32832A74d7169B29FEB9758\",\"implementations\":[],\"is_contract\":false,\"is_scam\":false,\"is_verified\":false,\"metadata\":{\"tags\":[{\"meta\":{},\"name\":\"Crypto.com\",\"ordinal\":0,\"slug\":\"cryptocom\",\"tagType\":\"generic\"},{\"meta\":{},\"name\":\"HOT WALLET\",\"ordinal\":0,\"slug\":\"hot-wallet\",\"tagType\":\"generic\"},{\"meta\":{\"tooltipUrl\":\"https://Crypto.com\"},\"name\":\"Crypto.com 2\",\"ordinal\":10,\"slug\":\"cryptocom-2\",\"tagType\":\"name\"},{\"meta\":{},\"name\":\"Exchange\",\"ordinal\":0,\"slug\":\"exchange\",\"tagType\":\"generic\"}]},\"name\":null,\"private_tags\":[],\"proxy_type\":null,\"public_tags\":[],\"watchlist_names\":[]},\"gas_used\":\"21000\",\"status\":\"ok\",\"to\":{\"ens_domain_name\":null,\"hash\":\"0x15aDCC6b1E4817546Cb9812608cAb9Adf96f93c6\",\"implementations\":[],\"is_contract\":false,\"is_scam\":false,\"is_verified\":false,\"metadata\":null,\"name\":null,\"private_tags\":[],\"proxy_type\":null,\"public_tags\":[],\"watchlist_names\":[]},\"authorization_list\":[],\"method\":null,\"fee\":{\"type\":\"actual\",\"value\":\"97982689161000\"},\"actions\":[],\"gas_limit\":\"350000\",\"gas_price\":\"4665842341\",\"decoded_input\":null,\"token_transfers\":null,\"base_fee_per_gas\":\"4141138449\",\"timestamp\":\"2025-06-12T15:41:23.000000Z\",\"nonce\":14794298,\"historic_exchange_rate\":\"2775.54\",\"transaction_types\":[\"coin_transfer\"],\"exchange_rate\":\"2754.57\",\"block_number\":22689445,\"has_error_in_internal_transactions\":false},{\"priority_fee\":null,\"raw_input\":\"0xa9059cbb000000000000000000000000f0a8404a6bc66992c9bc590f8422a0d5ddd5a90d00000000000000000000000000000000000000000000000000000000ae0baa00\",\"result\":\"success\",\"hash\":\"0x76212b9c442bbfbb7f189844e8a3845aebd7ecd8cbf46736f1d6706ebb136413\",\"max_fee_per_gas\":null,\"revert_reason\":null,\"confirmation_duration\":[0,12000],\"transaction_burnt_fee\":null,\"type\":0,\"token_transfers_overflow\":null,\"confirmations\":1,\"position\":125,\"max_priority_fee_per_gas\":null,\"transaction_tag\":null,\"created_contract\":null,\"value\":\"0\",\"from\":{\"ens_domain_name\":null,\"hash\":\"0x46340b20830761efd32832A74d7169B29FEB9758\",\"implementations\":[],\"is_contract\":false,\"is_scam\":false,\"is_verified\":false,\"metadata\":{\"tags\":[{\"meta\":{},\"name\":\"Crypto.com\",\"ordinal\":0,\"slug\":\"cryptocom\",\"tagType\":\"generic\"},{\"meta\":{},\"name\":\"HOT WALLET\",\"ordinal\":0,\"slug\":\"hot-wallet\",\"tagType\":\"generic\"},{\"meta\":{\"tooltipUrl\":\"https://Crypto.com\"},\"name\":\"Crypto.com 2\",\"ordinal\":10,\"slug\":\"cryptocom-2\",\"tagType\":\"name\"},{\"meta\":{},\"name\":\"Exchange\",\"ordinal\":0,\"slug\":\"exchange\",\"tagType\":\"generic\"}]},\"name\":null,\"private_tags\":[],\"proxy_type\":null,\"public_tags\":[],\"watchlist_names\":[]},\"gas_used\":\"45148\",\"status\":\"ok\",\"to\":{\"ens_domain_name\":null,\"hash\":\"0xA0b86991c6218b36c1d19D4a2e9Eb0cE3606eB48\",\"implementations\":[{\"address\":\"0x43506849D7C04F9138D1A2050bbF3A0c054402dd\",\"address_hash\":\"0x43506849D7C04F9138D1A2050bbF3A0c054402dd\",\"name\":\"FiatTokenV2_2\"}],\"is_contract\":true,\"is_scam\":false,\"is_verified\":true,\"metadata\":{\"tags\":[{\"meta\":{},\"name\":\"Stablecoin\",\"ordinal\":0,\"slug\":\"stablecoin\",\"tagType\":\"generic\"},{\"meta\":{\"tooltipDescription\":\"USDC is a US dollar-backed stablecoin issued by Circle. USDC is designed to provide a faster, safer, and more efficient way to send, spend, and exchange money around the world.\",\"tooltipUrl\":\"https://www.circle.com/en/usdc\"},\"name\":\"Circle: USDC Token\",\"ordinal\":10,\"slug\":\"circle-usdc-token\",\"tagType\":\"name\"},{\"meta\":{},\"name\":\"Token Contract\",\"ordinal\":0,\"slug\":\"token-contract\",\"tagType\":\"generic\"},{\"meta\":{},\"name\":\"USDC\",\"ordinal\":0,\"slug\":\"usdc\",\"tagType\":\"generic\"},{\"meta\":{},\"name\":\"Circle\",\"ordinal\":0,\"slug\":\"circle\",\"tagType\":\"protocol\"}]},\"name\":\"USDC\",\"private_tags\":[],\"proxy_type\":\"eip1967\",\"public_tags\":[],\"watchlist_names\":[]},\"authorization_list\":[],\"method\":\"transfer\",\"fee\":{\"type\":\"actual\",\"value\":\"210653450011468\"},\"actions\":[],\"gas_limit\":\"350000\",\"gas_price\":\"4665842341\",\"decoded_input\":{\"method_call\":\"transfer(address to, uint256 value)\",\"method_id\":\"a9059cbb\",\"parameters\":[{\"name\":\"to\",\"type\":\"address\",\"value\":\"0xf0A8404a6bc66992C9BC590f8422a0d5dDd5A90D\"},{\"name\":\"value\",\"type\":\"uint256\",\"value\":\"2920000000\"}]},\"token_transfers\":null,\"base_fee_per_gas\":\"4141138449\",\"timestamp\":\"2025-06-12T15:41:23.000000Z\",\"nonce\":14794297,\"historic_exchange_rate\":\"2775.54\",\"transaction_types\":[\"contract_call\",\"token_transfer\"],\"exchange_rate\":\"2754.57\",\"block_number\":22689445,\"has_error_in_internal_transactions\":false},{\"priority_fee\":null,\"raw_input\":\"0xa9059cbb0000000000000000000000002a5a32c014cff01e38f59d0a71e872caf136bc04000000000000000000000000000000000000000000001791b189e0baff580000\",\"result\":\"success\",\"hash\":\"0x3f2b8ba48dc4d63ef52d286e400a21cce4004717543528417a19caf7832a9050\",\"max_fee_per_gas\":null,\"revert_reason\":null,\"confirmation_duration\":[0,12000],\"transaction_burnt_fee\":null,\"type\":0,\"token_transfers_overflow\":null,\"confirmations\":1,\"position\":124,\"max_priority_fee_per_gas\":null,\"transaction_tag\":null,\"created_contract\":null,\"value\":\"0\",\"from\":{\"ens_domain_name\":null,\"hash\":\"0x46340b20830761efd32832A74d7169B29FEB9758\",\"implementations\":[],\"is_contract\":false,\"is_scam\":false,\"is_verified\":false,\"metadata\":{\"tags\":[{\"meta\":{},\"name\":\"Crypto.com\",\"ordinal\":0,\"slug\":\"cryptocom\",\"tagType\":\"generic\"},{\"meta\":{},\"name\":\"HOT WALLET\",\"ordinal\":0,\"slug\":\"hot-wallet\",\"tagType\":\"generic\"},{\"meta\":{\"tooltipUrl\":\"https://Crypto.com\"},\"name\":\"Crypto.com 2\",\"ordinal\":10,\"slug\":\"cryptocom-2\",\"tagType\":\"name\"},{\"meta\":{},\"name\":\"Exchange\",\"ordinal\":0,\"slug\":\"exchange\",\"tagType\":\"generic\"}]},\"name\":null,\"private_tags\":[],\"proxy_type\":null,\"public_tags\":[],\"watchlist_names\":[]},\"gas_used\":\"35079\",\"status\":\"ok\",\"to\":{\"ens_domain_name\":null,\"hash\":\"0xA35923162C49cF95e6BF26623385eb431ad920D3\",\"implementations\":[],\"is_contract\":true,\"is_scam\":false,\"is_verified\":true,\"metadata\":{\"tags\":[{\"meta\":{},\"name\":\"Turbo: TURBO Token\",\"ordinal\":10,\"slug\":\"turbo-turbo-token\",\"tagType\":\"name\"}]},\"name\":\"Turbo\",\"private_tags\":[],\"proxy_type\":\"unknown\",\"public_tags\":[],\"watchlist_names\":[]},\"authorization_list\":[],\"method\":\"transfer\",\"fee\":{\"type\":\"actual\",\"value\":\"163673083479939\"},\"actions\":[],\"gas_limit\":\"350000\",\"gas_price\":\"4665842341\",\"decoded_input\":{\"method_call\":\"transfer(address to, uint256 amount)\",\"method_id\":\"a9059cbb\",\"parameters\":[{\"name\":\"to\",\"type\":\"address\",\"value\":\"0x2A5a32C014Cff01e38f59d0A71e872cAf136BC04\"},{\"name\":\"amount\",\"type\":\"uint256\",\"value\":\"111302000000000000000000\"}]},\"token_transfers\":null,\"base_fee_per_gas\":\"4141138449\",\"timestamp\":\"2025-06-12T15:41:23.000000Z\",\"nonce\":14794296,\"historic_exchange_rate\":\"2775.54\",\"transaction_types\":[\"contract_call\",\"token_transfer\"],\"exchange_rate\":\"2754.57\",\"block_number\":22689445,\"has_error_in_internal_transactions\":false},{\"priority_fee\":null,\"raw_input\":\"0x\",\"result\":\"success\",\"hash\":\"0x04b3da93cf3ac6b0e318901b92e3beb8f0d7fed5f0bbd2f639f0a44604c5c347\",\"max_fee_per_gas\":null,\"revert_reason\":null,\"confirmation_duration\":[0,12000],\"transaction_burnt_fee\":null,\"type\":0,\"token_transfers_overflow\":null,\"confirmations\":1,\"position\":123,\"max_priority_fee_per_gas\":null,\"transaction_tag\":null,\"created_contract\":null,\"value\":\"405067319463468000\",\"from\":{\"ens_domain_name\":null,\"hash\":\"0x46340b20830761efd32832A74d7169B29FEB9758\",\"implementations\":[],\"is_contract\":false,\"is_scam\":false,\"is_verified\":false,\"metadata\":{\"tags\":[{\"meta\":{},\"name\":\"Crypto.com\",\"ordinal\":0,\"slug\":\"cryptocom\",\"tagType\":\"generic\"},{\"meta\":{},\"name\":\"HOT WALLET\",\"ordinal\":0,\"slug\":\"hot-wallet\",\"tagType\":\"generic\"},{\"meta\":{\"tooltipUrl\":\"https://Crypto.com\"},\"name\":\"Crypto.com 2\",\"ordinal\":10,\"slug\":\"cryptocom-2\",\"tagType\":\"name\"},{\"meta\":{},\"name\":\"Exchange\",\"ordinal\":0,\"slug\":\"exchange\",\"tagType\":\"generic\"}]},\"name\":null,\"private_tags\":[],\"proxy_type\":null,\"public_tags\":[],\"watchlist_names\":[]},\"gas_used\":\"21000\",\"status\":\"ok\",\"to\":{\"ens_domain_name\":null,\"hash\":\"0xAFEB34E421f2394ac3755dAdf207F6f4c8140800\",\"implementations\":[],\"is_contract\":false,\"is_scam\":false,\"is_verified\":false,\"metadata\":null,\"name\":null,\"private_tags\":[],\"proxy_type\":null,\"public_tags\":[],\"watchlist_names\":[]},\"authorization_list\":[],\"method\":null,\"fee\":{\"type\":\"actual\",\"value\":\"97982689161000\"},\"actions\":[],\"gas_limit\":\"350000\",\"gas_price\":\"4665842341\",\"decoded_input\":null,\"token_transfers\":null,\"base_fee_per_gas\":\"4141138449\",\"timestamp\":\"2025-06-12T15:41:23.000000Z\",\"nonce\":14794295,\"historic_exchange_rate\":\"2775.54\",\"transaction_types\":[\"coin_transfer\"],\"exchange_rate\":\"2754.57\",\"block_number\":22689445,\"has_error_in_internal_transactions\":false},{\"priority_fee\":null,\"raw_input\":\"0x\",\"result\":\"success\",\"hash\":\"0x42f2db4a112ba60c79e9df03c78c43c64f3bfe943dadc7f766fbec9be6028c3f\",\"max_fee_per_gas\":null,\"revert_reason\":null,\"confirmation_duration\":[0,12000],\"transaction_burnt_fee\":null,\"type\":0,\"token_transfers_overflow\":null,\"confirmations\":1,\"position\":122,\"max_priority_fee_per_gas\":null,\"transaction_tag\":null,\"created_contract\":null,\"value\":\"701469252150000\",\"from\":{\"ens_domain_name\":null,\"hash\":\"0x65F7A12bB75b2C5F9391826D28160D8E8AC210C2\",\"implementations\":[],\"is_contract\":false,\"is_scam\":false,\"is_verified\":false,\"metadata\":null,\"name\":null,\"private_tags\":[],\"proxy_type\":null,\"public_tags\":[],\"watchlist_names\":[]},\"gas_used\":\"21000\",\"status\":\"ok\",\"to\":{\"ens_domain_name\":null,\"hash\":\"0xDB41354be3e027a7c46db8493136323D8DD23abF\",\"implementations\":[],\"is_contract\":false,\"is_scam\":false,\"is_verified\":false,\"metadata\":null,\"name\":null,\"private_tags\":[],\"proxy_type\":null,\"public_tags\":[],\"watchlist_names\":[]},\"authorization_list\":[],\"method\":null,\"fee\":{\"type\":\"actual\",\"value\":\"98205695301000\"},\"actions\":[],\"gas_limit\":\"21000\",\"gas_price\":\"4676461681\",\"decoded_input\":null,\"token_transfers\":null,\"base_fee_per_gas\":\"4141138449\",\"timestamp\":\"2025-06-12T15:41:23.000000Z\",\"nonce\":671,\"historic_exchange_rate\":\"2775.54\",\"transaction_types\":[\"coin_transfer\"],\"exchange_rate\":\"2754.57\",\"block_number\":22689445,\"has_error_in_internal_transactions\":false},{\"priority_fee\":\"18028059483000\",\"raw_input\":\"0x\",\"result\":\"success\",\"hash\":\"0x8ec8f193bfcfdfba02641783622473a5a1ca1a3ef442860d013048f075510a86\",\"max_fee_per_gas\":\"5100000000\",\"revert_reason\":null,\"confirmation_duration\":[0,12000],\"transaction_burnt_fee\":\"86963907429000\",\"type\":2,\"token_transfers_overflow\":null,\"confirmations\":1,\"position\":121,\"max_priority_fee_per_gas\":\"858479023\",\"transaction_tag\":null,\"created_contract\":null,\"value\":\"440761886674361\",\"from\":{\"ens_domain_name\":null,\"hash\":\"0x4EDA2604d22F99087C00A3127C153cD9411692e0\",\"implementations\":[],\"is_contract\":false,\"is_scam\":false,\"is_verified\":false,\"metadata\":null,\"name\":null,\"private_tags\":[],\"proxy_type\":null,\"public_tags\":[],\"watchlist_names\":[]},\"gas_used\":\"21000\",\"status\":\"ok\",\"to\":{\"ens_domain_name\":null,\"hash\":\"0xDc9DB0068a022178fe3ca5cE358623bBf8D88B59\",\"implementations\":[],\"is_contract\":false,\"is_scam\":false,\"is_verified\":false,\"metadata\":null,\"name\":null,\"private_tags\":[],\"proxy_type\":null,\"public_tags\":[],\"watchlist_names\":[]},\"authorization_list\":[],\"method\":null,\"fee\":{\"type\":\"actual\",\"value\":\"104991966912000\"},\"actions\":[],\"gas_limit\":\"21000\",\"gas_price\":\"4999617472\",\"decoded_input\":null,\"token_transfers\":null,\"base_fee_per_gas\":\"4141138449\",\"timestamp\":\"2025-06-12T15:41:23.000000Z\",\"nonce\":3,\"historic_exchange_rate\":\"2775.54\",\"transaction_types\":[\"coin_transfer\"],\"exchange_rate\":\"2754.57\",\"block_number\":22689445,\"has_error_in_internal_transactions\":false},{\"priority_fee\":\"18033414525000\",\"raw_input\":\"0x\",\"result\":\"success\",\"hash\":\"0xbca23105d61ea9363821d7d60ee075bcc05cc7fb9ca11218afa89ff36271651b\",\"max_fee_per_gas\":\"6830744161\",\"revert_reason\":null,\"confirmation_duration\":[0,12000],\"transaction_burnt_fee\":\"86963907429000\",\"type\":2,\"token_transfers_overflow\":null,\"confirmations\":1,\"position\":120,\"max_priority_fee_per_gas\":\"858734025\",\"transaction_tag\":null,\"created_contract\":null,\"value\":\"58300000000000000\",\"from\":{\"ens_domain_name\":\"flaminkondo.eth\",\"hash\":\"0x8077338c187a9edd65EC075Aa34B1AD6B57CA05e\",\"implementations\":[],\"is_contract\":false,\"is_scam\":false,\"is_verified\":false,\"metadata\":null,\"name\":null,\"private_tags\":[],\"proxy_type\":null,\"public_tags\":[],\"watchlist_names\":[]},\"gas_used\":\"21000\",\"status\":\"ok\",\"to\":{\"ens_domain_name\":null,\"hash\":\"0xCa2786C12aDe75627A4773E1E0373474d7aDb5B3\",\"implementations\":[],\"is_contract\":false,\"is_scam\":false,\"is_verified\":false,\"metadata\":null,\"name\":null,\"private_tags\":[],\"proxy_type\":null,\"public_tags\":[],\"watchlist_names\":[]},\"authorization_list\":[],\"method\":null,\"fee\":{\"type\":\"actual\",\"value\":\"104997321954000\"},\"actions\":[],\"gas_limit\":\"21000\",\"gas_price\":\"4999872474\",\"decoded_input\":null,\"token_transfers\":null,\"base_fee_per_gas\":\"4141138449\",\"timestamp\":\"2025-06-12T15:41:23.000000Z\",\"nonce\":157,\"historic_exchange_rate\":\"2775.54\",\"transaction_types\":[\"coin_transfer\"],\"exchange_rate\":\"2754.57\",\"block_number\":22689445,\"has_error_in_internal_transactions\":false},{\"priority_fee\":null,\"raw_input\":\"0x\",\"result\":\"success\",\"hash\":\"0xd91b5b1e80adb1d989b99a64bd09c2a997cd30743a09fc21949a59e0b352d4f7\",\"max_fee_per_gas\":null,\"revert_reason\":null,\"confirmation_duration\":[0,12000],\"transaction_burnt_fee\":null,\"type\":0,\"token_transfers_overflow\":null,\"confirmations\":1,\"position\":119,\"max_priority_fee_per_gas\":null,\"transaction_tag\":null,\"created_contract\":null,\"value\":\"110890750000000000\",\"from\":{\"ens_domain_name\":null,\"hash\":\"0x5e514D99Fc6d9EA7B241C0539bB41DAac6707753\",\"implementations\":[],\"is_contract\":false,\"is_scam\":false,\"is_verified\":false,\"metadata\":null,\"name\":null,\"private_tags\":[],\"proxy_type\":null,\"public_tags\":[],\"watchlist_names\":[]},\"gas_used\":\"21000\",\"status\":\"ok\",\"to\":{\"ens_domain_name\":null,\"hash\":\"0xEbA88149813BEc1cCcccFDb0daCEFaaa5DE94cB1\",\"implementations\":[],\"is_contract\":false,\"is_scam\":false,\"is_verified\":false,\"metadata\":{\"tags\":[{\"meta\":{\"main_entity\":\"ChangeNow\"},\"name\":\"ChangeNow (0xeba8)\",\"ordinal\":0,\"slug\":\"changenow-0xeba8\",\"tagType\":\"name\"}]},\"name\":null,\"private_tags\":[],\"proxy_type\":null,\"public_tags\":[],\"watchlist_names\":[]},\"authorization_list\":[],\"method\":null,\"fee\":{\"type\":\"actual\",\"value\":\"105000000000000\"},\"actions\":[],\"gas_limit\":\"22000\",\"gas_price\":\"5000000000\",\"decoded_input\":null,\"token_transfers\":null,\"base_fee_per_gas\":\"4141138449\",\"timestamp\":\"2025-06-12T15:41:23.000000Z\",\"nonce\":0,\"historic_exchange_rate\":\"2775.54\",\"transaction_types\":[\"coin_transfer\"],\"exchange_rate\":\"2754.57\",\"block_number\":22689445,\"has_error_in_internal_transactions\":false},{\"priority_fee\":\"18591149010000\",\"raw_input\":\"0x\",\"result\":\"success\",\"hash\":\"0x77fea7ce39c25002ed8dbe9c549847bee15101870d6b4903144584e01b22d73d\",\"max_fee_per_gas\":\"6523204476\",\"revert_reason\":null,\"confirmation_duration\":[0,12000],\"transaction_burnt_fee\":\"86963907429000\",\"type\":2,\"token_transfers_overflow\":null,\"confirmations\":1,\"position\":118,\"max_priority_fee_per_gas\":\"885292810\",\"transaction_tag\":null,\"created_contract\":null,\"value\":\"622844398020118\",\"from\":{\"ens_domain_name\":null,\"hash\":\"0xb0f1Cb8ee56f0a018997bF7FFF958BeF11bc1A18\",\"implementations\":[],\"is_contract\":false,\"is_scam\":false,\"is_verified\":false,\"metadata\":null,\"name\":null,\"private_tags\":[],\"proxy_type\":null,\"public_tags\":[],\"watchlist_names\":[]},\"gas_used\":\"21000\",\"status\":\"ok\",\"to\":{\"ens_domain_name\":null,\"hash\":\"0xE0f9677b44afe3EA95c57088F9e2CD75a8D0147b\",\"implementations\":[],\"is_contract\":false,\"is_scam\":false,\"is_verified\":false,\"metadata\":null,\"name\":null,\"private_tags\":[],\"proxy_type\":null,\"public_tags\":[],\"watchlist_names\":[]},\"authorization_list\":[],\"method\":null,\"fee\":{\"type\":\"actual\",\"value\":\"105555056439000\"},\"actions\":[],\"gas_limit\":\"31500\",\"gas_price\":\"5026431259\",\"decoded_input\":null,\"token_transfers\":null,\"base_fee_per_gas\":\"4141138449\",\"timestamp\":\"2025-06-12T15:41:23.000000Z\",\"nonce\":2,\"historic_exchange_rate\":\"2775.54\",\"transaction_types\":[\"coin_transfer\"],\"exchange_rate\":\"2754.57\",\"block_number\":22689445,\"has_error_in_internal_transactions\":false},{\"priority_fee\":\"18591149010000\",\"raw_input\":\"0x\",\"result\":\"success\",\"hash\":\"0x9769f22e284fb93baeda0e0b778f38e1a19ce8f88eddb1f8c52afccc1e346ee4\",\"max_fee_per_gas\":\"6853357172\",\"revert_reason\":null,\"confirmation_duration\":[0,12000],\"transaction_burnt_fee\":\"86963907429000\",\"type\":2,\"token_transfers_overflow\":null,\"confirmations\":1,\"position\":117,\"max_priority_fee_per_gas\":\"885292810\",\"transaction_tag\":null,\"created_contract\":null,\"value\":\"64870176226000000\",\"from\":{\"ens_domain_name\":null,\"hash\":\"0x2a6642Fe474E7B57086c757643E63b76e17EEA21\",\"implementations\":[],\"is_contract\":false,\"is_scam\":false,\"is_verified\":false,\"metadata\":null,\"name\":null,\"private_tags\":[],\"proxy_type\":null,\"public_tags\":[],\"watchlist_names\":[]},\"gas_used\":\"21000\",\"status\":\"ok\",\"to\":{\"ens_domain_name\":null,\"hash\":\"0x861E28C8D93D60197292291bCcB43888aee4701a\",\"implementations\":[],\"is_contract\":false,\"is_scam\":false,\"is_verified\":false,\"metadata\":null,\"name\":null,\"private_tags\":[],\"proxy_type\":null,\"public_tags\":[],\"watchlist_names\":[]},\"authorization_list\":[],\"method\":null,\"fee\":{\"type\":\"actual\",\"value\":\"105555056439000\"},\"actions\":[],\"gas_limit\":\"31500\",\"gas_price\":\"5026431259\",\"decoded_input\":null,\"token_transfers\":null,\"base_fee_per_gas\":\"4141138449\",\"timestamp\":\"2025-06-12T15:41:23.000000Z\",\"nonce\":10,\"historic_exchange_rate\":\"2775.54\",\"transaction_types\":[\"coin_transfer\"],\"exchange_rate\":\"2754.57\",\"block_number\":22689445,\"has_error_in_internal_transactions\":false},{\"priority_fee\":\"18639840114550\",\"raw_input\":\"0x\",\"result\":\"success\",\"hash\":\"0xee6c463ddc4ed5b12ef372a4651333131a6b157752f52b9457f91335bdf344fd\",\"max_fee_per_gas\":\"6523204476\",\"revert_reason\":null,\"confirmation_duration\":[0,12000],\"transaction_burnt_fee\":\"87191670043695\",\"type\":2,\"token_transfers_overflow\":null,\"confirmations\":1,\"position\":116,\"max_priority_fee_per_gas\":\"885292810\",\"transaction_tag\":null,\"created_contract\":null,\"value\":\"80000000000000000\",\"from\":{\"ens_domain_name\":null,\"hash\":\"0x8bcD6B518430217bb9Bd3aCd6F5146B33ed244a7\",\"implementations\":[],\"is_contract\":false,\"is_scam\":false,\"is_verified\":false,\"metadata\":null,\"name\":null,\"private_tags\":[],\"proxy_type\":null,\"public_tags\":[],\"watchlist_names\":[]},\"gas_used\":\"21055\",\"status\":\"ok\",\"to\":{\"ens_domain_name\":null,\"hash\":\"0xB685760EBD368a891F27ae547391F4E2A289895b\",\"implementations\":[],\"is_contract\":true,\"is_scam\":false,\"is_verified\":true,\"metadata\":null,\"name\":\"Bridgers\",\"private_tags\":[],\"proxy_type\":\"unknown\",\"public_tags\":[],\"watchlist_names\":[]},\"authorization_list\":[],\"method\":null,\"fee\":{\"type\":\"actual\",\"value\":\"105831510158245\"},\"actions\":[],\"gas_limit\":\"31830\",\"gas_price\":\"5026431259\",\"decoded_input\":null,\"token_transfers\":null,\"base_fee_per_gas\":\"4141138449\",\"timestamp\":\"2025-06-12T15:41:23.000000Z\",\"nonce\":35,\"historic_exchange_rate\":\"2775.54\",\"transaction_types\":[\"coin_transfer\",\"contract_call\"],\"exchange_rate\":\"2754.57\",\"block_number\":22689445,\"has_error_in_internal_transactions\":false},{\"priority_fee\":\"20509525260000\",\"raw_input\":\"0x\",\"result\":\"success\",\"hash\":\"0x177384f69c615a9038fafcb923220aa77c3d0e50e4a6fcb452809f8d1726293a\",\"max_fee_per_gas\":\"6293209515\",\"revert_reason\":null,\"confirmation_duration\":[0,12000],\"transaction_burnt_fee\":\"86963907429000\",\"type\":2,\"token_transfers_overflow\":null,\"confirmations\":1,\"position\":115,\"max_priority_fee_per_gas\":\"976644060\",\"transaction_tag\":null,\"created_contract\":null,\"value\":\"23200000000000000\",\"from\":{\"ens_domain_name\":null,\"hash\":\"0x0e9E39190DF7A2d38872736910Cddfa519e419ca\",\"implementations\":[],\"is_contract\":false,\"is_scam\":false,\"is_verified\":false,\"metadata\":null,\"name\":null,\"private_tags\":[],\"proxy_type\":null,\"public_tags\":[],\"watchlist_names\":[]},\"gas_used\":\"21000\",\"status\":\"ok\",\"to\":{\"ens_domain_name\":null,\"hash\":\"0xee5eF0F55D92fCeeA28f8bbe4a731c8D6418945B\",\"implementations\":[],\"is_contract\":false,\"is_scam\":false,\"is_verified\":false,\"metadata\":null,\"name\":null,\"private_tags\":[],\"proxy_type\":null,\"public_tags\":[],\"watchlist_names\":[]},\"authorization_list\":[],\"method\":null,\"fee\":{\"type\":\"actual\",\"value\":\"107473432689000\"},\"actions\":[],\"gas_limit\":\"21000\",\"gas_price\":\"5117782509\",\"decoded_input\":null,\"token_transfers\":null,\"base_fee_per_gas\":\"4141138449\",\"timestamp\":\"2025-06-12T15:41:23.000000Z\",\"nonce\":412181,\"historic_exchange_rate\":\"2775.54\",\"transaction_types\":[\"coin_transfer\"],\"exchange_rate\":\"2754.57\",\"block_number\":22689445,\"has_error_in_internal_transactions\":false},{\"priority_fee\":\"21000000000000\",\"raw_input\":\"0x\",\"result\":\"success\",\"hash\":\"0xbb235fcdd884887fd8cf4c602e88ac639b00323b3c96e8b6c7cd9be6337c6509\",\"max_fee_per_gas\":\"5241520977\",\"revert_reason\":null,\"confirmation_duration\":[0,12000],\"transaction_burnt_fee\":\"86963907429000\",\"type\":2,\"token_transfers_overflow\":null,\"confirmations\":1,\"position\":114,\"max_priority_fee_per_gas\":\"1000000000\",\"transaction_tag\":null,\"created_contract\":null,\"value\":\"36285786857288000\",\"from\":{\"ens_domain_name\":null,\"hash\":\"0x06c8b67ea42B6Ae61293c3C087971e64B19d2B7a\",\"implementations\":[],\"is_contract\":false,\"is_scam\":false,\"is_verified\":false,\"metadata\":null,\"name\":null,\"private_tags\":[],\"proxy_type\":null,\"public_tags\":[],\"watchlist_names\":[]},\"gas_used\":\"21000\",\"status\":\"ok\",\"to\":{\"ens_domain_name\":null,\"hash\":\"0xa153f2FE2351c77FfeC853bb71F09796e8332E8E\",\"implementations\":[],\"is_contract\":false,\"is_scam\":false,\"is_verified\":false,\"metadata\":null,\"name\":null,\"private_tags\":[],\"proxy_type\":null,\"public_tags\":[],\"watchlist_names\":[]},\"authorization_list\":[],\"method\":null,\"fee\":{\"type\":\"actual\",\"value\":\"107963907429000\"},\"actions\":[],\"gas_limit\":\"21000\",\"gas_price\":\"5141138449\",\"decoded_input\":null,\"token_transfers\":null,\"base_fee_per_gas\":\"4141138449\",\"timestamp\":\"2025-06-12T15:41:23.000000Z\",\"nonce\":221,\"historic_exchange_rate\":\"2775.54\",\"transaction_types\":[\"coin_transfer\"],\"exchange_rate\":\"2754.57\",\"block_number\":22689445,\"has_error_in_internal_transactions\":false},{\"priority_fee\":\"26962991076000\",\"raw_input\":\"0x\",\"result\":\"success\",\"hash\":\"0xd27e1fc5650786e0606d20742af97e408d85252049c5157cf0181932cd096d54\",\"max_fee_per_gas\":\"5525472933\",\"revert_reason\":null,\"confirmation_duration\":[0,12000],\"transaction_burnt_fee\":\"86963907429000\",\"type\":2,\"token_transfers_overflow\":null,\"confirmations\":1,\"position\":113,\"max_priority_fee_per_gas\":\"1283951956\",\"transaction_tag\":null,\"created_contract\":null,\"value\":\"69702017170397382\",\"from\":{\"ens_domain_name\":null,\"hash\":\"0xd53b6Fc711b127b85f6281620Bb57700fD293426\",\"implementations\":[],\"is_contract\":false,\"is_scam\":false,\"is_verified\":false,\"metadata\":null,\"name\":null,\"private_tags\":[],\"proxy_type\":null,\"public_tags\":[],\"watchlist_names\":[]},\"gas_used\":\"21000\",\"status\":\"ok\",\"to\":{\"ens_domain_name\":null,\"hash\":\"0x23e51770e1E1953fe707D416fa8C5F192874DA36\",\"implementations\":[],\"is_contract\":false,\"is_scam\":false,\"is_verified\":false,\"metadata\":null,\"name\":null,\"private_tags\":[],\"proxy_type\":null,\"public_tags\":[],\"watchlist_names\":[]},\"authorization_list\":[],\"method\":null,\"fee\":{\"type\":\"actual\",\"value\":\"113926898505000\"},\"actions\":[],\"gas_limit\":\"24150\",\"gas_price\":\"5425090405\",\"decoded_input\":null,\"token_transfers\":null,\"base_fee_per_gas\":\"4141138449\",\"timestamp\":\"2025-06-12T15:41:23.000000Z\",\"nonce\":198,\"historic_exchange_rate\":\"2775.54\",\"transaction_types\":[\"coin_transfer\"],\"exchange_rate\":\"2754.57\",\"block_number\":22689445,\"has_error_in_internal_transactions\":false},{\"priority_fee\":\"29193415702560\",\"raw_input\":\"0x737c1707d385b7eb3778d3a8f6be77be40d63c783a5c6fba3bc04db50fbdfb3f865d8597\",\"result\":\"success\",\"hash\":\"0x088943c01b610cb86a9573c936432bb46170882ea45580dddc3cdc1bd4d17dbf\",\"max_fee_per_gas\":\"6641559987\",\"revert_reason\":null,\"confirmation_duration\":[0,12000],\"transaction_burnt_fee\":\"136558181494224\",\"type\":2,\"token_transfers_overflow\":null,\"confirmations\":1,\"position\":112,\"max_priority_fee_per_gas\":\"885292810\",\"transaction_tag\":null,\"created_contract\":null,\"value\":\"3940000000000000\",\"from\":{\"ens_domain_name\":null,\"hash\":\"0x00c786C45F6BD0073f0E2918EA4EeA3fF13d4297\",\"implementations\":[],\"is_contract\":false,\"is_scam\":false,\"is_verified\":false,\"metadata\":null,\"name\":null,\"private_tags\":[],\"proxy_type\":null,\"public_tags\":[],\"watchlist_names\":[]},\"gas_used\":\"32976\",\"status\":\"ok\",\"to\":{\"ens_domain_name\":null,\"hash\":\"0xa5F565650890fBA1824Ee0F21EbBbF660a179934\",\"implementations\":[],\"is_contract\":true,\"is_scam\":false,\"is_verified\":true,\"metadata\":null,\"name\":\"RelayReceiver\",\"private_tags\":[],\"proxy_type\":\"unknown\",\"public_tags\":[],\"watchlist_names\":[]},\"authorization_list\":[],\"method\":\"0x737c1707\",\"fee\":{\"type\":\"actual\",\"value\":\"165751597196784\"},\"actions\":[],\"gas_limit\":\"50535\",\"gas_price\":\"5026431259\",\"decoded_input\":null,\"token_transfers\":null,\"base_fee_per_gas\":\"4141138449\",\"timestamp\":\"2025-06-12T15:41:23.000000Z\",\"nonce\":9,\"historic_exchange_rate\":\"2775.54\",\"transaction_types\":[\"coin_transfer\",\"contract_call\"],\"exchange_rate\":\"2754.57\",\"block_number\":22689445,\"has_error_in_internal_transactions\":false},{\"priority_fee\":\"29193415702560\",\"raw_input\":\"0xeda0636952ee8d25a19698a70750074abb4aa905628523f3135a2bcbf3998f6c865d8597\",\"result\":\"success\",\"hash\":\"0x4749114516e58c86acb57923daf6645604cfd4a4a62e57600a2834f3e8ae2d8c\",\"max_fee_per_gas\":\"6641559987\",\"revert_reason\":null,\"confirmation_duration\":[0,12000],\"transaction_burnt_fee\":\"136558181494224\",\"type\":2,\"token_transfers_overflow\":null,\"confirmations\":1,\"position\":111,\"max_priority_fee_per_gas\":\"885292810\",\"transaction_tag\":null,\"created_contract\":null,\"value\":\"3940000000000000\",\"from\":{\"ens_domain_name\":null,\"hash\":\"0x9276c6c98Df18f9DBC5144B71270deACEBF35b1D\",\"implementations\":[],\"is_contract\":false,\"is_scam\":false,\"is_verified\":false,\"metadata\":null,\"name\":null,\"private_tags\":[],\"proxy_type\":null,\"public_tags\":[],\"watchlist_names\":[]},\"gas_used\":\"32976\",\"status\":\"ok\",\"to\":{\"ens_domain_name\":null,\"hash\":\"0xa5F565650890fBA1824Ee0F21EbBbF660a179934\",\"implementations\":[],\"is_contract\":true,\"is_scam\":false,\"is_verified\":true,\"metadata\":null,\"name\":\"RelayReceiver\",\"private_tags\":[],\"proxy_type\":\"unknown\",\"public_tags\":[],\"watchlist_names\":[]},\"authorization_list\":[],\"method\":\"0xeda06369\",\"fee\":{\"type\":\"actual\",\"value\":\"165751597196784\"},\"actions\":[],\"gas_limit\":\"50535\",\"gas_price\":\"5026431259\",\"decoded_input\":null,\"token_transfers\":null,\"base_fee_per_gas\":\"4141138449\",\"timestamp\":\"2025-06-12T15:41:23.000000Z\",\"nonce\":9,\"historic_exchange_rate\":\"2775.54\",\"transaction_types\":[\"coin_transfer\",\"contract_call\"],\"exchange_rate\":\"2754.57\",\"block_number\":22689445,\"has_error_in_internal_transactions\":false},{\"priority_fee\":\"29193415702560\",\"raw_input\":\"0x15c4bcb4123df3d609061653783303d736ec0182f7367c3a95069310c78c4204865d8597\",\"result\":\"success\",\"hash\":\"0xed92c539c672463a0a9d30c759b46949e2e59df0d44c819c2955e8419c91662e\",\"max_fee_per_gas\":\"6641559987\",\"revert_reason\":null,\"confirmation_duration\":[0,12000],\"transaction_burnt_fee\":\"136558181494224\",\"type\":2,\"token_transfers_overflow\":null,\"confirmations\":1,\"position\":110,\"max_priority_fee_per_gas\":\"885292810\",\"transaction_tag\":null,\"created_contract\":null,\"value\":\"3940000000000000\",\"from\":{\"ens_domain_name\":null,\"hash\":\"0x61050E4721Ef16c13172831cf894c6d46D816c68\",\"implementations\":[],\"is_contract\":false,\"is_scam\":false,\"is_verified\":false,\"metadata\":null,\"name\":null,\"private_tags\":[],\"proxy_type\":null,\"public_tags\":[],\"watchlist_names\":[]},\"gas_used\":\"32976\",\"status\":\"ok\",\"to\":{\"ens_domain_name\":null,\"hash\":\"0xa5F565650890fBA1824Ee0F21EbBbF660a179934\",\"implementations\":[],\"is_contract\":true,\"is_scam\":false,\"is_verified\":true,\"metadata\":null,\"name\":\"RelayReceiver\",\"private_tags\":[],\"proxy_type\":\"unknown\",\"public_tags\":[],\"watchlist_names\":[]},\"authorization_list\":[],\"method\":\"0x15c4bcb4\",\"fee\":{\"type\":\"actual\",\"value\":\"165751597196784\"},\"actions\":[],\"gas_limit\":\"50535\",\"gas_price\":\"5026431259\",\"decoded_input\":null,\"token_transfers\":null,\"base_fee_per_gas\":\"4141138449\",\"timestamp\":\"2025-06-12T15:41:23.000000Z\",\"nonce\":9,\"historic_exchange_rate\":\"2775.54\",\"transaction_types\":[\"coin_transfer\",\"contract_call\"],\"exchange_rate\":\"2754.57\",\"block_number\":22689445,\"has_error_in_internal_transactions\":false}],\"next_page_params\":{\"block_number\":22689445,\"index\":110,\"items_count\":50}}",
    "headers": {
      "Content-Type": "application/json"
    }
  }
}