{
  "request": {
    "method": "GET",
    "urlPath": "/api/v2/transactions"
  },
  "response": {
    "status": 200,
    "body": "{\"items\":[{\"priority_fee\":\"0\",\"raw_input\":\"0x\",\"result\":\"success\",\"hash\":\"0xea38aa50f044b6ea495e731fd0d3a300c0249dc9f34de37859cbe8d95d4b532e\",\"max_fee_per_gas\":\"4686063232\",\"revert_reason\":null,\"confirmation_duration\":[0,12000],\"transaction_burnt_fee\":\"98665061349760\",\"type\":2,\"token_transfers_overflow\":null,\"confirmations\":1,\"position\":236,\"max_priority_fee_per_gas\":\"0\",\"transaction_tag\":null,\"created_contract\":null,\"value\":\"24435243801031811\",\"from\":{\"ens_domain_name\":\"titanbuilder.eth\",\"hash\":\"0x4838B106FCe9647Bdf1E7877BF73cE8B0BAD5f97\",\"implementations\":[],\"is_contract\":false,\"is_scam\":false,\"is_verified\":false,\"metadata\":{\"tags\":[{\"meta\":{\"tooltipUrl\":\"https://www.titanbuilder.xyz/\"},\"name\":\"Titan Builder\",\"ordinal\":10,\"slug\":\"titan-builder\",\"tagType\":\"name\"},{\"meta\":{},\"name\":\"MEV Builder\",\"ordinal\":0,\"slug\":\"mev-builder\",\"tagType\":\"generic\"}]},\"name\":null,\"private_tags\":[],\"proxy_type\":\"unknown\",\"public_tags\":[],\"watchlist_names\":[]},\"gas_used\":\"21055\",\"status\":\"ok\",\"to\":{\"ens_domain_name\":null,\"hash\":\"0x0AD1B3766f572c71CdFc4073F3Effe1bBf129385\",\"implementations\":[],\"is_contract\":true,\"is_scam\":false,\"is_verified\":false,\"metadata\":null,\"name\":null,\"private_tags\":[],\"proxy_type\":\"unknown\",\"public_tags\":[],\"watchlist_names\":[]},\"authorization_list\":[],\"method\":null,\"fee\":{\"type\":\"actual\",\"value\":\"98665061349760\"},\"actions\":[],\"gas_limit\":\"21055\",\"gas_price\":\"4686063232\",\"decoded_input\":null,\"token_transfers\":null,\"base_fee_per_gas\":\"4686063232\",\"timestamp\":\"2025-06-11T17:44:47.000000Z\",\"nonce\":1811415,\"historic_exchange_rate\":\"2798.08\",\"transaction_types\":[\"coin_transfer\",\"contract_call\"],\"exchange_rate\":\"2861.62\",\"block_number\":22682892,\"has_error_in_internal_transactions\":null},{\"priority_fee\":\"28478200000000\",\"raw_input\":\"0x538f9406000000000000000000000000000000000000000000000000000000000000004000000000000000000000000000000000000000000000000000000000000025e0000000000000000000000000000000000000000000000000000000000000012c0274c9dc2096cfe79c5f28f5bfb3a95b3bd0692430b4f9ba79f871068611804a00000000000000000000000000000000000000000000000000000000000000000000000000000000000000000000000000000000000000000000000000000029000000000000000000000000000000000031303030504550452d33000000000000eecd88375a79f92352f9c22d2521159ab587c94c2a500b852fd929da8510f0000000000000000000000000000000000031494e43482d35000000000000000007f193c7e5ee8dc77b7a5bfcad3ef7392b2340407ce6964c3cef5706c8768f9400000000000000000000000000000000004144412d350000000000000000000005dc46b1d4110c2b55c35d7c03627a440e8e6f8118058118670f4045b1fa8aee0000000000000000000000000000000000414c474f2d35000000000000000000059578f27ceff2c893155901b40908674bb5df14a5924cadbfe05ea048eedee600000000000000000000000000000000004150452d360000000000000000000006506d507e0ab7ec1fb3ac06e1f4d88e5ca5fa6fb7428c0dc1fb62eb69acd9c200000000000000000000000000000000004150542d36000000000000000000000546574e57e52d4f55ddc29b08fc1dcf288b5aff92212f95d010c65e705c6bf500000000000000000000000000000000004152422d3600000000000000000000066806456e13f7918bc8322cd53513ae434b9fef4a4036b8d4ccae13962c6a88000000000000000000000000000000000041544f4d2d3700000000000000000005fcdc26a1806d0799ff342997d08157517cd227781ed465eb1c7f6b4b80b19b0000000000000000000000000000000000415641582d37000000000000000000035b953b0248bff5b058081eb2ca730a4210664db3014e51d1fcbfebb5e5062600000000000000000000000000000000004158532d370000000000000000000003b6dd137fd3564c364c7a2a4f8f7912598de9331fbbd3472ecdc3ea5a8f5ec800000000000000000000000000000000004243482d3800000000000000000000048353d9a04649b20f94271529181af131d5b33ee64e247cda564dfd4cff9c290000000000000000000000000000000000424c55522d35000000000000000000011f26901eb48d1f91f758dbd1e4d5beb2ed1bc2944956bc63b5b4529005ee690000000000000000000000000000000000424e422d3800000000000000000000014bd1b8878146f07a33a649fafe27f21e8139c03f543a0c7a002300d4781b6300000000000000000000000000000000004254432d313000000000000000000003eb85179ed35ddc0fb1630bb29b8deb624854cbb8edc3bb7569c72fe2d4c8e5000000000000000000000000000000000043485a2d350000000000000000000002dda67c841395e301cd4f21955e1d0a65e74fcb5d7a0a12b731fa371216741300000000000000000000000000000000004352562d35000000000000000000000169ef3a935b922f531bb07ef3fbd983b839ae5518537d0d3109570ec49467e20000000000000000000000000000000000444f47452d3500000000000000000004f1bbda440a64ac223a9a02ac6ed1e662514aa4aa9b3397b43a2e83fc784e1d0000000000000000000000000000000000444f542d36000000000000000000000076b8205a5ab8d2691e016b5eda44b977c01cc42e3d0bd74c15cbff605af96a0000000000000000000000000000000000445944582d360000000000000000000546e5ba3e8fd075a3a83ba02a433b6fda63bf351659a3e875e430f098e0c6f00000000000000000000000000000000000454e4a2d350000000000000000000001ae7c1efdc69fa372aa306ad43c2ce1c79a667053b729baa5c7e692148ccf3d00000000000000000000000000000000004554432d3700000000000000000000027b44ca40d5ffd76b393248d253aa35c56bdbd4b1217f8934b9f7634752b58e00000000000000000000000000000000004554482d3800000000000000000000040f04f568fc2e02594404eadc96f0f386548429749324934ee36375fb5abf41000000000000000000000000000000000046494c2d360000000000000000000001a8b5d91aadc8d239b7c289efb4b7e95159e97196bd2ae4393d8b1974b2db54000000000000000000000000000000000047414c412d340000000000000000000612e937775b98dd84ef3abde87fee61cc4ef969dc6f6b1e9628a1f4112c82840000000000000000000000000000000000474d542d35000000000000000000000353240639588e53fe05959e499eb4f23e59fcc4b85200a3ca219df4e00ad5270000000000000000000000000000000000474d582d37000000000000000000000004ec06b049bf77a3c8a97a74901f4ea06525a23e59386ccd60faad663dcad000000000000000000000000000000000004c42522d36000000000000000000000165f5b9098afbf2d84f2ef211cdd419835e7102e8c0c2524f7cc995609d947c00000000000000000000000000000000004c444f2d360000000000000000000002de702cdf5ef946f1fa0c5a24a2572c244ba9b84f32e10284695671de0b72b100000000000000000000000000000000004c494e4b2d37000000000000000000045313cb2ea77da5a7c39b9efeb8ebb3ef367379192a0191efb57e3f91ba11b400000000000000000000000000000000004c54432d370000000000000000000004d80ff5b5dd80514e7a7640da603814609db0a90f071994b7f861663ed79acc00000000000000000000000000000000004d415449432d36000000000000000007f7629de11347d92b21a9f4acee38378119a7775451fa675d9d1e6ba60b2abc00000000000000000000000000000000004e4541522d360000000000000000000037a3111fa3178601094c96993f7ebb92eeef31fd590f2ad18e899e2438505b00000000000000000000000000000000004f502d3600000000000000000000000409288104605e49ae3d3cf1292072af84a89bc1cdacd59e7818fe6d673c58fd000000000000000000000000000000000053414e442d35000000000000000000056346d3dceec26c22ab306bfdaf0b5031e1c53dc7749d35e33f9d702b48ca500000000000000000000000000000000000534f4c2d370000000000000000000004d69d0d9e20607d9b01e7ea4ace3f7196e092233d4e47fab3622718bc39d4d8000000000000000000000000000000000053555348492d360000000000000000052fa1a830c0a9140cd70ce5b8cd39e95b4a3ee7794cd1e085b15221febe48ae00000000000000000000000000000000005449412d360000000000000000000001972ef6a46fcb84408aca148066bc0af4b0e217e55c9e8ab306dc6d3f55c80b0000000000000000000000000000000000544f4e2d360000000000000000000005ebc880c86d79c8c8833605ab7fd5b41267f3f3e4a414c738438e605181c2750000000000000000000000000000000000554e492d360000000000000000000003831b42d5ad3d10f7e504ea42e5cb180b31d3bb0b1a3e539cff330c7ebc3e4f0000000000000000000000000000000000574c442d3600000000000000000000073eeeef8683a12c782c8b3423da14b1a3c65f44a9baaebbd3bfed2b80f46b3d00000000000000000000000000000000005852502d36000000000000000000000712bcab8adab80eafd9fecbdbf76448918f1eab3c223782cc490ea25d0dfefa00000000000000000000000000000000000000000000000000000000000000680670251530544c902912ac03d833b88cf56c59dd25e18622b35a97a0bbaf77a50000000000000000000000000000000000000000000000000000000000000040009f69f30a8fa39fb1a2d0e0b5b41f607bd5ffa38b6337cf93e80f6154efd98300000000000000000000000000000000000000000000000000000000000000400000000000000000000000000000000000000000000000000000000000000018000000000000000000000000000000000031303030504550452d3300000000000000000000000000000000000000000000000000000000008000000402c2e80000000000000000000000000000000000004150542d360000000000000000000000000000000000000000000000000000000000000000000080000004269b7b2f00000000000000000000000000000000004152422d3600000000000000000000000000000000000000000000000000000000000000000000800000008a784b7e000000000000000000000000000000000041544f4d2d37000000000000000000000000000000000000000000000000000000000000000000800000005e4583750000000000000000000000000000000000415641582d37000000000000000000000000000000000000000000000000000000000000000000800000014bf4171400000000000000000000000000000000004243482d38000000000000000000000000000000000000000000000000000000000000000000008000000061229de50000000000000000000000000000000000424c55522d3500000000000000000000000000000000000000000000000000000000000000000080000000e922d2570000000000000000000000000000000000424e422d380000000000000000000000000000000000000000000000000000000000000000000080000000a2577a7800000000000000000000000000000000004254432d313000000000000000000000000000000000000000000000000000000000000000000080000003ea0267150000000000000000000000000000000000444f47452d350000000000000000000000000000000000000000000000000000000000000000008000000116d9c8ed0000000000000000000000000000000000445944582d3600000000000000000000000000000000000000000000000000000000000000000080000000fe7af85900000000000000000000000000000000004554432d3700000000000000000000000000000000000000000000000000000000000000000000800000009c39933200000000000000000000000000000000004554482d3800000000000000000000000000000000000000000000000000000000000000000000800000071c76bfa800000000000000000000000000000000004c42522d36000000000000000000000000000000000000000000000000000000000000000000008000000011f05e3e00000000000000000000000000000000004c444f2d3600000000000000000000000000000000000000000000000000000000000000000000800000008e64698c00000000000000000000000000000000004c494e4b2d3700000000000000000000000000000000000000000000000000000000000000000080000000bd845bed00000000000000000000000000000000004c54432d3700000000000000000000000000000000000000000000000000000000000000000000800000042173596a00000000000000000000000000000000004d415449432d360000000000000000000000000000000000000000000000000000000000000000800000005c21e85a00000000000000000000000000000000004f502d36000000000000000000000000000000000000000000000000000000000000000000000080000000e6983e870000000000000000000000000000000000534f4c2d37000000000000000000000000000000000000000000000000000000000000000000007ffffffc26d660fa00000000000000000000000000000000005449412d36000000000000000000000000000000000000000000000000000000000000000000008000000340ab2ec30000000000000000000000000000000000544f4e2d360000000000000000000000000000000000000000000000000000000000000000000080000001bb5219820000000000000000000000000000000000574c442d360000000000000000000000000000000000000000000000000000000000000000000080000001712c6dcd00000000000000000000000000000000005852502d360000000000000000000000000000000000000000000000000000000000000000000080000000332d37550000000000000000000000000000000000000000000000000000000068498be00000000000000000000000000000000000000000000000000000000000000018000000000000000000000000000000000031303030504550452d3300000000000000000000000000000000000000000000000000000000000000000d3f66ccb900000000000000000000000000000000004150542d3600000000000000000000000000000000000000000000000000000000000000000000000000053d610a7100000000000000000000000000000000004152422d3600000000000000000000000000000000000000000000000000000000000000000000000000006a733b36000000000000000000000000000000000041544f4d2d37000000000000000000000000000000000000000000000000000000000000000000000000007591463e0000000000000000000000000000000000415641582d3700000000000000000000000000000000000000000000000000000000000000000000000002413afd6200000000000000000000000000000000004243482d38000000000000000000000000000000000000000000000000000000000000000000000000000471d950d40000000000000000000000000000000000424c55522d3500000000000000000000000000000000000000000000000000000000000000000000000000ef435e9f0000000000000000000000000000000000424e422d380000000000000000000000000000000000000000000000000000000000000000000000000006b5fe3b7f00000000000000000000000000000000004254432d31300000000000000000000000000000000000000000000000000000000000000000000000000afef4ecf70000000000000000000000000000000000444f47452d350000000000000000000000000000000000000000000000000000000000000000000000000205220fea0000000000000000000000000000000000445944582d36000000000000000000000000000000000000000000000000000000000000000000000000009a2c678200000000000000000000000000000000004554432d370000000000000000000000000000000000000000000000000000000000000000000000000001db57c22200000000000000000000000000000000004554482d38000000000000000000000000000000000000000000000000000000000000000000000000001c69b8709500000000000000000000000000000000004c42522d3600000000000000000000000000000000000000000000000000000000000000000000000000000b90d19a00000000000000000000000000000000004c444f2d360000000000000000000000000000000000000000000000000000000000000000000000000000fc503bf800000000000000000000000000000000004c494e4b2d37000000000000000000000000000000000000000000000000000000000000000000000000018cb11c0200000000000000000000000000000000004c54432d370000000000000000000000000000000000000000000000000000000000000000000000000009466405ce00000000000000000000000000000000004d415449432d360000000000000000000000000000000000000000000000000000000000000000000000003c15768a00000000000000000000000000000000004f502d36000000000000000000000000000000000000000000000000000000000000000000000000000000bc0a994c0000000000000000000000000000000000534f4c2d370000000000000000000000000000000000000000000000000000000000000000000000000010b555779600000000000000000000000000000000005449412d3600000000000000000000000000000000000000000000000000000000000000000000000000023b8c6f7a0000000000000000000000000000000000544f4e2d36000000000000000000000000000000000000000000000000000000000000000000000000000347980eea0000000000000000000000000000000000574c442d36000000000000000000000000000000000000000000000000000000000000000000000000000133dafaf800000000000000000000000000000000005852502d360000000000000000000000000000000000000000000000000000000000000000000000000002542b2f1100000000000000000000000000000000000000000000000000000000684998d8000000000000000000000000000000000000000000000000000000000000006803b210473ad4467ff809091f5b33c3027aa441283c76b8494bb7ba7a641ed21b00000000000000000000000000000000000000000000000000000000000000400653b08c4443ddabc69d10429e1b2484bc86ff6a250adf22337aca7e33f1442b00000000000000000000000000000000000000000000000000000000000000400000000000000000000000000000000000000000000000000000000000000018000000000000000000000000000000000031303030504550452d3300000000000000000000000000000000000000000000000000000000008000000402dffb0700000000000000000000000000000000004150542d36000000000000000000000000000000000000000000000000000000000000000000008000000426a40a4900000000000000000000000000000000004152422d3600000000000000000000000000000000000000000000000000000000000000000000800000008a78faf5000000000000000000000000000000000041544f4d2d37000000000000000000000000000000000000000000000000000000000000000000800000005e46449a0000000000000000000000000000000000415641582d37000000000000000000000000000000000000000000000000000000000000000000800000014bf7c87900000000000000000000000000000000004243482d3800000000000000000000000000000000000000000000000000000000000000000000800000006129e5250000000000000000000000000000000000424c55522d3500000000000000000000000000000000000000000000000000000000000000000080000000e9245b220000000000000000000000000000000000424e422d380000000000000000000000000000000000000000000000000000000000000000000080000000a262751200000000000000000000000000000000004254432d313000000000000000000000000000000000000000000000000000000000000000000080000003eb5331410000000000000000000000000000000000444f47452d350000000000000000000000000000000000000000000000000000000000000000008000000116de357e0000000000000000000000000000000000445944582d3600000000000000000000000000000000000000000000000000000000000000000080000000fe7bf54300000000000000000000000000000000004554432d3700000000000000000000000000000000000000000000000000000000000000000000800000009c3c9fc100000000000000000000000000000000004554482d380000000000000000000000000000000000000000000000000000000000000000000080000007190bd3d400000000000000000000000000000000004c42522d36000000000000000000000000000000000000000000000000000000000000000000008000000011f0715200000000000000000000000000000000004c444f2d3600000000000000000000000000000000000000000000000000000000000000000000800000008e66099e00000000000000000000000000000000004c494e4b2d3700000000000000000000000000000000000000000000000000000000000000000080000000bd86e80300000000000000000000000000000000004c54432d3700000000000000000000000000000000000000000000000000000000000000000000800000042182979500000000000000000000000000000000004d415449432d360000000000000000000000000000000000000000000000000000000000000000800000005c2249f200000000000000000000000000000000004f502d36000000000000000000000000000000000000000000000000000000000000000000000080000000e699734f0000000000000000000000000000000000534f4c2d37000000000000000000000000000000000000000000000000000000000000000000007ffffffc22d2ec4800000000000000000000000000000000005449412d36000000000000000000000000000000000000000000000000000000000000000000008000000340aeddce0000000000000000000000000000000000544f4e2d360000000000000000000000000000000000000000000000000000000000000000000080000001bb577b860000000000000000000000000000000000574c442d360000000000000000000000000000000000000000000000000000000000000000000080000001712e665f00000000000000000000000000000000005852502d36000000000000000000000000000000000000000000000000000000000000000000008000000032e5ddd7000000000000000000000000000000000000000000000000000000006849a8000000000000000000000000000000000000000000000000000000000000000018000000000000000000000000000000000031303030504550452d3300000000000000000000000000000000000000000000000000000000000000000d58f1738b00000000000000000000000000000000004150542d360000000000000000000000000000000000000000000000000000000000000000000000000005388aa31c00000000000000000000000000000000004152422d3600000000000000000000000000000000000000000000000000000000000000000000000000006ba48a3f000000000000000000000000000000000041544f4d2d3700000000000000000000000000000000000000000000000000000000000000000000000000760383d10000000000000000000000000000000000415641582d3700000000000000000000000000000000000000000000000000000000000000000000000002419d232a00000000000000000000000000000000004243482d38000000000000000000000000000000000000000000000000000000000000000000000000000471778dbe0000000000000000000000000000000000424c55522d3500000000000000000000000000000000000000000000000000000000000000000000000000f00fc5390000000000000000000000000000000000424e422d380000000000000000000000000000000000000000000000000000000000000000000000000006b1b6ab5100000000000000000000000000000000004254432d31300000000000000000000000000000000000000000000000000000000000000000000000000af8cff1c90000000000000000000000000000000000444f47452d350000000000000000000000000000000000000000000000000000000000000000000000000207b41d9a0000000000000000000000000000000000445944582d36000000000000000000000000000000000000000000000000000000000000000000000000009a8d77cb00000000000000000000000000000000004554432d370000000000000000000000000000000000000000000000000000000000000000000000000001dda9344700000000000000000000000000000000004554482d38000000000000000000000000000000000000000000000000000000000000000000000000001ca316002c00000000000000000000000000000000004c42522d3600000000000000000000000000000000000000000000000000000000000000000000000000000bbb592800000000000000000000000000000000004c444f2d360000000000000000000000000000000000000000000000000000000000000000000000000000ff2c4db700000000000000000000000000000000004c494e4b2d37000000000000000000000000000000000000000000000000000000000000000000000000018fc5a09e00000000000000000000000000000000004c54432d3700000000000000000000000000000000000000000000000000000000000000000000000000095484e94900000000000000000000000000000000004d415449432d360000000000000000000000000000000000000000000000000000000000000000000000003c04c05900000000000000000000000000000000004f502d36000000000000000000000000000000000000000000000000000000000000000000000000000000bd19ea9d0000000000000000000000000000000000534f4c2d370000000000000000000000000000000000000000000000000000000000000000000000000010b5cdad4700000000000000000000000000000000005449412d36000000000000000000000000000000000000000000000000000000000000000000000000000241b940540000000000000000000000000000000000544f4e2d3600000000000000000000000000000000000000000000000000000000000000000000000000034aa9eda40000000000000000000000000000000000574c442d3600000000000000000000000000000000000000000000000000000000000000000000000000013253501f00000000000000000000000000000000005852502d36000000000000000000000000000000000000000000000000000000000000000000000000000253a39e25000000000000000000000000000000000000000000000000000000006849a8710000000000000000000000000000000000000000000000000000000000076d5000000000000000000000000000000000000000000000000000000000000000000000000000000000000000000000000000000000000000000000000000000000000000000000000000000000000000000000000000000000000000000000000000000000000000000000000000000000000000000000000000000000000000000000000000000000000000000000000000000000000000000000000000000003000000000000000000000000000000000000000000000000000000000000454f000000000000000000000000000000000000000000000000000000000000454e0000000000000000000000000000000000000000000000000000000000000000\",\"result\":\"success\",\"hash\":\"0xa4e0043437e46540a277a8d78dad15abaa2422b8481ce8a664c19dce08525e22\",\"max_fee_per_gas\":\"150000000000\",\"revert_reason\":null,\"confirmation_duration\":[0,12000],\"transaction_burnt_fee\":\"1334506459335424\",\"type\":2,\"token_transfers_overflow\":null,\"confirmations\":1,\"position\":235,\"max_priority_fee_per_gas\":\"100000000\",\"transaction_tag\":null,\"created_contract\":null,\"value\":\"0\",\"from\":{\"ens_domain_name\":null,\"hash\":\"0x78e802d42Bbc1834f962A11B54e0F8e07f52d4Fb\",\"implementations\":[],\"is_contract\":false,\"is_scam\":false,\"is_verified\":false,\"metadata\":null,\"name\":null,\"private_tags\":[],\"proxy_type\":null,\"public_tags\":[],\"watchlist_names\":[]},\"gas_used\":\"284782\",\"status\":\"ok\",\"to\":{\"ens_domain_name\":null,\"hash\":\"0xA1D5443F2FB80A5A55ac804C948B45ce4C52DCbb\",\"implementations\":[{\"address\":\"0x8C43C9bec15d82D153C52518030e0a9590ABD35d\",\"address_hash\":\"0x8C43C9bec15d82D153C52518030e0a9590ABD35d\",\"name\":\"StarkPerpetual\"}],\"is_contract\":true,\"is_scam\":false,\"is_verified\":true,\"metadata\":null,\"name\":\"Proxy\",\"private_tags\":[],\"proxy_type\":\"basic_implementation\",\"public_tags\":[],\"watchlist_names\":[]},\"authorization_list\":[],\"method\":\"updateState\",\"fee\":{\"type\":\"actual\",\"value\":\"1362984659335424\"},\"actions\":[],\"gas_limit\":\"3500000\",\"gas_price\":\"4786063232\",\"decoded_input\":{\"method_call\":\"updateState(uint256[] publicInput, uint256[] applicationData)\",\"method_id\":\"538f9406\",\"parameters\":[{\"name\":\"publicInput\",\"type\":\"uint256[]\",\"value\":[\"1110973142316830879753601116576912560533625620936705898935509824444656877642\",\"0\",\"41\",\"255399919633304379671822251015012352\",\"421928131800490166182465846564718032055591589882247385546381618298763940080\",\"255909362588701039568812711683817472\",\"3593020028651470461592280159120669937864116046362870202846723223981993136020\",\"338883663479274047025357693718102016\",\"2650758513655630702880860976893186971642174006436807981656210694944310594286\",\"339046408638147558767182227433324544\",\"2525659202594452727318419787082767060451062521226534384737955594156574170854\",\"339127369308376849947410064084041728\",\"2855979317103160683577567153502900787942204696147599070357952522407245568450\",\"339128557730814563912473967243296768\",\"2385846101515276983016439813369738446796078481115390419942920513485740469237\",\"339167696443096610495245177954762752\",\"2897672468543517134786173258806378800060014346313809759442567479862242339464\",\"339209301121316311335550155636080640\",\"2708329128922862377113674392155303047306023424758682692055424998690655351195\",\"339248760150583523010467496495939584\",\"1518751579727709427753342142723800487842459455528171178946234532116159596070\",\"339290737780690188831142580884340736\",\"1680030523182692585931707505918977923145936409924902654744930307586835570376\",\"344056232528969600292671285127806976\",\"2041287071953125710057501059480111158350217762995963158716253524475760319529\",\"344239815619412615560474239552192512\",\"507351259418537645276104323633632148632970797586216520267012914239160839785\",\"344278863665634683081309143628251136\",\"586273818328652089034089618055840863251666020090339677017374225612429335395\",\"344400637343183300222065759427231744\",\"1773066175041909247636507700398619644146548969318081089463577306746479495397\",\"349351367538821165572554313980444672\",\"1296247945318789179464303305643177209226305144143198396007171473352376611859\",\"349553874722207625219443412317503488\",\"639482886957363396434888852368344154332708287129283151775655943421671270370\",\"354684143347712898450594870927032320\",\"2236358047945390820351003464010439151625732240968597708732582491968501206557\",\"354685165896815395127641508979671040\",\"209758747205379263527039022545999423284506284227226617477067919779887249770\",\"354886735639481781333860738224095232\",\"2386829058502837826985525477016726716916461706790217496247843312855060367088\",\"359856388062912502622757493443395584\",\"760600889925826103010214402923560003134856741589962502829579391322003656509\",\"359977527925814664434167280492871680\",\"1122422657623103477924462015152135008061205570631318233351643222302960825742\",\"359977924067836161575469877387329536\",\"1835788323533280987133156913349421756789743897010600050541690576543436947265\",\"364947431330963026247458069778792448\",\"750398224672841182179761155225347318674286782655115715109590781367189429076\",\"369977475091734067620075921572102144\",\"2747289940931321725139223074823738583749573526626301616765158851538919916164\",\"370221491652003648852770474290053120\",\"1503835482793799965474724342559224974510692354269776842181769273297422964007\",\"370221808567071557549350106815266816\",\"8696380721937581270711381863656001156420231012179823511592899453447424720\",\"395959710983921515911698978258812928\",\"632460318575965714713734845614643082587280054624334956449566848866192299132\",\"396000038118641276459534092129533952\",\"1297639950899538967775179634705384586464682195520011997658622058674967507633\",\"396101380212426712967694464499843072\",\"1956036311672701044253223163393218304503746480843626825598974435018032157108\",\"396323605935558457833880754797412352\",\"2191000510859976996286887216230488458414866135925444244951571807593154714316\",\"401131892570687533667041932340101120\",\"3603281792639935093784402967931027538825620093236984437524367993906127383228\",\"406403816491359422489603563510038528\",\"98302034868204494753482782002086193118751810500606964212051532875004661851\",\"411817626572047188535650410727211008\",\"1825432566063955488170434966805882227300642523887486651312966849227801778429\",\"432285196778936779521635140430200832\",\"2436970936389338211746325097185312501545203418163712171753565049106226268752\",\"432568984950746621260512834741075968\",\"2188440607504053766078409318369124001927523019517241992567514591767610119384\",\"432691242383575563678708968120647680\",\"2345721770528035284662812490000471679841442641220078275802314485772211603630\",\"437638715840662956139171489404420096\",\"719430885160840530824038116876279525654194003680281359307875384083432720395\",\"437761440264397551598103888983490560\",\"2678157124389277800096772251664644580085947347220401590137167891926626714229\",\"442933058572516156234522470341672960\",\"1588583660246395216699380191054217081833270231789790007453639472915811155535\",\"453276691329565936829047600777789440\",\"3277383531322910504234946417016019241696172878836645535130667924385034431293\",\"458591633383672845652172903142129664\",\"3199295340336024362723543857561301132957954938399535660500204955229114728186\",\"104\",\"2912019898618157264172454413277234158048430832629110083931226247893162620837\",\"64\",\"281659919045428873132712220488064418854017497825202880660217840120884091267\",\"64\",\"24\",\"255399919633304379671822251015012352\",\"9223372054080972800\",\"339128557730814563912473967243296768\",\"9223372054682368815\",\"339167696443096610495245177954762752\",\"9223372039177915262\",\"339209301121316311335550155636080640\",\"9223372038436389749\",\"339248760150583523010467496495939584\",\"9223372042424030996\",\"344056232528969600292671285127806976\",\"9223372038484434405\",\"344239815619412615560474239552192512\",\"9223372040766149207\",\"344278863665634683081309143628251136\",\"9223372039578417784\",\"344400637343183300222065759427231744\",\"9223372053665703701\",\"354684143347712898450594870927032320\",\"9223372041533114605\",\"354886735639481781333860738224095232\",\"9223372041124247641\",\"359977527925814664434167280492871680\",\"9223372039475794738\",\"359977924067836161575469877387329536\",\"9223372067397091240\",\"395959710983921515911698978258812928\",\"9223372037155741246\",\"396000038118641276459534092129533952\",\"9223372039243721100\",\"396101380212426712967694464499843072\",\"9223372040034343917\",\"396323605935558457833880754797412352\",\"9223372054595852650\",\"401131892570687533667041932340101120\",\"9223372038400501850\",\"411817626572047188535650410727211008\",\"9223372040723512967\",\"432568984950746621260512834741075968\",\"9223372020326490362\",\"437638715840662956139171489404420096\",\"9223372050824638147\",\"437761440264397551598103888983490560\",\"9223372044292462978\",\"453276691329565936829047600777789440\",\"9223372043048480205\",\"458591633383672845652172903142129664\",\"9223372037713377109\",\"1749650400\",\"24\",\"255399919633304379671822251015012352\",\"56898276537\",\"339128557730814563912473967243296768\",\"22504606321\",\"339167696443096610495245177954762752\",\"1785936694\",\"339209301121316311335550155636080640\",\"1972454974\",\"339248760150583523010467496495939584\",\"9684319586\",\"344056232528969600292671285127806976\",\"19089936596\",\"344239815619412615560474239552192512\",\"4014169759\",\"344278863665634683081309143628251136\",\"28823141247\",\"344400637343183300222065759427231744\",\"47227137271\",\"354684143347712898450594870927032320\",\"8676052970\",\"354886735639481781333860738224095232\",\"2586601346\",\"359977527925814664434167280492871680\",\"7974928930\",\"359977924067836161575469877387329536\",\"122032779413\",\"395959710983921515911698978258812928\",\"194040218\",\"396000038118641276459534092129533952\",\"4233116664\",\"396101380212426712967694464499843072\",\"6655384578\",\"396323605935558457833880754797412352\",\"39835665870\",\"401131892570687533667041932340101120\",\"1008039562\",\"411817626572047188535650410727211008\",\"3154811212\",\"432568984950746621260512834741075968\",\"71761754006\",\"437638715840662956139171489404420096\",\"9588993914\",\"437761440264397551598103888983490560\",\"14086049514\",\"453276691329565936829047600777789440\",\"5164956408\",\"458591633383672845652172903142129664\",\"10002050833\",\"1749653720\",\"104\",\"1671549671573551539752990833320452149590458231270669719660160385436436320795\",\"64\",\"2861743886814927016270704878384807874232964903459876527749797453525041628203\",\"64\",\"24\",\"255399919633304379671822251015012352\",\"9223372054082878215\",\"339128557730814563912473967243296768\",\"9223372054682929737\",\"339167696443096610495245177954762752\",\"9223372039177960181\",\"339209301121316311335550155636080640\",\"9223372038436439194\",\"339248760150583523010467496495939584\",\"9223372042424273017\",\"344056232528969600292671285127806976\",\"9223372038484911397\",\"344239815619412615560474239552192512\",\"9223372040766249762\",\"344278863665634683081309143628251136\",\"9223372039579137298\",\"344400637343183300222065759427231744\",\"9223372053687775553\",\"354684143347712898450594870927032320\",\"9223372041533404542\",\"354886735639481781333860738224095232\",\"9223372041124312387\",\"359977527925814664434167280492871680\",\"9223372039475994561\",\"359977924067836161575469877387329536\",\"9223372067339752404\",\"395959710983921515911698978258812928\",\"9223372037155746130\",\"396000038118641276459534092129533952\",\"9223372039243827614\",\"396101380212426712967694464499843072\",\"9223372040034510851\",\"396323605935558457833880754797412352\",\"9223372054596851605\",\"401131892570687533667041932340101120\",\"9223372038400526834\",\"411817626572047188535650410727211008\",\"9223372040723592015\",\"432568984950746621260512834741075968\",\"9223372020259155016\",\"437638715840662956139171489404420096\",\"9223372050824879566\",\"437761440264397551598103888983490560\",\"9223372044292815750\",\"453276691329565936829047600777789440\",\"9223372043048609375\",\"458591633383672845652172903142129664\",\"9223372037708701143\",\"1749657600\",\"24\",\"255399919633304379671822251015012352\",\"57326793611\",\"339128557730814563912473967243296768\",\"22423446300\",\"339167696443096610495245177954762752\",\"1805945407\",\"339209301121316311335550155636080640\",\"1979941841\",\"339248760150583523010467496495939584\",\"9690751786\",\"344056232528969600292671285127806976\",\"19083529662\",\"344239815619412615560474239552192512\",\"4027565369\",\"344278863665634683081309143628251136\",\"28751342417\",\"344400637343183300222065759427231744\",\"47124050377\",\"354684143347712898450594870927032320\",\"8719179162\",\"354886735639481781333860738224095232\",\"2592962507\",\"359977527925814664434167280492871680\",\"8013820999\",\"359977924067836161575469877387329536\",\"122995212332\",\"395959710983921515911698978258812928\",\"196827432\",\"396000038118641276459534092129533952\",\"4281093559\",\"396101380212426712967694464499843072\",\"6707060894\",\"396323605935558457833880754797412352\",\"40072702281\",\"401131892570687533667041932340101120\",\"1006944345\",\"411817626572047188535650410727211008\",\"3172592285\",\"432568984950746621260512834741075968\",\"71769632071\",\"437638715840662956139171489404420096\",\"9692594260\",\"437761440264397551598103888983490560\",\"14137552292\",\"453276691329565936829047600777789440\",\"5139288095\",\"458591633383672845652172903142129664\",\"9993166373\",\"1749657713\",\"486736\",\"0\",\"0\",\"0\",\"0\"]},{\"name\":\"applicationData\",\"type\":\"uint256[]\",\"value\":[\"17743\",\"17742\",\"0\"]}]},\"token_transfers\":null,\"base_fee_per_gas\":\"4686063232\",\"timestamp\":\"2025-06-11T17:44:47.000000Z\",\"nonce\":34034,\"historic_exchange_rate\":\"2798.08\",\"transaction_types\":[\"contract_call\"],\"exchange_rate\":\"2861.62\",\"block_number\":22682892,\"has_error_in_internal_transactions\":null},{\"priority_fee\":\"7111900000000\",\"raw_input\":\"0x504f7f6f275eccb898347c0b689e64e20f0a57cb3b11a183a9235366814e897b61845f9b000000000000000000000000000000000000000000000000000000000000004000000000000000000000000000000000000000000000000000000000000000c3a83fea55dcf0a3cbc58ecccce6404e46107da56024049651e1456d72b89d0c7807506715f05174a744987e9276b5036239036fa3d601c0eeea6933f1fc3af6341c7164d42c56a19f7512b6f434bdf4930cd17f685dbbbe8213e3fec738eded2e427f8b82ce056c025189f5d1204f79ed07ce40c4c891e23d2ccc939b30206dee021bf4fbcf87d23e61d695008ede2d423b276c9876b9fdece7d32d23c929b78ab82d405de6e484dee58ad40815e9979fd3eb37817c4a27b5fd67707676ab001ba8cd1c0000000000000000000000000000000000000000000000000000000000\",\"result\":\"success\",\"hash\":\"0x747f6e1bbec4795b1552b64d343a8ef49cff3c501e1d2a5d1ee55592e93c5f12\",\"max_fee_per_gas\":\"150000000000\",\"revert_reason\":null,\"confirmation_duration\":[0,12000],\"transaction_burnt_fee\":\"333268130996608\",\"type\":2,\"token_transfers_overflow\":null,\"confirmations\":1,\"position\":234,\"max_priority_fee_per_gas\":\"100000000\",\"transaction_tag\":null,\"created_contract\":null,\"value\":\"0\",\"from\":{\"ens_domain_name\":null,\"hash\":\"0x78e802d42Bbc1834f962A11B54e0F8e07f52d4Fb\",\"implementations\":[],\"is_contract\":false,\"is_scam\":false,\"is_verified\":false,\"metadata\":null,\"name\":null,\"private_tags\":[],\"proxy_type\":null,\"public_tags\":[],\"watchlist_names\":[]},\"gas_used\":\"71119\",\"status\":\"ok\",\"to\":{\"ens_domain_name\":null,\"hash\":\"0x23Cab3CF1aa7B929Df5e9f3712aCA3A6Fb9494E4\",\"implementations\":[],\"is_contract\":true,\"is_scam\":false,\"is_verified\":true,\"metadata\":null,\"name\":\"Committee\",\"private_tags\":[],\"proxy_type\":\"unknown\",\"public_tags\":[],\"watchlist_names\":[]},\"authorization_list\":[],\"method\":\"verifyAvailabilityProof\",\"fee\":{\"type\":\"actual\",\"value\":\"340380030996608\"},\"actions\":[],\"gas_limit\":\"3500000\",\"gas_price\":\"4786063232\",\"decoded_input\":{\"method_call\":\"verifyAvailabilityProof(bytes32 claimHash, bytes availabilityProofs)\",\"method_id\":\"504f7f6f\",\"parameters\":[{\"name\":\"claimHash\",\"type\":\"bytes32\",\"value\":\"0x275eccb898347c0b689e64e20f0a57cb3b11a183a9235366814e897b61845f9b\"},{\"name\":\"availabilityProofs\",\"type\":\"bytes\",\"value\":\"0xa83fea55dcf0a3cbc58ecccce6404e46107da56024049651e1456d72b89d0c7807506715f05174a744987e9276b5036239036fa3d601c0eeea6933f1fc3af6341c7164d42c56a19f7512b6f434bdf4930cd17f685dbbbe8213e3fec738eded2e427f8b82ce056c025189f5d1204f79ed07ce40c4c891e23d2ccc939b30206dee021bf4fbcf87d23e61d695008ede2d423b276c9876b9fdece7d32d23c929b78ab82d405de6e484dee58ad40815e9979fd3eb37817c4a27b5fd67707676ab001ba8cd1c\"}]},\"token_transfers\":null,\"base_fee_per_gas\":\"4686063232\",\"timestamp\":\"2025-06-11T17:44:47.000000Z\",\"nonce\":34033,\"historic_exchange_rate\":\"2798.08\",\"transaction_types\":[\"contract_call\"],\"exchange_rate\":\"2861.62\",\"block_number\":22682892,\"has_error_in_internal_transactions\":null},{\"priority_fee\":\"10569700000000\",\"raw_input\":\"0x0977992700000000000000000000000016604f3c2b106377819879155e0de5ed46cb0dde0000000000000000000000000000000000000000000000000000019760182bcb0000000000000000000000000000000000000000000000000000000000000000000000000000000000000000000000000000000000000000000000011de3629d000000000000000000000000000000000000000000000000000000000001a4d40000000000000000000000000000000000000000000000000000000000014c08000000000000000000000000dd2a08a1c1a28c1a571e098914ca10f2877d9c9700000000000000000000000000000000000000000000000000000000000000000000000000000000000000000000000000000000000000000000000000000140000000000000000000000000000000000000000000000000000000000000026000000000000000000000000000000000000000000000000000000000000000e4b9806d990000000000000000000000000000000000000000000000000000000000000000000000000000000000000000f96f258bf0cba5d128c61c2b041f4403116d28e60000000000000000000000000000000000000000000000000039bc886b5a367c00000000000000000000000000000000000000000000000000000000000000a0000000000000000000000000000000000000000000000000000000000000000000000000000000000000000000000000000000000000000000000000000000023078000000000000000000000000000000000000000000000000000000000000000000000000000000000000000000000000000000000000000000000000000000000000000000000000000000000000000000000000000000000041d4ad83862a362ffd45a92d2804da8288e9a62fdbe0633f62d3e0fc902d354e1752bd5dcb86d0b1e340e560a51fba0354d65c3e82fa4f63064d8736d5a66e5d8f1c00000000000000000000000000000000000000000000000000000000000000\",\"result\":\"success\",\"hash\":\"0x84816f00ba5ba0819c550f693fbdec3abfb8d30e863520d4b221c3ee83353d84\",\"max_fee_per_gas\":\"9657281646\",\"revert_reason\":null,\"confirmation_duration\":[0,12000],\"transaction_burnt_fee\":\"495302825432704\",\"type\":2,\"token_transfers_overflow\":null,\"confirmations\":1,\"position\":233,\"max_priority_fee_per_gas\":\"100000000\",\"transaction_tag\":null,\"created_contract\":null,\"value\":\"0\",\"from\":{\"ens_domain_name\":null,\"hash\":\"0x59F3163ab39B8B90DAF57508bC1fAECB2F2cD374\",\"implementations\":[],\"is_contract\":false,\"is_scam\":false,\"is_verified\":false,\"metadata\":null,\"name\":null,\"private_tags\":[],\"proxy_type\":null,\"public_tags\":[],\"watchlist_names\":[]},\"gas_used\":\"105697\",\"status\":\"ok\",\"to\":{\"ens_domain_name\":null,\"hash\":\"0x16604F3C2B106377819879155E0de5eD46cb0dDe\",\"implementations\":[],\"is_contract\":true,\"is_scam\":false,\"is_verified\":false,\"metadata\":null,\"name\":null,\"private_tags\":[],\"proxy_type\":null,\"public_tags\":[],\"watchlist_names\":[]},\"authorization_list\":[],\"method\":\"executeMetaTx\",\"fee\":{\"type\":\"actual\",\"value\":\"505872525432704\"},\"actions\":[],\"gas_limit\":\"607732\",\"gas_price\":\"4786063232\",\"decoded_input\":{\"method_call\":\"executeMetaTx(address to, uint256 nonce, address gasToken, uint256 gasPrice, uint256 gasLimit, uint256 gasOverhead, address feeRecipient, bool requiresSuccess, bytes data, bytes signature)\",\"method_id\":\"09779927\",\"parameters\":[{\"name\":\"to\",\"type\":\"address\",\"value\":\"0x16604F3C2B106377819879155E0de5eD46cb0dDe\"},{\"name\":\"nonce\",\"type\":\"uint256\",\"value\":\"1749663886283\"},{\"name\":\"gasToken\",\"type\":\"address\",\"value\":\"0x0000000000000000000000000000000000000000\"},{\"name\":\"gasPrice\",\"type\":\"uint256\",\"value\":\"4796408477\"},{\"name\":\"gasLimit\",\"type\":\"uint256\",\"value\":\"107732\"},{\"name\":\"gasOverhead\",\"type\":\"uint256\",\"value\":\"85000\"},{\"name\":\"feeRecipient\",\"type\":\"address\",\"value\":\"0xDd2A08a1c1A28c1A571E098914cA10F2877D9c97\"},{\"name\":\"requiresSuccess\",\"type\":\"bool\",\"value\":\"false\"},{\"name\":\"data\",\"type\":\"bytes\",\"value\":\"0xb9806d990000000000000000000000000000000000000000000000000000000000000000000000000000000000000000f96f258bf0cba5d128c61c2b041f4403116d28e60000000000000000000000000000000000000000000000000039bc886b5a367c00000000000000000000000000000000000000000000000000000000000000a0000000000000000000000000000000000000000000000000000000000000000000000000000000000000000000000000000000000000000000000000000000023078000000000000000000000000000000000000000000000000000000000000\"},{\"name\":\"signature\",\"type\":\"bytes\",\"value\":\"0xd4ad83862a362ffd45a92d2804da8288e9a62fdbe0633f62d3e0fc902d354e1752bd5dcb86d0b1e340e560a51fba0354d65c3e82fa4f63064d8736d5a66e5d8f1c\"}]},\"token_transfers\":null,\"base_fee_per_gas\":\"4686063232\",\"timestamp\":\"2025-06-11T17:44:47.000000Z\",\"nonce\":28674,\"historic_exchange_rate\":\"2798.08\",\"transaction_types\":[\"contract_call\"],\"exchange_rate\":\"2861.62\",\"block_number\":22682892,\"has_error_in_internal_transactions\":null},{\"priority_fee\":\"14821600000000\",\"raw_input\":\"0x507ee528000000000000000000000000000000000000000000000000000000000000004000000000000000000000000000000000000000000000000000000000000002a0000000000000000000000000000000000000000000000000000000000000001203526d321e35fef8fda08bd3dda0a5ce51b82409439510387f7e02136496eaeb0362802511c9f0b16994d59621418a1a162e186a84a2bac979e881709b54c7bd00000000000000000000000000000000000000000000000000000000000b2b7900000000000000000000000000000000000000000000000000000000000b2bdd01574d8028842951a2fab68ee9a2ddd0c86dfcaa57f8a4e6d41ea9523f3b9689002f066d37124a96e0bdd0cadbffe246d2b8409cb96cce1868724b1a3ab9f6eb059ab9079877a6b3ea0dee995aa259b623ed3952bafaa39c47edc5c257efdc0c060f756a649813038b8ccaf6309697a1c3ca87e777e0da695489ff2406816b670000000000000000000000000000000000000000000000000000000000000001000000000000000000000000000000000000000000000000000000000000000002a53a5f580427addded6c3bd9b1e92e06e4e1aedbedb01f859fe50928cffdaa00000000000000000000000000000000000000000000000000000000000000010000000000000000242061f2899571b63df93798f9be3f67e65cd2d8b79bd602000000000000000095f15e664aa9ead9e179dfdf8467f98bffbec3fe3b9c111d00000000000000000000000000000000fa231fa078cb4b02aa9fe7f4cd4a1301000000000000000000000000000000006d89661503a2762ea5bd5ecc0f0e9ac200000000000000000000000000000000000000000000000000000000000000000000000000000000000000000000000000000000000000000000000000000000000000000000000000000000000000000000000000000000000000000000000100000000000000000000000000000000000000000000000000000000000000200000000000000000000000000000000000000000000000000000000000000030a60076571a2a6d66a0ce3b342886597496c15fb296ab30ca1a6062d8c311e3052a63a722bc8b6a9303d5919816cfa21300000000000000000000000000000000\",\"max_fee_per_blob_gas\":\"150000000000\",\"result\":\"success\",\"hash\":\"0xb6766262043ebbcda9804515fc2b65496872205abc8cbf4a6226995b1b36ea2f\",\"max_fee_per_gas\":\"150000000000\",\"revert_reason\":null,\"confirmation_duration\":[0,12000],\"transaction_burnt_fee\":\"694549547994112\",\"type\":3,\"token_transfers_overflow\":null,\"confirmations\":1,\"position\":232,\"max_priority_fee_per_gas\":\"100000000\",\"transaction_tag\":null,\"created_contract\":null,\"value\":\"0\",\"from\":{\"ens_domain_name\":null,\"hash\":\"0xC70ae19B5FeAA5c19f576e621d2bad9771864fe2\",\"implementations\":[],\"is_contract\":false,\"is_scam\":false,\"is_verified\":false,\"metadata\":null,\"name\":null,\"private_tags\":[],\"proxy_type\":null,\"public_tags\":[],\"watchlist_names\":[]},\"gas_used\":\"148216\",\"status\":\"ok\",\"blob_gas_price\":\"1\",\"to\":{\"ens_domain_name\":null,\"hash\":\"0xF338cad020D506e8e3d9B4854986E0EcE6C23640\",\"implementations\":[{\"address\":\"0x2793010E6711Acd5C46ed17f2183a9d58db71e04\",\"address_hash\":\"0x2793010E6711Acd5C46ed17f2183a9d58db71e04\",\"name\":null}],\"is_contract\":true,\"is_scam\":false,\"is_verified\":true,\"metadata\":null,\"name\":\"Proxy\",\"private_tags\":[],\"proxy_type\":\"basic_implementation\",\"public_tags\":[],\"watchlist_names\":[]},\"authorization_list\":[],\"method\":\"updateStateKzgDA\",\"fee\":{\"type\":\"actual\",\"value\":\"709371147994112\"},\"actions\":[],\"gas_limit\":\"5500000\",\"gas_price\":\"4786063232\",\"decoded_input\":{\"method_call\":\"updateStateKzgDA(uint256[] programOutput, bytes[] kzgProofs)\",\"method_id\":\"507ee528\",\"parameters\":[{\"name\":\"programOutput\",\"type\":\"uint256[]\",\"value\":[\"1502573646592341619775235958344289317241374318607645673820880957478373092075\",\"1530973981021879047294939790248903062912616651430326657041074870355196430269\",\"732025\",\"732125\",\"606563432827721807775781676466181051795451555004152490272422894172186056329\",\"83086166956552199062648119190743579592157163986742302145910473473348204267\",\"2534935718742676028234156221136000178296467523045214874259117268197132196876\",\"2741190170141984203224468507008497105532196084369172236871397222510074358631\",\"1\",\"0\",\"1196558334607204356492668892954403906205480310317919964905863487310707817898\",\"1\",\"885819069098002647530420684386230894441469436620267312642\",\"3676587902583393829250649786573678472068164370482014720285\",\"332489370804865370023645171660026942209\",\"145599266680870945913537596810341554882\",\"0\",\"0\"]},{\"name\":\"kzgProofs\",\"type\":\"bytes[]\",\"value\":[\"0xa60076571a2a6d66a0ce3b342886597496c15fb296ab30ca1a6062d8c311e3052a63a722bc8b6a9303d5919816cfa213\"]}]},\"blob_versioned_hashes\":[\"0x01dc22496f47b65b91e6455ff2944cfcd0bdd8ff025b95b01ed32399a50410ed\"],\"token_transfers\":null,\"base_fee_per_gas\":\"4686063232\",\"timestamp\":\"2025-06-11T17:44:47.000000Z\",\"nonce\":113103,\"historic_exchange_rate\":\"2798.08\",\"transaction_types\":[\"contract_call\",\"blob_transaction\"],\"exchange_rate\":\"2861.62\",\"burnt_blob_fee\":\"131072\",\"blob_gas_used\":\"131072\",\"block_number\":22682892,\"has_error_in_internal_transactions\":null},{\"priority_fee\":\"21048900000000\",\"raw_input\":\"0x507ee528000000000000000000000000000000000000000000000000000000000000004000000000000000000000000000000000000000000000000000000000000006a00000000000000000000000000000000000000000000000000000000000000032035a61c1149f71972bfe029e25e06d0d458eb1a16f442e073563b5287fd61dd803526d321e35fef8fda08bd3dda0a5ce51b82409439510387f7e02136496eaeb00000000000000000000000000000000000000000000000000000000000b2b1500000000000000000000000000000000000000000000000000000000000b2b79030e5bb71785c9810f12c0185a189a93c189a4c9fad427fdecb499a57885f9b701574d8028842951a2fab68ee9a2ddd0c86dfcaa57f8a4e6d41ea9523f3b9689059ab9079877a6b3ea0dee995aa259b623ed3952bafaa39c47edc5c257efdc0c060f756a649813038b8ccaf6309697a1c3ca87e777e0da695489ff2406816b67000000000000000000000000000000000000000000000000000000000000000100000000000000000000000000000000000000000000000000000000000000000796a35ae30cde2e271375e581596b3e2abb61e49987bf813cc351b82e41285a0000000000000000000000000000000000000000000000000000000000000001000000000000000023f6b79c91a474945b3d9ae247841339c01ad620af8cf500000000000000000089aeef0180f145bf66319f4e3f1effc1fca0e5e486895043000000000000000000000000000000003cdf412fd1cb92278154d0bd3c96f9c6000000000000000000000000000000006e47f1f877fa3fa9598d66a139143fae00000000000000000000000000000000000000000000000000000000000000080655842814fbfdbe22a1c1ad311d3706ce8a7d337bcb67cd53b0ed7b019c6353000000000000000000000000e3cbe3a636ab6a754e9e41b12b09d09ce9e53db3000000000000000000000000000000000000000000000000000000000000000500000000000000000000000000000000000000000000000000000000000000000000000000000000000000002fae625f0013632f474b4e093aa74311cfedd2eb000000000000000000000000a0b86991c6218b36c1d19d4a2e9eb0ce3606eb4800000000000000000000000000000000000000000000000000000000c242a88b00000000000000000000000000000000000000000000000000000000000000000000000000000000000000000000000000000000000000000000000000000018000000000000000000000000e3cbe3a636ab6a754e9e41b12b09d09ce9e53db30655842814fbfdbe22a1c1ad311d3706ce8a7d337bcb67cd53b0ed7b019c63530000000000000000000000000000000000000000000000000000000000002a23008bce41827dd5484d80312a2e43bc42a896e3fcf75bf84c2b49339168dfa00a0000000000000000000000000000000000000000000000000000000000000007000000000000000000000000a0b86991c6218b36c1d19d4a2e9eb0ce3606eb48000000000000000000000000397d062d8a7f1529be6a52fc7d415b9d154c0bae03ca9388f8d4e04adecbd7b06b9b24a33030a593522248a7bddd87afc0b61a0c0000000000000000000000000000000000000000000000000000000029b927000000000000000000000000000000000000000000000000000000000000000000000000000000000000000000000000000000000000000000000000000000000104462fd38df555aa98ad8324d57e8c006edb9ae70ceacadd1a99d76d4f9d2228000000000000000000000000e3cbe3a636ab6a754e9e41b12b09d09ce9e53db30655842814fbfdbe22a1c1ad311d3706ce8a7d337bcb67cd53b0ed7b019c63530000000000000000000000000000000000000000000000000000000000002a24008bce41827dd5484d80312a2e43bc42a896e3fcf75bf84c2b49339168dfa00a0000000000000000000000000000000000000000000000000000000000000007000000000000000000000000a0b86991c6218b36c1d19d4a2e9eb0ce3606eb48000000000000000000000000caace5be3c1885fb4f6b26a3917359ce9f694e7303ca9388f8d4e04adecbd7b06b9b24a33030a593522248a7bddd87afc0b61a0c000000000000000000000000000000000000000000000000000000000a2c85d000000000000000000000000000000000000000000000000000000000000000000000000000000000000000000000000000000000000000000000000000000001032d78ce4f44a3a19b5b80cfec9124443bd4f0ece2fa41c254aeaf689a7859db000000000000000000000000000000000000000000000000000000000000000100000000000000000000000000000000000000000000000000000000000000200000000000000000000000000000000000000000000000000000000000000030ace73b7cc23398dbb9f895246d8ec3cfb4773f3216a36e9a1c78c763be180d9f4354e6a9076e6ae148c29c41d0cf6c1c00000000000000000000000000000000\",\"max_fee_per_blob_gas\":\"150000000000\",\"result\":\"success\",\"hash\":\"0xfba5a2717d365d76528ab6c50a1eb1e9c0bf40be865bf6b4d430169552868594\",\"max_fee_per_gas\":\"150000000000\",\"revert_reason\":null,\"confirmation_duration\":[0,12000],\"transaction_burnt_fee\":\"986364763640448\",\"type\":3,\"token_transfers_overflow\":null,\"confirmations\":1,\"position\":231,\"max_priority_fee_per_gas\":\"100000000\",\"transaction_tag\":null,\"created_contract\":null,\"value\":\"0\",\"from\":{\"ens_domain_name\":null,\"hash\":\"0xC70ae19B5FeAA5c19f576e621d2bad9771864fe2\",\"implementations\":[],\"is_contract\":false,\"is_scam\":false,\"is_verified\":false,\"metadata\":null,\"name\":null,\"private_tags\":[],\"proxy_type\":null,\"public_tags\":[],\"watchlist_names\":[]},\"gas_used\":\"210489\",\"status\":\"ok\",\"blob_gas_price\":\"1\",\"to\":{\"ens_domain_name\":null,\"hash\":\"0xF338cad020D506e8e3d9B4854986E0EcE6C23640\",\"implementations\":[{\"address\":\"0x2793010E6711Acd5C46ed17f2183a9d58db71e04\",\"address_hash\":\"0x2793010E6711Acd5C46ed17f2183a9d58db71e04\",\"name\":null}],\"is_contract\":true,\"is_scam\":false,\"is_verified\":true,\"metadata\":null,\"name\":\"Proxy\",\"private_tags\":[],\"proxy_type\":\"basic_implementation\",\"public_tags\":[],\"watchlist_names\":[]},\"authorization_list\":[],\"method\":\"updateStateKzgDA\",\"fee\":{\"type\":\"actual\",\"value\":\"1007413663640448\"},\"actions\":[],\"gas_limit\":\"5500000\",\"gas_price\":\"4786063232\",\"decoded_input\":{\"method_call\":\"updateStateKzgDA(uint256[] programOutput, bytes[] kzgProofs)\",\"method_id\":\"507ee528\",\"parameters\":[{\"name\":\"programOutput\",\"type\":\"uint256[]\",\"value\":[\"1516629456417036371988042059363240969520474342404551683191914732292790427096\",\"1502573646592341619775235958344289317241374318607645673820880957478373092075\",\"731925\",\"732025\",\"1382307399721714115176237807919322932810796171061009563055819112889190840759\",\"606563432827721807775781676466181051795451555004152490272422894172186056329\",\"2534935718742676028234156221136000178296467523045214874259117268197132196876\",\"2741190170141984203224468507008497105532196084369172236871397222510074358631\",\"1\",\"0\",\"3432344434760533025890788620136462480967887159211962449883943191054783686746\",\"1\",\"881828319080143043128954927588582227917240850234114635008\",\"3375985537298756384286991621744033065149566824217156603971\",\"80912884091824563652683857735074642374\",\"146588640359726750627857152756885503918\",\"8\",\"2864971203131313031866805857875416189344382126070311282219612283141982282579\",\"1300487787300761060715068194789698196324233854387\",\"5\",\"0\",\"272211465224211621403561410458042149947931742955\",\"917551056842671309452305380979543736893630245704\",\"3259148427\",\"0\",\"24\",\"1300487787300761060715068194789698196324233854387\",\"2864971203131313031866805857875416189344382126070311282219612283141982282579\",\"10787\",\"247015267890530308727663503380700973440961674638638362173641612402089762826\",\"7\",\"917551056842671309452305380979543736893630245704\",\"328200605257290597134931244647877188983527836590\",\"1714859902305778244490160610519521545817949499765002954626240090353392032268\",\"700000000\",\"0\",\"1\",\"1933260774444556321834326128649307646173972331584982772976439811979161182760\",\"1300487787300761060715068194789698196324233854387\",\"2864971203131313031866805857875416189344382126070311282219612283141982282579\",\"10788\",\"247015267890530308727663503380700973440961674638638362173641612402089762826\",\"7\",\"917551056842671309452305380979543736893630245704\",\"1157071877327571951493254060067888835198471196275\",\"1714859902305778244490160610519521545817949499765002954626240090353392032268\",\"170690000\",\"0\",\"1\",\"1437280435323362325251935808838377590326124328060212071131348714714805328347\"]},{\"name\":\"kzgProofs\",\"type\":\"bytes[]\",\"value\":[\"0xace73b7cc23398dbb9f895246d8ec3cfb4773f3216a36e9a1c78c763be180d9f4354e6a9076e6ae148c29c41d0cf6c1c\"]}]},\"blob_versioned_hashes\":[\"0x01e4fd84164d3fed62737ca72e5abe9f37a991e004210fdefc097fef9c311877\"],\"token_transfers\":null,\"base_fee_per_gas\":\"4686063232\",\"timestamp\":\"2025-06-11T17:44:47.000000Z\",\"nonce\":113102,\"historic_exchange_rate\":\"2798.08\",\"transaction_types\":[\"contract_call\",\"blob_transaction\"],\"exchange_rate\":\"2861.62\",\"burnt_blob_fee\":\"131072\",\"blob_gas_used\":\"131072\",\"block_number\":22682892,\"has_error_in_internal_transactions\":null},{\"priority_fee\":null,\"raw_input\":\"0x\",\"result\":\"success\",\"hash\":\"0x065ff620542fbfb72a29972bd8d657e5babc13d8f908039b0e9a93e08cdde24f\",\"max_fee_per_gas\":null,\"revert_reason\":null,\"confirmation_duration\":[0,12000],\"transaction_burnt_fee\":null,\"type\":0,\"token_transfers_overflow\":null,\"confirmations\":1,\"position\":230,\"max_priority_fee_per_gas\":null,\"transaction_tag\":null,\"created_contract\":null,\"value\":\"36289613586873849\",\"from\":{\"ens_domain_name\":null,\"hash\":\"0xFE500c274F72f1d1a9978c903d97E6d45CD9121B\",\"implementations\":[],\"is_contract\":false,\"is_scam\":false,\"is_verified\":false,\"metadata\":null,\"name\":null,\"private_tags\":[],\"proxy_type\":null,\"public_tags\":[],\"watchlist_names\":[]},\"gas_used\":\"21000\",\"status\":\"ok\",\"to\":{\"ens_domain_name\":null,\"hash\":\"0x722a5B57a6Fb1eF47A3D0D0C0179bfFDb651397B\",\"implementations\":[],\"is_contract\":false,\"is_scam\":false,\"is_verified\":false,\"metadata\":null,\"name\":null,\"private_tags\":[],\"proxy_type\":null,\"public_tags\":[],\"watchlist_names\":[]},\"authorization_list\":[],\"method\":null,\"fee\":{\"type\":\"actual\",\"value\":\"126000000000000\"},\"actions\":[],\"gas_limit\":\"75000\",\"gas_price\":\"6000000000\",\"decoded_input\":null,\"token_transfers\":null,\"base_fee_per_gas\":\"4686063232\",\"timestamp\":\"2025-06-11T17:44:47.000000Z\",\"nonce\":113958,\"historic_exchange_rate\":\"2798.08\",\"transaction_types\":[\"coin_transfer\"],\"exchange_rate\":\"2861.62\",\"block_number\":22682892,\"has_error_in_internal_transactions\":null},{\"priority_fee\":\"105420000000000\",\"raw_input\":\"0x\",\"max_fee_per_blob_gas\":\"1000000000\",\"result\":\"success\",\"hash\":\"0xed5b7f9c74a85c5bd3708deea897fd325429933bbe41de723340ae9e398ac153\",\"max_fee_per_gas\":\"15060000000\",\"revert_reason\":null,\"confirmation_duration\":[0,12000],\"transaction_burnt_fee\":\"98407327872000\",\"type\":3,\"token_transfers_overflow\":null,\"confirmations\":1,\"position\":229,\"max_priority_fee_per_gas\":\"5020000000\",\"transaction_tag\":null,\"created_contract\":null,\"value\":\"0\",\"from\":{\"ens_domain_name\":null,\"hash\":\"0x5050F69a9786F081509234F1a7F4684b5E5b76C9\",\"implementations\":[],\"is_contract\":false,\"is_scam\":false,\"is_verified\":false,\"metadata\":{\"tags\":[{\"meta\":{},\"name\":\"Base\",\"ordinal\":0,\"slug\":\"base\",\"tagType\":\"protocol\"},{\"meta\":{\"tooltipUrl\":\"https://base.org/\"},\"name\":\"Base: Batch Sender\",\"ordinal\":10,\"slug\":\"base-batch-sender\",\"tagType\":\"name\"}]},\"name\":null,\"private_tags\":[],\"proxy_type\":null,\"public_tags\":[],\"watchlist_names\":[]},\"gas_used\":\"21000\",\"status\":\"ok\",\"blob_gas_price\":\"1\",\"to\":{\"ens_domain_name\":null,\"hash\":\"0xFf00000000000000000000000000000000008453\",\"implementations\":[],\"is_contract\":false,\"is_scam\":false,\"is_verified\":false,\"metadata\":{\"tags\":[{\"meta\":{},\"name\":\"Null: 0xff00...453\",\"ordinal\":10,\"slug\":\"null-0xff00453\",\"tagType\":\"name\"}]},\"name\":null,\"private_tags\":[],\"proxy_type\":null,\"public_tags\":[],\"watchlist_names\":[]},\"authorization_list\":[],\"method\":null,\"fee\":{\"type\":\"actual\",\"value\":\"203827327872000\"},\"actions\":[],\"gas_limit\":\"21000\",\"gas_price\":\"9706063232\",\"decoded_input\":null,\"blob_versioned_hashes\":[\"0x01d1534d26153eec4393f2a53275e68ca079da562ec6fa0b32a09477fe2f1d03\",\"0x01132dc2220a664b7aa24a11ec4a752c31fec3aaa3a2caccbc99aa60bd55e5ff\",\"0x017f6f0216135140366f2b62caad17806c2866b991390d93172088bca73b048a\"],\"token_transfers\":null,\"base_fee_per_gas\":\"4686063232\",\"timestamp\":\"2025-06-11T17:44:47.000000Z\",\"nonce\":988460,\"historic_exchange_rate\":\"2798.08\",\"transaction_types\":[\"blob_transaction\"],\"exchange_rate\":\"2861.62\",\"burnt_blob_fee\":\"393216\",\"blob_gas_used\":\"393216\",\"block_number\":22682892,\"has_error_in_internal_transactions\":null},{\"priority_fee\":\"111617000111617\",\"raw_input\":\"0x78e111f6000000000000000000000000bfe698cdd477ad2000086d348e02dec67f1653c1000000000000000000000000000000000000000000000000000000000000004000000000000000000000000000000000000000000000000000000000000000c42f1c6b50000000000000000000000000000000000000000000000000214760ad37b5f7a9000000000000000000000000000000000000000000000000279ff0171b6e3200000000000000000000000000000000000000491980d8f2d85ec19db2a97ac9d00000000000000000000000000000000000000000000000000de0b6b3a7640000000000000000000000000000000000000000000000000000000000006849c08fff00000000000000000000000000000000000000000000000000000000011d0f00000000000000000000000000000000000000000000000000000000\",\"result\":\"success\",\"hash\":\"0x348b354062061f0a7da2a36628412ca6354d27f5e71f5af8281562dcb68ab5a8\",\"max_fee_per_gas\":\"8029094849\",\"revert_reason\":null,\"confirmation_duration\":[0,12000],\"transaction_burnt_fee\":\"523044319766144\",\"type\":2,\"token_transfers_overflow\":null,\"confirmations\":1,\"position\":228,\"max_priority_fee_per_gas\":\"1000000001\",\"transaction_tag\":null,\"created_contract\":null,\"value\":\"7577364\",\"from\":{\"ens_domain_name\":null,\"hash\":\"0xf661f18A7Af20E30bbe5ECa12546d766c750bE53\",\"implementations\":[],\"is_contract\":false,\"is_scam\":false,\"is_verified\":false,\"metadata\":null,\"name\":null,\"private_tags\":[],\"proxy_type\":null,\"public_tags\":[],\"watchlist_names\":[]},\"gas_used\":\"111617\",\"status\":\"ok\",\"to\":{\"ens_domain_name\":null,\"hash\":\"0xA69babEF1cA67A37Ffaf7a485DfFF3382056e78C\",\"implementations\":[],\"is_contract\":true,\"is_scam\":false,\"is_verified\":false,\"metadata\":{\"tags\":[{\"meta\":{},\"name\":\"MEV Bot\",\"ordinal\":0,\"slug\":\"mev-bot\",\"tagType\":\"protocol\"},{\"meta\":{},\"name\":\"MEV Bot: 0xA69...78C\",\"ordinal\":10,\"slug\":\"mev-bot-0xa6978c\",\"tagType\":\"name\"}]},\"name\":null,\"private_tags\":[],\"proxy_type\":\"unknown\",\"public_tags\":[],\"watchlist_names\":[]},\"authorization_list\":[],\"method\":\"executeFFsYo\",\"fee\":{\"type\":\"actual\",\"value\":\"634661319877761\"},\"actions\":[],\"gas_limit\":\"231044\",\"gas_price\":\"5686063233\",\"decoded_input\":{\"method_call\":\"executeFFsYo(address _address, bytes _bytes)\",\"method_id\":\"78e111f6\",\"parameters\":[{\"name\":\"_address\",\"type\":\"address\",\"value\":\"0xbfE698Cdd477Ad2000086D348e02dEC67f1653C1\"},{\"name\":\"_bytes\",\"type\":\"bytes\",\"value\":\"0x2f1c6b50000000000000000000000000000000000000000000000000214760ad37b5f7a9000000000000000000000000000000000000000000000000279ff0171b6e3200000000000000000000000000000000000000491980d8f2d85ec19db2a97ac9d00000000000000000000000000000000000000000000000000de0b6b3a7640000000000000000000000000000000000000000000000000000000000006849c08fff00000000000000000000000000000000000000000000000000000000011d0f\"}]},\"token_transfers\":null,\"base_fee_per_gas\":\"4686063232\",\"timestamp\":\"2025-06-11T17:44:47.000000Z\",\"nonce\":1051,\"historic_exchange_rate\":\"2798.08\",\"transaction_types\":[\"coin_transfer\",\"contract_call\",\"token_transfer\"],\"exchange_rate\":\"2861.62\",\"block_number\":22682892,\"has_error_in_internal_transactions\":null},{\"priority_fee\":\"177299000000000\",\"raw_input\":\"0x917cf8ac00000000000000000000000000000000000000000000000000000000000dede600000000000000000000000000000000000000000000000000000000001e9537000000000000000000000000e64a54e2533fd126c2e452c5fab544d80e2e4eb50000000000000000000000000000000000000000000000000000000013514d870000000000000000000000000000000000000000000000000000000013514e43f7b9ecaf00ea318805caeda7c853c6308b50cfbb6c8ee50e648c32c1e492ab18000000000000000000000000000000000000000000000000000000000000000d000000000000000000000000c1b634853cb333d3ad8663715b08f41a3aec47cc00000000000000000000000000000000000000000000000000000000015a1cd5000000000000000000000000000000000000000000000000000000006849bdfb00000000000000000000000000000000000000000000000000000000001e953300000000000000000000000000000000000000000000000000000001517ac332b74d82cec82b4a16ae2a03236beb30f0f094aba4972373a92a29400082c522b2\",\"max_fee_per_blob_gas\":\"10\",\"result\":\"success\",\"hash\":\"0x87cbf019033df0b6ce38d0003322a1a6a15976de8c2c66485aedff2f8e3e5e89\",\"max_fee_per_gas\":\"57954084770\",\"revert_reason\":null,\"confirmation_duration\":[0,12000],\"transaction_burnt_fee\":\"830834324970368\",\"type\":3,\"token_transfers_overflow\":null,\"confirmations\":1,\"position\":227,\"max_priority_fee_per_gas\":\"1000000000\",\"transaction_tag\":null,\"created_contract\":null,\"value\":\"0\",\"from\":{\"ens_domain_name\":null,\"hash\":\"0xC1b634853Cb333D3aD8663715b08f41A3Aec47cc\",\"implementations\":[],\"is_contract\":false,\"is_scam\":false,\"is_verified\":false,\"metadata\":{\"tags\":[{\"meta\":{},\"name\":\"Arbitrum: Batch Submitter\",\"ordinal\":10,\"slug\":\"arbitrum-batch-submitter\",\"tagType\":\"name\"},{\"meta\":{},\"name\":\"Arbitrum\",\"ordinal\":0,\"slug\":\"arbitrum\",\"tagType\":\"protocol\"}]},\"name\":null,\"private_tags\":[],\"proxy_type\":null,\"public_tags\":[],\"watchlist_names\":[]},\"gas_used\":\"177299\",\"status\":\"ok\",\"blob_gas_price\":\"1\",\"to\":{\"ens_domain_name\":null,\"hash\":\"0x1c479675ad559DC151F6Ec7ed3FbF8ceE79582B6\",\"implementations\":[{\"address\":\"0x98a58ADAb0f8A66A1BF4544d804bc0475dff32c7\",\"address_hash\":\"0x98a58ADAb0f8A66A1BF4544d804bc0475dff32c7\",\"name\":\"SequencerInbox\"}],\"is_contract\":true,\"is_scam\":false,\"is_verified\":true,\"metadata\":{\"tags\":[{\"meta\":{},\"name\":\"Arbitrum: Sequencer Inbox\",\"ordinal\":10,\"slug\":\"arbitrum-sequencer-inbox\",\"tagType\":\"name\"}]},\"name\":\"TransparentUpgradeableProxy\",\"private_tags\":[],\"proxy_type\":\"eip1967\",\"public_tags\":[],\"watchlist_names\":[]},\"authorization_list\":[],\"method\":\"addSequencerL2BatchFromBlobsDelayProof\",\"fee\":{\"type\":\"actual\",\"value\":\"1008133324970368\"},\"actions\":[],\"gas_limit\":\"232085\",\"gas_price\":\"5686063232\",\"decoded_input\":{\"method_call\":\"addSequencerL2BatchFromBlobsDelayProof(uint256 sequenceNumber, uint256 afterDelayedMessagesRead, address gasRefunder, uint256 prevMessageCount, uint256 newMessageCount, (bytes32,(uint8,address,uint64,uint64,uint256,uint256,bytes32)) delayProof)\",\"method_id\":\"917cf8ac\",\"parameters\":[{\"name\":\"sequenceNumber\",\"type\":\"uint256\",\"value\":\"912870\"},{\"name\":\"afterDelayedMessagesRead\",\"type\":\"uint256\",\"value\":\"2004279\"},{\"name\":\"gasRefunder\",\"type\":\"address\",\"value\":\"0xe64a54E2533Fd126C2E452c5fAb544d80E2E4eb5\"},{\"name\":\"prevMessageCount\",\"type\":\"uint256\",\"value\":\"324095367\"},{\"name\":\"newMessageCount\",\"type\":\"uint256\",\"value\":\"324095555\"},{\"name\":\"delayProof\",\"type\":\"(bytes32,(uint8,address,uint64,uint64,uint256,uint256,bytes32))\",\"value\":[\"0xf7b9ecaf00ea318805caeda7c853c6308b50cfbb6c8ee50e648c32c1e492ab18\",[\"13\",\"0xC1b634853Cb333D3aD8663715b08f41A3Aec47cc\",\"22682837\",\"1749663227\",\"2004275\",\"5661967154\",\"0xb74d82cec82b4a16ae2a03236beb30f0f094aba4972373a92a29400082c522b2\"]]}]},\"blob_versioned_hashes\":[\"0x015502a641f6eb80d3fb4f7deebc068fc601c94b37b998aecde060eb2c3be129\",\"0x0141f7386f2da6187b2300bf4285d759cd4cac52636856d1aaa62a3882b08643\",\"0x0168ef0fb70d98d5439427346fc30b424019eacd49a4fd5eb52f7ab4fe63ed24\"],\"token_transfers\":null,\"base_fee_per_gas\":\"4686063232\",\"timestamp\":\"2025-06-11T17:44:47.000000Z\",\"nonce\":861656,\"historic_exchange_rate\":\"2798.08\",\"transaction_types\":[\"contract_call\",\"blob_transaction\"],\"exchange_rate\":\"2861.62\",\"burnt_blob_fee\":\"393216\",\"blob_gas_used\":\"393216\",\"block_number\":22682892,\"has_error_in_internal_transactions\":null},{\"priority_fee\":\"548109000000000\",\"raw_input\":\"0x47faad14000000000000000000000000000000000000000000000000000000000000004000000000000000000000000000000000000000000000000000000000000003a0000000000000000000000000000000000000000000000000000000000000034000000000000000000000000000000000000000000000000000000000000000400000000000000000000000000000000000000000000000000000000000000060000000000000000000000000000000000000000000000000000000000000000000000000000000000000000000000000000000000000000000000000000002c0000000000000000000000000000000000000000000000000000000000000002000000000000000000000000068d30f47f19c07bccef4ac7fae2dc12fca3e0dc90000000000000000000000007a853a6480f4d7db79ae91c16c960dbbb6710d25fb987467e1a2cc0f44ac79e7d006c2b9214298afa5167c080aa9d2d64938cbea000000000000000000000000000000000000000000000000000000000000000000000000000000000000000000000000000000000000000000000000000000000000000000000000000000000000000000000000000000000000000000000001000000000000000000000000000000000000000000000000000000000000010000000000000000000000000000000000000000000000000000000000000001e000000000000000000000000000000000000000000000000000000000000000c0000000000000000000000000000000000000000000000000000000000000000000000000000000000000000000000000000000000000000000000000000000010000000000000000000000000000000000000000000000000000000000000000000000000000000000000000000000000000000000000000000000000001ec26000000000000000000000000000000000000000000000000000000000000000000000000000000000000000000000000000000000000000000000000000000000000000000000000000000000000000000000000000000000000000000000001000000000000000000000000000000000000000000000000000000000000002000000000000000000000000000000000000000000000000000000000000006490000000000000000000000000000000000000000000000000000000000000000000000000000000000000000000000000000000000000000000000000000006000000000000000000000000000000000000000000000000000000000000000000000000000000000000000000000000000000000000000000000000000000000\",\"max_fee_per_blob_gas\":\"1000000000\",\"result\":\"success\",\"hash\":\"0x666e533d84a5f01db6d869055c565fbd872ce18806b0e60b3eec1b4bffbb8a84\",\"max_fee_per_gas\":\"33000000000\",\"revert_reason\":null,\"confirmation_duration\":[0,12000],\"transaction_burnt_fee\":\"856157810676096\",\"type\":3,\"token_transfers_overflow\":null,\"confirmations\":1,\"position\":226,\"max_priority_fee_per_gas\":\"3000000000\",\"transaction_tag\":null,\"created_contract\":null,\"value\":\"0\",\"from\":{\"ens_domain_name\":null,\"hash\":\"0x7A853a6480F4D7dB79AE91c16c960dBbB6710d25\",\"implementations\":[],\"is_contract\":false,\"is_scam\":false,\"is_verified\":false,\"metadata\":null,\"name\":null,\"private_tags\":[],\"proxy_type\":null,\"public_tags\":[],\"watchlist_names\":[]},\"gas_used\":\"182703\",\"status\":\"ok\",\"blob_gas_price\":\"1\",\"to\":{\"ens_domain_name\":null,\"hash\":\"0x68d30f47F19c07bCCEf4Ac7FAE2Dc12FCa3e0dC9\",\"implementations\":[{\"address\":\"0xB8826B144eB895eFE2923b61b3b117B1298A9526\",\"address_hash\":\"0xB8826B144eB895eFE2923b61b3b117B1298A9526\",\"name\":\"ProverSet\"}],\"is_contract\":true,\"is_scam\":false,\"is_verified\":true,\"metadata\":null,\"name\":\"ERC1967Proxy\",\"private_tags\":[],\"proxy_type\":\"eip1967\",\"public_tags\":[],\"watchlist_names\":[]},\"authorization_list\":[],\"method\":\"proposeBatch\",\"fee\":{\"type\":\"actual\",\"value\":\"1404266810676096\"},\"actions\":[],\"gas_limit\":\"8000000\",\"gas_price\":\"7686063232\",\"decoded_input\":{\"method_call\":\"proposeBatch(bytes _params, bytes _txList)\",\"method_id\":\"47faad14\",\"parameters\":[{\"name\":\"_params\",\"type\":\"bytes\",\"value\":\"0x00000000000000000000000000000000000000000000000000000000000000400000000000000000000000000000000000000000000000000000000000000060000000000000000000000000000000000000000000000000000000000000000000000000000000000000000000000000000000000000000000000000000002c0000000000000000000000000000000000000000000000000000000000000002000000000000000000000000068d30f47f19c07bccef4ac7fae2dc12fca3e0dc90000000000000000000000007a853a6480f4d7db79ae91c16c960dbbb6710d25fb987467e1a2cc0f44ac79e7d006c2b9214298afa5167c080aa9d2d64938cbea000000000000000000000000000000000000000000000000000000000000000000000000000000000000000000000000000000000000000000000000000000000000000000000000000000000000000000000000000000000000000000000001000000000000000000000000000000000000000000000000000000000000010000000000000000000000000000000000000000000000000000000000000001e000000000000000000000000000000000000000000000000000000000000000c0000000000000000000000000000000000000000000000000000000000000000000000000000000000000000000000000000000000000000000000000000000010000000000000000000000000000000000000000000000000000000000000000000000000000000000000000000000000000000000000000000000000001ec2600000000000000000000000000000000000000000000000000000000000000000000000000000000000000000000000000000000000000000000000000000000000000000000000000000000000000000000000000000000000000000000000100000000000000000000000000000000000000000000000000000000000000200000000000000000000000000000000000000000000000000000000000000649000000000000000000000000000000000000000000000000000000000000000000000000000000000000000000000000000000000000000000000000000000600000000000000000000000000000000000000000000000000000000000000000\"},{\"name\":\"_txList\",\"type\":\"bytes\",\"value\":\"0x\"}]},\"blob_versioned_hashes\":[\"0x01d83205b5ecd0de1fa5c16c0069dbd1a62c362f5c2b0df9d6fd84138b3a5a6d\"],\"token_transfers\":null,\"base_fee_per_gas\":\"4686063232\",\"timestamp\":\"2025-06-11T17:44:47.000000Z\",\"nonce\":8612,\"historic_exchange_rate\":\"2798.08\",\"transaction_types\":[\"contract_call\",\"blob_transaction\"],\"exchange_rate\":\"2861.62\",\"burnt_blob_fee\":\"131072\",\"blob_gas_used\":\"131072\",\"block_number\":22682892,\"has_error_in_internal_transactions\":null},{\"priority_fee\":\"63209000000\",\"raw_input\":\"0xa9059cbb00000000000000000000000002e18c64fcb7edc50497173c1e0bba54c101df2a00000000000000000000000000000000000000000000000000000000017d7840\",\"result\":\"success\",\"hash\":\"0x9ad4fb97f397df42648fc677b559f1fb6be8bcf6fa76d8141dd4bb87ac32e224\",\"max_fee_per_gas\":\"9107756270\",\"revert_reason\":null,\"confirmation_duration\":[0,12000],\"transaction_burnt_fee\":\"296201370831488\",\"type\":2,\"token_transfers_overflow\":null,\"confirmations\":1,\"position\":225,\"max_priority_fee_per_gas\":\"1000000\",\"transaction_tag\":null,\"created_contract\":null,\"value\":\"0\",\"from\":{\"ens_domain_name\":null,\"hash\":\"0xEf8801eaf234ff82801821FFe2d78D60a0237F97\",\"implementations\":[],\"is_contract\":false,\"is_scam\":false,\"is_verified\":false,\"metadata\":{\"tags\":[{\"meta\":{},\"name\":\"Rollbit\",\"ordinal\":0,\"slug\":\"rollbit\",\"tagType\":\"protocol\"},{\"meta\":{\"tooltipDescription\":\"Rollbit hot wallet that sends out user ERC-20 token withdrawals.\",\"tooltipUrl\":\"https://rollbit.com/\"},\"name\":\"Rollbit: ERC-20 Hot Wallet\",\"ordinal\":10,\"slug\":\"rollbit-erc20-hot-wallet\",\"tagType\":\"name\"}]},\"name\":null,\"private_tags\":[],\"proxy_type\":null,\"public_tags\":[],\"watchlist_names\":[]},\"gas_used\":\"63209\",\"status\":\"ok\",\"to\":{\"ens_domain_name\":null,\"hash\":\"0xdAC17F958D2ee523a2206206994597C13D831ec7\",\"implementations\":[],\"is_contract\":true,\"is_scam\":false,\"is_verified\":true,\"metadata\":{\"tags\":[{\"meta\":{},\"name\":\"Stablecoin\",\"ordinal\":0,\"slug\":\"stablecoin\",\"tagType\":\"generic\"},{\"meta\":{},\"name\":\"Tether\",\"ordinal\":0,\"slug\":\"tether\",\"tagType\":\"protocol\"},{\"meta\":{},\"name\":\"Token Contract\",\"ordinal\":0,\"slug\":\"token-contract\",\"tagType\":\"generic\"},{\"meta\":{\"tooltipDescription\":\"Tether gives you the joint benefits of open blockchain technology and traditional currency by converting your cash into a stable digital currency equivalent.\",\"tooltipUrl\":\"https://tether.to/\"},\"name\":\"Tether: USDT Stablecoin\",\"ordinal\":10,\"slug\":\"tether-usdt-stablecoin\",\"tagType\":\"name\"}]},\"name\":\"Tether\",\"private_tags\":[],\"proxy_type\":\"unknown\",\"public_tags\":[],\"watchlist_names\":[]},\"authorization_list\":[],\"method\":\"transfer\",\"fee\":{\"type\":\"actual\",\"value\":\"296264579831488\"},\"actions\":[],\"gas_limit\":\"64043\",\"gas_price\":\"4687063232\",\"decoded_input\":{\"method_call\":\"transfer(address _to, uint256 _value)\",\"method_id\":\"a9059cbb\",\"parameters\":[{\"name\":\"_to\",\"type\":\"address\",\"value\":\"0x02e18C64FCb7edc50497173C1e0bba54C101dF2A\"},{\"name\":\"_value\",\"type\":\"uint256\",\"value\":\"25000000\"}]},\"token_transfers\":null,\"base_fee_per_gas\":\"4686063232\",\"timestamp\":\"2025-06-11T17:44:47.000000Z\",\"nonce\":467701,\"historic_exchange_rate\":\"2798.08\",\"transaction_types\":[\"contract_call\",\"token_transfer\"],\"exchange_rate\":\"2861.62\",\"block_number\":22682892,\"has_error_in_internal_transactions\":null},{\"priority_fee\":\"8577400000000\",\"raw_input\":\"0x000001ade421f3520000000000000000000000000000000000000000000000000167eb0443760e30000000000000000000000000000000000000000000000000000000000000004000000000000000000000000000000000000000000000000000000000000000c000000000000000000000000042000000000000000000000000000000000000060000000000000000000000000000000000000000000000000000000000000120000000000000000000000000000000000000000000000000000000000000018000000000000000000000000000000000000000000000000000000a407936ac3800000000000000000000000000000000000000000000000000000000000008f100000000000000000000000000000000000000000000000000000000000000020000000000000000000000009782cd894ae3526d3cdc8cd90cf439a81b30bac50000000000000000000000009782cd894ae3526d3cdc8cd90cf439a81b30bac500000000000000000000000000000000000000000000000000000000000000020000000000000000000000000000000000000000000000000167e0c3ca3f61f800000000000000000000000000000000000000000000000000000000000021050000000000000000000000000000000000000000000000000000000000000002000000000000000000000000000000000000000000000000000000006849bfff00000000000000000000000000000000000000000000000000000000684a1405d00dfeeddeadbeef765753be7f7a64d5509974b0d678e1e3149b02f4\",\"result\":\"success\",\"hash\":\"0x7498deba28a3c69b51443ad977367ec5b4ea2d85bf472c71f0ee1f8eee8aabc3\",\"max_fee_per_gas\":\"5494834537\",\"revert_reason\":null,\"confirmation_duration\":[0,12000],\"transaction_burnt_fee\":\"401942387661568\",\"type\":2,\"token_transfers_overflow\":null,\"confirmations\":1,\"position\":224,\"max_priority_fee_per_gas\":\"100000000\",\"transaction_tag\":null,\"created_contract\":null,\"value\":\"101307920183332400\",\"from\":{\"ens_domain_name\":null,\"hash\":\"0x9782cd894aE3526d3cDC8Cd90CF439A81b30BaC5\",\"implementations\":[],\"is_contract\":false,\"is_scam\":false,\"is_verified\":false,\"metadata\":null,\"name\":null,\"private_tags\":[],\"proxy_type\":null,\"public_tags\":[],\"watchlist_names\":[]},\"gas_used\":\"85774\",\"status\":\"ok\",\"to\":{\"ens_domain_name\":null,\"hash\":\"0x3a23F943181408EAC424116Af7b7790c94Cb97a5\",\"implementations\":[],\"is_contract\":true,\"is_scam\":false,\"is_verified\":true,\"metadata\":{\"tags\":[{\"meta\":{},\"name\":\"Socket: Gateway\",\"ordinal\":10,\"slug\":\"socket-gateway\",\"tagType\":\"name\"}]},\"name\":\"SocketGateway\",\"private_tags\":[],\"proxy_type\":\"unknown\",\"public_tags\":[],\"watchlist_names\":[]},\"authorization_list\":[],\"method\":\"0x000001ad\",\"fee\":{\"type\":\"actual\",\"value\":\"410519787661568\"},\"actions\":[],\"gas_limit\":\"104282\",\"gas_price\":\"4786063232\",\"decoded_input\":null,\"token_transfers\":null,\"base_fee_per_gas\":\"4686063232\",\"timestamp\":\"2025-06-11T17:44:47.000000Z\",\"nonce\":192,\"historic_exchange_rate\":\"2798.08\",\"transaction_types\":[\"coin_transfer\",\"contract_call\",\"token_transfer\"],\"exchange_rate\":\"2861.62\",\"block_number\":22682892,\"has_error_in_internal_transactions\":null},{\"priority_fee\":\"9548700735488\",\"raw_input\":\"0x2e1a7d4d000000000000000000000000000000000000000000000000006f87eb1c2b0926\",\"result\":\"success\",\"hash\":\"0x0cd899b5f0eca845acd38a3c48b3439f262d15747f873122a19451022a15b552\",\"max_fee_per_gas\":\"5000000000\",\"revert_reason\":null,\"confirmation_duration\":[0,12000],\"transaction_burnt_fee\":\"142531299264512\",\"type\":2,\"token_transfers_overflow\":null,\"confirmations\":1,\"position\":223,\"max_priority_fee_per_gas\":\"5000000000\",\"transaction_tag\":null,\"created_contract\":null,\"value\":\"0\",\"from\":{\"ens_domain_name\":null,\"hash\":\"0x221e080633009801089A80b0b59BFE00074d3B00\",\"implementations\":[],\"is_contract\":false,\"is_scam\":false,\"is_verified\":false,\"metadata\":null,\"name\":null,\"private_tags\":[],\"proxy_type\":null,\"public_tags\":[],\"watchlist_names\":[]},\"gas_used\":\"30416\",\"status\":\"ok\",\"to\":{\"ens_domain_name\":null,\"hash\":\"0xC02aaA39b223FE8D0A0e5C4F27eAD9083C756Cc2\",\"implementations\":[],\"is_contract\":true,\"is_scam\":false,\"is_verified\":true,\"metadata\":{\"tags\":[{\"meta\":{},\"name\":\"Wrapped Token\",\"ordinal\":0,\"slug\":\"wrapped-token\",\"tagType\":\"generic\"},{\"meta\":{\"main_entity\":\"Wrapped\",\"tooltipDescription\":\"wETH is \\\"wrapped ETH\\\"\",\"tooltipUrl\":\"https://weth.io/\"},\"name\":\"Wrapped Ether\",\"ordinal\":10,\"slug\":\"wrapped-ether\",\"tagType\":\"name\"},{\"meta\":{\"data\":\"ok\"},\"name\":\"Token Reputation\",\"ordinal\":0,\"slug\":\"token-reputation\",\"tagType\":\"information\"},{\"meta\":{},\"name\":\"Token Contract\",\"ordinal\":0,\"slug\":\"token-contract\",\"tagType\":\"generic\"}]},\"name\":\"WETH\",\"private_tags\":[],\"proxy_type\":\"unknown\",\"public_tags\":[],\"watchlist_names\":[]},\"authorization_list\":[],\"method\":\"withdraw\",\"fee\":{\"type\":\"actual\",\"value\":\"152080000000000\"},\"actions\":[],\"gas_limit\":\"36187\",\"gas_price\":\"5000000000\",\"decoded_input\":{\"method_call\":\"withdraw(uint256 wad)\",\"method_id\":\"2e1a7d4d\",\"parameters\":[{\"name\":\"wad\",\"type\":\"uint256\",\"value\":\"31393166274529574\"}]},\"token_transfers\":null,\"base_fee_per_gas\":\"4686063232\",\"timestamp\":\"2025-06-11T17:44:47.000000Z\",\"nonce\":85,\"historic_exchange_rate\":\"2798.08\",\"transaction_types\":[\"contract_call\",\"token_transfer\"],\"exchange_rate\":\"2861.62\",\"block_number\":22682892,\"has_error_in_internal_transactions\":null},{\"priority_fee\":null,\"raw_input\":\"0xa9059cbb0000000000000000000000001afdf79da66179427a7b6c3b7199bd062efd7b76000000000000000000000000000000000000000000000000000000000b532b80\",\"result\":\"success\",\"hash\":\"0x5bf00b3d7b7a70a98448943e8e6a65a60353ce01959fc226aeaf5d7eab9c697b\",\"max_fee_per_gas\":null,\"revert_reason\":null,\"confirmation_duration\":[0,12000],\"transaction_burnt_fee\":null,\"type\":0,\"token_transfers_overflow\":null,\"confirmations\":1,\"position\":222,\"max_priority_fee_per_gas\":null,\"transaction_tag\":null,\"created_contract\":null,\"value\":\"0\",\"from\":{\"ens_domain_name\":null,\"hash\":\"0x3EAd340268bb52e6f6D0FB201B11B6cE0E32BA19\",\"implementations\":[],\"is_contract\":false,\"is_scam\":false,\"is_verified\":false,\"metadata\":null,\"name\":null,\"private_tags\":[],\"proxy_type\":null,\"public_tags\":[],\"watchlist_names\":[]},\"gas_used\":\"41309\",\"status\":\"ok\",\"to\":{\"ens_domain_name\":null,\"hash\":\"0xdAC17F958D2ee523a2206206994597C13D831ec7\",\"implementations\":[],\"is_contract\":true,\"is_scam\":false,\"is_verified\":true,\"metadata\":{\"tags\":[{\"meta\":{},\"name\":\"Stablecoin\",\"ordinal\":0,\"slug\":\"stablecoin\",\"tagType\":\"generic\"},{\"meta\":{},\"name\":\"Tether\",\"ordinal\":0,\"slug\":\"tether\",\"tagType\":\"protocol\"},{\"meta\":{},\"name\":\"Token Contract\",\"ordinal\":0,\"slug\":\"token-contract\",\"tagType\":\"generic\"},{\"meta\":{\"tooltipDescription\":\"Tether gives you the joint benefits of open blockchain technology and traditional currency by converting your cash into a stable digital currency equivalent.\",\"tooltipUrl\":\"https://tether.to/\"},\"name\":\"Tether: USDT Stablecoin\",\"ordinal\":10,\"slug\":\"tether-usdt-stablecoin\",\"tagType\":\"name\"}]},\"name\":\"Tether\",\"private_tags\":[],\"proxy_type\":\"unknown\",\"public_tags\":[],\"watchlist_names\":[]},\"authorization_list\":[],\"method\":\"transfer\",\"fee\":{\"type\":\"actual\",\"value\":\"206545000000000\"},\"actions\":[],\"gas_limit\":\"80000\",\"gas_price\":\"5000000000\",\"decoded_input\":{\"method_call\":\"transfer(address _to, uint256 _value)\",\"method_id\":\"a9059cbb\",\"parameters\":[{\"name\":\"_to\",\"type\":\"address\",\"value\":\"0x1AFDf79da66179427A7B6c3B7199BD062EFD7b76\"},{\"name\":\"_value\",\"type\":\"uint256\",\"value\":\"190000000\"}]},\"token_transfers\":null,\"base_fee_per_gas\":\"4686063232\",\"timestamp\":\"2025-06-11T17:44:47.000000Z\",\"nonce\":2,\"historic_exchange_rate\":\"2798.08\",\"transaction_types\":[\"contract_call\",\"token_transfer\"],\"exchange_rate\":\"2861.62\",\"block_number\":22682892,\"has_error_in_internal_transactions\":null},{\"priority_fee\":\"15608300000000\",\"raw_input\":\"0x12aa3caf0000000000000000000000005141b82f5ffda4c6fe1e372978f1c5427640a190000000000000000000000000eeeeeeeeeeeeeeeeeeeeeeeeeeeeeeeeeeeeeeee0000000000000000000000000f7dc5d02cc1e1f5ee47854d534d332a1081ccc80000000000000000000000005141b82f5ffda4c6fe1e372978f1c5427640a190000000000000000000000000c9070e2635c4b0f8e2ac1951453460649486195300000000000000000000000000000000000000000000000000fc217828ec27fa0000000000000000000000000000000000000000000000004133e8f0aa6788ee000000000000000000000000000000000000000000000000000000000000000000000000000000000000000000000000000000000000000000000000000001400000000000000000000000000000000000000000000000000000000000000160000000000000000000000000000000000000000000000000000000000000000000000000000000000000000000000000000000000000000000000000000001150000000000000000000000000000000000000000000000f700006800004e00a0744c8c090000000000000000000000000000000000000000382ffce2287252f930e1c8dc9328dac5bf282ba10000000000000000000000000000000000000000000000000002857466cf295c4041c02aaa39b223fe8d0a0e5c4f27ead9083c756cc2d0e30db00c20c02aaa39b223fe8d0a0e5c4f27ead9083c756cc2f97503af8230a7e72909d6614f45e88168ff3c106ae4071138002dc6c0f97503af8230a7e72909d6614f45e88168ff3c101111111254eeb25477b68fb85ed929f73a9605820000000000000000000000000000000000000000000000004133e8f0aa6788eec02aaa39b223fe8d0a0e5c4f27ead9083c756cc200000000000000000000009a635db5\",\"result\":\"success\",\"hash\":\"0x226cd2a39eaf79b3c6c5eeb796412300133226021af619face7272990b52de4b\",\"max_fee_per_gas\":\"6477206943\",\"revert_reason\":null,\"confirmation_duration\":[0,12000],\"transaction_burnt_fee\":\"731414807440256\",\"type\":2,\"token_transfers_overflow\":null,\"confirmations\":1,\"position\":221,\"max_priority_fee_per_gas\":\"100000000\",\"transaction_tag\":null,\"created_contract\":null,\"value\":\"70968494097442810\",\"from\":{\"ens_domain_name\":null,\"hash\":\"0xc9070E2635c4B0f8E2Ac19514534606494861953\",\"implementations\":[],\"is_contract\":false,\"is_scam\":false,\"is_verified\":false,\"metadata\":null,\"name\":null,\"private_tags\":[],\"proxy_type\":null,\"public_tags\":[],\"watchlist_names\":[]},\"gas_used\":\"156083\",\"status\":\"ok\",\"to\":{\"ens_domain_name\":null,\"hash\":\"0x1111111254EEB25477B68fb85Ed929f73A960582\",\"implementations\":[],\"is_contract\":true,\"is_scam\":false,\"is_verified\":true,\"metadata\":{\"tags\":[{\"meta\":{},\"name\":\"1inch v5: Aggregation Router\",\"ordinal\":10,\"slug\":\"1inch-v5-aggregation-router\",\"tagType\":\"name\"}]},\"name\":\"AggregationRouterV5\",\"private_tags\":[],\"proxy_type\":\"unknown\",\"public_tags\":[],\"watchlist_names\":[]},\"authorization_list\":[],\"method\":\"swap\",\"fee\":{\"type\":\"actual\",\"value\":\"747023107440256\"},\"actions\":[],\"gas_limit\":\"192667\",\"gas_price\":\"4786063232\",\"decoded_input\":{\"method_call\":\"swap(address executor, (address,address,address,address,uint256,uint256,uint256) desc, bytes permit, bytes data)\",\"method_id\":\"12aa3caf\",\"parameters\":[{\"name\":\"executor\",\"type\":\"address\",\"value\":\"0x5141B82f5fFDa4c6fE1E372978F1C5427640a190\"},{\"name\":\"desc\",\"type\":\"(address,address,address,address,uint256,uint256,uint256)\",\"value\":[\"0xEeeeeEeeeEeEeeEeEeEeeEEEeeeeEeeeeeeeEEeE\",\"0x0f7dC5D02CC1E1f5Ee47854d534D332A1081cCC8\",\"0x5141B82f5fFDa4c6fE1E372978F1C5427640a190\",\"0xc9070E2635c4B0f8E2Ac19514534606494861953\",\"70968494097442810\",\"4698354956626266350\",\"0\"]},{\"name\":\"permit\",\"type\":\"bytes\",\"value\":\"0x\"},{\"name\":\"data\",\"type\":\"bytes\",\"value\":\"0x0000000000000000000000000000000000000000000000f700006800004e00a0744c8c090000000000000000000000000000000000000000382ffce2287252f930e1c8dc9328dac5bf282ba10000000000000000000000000000000000000000000000000002857466cf295c4041c02aaa39b223fe8d0a0e5c4f27ead9083c756cc2d0e30db00c20c02aaa39b223fe8d0a0e5c4f27ead9083c756cc2f97503af8230a7e72909d6614f45e88168ff3c106ae4071138002dc6c0f97503af8230a7e72909d6614f45e88168ff3c101111111254eeb25477b68fb85ed929f73a9605820000000000000000000000000000000000000000000000004133e8f0aa6788eec02aaa39b223fe8d0a0e5c4f27ead9083c756cc2\"}]},\"token_transfers\":null,\"base_fee_per_gas\":\"4686063232\",\"timestamp\":\"2025-06-11T17:44:47.000000Z\",\"nonce\":12,\"historic_exchange_rate\":\"2798.08\",\"transaction_types\":[\"coin_transfer\",\"contract_call\",\"token_transfer\"],\"exchange_rate\":\"2861.62\",\"block_number\":22682892,\"has_error_in_internal_transactions\":null},{\"priority_fee\":\"882000000000\",\"raw_input\":\"0x\",\"result\":\"success\",\"hash\":\"0xa454ed04a0920b48ecf9da4daa0698b6685aaef48bf137a965039b7d152cd1d1\",\"max_fee_per_gas\":\"5906265891\",\"revert_reason\":null,\"confirmation_duration\":[0,12000],\"transaction_burnt_fee\":\"98407327872000\",\"type\":2,\"token_transfers_overflow\":null,\"confirmations\":1,\"position\":220,\"max_priority_fee_per_gas\":\"42000000\",\"transaction_tag\":null,\"created_contract\":null,\"value\":\"101743023425525462\",\"from\":{\"ens_domain_name\":null,\"hash\":\"0x9eC3Fce0042335e4741c686F08df29e74c1a93b6\",\"implementations\":[],\"is_contract\":false,\"is_scam\":false,\"is_verified\":false,\"metadata\":null,\"name\":null,\"private_tags\":[],\"proxy_type\":null,\"public_tags\":[],\"watchlist_names\":[]},\"gas_used\":\"21000\",\"status\":\"ok\",\"to\":{\"ens_domain_name\":null,\"hash\":\"0xDFaa75323fB721e5f29D43859390f62Cc4B600b8\",\"implementations\":[],\"is_contract\":false,\"is_scam\":false,\"is_verified\":false,\"metadata\":{\"tags\":[{\"meta\":{\"tooltipUrl\":\"https://shuffle.com\"},\"name\":\"Shuffle.com\",\"ordinal\":10,\"slug\":\"shufflecom\",\"tagType\":\"name\"}]},\"name\":null,\"private_tags\":[],\"proxy_type\":null,\"public_tags\":[],\"watchlist_names\":[]},\"authorization_list\":[],\"method\":null,\"fee\":{\"type\":\"actual\",\"value\":\"99289327872000\"},\"actions\":[],\"gas_limit\":\"21000\",\"gas_price\":\"4728063232\",\"decoded_input\":null,\"token_transfers\":null,\"base_fee_per_gas\":\"4686063232\",\"timestamp\":\"2025-06-11T17:44:47.000000Z\",\"nonce\":123,\"historic_exchange_rate\":\"2798.08\",\"transaction_types\":[\"coin_transfer\"],\"exchange_rate\":\"2861.62\",\"block_number\":22682892,\"has_error_in_internal_transactions\":null},{\"priority_fee\":null,\"raw_input\":\"0xa9059cbb000000000000000000000000661a85f5e50a7883ba7a4ee3d9f0157f5744261600000000000000000000000000000000000000000000000000000000001e8480\",\"result\":\"success\",\"hash\":\"0x5c61e74db36dd2d22f5b81e665b7c90c5bca8a209a8a8532f4201920cd3ce25b\",\"max_fee_per_gas\":null,\"revert_reason\":null,\"confirmation_duration\":[0,12000],\"transaction_burnt_fee\":null,\"type\":0,\"token_transfers_overflow\":null,\"confirmations\":1,\"position\":219,\"max_priority_fee_per_gas\":null,\"transaction_tag\":null,\"created_contract\":null,\"value\":\"0\",\"from\":{\"ens_domain_name\":null,\"hash\":\"0xbc8087f1F4901230F299Adb7401881b214eC7F4B\",\"implementations\":[],\"is_contract\":false,\"is_scam\":false,\"is_verified\":false,\"metadata\":null,\"name\":null,\"private_tags\":[],\"proxy_type\":null,\"public_tags\":[],\"watchlist_names\":[]},\"gas_used\":\"62248\",\"status\":\"ok\",\"to\":{\"ens_domain_name\":null,\"hash\":\"0xA0b86991c6218b36c1d19D4a2e9Eb0cE3606eB48\",\"implementations\":[{\"address\":\"0x43506849D7C04F9138D1A2050bbF3A0c054402dd\",\"address_hash\":\"0x43506849D7C04F9138D1A2050bbF3A0c054402dd\",\"name\":\"FiatTokenV2_2\"}],\"is_contract\":true,\"is_scam\":false,\"is_verified\":true,\"metadata\":{\"tags\":[{\"meta\":{},\"name\":\"USDC\",\"ordinal\":0,\"slug\":\"usdc\",\"tagType\":\"generic\"},{\"meta\":{},\"name\":\"Circle\",\"ordinal\":0,\"slug\":\"circle\",\"tagType\":\"protocol\"},{\"meta\":{\"tooltipDescription\":\"USDC is a US dollar-backed stablecoin issued by Circle. USDC is designed to provide a faster, safer, and more efficient way to send, spend, and exchange money around the world.\",\"tooltipUrl\":\"https://www.circle.com/en/usdc\"},\"name\":\"Circle: USDC Token\",\"ordinal\":10,\"slug\":\"circle-usdc-token\",\"tagType\":\"name\"},{\"meta\":{},\"name\":\"Token Contract\",\"ordinal\":0,\"slug\":\"token-contract\",\"tagType\":\"generic\"},{\"meta\":{},\"name\":\"Stablecoin\",\"ordinal\":0,\"slug\":\"stablecoin\",\"tagType\":\"generic\"}]},\"name\":\"USDC\",\"private_tags\":[],\"proxy_type\":\"eip1967\",\"public_tags\":[],\"watchlist_names\":[]},\"authorization_list\":[],\"method\":\"transfer\",\"fee\":{\"type\":\"actual\",\"value\":\"311240000000000\"},\"actions\":[],\"gas_limit\":\"80000\",\"gas_price\":\"5000000000\",\"decoded_input\":{\"method_call\":\"transfer(address to, uint256 value)\",\"method_id\":\"a9059cbb\",\"parameters\":[{\"name\":\"to\",\"type\":\"address\",\"value\":\"0x661A85f5E50A7883Ba7A4Ee3d9F0157f57442616\"},{\"name\":\"value\",\"type\":\"uint256\",\"value\":\"2000000\"}]},\"token_transfers\":null,\"base_fee_per_gas\":\"4686063232\",\"timestamp\":\"2025-06-11T17:44:47.000000Z\",\"nonce\":1965,\"historic_exchange_rate\":\"2798.08\",\"transaction_types\":[\"contract_call\",\"token_transfer\"],\"exchange_rate\":\"2861.62\",\"block_number\":22682892,\"has_error_in_internal_transactions\":null},{\"priority_fee\":\"1260000000000\",\"raw_input\":\"0x\",\"result\":\"success\",\"hash\":\"0xb46ddacc4f3619a613718c958652e2e64e5eca20ab64a3519bc8fcce9e78734c\",\"max_fee_per_gas\":\"5924265891\",\"revert_reason\":null,\"confirmation_duration\":[0,12000],\"transaction_burnt_fee\":\"98407327872000\",\"type\":2,\"token_transfers_overflow\":null,\"confirmations\":1,\"position\":218,\"max_priority_fee_per_gas\":\"60000000\",\"transaction_tag\":null,\"created_contract\":null,\"value\":\"4000000000000000\",\"from\":{\"ens_domain_name\":null,\"hash\":\"0x79C10894df3861546552C784B07A253c33d83dE5\",\"implementations\":[],\"is_contract\":false,\"is_scam\":false,\"is_verified\":false,\"metadata\":null,\"name\":null,\"private_tags\":[],\"proxy_type\":null,\"public_tags\":[],\"watchlist_names\":[]},\"gas_used\":\"21000\",\"status\":\"ok\",\"to\":{\"ens_domain_name\":null,\"hash\":\"0x1c43356F514827ddB89258CB599F4DD5550eef87\",\"implementations\":[],\"is_contract\":false,\"is_scam\":false,\"is_verified\":false,\"metadata\":null,\"name\":null,\"private_tags\":[],\"proxy_type\":null,\"public_tags\":[],\"watchlist_names\":[]},\"authorization_list\":[],\"method\":null,\"fee\":{\"type\":\"actual\",\"value\":\"99667327872000\"},\"actions\":[],\"gas_limit\":\"21000\",\"gas_price\":\"4746063232\",\"decoded_input\":null,\"token_transfers\":null,\"base_fee_per_gas\":\"4686063232\",\"timestamp\":\"2025-06-11T17:44:47.000000Z\",\"nonce\":42510,\"historic_exchange_rate\":\"2798.08\",\"transaction_types\":[\"coin_transfer\"],\"exchange_rate\":\"2861.62\",\"block_number\":22682892,\"has_error_in_internal_transactions\":null},{\"priority_fee\":\"1260000000000\",\"raw_input\":\"0x\",\"result\":\"success\",\"hash\":\"0xdd83428f48db7ed733c34c03208b769dd5e867b5cf88c2a407a693d79b02c53e\",\"max_fee_per_gas\":\"5924265891\",\"revert_reason\":null,\"confirmation_duration\":[0,12000],\"transaction_burnt_fee\":\"98407327872000\",\"type\":2,\"token_transfers_overflow\":null,\"confirmations\":1,\"position\":217,\"max_priority_fee_per_gas\":\"60000000\",\"transaction_tag\":null,\"created_contract\":null,\"value\":\"10000000000000000\",\"from\":{\"ens_domain_name\":null,\"hash\":\"0xbdc22794d87a60dE958E111DdD72CA8f16d3E7c8\",\"implementations\":[],\"is_contract\":false,\"is_scam\":false,\"is_verified\":false,\"metadata\":null,\"name\":null,\"private_tags\":[],\"proxy_type\":null,\"public_tags\":[],\"watchlist_names\":[]},\"gas_used\":\"21000\",\"status\":\"ok\",\"to\":{\"ens_domain_name\":null,\"hash\":\"0x2b490fd0D710b4c2c42513043Dd8Bc6a33E55e85\",\"implementations\":[],\"is_contract\":false,\"is_scam\":false,\"is_verified\":false,\"metadata\":null,\"name\":null,\"private_tags\":[],\"proxy_type\":null,\"public_tags\":[],\"watchlist_names\":[]},\"authorization_list\":[],\"method\":null,\"fee\":{\"type\":\"actual\",\"value\":\"99667327872000\"},\"actions\":[],\"gas_limit\":\"21000\",\"gas_price\":\"4746063232\",\"decoded_input\":null,\"token_transfers\":null,\"base_fee_per_gas\":\"4686063232\",\"timestamp\":\"2025-06-11T17:44:47.000000Z\",\"nonce\":1002,\"historic_exchange_rate\":\"2798.08\",\"transaction_types\":[\"coin_transfer\"],\"exchange_rate\":\"2861.62\",\"block_number\":22682892,\"has_error_in_internal_transactions\":null},{\"priority_fee\":\"1260000000000\",\"raw_input\":\"0x\",\"result\":\"success\",\"hash\":\"0x4dccfa8cebba8e073740c6860dd156daa17ed79a29af7f9a9944a03e5e4d3647\",\"max_fee_per_gas\":\"5924265891\",\"revert_reason\":null,\"confirmation_duration\":[0,12000],\"transaction_burnt_fee\":\"98407327872000\",\"type\":2,\"token_transfers_overflow\":null,\"confirmations\":1,\"position\":216,\"max_priority_fee_per_gas\":\"60000000\",\"transaction_tag\":null,\"created_contract\":null,\"value\":\"9280410907573478\",\"from\":{\"ens_domain_name\":null,\"hash\":\"0x8D18D00074DD99dE3e3F22210b705b9B0a19835a\",\"implementations\":[],\"is_contract\":false,\"is_scam\":false,\"is_verified\":false,\"metadata\":null,\"name\":null,\"private_tags\":[],\"proxy_type\":null,\"public_tags\":[],\"watchlist_names\":[]},\"gas_used\":\"21000\",\"status\":\"ok\",\"to\":{\"ens_domain_name\":null,\"hash\":\"0x927C70B4834EeaB185377396df41DD74c64286C5\",\"implementations\":[],\"is_contract\":false,\"is_scam\":false,\"is_verified\":false,\"metadata\":null,\"name\":null,\"private_tags\":[],\"proxy_type\":null,\"public_tags\":[],\"watchlist_names\":[]},\"authorization_list\":[],\"method\":null,\"fee\":{\"type\":\"actual\",\"value\":\"99667327872000\"},\"actions\":[],\"gas_limit\":\"21000\",\"gas_price\":\"4746063232\",\"decoded_input\":null,\"token_transfers\":null,\"base_fee_per_gas\":\"4686063232\",\"timestamp\":\"2025-06-11T17:44:47.000000Z\",\"nonce\":43800,\"historic_exchange_rate\":\"2798.08\",\"transaction_types\":[\"coin_transfer\"],\"exchange_rate\":\"2861.62\",\"block_number\":22682892,\"has_error_in_internal_transactions\":null},{\"priority_fee\":null,\"raw_input\":\"0x\",\"result\":\"success\",\"hash\":\"0xb06f892a7e4f980fd763eb8f40d66553a3619b01beb9500fb983cad78014a2d2\",\"max_fee_per_gas\":null,\"revert_reason\":null,\"confirmation_duration\":[0,12000],\"transaction_burnt_fee\":null,\"type\":0,\"token_transfers_overflow\":null,\"confirmations\":1,\"position\":215,\"max_priority_fee_per_gas\":null,\"transaction_tag\":null,\"created_contract\":null,\"value\":\"56197911849755699\",\"from\":{\"ens_domain_name\":null,\"hash\":\"0xe0cd7BB42Fc7d7AB9611438B04700C8c4Fd38FC6\",\"implementations\":[],\"is_contract\":false,\"is_scam\":false,\"is_verified\":false,\"metadata\":null,\"name\":null,\"private_tags\":[],\"proxy_type\":null,\"public_tags\":[],\"watchlist_names\":[]},\"gas_used\":\"21000\",\"status\":\"ok\",\"to\":{\"ens_domain_name\":null,\"hash\":\"0x571a05b6E4A1830d5De823506045249d3eFDBC7E\",\"implementations\":[],\"is_contract\":false,\"is_scam\":false,\"is_verified\":false,\"metadata\":null,\"name\":null,\"private_tags\":[],\"proxy_type\":null,\"public_tags\":[],\"watchlist_names\":[]},\"authorization_list\":[],\"method\":null,\"fee\":{\"type\":\"actual\",\"value\":\"126000000000000\"},\"actions\":[],\"gas_limit\":\"21000\",\"gas_price\":\"6000000000\",\"decoded_input\":null,\"token_transfers\":null,\"base_fee_per_gas\":\"4686063232\",\"timestamp\":\"2025-06-11T17:44:47.000000Z\",\"nonce\":20,\"historic_exchange_rate\":\"2798.08\",\"transaction_types\":[\"coin_transfer\"],\"exchange_rate\":\"2861.62\",\"block_number\":22682892,\"has_error_in_internal_transactions\":null},{\"priority_fee\":\"30498000000000\",\"raw_input\":\"0x16b3b4c2000000000000000000000000000000000000000000000000000000000000006000000000000000000000000000000000000000000000000000000000000000a00000000000000000000000000000000000000000000000000023448dccaf70000000000000000000000000000000000000000000000000000000000000000016455448284f7074696d69736d297c376431726b327c3100000000000000000000000000000000000000000000000000000000000000000000000000000000002a30783438643038636563386236316338373264616261623731343235306130643635613536396232336400000000000000000000000000000000000000000000\",\"result\":\"success\",\"hash\":\"0xaafcd39e61ef0c4b0a13ca255e9e0e08374f48b893326e0bb988260b27fa25d7\",\"max_fee_per_gas\":\"7329939188\",\"revert_reason\":null,\"confirmation_duration\":[0,12000],\"transaction_burnt_fee\":\"142915556449536\",\"type\":2,\"token_transfers_overflow\":null,\"confirmations\":1,\"position\":214,\"max_priority_fee_per_gas\":\"1000000000\",\"transaction_tag\":null,\"created_contract\":null,\"value\":\"10000000000000000\",\"from\":{\"ens_domain_name\":null,\"hash\":\"0x48D08cec8b61C872DabAb714250a0d65a569B23D\",\"implementations\":[],\"is_contract\":false,\"is_scam\":false,\"is_verified\":false,\"metadata\":null,\"name\":null,\"private_tags\":[],\"proxy_type\":null,\"public_tags\":[],\"watchlist_names\":[]},\"gas_used\":\"30498\",\"status\":\"ok\",\"to\":{\"ens_domain_name\":null,\"hash\":\"0xB685760EBD368a891F27ae547391F4E2A289895b\",\"implementations\":[],\"is_contract\":true,\"is_scam\":false,\"is_verified\":true,\"metadata\":null,\"name\":\"Bridgers\",\"private_tags\":[],\"proxy_type\":\"unknown\",\"public_tags\":[],\"watchlist_names\":[]},\"authorization_list\":[],\"method\":\"swapEth\",\"fee\":{\"type\":\"actual\",\"value\":\"173413556449536\"},\"actions\":[],\"gas_limit\":\"53712\",\"gas_price\":\"5686063232\",\"decoded_input\":{\"method_call\":\"swapEth(string toToken, string destination, uint256 minReturnAmount)\",\"method_id\":\"16b3b4c2\",\"parameters\":[{\"name\":\"toToken\",\"type\":\"string\",\"value\":\"ETH(Optimism)|7d1rk2|1\"},{\"name\":\"destination\",\"type\":\"string\",\"value\":\"0x48d08cec8b61c872dabab714250a0d65a569b23d\"},{\"name\":\"minReturnAmount\",\"type\":\"uint256\",\"value\":\"9927000000000000\"}]},\"token_transfers\":null,\"base_fee_per_gas\":\"4686063232\",\"timestamp\":\"2025-06-11T17:44:47.000000Z\",\"nonce\":7,\"historic_exchange_rate\":\"2798.08\",\"transaction_types\":[\"coin_transfer\",\"contract_call\"],\"exchange_rate\":\"2861.62\",\"block_number\":22682892,\"has_error_in_internal_transactions\":null},{\"priority_fee\":\"1559460000000\",\"raw_input\":\"0x\",\"result\":\"success\",\"hash\":\"0xfd210bdc5e9735a805021594b6ad8afd691d0ee46ee5cd6a08e1ac396f17535b\",\"max_fee_per_gas\":\"5400000000\",\"revert_reason\":null,\"confirmation_duration\":[0,12000],\"transaction_burnt_fee\":\"98407327872000\",\"type\":2,\"token_transfers_overflow\":null,\"confirmations\":1,\"position\":213,\"max_priority_fee_per_gas\":\"74260000\",\"transaction_tag\":null,\"created_contract\":null,\"value\":\"100000000000000000\",\"from\":{\"ens_domain_name\":null,\"hash\":\"0xBDa8476305099A445a8e561d7061a5A968052677\",\"implementations\":[],\"is_contract\":false,\"is_scam\":false,\"is_verified\":false,\"metadata\":null,\"name\":null,\"private_tags\":[],\"proxy_type\":null,\"public_tags\":[],\"watchlist_names\":[]},\"gas_used\":\"21000\",\"status\":\"ok\",\"to\":{\"ens_domain_name\":null,\"hash\":\"0x1354c410177Bf7B1eBe1b7EC42dc078F75E9505C\",\"implementations\":[],\"is_contract\":false,\"is_scam\":false,\"is_verified\":false,\"metadata\":null,\"name\":null,\"private_tags\":[],\"proxy_type\":null,\"public_tags\":[],\"watchlist_names\":[]},\"authorization_list\":[],\"method\":null,\"fee\":{\"type\":\"actual\",\"value\":\"99966787872000\"},\"actions\":[],\"gas_limit\":\"21000\",\"gas_price\":\"4760323232\",\"decoded_input\":null,\"token_transfers\":null,\"base_fee_per_gas\":\"4686063232\",\"timestamp\":\"2025-06-11T17:44:47.000000Z\",\"nonce\":10,\"historic_exchange_rate\":\"2798.08\",\"transaction_types\":[\"coin_transfer\"],\"exchange_rate\":\"2861.62\",\"block_number\":22682892,\"has_error_in_internal_transactions\":null},{\"priority_fee\":\"1559460000000\",\"raw_input\":\"0x\",\"result\":\"success\",\"hash\":\"0x1400686cded329b666ac4d41d3094e8c6e14df2e0ef12e2fb740f6b9e87ec671\",\"max_fee_per_gas\":\"5400000000\",\"revert_reason\":null,\"confirmation_duration\":[0,12000],\"transaction_burnt_fee\":\"98407327872000\",\"type\":2,\"token_transfers_overflow\":null,\"confirmations\":1,\"position\":212,\"max_priority_fee_per_gas\":\"74260000\",\"transaction_tag\":null,\"created_contract\":null,\"value\":\"17400000000000000\",\"from\":{\"ens_domain_name\":null,\"hash\":\"0xbf7E82aB5EA3419477A6Fc9419071881DE0573fC\",\"implementations\":[],\"is_contract\":false,\"is_scam\":false,\"is_verified\":false,\"metadata\":null,\"name\":null,\"private_tags\":[],\"proxy_type\":null,\"public_tags\":[],\"watchlist_names\":[]},\"gas_used\":\"21000\",\"status\":\"ok\",\"to\":{\"ens_domain_name\":null,\"hash\":\"0xafC6Af24bA1ad56B2d4eD1508dD09ffF4ed16840\",\"implementations\":[],\"is_contract\":false,\"is_scam\":false,\"is_verified\":false,\"metadata\":{\"tags\":[{\"meta\":{},\"name\":\"DEPOSIT ADDRESS\",\"ordinal\":0,\"slug\":\"deposit-address\",\"tagType\":\"generic\"},{\"meta\":{\"tooltipDescription\":\"This address is reported to be a deposit address for ByBit.\",\"tooltipUrl\":\"https://www.bybit.com/en/\"},\"name\":\"ByBit Dep: 0xafC6Af24bA1ad56B2d4eD1508dD09ffF4ed16840\",\"ordinal\":0,\"slug\":\"bybit-dep-0xafc6af24ba1ad56b2d4ed1508dd09fff4ed16840\",\"tagType\":\"name\"},{\"meta\":{},\"name\":\"ByBit Dep\",\"ordinal\":0,\"slug\":\"bybit-dep\",\"tagType\":\"protocol\"}]},\"name\":null,\"private_tags\":[],\"proxy_type\":null,\"public_tags\":[],\"watchlist_names\":[]},\"authorization_list\":[],\"method\":null,\"fee\":{\"type\":\"actual\",\"value\":\"99966787872000\"},\"actions\":[],\"gas_limit\":\"21000\",\"gas_price\":\"4760323232\",\"decoded_input\":null,\"token_transfers\":null,\"base_fee_per_gas\":\"4686063232\",\"timestamp\":\"2025-06-11T17:44:47.000000Z\",\"nonce\":296,\"historic_exchange_rate\":\"2798.08\",\"transaction_types\":[\"coin_transfer\"],\"exchange_rate\":\"2861.62\",\"block_number\":22682892,\"has_error_in_internal_transactions\":null},{\"priority_fee\":\"1659000000000\",\"raw_input\":\"0x\",\"result\":\"success\",\"hash\":\"0xb11da41fa7f26ffccbb95e149af53899a9b32083761313531af43174dff7a84a\",\"max_fee_per_gas\":\"9700000000\",\"revert_reason\":null,\"confirmation_duration\":[0,12000],\"transaction_burnt_fee\":\"98407327872000\",\"type\":2,\"token_transfers_overflow\":null,\"confirmations\":1,\"position\":211,\"max_priority_fee_per_gas\":\"79000000\",\"transaction_tag\":null,\"created_contract\":null,\"value\":\"6500000000000000\",\"from\":{\"ens_domain_name\":null,\"hash\":\"0xaF7fe2f6e545Ba85d54410F1F6f55ec8ebC03eA2\",\"implementations\":[],\"is_contract\":false,\"is_scam\":false,\"is_verified\":false,\"metadata\":null,\"name\":null,\"private_tags\":[],\"proxy_type\":null,\"public_tags\":[],\"watchlist_names\":[]},\"gas_used\":\"21000\",\"status\":\"ok\",\"to\":{\"ens_domain_name\":null,\"hash\":\"0x5B449644174216d2dCa707E018C7283608BFF398\",\"implementations\":[],\"is_contract\":false,\"is_scam\":false,\"is_verified\":false,\"metadata\":null,\"name\":null,\"private_tags\":[],\"proxy_type\":null,\"public_tags\":[],\"watchlist_names\":[]},\"authorization_list\":[],\"method\":null,\"fee\":{\"type\":\"actual\",\"value\":\"100066327872000\"},\"actions\":[],\"gas_limit\":\"23100\",\"gas_price\":\"4765063232\",\"decoded_input\":null,\"token_transfers\":null,\"base_fee_per_gas\":\"4686063232\",\"timestamp\":\"2025-06-11T17:44:47.000000Z\",\"nonce\":5,\"historic_exchange_rate\":\"2798.08\",\"transaction_types\":[\"coin_transfer\"],\"exchange_rate\":\"2861.62\",\"block_number\":22682892,\"has_error_in_internal_transactions\":null},{\"priority_fee\":\"1734474000000\",\"raw_input\":\"0xa9059cbb000000000000000000000000307576dd4f73f91bb8c4a2edb762938e8e067d310000000000000000000000000000000000000000000000000000000000fd39aa\",\"result\":\"success\",\"hash\":\"0x8b2edc2c742970a222bba1dc658557cfab3df036d95802584d2072a8aa448dd2\",\"max_fee_per_gas\":\"5906265891\",\"revert_reason\":null,\"confirmation_duration\":[0,12000],\"transaction_burnt_fee\":\"193520353291904\",\"type\":2,\"token_transfers_overflow\":null,\"confirmations\":1,\"position\":210,\"max_priority_fee_per_gas\":\"42000000\",\"transaction_tag\":null,\"created_contract\":null,\"value\":\"0\",\"from\":{\"ens_domain_name\":null,\"hash\":\"0xc35dbEDcE86F3D1182B3464645cF231De5c3600F\",\"implementations\":[],\"is_contract\":false,\"is_scam\":false,\"is_verified\":false,\"metadata\":null,\"name\":null,\"private_tags\":[],\"proxy_type\":null,\"public_tags\":[],\"watchlist_names\":[]},\"gas_used\":\"41297\",\"status\":\"ok\",\"to\":{\"ens_domain_name\":null,\"hash\":\"0xdAC17F958D2ee523a2206206994597C13D831ec7\",\"implementations\":[],\"is_contract\":true,\"is_scam\":false,\"is_verified\":true,\"metadata\":{\"tags\":[{\"meta\":{},\"name\":\"Stablecoin\",\"ordinal\":0,\"slug\":\"stablecoin\",\"tagType\":\"generic\"},{\"meta\":{},\"name\":\"Tether\",\"ordinal\":0,\"slug\":\"tether\",\"tagType\":\"protocol\"},{\"meta\":{},\"name\":\"Token Contract\",\"ordinal\":0,\"slug\":\"token-contract\",\"tagType\":\"generic\"},{\"meta\":{\"tooltipDescription\":\"Tether gives you the joint benefits of open blockchain technology and traditional currency by converting your cash into a stable digital currency equivalent.\",\"tooltipUrl\":\"https://tether.to/\"},\"name\":\"Tether: USDT Stablecoin\",\"ordinal\":10,\"slug\":\"tether-usdt-stablecoin\",\"tagType\":\"name\"}]},\"name\":\"Tether\",\"private_tags\":[],\"proxy_type\":\"unknown\",\"public_tags\":[],\"watchlist_names\":[]},\"authorization_list\":[],\"method\":\"transfer\",\"fee\":{\"type\":\"actual\",\"value\":\"195254827291904\"},\"actions\":[],\"gas_limit\":\"84000\",\"gas_price\":\"4728063232\",\"decoded_input\":{\"method_call\":\"transfer(address _to, uint256 _value)\",\"method_id\":\"a9059cbb\",\"parameters\":[{\"name\":\"_to\",\"type\":\"address\",\"value\":\"0x307576Dd4F73f91BB8c4A2EdB762938E8e067d31\"},{\"name\":\"_value\",\"type\":\"uint256\",\"value\":\"16595370\"}]},\"token_transfers\":null,\"base_fee_per_gas\":\"4686063232\",\"timestamp\":\"2025-06-11T17:44:47.000000Z\",\"nonce\":9,\"historic_exchange_rate\":\"2798.08\",\"transaction_types\":[\"contract_call\",\"token_transfer\"],\"exchange_rate\":\"2861.62\",\"block_number\":22682892,\"has_error_in_internal_transactions\":null},{\"priority_fee\":\"1734978000000\",\"raw_input\":\"0xa9059cbb000000000000000000000000307576dd4f73f91bb8c4a2edb762938e8e067d3100000000000000000000000000000000000000000000000000000000012b1280\",\"result\":\"success\",\"hash\":\"0xda318fe154c6748a998d3eab26c01d6deb679904f1b6713d17d7f168f41ec62d\",\"max_fee_per_gas\":\"5906265891\",\"revert_reason\":null,\"confirmation_duration\":[0,12000],\"transaction_burnt_fee\":\"193576586050688\",\"type\":2,\"token_transfers_overflow\":null,\"confirmations\":1,\"position\":209,\"max_priority_fee_per_gas\":\"42000000\",\"transaction_tag\":null,\"created_contract\":null,\"value\":\"0\",\"from\":{\"ens_domain_name\":null,\"hash\":\"0xB9c1001C8b349a831a9Ee2a3FD2f74c36f3Cf663\",\"implementations\":[],\"is_contract\":false,\"is_scam\":false,\"is_verified\":false,\"metadata\":null,\"name\":null,\"private_tags\":[],\"proxy_type\":null,\"public_tags\":[],\"watchlist_names\":[]},\"gas_used\":\"41309\",\"status\":\"ok\",\"to\":{\"ens_domain_name\":null,\"hash\":\"0xdAC17F958D2ee523a2206206994597C13D831ec7\",\"implementations\":[],\"is_contract\":true,\"is_scam\":false,\"is_verified\":true,\"metadata\":{\"tags\":[{\"meta\":{},\"name\":\"Stablecoin\",\"ordinal\":0,\"slug\":\"stablecoin\",\"tagType\":\"generic\"},{\"meta\":{},\"name\":\"Tether\",\"ordinal\":0,\"slug\":\"tether\",\"tagType\":\"protocol\"},{\"meta\":{},\"name\":\"Token Contract\",\"ordinal\":0,\"slug\":\"token-contract\",\"tagType\":\"generic\"},{\"meta\":{\"tooltipDescription\":\"Tether gives you the joint benefits of open blockchain technology and traditional currency by converting your cash into a stable digital currency equivalent.\",\"tooltipUrl\":\"https://tether.to/\"},\"name\":\"Tether: USDT Stablecoin\",\"ordinal\":10,\"slug\":\"tether-usdt-stablecoin\",\"tagType\":\"name\"}]},\"name\":\"Tether\",\"private_tags\":[],\"proxy_type\":\"unknown\",\"public_tags\":[],\"watchlist_names\":[]},\"authorization_list\":[],\"method\":\"transfer\",\"fee\":{\"type\":\"actual\",\"value\":\"195311564050688\"},\"actions\":[],\"gas_limit\":\"84000\",\"gas_price\":\"4728063232\",\"decoded_input\":{\"method_call\":\"transfer(address _to, uint256 _value)\",\"method_id\":\"a9059cbb\",\"parameters\":[{\"name\":\"_to\",\"type\":\"address\",\"value\":\"0x307576Dd4F73f91BB8c4A2EdB762938E8e067d31\"},{\"name\":\"_value\",\"type\":\"uint256\",\"value\":\"19600000\"}]},\"token_transfers\":null,\"base_fee_per_gas\":\"4686063232\",\"timestamp\":\"2025-06-11T17:44:47.000000Z\",\"nonce\":2,\"historic_exchange_rate\":\"2798.08\",\"transaction_types\":[\"contract_call\",\"token_transfer\"],\"exchange_rate\":\"2861.62\",\"block_number\":22682892,\"has_error_in_internal_transactions\":null},{\"priority_fee\":\"39278880819390\",\"raw_input\":\"0x095ea7b3000000000000000000000000888888888889758f76e7103c6cbf23abbf58f9460000000000000000000000000000000000000000000000183a16d43ac264bda2\",\"result\":\"success\",\"hash\":\"0xa23f940cc6a69f938fb517d7c9252209bc2fdff72f164b073af4e90507c0dd5e\",\"max_fee_per_gas\":\"5454579781\",\"revert_reason\":null,\"confirmation_duration\":[0,12000],\"transaction_burnt_fee\":\"239504691787520\",\"type\":2,\"token_transfers_overflow\":null,\"confirmations\":1,\"position\":208,\"max_priority_fee_per_gas\":\"1000000001\",\"transaction_tag\":null,\"created_contract\":null,\"value\":\"0\",\"from\":{\"ens_domain_name\":null,\"hash\":\"0x4fD59FC15bC21120f7b249989E4a96c4f8814980\",\"implementations\":[],\"is_contract\":false,\"is_scam\":false,\"is_verified\":false,\"metadata\":null,\"name\":null,\"private_tags\":[],\"proxy_type\":null,\"public_tags\":[],\"watchlist_names\":[]},\"gas_used\":\"51110\",\"status\":\"ok\",\"to\":{\"ens_domain_name\":null,\"hash\":\"0xdC035D45d973E3EC169d2276DDab16f1e407384F\",\"implementations\":[{\"address\":\"0x1923DfeE706A8E78157416C29cBCCFDe7cdF4102\",\"address_hash\":\"0x1923DfeE706A8E78157416C29cBCCFDe7cdF4102\",\"name\":\"Usds\"}],\"is_contract\":true,\"is_scam\":false,\"is_verified\":true,\"metadata\":null,\"name\":\"USDS\",\"private_tags\":[],\"proxy_type\":\"eip1967\",\"public_tags\":[],\"watchlist_names\":[]},\"authorization_list\":[],\"method\":\"approve\",\"fee\":{\"type\":\"actual\",\"value\":\"278783572606910\"},\"actions\":[],\"gas_limit\":\"51502\",\"gas_price\":\"5454579781\",\"decoded_input\":{\"method_call\":\"approve(address spender, uint256 value)\",\"method_id\":\"095ea7b3\",\"parameters\":[{\"name\":\"spender\",\"type\":\"address\",\"value\":\"0x888888888889758F76e7103c6CbF23ABbF58F946\"},{\"name\":\"value\",\"type\":\"uint256\",\"value\":\"446907624021551267234\"}]},\"token_transfers\":null,\"base_fee_per_gas\":\"4686063232\",\"timestamp\":\"2025-06-11T17:44:47.000000Z\",\"nonce\":12,\"historic_exchange_rate\":\"2798.08\",\"transaction_types\":[\"contract_call\"],\"exchange_rate\":\"2861.62\",\"block_number\":22682892,\"has_error_in_internal_transactions\":null},{\"priority_fee\":\"2100000000000\",\"raw_input\":\"0x\",\"result\":\"success\",\"hash\":\"0xf70ac3e6c6cc07a95e63170ddf43eb5980f40747c0778cb333d458afc008ddb2\",\"max_fee_per_gas\":\"5260515962\",\"revert_reason\":null,\"confirmation_duration\":[0,12000],\"transaction_burnt_fee\":\"98407327872000\",\"type\":2,\"token_transfers_overflow\":null,\"confirmations\":1,\"position\":207,\"max_priority_fee_per_gas\":\"100000000\",\"transaction_tag\":null,\"created_contract\":null,\"value\":\"37022375330383000\",\"from\":{\"ens_domain_name\":null,\"hash\":\"0xE847126ad8a9F5adf8207cD2e1AF556E6e62ee88\",\"implementations\":[],\"is_contract\":false,\"is_scam\":false,\"is_verified\":false,\"metadata\":null,\"name\":null,\"private_tags\":[],\"proxy_type\":null,\"public_tags\":[],\"watchlist_names\":[]},\"gas_used\":\"21000\",\"status\":\"ok\",\"to\":{\"ens_domain_name\":null,\"hash\":\"0x8D95C15549BD94D4EC32e6f154b396285b65ed9e\",\"implementations\":[],\"is_contract\":false,\"is_scam\":false,\"is_verified\":false,\"metadata\":null,\"name\":null,\"private_tags\":[],\"proxy_type\":null,\"public_tags\":[],\"watchlist_names\":[]},\"authorization_list\":[],\"method\":null,\"fee\":{\"type\":\"actual\",\"value\":\"100507327872000\"},\"actions\":[],\"gas_limit\":\"21000\",\"gas_price\":\"4786063232\",\"decoded_input\":null,\"token_transfers\":null,\"base_fee_per_gas\":\"4686063232\",\"timestamp\":\"2025-06-11T17:44:47.000000Z\",\"nonce\":113,\"historic_exchange_rate\":\"2798.08\",\"transaction_types\":[\"coin_transfer\"],\"exchange_rate\":\"2861.62\",\"block_number\":22682892,\"has_error_in_internal_transactions\":null},{\"priority_fee\":\"2100000000000\",\"raw_input\":\"0x\",\"result\":\"success\",\"hash\":\"0xdfe5d6eb9a5418f9b5a7fae20f09130b688d731e8d81aa18565920e564332c13\",\"max_fee_per_gas\":\"5494834537\",\"revert_reason\":null,\"confirmation_duration\":[0,12000],\"transaction_burnt_fee\":\"98407327872000\",\"type\":2,\"token_transfers_overflow\":null,\"confirmations\":1,\"position\":206,\"max_priority_fee_per_gas\":\"100000000\",\"transaction_tag\":null,\"created_contract\":null,\"value\":\"2419238474723000\",\"from\":{\"ens_domain_name\":null,\"hash\":\"0x1090e225357668c51415B8401c6e63cc91614573\",\"implementations\":[],\"is_contract\":false,\"is_scam\":false,\"is_verified\":false,\"metadata\":null,\"name\":null,\"private_tags\":[],\"proxy_type\":null,\"public_tags\":[],\"watchlist_names\":[]},\"gas_used\":\"21000\",\"status\":\"ok\",\"to\":{\"ens_domain_name\":null,\"hash\":\"0x98c9A20224F414F69F6aB51E1624f87161827341\",\"implementations\":[],\"is_contract\":false,\"is_scam\":false,\"is_verified\":false,\"metadata\":null,\"name\":null,\"private_tags\":[],\"proxy_type\":null,\"public_tags\":[],\"watchlist_names\":[]},\"authorization_list\":[],\"method\":null,\"fee\":{\"type\":\"actual\",\"value\":\"100507327872000\"},\"actions\":[],\"gas_limit\":\"21000\",\"gas_price\":\"4786063232\",\"decoded_input\":null,\"token_transfers\":null,\"base_fee_per_gas\":\"4686063232\",\"timestamp\":\"2025-06-11T17:44:47.000000Z\",\"nonce\":0,\"historic_exchange_rate\":\"2798.08\",\"transaction_types\":[\"coin_transfer\"],\"exchange_rate\":\"2861.62\",\"block_number\":22682892,\"has_error_in_internal_transactions\":null},{\"priority_fee\":\"2100000000000\",\"raw_input\":\"0x\",\"result\":\"success\",\"hash\":\"0x1e1b06887a5ebc7cac172c4655d52b32cd40dffe82cc17ebbe760c7dd8396d94\",\"max_fee_per_gas\":\"5964265891\",\"revert_reason\":null,\"confirmation_duration\":[0,12000],\"transaction_burnt_fee\":\"98407327872000\",\"type\":2,\"token_transfers_overflow\":null,\"confirmations\":1,\"position\":205,\"max_priority_fee_per_gas\":\"100000000\",\"transaction_tag\":null,\"created_contract\":null,\"value\":\"27000000000000000\",\"from\":{\"ens_domain_name\":null,\"hash\":\"0x8216874887415e2650D12D53Ff53516F04a74FD7\",\"implementations\":[],\"is_contract\":false,\"is_scam\":false,\"is_verified\":false,\"metadata\":{\"tags\":[{\"meta\":{\"tooltipUrl\":\"https://www.moonpay.com/\"},\"name\":\"MoonPay: Withdrawals 1\",\"ordinal\":10,\"slug\":\"moonpay-withdrawals-1\",\"tagType\":\"name\"},{\"meta\":{},\"name\":\"MoonPay\",\"ordinal\":0,\"slug\":\"moonpay\",\"tagType\":\"protocol\"},{\"meta\":{\"alertStatus\":\"info\",\"data\":\"This address has been tagged based on hildobby compilation.\"},\"name\":\"note_0\",\"ordinal\":0,\"slug\":\"note0\",\"tagType\":\"note\"}]},\"name\":null,\"private_tags\":[],\"proxy_type\":null,\"public_tags\":[],\"watchlist_names\":[]},\"gas_used\":\"21000\",\"status\":\"ok\",\"to\":{\"ens_domain_name\":null,\"hash\":\"0x7Fa3A621f143c8FC1c95c2C772A5407DDfF86a0e\",\"implementations\":[],\"is_contract\":false,\"is_scam\":false,\"is_verified\":false,\"metadata\":null,\"name\":null,\"private_tags\":[],\"proxy_type\":null,\"public_tags\":[],\"watchlist_names\":[]},\"authorization_list\":[],\"method\":null,\"fee\":{\"type\":\"actual\",\"value\":\"100507327872000\"},\"actions\":[],\"gas_limit\":\"21000\",\"gas_price\":\"4786063232\",\"decoded_input\":null,\"token_transfers\":null,\"base_fee_per_gas\":\"4686063232\",\"timestamp\":\"2025-06-11T17:44:47.000000Z\",\"nonce\":1541714,\"historic_exchange_rate\":\"2798.08\",\"transaction_types\":[\"coin_transfer\"],\"exchange_rate\":\"2861.62\",\"block_number\":22682892,\"has_error_in_internal_transactions\":null},{\"priority_fee\":\"2100000000000\",\"raw_input\":\"0x\",\"result\":\"success\",\"hash\":\"0x88c7b57960e7faa4abf8ff66ae6072576d6f645e43f20515a5d51bcd67921b57\",\"max_fee_per_gas\":\"5987354340\",\"revert_reason\":null,\"confirmation_duration\":[0,12000],\"transaction_burnt_fee\":\"98407327872000\",\"type\":2,\"token_transfers_overflow\":null,\"confirmations\":1,\"position\":204,\"max_priority_fee_per_gas\":\"100000000\",\"transaction_tag\":null,\"created_contract\":null,\"value\":\"28900000000000000\",\"from\":{\"ens_domain_name\":null,\"hash\":\"0x8216874887415e2650D12D53Ff53516F04a74FD7\",\"implementations\":[],\"is_contract\":false,\"is_scam\":false,\"is_verified\":false,\"metadata\":{\"tags\":[{\"meta\":{\"tooltipUrl\":\"https://www.moonpay.com/\"},\"name\":\"MoonPay: Withdrawals 1\",\"ordinal\":10,\"slug\":\"moonpay-withdrawals-1\",\"tagType\":\"name\"},{\"meta\":{},\"name\":\"MoonPay\",\"ordinal\":0,\"slug\":\"moonpay\",\"tagType\":\"protocol\"},{\"meta\":{\"alertStatus\":\"info\",\"data\":\"This address has been tagged based on hildobby compilation.\"},\"name\":\"note_0\",\"ordinal\":0,\"slug\":\"note0\",\"tagType\":\"note\"}]},\"name\":null,\"private_tags\":[],\"proxy_type\":null,\"public_tags\":[],\"watchlist_names\":[]},\"gas_used\":\"21000\",\"status\":\"ok\",\"to\":{\"ens_domain_name\":null,\"hash\":\"0x905DBAE02cE48f49c6b626E82A33E39BEC9Ba600\",\"implementations\":[],\"is_contract\":false,\"is_scam\":false,\"is_verified\":false,\"metadata\":null,\"name\":null,\"private_tags\":[],\"proxy_type\":null,\"public_tags\":[],\"watchlist_names\":[]},\"authorization_list\":[],\"method\":null,\"fee\":{\"type\":\"actual\",\"value\":\"100507327872000\"},\"actions\":[],\"gas_limit\":\"21000\",\"gas_price\":\"4786063232\",\"decoded_input\":null,\"token_transfers\":null,\"base_fee_per_gas\":\"4686063232\",\"timestamp\":\"2025-06-11T17:44:47.000000Z\",\"nonce\":1541713,\"historic_exchange_rate\":\"2798.08\",\"transaction_types\":[\"coin_transfer\"],\"exchange_rate\":\"2861.62\",\"block_number\":22682892,\"has_error_in_internal_transactions\":null},{\"priority_fee\":\"2730000000000\",\"raw_input\":\"0x\",\"result\":\"success\",\"hash\":\"0xc3bc79cf76d37493ab3b9403003997a5354d273f3a80427e015e3582196f515f\",\"max_fee_per_gas\":\"9500000000\",\"revert_reason\":null,\"confirmation_duration\":[0,12000],\"transaction_burnt_fee\":\"98407327872000\",\"type\":2,\"token_transfers_overflow\":null,\"confirmations\":1,\"position\":203,\"max_priority_fee_per_gas\":\"130000000\",\"transaction_tag\":null,\"created_contract\":null,\"value\":\"552935805119347000\",\"from\":{\"ens_domain_name\":null,\"hash\":\"0x3f3a26857b3bdE848927fAfCA975b2EE5Bcf1390\",\"implementations\":[],\"is_contract\":false,\"is_scam\":false,\"is_verified\":false,\"metadata\":null,\"name\":null,\"private_tags\":[],\"proxy_type\":null,\"public_tags\":[],\"watchlist_names\":[]},\"gas_used\":\"21000\",\"status\":\"ok\",\"to\":{\"ens_domain_name\":null,\"hash\":\"0x89638F76cdEca5317b6CcC1613ED1266A9037171\",\"implementations\":[],\"is_contract\":false,\"is_scam\":false,\"is_verified\":false,\"metadata\":null,\"name\":null,\"private_tags\":[],\"proxy_type\":null,\"public_tags\":[],\"watchlist_names\":[]},\"authorization_list\":[],\"method\":null,\"fee\":{\"type\":\"actual\",\"value\":\"101137327872000\"},\"actions\":[],\"gas_limit\":\"21000\",\"gas_price\":\"4816063232\",\"decoded_input\":null,\"token_transfers\":null,\"base_fee_per_gas\":\"4686063232\",\"timestamp\":\"2025-06-11T17:44:47.000000Z\",\"nonce\":166454,\"historic_exchange_rate\":\"2798.08\",\"transaction_types\":[\"coin_transfer\"],\"exchange_rate\":\"2861.62\",\"block_number\":22682892,\"has_error_in_internal_transactions\":null},{\"priority_fee\":\"3219448732400\",\"raw_input\":\"0xa9059cbb0000000000000000000000006af2e766f6f9d94a3abccbacf9ddf163e3fb6e1d0000000000000000000000000000000000000000000000000000007f3248edd7\",\"result\":\"success\",\"hash\":\"0xefa22cae8178c4b490a26a117d26456db36ab8abbe4b7c37486221cb1cc1b306\",\"max_fee_per_gas\":\"5991638506\",\"revert_reason\":null,\"confirmation_duration\":[0,12000],\"transaction_burnt_fee\":\"216125922323072\",\"type\":2,\"token_transfers_overflow\":null,\"confirmations\":1,\"position\":202,\"max_priority_fee_per_gas\":\"69804400\",\"transaction_tag\":null,\"created_contract\":null,\"value\":\"0\",\"from\":{\"ens_domain_name\":null,\"hash\":\"0xf8191D98ae98d2f7aBDFB63A9b0b812b93C873AA\",\"implementations\":[],\"is_contract\":false,\"is_scam\":false,\"is_verified\":false,\"metadata\":null,\"name\":null,\"private_tags\":[],\"proxy_type\":null,\"public_tags\":[],\"watchlist_names\":[]},\"gas_used\":\"46121\",\"status\":\"ok\",\"to\":{\"ens_domain_name\":null,\"hash\":\"0xdAC17F958D2ee523a2206206994597C13D831ec7\",\"implementations\":[],\"is_contract\":true,\"is_scam\":false,\"is_verified\":true,\"metadata\":{\"tags\":[{\"meta\":{},\"name\":\"Stablecoin\",\"ordinal\":0,\"slug\":\"stablecoin\",\"tagType\":\"generic\"},{\"meta\":{},\"name\":\"Tether\",\"ordinal\":0,\"slug\":\"tether\",\"tagType\":\"protocol\"},{\"meta\":{},\"name\":\"Token Contract\",\"ordinal\":0,\"slug\":\"token-contract\",\"tagType\":\"generic\"},{\"meta\":{\"tooltipDescription\":\"Tether gives you the joint benefits of open blockchain technology and traditional currency by converting your cash into a stable digital currency equivalent.\",\"tooltipUrl\":\"https://tether.to/\"},\"name\":\"Tether: USDT Stablecoin\",\"ordinal\":10,\"slug\":\"tether-usdt-stablecoin\",\"tagType\":\"name\"}]},\"name\":\"Tether\",\"private_tags\":[],\"proxy_type\":\"unknown\",\"public_tags\":[],\"watchlist_names\":[]},\"authorization_list\":[],\"method\":\"transfer\",\"fee\":{\"type\":\"actual\",\"value\":\"219345371055472\"},\"actions\":[],\"gas_limit\":\"84000\",\"gas_price\":\"4755867632\",\"decoded_input\":{\"method_call\":\"transfer(address _to, uint256 _value)\",\"method_id\":\"a9059cbb\",\"parameters\":[{\"name\":\"_to\",\"type\":\"address\",\"value\":\"0x6AF2e766f6f9d94a3ABCcbaCF9DDf163e3fB6E1D\"},{\"name\":\"_value\",\"type\":\"uint256\",\"value\":\"546304486871\"}]},\"token_transfers\":null,\"base_fee_per_gas\":\"4686063232\",\"timestamp\":\"2025-06-11T17:44:47.000000Z\",\"nonce\":15809,\"historic_exchange_rate\":\"2798.08\",\"transaction_types\":[\"contract_call\",\"token_transfer\"],\"exchange_rate\":\"2861.62\",\"block_number\":22682892,\"has_error_in_internal_transactions\":null},{\"priority_fee\":\"3420564120000\",\"raw_input\":\"0x095ea7b300000000000000000000000088ad09518695c6c3712ac10a214be5109a6556710000000000000000000000000000000000000000000000002777833fdbb4e000\",\"result\":\"success\",\"hash\":\"0x517d531c528bdf035f1ee73be8dc047f883471af05235d183a06edbc4b691ade\",\"max_fee_per_gas\":\"5400000000\",\"revert_reason\":null,\"confirmation_duration\":[0,12000],\"transaction_burnt_fee\":\"215849444592384\",\"type\":2,\"token_transfers_overflow\":null,\"confirmations\":1,\"position\":201,\"max_priority_fee_per_gas\":\"74260000\",\"transaction_tag\":null,\"created_contract\":null,\"value\":\"0\",\"from\":{\"ens_domain_name\":null,\"hash\":\"0xB0E79E0D48cbA54B79a6739e00bA6d4b944510d3\",\"implementations\":[],\"is_contract\":false,\"is_scam\":false,\"is_verified\":false,\"metadata\":null,\"name\":null,\"private_tags\":[],\"proxy_type\":null,\"public_tags\":[],\"watchlist_names\":[]},\"gas_used\":\"46062\",\"status\":\"ok\",\"to\":{\"ens_domain_name\":null,\"hash\":\"0x6810e776880C02933D47DB1b9fc05908e5386b96\",\"implementations\":[],\"is_contract\":true,\"is_scam\":false,\"is_verified\":true,\"metadata\":{\"tags\":[{\"meta\":{\"tooltipDescription\":\"Crowd Sourced Wisdom - The next generation blockchain network. Speculate on anything with an easy-to-use prediction market.\",\"tooltipUrl\":\"https://gnosis.pm/\"},\"name\":\"Gnosis: GNO Token\",\"ordinal\":10,\"slug\":\"gnosis-gno-token\",\"tagType\":\"name\"},{\"meta\":{},\"name\":\"Token Contract\",\"ordinal\":0,\"slug\":\"token-contract\",\"tagType\":\"generic\"},{\"meta\":{\"alertStatus\":\"info\",\"data\":\"The proposal to reduce the total supply of GNO to 3 million passed quorum.\"},\"name\":\"note_0\",\"ordinal\":0,\"slug\":\"note0\",\"tagType\":\"note\"},{\"meta\":{},\"name\":\"Gnosis\",\"ordinal\":0,\"slug\":\"gnosis\",\"tagType\":\"protocol\"}]},\"name\":\"Gnosis\",\"private_tags\":[],\"proxy_type\":\"unknown\",\"public_tags\":[],\"watchlist_names\":[]},\"authorization_list\":[],\"method\":\"approve\",\"fee\":{\"type\":\"actual\",\"value\":\"219270008712384\"},\"actions\":[],\"gas_limit\":\"69666\",\"gas_price\":\"4760323232\",\"decoded_input\":{\"method_call\":\"approve(address _spender, uint256 _value)\",\"method_id\":\"095ea7b3\",\"parameters\":[{\"name\":\"_spender\",\"type\":\"address\",\"value\":\"0x88ad09518695c6c3712AC10a214bE5109a655671\"},{\"name\":\"_value\",\"type\":\"uint256\",\"value\":\"2843886000000000000\"}]},\"token_transfers\":null,\"base_fee_per_gas\":\"4686063232\",\"timestamp\":\"2025-06-11T17:44:47.000000Z\",\"nonce\":0,\"historic_exchange_rate\":\"2798.08\",\"transaction_types\":[\"contract_call\"],\"exchange_rate\":\"2861.62\",\"block_number\":22682892,\"has_error_in_internal_transactions\":null},{\"priority_fee\":\"3737040000000\",\"raw_input\":\"0xa9059cbb000000000000000000000000a02208d5b3be1869aa4104122c74987d6a254a9b0000000000000000000000000000000000000000000000000000015db9778548\",\"result\":\"success\",\"hash\":\"0x02368067617bc0b30d145c390e05673f6ce91ae63a00016041a6682ccde5ba2e\",\"max_fee_per_gas\":\"5947354340\",\"revert_reason\":null,\"confirmation_duration\":[0,12000],\"transaction_burnt_fee\":\"291866762341888\",\"type\":2,\"token_transfers_overflow\":null,\"confirmations\":1,\"position\":200,\"max_priority_fee_per_gas\":\"60000000\",\"transaction_tag\":null,\"created_contract\":null,\"value\":\"0\",\"from\":{\"ens_domain_name\":null,\"hash\":\"0x66E092fD00c4E4eb5BD20F5392C1902d738aE7bC\",\"implementations\":[],\"is_contract\":false,\"is_scam\":false,\"is_verified\":false,\"metadata\":null,\"name\":null,\"private_tags\":[],\"proxy_type\":null,\"public_tags\":[],\"watchlist_names\":[]},\"gas_used\":\"62284\",\"status\":\"ok\",\"to\":{\"ens_domain_name\":null,\"hash\":\"0xA0b86991c6218b36c1d19D4a2e9Eb0cE3606eB48\",\"implementations\":[{\"address\":\"0x43506849D7C04F9138D1A2050bbF3A0c054402dd\",\"address_hash\":\"0x43506849D7C04F9138D1A2050bbF3A0c054402dd\",\"name\":\"FiatTokenV2_2\"}],\"is_contract\":true,\"is_scam\":false,\"is_verified\":true,\"metadata\":{\"tags\":[{\"meta\":{},\"name\":\"USDC\",\"ordinal\":0,\"slug\":\"usdc\",\"tagType\":\"generic\"},{\"meta\":{},\"name\":\"Circle\",\"ordinal\":0,\"slug\":\"circle\",\"tagType\":\"protocol\"},{\"meta\":{\"tooltipDescription\":\"USDC is a US dollar-backed stablecoin issued by Circle. USDC is designed to provide a faster, safer, and more efficient way to send, spend, and exchange money around the world.\",\"tooltipUrl\":\"https://www.circle.com/en/usdc\"},\"name\":\"Circle: USDC Token\",\"ordinal\":10,\"slug\":\"circle-usdc-token\",\"tagType\":\"name\"},{\"meta\":{},\"name\":\"Token Contract\",\"ordinal\":0,\"slug\":\"token-contract\",\"tagType\":\"generic\"},{\"meta\":{},\"name\":\"Stablecoin\",\"ordinal\":0,\"slug\":\"stablecoin\",\"tagType\":\"generic\"}]},\"name\":\"USDC\",\"private_tags\":[],\"proxy_type\":\"eip1967\",\"public_tags\":[],\"watchlist_names\":[]},\"authorization_list\":[],\"method\":\"transfer\",\"fee\":{\"type\":\"actual\",\"value\":\"295603802341888\"},\"actions\":[],\"gas_limit\":\"84000\",\"gas_price\":\"4746063232\",\"decoded_input\":{\"method_call\":\"transfer(address to, uint256 value)\",\"method_id\":\"a9059cbb\",\"parameters\":[{\"name\":\"to\",\"type\":\"address\",\"value\":\"0xa02208D5b3bE1869aa4104122c74987D6a254a9B\"},{\"name\":\"value\",\"type\":\"uint256\",\"value\":\"1502055204168\"}]},\"token_transfers\":null,\"base_fee_per_gas\":\"4686063232\",\"timestamp\":\"2025-06-11T17:44:47.000000Z\",\"nonce\":36097,\"historic_exchange_rate\":\"2798.08\",\"transaction_types\":[\"contract_call\",\"token_transfer\"],\"exchange_rate\":\"2861.62\",\"block_number\":22682892,\"has_error_in_internal_transactions\":null},{\"priority_fee\":\"3832484340000\",\"raw_input\":\"0x095ea7b3000000000000000000000000000000000022d473030f116ddee9f6b43ac78ba3ffffffffffffffffffffffffffffffffffffffffffffffffffffffffffffffff\",\"result\":\"success\",\"hash\":\"0x65a655674167c48d7ae600d769df67a61bfd4ac338f27042b7db71c920cf789c\",\"max_fee_per_gas\":\"5400000000\",\"revert_reason\":null,\"confirmation_duration\":[0,12000],\"transaction_burnt_fee\":\"241843037340288\",\"type\":2,\"token_transfers_overflow\":null,\"confirmations\":1,\"position\":199,\"max_priority_fee_per_gas\":\"74260000\",\"transaction_tag\":null,\"created_contract\":null,\"value\":\"0\",\"from\":{\"ens_domain_name\":null,\"hash\":\"0x01E1F955Aa0CF336989E498fC52eDa4AfdDABAB6\",\"implementations\":[],\"is_contract\":false,\"is_scam\":false,\"is_verified\":false,\"metadata\":null,\"name\":null,\"private_tags\":[],\"proxy_type\":null,\"public_tags\":[],\"watchlist_names\":[]},\"gas_used\":\"51609\",\"status\":\"ok\",\"to\":{\"ens_domain_name\":null,\"hash\":\"0x15700B564Ca08D9439C58cA5053166E8317aa138\",\"implementations\":[{\"address\":\"0x4c835B1374EcCa0c5963987fa3Ea2B8bE779Dc59\",\"address_hash\":\"0x4c835B1374EcCa0c5963987fa3Ea2B8bE779Dc59\",\"name\":\"deUSD\"}],\"is_contract\":true,\"is_scam\":false,\"is_verified\":true,\"metadata\":null,\"name\":\"ERC1967Proxy\",\"private_tags\":[],\"proxy_type\":\"eip1967\",\"public_tags\":[],\"watchlist_names\":[]},\"authorization_list\":[],\"method\":\"approve\",\"fee\":{\"type\":\"actual\",\"value\":\"245675521680288\"},\"actions\":[],\"gas_limit\":\"78003\",\"gas_price\":\"4760323232\",\"decoded_input\":{\"method_call\":\"approve(address spender, uint256 value)\",\"method_id\":\"095ea7b3\",\"parameters\":[{\"name\":\"spender\",\"type\":\"address\",\"value\":\"0x000000000022D473030F116dDEE9F6B43aC78BA3\"},{\"name\":\"value\",\"type\":\"uint256\",\"value\":\"115792089237316195423570985008687907853269984665640564039457584007913129639935\"}]},\"token_transfers\":null,\"base_fee_per_gas\":\"4686063232\",\"timestamp\":\"2025-06-11T17:44:47.000000Z\",\"nonce\":33,\"historic_exchange_rate\":\"2798.08\",\"transaction_types\":[\"contract_call\"],\"exchange_rate\":\"2861.62\",\"block_number\":22682892,\"has_error_in_internal_transactions\":null},{\"priority_fee\":\"4064400000000\",\"raw_input\":\"0xa9059cbb00000000000000000000000038654c7f4bced7aef97bc4010c0c8029248fdf0f0000000000000000000000000000000000000000000000000000000089dcd9e2\",\"result\":\"success\",\"hash\":\"0xdab207f89a8f857f77825e45f039a634ce4f50d2ba41e5d8cb9ea6677084cd4a\",\"max_fee_per_gas\":\"5470448312\",\"revert_reason\":null,\"confirmation_duration\":[0,12000],\"transaction_burnt_fee\":\"211622615557120\",\"type\":2,\"token_transfers_overflow\":null,\"confirmations\":1,\"position\":198,\"max_priority_fee_per_gas\":\"90000000\",\"transaction_tag\":null,\"created_contract\":null,\"value\":\"0\",\"from\":{\"ens_domain_name\":null,\"hash\":\"0xD34D928ee62A44dd21885a75b1A6596fD0F088A0\",\"implementations\":[],\"is_contract\":false,\"is_scam\":false,\"is_verified\":false,\"metadata\":null,\"name\":null,\"private_tags\":[],\"proxy_type\":null,\"public_tags\":[],\"watchlist_names\":[]},\"gas_used\":\"45160\",\"status\":\"ok\",\"to\":{\"ens_domain_name\":null,\"hash\":\"0xA0b86991c6218b36c1d19D4a2e9Eb0cE3606eB48\",\"implementations\":[{\"address\":\"0x43506849D7C04F9138D1A2050bbF3A0c054402dd\",\"address_hash\":\"0x43506849D7C04F9138D1A2050bbF3A0c054402dd\",\"name\":\"FiatTokenV2_2\"}],\"is_contract\":true,\"is_scam\":false,\"is_verified\":true,\"metadata\":{\"tags\":[{\"meta\":{},\"name\":\"USDC\",\"ordinal\":0,\"slug\":\"usdc\",\"tagType\":\"generic\"},{\"meta\":{},\"name\":\"Circle\",\"ordinal\":0,\"slug\":\"circle\",\"tagType\":\"protocol\"},{\"meta\":{\"tooltipDescription\":\"USDC is a US dollar-backed stablecoin issued by Circle. USDC is designed to provide a faster, safer, and more efficient way to send, spend, and exchange money around the world.\",\"tooltipUrl\":\"https://www.circle.com/en/usdc\"},\"name\":\"Circle: USDC Token\",\"ordinal\":10,\"slug\":\"circle-usdc-token\",\"tagType\":\"name\"},{\"meta\":{},\"name\":\"Token Contract\",\"ordinal\":0,\"slug\":\"token-contract\",\"tagType\":\"generic\"},{\"meta\":{},\"name\":\"Stablecoin\",\"ordinal\":0,\"slug\":\"stablecoin\",\"tagType\":\"generic\"}]},\"name\":\"USDC\",\"private_tags\":[],\"proxy_type\":\"eip1967\",\"public_tags\":[],\"watchlist_names\":[]},\"authorization_list\":[],\"method\":\"transfer\",\"fee\":{\"type\":\"actual\",\"value\":\"215687015557120\"},\"actions\":[],\"gas_limit\":\"58986\",\"gas_price\":\"4776063232\",\"decoded_input\":{\"method_call\":\"transfer(address to, uint256 value)\",\"method_id\":\"a9059cbb\",\"parameters\":[{\"name\":\"to\",\"type\":\"address\",\"value\":\"0x38654C7F4bCeD7AEF97BC4010C0c8029248fDf0F\"},{\"name\":\"value\",\"type\":\"uint256\",\"value\":\"2312952290\"}]},\"token_transfers\":null,\"base_fee_per_gas\":\"4686063232\",\"timestamp\":\"2025-06-11T17:44:47.000000Z\",\"nonce\":22515,\"historic_exchange_rate\":\"2798.08\",\"transaction_types\":[\"contract_call\",\"token_transfer\"],\"exchange_rate\":\"2861.62\",\"block_number\":22682892,\"has_error_in_internal_transactions\":null},{\"priority_fee\":\"20370000000000\",\"raw_input\":\"0x\",\"result\":\"success\",\"hash\":\"0xaab089f9540611a529cab8bfbc2b37fa5de7bdd6711aea79bfe6ae0f2f94da15\",\"max_fee_per_gas\":\"7700000000\",\"revert_reason\":null,\"confirmation_duration\":[0,12000],\"transaction_burnt_fee\":\"98407327872000\",\"type\":2,\"token_transfers_overflow\":null,\"confirmations\":1,\"position\":197,\"max_priority_fee_per_gas\":\"970000000\",\"transaction_tag\":null,\"created_contract\":null,\"value\":\"2000000000000000\",\"from\":{\"ens_domain_name\":\"therealslimkong.eth\",\"hash\":\"0xA2b2F10A3C542FEd3a53654cca97D34f628f55e3\",\"implementations\":[],\"is_contract\":false,\"is_scam\":false,\"is_verified\":false,\"metadata\":null,\"name\":null,\"private_tags\":[],\"proxy_type\":null,\"public_tags\":[],\"watchlist_names\":[]},\"gas_used\":\"21000\",\"status\":\"ok\",\"to\":{\"ens_domain_name\":null,\"hash\":\"0x575c6086AfED2A0244E2B445D4241c3CDb40a1AD\",\"implementations\":[],\"is_contract\":false,\"is_scam\":false,\"is_verified\":false,\"metadata\":null,\"name\":null,\"private_tags\":[],\"proxy_type\":null,\"public_tags\":[],\"watchlist_names\":[]},\"authorization_list\":[],\"method\":null,\"fee\":{\"type\":\"actual\",\"value\":\"118777327872000\"},\"actions\":[],\"gas_limit\":\"21000\",\"gas_price\":\"5656063232\",\"decoded_input\":null,\"token_transfers\":null,\"base_fee_per_gas\":\"4686063232\",\"timestamp\":\"2025-06-11T17:44:47.000000Z\",\"nonce\":1434,\"historic_exchange_rate\":\"2798.08\",\"transaction_types\":[\"coin_transfer\"],\"exchange_rate\":\"2861.62\",\"block_number\":22682892,\"has_error_in_internal_transactions\":null},{\"priority_fee\":\"20370000000000\",\"raw_input\":\"0x\",\"result\":\"success\",\"hash\":\"0x0426912b76a34d285d6177b66258ab7eeae5ddc45446c90f40a24e03c83a965e\",\"max_fee_per_gas\":\"7700000000\",\"revert_reason\":null,\"confirmation_duration\":[0,12000],\"transaction_burnt_fee\":\"98407327872000\",\"type\":2,\"token_transfers_overflow\":null,\"confirmations\":1,\"position\":196,\"max_priority_fee_per_gas\":\"970000000\",\"transaction_tag\":null,\"created_contract\":null,\"value\":\"1000000000000000\",\"from\":{\"ens_domain_name\":null,\"hash\":\"0x85E10f8f8421eb94d7Ad378c8745A6B3E1Bd33d1\",\"implementations\":[],\"is_contract\":false,\"is_scam\":false,\"is_verified\":false,\"metadata\":null,\"name\":null,\"private_tags\":[],\"proxy_type\":null,\"public_tags\":[],\"watchlist_names\":[]},\"gas_used\":\"21000\",\"status\":\"ok\",\"to\":{\"ens_domain_name\":null,\"hash\":\"0x10cC07db15a7987E709BBe939F82C7DBD8438722\",\"implementations\":[],\"is_contract\":false,\"is_scam\":false,\"is_verified\":false,\"metadata\":{\"tags\":[{\"meta\":{\"tooltipDescription\":\"This address is reported to be a deposit address for Binance.\",\"tooltipUrl\":\"https://www.binance.com/\"},\"name\":\"Binance Dep: 0x10cC07db15a7987E709BBe939F82C7DBD8438722\",\"ordinal\":0,\"slug\":\"binance-dep-0x10cc07db15a7987e709bbe939f82c7dbd8438722\",\"tagType\":\"name\"},{\"meta\":{},\"name\":\"DEPOSIT ADDRESS\",\"ordinal\":0,\"slug\":\"deposit-address\",\"tagType\":\"generic\"},{\"meta\":{},\"name\":\"Binance Dep\",\"ordinal\":0,\"slug\":\"binance-dep\",\"tagType\":\"protocol\"}]},\"name\":null,\"private_tags\":[],\"proxy_type\":null,\"public_tags\":[],\"watchlist_names\":[]},\"authorization_list\":[],\"method\":null,\"fee\":{\"type\":\"actual\",\"value\":\"118777327872000\"},\"actions\":[],\"gas_limit\":\"21000\",\"gas_price\":\"5656063232\",\"decoded_input\":null,\"token_transfers\":null,\"base_fee_per_gas\":\"4686063232\",\"timestamp\":\"2025-06-11T17:44:47.000000Z\",\"nonce\":22,\"historic_exchange_rate\":\"2798.08\",\"transaction_types\":[\"coin_transfer\"],\"exchange_rate\":\"2861.62\",\"block_number\":22682892,\"has_error_in_internal_transactions\":null},{\"priority_fee\":\"128601302611608\",\"raw_input\":\"0x6e305f80000000000000000000000000000000000000000000000000000000000000008000000000000000000000000000000000000000000000000000000000000000e00000000000000000000000000000000000000000000000000000000000000640000000000000000000000000000000000000000000000000000000000000000100000000000000000000000000000000000000000000000000000000000000020000000000000000000000000000000000001ff3684f28c67538d4d072c22734000000000000000000000000eeeeee9ec4769a09a76a83c7bc42b185872860ee0000000000000000000000000000000000000000000000000000000000000002000000000000000000000000000000000000000000000000000000000000004000000000000000000000000000000000000000000000000000000000000004c000000000000000000000000000000000000000000000000000000000000004442213bc0b0000000000000000000000005418226af9c8d5d287a78fbbbcd337b86ec07d610000000000000000000000000000000000000000000000000000000000000000000000000000000000000000000000000000000000000000001550f7dca700000000000000000000000000005418226af9c8d5d287a78fbbbcd337b86ec07d6100000000000000000000000000000000000000000000000000000000000000a000000000000000000000000000000000000000000000000000000000000003641fff991f00000000000000000000000000000000000000000000000000000000000000000000000000000000000000000000000000000000000000000000000000000000000000000000000000000000000000000000000000000000000000000000000000000000000000000000000000000000000000000000000000000000000000a09d8d9e9b3902dbabf4f03c880af43c0000000000000000000000000000000000000000000000000000000000000000000000000000000000000000000000000200000000000000000000000000000000000000000000000000000000000000400000000000000000000000000000000000000000000000000000000000000180000000000000000000000000000000000000000000000000000000000000010438c9c147000000000000000000000000eeeeeeeeeeeeeeeeeeeeeeeeeeeeeeeeeeeeeeee0000000000000000000000000000000000000000000000000000000000002710000000000000000000000000c02aaa39b223fe8d0a0e5c4f27ead9083c756cc2000000000000000000000000000000000000000000000000000000000000000400000000000000000000000000000000000000000000000000000000000000a00000000000000000000000000000000000000000000000000000000000000024d0e30db00000000000000000000000000000000000000000000000000000000000000000000000000000000000000000000000000000000000000000000000000000000000000000000000000000000000000000000000000000000000000000000000000000000000000000000000000000000000000000000000e48d68a156000000000000000000000000eeeeee9ec4769a09a76a83c7bc42b185872860ee0000000000000000000000000000000000000000000000000000000000002710000000000000000000000000000000000000000000000000000000000000008000000000000000000000000000000000000000000000001e1739516a5a3729b2000000000000000000000000000000000000000000000000000000000000002cc02aaa39b223fe8d0a0e5c4f27ead9083c756cc2000027104dc26fc5854e7648a064a4abd590bbe71724c277000000000000000000000000000000000000000000000000000000000000000000000000000000000000000000000000000000000000000000000000000000000000000000000000000000000000000000000000000000000000000000000000000000000000000000000000000000000000000000000000000000000000000000000000000000443dad0c9c0000000000000000000000004dc26fc5854e7648a064a4abd590bbe71724c277000000000000000000000000f70da97812cb96acdf810712aa562db8dfa3dbef000000000000000000000000000000000000000000000000000000000000000000000000000000000000000000000000000000000000000000000002000000000000000000000000000000000000000000000000001550f7dca700000000000000000000000000000000000000000000000000000000000000000000\",\"result\":\"success\",\"hash\":\"0x555c83d28ea34e7719b94dfabcc949ab82f851f28f4544a9a22ce6bde538a83c\",\"max_fee_per_gas\":\"5845016640\",\"revert_reason\":null,\"confirmation_duration\":[0,12000],\"transaction_burnt_fee\":\"720594687437568\",\"type\":2,\"token_transfers_overflow\":null,\"confirmations\":1,\"position\":195,\"max_priority_fee_per_gas\":\"836300692\",\"transaction_tag\":null,\"created_contract\":null,\"value\":\"6000000000000000\",\"from\":{\"ens_domain_name\":null,\"hash\":\"0xf70da97812CB96acDF810712Aa562db8dfA3dbEF\",\"implementations\":[],\"is_contract\":false,\"is_scam\":false,\"is_verified\":false,\"metadata\":null,\"name\":null,\"private_tags\":[],\"proxy_type\":null,\"public_tags\":[],\"watchlist_names\":[]},\"gas_used\":\"153774\",\"status\":\"ok\",\"to\":{\"ens_domain_name\":null,\"hash\":\"0xeeeeee9eC4769A09a76A83C7bC42b185872860eE\",\"implementations\":[],\"is_contract\":true,\"is_scam\":false,\"is_verified\":true,\"metadata\":null,\"name\":\"ERC20Router\",\"private_tags\":[],\"proxy_type\":\"unknown\",\"public_tags\":[],\"watchlist_names\":[]},\"authorization_list\":[],\"method\":\"delegatecallMulticall\",\"fee\":{\"type\":\"actual\",\"value\":\"849195990049176\"},\"actions\":[],\"gas_limit\":\"232288\",\"gas_price\":\"5522363924\",\"decoded_input\":{\"method_call\":\"delegatecallMulticall(address[] targets, bytes[] datas, uint256[] values, address refundTo)\",\"method_id\":\"6e305f80\",\"parameters\":[{\"name\":\"targets\",\"type\":\"address[]\",\"value\":[\"0x0000000000001fF3684f28c67538d4D072C22734\",\"0xeeeeee9eC4769A09a76A83C7bC42b185872860eE\"]},{\"name\":\"datas\",\"type\":\"bytes[]\",\"value\":[\"0x2213bc0b0000000000000000000000005418226af9c8d5d287a78fbbbcd337b86ec07d610000000000000000000000000000000000000000000000000000000000000000000000000000000000000000000000000000000000000000001550f7dca700000000000000000000000000005418226af9c8d5d287a78fbbbcd337b86ec07d6100000000000000000000000000000000000000000000000000000000000000a000000000000000000000000000000000000000000000000000000000000003641fff991f00000000000000000000000000000000000000000000000000000000000000000000000000000000000000000000000000000000000000000000000000000000000000000000000000000000000000000000000000000000000000000000000000000000000000000000000000000000000000000000000000000000000000a09d8d9e9b3902dbabf4f03c880af43c0000000000000000000000000000000000000000000000000000000000000000000000000000000000000000000000000200000000000000000000000000000000000000000000000000000000000000400000000000000000000000000000000000000000000000000000000000000180000000000000000000000000000000000000000000000000000000000000010438c9c147000000000000000000000000eeeeeeeeeeeeeeeeeeeeeeeeeeeeeeeeeeeeeeee0000000000000000000000000000000000000000000000000000000000002710000000000000000000000000c02aaa39b223fe8d0a0e5c4f27ead9083c756cc2000000000000000000000000000000000000000000000000000000000000000400000000000000000000000000000000000000000000000000000000000000a00000000000000000000000000000000000000000000000000000000000000024d0e30db00000000000000000000000000000000000000000000000000000000000000000000000000000000000000000000000000000000000000000000000000000000000000000000000000000000000000000000000000000000000000000000000000000000000000000000000000000000000000000000000e48d68a156000000000000000000000000eeeeee9ec4769a09a76a83c7bc42b185872860ee0000000000000000000000000000000000000000000000000000000000002710000000000000000000000000000000000000000000000000000000000000008000000000000000000000000000000000000000000000001e1739516a5a3729b2000000000000000000000000000000000000000000000000000000000000002cc02aaa39b223fe8d0a0e5c4f27ead9083c756cc2000027104dc26fc5854e7648a064a4abd590bbe71724c27700000000000000000000000000000000000000000000000000000000000000000000000000000000000000000000000000000000000000000000000000000000000000000000000000000000\",\"0x3dad0c9c0000000000000000000000004dc26fc5854e7648a064a4abd590bbe71724c277000000000000000000000000f70da97812cb96acdf810712aa562db8dfa3dbef\"]},{\"name\":\"values\",\"type\":\"uint256[]\",\"value\":[\"6000000000000000\",\"0\"]},{\"name\":\"refundTo\",\"type\":\"address\",\"value\":\"0x0000000000000000000000000000000000000001\"}]},\"token_transfers\":null,\"base_fee_per_gas\":\"4686063232\",\"timestamp\":\"2025-06-11T17:44:47.000000Z\",\"nonce\":2504633,\"historic_exchange_rate\":\"2798.08\",\"transaction_types\":[\"coin_transfer\",\"contract_call\",\"token_transfer\"],\"exchange_rate\":\"2861.62\",\"block_number\":22682892,\"has_error_in_internal_transactions\":null},{\"priority_fee\":\"20476223187000\",\"raw_input\":\"0x\",\"result\":\"success\",\"hash\":\"0x3194fbd4617dcbf0c16a9829e058f039409ef87d669ed50aa22ed5f9a7dae02f\",\"max_fee_per_gas\":\"6922226529\",\"revert_reason\":null,\"confirmation_duration\":[0,12000],\"transaction_burnt_fee\":\"98407327872000\",\"type\":2,\"token_transfers_overflow\":null,\"confirmations\":1,\"position\":194,\"max_priority_fee_per_gas\":\"975058247\",\"transaction_tag\":null,\"created_contract\":null,\"value\":\"4000000000000000000\",\"from\":{\"ens_domain_name\":null,\"hash\":\"0xee8bD4fACBEfD42DE0cd53e847030C005435A282\",\"implementations\":[],\"is_contract\":false,\"is_scam\":false,\"is_verified\":false,\"metadata\":null,\"name\":null,\"private_tags\":[],\"proxy_type\":null,\"public_tags\":[],\"watchlist_names\":[]},\"gas_used\":\"21000\",\"status\":\"ok\",\"to\":{\"ens_domain_name\":null,\"hash\":\"0x41d0e7eeA9b8D4dd08b583b40814D425E982760e\",\"implementations\":[],\"is_contract\":false,\"is_scam\":false,\"is_verified\":false,\"metadata\":null,\"name\":null,\"private_tags\":[],\"proxy_type\":null,\"public_tags\":[],\"watchlist_names\":[]},\"authorization_list\":[],\"method\":null,\"fee\":{\"type\":\"actual\",\"value\":\"118883551059000\"},\"actions\":[],\"gas_limit\":\"21000\",\"gas_price\":\"5661121479\",\"decoded_input\":null,\"token_transfers\":null,\"base_fee_per_gas\":\"4686063232\",\"timestamp\":\"2025-06-11T17:44:47.000000Z\",\"nonce\":22,\"historic_exchange_rate\":\"2798.08\",\"transaction_types\":[\"coin_transfer\"],\"exchange_rate\":\"2861.62\",\"block_number\":22682892,\"has_error_in_internal_transactions\":null},{\"priority_fee\":\"20476223187000\",\"raw_input\":\"0x\",\"result\":\"success\",\"hash\":\"0xff15def60c7074c0f0b2b8252cb9405a06e0f4035d7b8e58b3440c982744a1d6\",\"max_fee_per_gas\":\"6922226529\",\"revert_reason\":null,\"confirmation_duration\":[0,12000],\"transaction_burnt_fee\":\"98407327872000\",\"type\":2,\"token_transfers_overflow\":null,\"confirmations\":1,\"position\":193,\"max_priority_fee_per_gas\":\"975058247\",\"transaction_tag\":null,\"created_contract\":null,\"value\":\"705436800000000000\",\"from\":{\"ens_domain_name\":null,\"hash\":\"0x8dd9edE3BE2eb08DE4c99625eFba571ADBA1cAa2\",\"implementations\":[],\"is_contract\":false,\"is_scam\":false,\"is_verified\":false,\"metadata\":null,\"name\":null,\"private_tags\":[],\"proxy_type\":null,\"public_tags\":[],\"watchlist_names\":[]},\"gas_used\":\"21000\",\"status\":\"ok\",\"to\":{\"ens_domain_name\":null,\"hash\":\"0x9C8E135a259fd04B047576889CAaDcAddf54F47f\",\"implementations\":[],\"is_contract\":false,\"is_scam\":false,\"is_verified\":false,\"metadata\":null,\"name\":null,\"private_tags\":[],\"proxy_type\":null,\"public_tags\":[],\"watchlist_names\":[]},\"authorization_list\":[],\"method\":null,\"fee\":{\"type\":\"actual\",\"value\":\"118883551059000\"},\"actions\":[],\"gas_limit\":\"21000\",\"gas_price\":\"5661121479\",\"decoded_input\":null,\"token_transfers\":null,\"base_fee_per_gas\":\"4686063232\",\"timestamp\":\"2025-06-11T17:44:47.000000Z\",\"nonce\":0,\"historic_exchange_rate\":\"2798.08\",\"transaction_types\":[\"coin_transfer\"],\"exchange_rate\":\"2861.62\",\"block_number\":22682892,\"has_error_in_internal_transactions\":null},{\"priority_fee\":\"20476223187000\",\"raw_input\":\"0x\",\"result\":\"success\",\"hash\":\"0x9e43405fc27ffab78d1a5ccf6c13a54b99413c6063cf51760848c6ab71125a55\",\"max_fee_per_gas\":\"6922226529\",\"revert_reason\":null,\"confirmation_duration\":[0,12000],\"transaction_burnt_fee\":\"98407327872000\",\"type\":2,\"token_transfers_overflow\":null,\"confirmations\":1,\"position\":192,\"max_priority_fee_per_gas\":\"975058247\",\"transaction_tag\":null,\"created_contract\":null,\"value\":\"226000000000000000\",\"from\":{\"ens_domain_name\":null,\"hash\":\"0xd331D84B5D9C4ac0E86311b185673fa69f29D1d3\",\"implementations\":[],\"is_contract\":false,\"is_scam\":false,\"is_verified\":false,\"metadata\":null,\"name\":null,\"private_tags\":[],\"proxy_type\":null,\"public_tags\":[],\"watchlist_names\":[]},\"gas_used\":\"21000\",\"status\":\"ok\",\"to\":{\"ens_domain_name\":null,\"hash\":\"0xCC139789A4D0f4a4D009b5b34B082eFffcFe9397\",\"implementations\":[],\"is_contract\":false,\"is_scam\":false,\"is_verified\":false,\"metadata\":null,\"name\":null,\"private_tags\":[],\"proxy_type\":null,\"public_tags\":[],\"watchlist_names\":[]},\"authorization_list\":[],\"method\":null,\"fee\":{\"type\":\"actual\",\"value\":\"118883551059000\"},\"actions\":[],\"gas_limit\":\"21000\",\"gas_price\":\"5661121479\",\"decoded_input\":null,\"token_transfers\":null,\"base_fee_per_gas\":\"4686063232\",\"timestamp\":\"2025-06-11T17:44:47.000000Z\",\"nonce\":580,\"historic_exchange_rate\":\"2798.08\",\"transaction_types\":[\"coin_transfer\"],\"exchange_rate\":\"2861.62\",\"block_number\":22682892,\"has_error_in_internal_transactions\":null},{\"priority_fee\":\"4125737080000\",\"raw_input\":\"0x095ea7b3000000000000000000000000111111125421ca6dc452d289314280a0f8842a650000000000000000000000000000000000000000000000000000000005f5e100\",\"result\":\"success\",\"hash\":\"0xced5530e9f53461425510950e01e2d32a5a218dd21022bd5c7e3d9ea602efae1\",\"max_fee_per_gas\":\"5400000000\",\"revert_reason\":null,\"confirmation_duration\":[0,12000],\"transaction_burnt_fee\":\"260348301043456\",\"type\":2,\"token_transfers_overflow\":null,\"confirmations\":1,\"position\":191,\"max_priority_fee_per_gas\":\"74260000\",\"transaction_tag\":null,\"created_contract\":null,\"value\":\"0\",\"from\":{\"ens_domain_name\":null,\"hash\":\"0x5aA4C03256797fCe1d1e67d36ED1e69Bf1fDd3c8\",\"implementations\":[],\"is_contract\":false,\"is_scam\":false,\"is_verified\":false,\"metadata\":null,\"name\":null,\"private_tags\":[],\"proxy_type\":null,\"public_tags\":[],\"watchlist_names\":[]},\"gas_used\":\"55558\",\"status\":\"ok\",\"to\":{\"ens_domain_name\":null,\"hash\":\"0xA0b86991c6218b36c1d19D4a2e9Eb0cE3606eB48\",\"implementations\":[{\"address\":\"0x43506849D7C04F9138D1A2050bbF3A0c054402dd\",\"address_hash\":\"0x43506849D7C04F9138D1A2050bbF3A0c054402dd\",\"name\":\"FiatTokenV2_2\"}],\"is_contract\":true,\"is_scam\":false,\"is_verified\":true,\"metadata\":{\"tags\":[{\"meta\":{},\"name\":\"USDC\",\"ordinal\":0,\"slug\":\"usdc\",\"tagType\":\"generic\"},{\"meta\":{},\"name\":\"Circle\",\"ordinal\":0,\"slug\":\"circle\",\"tagType\":\"protocol\"},{\"meta\":{\"tooltipDescription\":\"USDC is a US dollar-backed stablecoin issued by Circle. USDC is designed to provide a faster, safer, and more efficient way to send, spend, and exchange money around the world.\",\"tooltipUrl\":\"https://www.circle.com/en/usdc\"},\"name\":\"Circle: USDC Token\",\"ordinal\":10,\"slug\":\"circle-usdc-token\",\"tagType\":\"name\"},{\"meta\":{},\"name\":\"Token Contract\",\"ordinal\":0,\"slug\":\"token-contract\",\"tagType\":\"generic\"},{\"meta\":{},\"name\":\"Stablecoin\",\"ordinal\":0,\"slug\":\"stablecoin\",\"tagType\":\"generic\"}]},\"name\":\"USDC\",\"private_tags\":[],\"proxy_type\":\"eip1967\",\"public_tags\":[],\"watchlist_names\":[]},\"authorization_list\":[],\"method\":\"approve\",\"fee\":{\"type\":\"actual\",\"value\":\"264474038123456\"},\"actions\":[],\"gas_limit\":\"84542\",\"gas_price\":\"4760323232\",\"decoded_input\":{\"method_call\":\"approve(address spender, uint256 value)\",\"method_id\":\"095ea7b3\",\"parameters\":[{\"name\":\"spender\",\"type\":\"address\",\"value\":\"0x111111125421cA6dc452d289314280a0f8842A65\"},{\"name\":\"value\",\"type\":\"uint256\",\"value\":\"100000000\"}]},\"token_transfers\":null,\"base_fee_per_gas\":\"4686063232\",\"timestamp\":\"2025-06-11T17:44:47.000000Z\",\"nonce\":46,\"historic_exchange_rate\":\"2798.08\",\"transaction_types\":[\"contract_call\"],\"exchange_rate\":\"2861.62\",\"block_number\":22682892,\"has_error_in_internal_transactions\":null},{\"priority_fee\":\"21000000000000\",\"raw_input\":\"0x\",\"result\":\"success\",\"hash\":\"0x6f4786e8c830787cbf9d97e294c9fc76c3490f9a58acd4956fa58777a2482ad0\",\"max_fee_per_gas\":\"6235196590\",\"revert_reason\":null,\"confirmation_duration\":[0,12000],\"transaction_burnt_fee\":\"98407327872000\",\"type\":2,\"token_transfers_overflow\":null,\"confirmations\":1,\"position\":190,\"max_priority_fee_per_gas\":\"1000000000\",\"transaction_tag\":null,\"created_contract\":null,\"value\":\"50000000000000000\",\"from\":{\"ens_domain_name\":null,\"hash\":\"0x0Bd4f7A07b4EBfF59c1bCC72F52D3d02aBB6119e\",\"implementations\":[],\"is_contract\":false,\"is_scam\":false,\"is_verified\":false,\"metadata\":null,\"name\":null,\"private_tags\":[],\"proxy_type\":null,\"public_tags\":[],\"watchlist_names\":[]},\"gas_used\":\"21000\",\"status\":\"ok\",\"to\":{\"ens_domain_name\":null,\"hash\":\"0xBcCDeAbf88690104aAd600211c59Cb06a7D65079\",\"implementations\":[],\"is_contract\":false,\"is_scam\":false,\"is_verified\":false,\"metadata\":null,\"name\":null,\"private_tags\":[],\"proxy_type\":null,\"public_tags\":[],\"watchlist_names\":[]},\"authorization_list\":[],\"method\":null,\"fee\":{\"type\":\"actual\",\"value\":\"119407327872000\"},\"actions\":[],\"gas_limit\":\"21000\",\"gas_price\":\"5686063232\",\"decoded_input\":null,\"token_transfers\":null,\"base_fee_per_gas\":\"4686063232\",\"timestamp\":\"2025-06-11T17:44:47.000000Z\",\"nonce\":377,\"historic_exchange_rate\":\"2798.08\",\"transaction_types\":[\"coin_transfer\"],\"exchange_rate\":\"2861.62\",\"block_number\":22682892,\"has_error_in_internal_transactions\":null},{\"priority_fee\":\"21000000000000\",\"raw_input\":\"0x\",\"result\":\"success\",\"hash\":\"0xf6f0ba40694594b438f193e860dd36b3cb2029615c9582fca7a3b19bf9512527\",\"max_fee_per_gas\":\"6754490172\",\"revert_reason\":null,\"confirmation_duration\":[0,12000],\"transaction_burnt_fee\":\"98407327872000\",\"type\":2,\"token_transfers_overflow\":null,\"confirmations\":1,\"position\":189,\"max_priority_fee_per_gas\":\"1000000000\",\"transaction_tag\":null,\"created_contract\":null,\"value\":\"2593228675194690\",\"from\":{\"ens_domain_name\":null,\"hash\":\"0x55C858CDb24D07E1d52fE10D16cd43Be6E1CF266\",\"implementations\":[],\"is_contract\":false,\"is_scam\":false,\"is_verified\":false,\"metadata\":null,\"name\":null,\"private_tags\":[],\"proxy_type\":null,\"public_tags\":[],\"watchlist_names\":[]},\"gas_used\":\"21000\",\"status\":\"ok\",\"to\":{\"ens_domain_name\":null,\"hash\":\"0x9e2a30Fb7e78e143Dda8D09864c6F27dF5F27be2\",\"implementations\":[],\"is_contract\":false,\"is_scam\":false,\"is_verified\":false,\"metadata\":null,\"name\":null,\"private_tags\":[],\"proxy_type\":null,\"public_tags\":[],\"watchlist_names\":[]},\"authorization_list\":[],\"method\":null,\"fee\":{\"type\":\"actual\",\"value\":\"119407327872000\"},\"actions\":[],\"gas_limit\":\"21000\",\"gas_price\":\"5686063232\",\"decoded_input\":null,\"token_transfers\":null,\"base_fee_per_gas\":\"4686063232\",\"timestamp\":\"2025-06-11T17:44:47.000000Z\",\"nonce\":31,\"historic_exchange_rate\":\"2798.08\",\"transaction_types\":[\"coin_transfer\"],\"exchange_rate\":\"2861.62\",\"block_number\":22682892,\"has_error_in_internal_transactions\":null},{\"priority_fee\":\"21000000000000\",\"raw_input\":\"0x\",\"result\":\"success\",\"hash\":\"0xc89380b4eba1be979de7151c336c4dadf257558be33a598fdad1ad41ed9c1e84\",\"max_fee_per_gas\":\"6754490172\",\"revert_reason\":null,\"confirmation_duration\":[0,12000],\"transaction_burnt_fee\":\"98407327872000\",\"type\":2,\"token_transfers_overflow\":null,\"confirmations\":1,\"position\":188,\"max_priority_fee_per_gas\":\"1000000000\",\"transaction_tag\":null,\"created_contract\":null,\"value\":\"100000000000000000\",\"from\":{\"ens_domain_name\":null,\"hash\":\"0xA3f72001353B6584C5E4904f00f485663C291C6F\",\"implementations\":[],\"is_contract\":false,\"is_scam\":false,\"is_verified\":false,\"metadata\":null,\"name\":null,\"private_tags\":[],\"proxy_type\":null,\"public_tags\":[],\"watchlist_names\":[]},\"gas_used\":\"21000\",\"status\":\"ok\",\"to\":{\"ens_domain_name\":null,\"hash\":\"0x67D574c5899A4fB5234d5F5C963F7b7932fd01F3\",\"implementations\":[],\"is_contract\":false,\"is_scam\":false,\"is_verified\":false,\"metadata\":null,\"name\":null,\"private_tags\":[],\"proxy_type\":null,\"public_tags\":[],\"watchlist_names\":[]},\"authorization_list\":[],\"method\":null,\"fee\":{\"type\":\"actual\",\"value\":\"119407327872000\"},\"actions\":[],\"gas_limit\":\"21000\",\"gas_price\":\"5686063232\",\"decoded_input\":null,\"token_transfers\":null,\"base_fee_per_gas\":\"4686063232\",\"timestamp\":\"2025-06-11T17:44:47.000000Z\",\"nonce\":25,\"historic_exchange_rate\":\"2798.08\",\"transaction_types\":[\"coin_transfer\"],\"exchange_rate\":\"2861.62\",\"block_number\":22682892,\"has_error_in_internal_transactions\":null},{\"priority_fee\":\"21000000000000\",\"raw_input\":\"0x\",\"result\":\"success\",\"hash\":\"0xf4c5675016c5fae7b601feffa955bcc1698391dd7367ba254ab76e8ecf795daa\",\"max_fee_per_gas\":\"6629695255\",\"revert_reason\":null,\"confirmation_duration\":[0,12000],\"transaction_burnt_fee\":\"98407327872000\",\"type\":2,\"token_transfers_overflow\":null,\"confirmations\":1,\"position\":187,\"max_priority_fee_per_gas\":\"1000000000\",\"transaction_tag\":null,\"created_contract\":null,\"value\":\"2092712853642769\",\"from\":{\"ens_domain_name\":null,\"hash\":\"0x31Dc00351fD27b58e530f51C80c0C066332b66f4\",\"implementations\":[],\"is_contract\":false,\"is_scam\":false,\"is_verified\":false,\"metadata\":null,\"name\":null,\"private_tags\":[],\"proxy_type\":null,\"public_tags\":[],\"watchlist_names\":[]},\"gas_used\":\"21000\",\"status\":\"ok\",\"to\":{\"ens_domain_name\":null,\"hash\":\"0x583d78eDcF41EeDB10c25E0B3d2D5FBdF7bA9E38\",\"implementations\":[],\"is_contract\":false,\"is_scam\":false,\"is_verified\":false,\"metadata\":null,\"name\":null,\"private_tags\":[],\"proxy_type\":null,\"public_tags\":[],\"watchlist_names\":[]},\"authorization_list\":[],\"method\":null,\"fee\":{\"type\":\"actual\",\"value\":\"119407327872000\"},\"actions\":[],\"gas_limit\":\"21000\",\"gas_price\":\"5686063232\",\"decoded_input\":null,\"token_transfers\":null,\"base_fee_per_gas\":\"4686063232\",\"timestamp\":\"2025-06-11T17:44:47.000000Z\",\"nonce\":20,\"historic_exchange_rate\":\"2798.08\",\"transaction_types\":[\"coin_transfer\"],\"exchange_rate\":\"2861.62\",\"block_number\":22682892,\"has_error_in_internal_transactions\":null}],\"next_page_params\":{\"block_number\":22682892,\"index\":187,\"items_count\":50}}",
    "headers": {
      "Content-Type": "application/json"
    }
  }
}