{
  "request": {
    "method": "GET",
    "urlPath": "/api/v2/transactions/0xf7d09142363203b4c572bac2be3599de91260eb6131b57663832490e7eeaf213"
  },
  "response": {
    "status": 200,
    "body": "{\"priority_fee\":null,\"tx_burnt_fee\":null,\"raw_input\":\"0xa9059cbb000000000000000000000000873746be76f65f8be0a3a8f91be1b7dd25e5e7d90000000000000000000000000000000000000000000000000000681889c6a200\",\"result\":\"success\",\"hash\":\"0xf7d09142363203b4c572bac2be3599de91260eb6131b57663832490e7eeaf213\",\"max_fee_per_gas\":null,\"revert_reason\":null,\"confirmation_duration\":[0,12000],\"transaction_burnt_fee\":null,\"type\":0,\"token_transfers_overflow\":false,\"confirmations\":4,\"position\":189,\"max_priority_fee_per_gas\":null,\"transaction_tag\":null,\"created_contract\":null,\"value\":\"0\",\"from\":{\"ens_domain_name\":null,\"hash\":\"0x9642b23Ed1E01Df1092B92641051881a322F5D4E\",\"implementations\":[],\"is_contract\":false,\"is_scam\":false,\"is_verified\":false,\"metadata\":null,\"name\":null,\"private_tags\":[],\"proxy_type\":null,\"public_tags\":[],\"watchlist_names\":[]},\"gas_used\":\"70886\",\"status\":\"ok\",\"to\":{\"ens_domain_name\":null,\"hash\":\"0x47000A7B27a75D44FfaDfe9D0B97fA04D569B323\",\"implementations\":[],\"is_contract\":true,\"is_scam\":false,\"is_verified\":true,\"metadata\":null,\"name\":\"TrumpiusMaximus\",\"private_tags\":[],\"proxy_type\":null,\"public_tags\":[],\"watchlist_names\":[]},\"authorization_list\":[],\"method\":\"transfer\",\"fee\":{\"type\":\"actual\",\"value\":\"270751136450958\"},\"actions\":[],\"gas_limit\":\"107625\",\"gas_price\":\"3819529053\",\"decoded_input\":{\"method_call\":\"transfer(address recipient, uint256 amount)\",\"method_id\":\"a9059cbb\",\"parameters\":[{\"name\":\"recipient\",\"type\":\"address\",\"value\":\"0x873746be76F65f8be0a3a8f91bE1b7dd25E5E7d9\"},{\"name\":\"amount\",\"type\":\"uint256\",\"value\":\"114454600000000\"}]},\"token_transfers\":[{\"block_hash\":\"0x3818ce602a90a6faaf6bda7abdef60751add2855b55ed18be78a5691b2b33b28\",\"block_number\":21880705,\"from\":{\"ens_domain_name\":null,\"hash\":\"0x9642b23Ed1E01Df1092B92641051881a322F5D4E\",\"implementations\":[],\"is_contract\":false,\"is_scam\":false,\"is_verified\":false,\"metadata\":null,\"name\":null,\"private_tags\":[],\"proxy_type\":null,\"public_tags\":[],\"watchlist_names\":[]},\"log_index\":328,\"method\":null,\"timestamp\":null,\"to\":{\"ens_domain_name\":null,\"hash\":\"0x873746be76F65f8be0a3a8f91bE1b7dd25E5E7d9\",\"implementations\":[],\"is_contract\":false,\"is_scam\":false,\"is_verified\":false,\"metadata\":null,\"name\":null,\"private_tags\":[],\"proxy_type\":null,\"public_tags\":[],\"watchlist_names\":[]},\"token\":{\"address\":\"0x47000A7B27a75D44FfaDfe9D0B97fA04D569B323\",\"circulating_market_cap\":\"498636.64149709255\",\"decimals\":\"9\",\"exchange_rate\":\"0.01060933\",\"holders\":\"3463\",\"icon_url\":\"https://assets.coingecko.com/coins/images/53229/small/Trumpius_Maximus.jpg?1735808285\",\"name\":\"Trumpius Maximus\",\"symbol\":\"TRUMPIUS\",\"total_supply\":\"47000000000000000\",\"type\":\"ERC-20\",\"volume_24h\":\"107969.90121678697\"},\"total\":{\"decimals\":\"9\",\"value\":\"114454600000000\"},\"transaction_hash\":\"0xf7d09142363203b4c572bac2be3599de91260eb6131b57663832490e7eeaf213\",\"type\":\"token_transfer\"}],\"base_fee_per_gas\":\"806470869\",\"timestamp\":\"2025-02-19T13:27:11.000000Z\",\"nonce\":898713,\"transaction_types\":[\"contract_call\",\"token_transfer\"],\"exchange_rate\":\"2711.92\",\"block_number\":21880705,\"has_error_in_internal_transactions\":false}",
    "headers": {
      "Content-Type": "application/json"
    }
  }
}