{
  "request": {
    "method": "GET",
    "urlPath": "/api/v2/transactions"
  },
  "response": {
    "status": 200,
    "body": "{\"items\":[{\"timestamp\":\"2024-06-12T20:10:47.000000Z\",\"fee\":{\"type\":\"actual\",\"value\":\"458965827726000\"},\"gas_limit\":\"21000\",\"block\":20078046,\"status\":\"ok\",\"method\":null,\"confirmations\":1,\"type\":2,\"exchange_rate\":\"3528.14\",\"to\":{\"ens_domain_name\":null,\"hash\":\"0x6d2e03b7EfFEae98BD302A9F836D0d6Ab0002766\",\"implementation_name\":null,\"implementations\":[],\"is_contract\":false,\"is_verified\":false,\"metadata\":{\"tags\":[{\"meta\":{},\"name\":\"Fee Recipient: 0x6d2...766\",\"ordinal\":0,\"slug\":\"fee-recipient-0x6d2766\",\"tagType\":\"name\"},{\"meta\":{},\"name\":\"PROPOSER FEE RECIPIENT\",\"ordinal\":0,\"slug\":\"proposer-fee-recipient\",\"tagType\":\"note\"}]},\"name\":null,\"private_tags\":[],\"public_tags\":[],\"watchlist_names\":[]},\"tx_burnt_fee\":\"458965827726000\",\"max_fee_per_gas\":\"21855515606\",\"result\":\"success\",\"hash\":\"0x0c1d23f4b395b29fc44bd88796601df8d16e1632389c7ea10f0bf9f03f6619be\",\"gas_price\":\"21855515606\",\"priority_fee\":\"0\",\"base_fee_per_gas\":\"21855515606\",\"from\":{\"ens_domain_name\":null,\"hash\":\"0x95222290DD7278Aa3Ddd389Cc1E1d165CC4BAfe5\",\"implementation_name\":null,\"implementations\":[],\"is_contract\":false,\"is_verified\":null,\"metadata\":{\"tags\":[{\"meta\":{},\"name\":\"MEV BUILDER\",\"ordinal\":0,\"slug\":\"mev-builder\",\"tagType\":\"note\"},{\"meta\":{},\"name\":\"beaverbuild\",\"ordinal\":0,\"slug\":\"beaverbuild\",\"tagType\":\"name\"}]},\"name\":null,\"private_tags\":[],\"public_tags\":[],\"watchlist_names\":[]},\"token_transfers\":null,\"tx_types\":[\"coin_transfer\"],\"gas_used\":\"21000\",\"created_contract\":null,\"position\":186,\"nonce\":1069203,\"has_error_in_internal_txs\":null,\"actions\":[],\"decoded_input\":null,\"token_transfers_overflow\":null,\"raw_input\":\"0x\",\"value\":\"149817402936790382\",\"max_priority_fee_per_gas\":\"0\",\"revert_reason\":null,\"confirmation_duration\":[0,12121],\"tx_tag\":null},{\"timestamp\":\"2024-06-12T20:10:47.000000Z\",\"fee\":{\"type\":\"actual\",\"value\":\"458986827726000\"},\"gas_limit\":\"21000\",\"block\":20078046,\"status\":\"ok\",\"method\":null,\"confirmations\":1,\"type\":2,\"exchange_rate\":\"3528.14\",\"to\":{\"ens_domain_name\":null,\"hash\":\"0x9E99449aEcCAB9F8e6f5d415f00e3b0138b692b7\",\"implementation_name\":null,\"implementations\":[],\"is_contract\":false,\"is_verified\":false,\"metadata\":null,\"name\":null,\"private_tags\":[],\"public_tags\":[],\"watchlist_names\":[]},\"tx_burnt_fee\":\"458965827726000\",\"max_fee_per_gas\":\"22959797964\",\"result\":\"success\",\"hash\":\"0x438192b1c7eff2c9b72bc1ec653067d25dc1cddde7878e1e10bd85d825eaf9ed\",\"gas_price\":\"21856515606\",\"priority_fee\":\"21000000000\",\"base_fee_per_gas\":\"21855515606\",\"from\":{\"ens_domain_name\":null,\"hash\":\"0x4bE87247954F04Df1E0193a99e219E33BA5C4D26\",\"implementation_name\":null,\"implementations\":[],\"is_contract\":false,\"is_verified\":null,\"metadata\":null,\"name\":null,\"private_tags\":[],\"public_tags\":[],\"watchlist_names\":[]},\"token_transfers\":null,\"tx_types\":[\"coin_transfer\"],\"gas_used\":\"21000\",\"created_contract\":null,\"position\":185,\"nonce\":0,\"has_error_in_internal_txs\":null,\"actions\":[],\"decoded_input\":null,\"token_transfers_overflow\":null,\"raw_input\":\"0x\",\"value\":\"27294535308397618\",\"max_priority_fee_per_gas\":\"1000000\",\"revert_reason\":null,\"confirmation_duration\":[0,12121],\"tx_tag\":null},{\"timestamp\":\"2024-06-12T20:10:47.000000Z\",\"fee\":{\"type\":\"actual\",\"value\":\"458986827726000\"},\"gas_limit\":\"21000\",\"block\":20078046,\"status\":\"ok\",\"method\":null,\"confirmations\":1,\"type\":2,\"exchange_rate\":\"3528.14\",\"to\":{\"ens_domain_name\":null,\"hash\":\"0xa199427aBCB57105bD91336e8F5936Bdb8161A34\",\"implementation_name\":null,\"implementations\":[],\"is_contract\":false,\"is_verified\":false,\"metadata\":null,\"name\":null,\"private_tags\":[],\"public_tags\":[],\"watchlist_names\":[]},\"tx_burnt_fee\":\"458965827726000\",\"max_fee_per_gas\":\"22326102368\",\"result\":\"success\",\"hash\":\"0x30a845b10d175cdd7a043c5401c1f0e4592bae0c15c02defa83100dbadd5140d\",\"gas_price\":\"21856515606\",\"priority_fee\":\"21000000000\",\"base_fee_per_gas\":\"21855515606\",\"from\":{\"ens_domain_name\":null,\"hash\":\"0x8F220D5dcCaB878A77fE6fbd0a1f78cDc1C26ff4\",\"implementation_name\":null,\"implementations\":[],\"is_contract\":false,\"is_verified\":null,\"metadata\":null,\"name\":null,\"private_tags\":[],\"public_tags\":[],\"watchlist_names\":[]},\"token_transfers\":null,\"tx_types\":[\"coin_transfer\"],\"gas_used\":\"21000\",\"created_contract\":null,\"position\":184,\"nonce\":3,\"has_error_in_internal_txs\":null,\"actions\":[],\"decoded_input\":null,\"token_transfers_overflow\":null,\"raw_input\":\"0x\",\"value\":\"1411468463560000\",\"max_priority_fee_per_gas\":\"1000000\",\"revert_reason\":null,\"confirmation_duration\":[0,12121],\"tx_tag\":null},{\"timestamp\":\"2024-06-12T20:10:47.000000Z\",\"fee\":{\"type\":\"actual\",\"value\":\"458986827726000\"},\"gas_limit\":\"90000\",\"block\":20078046,\"status\":\"ok\",\"method\":null,\"confirmations\":1,\"type\":2,\"exchange_rate\":\"3528.14\",\"to\":{\"ens_domain_name\":null,\"hash\":\"0x7DEf287D5507Cb01e5E73F76AF9255AEeBb97B8E\",\"implementation_name\":null,\"implementations\":[],\"is_contract\":false,\"is_verified\":false,\"metadata\":null,\"name\":null,\"private_tags\":[],\"public_tags\":[],\"watchlist_names\":[]},\"tx_burnt_fee\":\"458965827726000\",\"max_fee_per_gas\":\"44451576944\",\"result\":\"success\",\"hash\":\"0x727c608a969bee5531e2df29334f62160236b76f2a3d1499616a62df0761c845\",\"gas_price\":\"21856515606\",\"priority_fee\":\"21000000000\",\"base_fee_per_gas\":\"21855515606\",\"from\":{\"ens_domain_name\":null,\"hash\":\"0xCBD6832Ebc203e49E2B771897067fce3c58575ac\",\"implementation_name\":null,\"implementations\":[],\"is_contract\":false,\"is_verified\":null,\"metadata\":{\"tags\":[{\"meta\":{},\"name\":\"Rollbit: Hot Wallet\",\"ordinal\":0,\"slug\":\"rollbit-hot-wallet\",\"tagType\":\"name\"}]},\"name\":null,\"private_tags\":[],\"public_tags\":[],\"watchlist_names\":[]},\"token_transfers\":null,\"tx_types\":[\"coin_transfer\"],\"gas_used\":\"21000\",\"created_contract\":null,\"position\":183,\"nonce\":709911,\"has_error_in_internal_txs\":null,\"actions\":[],\"decoded_input\":null,\"token_transfers_overflow\":null,\"raw_input\":\"0x\",\"value\":\"41431500000000000\",\"max_priority_fee_per_gas\":\"1000000\",\"revert_reason\":null,\"confirmation_duration\":[0,12121],\"tx_tag\":null},{\"timestamp\":\"2024-06-12T20:10:47.000000Z\",\"fee\":{\"type\":\"actual\",\"value\":\"7556081579697078\"},\"gas_limit\":\"473953\",\"block\":20078046,\"status\":\"ok\",\"method\":\"0x415565b0\",\"confirmations\":1,\"type\":2,\"exchange_rate\":\"3528.14\",\"to\":{\"ens_domain_name\":null,\"hash\":\"0xDef1C0ded9bec7F1a1670819833240f027b25EfF\",\"implementation_name\":null,\"implementations\":[],\"is_contract\":true,\"is_verified\":true,\"metadata\":{\"tags\":[{\"meta\":{},\"name\":\"0X PROTOCOL\",\"ordinal\":0,\"slug\":\"0x-protocol\",\"tagType\":\"note\"},{\"meta\":{},\"name\":\"0x: Exchange Proxy\",\"ordinal\":0,\"slug\":\"0x-exchange-proxy\",\"tagType\":\"name\"}]},\"name\":\"BaseRegistrarImplementation\",\"private_tags\":[],\"public_tags\":[],\"watchlist_names\":[]},\"tx_burnt_fee\":\"7555735866697078\",\"max_fee_per_gas\":\"22235567917\",\"result\":\"success\",\"hash\":\"0x9dc358b9dd01f1bde0ee6585c88853dee44ccdc1a695d9be24ea419baab7b025\",\"gas_price\":\"21856515606\",\"priority_fee\":\"345713000000\",\"base_fee_per_gas\":\"21855515606\",\"from\":{\"ens_domain_name\":null,\"hash\":\"0x65b0dcBD3426Ac0aE9EA86123C922CED6bEC1a8d\",\"implementation_name\":null,\"implementations\":[],\"is_contract\":false,\"is_verified\":null,\"metadata\":null,\"name\":null,\"private_tags\":[],\"public_tags\":[],\"watchlist_names\":[]},\"token_transfers\":null,\"tx_types\":[\"contract_call\",\"token_transfer\"],\"gas_used\":\"345713\",\"created_contract\":null,\"position\":182,\"nonce\":57,\"has_error_in_internal_txs\":null,\"actions\":[],\"decoded_input\":null,\"token_transfers_overflow\":null,\"raw_input\":\"0x415565b0000000000000000000000000f57e7e7c23978c3caec3c3548e3d615c346e79ff00000000000000000000000068bbed6a47194eff1cf514b50ea91895597fc91e00000000000000000000000000000000000000000000000184aa50ea4cecb000000000000000000000000000000000000000000000003615febea64904ed9e0100000000000000000000000000000000000000000000000000000000000000a00000000000000000000000000000000000000000000000000000000000000004000000000000000000000000000000000000000000000000000000000000008000000000000000000000000000000000000000000000000000000000000004600000000000000000000000000000000000000000000000000000000000000560000000000000000000000000000000000000000000000000000000000000066000000000000000000000000000000000000000000000000000000000000000210000000000000000000000000000000000000000000000000000000000000040000000000000000000000000000000000000000000000000000000000000038000000000000000000000000000000000000000000000000000000000000000200000000000000000000000000000000000000000000000000000000000000000000000000000000000000000f57e7e7c23978c3caec3c3548e3d615c346e79ff00000000000000000000000068bbed6a47194eff1cf514b50ea91895597fc91e000000000000000000000000000000000000000000000000000000000000014000000000000000000000000000000000000000000000000000000000000003400000000000000000000000000000000000000000000000000000000000000340000000000000000000000000000000000000000000000000000000000000030000000000000000000000000000000000000000000000000184aa50ea4cecb000000000000000000000000000000000000000000000000000000000000000000000000000000000000000000000000000000000000000000000000000000003400000000000000000000000000000000000000000000000000000000000000001000000000000000000000000000000000000000000000000000000000000002000000000000000000000000000000012556e697377617056330000000000000000000000000000000000000000000000000000000000000184aa50ea4cecb0000000000000000000000000000000000000000000000036affebb134c2938bcc0000000000000000000000000000000000000000000000000000000000000008000000000000000000000000000000000000000000000000000000000000000e0000000000000000000000000e592427a0aece92de3edee1f18e0157c05861564000000000000000000000000000000000000000000000000000000000000006000000000000000000000000000000000000000000000000000000000000000010000000000000000000000000000000000000000000000000000000000000042f57e7e7c23978c3caec3c3548e3d615c346e79ff000bb8c02aaa39b223fe8d0a0e5c4f27ead9083c756cc200271068bbed6a47194eff1cf514b50ea91895597fc91e000000000000000000000000000000000000000000000000000000000000000000000000000000000000000000000000000000000000000000000000000100000000000000000000000000000000000000000000000000000000000000000000000000000000000000000000000000000000000000000000000000000000000000000000000000000000000000000000000000000000000000000000001b000000000000000000000000000000000000000000000000000000000000004000000000000000000000000000000000000000000000000000000000000000a00000000000000000000000000000000000000000000000000000000000000020000000000000000000000000000000000000000000000000000000000000000100000000000000000000000068bbed6a47194eff1cf514b50ea91895597fc91e00000000000000000000000000000000000000000000008bfffcc03166cfed68000000000000000000000000382ffce2287252f930e1c8dc9328dac5bf282ba1000000000000000000000000000000000000000000000000000000000000001b000000000000000000000000000000000000000000000000000000000000004000000000000000000000000000000000000000000000000000000000000000a00000000000000000000000000000000000000000000000000000000000000020000000000000000000000000000000000000000000000000000000000000000100000000000000000000000068bbed6a47194eff1cf514b50ea91895597fc91e00000000000000000000000000000000000000000000000dffffacd1bd7b3157000000000000000000000000ad01c20d5886137e056775af56915de824c8fce5000000000000000000000000000000000000000000000000000000000000001c000000000000000000000000000000000000000000000000000000000000004000000000000000000000000000000000000000000000000000000000000000e00000000000000000000000000000000000000000000000000000000000000020000000000000000000000000000000000000000000000000000000000000004000000000000000000000000000000000000000000000000000000000000000a00000000000000000000000000000000000000000000000000000000000000002000000000000000000000000f57e7e7c23978c3caec3c3548e3d615c346e79ff000000000000000000000000eeeeeeeeeeeeeeeeeeeeeeeeeeeeeeeeeeeeeeee0000000000000000000000000000000000000000000000000000000000000000869584cd000000000000000000000000382ffce2287252f930e1c8dc9328dac5bf282ba100000000000000000000000000000000000000007f801f4846da070aab6c7fe9\",\"value\":\"0\",\"max_priority_fee_per_gas\":\"1000000\",\"revert_reason\":null,\"confirmation_duration\":[0,12121],\"tx_tag\":null},{\"timestamp\":\"2024-06-12T20:10:47.000000Z\",\"fee\":{\"type\":\"actual\",\"value\":\"1014295319727642\"},\"gas_limit\":\"51276\",\"block\":20078046,\"status\":\"ok\",\"method\":\"approve\",\"confirmations\":1,\"type\":2,\"exchange_rate\":\"3528.14\",\"to\":{\"ens_domain_name\":null,\"hash\":\"0xF57e7e7C23978C3cAEC3C3548E3D615c346e79fF\",\"implementation_name\":null,\"implementations\":[],\"is_contract\":true,\"is_verified\":true,\"metadata\":{\"tags\":[{\"meta\":{},\"name\":\"TOKEN CONTRACT\",\"ordinal\":0,\"slug\":\"token-contract\",\"tagType\":\"note\"},{\"meta\":{},\"name\":\"IMMUTABLE X: IMX Token\",\"ordinal\":0,\"slug\":\"immutable-x-imx-token\",\"tagType\":\"name\"}]},\"name\":\"IMXToken\",\"private_tags\":[],\"public_tags\":[],\"watchlist_names\":[]},\"tx_burnt_fee\":\"1014248912727642\",\"max_fee_per_gas\":\"23320788935\",\"result\":\"success\",\"hash\":\"0x62bac09a69c1c451997fe8c5c6b055e5d8bed89db33bcdb30eee55d47b5bb4e5\",\"gas_price\":\"21856515606\",\"priority_fee\":\"46407000000\",\"base_fee_per_gas\":\"21855515606\",\"from\":{\"ens_domain_name\":null,\"hash\":\"0x65b0dcBD3426Ac0aE9EA86123C922CED6bEC1a8d\",\"implementation_name\":null,\"implementations\":[],\"is_contract\":false,\"is_verified\":null,\"metadata\":null,\"name\":null,\"private_tags\":[],\"public_tags\":[],\"watchlist_names\":[]},\"token_transfers\":null,\"tx_types\":[\"contract_call\"],\"gas_used\":\"46407\",\"created_contract\":null,\"position\":181,\"nonce\":56,\"has_error_in_internal_txs\":null,\"actions\":[],\"decoded_input\":{\"method_call\":\"approve(address spender, uint256 amount)\",\"method_id\":\"095ea7b3\",\"parameters\":[{\"name\":\"spender\",\"type\":\"address\",\"value\":\"0xdef1c0ded9bec7f1a1670819833240f027b25eff\"},{\"name\":\"amount\",\"type\":\"uint256\",\"value\":\"28006286200000000000\"}]},\"token_transfers_overflow\":null,\"raw_input\":\"0x095ea7b3000000000000000000000000def1c0ded9bec7f1a1670819833240f027b25eff00000000000000000000000000000000000000000000000184aa50ea4cecb000\",\"value\":\"0\",\"max_priority_fee_per_gas\":\"1000000\",\"revert_reason\":null,\"confirmation_duration\":[0,12121],\"tx_tag\":null},{\"timestamp\":\"2024-06-12T20:10:47.000000Z\",\"fee\":{\"type\":\"actual\",\"value\":\"1381524702399654\"},\"gas_limit\":\"96064\",\"block\":20078046,\"status\":\"ok\",\"method\":\"transfer\",\"confirmations\":1,\"type\":2,\"exchange_rate\":\"3528.14\",\"to\":{\"ens_domain_name\":null,\"hash\":\"0xdAC17F958D2ee523a2206206994597C13D831ec7\",\"implementation_name\":null,\"implementations\":[],\"is_contract\":true,\"is_verified\":true,\"metadata\":{\"tags\":[{\"meta\":{},\"name\":\"TOKEN CONTRACT\",\"ordinal\":0,\"slug\":\"token-contract\",\"tagType\":\"note\"},{\"meta\":{},\"name\":\"Tether: USDT Stablecoin\",\"ordinal\":0,\"slug\":\"tether-usdt-stablecoin\",\"tagType\":\"name\"},{\"meta\":{},\"name\":\"STABLECOIN\",\"ordinal\":0,\"slug\":\"stablecoin\",\"tagType\":\"note\"}]},\"name\":\"TetherToken\",\"private_tags\":[],\"public_tags\":[],\"watchlist_names\":[]},\"tx_burnt_fee\":\"1381465285939654\",\"max_fee_per_gas\":\"22509868688\",\"result\":\"success\",\"hash\":\"0x68033bc9097970c08973931fc0ddaf4cdca628132e23bf792fdcba954ad9e34f\",\"gas_price\":\"21856455606\",\"priority_fee\":\"59416460000\",\"base_fee_per_gas\":\"21855515606\",\"from\":{\"ens_domain_name\":null,\"hash\":\"0xf36228d399f0442527764bee55f7EB8d306A431a\",\"implementation_name\":null,\"implementations\":[],\"is_contract\":false,\"is_verified\":null,\"metadata\":null,\"name\":null,\"private_tags\":[],\"public_tags\":[],\"watchlist_names\":[]},\"token_transfers\":null,\"tx_types\":[\"contract_call\",\"token_transfer\"],\"gas_used\":\"63209\",\"created_contract\":null,\"position\":180,\"nonce\":4,\"has_error_in_internal_txs\":null,\"actions\":[],\"decoded_input\":{\"method_call\":\"transfer(address _to, uint256 _value)\",\"method_id\":\"a9059cbb\",\"parameters\":[{\"name\":\"_to\",\"type\":\"address\",\"value\":\"0x3cea5a30613d8e53cb8aa1208e8eb7b497eae6ca\"},{\"name\":\"_value\",\"type\":\"uint256\",\"value\":\"105427838\"}]},\"token_transfers_overflow\":null,\"raw_input\":\"0xa9059cbb0000000000000000000000003cea5a30613d8e53cb8aa1208e8eb7b497eae6ca000000000000000000000000000000000000000000000000000000000648b37e\",\"value\":\"0\",\"max_priority_fee_per_gas\":\"940000\",\"revert_reason\":null,\"confirmation_duration\":[0,12121],\"tx_tag\":null},{\"timestamp\":\"2024-06-12T20:10:47.000000Z\",\"fee\":{\"type\":\"actual\",\"value\":\"2700153937965240\"},\"gas_limit\":\"200000\",\"block\":20078046,\"status\":\"ok\",\"method\":\"swapExactTokensForETH\",\"confirmations\":1,\"type\":2,\"exchange_rate\":\"3528.14\",\"to\":{\"ens_domain_name\":null,\"hash\":\"0x7a250d5630B4cF539739dF2C5dAcb4c659F2488D\",\"implementation_name\":null,\"implementations\":[],\"is_contract\":true,\"is_verified\":true,\"metadata\":{\"tags\":[{\"meta\":{},\"name\":\"Uniswap V2: Router 2\",\"ordinal\":0,\"slug\":\"uniswap-v2-router-2\",\"tagType\":\"name\"}]},\"name\":\"UniswapV2Router02\",\"private_tags\":[],\"public_tags\":[],\"watchlist_names\":[]},\"tx_burnt_fee\":\"2700030397965240\",\"max_fee_per_gas\":\"30000000000\",\"result\":\"success\",\"hash\":\"0x0669d187bc43feb5732bbf2f9f09f42f1fc3aa01694d92a2f9dfa325308b7719\",\"gas_price\":\"21856515606\",\"priority_fee\":\"123540000000\",\"base_fee_per_gas\":\"21855515606\",\"from\":{\"ens_domain_name\":null,\"hash\":\"0x9C8BA1028DCaF7be4dbAC748101707312cd55f89\",\"implementation_name\":null,\"implementations\":[],\"is_contract\":false,\"is_verified\":null,\"metadata\":null,\"name\":null,\"private_tags\":[],\"public_tags\":[],\"watchlist_names\":[]},\"token_transfers\":null,\"tx_types\":[\"contract_call\",\"token_transfer\"],\"gas_used\":\"123540\",\"created_contract\":null,\"position\":179,\"nonce\":1308,\"has_error_in_internal_txs\":null,\"actions\":[],\"decoded_input\":{\"method_call\":\"swapExactTokensForETH(uint256 amountIn, uint256 amountOutMin, address[] path, address to, uint256 deadline)\",\"method_id\":\"18cbafe5\",\"parameters\":[{\"name\":\"amountIn\",\"type\":\"uint256\",\"value\":\"10796018459958871684779343872\"},{\"name\":\"amountOutMin\",\"type\":\"uint256\",\"value\":\"0\"},{\"name\":\"path\",\"type\":\"address[]\",\"value\":[\"0x3ffeea07a27fab7ad1df5297fa75e77a43cb5790\",\"0xc02aaa39b223fe8d0a0e5c4f27ead9083c756cc2\"]},{\"name\":\"to\",\"type\":\"address\",\"value\":\"0x9c8ba1028dcaf7be4dbac748101707312cd55f89\"},{\"name\":\"deadline\",\"type\":\"uint256\",\"value\":\"1718223294\"}]},\"token_transfers_overflow\":null,\"raw_input\":\"0x18cbafe5000000000000000000000000000000000000000022e241d56c8e9a0000000000000000000000000000000000000000000000000000000000000000000000000000000000000000000000000000000000000000000000000000000000000000a00000000000000000000000009c8ba1028dcaf7be4dbac748101707312cd55f8900000000000000000000000000000000000000000000000000000000666a01be00000000000000000000000000000000000000000000000000000000000000020000000000000000000000003ffeea07a27fab7ad1df5297fa75e77a43cb5790000000000000000000000000c02aaa39b223fe8d0a0e5c4f27ead9083c756cc2\",\"value\":\"0\",\"max_priority_fee_per_gas\":\"1000000\",\"revert_reason\":null,\"confirmation_duration\":[0,12121],\"tx_tag\":null},{\"timestamp\":\"2024-06-12T20:10:47.000000Z\",\"fee\":{\"type\":\"actual\",\"value\":\"2927811404517336\"},\"gas_limit\":\"200000\",\"block\":20078046,\"status\":\"ok\",\"method\":\"swapExactTokensForETH\",\"confirmations\":1,\"type\":2,\"exchange_rate\":\"3528.14\",\"to\":{\"ens_domain_name\":null,\"hash\":\"0x7a250d5630B4cF539739dF2C5dAcb4c659F2488D\",\"implementation_name\":null,\"implementations\":[],\"is_contract\":true,\"is_verified\":true,\"metadata\":{\"tags\":[{\"meta\":{},\"name\":\"Uniswap V2: Router 2\",\"ordinal\":0,\"slug\":\"uniswap-v2-router-2\",\"tagType\":\"name\"}]},\"name\":\"UniswapV2Router02\",\"private_tags\":[],\"public_tags\":[],\"watchlist_names\":[]},\"tx_burnt_fee\":\"2927677448517336\",\"max_fee_per_gas\":\"30000000000\",\"result\":\"success\",\"hash\":\"0xe7b866b1bae909cb49a0dcf3e4e7b6017543da6b0eb4bf64643bc26766dc7651\",\"gas_price\":\"21856515606\",\"priority_fee\":\"133956000000\",\"base_fee_per_gas\":\"21855515606\",\"from\":{\"ens_domain_name\":null,\"hash\":\"0x000729e82B41176a1aa8df88dDc4Ba7a21c568b8\",\"implementation_name\":null,\"implementations\":[],\"is_contract\":false,\"is_verified\":null,\"metadata\":null,\"name\":null,\"private_tags\":[],\"public_tags\":[],\"watchlist_names\":[]},\"token_transfers\":null,\"tx_types\":[\"contract_call\",\"token_transfer\"],\"gas_used\":\"133956\",\"created_contract\":null,\"position\":178,\"nonce\":1284,\"has_error_in_internal_txs\":null,\"actions\":[],\"decoded_input\":{\"method_call\":\"swapExactTokensForETH(uint256 amountIn, uint256 amountOutMin, address[] path, address to, uint256 deadline)\",\"method_id\":\"18cbafe5\",\"parameters\":[{\"name\":\"amountIn\",\"type\":\"uint256\",\"value\":\"4488561625343421843807141888\"},{\"name\":\"amountOutMin\",\"type\":\"uint256\",\"value\":\"0\"},{\"name\":\"path\",\"type\":\"address[]\",\"value\":[\"0x3ffeea07a27fab7ad1df5297fa75e77a43cb5790\",\"0xc02aaa39b223fe8d0a0e5c4f27ead9083c756cc2\"]},{\"name\":\"to\",\"type\":\"address\",\"value\":\"0x000729e82b41176a1aa8df88ddc4ba7a21c568b8\"},{\"name\":\"deadline\",\"type\":\"uint256\",\"value\":\"1718223290\"}]},\"token_transfers_overflow\":null,\"raw_input\":\"0x18cbafe500000000000000000000000000000000000000000e80d9e546d0958000000000000000000000000000000000000000000000000000000000000000000000000000000000000000000000000000000000000000000000000000000000000000a0000000000000000000000000000729e82b41176a1aa8df88ddc4ba7a21c568b800000000000000000000000000000000000000000000000000000000666a01ba00000000000000000000000000000000000000000000000000000000000000020000000000000000000000003ffeea07a27fab7ad1df5297fa75e77a43cb5790000000000000000000000000c02aaa39b223fe8d0a0e5c4f27ead9083c756cc2\",\"value\":\"0\",\"max_priority_fee_per_gas\":\"1000000\",\"revert_reason\":null,\"confirmation_duration\":[0,12121],\"tx_tag\":null},{\"timestamp\":\"2024-06-12T20:10:47.000000Z\",\"fee\":{\"type\":\"actual\",\"value\":\"3323305054407906\"},\"gas_limit\":\"187935\",\"block\":20078046,\"status\":\"ok\",\"method\":\"swap\",\"confirmations\":1,\"type\":2,\"exchange_rate\":\"3528.14\",\"to\":{\"ens_domain_name\":null,\"hash\":\"0x1111111254EEB25477B68fb85Ed929f73A960582\",\"implementation_name\":null,\"implementations\":[],\"is_contract\":true,\"is_verified\":true,\"metadata\":{\"tags\":[{\"meta\":{},\"name\":\"1inch v5: Aggregation Router\",\"ordinal\":0,\"slug\":\"1inch-v5-aggregation-router\",\"tagType\":\"name\"}]},\"name\":\"AggregationRouterV5\",\"private_tags\":[],\"public_tags\":[],\"watchlist_names\":[]},\"tx_burnt_fee\":\"3323153003407906\",\"max_fee_per_gas\":\"22326102368\",\"result\":\"success\",\"hash\":\"0x045089eff07ff75d3f45a990de3616b03fbd3f2e1339be2c92692ce6dc3ac0af\",\"gas_price\":\"21856515606\",\"priority_fee\":\"152051000000\",\"base_fee_per_gas\":\"21855515606\",\"from\":{\"ens_domain_name\":null,\"hash\":\"0xC0e6380cB3D650b12beac2E677Fa17993878d4e0\",\"implementation_name\":null,\"implementations\":[],\"is_contract\":false,\"is_verified\":null,\"metadata\":null,\"name\":null,\"private_tags\":[],\"public_tags\":[],\"watchlist_names\":[]},\"token_transfers\":null,\"tx_types\":[\"coin_transfer\",\"contract_call\",\"token_transfer\"],\"gas_used\":\"152051\",\"created_contract\":null,\"position\":177,\"nonce\":101,\"has_error_in_internal_txs\":null,\"actions\":[],\"decoded_input\":{\"method_call\":\"swap(address executor, (address,address,address,address,uint256,uint256,uint256) desc, bytes permit, bytes data)\",\"method_id\":\"12aa3caf\",\"parameters\":[{\"name\":\"executor\",\"type\":\"address\",\"value\":\"0xe37e799d5077682fa0a244d46e5649f71457bd09\"},{\"name\":\"desc\",\"type\":\"(address,address,address,address,uint256,uint256,uint256)\",\"value\":[\"0xeeeeeeeeeeeeeeeeeeeeeeeeeeeeeeeeeeeeeeee\",\"0xb90b2a35c65dbc466b04240097ca756ad2005295\",\"0xe37e799d5077682fa0a244d46e5649f71457bd09\",\"0xc0e6380cb3d650b12beac2e677fa17993878d4e0\",\"1000000000000000000\",\"1195267720988986747701529500\",\"0\"]},{\"name\":\"permit\",\"type\":\"bytes\",\"value\":\"0x\"},{\"name\":\"data\",\"type\":\"bytes\",\"value\":\"0x0000000000000000000000000000000000000000fd00006e00005400004e802026678dcd0000000000000000000000000000000000000000382ffce2287252f930e1c8dc9328dac5bf282ba1000000000000000000000000000000000000000000000000002386f26fc1000000206b4be0b94041c02aaa39b223fe8d0a0e5c4f27ead9083c756cc2d0e30db00c20c02aaa39b223fe8d0a0e5c4f27ead9083c756cc2e945683b3462d2603a18bdfbb19261c6a4f03ad16ae4071138002dc6c0e945683b3462d2603a18bdfbb19261c6a4f03ad11111111254eeb25477b68fb85ed929f73a960582000000000000000000000000000000000000000003dcb3c8fd6a46198d718b9cc02aaa39b223fe8d0a0e5c4f27ead9083c756cc2\"}]},\"token_transfers_overflow\":null,\"raw_input\":\"0x12aa3caf000000000000000000000000e37e799d5077682fa0a244d46e5649f71457bd09000000000000000000000000eeeeeeeeeeeeeeeeeeeeeeeeeeeeeeeeeeeeeeee000000000000000000000000b90b2a35c65dbc466b04240097ca756ad2005295000000000000000000000000e37e799d5077682fa0a244d46e5649f71457bd09000000000000000000000000c0e6380cb3d650b12beac2e677fa17993878d4e00000000000000000000000000000000000000000000000000de0b6b3a7640000000000000000000000000000000000000000000003dcb3c8fd6a46198d718b9c0000000000000000000000000000000000000000000000000000000000000000000000000000000000000000000000000000000000000000000000000000014000000000000000000000000000000000000000000000000000000000000001600000000000000000000000000000000000000000000000000000000000000000000000000000000000000000000000000000000000000000000000000000011b0000000000000000000000000000000000000000fd00006e00005400004e802026678dcd0000000000000000000000000000000000000000382ffce2287252f930e1c8dc9328dac5bf282ba1000000000000000000000000000000000000000000000000002386f26fc1000000206b4be0b94041c02aaa39b223fe8d0a0e5c4f27ead9083c756cc2d0e30db00c20c02aaa39b223fe8d0a0e5c4f27ead9083c756cc2e945683b3462d2603a18bdfbb19261c6a4f03ad16ae4071138002dc6c0e945683b3462d2603a18bdfbb19261c6a4f03ad11111111254eeb25477b68fb85ed929f73a960582000000000000000000000000000000000000000003dcb3c8fd6a46198d718b9cc02aaa39b223fe8d0a0e5c4f27ead9083c756cc200000000009a635db5\",\"value\":\"1000000000000000000\",\"max_priority_fee_per_gas\":\"1000000\",\"revert_reason\":null,\"confirmation_duration\":[0,12121],\"tx_tag\":null},{\"timestamp\":\"2024-06-12T20:10:47.000000Z\",\"fee\":{\"type\":\"actual\",\"value\":\"3859620234347934\"},\"gas_limit\":\"249116\",\"block\":20078046,\"status\":\"ok\",\"method\":\"execute\",\"confirmations\":1,\"type\":2,\"exchange_rate\":\"3528.14\",\"to\":{\"ens_domain_name\":null,\"hash\":\"0x3fC91A3afd70395Cd496C647d5a6CC9D4B2b7FAD\",\"implementation_name\":null,\"implementations\":[],\"is_contract\":true,\"is_verified\":true,\"metadata\":{\"tags\":[{\"meta\":{},\"name\":\"Uniswap: Universal Router\",\"ordinal\":0,\"slug\":\"uniswap-universal-router\",\"tagType\":\"name\"}]},\"name\":\"UniversalRouter\",\"private_tags\":[],\"public_tags\":[],\"watchlist_names\":[]},\"tx_burnt_fee\":\"3859443645347934\",\"max_fee_per_gas\":\"22326102368\",\"result\":\"success\",\"hash\":\"0xf7e38e04844693151b3532ddc743ba2bb01aa003b97f2c153d97d47e595f6399\",\"gas_price\":\"21856515606\",\"priority_fee\":\"176589000000\",\"base_fee_per_gas\":\"21855515606\",\"from\":{\"ens_domain_name\":null,\"hash\":\"0xd8dD9f76603d6AF2bb1BB7d7275a14E4140a2650\",\"implementation_name\":null,\"implementations\":[],\"is_contract\":false,\"is_verified\":null,\"metadata\":null,\"name\":null,\"private_tags\":[],\"public_tags\":[],\"watchlist_names\":[]},\"token_transfers\":null,\"tx_types\":[\"contract_call\",\"token_transfer\"],\"gas_used\":\"176589\",\"created_contract\":null,\"position\":176,\"nonce\":19,\"has_error_in_internal_txs\":null,\"actions\":[],\"decoded_input\":{\"method_call\":\"execute(bytes commands, bytes[] inputs, uint256 deadline)\",\"method_id\":\"3593564c\",\"parameters\":[{\"name\":\"commands\",\"type\":\"bytes\",\"value\":\"0x0a00060c\"},{\"name\":\"inputs\",\"type\":\"bytes[]\",\"value\":[\"0x000000000000000000000000cf01d4485398f3b8a0b177c5225402e2fdb4f997000000000000000000000000ffffffffffffffffffffffffffffffffffffffff0000000000000000000000000000000000000000000000000000000066918dbb00000000000000000000000000000000000000000000000000000000000000000000000000000000000000003fc91a3afd70395cd496c647d5a6cc9d4b2b7fad00000000000000000000000000000000000000000000000000000000666a07c300000000000000000000000000000000000000000000000000000000000000e00000000000000000000000000000000000000000000000000000000000000041ba1a666c734ae5f179cff3140b4c453cf00b548a4e2a0b9ee46fc69d63e66afc65f2fc32f512fc1583977635a7d95fd5dc3a34f151dc542cd333ad5ed8dbf21b1c00000000000000000000000000000000000000000000000000000000000000\",\"0x00000000000000000000000000000000000000000000000000000000000000020000000000000000000000000000000000000000000f0a8352f2b67c37134f0a000000000000000000000000000000000000000000000000009497cf856e1e2e00000000000000000000000000000000000000000000000000000000000000a00000000000000000000000000000000000000000000000000000000000000001000000000000000000000000000000000000000000000000000000000000002bcf01d4485398f3b8a0b177c5225402e2fdb4f997002710c02aaa39b223fe8d0a0e5c4f27ead9083c756cc2000000000000000000000000000000000000000000\",\"0x000000000000000000000000c02aaa39b223fe8d0a0e5c4f27ead9083c756cc2000000000000000000000000000000fee13a103a10d593b9ae06b3e05f2e7e1c0000000000000000000000000000000000000000000000000000000000000019\",\"0x0000000000000000000000000000000000000000000000000000000000000001000000000000000000000000000000000000000000000000009497cf856e1e2e\"]},{\"name\":\"deadline\",\"type\":\"uint256\",\"value\":\"1718223635\"}]},\"token_transfers_overflow\":null,\"raw_input\":\"0x3593564c000000000000000000000000000000000000000000000000000000000000006000000000000000000000000000000000000000000000000000000000000000a000000000000000000000000000000000000000000000000000000000666a031300000000000000000000000000000000000000000000000000000000000000040a00060c00000000000000000000000000000000000000000000000000000000000000000000000000000000000000000000000000000000000000000000000400000000000000000000000000000000000000000000000000000000000000800000000000000000000000000000000000000000000000000000000000000200000000000000000000000000000000000000000000000000000000000000032000000000000000000000000000000000000000000000000000000000000003a00000000000000000000000000000000000000000000000000000000000000160000000000000000000000000cf01d4485398f3b8a0b177c5225402e2fdb4f997000000000000000000000000ffffffffffffffffffffffffffffffffffffffff0000000000000000000000000000000000000000000000000000000066918dbb00000000000000000000000000000000000000000000000000000000000000000000000000000000000000003fc91a3afd70395cd496c647d5a6cc9d4b2b7fad00000000000000000000000000000000000000000000000000000000666a07c300000000000000000000000000000000000000000000000000000000000000e00000000000000000000000000000000000000000000000000000000000000041ba1a666c734ae5f179cff3140b4c453cf00b548a4e2a0b9ee46fc69d63e66afc65f2fc32f512fc1583977635a7d95fd5dc3a34f151dc542cd333ad5ed8dbf21b1c00000000000000000000000000000000000000000000000000000000000000000000000000000000000000000000000000000000000000000000000000010000000000000000000000000000000000000000000000000000000000000000020000000000000000000000000000000000000000000f0a8352f2b67c37134f0a000000000000000000000000000000000000000000000000009497cf856e1e2e00000000000000000000000000000000000000000000000000000000000000a00000000000000000000000000000000000000000000000000000000000000001000000000000000000000000000000000000000000000000000000000000002bcf01d4485398f3b8a0b177c5225402e2fdb4f997002710c02aaa39b223fe8d0a0e5c4f27ead9083c756cc20000000000000000000000000000000000000000000000000000000000000000000000000000000000000000000000000000000060000000000000000000000000c02aaa39b223fe8d0a0e5c4f27ead9083c756cc2000000000000000000000000000000fee13a103a10d593b9ae06b3e05f2e7e1c000000000000000000000000000000000000000000000000000000000000001900000000000000000000000000000000000000000000000000000000000000400000000000000000000000000000000000000000000000000000000000000001000000000000000000000000000000000000000000000000009497cf856e1e2e\",\"value\":\"0\",\"max_priority_fee_per_gas\":\"1000000\",\"revert_reason\":null,\"confirmation_duration\":[0,12121],\"tx_tag\":null},{\"timestamp\":\"2024-06-12T20:10:47.000000Z\",\"fee\":{\"type\":\"actual\",\"value\":\"6469310054219940\"},\"gas_limit\":\"3000000\",\"block\":20078046,\"status\":\"ok\",\"method\":\"proveBlock\",\"confirmations\":1,\"type\":2,\"exchange_rate\":\"3528.14\",\"to\":{\"ens_domain_name\":null,\"hash\":\"0x68d30f47F19c07bCCEf4Ac7FAE2Dc12FCa3e0dC9\",\"implementation_name\":\"ProverSet\",\"implementations\":[{\"name\":\"ProverSet\"}],\"is_contract\":true,\"is_verified\":true,\"metadata\":null,\"name\":\"ERC1967Proxy\",\"private_tags\":[],\"public_tags\":[],\"watchlist_names\":[]},\"tx_burnt_fee\":\"6469014064219940\",\"max_fee_per_gas\":\"44534214632\",\"result\":\"success\",\"hash\":\"0x1da350cab2919ef4d92331885caa9e0f3dc7eb7134e6d1c0a1576f10689a100e\",\"gas_price\":\"21856515606\",\"priority_fee\":\"295990000000\",\"base_fee_per_gas\":\"21855515606\",\"from\":{\"ens_domain_name\":null,\"hash\":\"0x000000629FBCf27A347d1AEbA658435230D74a5f\",\"implementation_name\":null,\"implementations\":[],\"is_contract\":false,\"is_verified\":null,\"metadata\":null,\"name\":null,\"private_tags\":[],\"public_tags\":[],\"watchlist_names\":[]},\"token_transfers\":null,\"tx_types\":[\"contract_call\"],\"gas_used\":\"295990\",\"created_contract\":null,\"position\":175,\"nonce\":57839,\"has_error_in_internal_txs\":null,\"actions\":[],\"decoded_input\":{\"method_call\":\"proveBlock(uint64 _blockId, bytes _input)\",\"method_id\":\"10d008bd\",\"parameters\":[{\"name\":\"_blockId\",\"type\":\"uint64\",\"value\":\"57822\"},{\"name\":\"_input\",\"type\":\"bytes\",\"value\":\"0xa359345b0ba8d3086a1f77b7ce14344da5d6fef02499c2bb3cfc706a1f7d53953b06df2e60009eede14ca3d0566f45971125a966e51a7c7e81b962b748f31cab01a224fcf52eb95cd94ecbbbe81b72bd0459d258e2be6f779ab27390b573fd12302e31382e302d64657600000000000000000000000000000000000000000000569e75fc77c1a856f6daaf9e69d8a9566ca34aa47f9133711ce065a571af0cfd000000000000000000000000000000633b68f5d8d3a86593ebb815b4663bcbe0000000000000000000000000000000000000000000000000000000000000e1de000000000000000000000000000000000000000000000000000000000e4e1c0000000000000000000000000000000000000000000000000000000000666a00670000000000000000000000000000000000000000000000000000000001325dd500000000000000000000000000000000000000000000000000000000000000c80000000000000000000000000000000000000000000000000000000000000001849d07bd726dc3529d83fa8081b38f22d9e5206602298363809b30ec08fcac0f00000000000000000000000068d30f47f19c07bccef4ac7fae2dc12fca3e0dc925e04a18bf864ddd7174013a255ec877032172b8b7e7799f34cca12e412599dcbb0f8c84fc04e17142d75aba303ee130776637e6a012a6a6abef778c513ecf9d23e523c9baff61531c5730725d5682ac2ab1a8979287c374c7c3d40f883fd3dd0000000000000000000000000000000000000000000000000000000000000000000000000000000000000000000000000000000000000000000000000000026000000000000000000000000000000000000000000000000000000000000000c80000000000000000000000000000000000000000000000000000000000000040000000000000000000000000000000000000000000000000000000000000005900000004f02099f42d499028ca52a5205d4e21001f5e3525442f856c8f65f813ae34626c403cd74cbd6fb54b1405adf8bbbb1732322062173ce6d33ba04c9a186e5017c8840ef5a3a16ae17257898129b9e3129ddb320cde1b00000000000000\"}]},\"token_transfers_overflow\":null,\"raw_input\":\"0x10d008bd000000000000000000000000000000000000000000000000000000000000e1de00000000000000000000000000000000000000000000000000000000000000400000000000000000000000000000000000000000000000000000000000000320a359345b0ba8d3086a1f77b7ce14344da5d6fef02499c2bb3cfc706a1f7d53953b06df2e60009eede14ca3d0566f45971125a966e51a7c7e81b962b748f31cab01a224fcf52eb95cd94ecbbbe81b72bd0459d258e2be6f779ab27390b573fd12302e31382e302d64657600000000000000000000000000000000000000000000569e75fc77c1a856f6daaf9e69d8a9566ca34aa47f9133711ce065a571af0cfd000000000000000000000000000000633b68f5d8d3a86593ebb815b4663bcbe0000000000000000000000000000000000000000000000000000000000000e1de000000000000000000000000000000000000000000000000000000000e4e1c0000000000000000000000000000000000000000000000000000000000666a00670000000000000000000000000000000000000000000000000000000001325dd500000000000000000000000000000000000000000000000000000000000000c80000000000000000000000000000000000000000000000000000000000000001849d07bd726dc3529d83fa8081b38f22d9e5206602298363809b30ec08fcac0f00000000000000000000000068d30f47f19c07bccef4ac7fae2dc12fca3e0dc925e04a18bf864ddd7174013a255ec877032172b8b7e7799f34cca12e412599dcbb0f8c84fc04e17142d75aba303ee130776637e6a012a6a6abef778c513ecf9d23e523c9baff61531c5730725d5682ac2ab1a8979287c374c7c3d40f883fd3dd0000000000000000000000000000000000000000000000000000000000000000000000000000000000000000000000000000000000000000000000000000026000000000000000000000000000000000000000000000000000000000000000c80000000000000000000000000000000000000000000000000000000000000040000000000000000000000000000000000000000000000000000000000000005900000004f02099f42d499028ca52a5205d4e21001f5e3525442f856c8f65f813ae34626c403cd74cbd6fb54b1405adf8bbbb1732322062173ce6d33ba04c9a186e5017c8840ef5a3a16ae17257898129b9e3129ddb320cde1b00000000000000\",\"value\":\"0\",\"max_priority_fee_per_gas\":\"1000000\",\"revert_reason\":null,\"confirmation_duration\":[0,12121],\"tx_tag\":null},{\"timestamp\":\"2024-06-12T20:10:47.000000Z\",\"fee\":{\"type\":\"actual\",\"value\":\"459812385480000\"},\"gas_limit\":\"100000\",\"block\":20078046,\"status\":\"ok\",\"method\":null,\"confirmations\":1,\"type\":0,\"exchange_rate\":\"3528.14\",\"to\":{\"ens_domain_name\":null,\"hash\":\"0x52a60742A5B83aac41ff09d759fae08E3926D7ec\",\"implementation_name\":null,\"implementations\":[],\"is_contract\":false,\"is_verified\":false,\"metadata\":null,\"name\":null,\"private_tags\":[],\"public_tags\":[],\"watchlist_names\":[]},\"tx_burnt_fee\":null,\"max_fee_per_gas\":null,\"result\":\"success\",\"hash\":\"0x73a71493db5e156a8776dad0788bf3ee67ad038e09c6aa77d2544c6d029deff1\",\"gas_price\":\"21895827880\",\"priority_fee\":null,\"base_fee_per_gas\":\"21855515606\",\"from\":{\"ens_domain_name\":null,\"hash\":\"0xcF7105FDE573695D62666aeFa4e1691bf3Ab50d5\",\"implementation_name\":null,\"implementations\":[],\"is_contract\":false,\"is_verified\":null,\"metadata\":null,\"name\":null,\"private_tags\":[],\"public_tags\":[],\"watchlist_names\":[]},\"token_transfers\":null,\"tx_types\":[\"coin_transfer\"],\"gas_used\":\"21000\",\"created_contract\":null,\"position\":174,\"nonce\":84754,\"has_error_in_internal_txs\":null,\"actions\":[],\"decoded_input\":null,\"token_transfers_overflow\":null,\"raw_input\":\"0x\",\"value\":\"94510000000000000\",\"max_priority_fee_per_gas\":null,\"revert_reason\":null,\"confirmation_duration\":[0,12121],\"tx_tag\":null},{\"timestamp\":\"2024-06-12T20:10:47.000000Z\",\"fee\":{\"type\":\"actual\",\"value\":\"1424928367493358\"},\"gas_limit\":\"400000\",\"block\":20078046,\"status\":\"ok\",\"method\":\"transfer\",\"confirmations\":1,\"type\":0,\"exchange_rate\":\"3528.14\",\"to\":{\"ens_domain_name\":null,\"hash\":\"0x1f9840a85d5aF5bf1D1762F925BDADdC4201F984\",\"implementation_name\":null,\"implementations\":[],\"is_contract\":true,\"is_verified\":true,\"metadata\":{\"tags\":[{\"meta\":{},\"name\":\"TOKEN CONTRACT\",\"ordinal\":0,\"slug\":\"token-contract\",\"tagType\":\"note\"},{\"meta\":{},\"name\":\"Uniswap Protocol: UNI token\",\"ordinal\":0,\"slug\":\"uniswap-protocol-uni-token\",\"tagType\":\"name\"}]},\"name\":\"Uniswap\",\"private_tags\":[],\"public_tags\":[],\"watchlist_names\":[]},\"tx_burnt_fee\":null,\"max_fee_per_gas\":null,\"result\":\"success\",\"hash\":\"0xce53b3fa294bf4362ebd5dbc1ea32cfa7ff8dc93b2dab65989103c5c736f7023\",\"gas_price\":\"24908722293\",\"priority_fee\":null,\"base_fee_per_gas\":\"21855515606\",\"from\":{\"ens_domain_name\":null,\"hash\":\"0xcF7105FDE573695D62666aeFa4e1691bf3Ab50d5\",\"implementation_name\":null,\"implementations\":[],\"is_contract\":false,\"is_verified\":null,\"metadata\":null,\"name\":null,\"private_tags\":[],\"public_tags\":[],\"watchlist_names\":[]},\"token_transfers\":null,\"tx_types\":[\"contract_call\",\"token_transfer\"],\"gas_used\":\"57206\",\"created_contract\":null,\"position\":173,\"nonce\":84753,\"has_error_in_internal_txs\":null,\"actions\":[],\"decoded_input\":{\"method_call\":\"transfer(address dst, uint256 rawAmount)\",\"method_id\":\"a9059cbb\",\"parameters\":[{\"name\":\"dst\",\"type\":\"address\",\"value\":\"0xcc7b9a1d36e23e00292688eccf5b26f7ea2fb9da\"},{\"name\":\"rawAmount\",\"type\":\"uint256\",\"value\":\"710900948900000000000\"}]},\"token_transfers_overflow\":null,\"raw_input\":\"0xa9059cbb000000000000000000000000cc7b9a1d36e23e00292688eccf5b26f7ea2fb9da00000000000000000000000000000000000000000000002689bb8682889f6800\",\"value\":\"0\",\"max_priority_fee_per_gas\":null,\"revert_reason\":null,\"confirmation_duration\":[0,12121],\"tx_tag\":null},{\"timestamp\":\"2024-06-12T20:10:47.000000Z\",\"fee\":{\"type\":\"actual\",\"value\":\"523083168153000\"},\"gas_limit\":\"100000\",\"block\":20078046,\"status\":\"ok\",\"method\":null,\"confirmations\":1,\"type\":0,\"exchange_rate\":\"3528.14\",\"to\":{\"ens_domain_name\":null,\"hash\":\"0x6C80049052A5086D7d575658524802b51D5bA79a\",\"implementation_name\":null,\"implementations\":[],\"is_contract\":false,\"is_verified\":false,\"metadata\":null,\"name\":null,\"private_tags\":[],\"public_tags\":[],\"watchlist_names\":[]},\"tx_burnt_fee\":null,\"max_fee_per_gas\":null,\"result\":\"success\",\"hash\":\"0x01bd1627136c1c83990d74a738662fcad196b44ba55e2523307848c1b5dae1f6\",\"gas_price\":\"24908722293\",\"priority_fee\":null,\"base_fee_per_gas\":\"21855515606\",\"from\":{\"ens_domain_name\":null,\"hash\":\"0xcF7105FDE573695D62666aeFa4e1691bf3Ab50d5\",\"implementation_name\":null,\"implementations\":[],\"is_contract\":false,\"is_verified\":null,\"metadata\":null,\"name\":null,\"private_tags\":[],\"public_tags\":[],\"watchlist_names\":[]},\"token_transfers\":null,\"tx_types\":[\"coin_transfer\"],\"gas_used\":\"21000\",\"created_contract\":null,\"position\":172,\"nonce\":84752,\"has_error_in_internal_txs\":null,\"actions\":[],\"decoded_input\":null,\"token_transfers_overflow\":null,\"raw_input\":\"0x\",\"value\":\"1717125570000000000\",\"max_priority_fee_per_gas\":null,\"revert_reason\":null,\"confirmation_duration\":[0,12121],\"tx_tag\":null},{\"timestamp\":\"2024-06-12T20:10:47.000000Z\",\"fee\":{\"type\":\"actual\",\"value\":\"517657651644000\"},\"gas_limit\":\"100000\",\"block\":20078046,\"status\":\"ok\",\"method\":null,\"confirmations\":1,\"type\":0,\"exchange_rate\":\"3528.14\",\"to\":{\"ens_domain_name\":null,\"hash\":\"0x62E035b30F7CcD98CA0E71497D971b15C1fd2727\",\"implementation_name\":null,\"implementations\":[],\"is_contract\":false,\"is_verified\":false,\"metadata\":null,\"name\":null,\"private_tags\":[],\"public_tags\":[],\"watchlist_names\":[]},\"tx_burnt_fee\":null,\"max_fee_per_gas\":null,\"result\":\"success\",\"hash\":\"0xb6ec65082a494f01b8a082e6b2b213e642278909605f6962cfcf8d08a0cedfa8\",\"gas_price\":\"24650364364\",\"priority_fee\":null,\"base_fee_per_gas\":\"21855515606\",\"from\":{\"ens_domain_name\":null,\"hash\":\"0xcF7105FDE573695D62666aeFa4e1691bf3Ab50d5\",\"implementation_name\":null,\"implementations\":[],\"is_contract\":false,\"is_verified\":null,\"metadata\":null,\"name\":null,\"private_tags\":[],\"public_tags\":[],\"watchlist_names\":[]},\"token_transfers\":null,\"tx_types\":[\"coin_transfer\"],\"gas_used\":\"21000\",\"created_contract\":null,\"position\":171,\"nonce\":84751,\"has_error_in_internal_txs\":null,\"actions\":[],\"decoded_input\":null,\"token_transfers_overflow\":null,\"raw_input\":\"0x\",\"value\":\"19470000000000000\",\"max_priority_fee_per_gas\":null,\"revert_reason\":null,\"confirmation_duration\":[0,12121],\"tx_tag\":null},{\"timestamp\":\"2024-06-12T20:10:47.000000Z\",\"fee\":{\"type\":\"actual\",\"value\":\"503452269894000\"},\"gas_limit\":\"100000\",\"block\":20078046,\"status\":\"ok\",\"method\":null,\"confirmations\":1,\"type\":0,\"exchange_rate\":\"3528.14\",\"to\":{\"ens_domain_name\":null,\"hash\":\"0x864168Ec29e9d346896Af816006f7f84C8616055\",\"implementation_name\":null,\"implementations\":[],\"is_contract\":false,\"is_verified\":false,\"metadata\":null,\"name\":null,\"private_tags\":[],\"public_tags\":[],\"watchlist_names\":[]},\"tx_burnt_fee\":null,\"max_fee_per_gas\":null,\"result\":\"success\",\"hash\":\"0x2bf2d2341bee6c9c5fbe967d8378a5485c10e9cdd5a7af7e39e1ebb9a0c01f09\",\"gas_price\":\"23973917614\",\"priority_fee\":null,\"base_fee_per_gas\":\"21855515606\",\"from\":{\"ens_domain_name\":null,\"hash\":\"0xcF7105FDE573695D62666aeFa4e1691bf3Ab50d5\",\"implementation_name\":null,\"implementations\":[],\"is_contract\":false,\"is_verified\":null,\"metadata\":null,\"name\":null,\"private_tags\":[],\"public_tags\":[],\"watchlist_names\":[]},\"token_transfers\":null,\"tx_types\":[\"coin_transfer\"],\"gas_used\":\"21000\",\"created_contract\":null,\"position\":170,\"nonce\":84750,\"has_error_in_internal_txs\":null,\"actions\":[],\"decoded_input\":null,\"token_transfers_overflow\":null,\"raw_input\":\"0x\",\"value\":\"6641660000000000\",\"max_priority_fee_per_gas\":null,\"revert_reason\":null,\"confirmation_duration\":[0,12121],\"tx_tag\":null},{\"timestamp\":\"2024-06-12T20:10:47.000000Z\",\"fee\":{\"type\":\"actual\",\"value\":\"492451384656000\"},\"gas_limit\":\"100000\",\"block\":20078046,\"status\":\"ok\",\"method\":null,\"confirmations\":1,\"type\":0,\"exchange_rate\":\"3528.14\",\"to\":{\"ens_domain_name\":null,\"hash\":\"0xbd6dcb57F86fb9F4bDc64fD9325e07759b604C16\",\"implementation_name\":null,\"implementations\":[],\"is_contract\":false,\"is_verified\":false,\"metadata\":null,\"name\":null,\"private_tags\":[],\"public_tags\":[],\"watchlist_names\":[]},\"tx_burnt_fee\":null,\"max_fee_per_gas\":null,\"result\":\"success\",\"hash\":\"0x2e7d372cb660f22d125a7f2d64b59f6bcfdd225ffc8a9c0f2e0da03c0f6cf56b\",\"gas_price\":\"23450065936\",\"priority_fee\":null,\"base_fee_per_gas\":\"21855515606\",\"from\":{\"ens_domain_name\":null,\"hash\":\"0xcF7105FDE573695D62666aeFa4e1691bf3Ab50d5\",\"implementation_name\":null,\"implementations\":[],\"is_contract\":false,\"is_verified\":null,\"metadata\":null,\"name\":null,\"private_tags\":[],\"public_tags\":[],\"watchlist_names\":[]},\"token_transfers\":null,\"tx_types\":[\"coin_transfer\"],\"gas_used\":\"21000\",\"created_contract\":null,\"position\":169,\"nonce\":84749,\"has_error_in_internal_txs\":null,\"actions\":[],\"decoded_input\":null,\"token_transfers_overflow\":null,\"raw_input\":\"0x\",\"value\":\"131718270000000000\",\"max_priority_fee_per_gas\":null,\"revert_reason\":null,\"confirmation_duration\":[0,12121],\"tx_tag\":null},{\"timestamp\":\"2024-06-12T20:10:47.000000Z\",\"fee\":{\"type\":\"actual\",\"value\":\"492451384656000\"},\"gas_limit\":\"100000\",\"block\":20078046,\"status\":\"ok\",\"method\":null,\"confirmations\":1,\"type\":0,\"exchange_rate\":\"3528.14\",\"to\":{\"ens_domain_name\":null,\"hash\":\"0x0Ae23455F4F0A01876401691dF13223d1B62168D\",\"implementation_name\":null,\"implementations\":[],\"is_contract\":false,\"is_verified\":false,\"metadata\":null,\"name\":null,\"private_tags\":[],\"public_tags\":[],\"watchlist_names\":[]},\"tx_burnt_fee\":null,\"max_fee_per_gas\":null,\"result\":\"success\",\"hash\":\"0x4fd580d618e078b34092473685ad52585f5827dde57d1074a0430cae91bc36b7\",\"gas_price\":\"23450065936\",\"priority_fee\":null,\"base_fee_per_gas\":\"21855515606\",\"from\":{\"ens_domain_name\":null,\"hash\":\"0xcF7105FDE573695D62666aeFa4e1691bf3Ab50d5\",\"implementation_name\":null,\"implementations\":[],\"is_contract\":false,\"is_verified\":null,\"metadata\":null,\"name\":null,\"private_tags\":[],\"public_tags\":[],\"watchlist_names\":[]},\"token_transfers\":null,\"tx_types\":[\"coin_transfer\"],\"gas_used\":\"21000\",\"created_contract\":null,\"position\":168,\"nonce\":84748,\"has_error_in_internal_txs\":null,\"actions\":[],\"decoded_input\":null,\"token_transfers_overflow\":null,\"raw_input\":\"0x\",\"value\":\"83860170000000000\",\"max_priority_fee_per_gas\":null,\"revert_reason\":null,\"confirmation_duration\":[0,12121],\"tx_tag\":null},{\"timestamp\":\"2024-06-12T20:10:47.000000Z\",\"fee\":{\"type\":\"actual\",\"value\":\"459812385480000\"},\"gas_limit\":\"100000\",\"block\":20078046,\"status\":\"ok\",\"method\":null,\"confirmations\":1,\"type\":0,\"exchange_rate\":\"3528.14\",\"to\":{\"ens_domain_name\":null,\"hash\":\"0x377E87b72298B6eC6C5B38c1174237E09E835EF5\",\"implementation_name\":null,\"implementations\":[],\"is_contract\":false,\"is_verified\":false,\"metadata\":null,\"name\":null,\"private_tags\":[],\"public_tags\":[],\"watchlist_names\":[]},\"tx_burnt_fee\":null,\"max_fee_per_gas\":null,\"result\":\"success\",\"hash\":\"0xc3f04fc6f4d324dd55af4060c218258768a55f2d491a79cbf728c8e8e0a5cc62\",\"gas_price\":\"21895827880\",\"priority_fee\":null,\"base_fee_per_gas\":\"21855515606\",\"from\":{\"ens_domain_name\":null,\"hash\":\"0xcF7105FDE573695D62666aeFa4e1691bf3Ab50d5\",\"implementation_name\":null,\"implementations\":[],\"is_contract\":false,\"is_verified\":null,\"metadata\":null,\"name\":null,\"private_tags\":[],\"public_tags\":[],\"watchlist_names\":[]},\"token_transfers\":null,\"tx_types\":[\"coin_transfer\"],\"gas_used\":\"21000\",\"created_contract\":null,\"position\":167,\"nonce\":84747,\"has_error_in_internal_txs\":null,\"actions\":[],\"decoded_input\":null,\"token_transfers_overflow\":null,\"raw_input\":\"0x\",\"value\":\"11360800000000000\",\"max_priority_fee_per_gas\":null,\"revert_reason\":null,\"confirmation_duration\":[0,12121],\"tx_tag\":null},{\"timestamp\":\"2024-06-12T20:10:47.000000Z\",\"fee\":{\"type\":\"actual\",\"value\":\"559878514737048\"},\"gas_limit\":\"236589\",\"block\":20078046,\"status\":\"error\",\"method\":\"0x30a28ffc\",\"confirmations\":1,\"type\":2,\"exchange_rate\":\"3528.14\",\"to\":{\"ens_domain_name\":null,\"hash\":\"0x51C72848c68a965f66FA7a88855F9f7784502a7F\",\"implementation_name\":null,\"implementations\":[],\"is_contract\":true,\"is_verified\":false,\"metadata\":{\"tags\":[{\"meta\":{},\"name\":\"MEV BOT\",\"ordinal\":0,\"slug\":\"mev-bot\",\"tagType\":\"note\"},{\"meta\":{},\"name\":\"MEV Bot: 0x51Ca7F\",\"ordinal\":0,\"slug\":\"mev-bot-0x51ca7f\",\"tagType\":\"name\"}]},\"name\":null,\"private_tags\":[],\"public_tags\":[],\"watchlist_names\":[]},\"tx_burnt_fee\":\"557905746874362\",\"max_fee_per_gas\":\"21932797224\",\"result\":\"awaiting_internal_transactions\",\"hash\":\"0x8a24bdf1fda1522f15402a9c6159224eebed8544751ff97ceb478d4a8da09108\",\"gas_price\":\"21932797224\",\"priority_fee\":\"1972767862686\",\"base_fee_per_gas\":\"21855515606\",\"from\":{\"ens_domain_name\":null,\"hash\":\"0xCf5a33920272e28F220d14c84416474de53f30B9\",\"implementation_name\":null,\"implementations\":[],\"is_contract\":false,\"is_verified\":null,\"metadata\":null,\"name\":null,\"private_tags\":[],\"public_tags\":[],\"watchlist_names\":[]},\"token_transfers\":null,\"tx_types\":[\"contract_call\"],\"gas_used\":\"25527\",\"created_contract\":null,\"position\":166,\"nonce\":4076,\"has_error_in_internal_txs\":null,\"actions\":[],\"decoded_input\":null,\"token_transfers_overflow\":null,\"raw_input\":\"0x30a28ffc0000000000000000000000000000000000000000000000000000000000000000000000000000000000000000a43fe16908251ee70ef74718545e4fe6c5ccec9f0000000000000000000000006982508145454ce325ddbe47a25d4ec3d2311933000000000000000000000000000000000000000006059ddab00493000000000000000000000000000000000000000000000000000000000000000000000000000000000000000000000000000000000000000000000000005df4977f05c40400000000000000000000000000000000000000000000000000000000006669fee3\",\"value\":\"0\",\"max_priority_fee_per_gas\":\"21932797224\",\"revert_reason\":null,\"confirmation_duration\":[0,12121],\"tx_tag\":null},{\"timestamp\":\"2024-06-12T20:10:47.000000Z\",\"fee\":{\"type\":\"actual\",\"value\":\"461065827726000\"},\"gas_limit\":\"21000\",\"block\":20078046,\"status\":\"ok\",\"method\":null,\"confirmations\":1,\"type\":2,\"exchange_rate\":\"3528.14\",\"to\":{\"ens_domain_name\":null,\"hash\":\"0x80C67432656d59144cEFf962E8fAF8926599bCF8\",\"implementation_name\":null,\"implementations\":[],\"is_contract\":false,\"is_verified\":false,\"metadata\":{\"tags\":[{\"meta\":{},\"name\":\"BRIDGE\",\"ordinal\":0,\"slug\":\"bridge\",\"tagType\":\"note\"},{\"meta\":{},\"name\":\"Orbiter Finance: Bridge\",\"ordinal\":0,\"slug\":\"orbiter-finance-bridge\",\"tagType\":\"name\"}]},\"name\":null,\"private_tags\":[],\"public_tags\":[],\"watchlist_names\":[]},\"tx_burnt_fee\":\"458965827726000\",\"max_fee_per_gas\":\"32377490615\",\"result\":\"success\",\"hash\":\"0xa4180ece46ec6fb47238814fcb4eca083d6dec46d99b655f7e6f972824321f36\",\"gas_price\":\"21955515606\",\"priority_fee\":\"2100000000000\",\"base_fee_per_gas\":\"21855515606\",\"from\":{\"ens_domain_name\":null,\"hash\":\"0x888f183eB4034d3EFaB4c41BFB9955b364eecf70\",\"implementation_name\":null,\"implementations\":[],\"is_contract\":false,\"is_verified\":null,\"metadata\":null,\"name\":null,\"private_tags\":[],\"public_tags\":[],\"watchlist_names\":[]},\"token_transfers\":null,\"tx_types\":[\"coin_transfer\"],\"gas_used\":\"21000\",\"created_contract\":null,\"position\":165,\"nonce\":725,\"has_error_in_internal_txs\":null,\"actions\":[],\"decoded_input\":null,\"token_transfers_overflow\":null,\"raw_input\":\"0x\",\"value\":\"3001500000000009021\",\"max_priority_fee_per_gas\":\"100000000\",\"revert_reason\":null,\"confirmation_duration\":[0,12121],\"tx_tag\":null},{\"timestamp\":\"2024-06-12T20:10:47.000000Z\",\"fee\":{\"type\":\"actual\",\"value\":\"461065827726000\"},\"gas_limit\":\"21000\",\"block\":20078046,\"status\":\"ok\",\"method\":null,\"confirmations\":1,\"type\":2,\"exchange_rate\":\"3528.14\",\"to\":{\"ens_domain_name\":\"medicinaregenerativa.eth\",\"hash\":\"0x664112C810c6f9280bF5FdD100673fC914389045\",\"implementation_name\":null,\"implementations\":[],\"is_contract\":false,\"is_verified\":false,\"metadata\":null,\"name\":null,\"private_tags\":[],\"public_tags\":[],\"watchlist_names\":[]},\"tx_burnt_fee\":\"458965827726000\",\"max_fee_per_gas\":\"25000000000\",\"result\":\"success\",\"hash\":\"0x800fdef7d8efc6c2d4ddf3428cbf07186c9e7eac3109f52cdc75255f95cd88d4\",\"gas_price\":\"21955515606\",\"priority_fee\":\"2100000000000\",\"base_fee_per_gas\":\"21855515606\",\"from\":{\"ens_domain_name\":null,\"hash\":\"0x22ff3371D121584080C728222bFa1eFB49c2018D\",\"implementation_name\":null,\"implementations\":[],\"is_contract\":false,\"is_verified\":null,\"metadata\":null,\"name\":null,\"private_tags\":[],\"public_tags\":[],\"watchlist_names\":[]},\"token_transfers\":null,\"tx_types\":[\"coin_transfer\"],\"gas_used\":\"21000\",\"created_contract\":null,\"position\":164,\"nonce\":19,\"has_error_in_internal_txs\":null,\"actions\":[],\"decoded_input\":null,\"token_transfers_overflow\":null,\"raw_input\":\"0x\",\"value\":\"65000000000000000\",\"max_priority_fee_per_gas\":\"100000000\",\"revert_reason\":null,\"confirmation_duration\":[0,12121],\"tx_tag\":null},{\"timestamp\":\"2024-06-12T20:10:47.000000Z\",\"fee\":{\"type\":\"actual\",\"value\":\"461065827726000\"},\"gas_limit\":\"31500\",\"block\":20078046,\"status\":\"ok\",\"method\":null,\"confirmations\":1,\"type\":2,\"exchange_rate\":\"3528.14\",\"to\":{\"ens_domain_name\":null,\"hash\":\"0x743283AC27CC828e13eafF31754C8E968EC197D2\",\"implementation_name\":null,\"implementations\":[],\"is_contract\":false,\"is_verified\":false,\"metadata\":null,\"name\":null,\"private_tags\":[],\"public_tags\":[],\"watchlist_names\":[]},\"tx_burnt_fee\":\"458965827726000\",\"max_fee_per_gas\":\"30487053729\",\"result\":\"success\",\"hash\":\"0x20df26a8b6b2423eadf489de9b6a767eb6fb330cb0914b787ec5bf496c4e455c\",\"gas_price\":\"21955515606\",\"priority_fee\":\"2100000000000\",\"base_fee_per_gas\":\"21855515606\",\"from\":{\"ens_domain_name\":null,\"hash\":\"0xcb41958F8fac71bab0b2Def14cE1A350c9db90e7\",\"implementation_name\":null,\"implementations\":[],\"is_contract\":false,\"is_verified\":null,\"metadata\":null,\"name\":null,\"private_tags\":[],\"public_tags\":[],\"watchlist_names\":[]},\"token_transfers\":null,\"tx_types\":[\"coin_transfer\"],\"gas_used\":\"21000\",\"created_contract\":null,\"position\":163,\"nonce\":0,\"has_error_in_internal_txs\":null,\"actions\":[],\"decoded_input\":null,\"token_transfers_overflow\":null,\"raw_input\":\"0x\",\"value\":\"141000000000000000\",\"max_priority_fee_per_gas\":\"100000000\",\"revert_reason\":null,\"confirmation_duration\":[0,12121],\"tx_tag\":null},{\"timestamp\":\"2024-06-12T20:10:47.000000Z\",\"fee\":{\"type\":\"actual\",\"value\":\"461065827726000\"},\"gas_limit\":\"21000\",\"block\":20078046,\"status\":\"ok\",\"method\":null,\"confirmations\":1,\"type\":2,\"exchange_rate\":\"3528.14\",\"to\":{\"ens_domain_name\":null,\"hash\":\"0xBEa12Bb7bd9bBF2dcD39Ed77c27Cf2B3bC8A54A1\",\"implementation_name\":null,\"implementations\":[],\"is_contract\":false,\"is_verified\":false,\"metadata\":null,\"name\":null,\"private_tags\":[],\"public_tags\":[],\"watchlist_names\":[]},\"tx_burnt_fee\":\"458965827726000\",\"max_fee_per_gas\":\"30487053729\",\"result\":\"success\",\"hash\":\"0x6191365c28f18c8c1e8a6cddc0fa615e1a626155be10612bc2f2c8b2914ce4f2\",\"gas_price\":\"21955515606\",\"priority_fee\":\"2100000000000\",\"base_fee_per_gas\":\"21855515606\",\"from\":{\"ens_domain_name\":null,\"hash\":\"0xdbeEB6550a55f89a906eB128EcC0fE371Ae96cA9\",\"implementation_name\":null,\"implementations\":[],\"is_contract\":false,\"is_verified\":null,\"metadata\":null,\"name\":null,\"private_tags\":[],\"public_tags\":[],\"watchlist_names\":[]},\"token_transfers\":null,\"tx_types\":[\"coin_transfer\"],\"gas_used\":\"21000\",\"created_contract\":null,\"position\":162,\"nonce\":225,\"has_error_in_internal_txs\":null,\"actions\":[],\"decoded_input\":null,\"token_transfers_overflow\":null,\"raw_input\":\"0x\",\"value\":\"1501831061396412\",\"max_priority_fee_per_gas\":\"100000000\",\"revert_reason\":null,\"confirmation_duration\":[0,12121],\"tx_tag\":null},{\"timestamp\":\"2024-06-12T20:10:47.000000Z\",\"fee\":{\"type\":\"actual\",\"value\":\"461065827726000\"},\"gas_limit\":\"21000\",\"block\":20078046,\"status\":\"ok\",\"method\":null,\"confirmations\":1,\"type\":2,\"exchange_rate\":\"3528.14\",\"to\":{\"ens_domain_name\":null,\"hash\":\"0x44C732462913308A1b2Fdc91390f0E35AECabA89\",\"implementation_name\":null,\"implementations\":[],\"is_contract\":false,\"is_verified\":false,\"metadata\":null,\"name\":null,\"private_tags\":[],\"public_tags\":[],\"watchlist_names\":[]},\"tx_burnt_fee\":\"458965827726000\",\"max_fee_per_gas\":\"30487053729\",\"result\":\"success\",\"hash\":\"0x05a765a83dd9f6abdadc9b7de579233eb645f2d6a7bc6808638269738a2886a3\",\"gas_price\":\"21955515606\",\"priority_fee\":\"2100000000000\",\"base_fee_per_gas\":\"21855515606\",\"from\":{\"ens_domain_name\":null,\"hash\":\"0xac03dE9B242D9d9B9b05D30cC47B7d5f288478fE\",\"implementation_name\":null,\"implementations\":[],\"is_contract\":false,\"is_verified\":null,\"metadata\":null,\"name\":null,\"private_tags\":[],\"public_tags\":[],\"watchlist_names\":[]},\"token_transfers\":null,\"tx_types\":[\"coin_transfer\"],\"gas_used\":\"21000\",\"created_contract\":null,\"position\":161,\"nonce\":802,\"has_error_in_internal_txs\":null,\"actions\":[],\"decoded_input\":null,\"token_transfers_overflow\":null,\"raw_input\":\"0x\",\"value\":\"78277110662048000\",\"max_priority_fee_per_gas\":\"100000000\",\"revert_reason\":null,\"confirmation_duration\":[0,12121],\"tx_tag\":null},{\"timestamp\":\"2024-06-12T20:10:47.000000Z\",\"fee\":{\"type\":\"actual\",\"value\":\"461065827726000\"},\"gas_limit\":\"21000\",\"block\":20078046,\"status\":\"ok\",\"method\":null,\"confirmations\":1,\"type\":2,\"exchange_rate\":\"3528.14\",\"to\":{\"ens_domain_name\":null,\"hash\":\"0x9Bc62Ca734Ec9781Cd8E53C608250C94a6A8F174\",\"implementation_name\":null,\"implementations\":[],\"is_contract\":false,\"is_verified\":false,\"metadata\":{\"tags\":[{\"meta\":{\"bgColor\":\"#8465CB\",\"tagIcon\":\"data:image/svg+xml;utf8,%3Csvg%20xmlns%3D%22http%3A%2F%2Fwww.w3.org%2F2000%2Fsvg%22%20xmlns%3Axlink%3D%22http%3A%2F%2Fwww.w3.org%2F1999%2Fxlink%22%20viewBox%3D%220%200%2032%2029%22%3E%3Cpath%20d%3D%22M%205.507%200.072%20L%2026.097%200.072%20L%2026.097%204.167%20L%2031.952%204.167%20L%2030.725%208.263%20L%2029.686%208.263%20L%2029.686%2024.833%20C%2030.207%2024.833%2030.63%2025.249%2030.63%2025.763%20L%2030.63%2026.88%20L%2030.819%2026.88%20C%2031.341%2026.88%2031.764%2027.297%2031.764%2027.811%20L%2031.764%2028.928%20L%2021.185%2028.928%20L%2021.185%2027.811%20C%2021.185%2027.297%2021.608%2026.88%2022.13%2026.88%20L%2022.319%2026.88%20L%2022.319%2025.763%20C%2022.319%2025.316%2022.639%2024.943%2023.065%2024.853%20L%2023.045%2015.71%20C%2022.711%2012.057%2019.596%209.194%2015.802%209.194%20C%2012.008%209.194%208.893%2012.057%208.559%2015.71%20L%208.539%2024.845%20C%209.043%2024.919%209.663%2025.302%209.663%2025.763%20L%209.663%2026.88%20L%209.852%2026.88%20C%2010.373%2026.88%2010.796%2027.297%2010.796%2027.811%20L%2010.796%2028.928%20L%200.218%2028.928%20L%200.218%2027.811%20C%200.218%2027.297%200.641%2026.88%201.162%2026.88%20L%201.351%2026.88%20L%201.351%2025.763%20C%201.351%2025.249%201.774%2024.833%202.296%2024.833%20L%202.296%208.263%20L%201.257%208.263%20L%200.029%204.167%20L%205.507%204.167%20L%205.507%200.072%20Z%22%20fill%3D%22rgb(255%2C%20255%2C%20255)%22%3E%3C%2Fpath%3E%3Cpath%20d%3D%22M%2026.097%200.072%20L%2026.166%200.072%20L%2026.166%200.004%20L%2026.097%200.004%20Z%20M%205.507%200.072%20L%205.507%200.004%20L%205.438%200.004%20L%205.438%200.072%20Z%20M%2026.097%204.167%20L%2026.028%204.167%20L%2026.028%204.235%20L%2026.097%204.235%20Z%20M%2031.952%204.167%20L%2032.019%204.187%20L%2032.045%204.099%20L%2031.952%204.099%20L%2031.952%204.167%20Z%20M%2030.725%208.263%20L%2030.725%208.331%20L%2030.776%208.331%20L%2030.791%208.282%20Z%20M%2029.686%208.263%20L%2029.686%208.195%20L%2029.617%208.195%20L%2029.617%208.263%20Z%20M%2029.686%2024.833%20L%2029.617%2024.833%20L%2029.617%2024.901%20L%2029.686%2024.901%20Z%20M%2030.63%2026.88%20L%2030.561%2026.88%20L%2030.561%2026.948%20L%2030.63%2026.948%20Z%20M%2031.764%2028.928%20L%2031.764%2028.996%20L%2031.832%2028.996%20L%2031.832%2028.928%20Z%20M%2021.185%2028.928%20L%2021.116%2028.928%20L%2021.116%2028.996%20L%2021.185%2028.996%20Z%20M%2022.319%2026.88%20L%2022.319%2026.948%20L%2022.388%2026.948%20L%2022.388%2026.88%20Z%20M%2023.065%2024.853%20L%2023.08%2024.919%20L%2023.134%2024.908%20L%2023.134%2024.853%20Z%20M%2023.045%2015.71%20L%2023.114%2015.71%20L%2023.114%2015.707%20L%2023.113%2015.704%20Z%20M%208.559%2015.71%20L%208.49%2015.704%20L%208.49%2015.707%20L%208.49%2015.71%20Z%20M%208.539%2024.845%20L%208.47%2024.845%20L%208.469%2024.904%20L%208.528%2024.913%20Z%20M%209.663%2026.88%20L%209.594%2026.88%20L%209.594%2026.948%20L%209.663%2026.948%20Z%20M%2010.796%2028.928%20L%2010.796%2028.996%20L%2010.865%2028.996%20L%2010.865%2028.928%20Z%20M%200.218%2028.928%20L%200.149%2028.928%20L%200.149%2028.996%20L%200.218%2028.996%20Z%20M%201.351%2026.88%20L%201.351%2026.948%20L%201.42%2026.948%20L%201.42%2026.88%20Z%20M%202.296%2024.833%20L%202.296%2024.901%20L%202.365%2024.901%20L%202.365%2024.833%20Z%20M%202.296%208.263%20L%202.365%208.263%20L%202.365%208.195%20L%202.296%208.195%20Z%20M%201.257%208.263%20L%201.191%208.282%20L%201.205%208.331%20L%201.257%208.331%20Z%20M%200.029%204.167%20L%200.029%204.1%20L%20-0.063%204.1%20L%20-0.037%204.187%20L%200.029%204.167%20Z%20M%205.507%204.167%20L%205.507%204.235%20L%205.576%204.235%20L%205.576%204.167%20Z%20M%2026.097%200.004%20L%205.507%200.004%20L%205.507%200.139%20L%2026.097%200.139%20Z%20M%2026.166%204.167%20L%2026.166%200.072%20L%2026.028%200.072%20L%2026.028%204.167%20L%2026.166%204.167%20Z%20M%2031.952%204.099%20L%2026.097%204.099%20L%2026.097%204.235%20L%2031.952%204.235%20Z%20M%2030.791%208.282%20L%2032.019%204.187%20L%2031.886%204.148%20L%2030.658%208.244%20Z%20M%2029.686%208.331%20L%2030.725%208.331%20L%2030.725%208.195%20L%2029.686%208.195%20Z%20M%2029.755%2024.833%20L%2029.755%208.263%20L%2029.617%208.263%20L%2029.617%2024.833%20Z%20M%2030.699%2025.763%20C%2030.699%2025.212%2030.245%2024.765%2029.686%2024.765%20L%2029.686%2024.9%20C%2030.169%2024.9%2030.561%2025.287%2030.561%2025.763%20Z%20M%2030.699%2026.88%20L%2030.699%2025.763%20L%2030.561%2025.763%20L%2030.561%2026.88%20Z%20M%2030.819%2026.813%20L%2030.63%2026.813%20L%2030.63%2026.948%20L%2030.819%2026.948%20Z%20M%2031.832%2027.811%20C%2031.832%2027.26%2031.379%2026.813%2030.819%2026.813%20L%2030.819%2026.948%20C%2031.303%2026.948%2031.695%2027.335%2031.695%2027.811%20Z%20M%2031.832%2028.928%20L%2031.832%2027.811%20L%2031.695%2027.811%20L%2031.695%2028.928%20Z%20M%2026.097%2028.996%20L%2031.764%2028.996%20L%2031.764%2028.86%20L%2026.097%2028.86%20Z%20M%2023.074%2028.996%20L%2026.097%2028.996%20L%2026.097%2028.86%20L%2023.074%2028.86%20Z%20M%2021.185%2028.996%20L%2023.074%2028.996%20L%2023.074%2028.86%20L%2021.185%2028.86%20Z%20M%2021.116%2027.811%20L%2021.116%2028.928%20L%2021.254%2028.928%20L%2021.254%2027.811%20Z%20M%2022.13%2026.813%20C%2021.57%2026.813%2021.116%2027.26%2021.116%2027.811%20L%2021.254%2027.811%20C%2021.254%2027.335%2021.646%2026.948%2022.13%2026.948%20Z%20M%2022.319%2026.813%20L%2022.13%2026.813%20L%2022.13%2026.948%20L%2022.319%2026.948%20Z%20M%2022.25%2025.763%20L%2022.25%2026.88%20L%2022.388%2026.88%20L%2022.388%2025.763%20Z%20M%2023.051%2024.787%20C%2022.593%2024.883%2022.25%2025.284%2022.25%2025.763%20L%2022.388%2025.763%20C%2022.388%2025.349%2022.684%2025.003%2023.08%2024.919%20Z%20M%2022.976%2015.71%20L%2022.996%2024.853%20L%2023.134%2024.853%20L%2023.114%2015.71%20Z%20M%2015.802%209.262%20C%2019.559%209.262%2022.645%2012.098%2022.976%2015.716%20L%2023.113%2015.704%20C%2022.776%2012.016%2019.632%209.126%2015.802%209.126%20Z%20M%208.628%2015.716%20C%208.959%2012.098%2012.044%209.262%2015.802%209.262%20L%2015.802%209.126%20C%2011.972%209.126%208.828%2012.016%208.49%2015.704%20Z%20M%208.608%2024.845%20L%208.628%2015.71%20L%208.49%2015.71%20L%208.47%2024.845%20Z%20M%209.732%2025.763%20C%209.732%2025.502%209.557%2025.273%209.331%2025.105%20C%209.104%2024.935%208.812%2024.817%208.549%2024.778%20L%208.528%2024.912%20C%208.769%2024.948%209.039%2025.057%209.248%2025.213%20C%209.459%2025.37%209.594%2025.563%209.594%2025.763%20Z%20M%209.732%2026.88%20L%209.732%2025.763%20L%209.594%2025.763%20L%209.594%2026.88%20Z%20M%209.852%2026.813%20L%209.663%2026.813%20L%209.663%2026.948%20L%209.852%2026.948%20Z%20M%2010.865%2027.811%20C%2010.865%2027.26%2010.411%2026.813%209.852%2026.813%20L%209.852%2026.948%20C%2010.335%2026.948%2010.727%2027.335%2010.727%2027.811%20Z%20M%2010.865%2028.928%20L%2010.865%2027.811%20L%2010.727%2027.811%20L%2010.727%2028.928%20Z%20M%208.529%2028.996%20L%2010.796%2028.996%20L%2010.796%2028.86%20L%208.529%2028.86%20Z%20M%208.372%2028.996%20L%208.529%2028.996%20L%208.529%2028.86%20L%208.372%2028.86%20Z%20M%205.507%2028.996%20L%208.372%2028.996%20L%208.372%2028.86%20L%205.507%2028.86%20Z%20M%200.218%2028.996%20L%205.507%2028.996%20L%205.507%2028.86%20L%200.218%2028.86%20Z%20M%200.149%2027.811%20L%200.149%2028.928%20L%200.287%2028.928%20L%200.287%2027.811%20Z%20M%201.162%2026.813%20C%200.603%2026.813%200.149%2027.26%200.149%2027.811%20L%200.287%2027.811%20C%200.287%2027.335%200.679%2026.948%201.162%2026.948%20Z%20M%201.351%2026.813%20L%201.162%2026.813%20L%201.162%2026.948%20L%201.351%2026.948%20Z%20M%201.282%2025.763%20L%201.282%2026.88%20L%201.42%2026.88%20L%201.42%2025.763%20Z%20M%202.296%2024.765%20C%201.736%2024.765%201.282%2025.212%201.282%2025.763%20L%201.42%2025.763%20C%201.42%2025.287%201.812%2024.9%202.296%2024.9%20Z%20M%202.227%208.263%20L%202.227%2024.833%20L%202.365%2024.833%20L%202.365%208.263%20Z%20M%201.257%208.331%20L%202.296%208.331%20L%202.296%208.195%20L%201.257%208.195%20Z%20M%20-0.037%204.187%20L%201.191%208.282%20L%201.323%208.244%20L%200.095%204.148%20Z%20M%205.507%204.099%20L%200.029%204.099%20L%200.029%204.235%20L%205.507%204.235%20L%205.507%204.099%20Z%20M%205.438%200.072%20L%205.438%204.167%20L%205.576%204.167%20L%205.576%200.072%20Z%22%20fill%3D%22rgb(255%2C255%2C255)%22%3E%3C%2Fpath%3E%3C%2Fsvg%3E\",\"tagUrl\":\"https://warpcast.com/microslav\",\"textColor\":\"#FFFFFF\",\"tooltipDescription\":\"This address is linked to a Farcaster account\"},\"name\":\"Farcaster\",\"ordinal\":0,\"slug\":\"warpcast-account\",\"tagType\":\"classifier\"}]},\"name\":null,\"private_tags\":[],\"public_tags\":[],\"watchlist_names\":[]},\"tx_burnt_fee\":\"458965827726000\",\"max_fee_per_gas\":\"33661920948\",\"result\":\"success\",\"hash\":\"0x65d98fbcd55db0e2087a6c0f2a6a570c48ed673a844630f935db27f79d347fe7\",\"gas_price\":\"21955515606\",\"priority_fee\":\"2100000000000\",\"base_fee_per_gas\":\"21855515606\",\"from\":{\"ens_domain_name\":null,\"hash\":\"0xdc8b2CB141b0E70c253dDe74fEEC5d17eAAd9056\",\"implementation_name\":null,\"implementations\":[],\"is_contract\":false,\"is_verified\":null,\"metadata\":null,\"name\":null,\"private_tags\":[],\"public_tags\":[],\"watchlist_names\":[]},\"token_transfers\":null,\"tx_types\":[\"coin_transfer\"],\"gas_used\":\"21000\",\"created_contract\":null,\"position\":160,\"nonce\":9,\"has_error_in_internal_txs\":null,\"actions\":[],\"decoded_input\":null,\"token_transfers_overflow\":null,\"raw_input\":\"0x\",\"value\":\"10000000000000000\",\"max_priority_fee_per_gas\":\"100000000\",\"revert_reason\":null,\"confirmation_duration\":[0,12121],\"tx_tag\":null},{\"timestamp\":\"2024-06-12T20:10:47.000000Z\",\"fee\":{\"type\":\"actual\",\"value\":\"461065827726000\"},\"gas_limit\":\"21000\",\"block\":20078046,\"status\":\"ok\",\"method\":null,\"confirmations\":1,\"type\":2,\"exchange_rate\":\"3528.14\",\"to\":{\"ens_domain_name\":null,\"hash\":\"0x80C67432656d59144cEFf962E8fAF8926599bCF8\",\"implementation_name\":null,\"implementations\":[],\"is_contract\":false,\"is_verified\":false,\"metadata\":{\"tags\":[{\"meta\":{},\"name\":\"BRIDGE\",\"ordinal\":0,\"slug\":\"bridge\",\"tagType\":\"note\"},{\"meta\":{},\"name\":\"Orbiter Finance: Bridge\",\"ordinal\":0,\"slug\":\"orbiter-finance-bridge\",\"tagType\":\"name\"}]},\"name\":null,\"private_tags\":[],\"public_tags\":[],\"watchlist_names\":[]},\"tx_burnt_fee\":\"458965827726000\",\"max_fee_per_gas\":\"31272430916\",\"result\":\"success\",\"hash\":\"0xe589ae10822507b4d2e79db553d488510b0e8e8a67aa2a697c5a17aee49edd46\",\"gas_price\":\"21955515606\",\"priority_fee\":\"2100000000000\",\"base_fee_per_gas\":\"21855515606\",\"from\":{\"ens_domain_name\":null,\"hash\":\"0x02c4a5Bca81037044D6D8e3508A3f6f88eA9c8eB\",\"implementation_name\":null,\"implementations\":[],\"is_contract\":false,\"is_verified\":null,\"metadata\":null,\"name\":null,\"private_tags\":[],\"public_tags\":[],\"watchlist_names\":[]},\"token_transfers\":null,\"tx_types\":[\"coin_transfer\"],\"gas_used\":\"21000\",\"created_contract\":null,\"position\":159,\"nonce\":45,\"has_error_in_internal_txs\":null,\"actions\":[],\"decoded_input\":null,\"token_transfers_overflow\":null,\"raw_input\":\"0x\",\"value\":\"4526000000009021\",\"max_priority_fee_per_gas\":\"100000000\",\"revert_reason\":null,\"confirmation_duration\":[0,12121],\"tx_tag\":null},{\"timestamp\":\"2024-06-12T20:10:47.000000Z\",\"fee\":{\"type\":\"actual\",\"value\":\"461065827726000\"},\"gas_limit\":\"21000\",\"block\":20078046,\"status\":\"ok\",\"method\":null,\"confirmations\":1,\"type\":2,\"exchange_rate\":\"3528.14\",\"to\":{\"ens_domain_name\":null,\"hash\":\"0x80C67432656d59144cEFf962E8fAF8926599bCF8\",\"implementation_name\":null,\"implementations\":[],\"is_contract\":false,\"is_verified\":false,\"metadata\":{\"tags\":[{\"meta\":{},\"name\":\"BRIDGE\",\"ordinal\":0,\"slug\":\"bridge\",\"tagType\":\"note\"},{\"meta\":{},\"name\":\"Orbiter Finance: Bridge\",\"ordinal\":0,\"slug\":\"orbiter-finance-bridge\",\"tagType\":\"name\"}]},\"name\":null,\"private_tags\":[],\"public_tags\":[],\"watchlist_names\":[]},\"tx_burnt_fee\":\"458965827726000\",\"max_fee_per_gas\":\"30159919877\",\"result\":\"success\",\"hash\":\"0xa53710f09d4fa43830937e34abf090900f4b798a31f15b58a34ac71a42c55897\",\"gas_price\":\"21955515606\",\"priority_fee\":\"2100000000000\",\"base_fee_per_gas\":\"21855515606\",\"from\":{\"ens_domain_name\":null,\"hash\":\"0xC441fCd2E080A01F451b63e9b6BA4b524C5E1d58\",\"implementation_name\":null,\"implementations\":[],\"is_contract\":false,\"is_verified\":null,\"metadata\":{\"tags\":[{\"meta\":{},\"name\":\"METAMASK USER\",\"ordinal\":0,\"slug\":\"metamask-user\",\"tagType\":\"note\"}]},\"name\":null,\"private_tags\":[],\"public_tags\":[],\"watchlist_names\":[]},\"token_transfers\":null,\"tx_types\":[\"coin_transfer\"],\"gas_used\":\"21000\",\"created_contract\":null,\"position\":158,\"nonce\":309,\"has_error_in_internal_txs\":null,\"actions\":[],\"decoded_input\":null,\"token_transfers_overflow\":null,\"raw_input\":\"0x\",\"value\":\"13500000000009023\",\"max_priority_fee_per_gas\":\"100000000\",\"revert_reason\":null,\"confirmation_duration\":[0,12121],\"tx_tag\":null},{\"timestamp\":\"2024-06-12T20:10:47.000000Z\",\"fee\":{\"type\":\"actual\",\"value\":\"461065827726000\"},\"gas_limit\":\"21000\",\"block\":20078046,\"status\":\"ok\",\"method\":null,\"confirmations\":1,\"type\":2,\"exchange_rate\":\"3528.14\",\"to\":{\"ens_domain_name\":null,\"hash\":\"0x3C503675c5Ed08d5Fa7eE5f41B4a4E14ab95FD07\",\"implementation_name\":null,\"implementations\":[],\"is_contract\":false,\"is_verified\":false,\"metadata\":null,\"name\":null,\"private_tags\":[],\"public_tags\":[],\"watchlist_names\":[]},\"tx_burnt_fee\":\"458965827726000\",\"max_fee_per_gas\":\"32377490615\",\"result\":\"success\",\"hash\":\"0x723f37b764f8877d4c1dc9addae00f13d642a4f3a8912379688ae5cc1fd886ac\",\"gas_price\":\"21955515606\",\"priority_fee\":\"2100000000000\",\"base_fee_per_gas\":\"21855515606\",\"from\":{\"ens_domain_name\":null,\"hash\":\"0x90C66C041f13cc99178C867431c82ADaCB3cb491\",\"implementation_name\":null,\"implementations\":[],\"is_contract\":false,\"is_verified\":null,\"metadata\":null,\"name\":null,\"private_tags\":[],\"public_tags\":[],\"watchlist_names\":[]},\"token_transfers\":null,\"tx_types\":[\"coin_transfer\"],\"gas_used\":\"21000\",\"created_contract\":null,\"position\":157,\"nonce\":221,\"has_error_in_internal_txs\":null,\"actions\":[],\"decoded_input\":null,\"token_transfers_overflow\":null,\"raw_input\":\"0x\",\"value\":\"49524445010935477\",\"max_priority_fee_per_gas\":\"100000000\",\"revert_reason\":null,\"confirmation_duration\":[0,12121],\"tx_tag\":null},{\"timestamp\":\"2024-06-12T20:10:47.000000Z\",\"fee\":{\"type\":\"actual\",\"value\":\"461065827726000\"},\"gas_limit\":\"21000\",\"block\":20078046,\"status\":\"ok\",\"method\":null,\"confirmations\":1,\"type\":2,\"exchange_rate\":\"3528.14\",\"to\":{\"ens_domain_name\":null,\"hash\":\"0x53ce7b144D26255f5000a12db9aaFE8191815a45\",\"implementation_name\":null,\"implementations\":[],\"is_contract\":false,\"is_verified\":false,\"metadata\":null,\"name\":null,\"private_tags\":[],\"public_tags\":[],\"watchlist_names\":[]},\"tx_burnt_fee\":\"458965827726000\",\"max_fee_per_gas\":\"31272430916\",\"result\":\"success\",\"hash\":\"0xbf0ddf0943c51c1fb5c594dbdd6a86133bfbb7c1a4e70a3652fdde6f64ef9054\",\"gas_price\":\"21955515606\",\"priority_fee\":\"2100000000000\",\"base_fee_per_gas\":\"21855515606\",\"from\":{\"ens_domain_name\":null,\"hash\":\"0xD2db4C42E2dC9D727107B162a9dD4CB99b9601aC\",\"implementation_name\":null,\"implementations\":[],\"is_contract\":false,\"is_verified\":null,\"metadata\":null,\"name\":null,\"private_tags\":[],\"public_tags\":[],\"watchlist_names\":[]},\"token_transfers\":null,\"tx_types\":[\"coin_transfer\"],\"gas_used\":\"21000\",\"created_contract\":null,\"position\":156,\"nonce\":31,\"has_error_in_internal_txs\":null,\"actions\":[],\"decoded_input\":null,\"token_transfers_overflow\":null,\"raw_input\":\"0x\",\"value\":\"307532000000000000\",\"max_priority_fee_per_gas\":\"100000000\",\"revert_reason\":null,\"confirmation_duration\":[0,12121],\"tx_tag\":null},{\"timestamp\":\"2024-06-12T20:10:47.000000Z\",\"fee\":{\"type\":\"actual\",\"value\":\"461065827726000\"},\"gas_limit\":\"21000\",\"block\":20078046,\"status\":\"ok\",\"method\":null,\"confirmations\":1,\"type\":2,\"exchange_rate\":\"3528.14\",\"to\":{\"ens_domain_name\":null,\"hash\":\"0xa287690201A8C2acfB47CFA1FD932585174a786e\",\"implementation_name\":null,\"implementations\":[],\"is_contract\":false,\"is_verified\":false,\"metadata\":null,\"name\":null,\"private_tags\":[],\"public_tags\":[],\"watchlist_names\":[]},\"tx_burnt_fee\":\"458965827726000\",\"max_fee_per_gas\":\"31272430916\",\"result\":\"success\",\"hash\":\"0x7d55a1cefe48b66e769171ddc2c55cda3647434d1cf4c848f7839c43352ddbe8\",\"gas_price\":\"21955515606\",\"priority_fee\":\"2100000000000\",\"base_fee_per_gas\":\"21855515606\",\"from\":{\"ens_domain_name\":null,\"hash\":\"0xCC37A4DB3B6172b0d876CDDE12D98C65CcA48013\",\"implementation_name\":null,\"implementations\":[],\"is_contract\":false,\"is_verified\":null,\"metadata\":null,\"name\":null,\"private_tags\":[],\"public_tags\":[],\"watchlist_names\":[]},\"token_transfers\":null,\"tx_types\":[\"coin_transfer\"],\"gas_used\":\"21000\",\"created_contract\":null,\"position\":155,\"nonce\":129,\"has_error_in_internal_txs\":null,\"actions\":[],\"decoded_input\":null,\"token_transfers_overflow\":null,\"raw_input\":\"0x\",\"value\":\"4000000000000000\",\"max_priority_fee_per_gas\":\"100000000\",\"revert_reason\":null,\"confirmation_duration\":[0,12121],\"tx_tag\":null},{\"timestamp\":\"2024-06-12T20:10:47.000000Z\",\"fee\":{\"type\":\"actual\",\"value\":\"461065827726000\"},\"gas_limit\":\"21000\",\"block\":20078046,\"status\":\"ok\",\"method\":null,\"confirmations\":1,\"type\":2,\"exchange_rate\":\"3528.14\",\"to\":{\"ens_domain_name\":null,\"hash\":\"0x80C67432656d59144cEFf962E8fAF8926599bCF8\",\"implementation_name\":null,\"implementations\":[],\"is_contract\":false,\"is_verified\":false,\"metadata\":{\"tags\":[{\"meta\":{},\"name\":\"BRIDGE\",\"ordinal\":0,\"slug\":\"bridge\",\"tagType\":\"note\"},{\"meta\":{},\"name\":\"Orbiter Finance: Bridge\",\"ordinal\":0,\"slug\":\"orbiter-finance-bridge\",\"tagType\":\"name\"}]},\"name\":null,\"private_tags\":[],\"public_tags\":[],\"watchlist_names\":[]},\"tx_burnt_fee\":\"458965827726000\",\"max_fee_per_gas\":\"31272430916\",\"result\":\"success\",\"hash\":\"0xad0294b0f6ccc8f55872660663eaf4aba6b6128d7977db288842ff3c5dd420c3\",\"gas_price\":\"21955515606\",\"priority_fee\":\"2100000000000\",\"base_fee_per_gas\":\"21855515606\",\"from\":{\"ens_domain_name\":null,\"hash\":\"0xdCcc04F86eC44EAc30cf4BE9653e267b07f00000\",\"implementation_name\":null,\"implementations\":[],\"is_contract\":false,\"is_verified\":null,\"metadata\":null,\"name\":null,\"private_tags\":[],\"public_tags\":[],\"watchlist_names\":[]},\"token_transfers\":null,\"tx_types\":[\"coin_transfer\"],\"gas_used\":\"21000\",\"created_contract\":null,\"position\":154,\"nonce\":422,\"has_error_in_internal_txs\":null,\"actions\":[],\"decoded_input\":null,\"token_transfers_overflow\":null,\"raw_input\":\"0x\",\"value\":\"500470000000009002\",\"max_priority_fee_per_gas\":\"100000000\",\"revert_reason\":null,\"confirmation_duration\":[0,12121],\"tx_tag\":null},{\"timestamp\":\"2024-06-12T20:10:47.000000Z\",\"fee\":{\"type\":\"actual\",\"value\":\"461065827726000\"},\"gas_limit\":\"21000\",\"block\":20078046,\"status\":\"ok\",\"method\":null,\"confirmations\":1,\"type\":2,\"exchange_rate\":\"3528.14\",\"to\":{\"ens_domain_name\":null,\"hash\":\"0x4b926EFef321531744FcB293761499B52eDb65f1\",\"implementation_name\":null,\"implementations\":[],\"is_contract\":false,\"is_verified\":false,\"metadata\":null,\"name\":null,\"private_tags\":[],\"public_tags\":[],\"watchlist_names\":[]},\"tx_burnt_fee\":\"458965827726000\",\"max_fee_per_gas\":\"31272430916\",\"result\":\"success\",\"hash\":\"0xc2f2412221ed564281c38be0b10160290864dfb09b4fe8545d24ff12f29e72db\",\"gas_price\":\"21955515606\",\"priority_fee\":\"2100000000000\",\"base_fee_per_gas\":\"21855515606\",\"from\":{\"ens_domain_name\":null,\"hash\":\"0x5a371ec9c6E4b9c45677c61BAD260460AfA8d809\",\"implementation_name\":null,\"implementations\":[],\"is_contract\":false,\"is_verified\":null,\"metadata\":null,\"name\":null,\"private_tags\":[],\"public_tags\":[],\"watchlist_names\":[]},\"token_transfers\":null,\"tx_types\":[\"coin_transfer\"],\"gas_used\":\"21000\",\"created_contract\":null,\"position\":153,\"nonce\":4,\"has_error_in_internal_txs\":null,\"actions\":[],\"decoded_input\":null,\"token_transfers_overflow\":null,\"raw_input\":\"0x\",\"value\":\"7470481875496509\",\"max_priority_fee_per_gas\":\"100000000\",\"revert_reason\":null,\"confirmation_duration\":[0,12121],\"tx_tag\":null},{\"timestamp\":\"2024-06-12T20:10:47.000000Z\",\"fee\":{\"type\":\"actual\",\"value\":\"461065827726000\"},\"gas_limit\":\"21000\",\"block\":20078046,\"status\":\"ok\",\"method\":null,\"confirmations\":1,\"type\":2,\"exchange_rate\":\"3528.14\",\"to\":{\"ens_domain_name\":null,\"hash\":\"0x1873ADB5E26644747d100E9BE09daCeeF199feBC\",\"implementation_name\":null,\"implementations\":[],\"is_contract\":false,\"is_verified\":false,\"metadata\":null,\"name\":null,\"private_tags\":[],\"public_tags\":[],\"watchlist_names\":[]},\"tx_burnt_fee\":\"458965827726000\",\"max_fee_per_gas\":\"25000000000\",\"result\":\"success\",\"hash\":\"0x0fed1fb9c9d8bc0342017f8c4a8e959b6a012665dc8e983e42a6842db461de18\",\"gas_price\":\"21955515606\",\"priority_fee\":\"2100000000000\",\"base_fee_per_gas\":\"21855515606\",\"from\":{\"ens_domain_name\":null,\"hash\":\"0xD0B0ba9598c04f927B6921B6964356FD4f4a049f\",\"implementation_name\":null,\"implementations\":[],\"is_contract\":false,\"is_verified\":null,\"metadata\":null,\"name\":null,\"private_tags\":[],\"public_tags\":[],\"watchlist_names\":[]},\"token_transfers\":null,\"tx_types\":[\"coin_transfer\"],\"gas_used\":\"21000\",\"created_contract\":null,\"position\":152,\"nonce\":88,\"has_error_in_internal_txs\":null,\"actions\":[],\"decoded_input\":null,\"token_transfers_overflow\":null,\"raw_input\":\"0x\",\"value\":\"1800000000000000000\",\"max_priority_fee_per_gas\":\"100000000\",\"revert_reason\":null,\"confirmation_duration\":[0,12121],\"tx_tag\":null},{\"timestamp\":\"2024-06-12T20:10:47.000000Z\",\"fee\":{\"type\":\"actual\",\"value\":\"461065827726000\"},\"gas_limit\":\"21000\",\"block\":20078046,\"status\":\"ok\",\"method\":null,\"confirmations\":1,\"type\":2,\"exchange_rate\":\"3528.14\",\"to\":{\"ens_domain_name\":null,\"hash\":\"0x2D3FfE373FF014B9c105F2aAdEEBB94dE20cB889\",\"implementation_name\":null,\"implementations\":[],\"is_contract\":false,\"is_verified\":false,\"metadata\":null,\"name\":null,\"private_tags\":[],\"public_tags\":[],\"watchlist_names\":[]},\"tx_burnt_fee\":\"458965827726000\",\"max_fee_per_gas\":\"32377490615\",\"result\":\"success\",\"hash\":\"0x0c6980308d1dec36d0d24a3eff4bf743cf6c4f036a67e7f140c99a8bf3380278\",\"gas_price\":\"21955515606\",\"priority_fee\":\"2100000000000\",\"base_fee_per_gas\":\"21855515606\",\"from\":{\"ens_domain_name\":null,\"hash\":\"0x2cA04A957d6D0d24d188F5CDf3C77AF83b1a43AC\",\"implementation_name\":null,\"implementations\":[],\"is_contract\":false,\"is_verified\":null,\"metadata\":null,\"name\":null,\"private_tags\":[],\"public_tags\":[],\"watchlist_names\":[]},\"token_transfers\":null,\"tx_types\":[\"coin_transfer\"],\"gas_used\":\"21000\",\"created_contract\":null,\"position\":151,\"nonce\":46,\"has_error_in_internal_txs\":null,\"actions\":[],\"decoded_input\":null,\"token_transfers_overflow\":null,\"raw_input\":\"0x\",\"value\":\"11378586109728000\",\"max_priority_fee_per_gas\":\"100000000\",\"revert_reason\":null,\"confirmation_duration\":[0,12121],\"tx_tag\":null},{\"timestamp\":\"2024-06-12T20:10:47.000000Z\",\"fee\":{\"type\":\"actual\",\"value\":\"461065827726000\"},\"gas_limit\":\"31500\",\"block\":20078046,\"status\":\"ok\",\"method\":null,\"confirmations\":1,\"type\":2,\"exchange_rate\":\"3528.14\",\"to\":{\"ens_domain_name\":null,\"hash\":\"0x6505F943b9B322Bc268cc3fF89D83734B68FD4b6\",\"implementation_name\":null,\"implementations\":[],\"is_contract\":false,\"is_verified\":false,\"metadata\":null,\"name\":null,\"private_tags\":[],\"public_tags\":[],\"watchlist_names\":[]},\"tx_burnt_fee\":\"458965827726000\",\"max_fee_per_gas\":\"30487053729\",\"result\":\"success\",\"hash\":\"0x49d86dc9b56744e91275a94451ee55afb515551b856833a9c9b0e8c658d5a80c\",\"gas_price\":\"21955515606\",\"priority_fee\":\"2100000000000\",\"base_fee_per_gas\":\"21855515606\",\"from\":{\"ens_domain_name\":null,\"hash\":\"0x9A0C150Bf775dfA255E7BaEB5DF91D985D7A6f4d\",\"implementation_name\":null,\"implementations\":[],\"is_contract\":false,\"is_verified\":null,\"metadata\":null,\"name\":null,\"private_tags\":[],\"public_tags\":[],\"watchlist_names\":[]},\"token_transfers\":null,\"tx_types\":[\"coin_transfer\"],\"gas_used\":\"21000\",\"created_contract\":null,\"position\":150,\"nonce\":0,\"has_error_in_internal_txs\":null,\"actions\":[],\"decoded_input\":null,\"token_transfers_overflow\":null,\"raw_input\":\"0x\",\"value\":\"6197000000000000\",\"max_priority_fee_per_gas\":\"100000000\",\"revert_reason\":null,\"confirmation_duration\":[0,12121],\"tx_tag\":null},{\"timestamp\":\"2024-06-12T20:10:47.000000Z\",\"fee\":{\"type\":\"actual\",\"value\":\"461065827726000\"},\"gas_limit\":\"21000\",\"block\":20078046,\"status\":\"ok\",\"method\":null,\"confirmations\":1,\"type\":2,\"exchange_rate\":\"3528.14\",\"to\":{\"ens_domain_name\":null,\"hash\":\"0x20662Dcad85Bbd11013D1f169ca471C441E2053f\",\"implementation_name\":null,\"implementations\":[],\"is_contract\":false,\"is_verified\":false,\"metadata\":null,\"name\":null,\"private_tags\":[],\"public_tags\":[],\"watchlist_names\":[]},\"tx_burnt_fee\":\"458965827726000\",\"max_fee_per_gas\":\"32377490615\",\"result\":\"success\",\"hash\":\"0x945dc6c5cdbe15c8ca9785da056706c4a0cd87d8ab81c79994ab9e0e3e516410\",\"gas_price\":\"21955515606\",\"priority_fee\":\"2100000000000\",\"base_fee_per_gas\":\"21855515606\",\"from\":{\"ens_domain_name\":null,\"hash\":\"0x357027D88a6576214112745B7DCC36C9dad5baAb\",\"implementation_name\":null,\"implementations\":[],\"is_contract\":false,\"is_verified\":null,\"metadata\":null,\"name\":null,\"private_tags\":[],\"public_tags\":[],\"watchlist_names\":[]},\"token_transfers\":null,\"tx_types\":[\"coin_transfer\"],\"gas_used\":\"21000\",\"created_contract\":null,\"position\":149,\"nonce\":0,\"has_error_in_internal_txs\":null,\"actions\":[],\"decoded_input\":null,\"token_transfers_overflow\":null,\"raw_input\":\"0x\",\"value\":\"1755952697085000\",\"max_priority_fee_per_gas\":\"100000000\",\"revert_reason\":null,\"confirmation_duration\":[0,12121],\"tx_tag\":null},{\"timestamp\":\"2024-06-12T20:10:47.000000Z\",\"fee\":{\"type\":\"actual\",\"value\":\"461065827726000\"},\"gas_limit\":\"21000\",\"block\":20078046,\"status\":\"ok\",\"method\":null,\"confirmations\":1,\"type\":2,\"exchange_rate\":\"3528.14\",\"to\":{\"ens_domain_name\":null,\"hash\":\"0x410823fc37d55dd108C1A22cE3E2a2d6da737cE4\",\"implementation_name\":null,\"implementations\":[],\"is_contract\":false,\"is_verified\":false,\"metadata\":null,\"name\":null,\"private_tags\":[],\"public_tags\":[],\"watchlist_names\":[]},\"tx_burnt_fee\":\"458965827726000\",\"max_fee_per_gas\":\"31272430916\",\"result\":\"success\",\"hash\":\"0xa98a686d0b9a86473590ae944330a1d702fb4d4ddd58337cd76442fb1a28a51b\",\"gas_price\":\"21955515606\",\"priority_fee\":\"2100000000000\",\"base_fee_per_gas\":\"21855515606\",\"from\":{\"ens_domain_name\":\"bigfud.eth\",\"hash\":\"0x9bE23A60f7Bc2b8f18f7c2CF1EEe67D8394be752\",\"implementation_name\":null,\"implementations\":[],\"is_contract\":false,\"is_verified\":null,\"metadata\":null,\"name\":null,\"private_tags\":[],\"public_tags\":[],\"watchlist_names\":[]},\"token_transfers\":null,\"tx_types\":[\"coin_transfer\"],\"gas_used\":\"21000\",\"created_contract\":null,\"position\":148,\"nonce\":179,\"has_error_in_internal_txs\":null,\"actions\":[],\"decoded_input\":null,\"token_transfers_overflow\":null,\"raw_input\":\"0x\",\"value\":\"5000000000000000\",\"max_priority_fee_per_gas\":\"100000000\",\"revert_reason\":null,\"confirmation_duration\":[0,12121],\"tx_tag\":null},{\"timestamp\":\"2024-06-12T20:10:47.000000Z\",\"fee\":{\"type\":\"actual\",\"value\":\"461065827726000\"},\"gas_limit\":\"21000\",\"block\":20078046,\"status\":\"ok\",\"method\":null,\"confirmations\":1,\"type\":2,\"exchange_rate\":\"3528.14\",\"to\":{\"ens_domain_name\":null,\"hash\":\"0x85Cfa4fdd1A3C2eBAa1baA4eC7da37B156Ef193a\",\"implementation_name\":null,\"implementations\":[],\"is_contract\":false,\"is_verified\":false,\"metadata\":null,\"name\":null,\"private_tags\":[],\"public_tags\":[],\"watchlist_names\":[]},\"tx_burnt_fee\":\"458965827726000\",\"max_fee_per_gas\":\"30487053729\",\"result\":\"success\",\"hash\":\"0xd961a5973c55094178c98de065449bd97d53aed8425131e0b07540a42c03943a\",\"gas_price\":\"21955515606\",\"priority_fee\":\"2100000000000\",\"base_fee_per_gas\":\"21855515606\",\"from\":{\"ens_domain_name\":null,\"hash\":\"0x5d75d181C0E9d899DD97582ED8E6C3Ee25b191a1\",\"implementation_name\":null,\"implementations\":[],\"is_contract\":false,\"is_verified\":null,\"metadata\":null,\"name\":null,\"private_tags\":[],\"public_tags\":[],\"watchlist_names\":[]},\"token_transfers\":null,\"tx_types\":[\"coin_transfer\"],\"gas_used\":\"21000\",\"created_contract\":null,\"position\":147,\"nonce\":8,\"has_error_in_internal_txs\":null,\"actions\":[],\"decoded_input\":null,\"token_transfers_overflow\":null,\"raw_input\":\"0x\",\"value\":\"1000000000000000\",\"max_priority_fee_per_gas\":\"100000000\",\"revert_reason\":null,\"confirmation_duration\":[0,12121],\"tx_tag\":null},{\"timestamp\":\"2024-06-12T20:10:47.000000Z\",\"fee\":{\"type\":\"actual\",\"value\":\"4972502500507278\"},\"gas_limit\":\"287706\",\"block\":20078046,\"status\":\"ok\",\"method\":\"swap\",\"confirmations\":1,\"type\":2,\"exchange_rate\":\"3528.14\",\"to\":{\"ens_domain_name\":null,\"hash\":\"0x111111125421cA6dc452d289314280a0f8842A65\",\"implementation_name\":null,\"implementations\":[],\"is_contract\":true,\"is_verified\":true,\"metadata\":{\"tags\":[{\"meta\":{},\"name\":\"1inch Network : Aggregation Router V6\",\"ordinal\":0,\"slug\":\"1inch-network--aggregation-router-v6\",\"tagType\":\"name\"}]},\"name\":\"AggregationRouterV6\",\"private_tags\":[],\"public_tags\":[],\"watchlist_names\":[]},\"tx_burnt_fee\":\"4970228370507278\",\"max_fee_per_gas\":\"85022910946\",\"result\":\"success\",\"hash\":\"0x2c212b60873f23411d9750f17293a42114e01881a00ace10b5ece0f12ae4a838\",\"gas_price\":\"21865515606\",\"priority_fee\":\"2274130000000\",\"base_fee_per_gas\":\"21855515606\",\"from\":{\"ens_domain_name\":null,\"hash\":\"0xFFE24093Cb617FEA6154724105cf851F25056017\",\"implementation_name\":null,\"implementations\":[],\"is_contract\":false,\"is_verified\":null,\"metadata\":null,\"name\":null,\"private_tags\":[],\"public_tags\":[],\"watchlist_names\":[]},\"token_transfers\":null,\"tx_types\":[\"contract_call\",\"token_transfer\"],\"gas_used\":\"227413\",\"created_contract\":null,\"position\":146,\"nonce\":2316,\"has_error_in_internal_txs\":null,\"actions\":[],\"decoded_input\":{\"method_call\":\"swap(address executor, (address,address,address,address,uint256,uint256,uint256) desc, bytes data)\",\"method_id\":\"07ed2379\",\"parameters\":[{\"name\":\"executor\",\"type\":\"address\",\"value\":\"0xe37e799d5077682fa0a244d46e5649f71457bd09\"},{\"name\":\"desc\",\"type\":\"(address,address,address,address,uint256,uint256,uint256)\",\"value\":[\"0xa0b86991c6218b36c1d19d4a2e9eb0ce3606eb48\",\"0x2260fac5e5542a773aa44fbcfedf7c193bc2c599\",\"0xe37e799d5077682fa0a244d46e5649f71457bd09\",\"0xffe24093cb617fea6154724105cf851f25056017\",\"251845193989\",\"367309479\",\"0\"]},{\"name\":\"data\",\"type\":\"bytes\",\"value\":\"0x00000000000000000000000000000000000000016800013a00010c0000c200a007e5c0d200000000000000000000000000000000000000000000000000009e00004f02a00000000000000000000000000000000000000000000034cb1371326623f234d4ee63c1e5005777d92f208679db4b9778590fa3cab3ac9e2168a0b86991c6218b36c1d19d4a2e9eb0ce3606eb4802a00000000000000000000000000000000000000000000000000000000015e49e1eee63c1e500391e8501b626c623d39474afca6f9e46c26866496b175474e89094c44da98b954eedeac495271d0f00a0f2fa6b662260fac5e5542a773aa44fbcfedf7c193bc2c59900000000000000000000000000000000000000000000000000000000161d4f9c00000000000000000000000000001cc980a06c4eca272260fac5e5542a773aa44fbcfedf7c193bc2c599111111125421ca6dc452d289314280a0f8842a650020d6bdbf782260fac5e5542a773aa44fbcfedf7c193bc2c599111111125421ca6dc452d289314280a0f8842a65\"}]},\"token_transfers_overflow\":null,\"raw_input\":\"0x07ed2379000000000000000000000000e37e799d5077682fa0a244d46e5649f71457bd09000000000000000000000000a0b86991c6218b36c1d19d4a2e9eb0ce3606eb480000000000000000000000002260fac5e5542a773aa44fbcfedf7c193bc2c599000000000000000000000000e37e799d5077682fa0a244d46e5649f71457bd09000000000000000000000000ffe24093cb617fea6154724105cf851f250560170000000000000000000000000000000000000000000000000000003aa324b1050000000000000000000000000000000000000000000000000000000015e4b2a700000000000000000000000000000000000000000000000000000000000000000000000000000000000000000000000000000000000000000000000000000120000000000000000000000000000000000000000000000000000000000000018600000000000000000000000000000000000000016800013a00010c0000c200a007e5c0d200000000000000000000000000000000000000000000000000009e00004f02a00000000000000000000000000000000000000000000034cb1371326623f234d4ee63c1e5005777d92f208679db4b9778590fa3cab3ac9e2168a0b86991c6218b36c1d19d4a2e9eb0ce3606eb4802a00000000000000000000000000000000000000000000000000000000015e49e1eee63c1e500391e8501b626c623d39474afca6f9e46c26866496b175474e89094c44da98b954eedeac495271d0f00a0f2fa6b662260fac5e5542a773aa44fbcfedf7c193bc2c59900000000000000000000000000000000000000000000000000000000161d4f9c00000000000000000000000000001cc980a06c4eca272260fac5e5542a773aa44fbcfedf7c193bc2c599111111125421ca6dc452d289314280a0f8842a650020d6bdbf782260fac5e5542a773aa44fbcfedf7c193bc2c599111111125421ca6dc452d289314280a0f8842a650000000000000000000000000000000000000000000000000000e26b9977\",\"value\":\"0\",\"max_priority_fee_per_gas\":\"10000000\",\"revert_reason\":null,\"confirmation_duration\":[0,12121],\"tx_tag\":null},{\"timestamp\":\"2024-06-12T20:10:47.000000Z\",\"fee\":{\"type\":\"actual\",\"value\":\"1016985467524156\"},\"gas_limit\":\"70214\",\"block\":20078046,\"status\":\"ok\",\"method\":\"approve\",\"confirmations\":1,\"type\":2,\"exchange_rate\":\"3528.14\",\"to\":{\"ens_domain_name\":null,\"hash\":\"0x525574C899A7c877a11865339e57376092168258\",\"implementation_name\":null,\"implementations\":[],\"is_contract\":true,\"is_verified\":true,\"metadata\":null,\"name\":\"GURUToken\",\"private_tags\":[],\"public_tags\":[],\"watchlist_names\":[]},\"tx_burnt_fee\":\"1014664167524156\",\"max_fee_per_gas\":\"24000000000\",\"result\":\"success\",\"hash\":\"0xabaf0cfecad56d7e60691b9b5d95f489444cf4b86fc28ce766661eb9ac388db1\",\"gas_price\":\"21905515606\",\"priority_fee\":\"2321300000000\",\"base_fee_per_gas\":\"21855515606\",\"from\":{\"ens_domain_name\":null,\"hash\":\"0xeE468cCf66D52154CaA3b512a33Bf1dC47D96F72\",\"implementation_name\":null,\"implementations\":[],\"is_contract\":false,\"is_verified\":null,\"metadata\":null,\"name\":null,\"private_tags\":[],\"public_tags\":[],\"watchlist_names\":[]},\"token_transfers\":null,\"tx_types\":[\"contract_call\"],\"gas_used\":\"46426\",\"created_contract\":null,\"position\":145,\"nonce\":82,\"has_error_in_internal_txs\":null,\"actions\":[],\"decoded_input\":{\"method_call\":\"approve(address spender, uint256 value)\",\"method_id\":\"095ea7b3\",\"parameters\":[{\"name\":\"spender\",\"type\":\"address\",\"value\":\"0x111111125421ca6dc452d289314280a0f8842a65\"},{\"name\":\"value\",\"type\":\"uint256\",\"value\":\"3652665153903219793262\"}]},\"token_transfers_overflow\":null,\"raw_input\":\"0x095ea7b3000000000000000000000000111111125421ca6dc452d289314280a0f8842a650000000000000000000000000000000000000000000000c602e974d358f15d6e\",\"value\":\"0\",\"max_priority_fee_per_gas\":\"50000000\",\"revert_reason\":null,\"confirmation_duration\":[0,12121],\"tx_tag\":null},{\"timestamp\":\"2024-06-12T20:10:47.000000Z\",\"fee\":{\"type\":\"actual\",\"value\":\"1437353367562434\"},\"gas_limit\":\"400000\",\"block\":20078046,\"status\":\"ok\",\"method\":\"transfer\",\"confirmations\":1,\"type\":0,\"exchange_rate\":\"3528.14\",\"to\":{\"ens_domain_name\":null,\"hash\":\"0xdAC17F958D2ee523a2206206994597C13D831ec7\",\"implementation_name\":null,\"implementations\":[],\"is_contract\":true,\"is_verified\":true,\"metadata\":{\"tags\":[{\"meta\":{},\"name\":\"TOKEN CONTRACT\",\"ordinal\":0,\"slug\":\"token-contract\",\"tagType\":\"note\"},{\"meta\":{},\"name\":\"Tether: USDT Stablecoin\",\"ordinal\":0,\"slug\":\"tether-usdt-stablecoin\",\"tagType\":\"name\"},{\"meta\":{},\"name\":\"STABLECOIN\",\"ordinal\":0,\"slug\":\"stablecoin\",\"tagType\":\"note\"}]},\"name\":\"TetherToken\",\"private_tags\":[],\"public_tags\":[],\"watchlist_names\":[]},\"tx_burnt_fee\":null,\"max_fee_per_gas\":null,\"result\":\"success\",\"hash\":\"0x1253a74d111919aa8fabb43dde59b40dca963d1e8f9bb812ea862cab8976ffe9\",\"gas_price\":\"22735378554\",\"priority_fee\":null,\"base_fee_per_gas\":\"21855515606\",\"from\":{\"ens_domain_name\":null,\"hash\":\"0x0802Dd2EDD3f9faD39A9173B4595be819f201d61\",\"implementation_name\":null,\"implementations\":[],\"is_contract\":false,\"is_verified\":null,\"metadata\":null,\"name\":null,\"private_tags\":[],\"public_tags\":[],\"watchlist_names\":[]},\"token_transfers\":null,\"tx_types\":[\"contract_call\",\"token_transfer\"],\"gas_used\":\"63221\",\"created_contract\":null,\"position\":144,\"nonce\":36328,\"has_error_in_internal_txs\":null,\"actions\":[],\"decoded_input\":{\"method_call\":\"transfer(address _to, uint256 _value)\",\"method_id\":\"a9059cbb\",\"parameters\":[{\"name\":\"_to\",\"type\":\"address\",\"value\":\"0xa107826ad381890a4ae0ea60a6cb0b8df703e146\"},{\"name\":\"_value\",\"type\":\"uint256\",\"value\":\"4657523437\"}]},\"token_transfers_overflow\":null,\"raw_input\":\"0xa9059cbb000000000000000000000000a107826ad381890a4ae0ea60a6cb0b8df703e14600000000000000000000000000000000000000000000000000000001159c2aed\",\"value\":\"0\",\"max_priority_fee_per_gas\":null,\"revert_reason\":null,\"confirmation_duration\":[0,12121],\"tx_tag\":null},{\"timestamp\":\"2024-06-12T20:10:47.000000Z\",\"fee\":{\"type\":\"actual\",\"value\":\"1384013384466920\"},\"gas_limit\":\"400000\",\"block\":20078046,\"status\":\"ok\",\"method\":\"transfer\",\"confirmations\":1,\"type\":0,\"exchange_rate\":\"3528.14\",\"to\":{\"ens_domain_name\":null,\"hash\":\"0xdAC17F958D2ee523a2206206994597C13D831ec7\",\"implementation_name\":null,\"implementations\":[],\"is_contract\":true,\"is_verified\":true,\"metadata\":{\"tags\":[{\"meta\":{},\"name\":\"TOKEN CONTRACT\",\"ordinal\":0,\"slug\":\"token-contract\",\"tagType\":\"note\"},{\"meta\":{},\"name\":\"Tether: USDT Stablecoin\",\"ordinal\":0,\"slug\":\"tether-usdt-stablecoin\",\"tagType\":\"name\"},{\"meta\":{},\"name\":\"STABLECOIN\",\"ordinal\":0,\"slug\":\"stablecoin\",\"tagType\":\"note\"}]},\"name\":\"TetherToken\",\"private_tags\":[],\"public_tags\":[],\"watchlist_names\":[]},\"tx_burnt_fee\":null,\"max_fee_per_gas\":null,\"result\":\"success\",\"hash\":\"0x7bc1d21d72b66c4982ca095ae2a468fb73f243a4493d98a90f7d93919730a21f\",\"gas_price\":\"21895827880\",\"priority_fee\":null,\"base_fee_per_gas\":\"21855515606\",\"from\":{\"ens_domain_name\":null,\"hash\":\"0x0802Dd2EDD3f9faD39A9173B4595be819f201d61\",\"implementation_name\":null,\"implementations\":[],\"is_contract\":false,\"is_verified\":null,\"metadata\":null,\"name\":null,\"private_tags\":[],\"public_tags\":[],\"watchlist_names\":[]},\"token_transfers\":null,\"tx_types\":[\"contract_call\",\"token_transfer\"],\"gas_used\":\"63209\",\"created_contract\":null,\"position\":143,\"nonce\":36327,\"has_error_in_internal_txs\":null,\"actions\":[],\"decoded_input\":{\"method_call\":\"transfer(address _to, uint256 _value)\",\"method_id\":\"a9059cbb\",\"parameters\":[{\"name\":\"_to\",\"type\":\"address\",\"value\":\"0xa3eb5ab55d5c780f454f43395763590a0534c6f6\"},{\"name\":\"_value\",\"type\":\"uint256\",\"value\":\"2867029246\"}]},\"token_transfers_overflow\":null,\"raw_input\":\"0xa9059cbb000000000000000000000000a3eb5ab55d5c780f454f43395763590a0534c6f600000000000000000000000000000000000000000000000000000000aae364fe\",\"value\":\"0\",\"max_priority_fee_per_gas\":null,\"revert_reason\":null,\"confirmation_duration\":[0,12121],\"tx_tag\":null},{\"timestamp\":\"2024-06-12T20:10:47.000000Z\",\"fee\":{\"type\":\"actual\",\"value\":\"1200400349693194\"},\"gas_limit\":\"100000\",\"block\":20078046,\"status\":\"ok\",\"method\":\"depositETH\",\"confirmations\":1,\"type\":2,\"exchange_rate\":\"3528.14\",\"to\":{\"ens_domain_name\":null,\"hash\":\"0x5Bcfd99c34cf7E06fc756f6f5aE7400504852bc4\",\"implementation_name\":\"L1BatchBridgeGateway\",\"implementations\":[{\"name\":\"L1BatchBridgeGateway\"}],\"is_contract\":true,\"is_verified\":false,\"metadata\":null,\"name\":null,\"private_tags\":[],\"public_tags\":[],\"watchlist_names\":[]},\"tx_burnt_fee\":\"1197660399693194\",\"max_fee_per_gas\":\"24000000000\",\"result\":\"success\",\"hash\":\"0x39073e8ca5c6ef50b103f41d020eeacc861e253d27ed2dbf963106c0708b55ed\",\"gas_price\":\"21905515606\",\"priority_fee\":\"2739950000000\",\"base_fee_per_gas\":\"21855515606\",\"from\":{\"ens_domain_name\":\"101020.eth\",\"hash\":\"0xA05a3958FBB1E5DF90865D9afcE1f9f0971Fcf52\",\"implementation_name\":null,\"implementations\":[],\"is_contract\":false,\"is_verified\":null,\"metadata\":null,\"name\":null,\"private_tags\":[],\"public_tags\":[],\"watchlist_names\":[]},\"token_transfers\":null,\"tx_types\":[\"coin_transfer\",\"contract_call\"],\"gas_used\":\"54799\",\"created_contract\":null,\"position\":142,\"nonce\":398,\"has_error_in_internal_txs\":null,\"actions\":[],\"decoded_input\":{\"method_call\":\"depositETH()\",\"method_id\":\"f6326fb3\",\"parameters\":[]},\"token_transfers_overflow\":null,\"raw_input\":\"0xf6326fb3\",\"value\":\"270100000000000000\",\"max_priority_fee_per_gas\":\"50000000\",\"revert_reason\":null,\"confirmation_duration\":[0,12121],\"tx_tag\":null},{\"timestamp\":\"2024-06-12T20:10:47.000000Z\",\"fee\":{\"type\":\"actual\",\"value\":\"639542214087174\"},\"gas_limit\":\"29766\",\"block\":20078046,\"status\":\"ok\",\"method\":\"approve\",\"confirmations\":1,\"type\":2,\"exchange_rate\":\"3528.14\",\"to\":{\"ens_domain_name\":null,\"hash\":\"0x2077D81d0c5258230D5a195233941547cB5f0989\",\"implementation_name\":null,\"implementations\":[],\"is_contract\":true,\"is_verified\":false,\"metadata\":null,\"name\":\"Trog\",\"private_tags\":[],\"public_tags\":[],\"watchlist_names\":[]},\"tx_burnt_fee\":\"636629314087174\",\"max_fee_per_gas\":\"30159919877\",\"result\":\"success\",\"hash\":\"0x42bfcce43be0b7fb81346c00e3c104ab93d857dc73f36136b37d541bc1552c94\",\"gas_price\":\"21955515606\",\"priority_fee\":\"2912900000000\",\"base_fee_per_gas\":\"21855515606\",\"from\":{\"ens_domain_name\":null,\"hash\":\"0xA1871f2dBF72abE4CA855359A49A072E0BCf82C1\",\"implementation_name\":null,\"implementations\":[],\"is_contract\":false,\"is_verified\":null,\"metadata\":null,\"name\":null,\"private_tags\":[],\"public_tags\":[],\"watchlist_names\":[]},\"token_transfers\":null,\"tx_types\":[\"contract_call\"],\"gas_used\":\"29129\",\"created_contract\":null,\"position\":141,\"nonce\":75,\"has_error_in_internal_txs\":null,\"actions\":[],\"decoded_input\":{\"method_call\":\"approve(address _spender, uint256 _value)\",\"method_id\":\"095ea7b3\",\"parameters\":[{\"name\":\"_spender\",\"type\":\"address\",\"value\":\"0x000000000022d473030f116ddee9f6b43ac78ba3\"},{\"name\":\"_value\",\"type\":\"uint256\",\"value\":\"92056723045840000\"}]},\"token_transfers_overflow\":null,\"raw_input\":\"0x095ea7b3000000000000000000000000000000000022d473030f116ddee9f6b43ac78ba300000000000000000000000000000000000000000000000001470d1a14557480\",\"value\":\"0\",\"max_priority_fee_per_gas\":\"100000000\",\"revert_reason\":null,\"confirmation_duration\":[0,12121],\"tx_tag\":null},{\"timestamp\":\"2024-06-12T20:10:47.000000Z\",\"fee\":{\"type\":\"actual\",\"value\":\"462000000000000\"},\"gas_limit\":\"21000\",\"block\":20078046,\"status\":\"ok\",\"method\":null,\"confirmations\":1,\"type\":0,\"exchange_rate\":\"3528.14\",\"to\":{\"ens_domain_name\":null,\"hash\":\"0x91B90e7E1faE8E00CC75F9CC5DCd1f133F795F9c\",\"implementation_name\":null,\"implementations\":[],\"is_contract\":false,\"is_verified\":false,\"metadata\":null,\"name\":null,\"private_tags\":[],\"public_tags\":[],\"watchlist_names\":[]},\"tx_burnt_fee\":null,\"max_fee_per_gas\":null,\"result\":\"success\",\"hash\":\"0x947529ed291a5dc1e8e507c964bf58dc7d575dbfef3ac868baf4b6d7d9941e57\",\"gas_price\":\"22000000000\",\"priority_fee\":null,\"base_fee_per_gas\":\"21855515606\",\"from\":{\"ens_domain_name\":null,\"hash\":\"0xB90b0C0AF8f95EA151D0bA345F3D48DB02dE4d7f\",\"implementation_name\":null,\"implementations\":[],\"is_contract\":false,\"is_verified\":null,\"metadata\":null,\"name\":null,\"private_tags\":[],\"public_tags\":[],\"watchlist_names\":[]},\"token_transfers\":null,\"tx_types\":[\"coin_transfer\"],\"gas_used\":\"21000\",\"created_contract\":null,\"position\":140,\"nonce\":1,\"has_error_in_internal_txs\":null,\"actions\":[],\"decoded_input\":null,\"token_transfers_overflow\":null,\"raw_input\":\"0x\",\"value\":\"7032120036365492\",\"max_priority_fee_per_gas\":null,\"revert_reason\":null,\"confirmation_duration\":[0,12121],\"tx_tag\":null},{\"timestamp\":\"2024-06-12T20:10:47.000000Z\",\"fee\":{\"type\":\"actual\",\"value\":\"767323314914094\"},\"gas_limit\":\"35309\",\"block\":20078046,\"status\":\"ok\",\"method\":\"0xcb36c117\",\"confirmations\":1,\"type\":2,\"exchange_rate\":\"3528.14\",\"to\":{\"ens_domain_name\":null,\"hash\":\"0xcB842223040266409A7b4Dc25e7C6f5b248772F3\",\"implementation_name\":null,\"implementations\":[],\"is_contract\":true,\"is_verified\":false,\"metadata\":null,\"name\":null,\"private_tags\":[],\"public_tags\":[],\"watchlist_names\":[]},\"tx_burnt_fee\":\"763828414914094\",\"max_fee_per_gas\":\"32377490615\",\"result\":\"success\",\"hash\":\"0x3fcb3887ff23902353b555d48f4bf651aec6ab926ca16b3aa2699ae9c71abebb\",\"gas_price\":\"21955515606\",\"priority_fee\":\"3494900000000\",\"base_fee_per_gas\":\"21855515606\",\"from\":{\"ens_domain_name\":\"bronkieblubber.eth\",\"hash\":\"0x3E5e0efF90243a8fC9cFc345311fC138CD230734\",\"implementation_name\":null,\"implementations\":[],\"is_contract\":false,\"is_verified\":null,\"metadata\":null,\"name\":null,\"private_tags\":[],\"public_tags\":[],\"watchlist_names\":[]},\"token_transfers\":null,\"tx_types\":[\"contract_call\"],\"gas_used\":\"34949\",\"created_contract\":null,\"position\":139,\"nonce\":158,\"has_error_in_internal_txs\":null,\"actions\":[],\"decoded_input\":null,\"token_transfers_overflow\":null,\"raw_input\":\"0xcb36c11700000000000000000000000000000000000000000000000000000000000026100000000000000000000000000000000000000000000000000000000000000001\",\"value\":\"0\",\"max_priority_fee_per_gas\":\"100000000\",\"revert_reason\":null,\"confirmation_duration\":[0,12121],\"tx_tag\":null},{\"timestamp\":\"2024-06-12T20:10:47.000000Z\",\"fee\":{\"type\":\"actual\",\"value\":\"816174337137444\"},\"gas_limit\":\"48799\",\"block\":20078046,\"status\":\"ok\",\"method\":\"safeTransferFrom\",\"confirmations\":1,\"type\":2,\"exchange_rate\":\"3528.14\",\"to\":{\"ens_domain_name\":\"wrapper.ens.eth\",\"hash\":\"0xD4416b13d2b3a9aBae7AcD5D6C2BbDBE25686401\",\"implementation_name\":null,\"implementations\":[],\"is_contract\":true,\"is_verified\":true,\"metadata\":{\"tags\":[{\"meta\":{\"appActionButtonText\":\"Mint domain\",\"appLogoURL\":\"https://blockscout-content.s3.amazonaws.com/ens-logo.png\",\"appMarketplaceURL\":\"https://app.ens.domains?utm_source=blockscout&utm_medium=action-button\",\"bgColor\":\"#5298FF\",\"textColor\":\"#FFFFFF\"},\"name\":\"ENS\",\"ordinal\":0,\"slug\":\"ens\",\"tagType\":\"protocol\"}]},\"name\":\"NameWrapper\",\"private_tags\":[],\"public_tags\":[],\"watchlist_names\":[]},\"tx_burnt_fee\":\"812456937137444\",\"max_fee_per_gas\":\"31272430916\",\"result\":\"success\",\"hash\":\"0x417fda2b23eb2febfcd88a260996f9d4575921aee5456c9ae42c9a29623fba7c\",\"gas_price\":\"21955515606\",\"priority_fee\":\"3717400000000\",\"base_fee_per_gas\":\"21855515606\",\"from\":{\"ens_domain_name\":\"01325.eth\",\"hash\":\"0x76C9d075F88F7915eB1AB5EfB3846838B59E2DB6\",\"implementation_name\":null,\"implementations\":[],\"is_contract\":false,\"is_verified\":null,\"metadata\":null,\"name\":null,\"private_tags\":[],\"public_tags\":[],\"watchlist_names\":[]},\"token_transfers\":null,\"tx_types\":[\"contract_call\",\"token_transfer\"],\"gas_used\":\"37174\",\"created_contract\":null,\"position\":138,\"nonce\":735,\"has_error_in_internal_txs\":null,\"actions\":[],\"decoded_input\":{\"method_call\":\"safeTransferFrom(address from, address to, uint256 id, uint256 amount, bytes data)\",\"method_id\":\"f242432a\",\"parameters\":[{\"name\":\"from\",\"type\":\"address\",\"value\":\"0x76c9d075f88f7915eb1ab5efb3846838b59e2db6\"},{\"name\":\"to\",\"type\":\"address\",\"value\":\"0x924a1fe275c0ea466c519830719c8d216c415e19\"},{\"name\":\"id\",\"type\":\"uint256\",\"value\":\"80809416380424994305296604956280526786493693443575630670665073534648909926815\"},{\"name\":\"amount\",\"type\":\"uint256\",\"value\":\"1\"},{\"name\":\"data\",\"type\":\"bytes\",\"value\":\"0x\"}]},\"token_transfers_overflow\":null,\"raw_input\":\"0xf242432a00000000000000000000000076c9d075f88f7915eb1ab5efb3846838b59e2db6000000000000000000000000924a1fe275c0ea466c519830719c8d216c415e19b2a88242b7a31a357ec0b9ce1ee3dd48eac5fcdcb6cd70fe170682c02a79919f000000000000000000000000000000000000000000000000000000000000000100000000000000000000000000000000000000000000000000000000000000a00000000000000000000000000000000000000000000000000000000000000000360c6ebe\",\"value\":\"0\",\"max_priority_fee_per_gas\":\"100000000\",\"revert_reason\":null,\"confirmation_duration\":[0,12121],\"tx_tag\":null},{\"timestamp\":\"2024-06-12T20:10:47.000000Z\",\"fee\":{\"type\":\"actual\",\"value\":\"5120012568627672\"},\"gas_limit\":\"303436\",\"block\":20078046,\"status\":\"ok\",\"method\":\"0x415565b0\",\"confirmations\":1,\"type\":2,\"exchange_rate\":\"3528.14\",\"to\":{\"ens_domain_name\":null,\"hash\":\"0xDef1C0ded9bec7F1a1670819833240f027b25EfF\",\"implementation_name\":null,\"implementations\":[],\"is_contract\":true,\"is_verified\":true,\"metadata\":{\"tags\":[{\"meta\":{},\"name\":\"0X PROTOCOL\",\"ordinal\":0,\"slug\":\"0x-protocol\",\"tagType\":\"note\"},{\"meta\":{},\"name\":\"0x: Exchange Proxy\",\"ordinal\":0,\"slug\":\"0x-exchange-proxy\",\"tagType\":\"name\"}]},\"name\":\"BaseRegistrarImplementation\",\"private_tags\":[],\"public_tags\":[],\"watchlist_names\":[]},\"tx_burnt_fee\":\"5101339608627672\",\"max_fee_per_gas\":\"26980000000\",\"result\":\"success\",\"hash\":\"0x52b629bcce11209adeabb2a826ed706e9db63ddb47e704e75632021176ac306c\",\"gas_price\":\"21935515606\",\"priority_fee\":\"18672960000000\",\"base_fee_per_gas\":\"21855515606\",\"from\":{\"ens_domain_name\":null,\"hash\":\"0x4faA13AadEE371f20161Edd1007C7ed1C4aeBB4B\",\"implementation_name\":null,\"implementations\":[],\"is_contract\":false,\"is_verified\":null,\"metadata\":null,\"name\":null,\"private_tags\":[],\"public_tags\":[],\"watchlist_names\":[]},\"token_transfers\":null,\"tx_types\":[\"contract_call\",\"token_transfer\"],\"gas_used\":\"233412\",\"created_contract\":null,\"position\":137,\"nonce\":5,\"has_error_in_internal_txs\":null,\"actions\":[],\"decoded_input\":null,\"token_transfers_overflow\":null,\"raw_input\":\"0x415565b0000000000000000000000000dac17f958d2ee523a2206206994597c13d831ec7000000000000000000000000eeeeeeeeeeeeeeeeeeeeeeeeeeeeeeeeeeeeeeee000000000000000000000000000000000000000000000000000000003cfae14700000000000000000000000000000000000000000000000003f5616050642d3e00000000000000000000000000000000000000000000000000000000000000a000000000000000000000000000000000000000000000000000000000000000040000000000000000000000000000000000000000000000000000000000000080000000000000000000000000000000000000000000000000000000000000044000000000000000000000000000000000000000000000000000000000000004e000000000000000000000000000000000000000000000000000000000000005e000000000000000000000000000000000000000000000000000000000000000210000000000000000000000000000000000000000000000000000000000000040000000000000000000000000000000000000000000000000000000000000036000000000000000000000000000000000000000000000000000000000000000200000000000000000000000000000000000000000000000000000000000000000000000000000000000000000dac17f958d2ee523a2206206994597c13d831ec7000000000000000000000000c02aaa39b223fe8d0a0e5c4f27ead9083c756cc20000000000000000000000000000000000000000000000000000000000000240000000000000000000000000000000000000000000000000000000000000024000000000000000000000000000000000000000000000000000000000000002400000000000000000000000000000000000000000000000000000000000000140000000000000000000000000000000000000000000000000000000003cfae14700000000000000000000000000000000000000000000000000000000000000000000000000000000000000000000000000000000000000000000000000000180000000000000000000000000000000000000000000000000000000000000000100000000000000000000000000000000000000000000000000000000000000030000000000000000000000000000000000000000000000000000000000000001000000000000000000000000c02aaa39b223fe8d0a0e5c4f27ead9083c756cc2000000000000000000000000dac17f958d2ee523a2206206994597c13d831ec700000000000000000000000000000000000000000000000004022b249c7f85d2000000000000000000000000000000000000000000000000000000003d0a7daa0000000000000000000000002c6bea966e83dff8619e54fd819da727ed5102e100000000000000000000000000000000000000000000000000000000000000000000000000000000000000004faa13aadee371f20161edd1007c7ed1c4aebb4b00000000666a01060000000000000000000000000000000000000000666a00b00000000000000000000000000000000000000000000000000000000000000002000000000000000000000000000000000000000000000000000000000000001b016343db46296ba6de2d44adb1bf19b76999bcffa2cbdbfc59f49239aee5c01703bc11509a229b00de6d0728547726af6370aefef2df21b33a83900dab011483000000000000000000000000000000000000000000000000000000003cfae147000000000000000000000000000000000000000000000000000000000000000600000000000000000000000000000000000000000000000000000000000000400000000000000000000000000000000000000000000000000000000000000040000000000000000000000000c02aaa39b223fe8d0a0e5c4f27ead9083c756cc2ffffffffffffffffffffffffffffffffffffffffffffffffffffffffffffffff000000000000000000000000000000000000000000000000000000000000001b000000000000000000000000000000000000000000000000000000000000004000000000000000000000000000000000000000000000000000000000000000a000000000000000000000000000000000000000000000000000000000000000200000000000000000000000000000000000000000000000000000000000000001000000000000000000000000eeeeeeeeeeeeeeeeeeeeeeeeeeeeeeeeeeeeeeee0000000000000000000000000000000000000000000000000008b00515fd80940000000000000000000000007afa9d836d2fccf172b66622625e56404e465dbd000000000000000000000000000000000000000000000000000000000000001c000000000000000000000000000000000000000000000000000000000000004000000000000000000000000000000000000000000000000000000000000000c00000000000000000000000000000000000000000000000000000000000000020000000000000000000000000000000000000000000000000000000000000004000000000000000000000000000000000000000000000000000000000000000800000000000000000000000000000000000000000000000000000000000000001000000000000000000000000dac17f958d2ee523a2206206994597c13d831ec70000000000000000000000000000000000000000000000000000000000000000869584cd0000000000000000000000007afa9d836d2fccf172b66622625e56404e465dbd00000000000000000000000000000000000000009d5ac7e58a98ed377ec1ebd9\",\"value\":\"0\",\"max_priority_fee_per_gas\":\"80000000\",\"revert_reason\":null,\"confirmation_duration\":[0,12121],\"tx_tag\":null}],\"next_page_params\":{\"block_number\":20078046,\"index\":137,\"items_count\":50}}",
    "headers": {
      "Content-Type": "application/json"
    }
  }
}