{
  "request": {
    "method": "GET",
    "urlPath": "/api/v2/transactions"
  },
  "response": {
    "status": 200,
    "body": "{\"items\":[{\"priority_fee\":\"0\",\"raw_input\":\"0x\",\"result\":\"success\",\"hash\":\"0x7f567b46004d155d440a7c71aacae4f5e387233978d85ed16c605764c8a6f0a3\",\"max_fee_per_gas\":\"1461335864\",\"revert_reason\":null,\"confirmation_duration\":[0,12000],\"transaction_burnt_fee\":\"30688053144000\",\"type\":2,\"token_transfers_overflow\":null,\"confirmations\":1,\"position\":242,\"max_priority_fee_per_gas\":\"0\",\"transaction_tag\":null,\"created_contract\":null,\"value\":\"24455213107767151\",\"from\":{\"ens_domain_name\":null,\"hash\":\"0x95222290DD7278Aa3Ddd389Cc1E1d165CC4BAfe5\",\"implementations\":[],\"is_contract\":false,\"is_scam\":false,\"is_verified\":false,\"metadata\":{\"tags\":[{\"meta\":{},\"name\":\"MEV Builder\",\"ordinal\":0,\"slug\":\"mev-builder\",\"tagType\":\"generic\"},{\"meta\":{\"tooltipUrl\":\"https://beaverbuild.org/\"},\"name\":\"beaverbuild\",\"ordinal\":10,\"slug\":\"beaverbuild\",\"tagType\":\"name\"}]},\"name\":null,\"private_tags\":[],\"proxy_type\":null,\"public_tags\":[],\"watchlist_names\":[]},\"gas_used\":\"21000\",\"status\":\"ok\",\"to\":{\"ens_domain_name\":null,\"hash\":\"0xb6f71B16de19fe4cB63A796a8F3Bfda0cc60E115\",\"implementations\":[],\"is_contract\":false,\"is_scam\":false,\"is_verified\":false,\"metadata\":null,\"name\":null,\"private_tags\":[],\"proxy_type\":null,\"public_tags\":[],\"watchlist_names\":[]},\"authorization_list\":[],\"method\":null,\"fee\":{\"type\":\"actual\",\"value\":\"30688053144000\"},\"actions\":[],\"gas_limit\":\"21000\",\"gas_price\":\"1461335864\",\"decoded_input\":null,\"token_transfers\":null,\"base_fee_per_gas\":\"1461335864\",\"timestamp\":\"2025-06-13T09:24:11.000000Z\",\"nonce\":2571255,\"historic_exchange_rate\":\"2540.82\",\"transaction_types\":[\"coin_transfer\"],\"exchange_rate\":\"2518.69\",\"block_number\":22694718,\"has_error_in_internal_transactions\":null},{\"priority_fee\":\"12988920000\",\"raw_input\":\"0x\",\"result\":\"success\",\"hash\":\"0xeb7645c05b98e7bcff6ac6377efef309a4d8bb95e92c74a5033e26368c2f58e8\",\"max_fee_per_gas\":\"1551427668\",\"revert_reason\":null,\"confirmation_duration\":[0,12000],\"transaction_burnt_fee\":\"30688053144000\",\"type\":2,\"token_transfers_overflow\":null,\"confirmations\":1,\"position\":241,\"max_priority_fee_per_gas\":\"618520\",\"transaction_tag\":null,\"created_contract\":null,\"value\":\"2967420018972000\",\"from\":{\"ens_domain_name\":null,\"hash\":\"0xCD61A8D0D220E2A50a48f6F014724F29808C3dfB\",\"implementations\":[],\"is_contract\":false,\"is_scam\":false,\"is_verified\":false,\"metadata\":null,\"name\":null,\"private_tags\":[],\"proxy_type\":null,\"public_tags\":[],\"watchlist_names\":[]},\"gas_used\":\"21000\",\"status\":\"ok\",\"to\":{\"ens_domain_name\":null,\"hash\":\"0x46feF0D912C49D3a5CA7d35eaFCeb4Ea1277e0D4\",\"implementations\":[],\"is_contract\":false,\"is_scam\":false,\"is_verified\":false,\"metadata\":null,\"name\":null,\"private_tags\":[],\"proxy_type\":null,\"public_tags\":[],\"watchlist_names\":[]},\"authorization_list\":[],\"method\":null,\"fee\":{\"type\":\"actual\",\"value\":\"30701042064000\"},\"actions\":[],\"gas_limit\":\"21000\",\"gas_price\":\"1461954384\",\"decoded_input\":null,\"token_transfers\":null,\"base_fee_per_gas\":\"1461335864\",\"timestamp\":\"2025-06-13T09:24:11.000000Z\",\"nonce\":12316,\"historic_exchange_rate\":\"2540.82\",\"transaction_types\":[\"coin_transfer\"],\"exchange_rate\":\"2518.69\",\"block_number\":22694718,\"has_error_in_internal_transactions\":null},{\"priority_fee\":\"12988920000\",\"raw_input\":\"0x\",\"result\":\"success\",\"hash\":\"0xa85551b7c2e0aa40ad7ed7f1684af5023c3525c362bff0a6356ef87835c554e2\",\"max_fee_per_gas\":\"1643429034\",\"revert_reason\":null,\"confirmation_duration\":[0,12000],\"transaction_burnt_fee\":\"30688053144000\",\"type\":2,\"token_transfers_overflow\":null,\"confirmations\":1,\"position\":240,\"max_priority_fee_per_gas\":\"618520\",\"transaction_tag\":null,\"created_contract\":null,\"value\":\"57000000000000000\",\"from\":{\"ens_domain_name\":null,\"hash\":\"0xAD62D2744d93E0D04020AC6E763E7A6C8906f0fF\",\"implementations\":[],\"is_contract\":false,\"is_scam\":false,\"is_verified\":false,\"metadata\":null,\"name\":null,\"private_tags\":[],\"proxy_type\":null,\"public_tags\":[],\"watchlist_names\":[]},\"gas_used\":\"21000\",\"status\":\"ok\",\"to\":{\"ens_domain_name\":null,\"hash\":\"0x164292e52488f216EaF030Bf04960aC260E3Fb57\",\"implementations\":[],\"is_contract\":false,\"is_scam\":false,\"is_verified\":false,\"metadata\":null,\"name\":null,\"private_tags\":[],\"proxy_type\":null,\"public_tags\":[],\"watchlist_names\":[]},\"authorization_list\":[],\"method\":null,\"fee\":{\"type\":\"actual\",\"value\":\"30701042064000\"},\"actions\":[],\"gas_limit\":\"21000\",\"gas_price\":\"1461954384\",\"decoded_input\":null,\"token_transfers\":null,\"base_fee_per_gas\":\"1461335864\",\"timestamp\":\"2025-06-13T09:24:11.000000Z\",\"nonce\":148,\"historic_exchange_rate\":\"2540.82\",\"transaction_types\":[\"coin_transfer\"],\"exchange_rate\":\"2518.69\",\"block_number\":22694718,\"has_error_in_internal_transactions\":null},{\"priority_fee\":\"12988920000\",\"raw_input\":\"0x\",\"result\":\"success\",\"hash\":\"0x121b1a4f1aedb5a352525816005ff6abdfde5651ad123bf0fae38f96720c40e5\",\"max_fee_per_gas\":\"3140511744\",\"revert_reason\":null,\"confirmation_duration\":[0,12000],\"transaction_burnt_fee\":\"30688053144000\",\"type\":2,\"token_transfers_overflow\":null,\"confirmations\":1,\"position\":239,\"max_priority_fee_per_gas\":\"618520\",\"transaction_tag\":null,\"created_contract\":null,\"value\":\"937000000001003\",\"from\":{\"ens_domain_name\":\"memebridge.eth\",\"hash\":\"0x623777Cc098C6058a46cF7530f45150ff6a8459D\",\"implementations\":[],\"is_contract\":false,\"is_scam\":false,\"is_verified\":false,\"metadata\":null,\"name\":null,\"private_tags\":[],\"proxy_type\":null,\"public_tags\":[],\"watchlist_names\":[]},\"gas_used\":\"21000\",\"status\":\"ok\",\"to\":{\"ens_domain_name\":null,\"hash\":\"0x02d08A22C3A8fC0acDF7FBaACaDAECae946a8C84\",\"implementations\":[],\"is_contract\":false,\"is_scam\":false,\"is_verified\":false,\"metadata\":null,\"name\":null,\"private_tags\":[],\"proxy_type\":null,\"public_tags\":[],\"watchlist_names\":[]},\"authorization_list\":[],\"method\":null,\"fee\":{\"type\":\"actual\",\"value\":\"30701042064000\"},\"actions\":[],\"gas_limit\":\"21000\",\"gas_price\":\"1461954384\",\"decoded_input\":null,\"token_transfers\":null,\"base_fee_per_gas\":\"1461335864\",\"timestamp\":\"2025-06-13T09:24:11.000000Z\",\"nonce\":202056,\"historic_exchange_rate\":\"2540.82\",\"transaction_types\":[\"coin_transfer\"],\"exchange_rate\":\"2518.69\",\"block_number\":22694718,\"has_error_in_internal_transactions\":null},{\"priority_fee\":\"19483380000\",\"raw_input\":\"0x\",\"result\":\"success\",\"hash\":\"0x94df49766d53f8dbfa185830dd28b2f5a9cf7b3b43544c4b1138a184adfe30de\",\"max_fee_per_gas\":\"2390470345\",\"revert_reason\":null,\"confirmation_duration\":[0,12000],\"transaction_burnt_fee\":\"30688053144000\",\"type\":2,\"token_transfers_overflow\":null,\"confirmations\":1,\"position\":238,\"max_priority_fee_per_gas\":\"927780\",\"transaction_tag\":null,\"created_contract\":null,\"value\":\"1000000000000000\",\"from\":{\"ens_domain_name\":null,\"hash\":\"0x5bCc8DA2729100373Ff96a51502F7772634e8AF6\",\"implementations\":[],\"is_contract\":false,\"is_scam\":false,\"is_verified\":false,\"metadata\":null,\"name\":null,\"private_tags\":[],\"proxy_type\":null,\"public_tags\":[],\"watchlist_names\":[]},\"gas_used\":\"21000\",\"status\":\"ok\",\"to\":{\"ens_domain_name\":null,\"hash\":\"0xC50b0C5C85022bdCa0b8436F76b538dc5F104E5D\",\"implementations\":[],\"is_contract\":false,\"is_scam\":false,\"is_verified\":false,\"metadata\":null,\"name\":null,\"private_tags\":[],\"proxy_type\":null,\"public_tags\":[],\"watchlist_names\":[]},\"authorization_list\":[],\"method\":null,\"fee\":{\"type\":\"actual\",\"value\":\"30707536524000\"},\"actions\":[],\"gas_limit\":\"21000\",\"gas_price\":\"1462263644\",\"decoded_input\":null,\"token_transfers\":null,\"base_fee_per_gas\":\"1461335864\",\"timestamp\":\"2025-06-13T09:24:11.000000Z\",\"nonce\":28,\"historic_exchange_rate\":\"2540.82\",\"transaction_types\":[\"coin_transfer\"],\"exchange_rate\":\"2518.69\",\"block_number\":22694718,\"has_error_in_internal_transactions\":null},{\"priority_fee\":\"25977840000\",\"raw_input\":\"0x\",\"result\":\"success\",\"hash\":\"0xe6c24e4fd581973b68165ce4cbb66d445177f6ade2d34fbf1d33b651f5526cfc\",\"max_fee_per_gas\":\"2355383808\",\"revert_reason\":null,\"confirmation_duration\":[0,12000],\"transaction_burnt_fee\":\"30688053144000\",\"type\":2,\"token_transfers_overflow\":null,\"confirmations\":1,\"position\":237,\"max_priority_fee_per_gas\":\"1237040\",\"transaction_tag\":null,\"created_contract\":null,\"value\":\"1311666581055542761\",\"from\":{\"ens_domain_name\":null,\"hash\":\"0xAFeC866D915F5570489a301B80B2744a257d7ad3\",\"implementations\":[],\"is_contract\":false,\"is_scam\":false,\"is_verified\":false,\"metadata\":null,\"name\":null,\"private_tags\":[],\"proxy_type\":null,\"public_tags\":[],\"watchlist_names\":[]},\"gas_used\":\"21000\",\"status\":\"ok\",\"to\":{\"ens_domain_name\":null,\"hash\":\"0x46355F2820c6963a692234B3bB7e7E4A32fcdA98\",\"implementations\":[],\"is_contract\":false,\"is_scam\":false,\"is_verified\":false,\"metadata\":null,\"name\":null,\"private_tags\":[],\"proxy_type\":null,\"public_tags\":[],\"watchlist_names\":[]},\"authorization_list\":[],\"method\":null,\"fee\":{\"type\":\"actual\",\"value\":\"30714030984000\"},\"actions\":[],\"gas_limit\":\"21000\",\"gas_price\":\"1462572904\",\"decoded_input\":null,\"token_transfers\":null,\"base_fee_per_gas\":\"1461335864\",\"timestamp\":\"2025-06-13T09:24:11.000000Z\",\"nonce\":219,\"historic_exchange_rate\":\"2540.82\",\"transaction_types\":[\"coin_transfer\"],\"exchange_rate\":\"2518.69\",\"block_number\":22694718,\"has_error_in_internal_transactions\":null},{\"priority_fee\":\"25977840000\",\"raw_input\":\"0x\",\"result\":\"success\",\"hash\":\"0x83f39e776f59df8ee49c231b4d304fde630649ce7c9b4a8af2a3328fa3db3be9\",\"max_fee_per_gas\":\"2355383808\",\"revert_reason\":null,\"confirmation_duration\":[0,12000],\"transaction_burnt_fee\":\"30688053144000\",\"type\":2,\"token_transfers_overflow\":null,\"confirmations\":1,\"position\":236,\"max_priority_fee_per_gas\":\"1237040\",\"transaction_tag\":null,\"created_contract\":null,\"value\":\"1211786980995089672\",\"from\":{\"ens_domain_name\":null,\"hash\":\"0xB68d6bfd5871E5Fc133a6E3B379d018A5E4AE031\",\"implementations\":[],\"is_contract\":false,\"is_scam\":false,\"is_verified\":false,\"metadata\":null,\"name\":null,\"private_tags\":[],\"proxy_type\":null,\"public_tags\":[],\"watchlist_names\":[]},\"gas_used\":\"21000\",\"status\":\"ok\",\"to\":{\"ens_domain_name\":null,\"hash\":\"0xB4b71BC403BA67805ba3Fb579B590b077D518344\",\"implementations\":[],\"is_contract\":false,\"is_scam\":false,\"is_verified\":false,\"metadata\":null,\"name\":null,\"private_tags\":[],\"proxy_type\":null,\"public_tags\":[],\"watchlist_names\":[]},\"authorization_list\":[],\"method\":null,\"fee\":{\"type\":\"actual\",\"value\":\"30714030984000\"},\"actions\":[],\"gas_limit\":\"21000\",\"gas_price\":\"1462572904\",\"decoded_input\":null,\"token_transfers\":null,\"base_fee_per_gas\":\"1461335864\",\"timestamp\":\"2025-06-13T09:24:11.000000Z\",\"nonce\":228,\"historic_exchange_rate\":\"2540.82\",\"transaction_types\":[\"coin_transfer\"],\"exchange_rate\":\"2518.69\",\"block_number\":22694718,\"has_error_in_internal_transactions\":null},{\"priority_fee\":\"25977840000\",\"raw_input\":\"0x\",\"result\":\"success\",\"hash\":\"0x90537817f862b768fa67faa542acda73efd4a58545219eec59fd4e566dce7fdf\",\"max_fee_per_gas\":\"2355383808\",\"revert_reason\":null,\"confirmation_duration\":[0,12000],\"transaction_burnt_fee\":\"30688053144000\",\"type\":2,\"token_transfers_overflow\":null,\"confirmations\":1,\"position\":235,\"max_priority_fee_per_gas\":\"1237040\",\"transaction_tag\":null,\"created_contract\":null,\"value\":\"382139573148912832\",\"from\":{\"ens_domain_name\":null,\"hash\":\"0xb5580f95dB759DA6eF1BA6909A7A6E6B3aFC5DF8\",\"implementations\":[],\"is_contract\":false,\"is_scam\":false,\"is_verified\":false,\"metadata\":null,\"name\":null,\"private_tags\":[],\"proxy_type\":null,\"public_tags\":[],\"watchlist_names\":[]},\"gas_used\":\"21000\",\"status\":\"ok\",\"to\":{\"ens_domain_name\":null,\"hash\":\"0x63302dCE9DcF1D67C85A0804191FBF6d12f8e1B9\",\"implementations\":[],\"is_contract\":false,\"is_scam\":false,\"is_verified\":false,\"metadata\":null,\"name\":null,\"private_tags\":[],\"proxy_type\":null,\"public_tags\":[],\"watchlist_names\":[]},\"authorization_list\":[],\"method\":null,\"fee\":{\"type\":\"actual\",\"value\":\"30714030984000\"},\"actions\":[],\"gas_limit\":\"21000\",\"gas_price\":\"1462572904\",\"decoded_input\":null,\"token_transfers\":null,\"base_fee_per_gas\":\"1461335864\",\"timestamp\":\"2025-06-13T09:24:11.000000Z\",\"nonce\":139,\"historic_exchange_rate\":\"2540.82\",\"transaction_types\":[\"coin_transfer\"],\"exchange_rate\":\"2518.69\",\"block_number\":22694718,\"has_error_in_internal_transactions\":null},{\"priority_fee\":\"29994508880\",\"raw_input\":\"0x23b872dd0000000000000000000000007de8398dabbbadc7f1d42e2b711d9a10a121a9a0000000000000000000000000ab76c0cf860ea2f9955a2ecda63515831872219700000000000000000000000000000000000000000000000000000000000e7f54\",\"result\":\"success\",\"hash\":\"0x9a58b37d5024dd03b1dacc2dd95f14164d4433e25ce0a4ae79c446dec43fad4a\",\"max_fee_per_gas\":\"2987546726\",\"revert_reason\":null,\"confirmation_duration\":[0,12000],\"transaction_burnt_fee\":\"70866021388816\",\"type\":2,\"token_transfers_overflow\":null,\"confirmations\":1,\"position\":234,\"max_priority_fee_per_gas\":\"618520\",\"transaction_tag\":null,\"created_contract\":null,\"value\":\"0\",\"from\":{\"ens_domain_name\":null,\"hash\":\"0xA55fE722b96B1f4231DE1A7613f9184390780b7E\",\"implementations\":[],\"is_contract\":false,\"is_scam\":false,\"is_verified\":false,\"metadata\":null,\"name\":null,\"private_tags\":[],\"proxy_type\":null,\"public_tags\":[],\"watchlist_names\":[]},\"gas_used\":\"48494\",\"status\":\"ok\",\"to\":{\"ens_domain_name\":null,\"hash\":\"0xdAC17F958D2ee523a2206206994597C13D831ec7\",\"implementations\":[],\"is_contract\":true,\"is_scam\":false,\"is_verified\":true,\"metadata\":{\"tags\":[{\"meta\":{\"tooltipDescription\":\"Tether gives you the joint benefits of open blockchain technology and traditional currency by converting your cash into a stable digital currency equivalent.\",\"tooltipUrl\":\"https://tether.to/\"},\"name\":\"Tether: USDT Stablecoin\",\"ordinal\":10,\"slug\":\"tether-usdt-stablecoin\",\"tagType\":\"name\"},{\"meta\":{},\"name\":\"Stablecoin\",\"ordinal\":0,\"slug\":\"stablecoin\",\"tagType\":\"generic\"},{\"meta\":{},\"name\":\"Token Contract\",\"ordinal\":0,\"slug\":\"token-contract\",\"tagType\":\"generic\"},{\"meta\":{},\"name\":\"Tether\",\"ordinal\":0,\"slug\":\"tether\",\"tagType\":\"protocol\"}]},\"name\":\"Tether\",\"private_tags\":[],\"proxy_type\":\"unknown\",\"public_tags\":[],\"watchlist_names\":[]},\"authorization_list\":[],\"method\":\"transferFrom\",\"fee\":{\"type\":\"actual\",\"value\":\"70896015897696\"},\"actions\":[],\"gas_limit\":\"48881\",\"gas_price\":\"1461954384\",\"decoded_input\":{\"method_call\":\"transferFrom(address _from, address _to, uint256 _value)\",\"method_id\":\"23b872dd\",\"parameters\":[{\"name\":\"_from\",\"type\":\"address\",\"value\":\"0x7dE8398daBBbAdC7f1D42e2b711D9A10A121a9A0\"},{\"name\":\"_to\",\"type\":\"address\",\"value\":\"0xab76c0cf860ea2f9955a2eCDA635158318722197\"},{\"name\":\"_value\",\"type\":\"uint256\",\"value\":\"950100\"}]},\"token_transfers\":null,\"base_fee_per_gas\":\"1461335864\",\"timestamp\":\"2025-06-13T09:24:11.000000Z\",\"nonce\":13307,\"historic_exchange_rate\":\"2540.82\",\"transaction_types\":[\"contract_call\",\"token_transfer\"],\"exchange_rate\":\"2518.69\",\"block_number\":22694718,\"has_error_in_internal_transactions\":null},{\"priority_fee\":\"34730000000\",\"raw_input\":\"0xa9059cbb000000000000000000000000a3222357a0eccf60c73606170be6c99adecb59b300000000000000000000000000000000000000000000043c33c1937564800000\",\"result\":\"success\",\"hash\":\"0x340cf9b22cdaf7def7539854ce04b6a0cfdf8abd2c04aa7bb28c26fe17382b43\",\"max_fee_per_gas\":\"4000000000\",\"revert_reason\":null,\"confirmation_duration\":[0,12000],\"transaction_burnt_fee\":\"50752194556720\",\"type\":2,\"token_transfers_overflow\":null,\"confirmations\":1,\"position\":233,\"max_priority_fee_per_gas\":\"1000000\",\"transaction_tag\":null,\"created_contract\":null,\"value\":\"0\",\"from\":{\"ens_domain_name\":null,\"hash\":\"0x80787af194C33b74a811f5e5c549316269d7Ee1A\",\"implementations\":[],\"is_contract\":false,\"is_scam\":false,\"is_verified\":false,\"metadata\":null,\"name\":null,\"private_tags\":[],\"proxy_type\":null,\"public_tags\":[],\"watchlist_names\":[]},\"gas_used\":\"34730\",\"status\":\"ok\",\"to\":{\"ens_domain_name\":null,\"hash\":\"0x6B175474E89094C44Da98b954EedeAC495271d0F\",\"implementations\":[],\"is_contract\":true,\"is_scam\":false,\"is_verified\":true,\"metadata\":{\"tags\":[{\"meta\":{},\"name\":\"Stablecoin\",\"ordinal\":0,\"slug\":\"stablecoin\",\"tagType\":\"generic\"},{\"meta\":{},\"name\":\"Token Contract\",\"ordinal\":0,\"slug\":\"token-contract\",\"tagType\":\"generic\"},{\"meta\":{},\"name\":\"Maker\",\"ordinal\":0,\"slug\":\"maker\",\"tagType\":\"protocol\"},{\"meta\":{},\"name\":\"DeFi\",\"ordinal\":0,\"slug\":\"defi\",\"tagType\":\"generic\"},{\"meta\":{\"tooltipDescription\":\"Multi-Collateral Dai, brings a lot of new and exciting features, such as support for new CDP collateral types and Dai Savings Rate.\",\"tooltipUrl\":\"https://makerdao.com/\"},\"name\":\"Maker: Dai Stablecoin\",\"ordinal\":10,\"slug\":\"maker-dai-stablecoin\",\"tagType\":\"name\"}]},\"name\":\"Dai\",\"private_tags\":[],\"proxy_type\":\"unknown\",\"public_tags\":[],\"watchlist_names\":[]},\"authorization_list\":[],\"method\":\"transfer\",\"fee\":{\"type\":\"actual\",\"value\":\"50786924556720\"},\"actions\":[],\"gas_limit\":\"70000\",\"gas_price\":\"1462335864\",\"decoded_input\":{\"method_call\":\"transfer(address dst, uint256 wad)\",\"method_id\":\"a9059cbb\",\"parameters\":[{\"name\":\"dst\",\"type\":\"address\",\"value\":\"0xA3222357a0eCCF60C73606170be6c99ADeCb59b3\"},{\"name\":\"wad\",\"type\":\"uint256\",\"value\":\"20000000000000000000000\"}]},\"token_transfers\":null,\"base_fee_per_gas\":\"1461335864\",\"timestamp\":\"2025-06-13T09:24:11.000000Z\",\"nonce\":47864,\"historic_exchange_rate\":\"2540.82\",\"transaction_types\":[\"contract_call\",\"token_transfer\"],\"exchange_rate\":\"2518.69\",\"block_number\":22694718,\"has_error_in_internal_transactions\":null},{\"priority_fee\":\"38325664020\",\"raw_input\":\"0xa9059cbb000000000000000000000000016606acc6b0cfe537acc221e3bf1bb44b4049ee0000000000000000000000000000000000000000000000000000000008fd0fe0\",\"result\":\"success\",\"hash\":\"0xe62ad5fbd82c02a23e0f82795a9b7720e90fa94710b89c3af8894948c2b1e254\",\"max_fee_per_gas\":\"2923599508\",\"revert_reason\":null,\"confirmation_duration\":[0,12000],\"transaction_burnt_fee\":\"60366323205976\",\"type\":2,\"token_transfers_overflow\":null,\"confirmations\":1,\"position\":232,\"max_priority_fee_per_gas\":\"927780\",\"transaction_tag\":null,\"created_contract\":null,\"value\":\"0\",\"from\":{\"ens_domain_name\":null,\"hash\":\"0x7A4ACe7c15b5600e0139F9a6D240313A7Ea50f1c\",\"implementations\":[],\"is_contract\":false,\"is_scam\":false,\"is_verified\":false,\"metadata\":null,\"name\":null,\"private_tags\":[],\"proxy_type\":null,\"public_tags\":[],\"watchlist_names\":[]},\"gas_used\":\"41309\",\"status\":\"ok\",\"to\":{\"ens_domain_name\":null,\"hash\":\"0xdAC17F958D2ee523a2206206994597C13D831ec7\",\"implementations\":[],\"is_contract\":true,\"is_scam\":false,\"is_verified\":true,\"metadata\":{\"tags\":[{\"meta\":{\"tooltipDescription\":\"Tether gives you the joint benefits of open blockchain technology and traditional currency by converting your cash into a stable digital currency equivalent.\",\"tooltipUrl\":\"https://tether.to/\"},\"name\":\"Tether: USDT Stablecoin\",\"ordinal\":10,\"slug\":\"tether-usdt-stablecoin\",\"tagType\":\"name\"},{\"meta\":{},\"name\":\"Stablecoin\",\"ordinal\":0,\"slug\":\"stablecoin\",\"tagType\":\"generic\"},{\"meta\":{},\"name\":\"Token Contract\",\"ordinal\":0,\"slug\":\"token-contract\",\"tagType\":\"generic\"},{\"meta\":{},\"name\":\"Tether\",\"ordinal\":0,\"slug\":\"tether\",\"tagType\":\"protocol\"}]},\"name\":\"Tether\",\"private_tags\":[],\"proxy_type\":\"unknown\",\"public_tags\":[],\"watchlist_names\":[]},\"authorization_list\":[],\"method\":\"transfer\",\"fee\":{\"type\":\"actual\",\"value\":\"60404648869996\"},\"actions\":[],\"gas_limit\":\"50847\",\"gas_price\":\"1462263644\",\"decoded_input\":{\"method_call\":\"transfer(address _to, uint256 _value)\",\"method_id\":\"a9059cbb\",\"parameters\":[{\"name\":\"_to\",\"type\":\"address\",\"value\":\"0x016606Acc6B0cFE537acc221e3bf1bb44B4049Ee\"},{\"name\":\"_value\",\"type\":\"uint256\",\"value\":\"150802400\"}]},\"token_transfers\":null,\"base_fee_per_gas\":\"1461335864\",\"timestamp\":\"2025-06-13T09:24:11.000000Z\",\"nonce\":0,\"historic_exchange_rate\":\"2540.82\",\"transaction_types\":[\"contract_call\",\"token_transfer\"],\"exchange_rate\":\"2518.69\",\"block_number\":22694718,\"has_error_in_internal_transactions\":null},{\"priority_fee\":\"99633675680\",\"raw_input\":\"0xa1903eab0000000000000000000000004c49d4bd6a571827b4a556a0e1e3071da6231b9d\",\"result\":\"success\",\"hash\":\"0x8fa65eda843b06edfeae270d9018b3bbff52dcab87ec2d82e2d6f3d33a4ec656\",\"max_fee_per_gas\":\"2736174014\",\"revert_reason\":null,\"confirmation_duration\":[0,12000],\"transaction_burnt_fee\":\"117698913158288\",\"type\":2,\"token_transfers_overflow\":null,\"confirmations\":1,\"position\":231,\"max_priority_fee_per_gas\":\"1237040\",\"transaction_tag\":null,\"created_contract\":null,\"value\":\"525234240000000000\",\"from\":{\"ens_domain_name\":null,\"hash\":\"0x4C49d4Bd6a571827B4A556a0e1e3071DA6231B9D\",\"implementations\":[],\"is_contract\":false,\"is_scam\":false,\"is_verified\":false,\"metadata\":null,\"name\":null,\"private_tags\":[],\"proxy_type\":null,\"public_tags\":[],\"watchlist_names\":[]},\"gas_used\":\"80542\",\"status\":\"ok\",\"to\":{\"ens_domain_name\":null,\"hash\":\"0xae7ab96520DE3A18E5e111B5EaAb095312D7fE84\",\"implementations\":[{\"address\":\"0x17144556fd3424EDC8Fc8A4C940B2D04936d17eb\",\"address_hash\":\"0x17144556fd3424EDC8Fc8A4C940B2D04936d17eb\",\"name\":\"Lido\"}],\"is_contract\":true,\"is_scam\":false,\"is_verified\":true,\"metadata\":{\"tags\":[{\"meta\":{\"tooltipDescription\":\"stETH is a token that represents staked ether in Lido, combining the value of initial deposit + staking rewards. stETH tokens are pegged 1:1 to the ETH staked with Lido and can be used as one would use ether, allowing users to earn Eth2 staking rewards whilst benefiting from Defi yields.\",\"tooltipUrl\":\"https://stake.lido.fi/\"},\"name\":\"Lido: stETH Token\",\"ordinal\":10,\"slug\":\"lido-steth-token\",\"tagType\":\"name\"},{\"meta\":{},\"name\":\"Liquid staking\",\"ordinal\":0,\"slug\":\"liquid-staking\",\"tagType\":\"generic\"},{\"meta\":{},\"name\":\"Beacon Depositor\",\"ordinal\":0,\"slug\":\"beacon-depositor\",\"tagType\":\"generic\"},{\"meta\":{},\"name\":\"Lido\",\"ordinal\":0,\"slug\":\"lido\",\"tagType\":\"protocol\"},{\"meta\":{},\"name\":\"Token Contract\",\"ordinal\":0,\"slug\":\"token-contract\",\"tagType\":\"generic\"}]},\"name\":\"Lido Staked Ether\",\"private_tags\":[],\"proxy_type\":\"basic_implementation\",\"public_tags\":[],\"watchlist_names\":[]},\"authorization_list\":[],\"method\":\"submit\",\"fee\":{\"type\":\"actual\",\"value\":\"117798546833968\"},\"actions\":[],\"gas_limit\":\"150000\",\"gas_price\":\"1462572904\",\"decoded_input\":{\"method_call\":\"submit(address _referral)\",\"method_id\":\"a1903eab\",\"parameters\":[{\"name\":\"_referral\",\"type\":\"address\",\"value\":\"0x4C49d4Bd6a571827B4A556a0e1e3071DA6231B9D\"}]},\"token_transfers\":null,\"base_fee_per_gas\":\"1461335864\",\"timestamp\":\"2025-06-13T09:24:11.000000Z\",\"nonce\":22299,\"historic_exchange_rate\":\"2540.82\",\"transaction_types\":[\"coin_transfer\",\"contract_call\",\"token_transfer\"],\"exchange_rate\":\"2518.69\",\"block_number\":22694718,\"has_error_in_internal_transactions\":null},{\"priority_fee\":\"137605237000\",\"raw_input\":\"0xb8ff3d800000000000000000000000000000000000000000000000000000000000000060000000000000000000000000000000000000000000000000000000000000018000000000000000000000000000000000000000000000000000000000000008800000000000000000000000000000000000000000000000000000000000000100b497391373bb74944193205eb37c84b0520d474f491e2ef4743f16f670db289b84545ad7e03ce8813b0b85ed752102eadbdc3edf460d63b86f5316f26ee9cb158f34d19c7d3af46f27fc7c40ae5faec4b59a8203c0af4212550a309e969609e4d1ded1f52b577253629e82da8a79ef1210cca8fbd99f29dbf81fb6dd5ff9079000000000000000000000000000000000000000000000000000000197689421e90000000000000000000000000000000000000000000000000000000000b1dd1f56bfbee83edd2c9a79ff421c95fc8ec0fa0d67258dca697e47aae56f6fbc8af3227e98f6cd9dfafa75caff154bd616467f8c6a3b1bc21f07bf34d2432e006602000000000000000000000000000000000000000000000000000000000000000b000000000000000000000000000000000000000000000000000000000000016000000000000000000000000000000000000000000000000000000000000001e0000000000000000000000000000000000000000000000000000000000000026000000000000000000000000000000000000000000000000000000000000002e0000000000000000000000000000000000000000000000000000000000000036000000000000000000000000000000000000000000000000000000000000003e0000000000000000000000000000000000000000000000000000000000000046000000000000000000000000000000000000000000000000000000000000004e0000000000000000000000000000000000000000000000000000000000000056000000000000000000000000000000000000000000000000000000000000005e00000000000000000000000000000000000000000000000000000000000000660000000000000000000000000000000000000000000000000000000000000004158bad0ba5b09b2b0edf764fe012a885d6294bf0c78cd13e52906b8de8c7dda7a668d3bef191966cc4f4e31e5e257d14266a83178195b2a775a6bf2942a02b9ad1c0000000000000000000000000000000000000000000000000000000000000000000000000000000000000000000000000000000000000000000000000000419b8396f8f93d3361af9e79dba60fdb38b51ebf6a6ebfa6d2b0b375c7d15384923ea9291398ba6e2108c1842a2d8afa0ff80516b18ecd87eeadc20e0e2bed84fe1b000000000000000000000000000000000000000000000000000000000000000000000000000000000000000000000000000000000000000000000000000041ce859ce9a42943a5a5d8fa2acb759fa8dc82ee858302324ae561e905b292c2281d7d73fe4a519e624f56018675d6574761e6bd11aa1f848575d0f76f38f80ff61b000000000000000000000000000000000000000000000000000000000000000000000000000000000000000000000000000000000000000000000000000041ec4d9813982360c87e4f0db76fc90a87d75f7d9fc4b662cf86347b4d98d6f8c676f6c23b5e82fab79e7f81c6b43a66e18517cad16cc0920cb6813618b8a3c8e01c00000000000000000000000000000000000000000000000000000000000000000000000000000000000000000000000000000000000000000000000000004190eb79a96117070cb0137886118cad2aa1831f2ab252827f3edf954f7a41132f47f7ae430821e6d97b0b11386982c07883da876c509037380f74409c243f71651c000000000000000000000000000000000000000000000000000000000000000000000000000000000000000000000000000000000000000000000000000041edff459497a3c4a2fc63c0594af491aa31b0c38e67f6b626a0ef29db61b2f10e319732b3896104bfa6abcb7501c1425c6dbd8d65b82ff6a12f92ebc20c0739de1b000000000000000000000000000000000000000000000000000000000000000000000000000000000000000000000000000000000000000000000000000041150bb4c1c49369ceb2015d30d53125ba1a38bdf6723d44f902938766d9cee08741ccd77919763cd0f8afd6ad23906225c4022136958e414c0cf6e392ab45035b1c000000000000000000000000000000000000000000000000000000000000000000000000000000000000000000000000000000000000000000000000000041197e73594994df8164361c3763ed8c497beed400f0cc73cee3613a51c21750b96ae936dc5692c7ac503ccc0bf3ffb8c8ac3309810433901acdb58b45658e02e31c00000000000000000000000000000000000000000000000000000000000000000000000000000000000000000000000000000000000000000000000000004157b53c2438a6a7936f4e430d47ed0ec70bb390717ade4ffa1978b6a371f241942244dbf227aacd54a830191bb2398f94a38580693f2cc7ca02d0987ebd095af01c0000000000000000000000000000000000000000000000000000000000000000000000000000000000000000000000000000000000000000000000000000414569be9865884cede15ccb025e782ea3f98f8ac715627f54fdc7b88fb6df6c89675dfb74d8c71aa123029b450f627dadf85ee2cd4a4abbb446306fe44e1b74e71c00000000000000000000000000000000000000000000000000000000000000000000000000000000000000000000000000000000000000000000000000004163818ed88294d22ae5d1a5e9f8e328c206f93154c4e03720f5106d89837f7fc14159686ca61f33ae35c515c35a7a233dc542353e076a1cb52cd4362d60b497301c00000000000000000000000000000000000000000000000000000000000000000000000000000000000000000000000000000000000000000000000000000b00000000000000000000000068862f38097034327ca61f8f10d8f3cb0f0342d00000000000000000000000006bf3a3e2183be83f0776f2711fa4f587e297d3210000000000000000000000007032c238a5b94849c881ef3bbd93211fe8b7a6ec0000000000000000000000008fbaa2889008b22a7c223f914e7f98386f266b2b0000000000000000000000009432736b0030c0b764430fe9284fb27abae61076000000000000000000000000ab27245ca378b8c68901f371e81b9335492562b1000000000000000000000000b55a462bcf0653128c0aa476478d0e28c766fc89000000000000000000000000dc6b0e017d5dc3aaaf5b6f24f01e120388201a45000000000000000000000000dedc82a9286c4f31a8316cba062058b9007c572a000000000000000000000000ed48b615f965e1375c440f4e4f344ee9032b4063000000000000000000000000ff92fcd841206f074e94fe550fdfbdcc1428063e\",\"result\":\"success\",\"hash\":\"0x290f364cfaa01491d91b2ed74b9d6981d143b0434a6e2f655c7b6bd7d8848acc\",\"max_fee_per_gas\":\"2904447621\",\"revert_reason\":null,\"confirmation_duration\":[0,12000],\"transaction_burnt_fee\":\"325110696343400\",\"type\":2,\"token_transfers_overflow\":null,\"confirmations\":1,\"position\":230,\"max_priority_fee_per_gas\":\"618520\",\"transaction_tag\":null,\"created_contract\":null,\"value\":\"0\",\"from\":{\"ens_domain_name\":null,\"hash\":\"0xFf92FcD841206F074E94fe550FdFbdcc1428063e\",\"implementations\":[],\"is_contract\":false,\"is_scam\":false,\"is_verified\":false,\"metadata\":null,\"name\":null,\"private_tags\":[],\"proxy_type\":null,\"public_tags\":[],\"watchlist_names\":[]},\"gas_used\":\"222475\",\"status\":\"ok\",\"to\":{\"ens_domain_name\":null,\"hash\":\"0xEB6915F71BB18BcD8a6763187Fcb004Ff91e8695\",\"implementations\":[],\"is_contract\":true,\"is_scam\":false,\"is_verified\":true,\"metadata\":null,\"name\":\"Anchoring\",\"private_tags\":[],\"proxy_type\":\"unknown\",\"public_tags\":[],\"watchlist_names\":[]},\"authorization_list\":[],\"method\":\"anchorBlock\",\"fee\":{\"type\":\"actual\",\"value\":\"325248301580400\"},\"actions\":[],\"gas_limit\":\"270489\",\"gas_price\":\"1461954384\",\"decoded_input\":{\"method_call\":\"anchorBlock(bytes blockHeaderRawData, bytes[] signatures, address[] signers)\",\"method_id\":\"b8ff3d80\",\"parameters\":[{\"name\":\"blockHeaderRawData\",\"type\":\"bytes\",\"value\":\"0xb497391373bb74944193205eb37c84b0520d474f491e2ef4743f16f670db289b84545ad7e03ce8813b0b85ed752102eadbdc3edf460d63b86f5316f26ee9cb158f34d19c7d3af46f27fc7c40ae5faec4b59a8203c0af4212550a309e969609e4d1ded1f52b577253629e82da8a79ef1210cca8fbd99f29dbf81fb6dd5ff9079000000000000000000000000000000000000000000000000000000197689421e90000000000000000000000000000000000000000000000000000000000b1dd1f56bfbee83edd2c9a79ff421c95fc8ec0fa0d67258dca697e47aae56f6fbc8af3227e98f6cd9dfafa75caff154bd616467f8c6a3b1bc21f07bf34d2432e006602\"},{\"name\":\"signatures\",\"type\":\"bytes[]\",\"value\":[\"0x58bad0ba5b09b2b0edf764fe012a885d6294bf0c78cd13e52906b8de8c7dda7a668d3bef191966cc4f4e31e5e257d14266a83178195b2a775a6bf2942a02b9ad1c\",\"0x9b8396f8f93d3361af9e79dba60fdb38b51ebf6a6ebfa6d2b0b375c7d15384923ea9291398ba6e2108c1842a2d8afa0ff80516b18ecd87eeadc20e0e2bed84fe1b\",\"0xce859ce9a42943a5a5d8fa2acb759fa8dc82ee858302324ae561e905b292c2281d7d73fe4a519e624f56018675d6574761e6bd11aa1f848575d0f76f38f80ff61b\",\"0xec4d9813982360c87e4f0db76fc90a87d75f7d9fc4b662cf86347b4d98d6f8c676f6c23b5e82fab79e7f81c6b43a66e18517cad16cc0920cb6813618b8a3c8e01c\",\"0x90eb79a96117070cb0137886118cad2aa1831f2ab252827f3edf954f7a41132f47f7ae430821e6d97b0b11386982c07883da876c509037380f74409c243f71651c\",\"0xedff459497a3c4a2fc63c0594af491aa31b0c38e67f6b626a0ef29db61b2f10e319732b3896104bfa6abcb7501c1425c6dbd8d65b82ff6a12f92ebc20c0739de1b\",\"0x150bb4c1c49369ceb2015d30d53125ba1a38bdf6723d44f902938766d9cee08741ccd77919763cd0f8afd6ad23906225c4022136958e414c0cf6e392ab45035b1c\",\"0x197e73594994df8164361c3763ed8c497beed400f0cc73cee3613a51c21750b96ae936dc5692c7ac503ccc0bf3ffb8c8ac3309810433901acdb58b45658e02e31c\",\"0x57b53c2438a6a7936f4e430d47ed0ec70bb390717ade4ffa1978b6a371f241942244dbf227aacd54a830191bb2398f94a38580693f2cc7ca02d0987ebd095af01c\",\"0x4569be9865884cede15ccb025e782ea3f98f8ac715627f54fdc7b88fb6df6c89675dfb74d8c71aa123029b450f627dadf85ee2cd4a4abbb446306fe44e1b74e71c\",\"0x63818ed88294d22ae5d1a5e9f8e328c206f93154c4e03720f5106d89837f7fc14159686ca61f33ae35c515c35a7a233dc542353e076a1cb52cd4362d60b497301c\"]},{\"name\":\"signers\",\"type\":\"address[]\",\"value\":[\"0x68862f38097034327CA61f8f10d8f3CB0F0342d0\",\"0x6bf3A3e2183bE83f0776F2711Fa4f587e297D321\",\"0x7032c238a5B94849c881ef3BBD93211fe8B7a6eC\",\"0x8fbAA2889008B22A7c223f914e7F98386F266b2B\",\"0x9432736B0030c0B764430fE9284FB27ABAe61076\",\"0xAB27245cA378b8C68901F371e81B9335492562B1\",\"0xb55A462bCF0653128C0aa476478D0e28C766fC89\",\"0xdC6b0E017d5DC3AAaF5b6f24f01e120388201a45\",\"0xDEDc82a9286c4F31a8316CBA062058B9007C572a\",\"0xed48b615F965e1375C440f4E4F344EE9032b4063\",\"0xFf92FcD841206F074E94fe550FdFbdcc1428063e\"]}]},\"token_transfers\":null,\"base_fee_per_gas\":\"1461335864\",\"timestamp\":\"2025-06-13T09:24:11.000000Z\",\"nonce\":6007,\"historic_exchange_rate\":\"2540.82\",\"transaction_types\":[\"contract_call\"],\"exchange_rate\":\"2518.69\",\"block_number\":22694718,\"has_error_in_internal_transactions\":null},{\"priority_fee\":\"210000000000\",\"raw_input\":\"0x\",\"result\":\"success\",\"hash\":\"0x44cec872f466a46e2208e5a35320129d7f791499fb040004c05d9f267fbd952e\",\"max_fee_per_gas\":\"4482247869\",\"revert_reason\":null,\"confirmation_duration\":[0,12000],\"transaction_burnt_fee\":\"30688053144000\",\"type\":2,\"token_transfers_overflow\":null,\"confirmations\":1,\"position\":229,\"max_priority_fee_per_gas\":\"10000000\",\"transaction_tag\":null,\"created_contract\":null,\"value\":\"21202768000000000\",\"from\":{\"ens_domain_name\":null,\"hash\":\"0x41Fc802E01Bcf85D91E5708B42d41C2EAf01f375\",\"implementations\":[],\"is_contract\":false,\"is_scam\":false,\"is_verified\":false,\"metadata\":null,\"name\":null,\"private_tags\":[],\"proxy_type\":null,\"public_tags\":[],\"watchlist_names\":[]},\"gas_used\":\"21000\",\"status\":\"ok\",\"to\":{\"ens_domain_name\":null,\"hash\":\"0xd682038c071e1bED1B298864Ee8E198160de9953\",\"implementations\":[],\"is_contract\":false,\"is_scam\":false,\"is_verified\":false,\"metadata\":null,\"name\":null,\"private_tags\":[],\"proxy_type\":null,\"public_tags\":[],\"watchlist_names\":[]},\"authorization_list\":[],\"method\":null,\"fee\":{\"type\":\"actual\",\"value\":\"30898053144000\"},\"actions\":[],\"gas_limit\":\"42000\",\"gas_price\":\"1471335864\",\"decoded_input\":null,\"token_transfers\":null,\"base_fee_per_gas\":\"1461335864\",\"timestamp\":\"2025-06-13T09:24:11.000000Z\",\"nonce\":37931,\"historic_exchange_rate\":\"2540.82\",\"transaction_types\":[\"coin_transfer\"],\"exchange_rate\":\"2518.69\",\"block_number\":22694718,\"has_error_in_internal_transactions\":null},{\"priority_fee\":\"5139717337504\",\"raw_input\":\"0x095ea7b300000000000000000000000095fe5961368664c3da8879d7542149ddf0738d82ffffffffffffffffffffffffffffffffffffffffffffffffffffffffffffffff\",\"result\":\"success\",\"hash\":\"0x86ad5949daccf5dbb9f5fa99e21d634b0e1a1d0de3a4957feb92a58b647caa29\",\"max_fee_per_gas\":\"1570255872\",\"revert_reason\":null,\"confirmation_duration\":[0,12000],\"transaction_burnt_fee\":\"68957516750432\",\"type\":2,\"token_transfers_overflow\":null,\"confirmations\":1,\"position\":228,\"max_priority_fee_per_gas\":\"1570255872\",\"transaction_tag\":null,\"created_contract\":null,\"value\":\"0\",\"from\":{\"ens_domain_name\":null,\"hash\":\"0x99111487feE37818604e5E051382bE872014080b\",\"implementations\":[],\"is_contract\":false,\"is_scam\":false,\"is_verified\":false,\"metadata\":null,\"name\":null,\"private_tags\":[],\"proxy_type\":null,\"public_tags\":[],\"watchlist_names\":[]},\"gas_used\":\"47188\",\"status\":\"ok\",\"to\":{\"ens_domain_name\":null,\"hash\":\"0xca2bD76E1C03aAB3D08ae188B5Ee8040276914d9\",\"implementations\":[],\"is_contract\":true,\"is_scam\":false,\"is_verified\":true,\"metadata\":null,\"name\":\"Tweet\",\"private_tags\":[],\"proxy_type\":\"unknown\",\"public_tags\":[],\"watchlist_names\":[]},\"authorization_list\":[],\"method\":\"approve\",\"fee\":{\"type\":\"actual\",\"value\":\"74097234087936\"},\"actions\":[],\"gas_limit\":\"47572\",\"gas_price\":\"1570255872\",\"decoded_input\":{\"method_call\":\"approve(address spender, uint256 amount)\",\"method_id\":\"095ea7b3\",\"parameters\":[{\"name\":\"spender\",\"type\":\"address\",\"value\":\"0x95fe5961368664C3dA8879D7542149DDf0738d82\"},{\"name\":\"amount\",\"type\":\"uint256\",\"value\":\"115792089237316195423570985008687907853269984665640564039457584007913129639935\"}]},\"token_transfers\":null,\"base_fee_per_gas\":\"1461335864\",\"timestamp\":\"2025-06-13T09:24:11.000000Z\",\"nonce\":135,\"historic_exchange_rate\":\"2540.82\",\"transaction_types\":[\"contract_call\"],\"exchange_rate\":\"2518.69\",\"block_number\":22694718,\"has_error_in_internal_transactions\":null},{\"priority_fee\":\"7286850000000\",\"raw_input\":\"0x07ed23790000000000000000000000005141b82f5ffda4c6fe1e372978f1c5427640a190000000000000000000000000a0b86991c6218b36c1d19d4a2e9eb0ce3606eb48000000000000000000000000eeeeeeeeeeeeeeeeeeeeeeeeeeeeeeeeeeeeeeee0000000000000000000000005141b82f5ffda4c6fe1e372978f1c5427640a19000000000000000000000000061dbfd006f35ddb87114656898c26689d39ffa7e0000000000000000000000000000000000000000000000000000000000e99a230000000000000000000000000000000000000000000000000015406da71749b100000000000000000000000000000000000000000000000000000000000000000000000000000000000000000000000000000000000000000000000000000120000000000000000000000000000000000000000000000000000000000000013900000000000000000000000000000000000000011b0001050000c900004e00a0744c8c09a0b86991c6218b36c1d19d4a2e9eb0ce3606eb4839041f1b366fe33f9a5a79de5120f2aee2577ebc00000000000000000000000000000000000000000000000000000000000095810c20a0b86991c6218b36c1d19d4a2e9eb0ce3606eb48b4e16d0168e52d35cacd2c6185b44281ec28c9dc6ae4071198002dc6c0b4e16d0168e52d35cacd2c6185b44281ec28c9dc0000000000000000000000000000000000000000000000000015406da71749b1a0b86991c6218b36c1d19d4a2e9eb0ce3606eb484101c02aaa39b223fe8d0a0e5c4f27ead9083c756cc200042e1a7d4d0000000000000000000000000000000000000000000000000000000000000000c061111111125421ca6dc452d289314280a0f8842a65000000000000002a6f45f2\",\"result\":\"success\",\"hash\":\"0x15f074af2a97787c7a52f3bb740be66ca1e18ff0ff5b2386ecdb9c0dc1b51fc9\",\"max_fee_per_gas\":\"1700000000\",\"revert_reason\":null,\"confirmation_duration\":[0,12000],\"transaction_burnt_fee\":\"212970704811768\",\"type\":2,\"token_transfers_overflow\":null,\"confirmations\":1,\"position\":227,\"max_priority_fee_per_gas\":\"50000000\",\"transaction_tag\":null,\"created_contract\":null,\"value\":\"0\",\"from\":{\"ens_domain_name\":null,\"hash\":\"0x61DBfd006F35DdB87114656898C26689D39Ffa7e\",\"implementations\":[],\"is_contract\":false,\"is_scam\":false,\"is_verified\":false,\"metadata\":null,\"name\":null,\"private_tags\":[],\"proxy_type\":null,\"public_tags\":[],\"watchlist_names\":[]},\"gas_used\":\"145737\",\"status\":\"ok\",\"to\":{\"ens_domain_name\":null,\"hash\":\"0x111111125421cA6dc452d289314280a0f8842A65\",\"implementations\":[],\"is_contract\":true,\"is_scam\":false,\"is_verified\":true,\"metadata\":{\"tags\":[{\"meta\":{},\"name\":\"1inch Network : Aggregation Router V6\",\"ordinal\":10,\"slug\":\"1inch-network--aggregation-router-v6\",\"tagType\":\"name\"}]},\"name\":\"AggregationRouterV6\",\"private_tags\":[],\"proxy_type\":\"unknown\",\"public_tags\":[],\"watchlist_names\":[]},\"authorization_list\":[],\"method\":\"swap\",\"fee\":{\"type\":\"actual\",\"value\":\"220257554811768\"},\"actions\":[],\"gas_limit\":\"264548\",\"gas_price\":\"1511335864\",\"decoded_input\":{\"method_call\":\"swap(address executor, (address,address,address,address,uint256,uint256,uint256) desc, bytes data)\",\"method_id\":\"07ed2379\",\"parameters\":[{\"name\":\"executor\",\"type\":\"address\",\"value\":\"0x5141B82f5fFDa4c6fE1E372978F1C5427640a190\"},{\"name\":\"desc\",\"type\":\"(address,address,address,address,uint256,uint256,uint256)\",\"value\":[\"0xA0b86991c6218b36c1d19D4a2e9Eb0cE3606eB48\",\"0xEeeeeEeeeEeEeeEeEeEeeEEEeeeeEeeeeeeeEEeE\",\"0x5141B82f5fFDa4c6fE1E372978F1C5427640a190\",\"0x61DBfd006F35DdB87114656898C26689D39Ffa7e\",\"15309347\",\"5981814209857969\",\"0\"]},{\"name\":\"data\",\"type\":\"bytes\",\"value\":\"0x00000000000000000000000000000000000000011b0001050000c900004e00a0744c8c09a0b86991c6218b36c1d19d4a2e9eb0ce3606eb4839041f1b366fe33f9a5a79de5120f2aee2577ebc00000000000000000000000000000000000000000000000000000000000095810c20a0b86991c6218b36c1d19d4a2e9eb0ce3606eb48b4e16d0168e52d35cacd2c6185b44281ec28c9dc6ae4071198002dc6c0b4e16d0168e52d35cacd2c6185b44281ec28c9dc0000000000000000000000000000000000000000000000000015406da71749b1a0b86991c6218b36c1d19d4a2e9eb0ce3606eb484101c02aaa39b223fe8d0a0e5c4f27ead9083c756cc200042e1a7d4d0000000000000000000000000000000000000000000000000000000000000000c061111111125421ca6dc452d289314280a0f8842a65\"}]},\"token_transfers\":null,\"base_fee_per_gas\":\"1461335864\",\"timestamp\":\"2025-06-13T09:24:11.000000Z\",\"nonce\":306,\"historic_exchange_rate\":\"2540.82\",\"transaction_types\":[\"contract_call\",\"token_transfer\"],\"exchange_rate\":\"2518.69\",\"block_number\":22694718,\"has_error_in_internal_transactions\":null},{\"priority_fee\":\"461210000000\",\"raw_input\":\"0xa9059cbb000000000000000000000000d2d75cf1a4ac4daf3b670398fd1b5b03cd06ecb00000000000000000000000000000000000000000000000000000002794bfead9\",\"result\":\"success\",\"hash\":\"0xbba0c17a6412ff16dae39530b5bfd66fc229fbb5d6a776fe02d3126d24fad6f1\",\"max_fee_per_gas\":\"4710767616\",\"revert_reason\":null,\"confirmation_duration\":[0,12000],\"transaction_burnt_fee\":\"67398271383544\",\"type\":2,\"token_transfers_overflow\":null,\"confirmations\":1,\"position\":226,\"max_priority_fee_per_gas\":\"10000000\",\"transaction_tag\":null,\"created_contract\":null,\"value\":\"0\",\"from\":{\"ens_domain_name\":null,\"hash\":\"0x935D2e470284Fb536227A76A723F96a94eFaE6A9\",\"implementations\":[],\"is_contract\":false,\"is_scam\":false,\"is_verified\":false,\"metadata\":null,\"name\":null,\"private_tags\":[],\"proxy_type\":null,\"public_tags\":[],\"watchlist_names\":[]},\"gas_used\":\"46121\",\"status\":\"ok\",\"to\":{\"ens_domain_name\":null,\"hash\":\"0xdAC17F958D2ee523a2206206994597C13D831ec7\",\"implementations\":[],\"is_contract\":true,\"is_scam\":false,\"is_verified\":true,\"metadata\":{\"tags\":[{\"meta\":{\"tooltipDescription\":\"Tether gives you the joint benefits of open blockchain technology and traditional currency by converting your cash into a stable digital currency equivalent.\",\"tooltipUrl\":\"https://tether.to/\"},\"name\":\"Tether: USDT Stablecoin\",\"ordinal\":10,\"slug\":\"tether-usdt-stablecoin\",\"tagType\":\"name\"},{\"meta\":{},\"name\":\"Stablecoin\",\"ordinal\":0,\"slug\":\"stablecoin\",\"tagType\":\"generic\"},{\"meta\":{},\"name\":\"Token Contract\",\"ordinal\":0,\"slug\":\"token-contract\",\"tagType\":\"generic\"},{\"meta\":{},\"name\":\"Tether\",\"ordinal\":0,\"slug\":\"tether\",\"tagType\":\"protocol\"}]},\"name\":\"Tether\",\"private_tags\":[],\"proxy_type\":\"unknown\",\"public_tags\":[],\"watchlist_names\":[]},\"authorization_list\":[],\"method\":\"transfer\",\"fee\":{\"type\":\"actual\",\"value\":\"67859481383544\"},\"actions\":[],\"gas_limit\":\"150000\",\"gas_price\":\"1471335864\",\"decoded_input\":{\"method_call\":\"transfer(address _to, uint256 _value)\",\"method_id\":\"a9059cbb\",\"parameters\":[{\"name\":\"_to\",\"type\":\"address\",\"value\":\"0xD2D75cf1a4Ac4dAf3B670398Fd1b5B03cD06eCb0\"},{\"name\":\"_value\",\"type\":\"uint256\",\"value\":\"169999330009\"}]},\"token_transfers\":null,\"base_fee_per_gas\":\"1461335864\",\"timestamp\":\"2025-06-13T09:24:11.000000Z\",\"nonce\":275939,\"historic_exchange_rate\":\"2540.82\",\"transaction_types\":[\"contract_call\",\"token_transfer\"],\"exchange_rate\":\"2518.69\",\"block_number\":22694718,\"has_error_in_internal_transactions\":null},{\"priority_fee\":null,\"raw_input\":\"0x\",\"result\":\"success\",\"hash\":\"0x23b4695db07617f4f6eb5666ed776158aac78093cf47cd95fdd306ca5cec1e96\",\"max_fee_per_gas\":null,\"revert_reason\":null,\"confirmation_duration\":[0,12000],\"transaction_burnt_fee\":null,\"type\":0,\"token_transfers_overflow\":null,\"confirmations\":1,\"position\":225,\"max_priority_fee_per_gas\":null,\"transaction_tag\":null,\"created_contract\":null,\"value\":\"48480271900905\",\"from\":{\"ens_domain_name\":null,\"hash\":\"0x2016e8118AADa3Aa32f8f48bFB77F1a57a79AAdC\",\"implementations\":[],\"is_contract\":false,\"is_scam\":false,\"is_verified\":false,\"metadata\":null,\"name\":null,\"private_tags\":[],\"proxy_type\":null,\"public_tags\":[],\"watchlist_names\":[]},\"gas_used\":\"21000\",\"status\":\"ok\",\"to\":{\"ens_domain_name\":null,\"hash\":\"0x4Fb9bbB1838ee0ACb7b4d2E519A4C233198499Fb\",\"implementations\":[],\"is_contract\":false,\"is_scam\":false,\"is_verified\":false,\"metadata\":null,\"name\":null,\"private_tags\":[],\"proxy_type\":\"unknown\",\"public_tags\":[],\"watchlist_names\":[]},\"authorization_list\":[],\"method\":null,\"fee\":{\"type\":\"actual\",\"value\":\"31375735083000\"},\"actions\":[],\"gas_limit\":\"21000\",\"gas_price\":\"1494082623\",\"decoded_input\":null,\"token_transfers\":null,\"base_fee_per_gas\":\"1461335864\",\"timestamp\":\"2025-06-13T09:24:11.000000Z\",\"nonce\":4,\"historic_exchange_rate\":\"2540.82\",\"transaction_types\":[\"coin_transfer\"],\"exchange_rate\":\"2518.69\",\"block_number\":22694718,\"has_error_in_internal_transactions\":null},{\"priority_fee\":null,\"raw_input\":\"0x095ea7b300000000000000000000000022ce84a7f86662b78e49c6ec9e51d60fdde7b70a0000000000000000000000000000000000000000000000000000000000000000\",\"result\":\"success\",\"hash\":\"0x97003f93effcaf72a4a9b8e64475e5c3060ac4a94c8f4d431017c10dca3a0ba1\",\"max_fee_per_gas\":null,\"revert_reason\":null,\"confirmation_duration\":[0,12000],\"transaction_burnt_fee\":null,\"type\":0,\"token_transfers_overflow\":null,\"confirmations\":1,\"position\":224,\"max_priority_fee_per_gas\":null,\"transaction_tag\":null,\"created_contract\":null,\"value\":\"0\",\"from\":{\"ens_domain_name\":null,\"hash\":\"0xD30c642e7FfbA839CFd5Ac9b77Ff9eF1a1233953\",\"implementations\":[],\"is_contract\":false,\"is_scam\":false,\"is_verified\":false,\"metadata\":null,\"name\":null,\"private_tags\":[],\"proxy_type\":null,\"public_tags\":[],\"watchlist_names\":[]},\"gas_used\":\"24926\",\"status\":\"ok\",\"to\":{\"ens_domain_name\":null,\"hash\":\"0x142Cd12f4C0265DD513d0fF876991a3B6EadCA0e\",\"implementations\":[],\"is_contract\":true,\"is_scam\":false,\"is_verified\":true,\"metadata\":null,\"name\":\"BigDog\",\"private_tags\":[],\"proxy_type\":\"unknown\",\"public_tags\":[],\"watchlist_names\":[]},\"authorization_list\":[],\"method\":\"approve\",\"fee\":{\"type\":\"actual\",\"value\":\"37241503460898\"},\"actions\":[],\"gas_limit\":\"35900\",\"gas_price\":\"1494082623\",\"decoded_input\":{\"method_call\":\"approve(address spender, uint256 amount)\",\"method_id\":\"095ea7b3\",\"parameters\":[{\"name\":\"spender\",\"type\":\"address\",\"value\":\"0x22cE84A7F86662b78E49C6ec9E51D60FddE7b70A\"},{\"name\":\"amount\",\"type\":\"uint256\",\"value\":\"0\"}]},\"token_transfers\":null,\"base_fee_per_gas\":\"1461335864\",\"timestamp\":\"2025-06-13T09:24:11.000000Z\",\"nonce\":75,\"historic_exchange_rate\":\"2540.82\",\"transaction_types\":[\"contract_call\"],\"exchange_rate\":\"2518.69\",\"block_number\":22694718,\"has_error_in_internal_transactions\":null},{\"priority_fee\":\"845292697722\",\"raw_input\":\"0xa9059cbb0000000000000000000000008ee83bd180d75f5cafa647435f457c89b71491c8000000000000000000000000000000000000000000000086f37d0b356fea8649\",\"result\":\"success\",\"hash\":\"0x799bc4034c5b77f5dee6a73e99c4fd4cb57b2233158cf740d9b35c63367b5ab7\",\"max_fee_per_gas\":\"1822131045\",\"revert_reason\":null,\"confirmation_duration\":[0,12000],\"transaction_burnt_fee\":\"75583213557808\",\"type\":2,\"token_transfers_overflow\":null,\"confirmations\":1,\"position\":223,\"max_priority_fee_per_gas\":\"16343001\",\"transaction_tag\":null,\"created_contract\":null,\"value\":\"0\",\"from\":{\"ens_domain_name\":null,\"hash\":\"0x9CFc06d63E359f8c7b9a8040C9Cb55F5280623aD\",\"implementations\":[],\"is_contract\":false,\"is_scam\":false,\"is_verified\":false,\"metadata\":null,\"name\":null,\"private_tags\":[],\"proxy_type\":null,\"public_tags\":[],\"watchlist_names\":[]},\"gas_used\":\"51722\",\"status\":\"ok\",\"to\":{\"ens_domain_name\":null,\"hash\":\"0x259338656198eC7A76c729514D3CB45Dfbf768A1\",\"implementations\":[{\"address\":\"0x5AC0551f79d10f9f2A7ce74eefFad23336060B9A\",\"address_hash\":\"0x5AC0551f79d10f9f2A7ce74eefFad23336060B9A\",\"name\":\"ResolvToken\"}],\"is_contract\":true,\"is_scam\":false,\"is_verified\":true,\"metadata\":null,\"name\":\"TransparentUpgradeableProxy\",\"private_tags\":[],\"proxy_type\":\"eip1967\",\"public_tags\":[],\"watchlist_names\":[]},\"authorization_list\":[],\"method\":\"transfer\",\"fee\":{\"type\":\"actual\",\"value\":\"76428506255530\"},\"actions\":[],\"gas_limit\":\"63049\",\"gas_price\":\"1477678865\",\"decoded_input\":{\"method_call\":\"transfer(address _to, uint256 _tokenId)\",\"method_id\":\"a9059cbb\",\"parameters\":[{\"name\":\"_to\",\"type\":\"address\",\"value\":\"0x8EE83Bd180d75f5CaFa647435F457c89B71491C8\"},{\"name\":\"_tokenId\",\"type\":\"uint256\",\"value\":\"2489408897924524049993\"}]},\"token_transfers\":null,\"base_fee_per_gas\":\"1461335864\",\"timestamp\":\"2025-06-13T09:24:11.000000Z\",\"nonce\":34,\"historic_exchange_rate\":\"2540.82\",\"transaction_types\":[\"contract_call\",\"token_transfer\"],\"exchange_rate\":\"2518.69\",\"block_number\":22694718,\"has_error_in_internal_transactions\":null},{\"priority_fee\":\"903440000000\",\"raw_input\":\"0xa9059cbb000000000000000000000000dc272f0b031a6e3aac1d99f73cd91db22cc0bb3e0000000000000000000000000000000000000000000000000000000290745e40\",\"result\":\"success\",\"hash\":\"0x1819fea6d20a0c9f009bf3017539145fc57c2b205eb0231489d59ee8c321dd37\",\"max_fee_per_gas\":\"75000000000\",\"revert_reason\":null,\"confirmation_duration\":[0,12000],\"transaction_burnt_fee\":\"66011463648608\",\"type\":2,\"token_transfers_overflow\":null,\"confirmations\":1,\"position\":222,\"max_priority_fee_per_gas\":\"20000000\",\"transaction_tag\":null,\"created_contract\":null,\"value\":\"0\",\"from\":{\"ens_domain_name\":null,\"hash\":\"0x77A49D77619b1A41866Ba58e8272A844bf7DEcfe\",\"implementations\":[],\"is_contract\":false,\"is_scam\":false,\"is_verified\":false,\"metadata\":null,\"name\":null,\"private_tags\":[],\"proxy_type\":null,\"public_tags\":[],\"watchlist_names\":[]},\"gas_used\":\"45172\",\"status\":\"ok\",\"to\":{\"ens_domain_name\":null,\"hash\":\"0xA0b86991c6218b36c1d19D4a2e9Eb0cE3606eB48\",\"implementations\":[{\"address\":\"0x43506849D7C04F9138D1A2050bbF3A0c054402dd\",\"address_hash\":\"0x43506849D7C04F9138D1A2050bbF3A0c054402dd\",\"name\":\"FiatTokenV2_2\"}],\"is_contract\":true,\"is_scam\":false,\"is_verified\":true,\"metadata\":{\"tags\":[{\"meta\":{},\"name\":\"Stablecoin\",\"ordinal\":0,\"slug\":\"stablecoin\",\"tagType\":\"generic\"},{\"meta\":{\"tooltipDescription\":\"USDC is a US dollar-backed stablecoin issued by Circle. USDC is designed to provide a faster, safer, and more efficient way to send, spend, and exchange money around the world.\",\"tooltipUrl\":\"https://www.circle.com/en/usdc\"},\"name\":\"Circle: USDC Token\",\"ordinal\":10,\"slug\":\"circle-usdc-token\",\"tagType\":\"name\"},{\"meta\":{},\"name\":\"Circle\",\"ordinal\":0,\"slug\":\"circle\",\"tagType\":\"protocol\"},{\"meta\":{},\"name\":\"USDC\",\"ordinal\":0,\"slug\":\"usdc\",\"tagType\":\"generic\"},{\"meta\":{},\"name\":\"Token Contract\",\"ordinal\":0,\"slug\":\"token-contract\",\"tagType\":\"generic\"}]},\"name\":\"USDC\",\"private_tags\":[],\"proxy_type\":\"eip1967\",\"public_tags\":[],\"watchlist_names\":[]},\"authorization_list\":[],\"method\":\"transfer\",\"fee\":{\"type\":\"actual\",\"value\":\"66914903648608\"},\"actions\":[],\"gas_limit\":\"100000\",\"gas_price\":\"1481335864\",\"decoded_input\":{\"method_call\":\"transfer(address to, uint256 value)\",\"method_id\":\"a9059cbb\",\"parameters\":[{\"name\":\"to\",\"type\":\"address\",\"value\":\"0xdC272f0b031A6e3AaC1D99F73Cd91DB22cC0bb3e\"},{\"name\":\"value\",\"type\":\"uint256\",\"value\":\"11013480000\"}]},\"token_transfers\":null,\"base_fee_per_gas\":\"1461335864\",\"timestamp\":\"2025-06-13T09:24:11.000000Z\",\"nonce\":667,\"historic_exchange_rate\":\"2540.82\",\"transaction_types\":[\"contract_call\",\"token_transfer\"],\"exchange_rate\":\"2518.69\",\"block_number\":22694718,\"has_error_in_internal_transactions\":null},{\"priority_fee\":\"1227840000000\",\"raw_input\":\"0xffc3a76900000000000000000000000000000000000000000000000000000000000000400000000000000000000000000000000000000000000000000000000000000100000000000000000000000000000000000000000000000000000000000000000500000000000000000000000019a37bd009fef5c59140c32179c88803a8c00d2d0000000000000000000000000487dfd3b512190472812e4f19b0e1358707134b000000000000000000000000b1714f332809d7c5512bccbbf1d17dfcd47ebc35000000000000000000000000f68d25c81eaaa5178a0e2e4f7663bd9fe807e915000000000000000000000000e21a2ddafb6f8f1a0d09786f6b9230f2ddab0b60000000000000000000000000000000000000000000000000000000000000000500000000000000000000000000000000000000000000000000001bc8b6985e0000000000000000000000000000000000000000000000000000001bc8b6985e0000000000000000000000000000000000000000000000000000001bc8b6985e0000000000000000000000000000000000000000000000000000001bc8b6985e0000000000000000000000000000000000000000000000000000001bc8b6985e00\",\"result\":\"success\",\"hash\":\"0xc4d69eb45fd82db279e95c58f4bd790c4e93d36d39d5296a80864248aec4e93c\",\"max_fee_per_gas\":\"4000000000\",\"revert_reason\":null,\"confirmation_duration\":[0,12000],\"transaction_burnt_fee\":\"179428662725376\",\"type\":2,\"token_transfers_overflow\":null,\"confirmations\":1,\"position\":221,\"max_priority_fee_per_gas\":\"10000000\",\"transaction_tag\":null,\"created_contract\":null,\"value\":\"152744354240000\",\"from\":{\"ens_domain_name\":null,\"hash\":\"0xdda3B51E29F9d6fAd865c5DD7070d5F7EB57663e\",\"implementations\":[],\"is_contract\":false,\"is_scam\":false,\"is_verified\":false,\"metadata\":null,\"name\":null,\"private_tags\":[],\"proxy_type\":null,\"public_tags\":[],\"watchlist_names\":[]},\"gas_used\":\"122784\",\"status\":\"ok\",\"to\":{\"ens_domain_name\":null,\"hash\":\"0x8D8210a0252a706cb5dE0c6F8e46b6D3692AfC19\",\"implementations\":[],\"is_contract\":true,\"is_scam\":false,\"is_verified\":false,\"metadata\":null,\"name\":null,\"private_tags\":[],\"proxy_type\":\"unknown\",\"public_tags\":[],\"watchlist_names\":[]},\"authorization_list\":[],\"method\":\"transfer\",\"fee\":{\"type\":\"actual\",\"value\":\"180656502725376\"},\"actions\":[],\"gas_limit\":\"8540000\",\"gas_price\":\"1471335864\",\"decoded_input\":{\"method_call\":\"transfer(address[] addresses, uint256[] amounts)\",\"method_id\":\"ffc3a769\",\"parameters\":[{\"name\":\"addresses\",\"type\":\"address[]\",\"value\":[\"0x19A37BD009FeF5C59140c32179C88803A8c00D2D\",\"0x0487Dfd3B512190472812e4F19B0e1358707134B\",\"0xb1714F332809d7C5512BCcbbF1d17DFCD47EbC35\",\"0xF68d25c81eAAa5178A0e2E4F7663bd9fe807e915\",\"0xE21a2DDaFB6f8F1a0D09786f6B9230F2DDAB0B60\"]},{\"name\":\"amounts\",\"type\":\"uint256[]\",\"value\":[\"30548870848000\",\"30548870848000\",\"30548870848000\",\"30548870848000\",\"30548870848000\"]}]},\"token_transfers\":null,\"base_fee_per_gas\":\"1461335864\",\"timestamp\":\"2025-06-13T09:24:11.000000Z\",\"nonce\":5286,\"historic_exchange_rate\":\"2540.82\",\"transaction_types\":[\"coin_transfer\",\"contract_call\"],\"exchange_rate\":\"2518.69\",\"block_number\":22694718,\"has_error_in_internal_transactions\":null},{\"priority_fee\":null,\"raw_input\":\"0x095ea7b30000000000000000000000008c9208f397eba564fa05e0b4ba5406313948b5810000000000000000000000000000000000000000000000000000000000000000\",\"result\":\"success\",\"hash\":\"0x4e7093da1cba47c362d87bf1e6b1b136784e6827a446b977772f6959dbc943e8\",\"max_fee_per_gas\":null,\"revert_reason\":null,\"confirmation_duration\":[0,12000],\"transaction_burnt_fee\":null,\"type\":0,\"token_transfers_overflow\":null,\"confirmations\":1,\"position\":220,\"max_priority_fee_per_gas\":null,\"transaction_tag\":null,\"created_contract\":null,\"value\":\"0\",\"from\":{\"ens_domain_name\":null,\"hash\":\"0x41CBe71f0572ff12c96e5214Cc8663B43BF68223\",\"implementations\":[],\"is_contract\":false,\"is_scam\":false,\"is_verified\":false,\"metadata\":null,\"name\":null,\"private_tags\":[],\"proxy_type\":null,\"public_tags\":[],\"watchlist_names\":[]},\"gas_used\":\"39579\",\"status\":\"ok\",\"to\":{\"ens_domain_name\":null,\"hash\":\"0xD31a59c85aE9D8edEFeC411D448f90841571b89c\",\"implementations\":[{\"address\":\"0x0fD04a68d3c3A692d6Fa30384D1A87Ef93554eE6\",\"address_hash\":\"0x0fD04a68d3c3A692d6Fa30384D1A87Ef93554eE6\",\"name\":\"TokenImplementation\"}],\"is_contract\":true,\"is_scam\":false,\"is_verified\":true,\"metadata\":null,\"name\":\"BridgeToken\",\"private_tags\":[],\"proxy_type\":\"eip1967\",\"public_tags\":[],\"watchlist_names\":[]},\"authorization_list\":[],\"method\":\"approve\",\"fee\":{\"type\":\"actual\",\"value\":\"59134296135717\"},\"actions\":[],\"gas_limit\":\"44478\",\"gas_price\":\"1494082623\",\"decoded_input\":{\"method_call\":\"approve(address spender_, uint256 amount_)\",\"method_id\":\"095ea7b3\",\"parameters\":[{\"name\":\"spender_\",\"type\":\"address\",\"value\":\"0x8C9208f397EbA564FA05E0b4Ba5406313948b581\"},{\"name\":\"amount_\",\"type\":\"uint256\",\"value\":\"0\"}]},\"token_transfers\":null,\"base_fee_per_gas\":\"1461335864\",\"timestamp\":\"2025-06-13T09:24:11.000000Z\",\"nonce\":6,\"historic_exchange_rate\":\"2540.82\",\"transaction_types\":[\"contract_call\"],\"exchange_rate\":\"2518.69\",\"block_number\":22694718,\"has_error_in_internal_transactions\":null},{\"priority_fee\":null,\"raw_input\":\"0xa9059cbb000000000000000000000000d9af8b5a84da4c82ad137463e740be9e23c8e0ab000000000000000000000000000000000000000000000000000000000501bd00\",\"result\":\"success\",\"hash\":\"0xf7cfa66e28833fdb7d068a92859d098623ecc4b2ace3181b24cdd63f9f4a4c94\",\"max_fee_per_gas\":null,\"revert_reason\":null,\"confirmation_duration\":[0,12000],\"transaction_burnt_fee\":null,\"type\":0,\"token_transfers_overflow\":null,\"confirmations\":1,\"position\":219,\"max_priority_fee_per_gas\":null,\"transaction_tag\":null,\"created_contract\":null,\"value\":\"0\",\"from\":{\"ens_domain_name\":null,\"hash\":\"0x974CaA59e49682CdA0AD2bbe82983419A2ECC400\",\"implementations\":[],\"is_contract\":false,\"is_scam\":false,\"is_verified\":false,\"metadata\":{\"tags\":[{\"meta\":{},\"name\":\"Gambling\",\"ordinal\":0,\"slug\":\"gambling\",\"tagType\":\"generic\"},{\"meta\":{\"tooltipUrl\":\"https://stake.com/\"},\"name\":\"Stake.com\",\"ordinal\":10,\"slug\":\"stakecom\",\"tagType\":\"name\"},{\"meta\":{},\"name\":\"HOT WALLET\",\"ordinal\":0,\"slug\":\"hot-wallet\",\"tagType\":\"generic\"}]},\"name\":null,\"private_tags\":[],\"proxy_type\":null,\"public_tags\":[],\"watchlist_names\":[]},\"gas_used\":\"45148\",\"status\":\"ok\",\"to\":{\"ens_domain_name\":null,\"hash\":\"0xA0b86991c6218b36c1d19D4a2e9Eb0cE3606eB48\",\"implementations\":[{\"address\":\"0x43506849D7C04F9138D1A2050bbF3A0c054402dd\",\"address_hash\":\"0x43506849D7C04F9138D1A2050bbF3A0c054402dd\",\"name\":\"FiatTokenV2_2\"}],\"is_contract\":true,\"is_scam\":false,\"is_verified\":true,\"metadata\":{\"tags\":[{\"meta\":{},\"name\":\"Stablecoin\",\"ordinal\":0,\"slug\":\"stablecoin\",\"tagType\":\"generic\"},{\"meta\":{\"tooltipDescription\":\"USDC is a US dollar-backed stablecoin issued by Circle. USDC is designed to provide a faster, safer, and more efficient way to send, spend, and exchange money around the world.\",\"tooltipUrl\":\"https://www.circle.com/en/usdc\"},\"name\":\"Circle: USDC Token\",\"ordinal\":10,\"slug\":\"circle-usdc-token\",\"tagType\":\"name\"},{\"meta\":{},\"name\":\"Circle\",\"ordinal\":0,\"slug\":\"circle\",\"tagType\":\"protocol\"},{\"meta\":{},\"name\":\"USDC\",\"ordinal\":0,\"slug\":\"usdc\",\"tagType\":\"generic\"},{\"meta\":{},\"name\":\"Token Contract\",\"ordinal\":0,\"slug\":\"token-contract\",\"tagType\":\"generic\"}]},\"name\":\"USDC\",\"private_tags\":[],\"proxy_type\":\"eip1967\",\"public_tags\":[],\"watchlist_names\":[]},\"authorization_list\":[],\"method\":\"transfer\",\"fee\":{\"type\":\"actual\",\"value\":\"67454842263204\"},\"actions\":[],\"gas_limit\":\"1050000\",\"gas_price\":\"1494082623\",\"decoded_input\":{\"method_call\":\"transfer(address to, uint256 value)\",\"method_id\":\"a9059cbb\",\"parameters\":[{\"name\":\"to\",\"type\":\"address\",\"value\":\"0xd9Af8b5A84da4C82aD137463e740be9e23c8e0Ab\"},{\"name\":\"value\",\"type\":\"uint256\",\"value\":\"84000000\"}]},\"token_transfers\":null,\"base_fee_per_gas\":\"1461335864\",\"timestamp\":\"2025-06-13T09:24:11.000000Z\",\"nonce\":4908212,\"historic_exchange_rate\":\"2540.82\",\"transaction_types\":[\"contract_call\",\"token_transfer\"],\"exchange_rate\":\"2518.69\",\"block_number\":22694718,\"has_error_in_internal_transactions\":null},{\"priority_fee\":\"1632500000000\",\"raw_input\":\"0x259941ff3deb94eb36444ce44d5f324016319fd28022ecd72843f92563764639\",\"result\":\"success\",\"hash\":\"0xd0d0d94363997da415256968a39d9db109d9e30205e7250c5855a402b9a24cbf\",\"max_fee_per_gas\":\"1700000000\",\"revert_reason\":null,\"confirmation_duration\":[0,12000],\"transaction_burnt_fee\":\"47712615959600\",\"type\":2,\"token_transfers_overflow\":null,\"confirmations\":1,\"position\":218,\"max_priority_fee_per_gas\":\"50000000\",\"transaction_tag\":null,\"created_contract\":null,\"value\":\"12000000000000\",\"from\":{\"ens_domain_name\":null,\"hash\":\"0x4E9eB9665EE380A656043Cc67625E20A0A2a0d1a\",\"implementations\":[],\"is_contract\":false,\"is_scam\":false,\"is_verified\":false,\"metadata\":null,\"name\":null,\"private_tags\":[],\"proxy_type\":null,\"public_tags\":[],\"watchlist_names\":[]},\"gas_used\":\"32650\",\"status\":\"ok\",\"to\":{\"ens_domain_name\":null,\"hash\":\"0xa5F565650890fBA1824Ee0F21EbBbF660a179934\",\"implementations\":[],\"is_contract\":true,\"is_scam\":false,\"is_verified\":true,\"metadata\":null,\"name\":\"RelayReceiver\",\"private_tags\":[],\"proxy_type\":\"unknown\",\"public_tags\":[],\"watchlist_names\":[]},\"authorization_list\":[],\"method\":\"0x259941ff\",\"fee\":{\"type\":\"actual\",\"value\":\"49345115959600\"},\"actions\":[],\"gas_limit\":\"50043\",\"gas_price\":\"1511335864\",\"decoded_input\":null,\"token_transfers\":null,\"base_fee_per_gas\":\"1461335864\",\"timestamp\":\"2025-06-13T09:24:11.000000Z\",\"nonce\":3,\"historic_exchange_rate\":\"2540.82\",\"transaction_types\":[\"coin_transfer\",\"contract_call\"],\"exchange_rate\":\"2518.69\",\"block_number\":22694718,\"has_error_in_internal_transactions\":null},{\"priority_fee\":\"1869000000000\",\"raw_input\":\"0x\",\"result\":\"success\",\"hash\":\"0x8f851dd956c8f2d4bc45b404d0ecade9f7b2dbd4dd55b1faf001d0d78468d72c\",\"max_fee_per_gas\":\"1769147115\",\"revert_reason\":null,\"confirmation_duration\":[0,12000],\"transaction_burnt_fee\":\"30688053144000\",\"type\":2,\"token_transfers_overflow\":null,\"confirmations\":1,\"position\":217,\"max_priority_fee_per_gas\":\"89000000\",\"transaction_tag\":null,\"created_contract\":null,\"value\":\"10930000000000000\",\"from\":{\"ens_domain_name\":null,\"hash\":\"0xA16500A9158BA14B5A1E178831DC27bF5E71932F\",\"implementations\":[],\"is_contract\":false,\"is_scam\":false,\"is_verified\":false,\"metadata\":null,\"name\":null,\"private_tags\":[],\"proxy_type\":null,\"public_tags\":[],\"watchlist_names\":[]},\"gas_used\":\"21000\",\"status\":\"ok\",\"to\":{\"ens_domain_name\":null,\"hash\":\"0x3129AB3F3E792D94Db1123e3D6f2D8a9130E2Ae3\",\"implementations\":[],\"is_contract\":false,\"is_scam\":false,\"is_verified\":false,\"metadata\":null,\"name\":null,\"private_tags\":[],\"proxy_type\":null,\"public_tags\":[],\"watchlist_names\":[]},\"authorization_list\":[],\"method\":null,\"fee\":{\"type\":\"actual\",\"value\":\"32557053144000\"},\"actions\":[],\"gas_limit\":\"21000\",\"gas_price\":\"1550335864\",\"decoded_input\":null,\"token_transfers\":null,\"base_fee_per_gas\":\"1461335864\",\"timestamp\":\"2025-06-13T09:24:11.000000Z\",\"nonce\":47,\"historic_exchange_rate\":\"2540.82\",\"transaction_types\":[\"coin_transfer\"],\"exchange_rate\":\"2518.69\",\"block_number\":22694718,\"has_error_in_internal_transactions\":null},{\"priority_fee\":\"2046500000000\",\"raw_input\":\"0xa9059cbb000000000000000000000000f70da97812cb96acdf810712aa562db8dfa3dbef00000000000000000000000000000000000000000000000000000000004c720a61859761d3480c132295bfb12a2c8579bef0dfad8ce532858bb2760ad00d0892865d8597\",\"result\":\"success\",\"hash\":\"0xeb40418d69cac015273c8166b0ab3b2a57b15b08673978efbab6762192d4990b\",\"max_fee_per_gas\":\"1800000000\",\"revert_reason\":null,\"confirmation_duration\":[0,12000],\"transaction_burnt_fee\":\"59812476913520\",\"type\":2,\"token_transfers_overflow\":null,\"confirmations\":1,\"position\":216,\"max_priority_fee_per_gas\":\"50000000\",\"transaction_tag\":null,\"created_contract\":null,\"value\":\"0\",\"from\":{\"ens_domain_name\":null,\"hash\":\"0xC9eDd2Be9346Ce7582527552585d603BDe94803F\",\"implementations\":[],\"is_contract\":false,\"is_scam\":false,\"is_verified\":false,\"metadata\":null,\"name\":null,\"private_tags\":[],\"proxy_type\":null,\"public_tags\":[],\"watchlist_names\":[]},\"gas_used\":\"40930\",\"status\":\"ok\",\"to\":{\"ens_domain_name\":null,\"hash\":\"0xA0b86991c6218b36c1d19D4a2e9Eb0cE3606eB48\",\"implementations\":[{\"address\":\"0x43506849D7C04F9138D1A2050bbF3A0c054402dd\",\"address_hash\":\"0x43506849D7C04F9138D1A2050bbF3A0c054402dd\",\"name\":\"FiatTokenV2_2\"}],\"is_contract\":true,\"is_scam\":false,\"is_verified\":true,\"metadata\":{\"tags\":[{\"meta\":{},\"name\":\"Stablecoin\",\"ordinal\":0,\"slug\":\"stablecoin\",\"tagType\":\"generic\"},{\"meta\":{\"tooltipDescription\":\"USDC is a US dollar-backed stablecoin issued by Circle. USDC is designed to provide a faster, safer, and more efficient way to send, spend, and exchange money around the world.\",\"tooltipUrl\":\"https://www.circle.com/en/usdc\"},\"name\":\"Circle: USDC Token\",\"ordinal\":10,\"slug\":\"circle-usdc-token\",\"tagType\":\"name\"},{\"meta\":{},\"name\":\"Circle\",\"ordinal\":0,\"slug\":\"circle\",\"tagType\":\"protocol\"},{\"meta\":{},\"name\":\"USDC\",\"ordinal\":0,\"slug\":\"usdc\",\"tagType\":\"generic\"},{\"meta\":{},\"name\":\"Token Contract\",\"ordinal\":0,\"slug\":\"token-contract\",\"tagType\":\"generic\"}]},\"name\":\"USDC\",\"private_tags\":[],\"proxy_type\":\"eip1967\",\"public_tags\":[],\"watchlist_names\":[]},\"authorization_list\":[],\"method\":\"transfer\",\"fee\":{\"type\":\"actual\",\"value\":\"61858976913520\"},\"actions\":[],\"gas_limit\":\"69501\",\"gas_price\":\"1511335864\",\"decoded_input\":{\"method_call\":\"transfer(address to, uint256 value)\",\"method_id\":\"a9059cbb\",\"parameters\":[{\"name\":\"to\",\"type\":\"address\",\"value\":\"0xf70da97812CB96acDF810712Aa562db8dfA3dbEF\"},{\"name\":\"value\",\"type\":\"uint256\",\"value\":\"5009930\"}]},\"token_transfers\":null,\"base_fee_per_gas\":\"1461335864\",\"timestamp\":\"2025-06-13T09:24:11.000000Z\",\"nonce\":55,\"historic_exchange_rate\":\"2540.82\",\"transaction_types\":[\"contract_call\",\"token_transfer\"],\"exchange_rate\":\"2518.69\",\"block_number\":22694718,\"has_error_in_internal_transactions\":null},{\"priority_fee\":null,\"raw_input\":\"0x\",\"result\":\"success\",\"hash\":\"0x92a03b21371ff3a1c4231cdc44601eb42ab9cc075692849dd21d08d9568a84fe\",\"max_fee_per_gas\":null,\"revert_reason\":null,\"confirmation_duration\":[0,12000],\"transaction_burnt_fee\":null,\"type\":0,\"token_transfers_overflow\":null,\"confirmations\":1,\"position\":215,\"max_priority_fee_per_gas\":null,\"transaction_tag\":null,\"created_contract\":null,\"value\":\"71442457949223\",\"from\":{\"ens_domain_name\":null,\"hash\":\"0x397Be73c6160E5E66408924dA4aD32eA5e9ea9db\",\"implementations\":[],\"is_contract\":false,\"is_scam\":false,\"is_verified\":false,\"metadata\":{\"tags\":[{\"meta\":{\"main_entity\":\"Aeroswap\",\"tooltipUrl\":\"https://aeroswap.io/\"},\"name\":\"Aeroswap: Deposit Funder 1\",\"ordinal\":0,\"slug\":\"aeroswap-deposit-funder-1\",\"tagType\":\"name\"},{\"meta\":{},\"name\":\"Exchange\",\"ordinal\":0,\"slug\":\"exchange\",\"tagType\":\"generic\"},{\"meta\":{},\"name\":\"Aeroswap\",\"ordinal\":0,\"slug\":\"aeroswap\",\"tagType\":\"protocol\"},{\"meta\":{\"alertStatus\":\"info\",\"data\":\"This address has been tagged based on hildobby compilation.\"},\"name\":\"note_0\",\"ordinal\":0,\"slug\":\"note0\",\"tagType\":\"note\"}]},\"name\":null,\"private_tags\":[],\"proxy_type\":null,\"public_tags\":[],\"watchlist_names\":[]},\"gas_used\":\"21000\",\"status\":\"ok\",\"to\":{\"ens_domain_name\":null,\"hash\":\"0xEC8164f46D9CbA85Ff7D414ff9319D4D6dB14d5e\",\"implementations\":[],\"is_contract\":false,\"is_scam\":false,\"is_verified\":false,\"metadata\":null,\"name\":null,\"private_tags\":[],\"proxy_type\":null,\"public_tags\":[],\"watchlist_names\":[]},\"authorization_list\":[],\"method\":null,\"fee\":{\"type\":\"actual\",\"value\":\"32944521834000\"},\"actions\":[],\"gas_limit\":\"21000\",\"gas_price\":\"1568786754\",\"decoded_input\":null,\"token_transfers\":null,\"base_fee_per_gas\":\"1461335864\",\"timestamp\":\"2025-06-13T09:24:11.000000Z\",\"nonce\":150508,\"historic_exchange_rate\":\"2540.82\",\"transaction_types\":[\"coin_transfer\"],\"exchange_rate\":\"2518.69\",\"block_number\":22694718,\"has_error_in_internal_transactions\":null},{\"priority_fee\":\"48419000000000\",\"raw_input\":\"0x095ea7b30000000000000000000000000000000000001ff3684f28c67538d4d072c22734ffffffffffffffffffffffffffffffffffffffffffffffffffffffffffffffff\",\"result\":\"success\",\"hash\":\"0x22b6d05fef2142831c2cc012fcd8dc41d9f5bdd6f724ccaeffcad1ca311ff9e6\",\"max_fee_per_gas\":\"2792156923\",\"revert_reason\":null,\"confirmation_duration\":[0,12000],\"transaction_burnt_fee\":\"70756421199016\",\"type\":2,\"token_transfers_overflow\":null,\"confirmations\":1,\"position\":214,\"max_priority_fee_per_gas\":\"1000000000\",\"transaction_tag\":null,\"created_contract\":null,\"value\":\"0\",\"from\":{\"ens_domain_name\":null,\"hash\":\"0xcBE84BbA99008E3592E5701A4670E13F607Dc81e\",\"implementations\":[],\"is_contract\":false,\"is_scam\":false,\"is_verified\":false,\"metadata\":null,\"name\":null,\"private_tags\":[],\"proxy_type\":null,\"public_tags\":[],\"watchlist_names\":[]},\"gas_used\":\"48419\",\"status\":\"ok\",\"to\":{\"ens_domain_name\":null,\"hash\":\"0x2C974B2d0BA1716E644c1FC59982a89DDD2fF724\",\"implementations\":[],\"is_contract\":true,\"is_scam\":false,\"is_verified\":true,\"metadata\":{\"tags\":[{\"meta\":{},\"name\":\"Token Contract\",\"ordinal\":0,\"slug\":\"token-contract\",\"tagType\":\"generic\"},{\"meta\":{\"tooltipUrl\":\"https://www.viberate.io/\"},\"name\":\"Viberate Token\",\"ordinal\":0,\"slug\":\"viberate-token\",\"tagType\":\"name\"}]},\"name\":\"VibeToken\",\"private_tags\":[],\"proxy_type\":\"unknown\",\"public_tags\":[],\"watchlist_names\":[]},\"authorization_list\":[],\"method\":\"approve\",\"fee\":{\"type\":\"actual\",\"value\":\"119175421199016\"},\"actions\":[],\"gas_limit\":\"73209\",\"gas_price\":\"2461335864\",\"decoded_input\":{\"method_call\":\"approve(address _spender, uint256 _value)\",\"method_id\":\"095ea7b3\",\"parameters\":[{\"name\":\"_spender\",\"type\":\"address\",\"value\":\"0x0000000000001fF3684f28c67538d4D072C22734\"},{\"name\":\"_value\",\"type\":\"uint256\",\"value\":\"115792089237316195423570985008687907853269984665640564039457584007913129639935\"}]},\"token_transfers\":null,\"base_fee_per_gas\":\"1461335864\",\"timestamp\":\"2025-06-13T09:24:11.000000Z\",\"nonce\":1,\"historic_exchange_rate\":\"2540.82\",\"transaction_types\":[\"contract_call\"],\"exchange_rate\":\"2518.69\",\"block_number\":22694718,\"has_error_in_internal_transactions\":null},{\"priority_fee\":\"48825000000000\",\"raw_input\":\"0x095ea7b30000000000000000000000000000000000001ff3684f28c67538d4d072c22734ffffffffffffffffffffffffffffffffffffffffffffffffffffffffffffffff\",\"result\":\"success\",\"hash\":\"0xe824f6c4a43d74004f8f604084caab8ab265ecae7d8b66bb31a4d7053feaa68c\",\"max_fee_per_gas\":\"2792156923\",\"revert_reason\":null,\"confirmation_duration\":[0,12000],\"transaction_burnt_fee\":\"71349723559800\",\"type\":2,\"token_transfers_overflow\":null,\"confirmations\":1,\"position\":213,\"max_priority_fee_per_gas\":\"1000000000\",\"transaction_tag\":null,\"created_contract\":null,\"value\":\"0\",\"from\":{\"ens_domain_name\":null,\"hash\":\"0xa1D8BBF50E05DFb1516B875015505Ae775b18Df6\",\"implementations\":[],\"is_contract\":false,\"is_scam\":false,\"is_verified\":false,\"metadata\":null,\"name\":null,\"private_tags\":[],\"proxy_type\":null,\"public_tags\":[],\"watchlist_names\":[]},\"gas_used\":\"48825\",\"status\":\"ok\",\"to\":{\"ens_domain_name\":null,\"hash\":\"0xdAC17F958D2ee523a2206206994597C13D831ec7\",\"implementations\":[],\"is_contract\":true,\"is_scam\":false,\"is_verified\":true,\"metadata\":{\"tags\":[{\"meta\":{\"tooltipDescription\":\"Tether gives you the joint benefits of open blockchain technology and traditional currency by converting your cash into a stable digital currency equivalent.\",\"tooltipUrl\":\"https://tether.to/\"},\"name\":\"Tether: USDT Stablecoin\",\"ordinal\":10,\"slug\":\"tether-usdt-stablecoin\",\"tagType\":\"name\"},{\"meta\":{},\"name\":\"Stablecoin\",\"ordinal\":0,\"slug\":\"stablecoin\",\"tagType\":\"generic\"},{\"meta\":{},\"name\":\"Token Contract\",\"ordinal\":0,\"slug\":\"token-contract\",\"tagType\":\"generic\"},{\"meta\":{},\"name\":\"Tether\",\"ordinal\":0,\"slug\":\"tether\",\"tagType\":\"protocol\"}]},\"name\":\"Tether\",\"private_tags\":[],\"proxy_type\":\"unknown\",\"public_tags\":[],\"watchlist_names\":[]},\"authorization_list\":[],\"method\":\"approve\",\"fee\":{\"type\":\"actual\",\"value\":\"120174723559800\"},\"actions\":[],\"gas_limit\":\"73819\",\"gas_price\":\"2461335864\",\"decoded_input\":{\"method_call\":\"approve(address _spender, uint256 _value)\",\"method_id\":\"095ea7b3\",\"parameters\":[{\"name\":\"_spender\",\"type\":\"address\",\"value\":\"0x0000000000001fF3684f28c67538d4D072C22734\"},{\"name\":\"_value\",\"type\":\"uint256\",\"value\":\"115792089237316195423570985008687907853269984665640564039457584007913129639935\"}]},\"token_transfers\":null,\"base_fee_per_gas\":\"1461335864\",\"timestamp\":\"2025-06-13T09:24:11.000000Z\",\"nonce\":37,\"historic_exchange_rate\":\"2540.82\",\"transaction_types\":[\"contract_call\"],\"exchange_rate\":\"2518.69\",\"block_number\":22694718,\"has_error_in_internal_transactions\":null},{\"priority_fee\":\"2545337529000\",\"raw_input\":\"0x\",\"result\":\"success\",\"hash\":\"0x33ad4a19f11426ec1c366f793763ffad3547b9b1a641b181a37e2554e755ef5b\",\"max_fee_per_gas\":\"1582542413\",\"revert_reason\":null,\"confirmation_duration\":[0,12000],\"transaction_burnt_fee\":\"30688053144000\",\"type\":2,\"token_transfers_overflow\":null,\"confirmations\":1,\"position\":212,\"max_priority_fee_per_gas\":\"1582542413\",\"transaction_tag\":null,\"created_contract\":null,\"value\":\"436000000000000000\",\"from\":{\"ens_domain_name\":null,\"hash\":\"0xd921C7cc91528935CD490aa04dc8Bb01098DC6fE\",\"implementations\":[],\"is_contract\":false,\"is_scam\":false,\"is_verified\":false,\"metadata\":null,\"name\":null,\"private_tags\":[],\"proxy_type\":null,\"public_tags\":[],\"watchlist_names\":[]},\"gas_used\":\"21000\",\"status\":\"ok\",\"to\":{\"ens_domain_name\":null,\"hash\":\"0x3d050Ce00C1a2C65120D90E2dA767C352cF09E3A\",\"implementations\":[],\"is_contract\":false,\"is_scam\":false,\"is_verified\":false,\"metadata\":null,\"name\":null,\"private_tags\":[],\"proxy_type\":null,\"public_tags\":[],\"watchlist_names\":[]},\"authorization_list\":[],\"method\":null,\"fee\":{\"type\":\"actual\",\"value\":\"33233390673000\"},\"actions\":[],\"gas_limit\":\"21000\",\"gas_price\":\"1582542413\",\"decoded_input\":null,\"token_transfers\":null,\"base_fee_per_gas\":\"1461335864\",\"timestamp\":\"2025-06-13T09:24:11.000000Z\",\"nonce\":6,\"historic_exchange_rate\":\"2540.82\",\"transaction_types\":[\"coin_transfer\"],\"exchange_rate\":\"2518.69\",\"block_number\":22694718,\"has_error_in_internal_transactions\":null},{\"priority_fee\":\"2798467875000\",\"raw_input\":\"0x\",\"result\":\"success\",\"hash\":\"0x5e4c9428ec22f8693c0400794e0c4d53809bd4f8b18bcddc34d53ad459afdff7\",\"max_fee_per_gas\":\"1594596239\",\"revert_reason\":null,\"confirmation_duration\":[0,12000],\"transaction_burnt_fee\":\"30688053144000\",\"type\":2,\"token_transfers_overflow\":null,\"confirmations\":1,\"position\":211,\"max_priority_fee_per_gas\":\"331394686\",\"transaction_tag\":null,\"created_contract\":null,\"value\":\"167731216687268724\",\"from\":{\"ens_domain_name\":null,\"hash\":\"0xBEDb67F6746fd91C4aBa8f38236D730697726daB\",\"implementations\":[],\"is_contract\":false,\"is_scam\":false,\"is_verified\":false,\"metadata\":null,\"name\":null,\"private_tags\":[],\"proxy_type\":null,\"public_tags\":[],\"watchlist_names\":[]},\"gas_used\":\"21000\",\"status\":\"ok\",\"to\":{\"ens_domain_name\":null,\"hash\":\"0xd5976E46aDa263eD80b58b8dc4021a21e68f61Ab\",\"implementations\":[],\"is_contract\":false,\"is_scam\":false,\"is_verified\":false,\"metadata\":null,\"name\":null,\"private_tags\":[],\"proxy_type\":null,\"public_tags\":[],\"watchlist_names\":[]},\"authorization_list\":[],\"method\":null,\"fee\":{\"type\":\"actual\",\"value\":\"33486521019000\"},\"actions\":[],\"gas_limit\":\"21000\",\"gas_price\":\"1594596239\",\"decoded_input\":null,\"token_transfers\":null,\"base_fee_per_gas\":\"1461335864\",\"timestamp\":\"2025-06-13T09:24:11.000000Z\",\"nonce\":5884,\"historic_exchange_rate\":\"2540.82\",\"transaction_types\":[\"coin_transfer\"],\"exchange_rate\":\"2518.69\",\"block_number\":22694718,\"has_error_in_internal_transactions\":null},{\"priority_fee\":\"3113000000000\",\"raw_input\":\"0xa9059cbb000000000000000000000000a11237bd889e8582b44d9e794f5be4eb4e6e798f0000000000000000000000000000000000000000000000000000000087062359\",\"result\":\"success\",\"hash\":\"0x40c29d5ebf64bda72bc25d5840460cd641f4f6cfd8b4674b8f6e7887213ec490\",\"max_fee_per_gas\":\"1698444567\",\"revert_reason\":null,\"confirmation_duration\":[0,12000],\"transaction_burnt_fee\":\"90982770892640\",\"type\":2,\"token_transfers_overflow\":null,\"confirmations\":1,\"position\":210,\"max_priority_fee_per_gas\":\"50000000\",\"transaction_tag\":null,\"created_contract\":null,\"value\":\"0\",\"from\":{\"ens_domain_name\":null,\"hash\":\"0x8329D783F96e48d50f0f1f5a3c7F83b73A5c0218\",\"implementations\":[],\"is_contract\":false,\"is_scam\":false,\"is_verified\":false,\"metadata\":null,\"name\":null,\"private_tags\":[],\"proxy_type\":null,\"public_tags\":[],\"watchlist_names\":[]},\"gas_used\":\"62260\",\"status\":\"ok\",\"to\":{\"ens_domain_name\":null,\"hash\":\"0xA0b86991c6218b36c1d19D4a2e9Eb0cE3606eB48\",\"implementations\":[{\"address\":\"0x43506849D7C04F9138D1A2050bbF3A0c054402dd\",\"address_hash\":\"0x43506849D7C04F9138D1A2050bbF3A0c054402dd\",\"name\":\"FiatTokenV2_2\"}],\"is_contract\":true,\"is_scam\":false,\"is_verified\":true,\"metadata\":{\"tags\":[{\"meta\":{},\"name\":\"Stablecoin\",\"ordinal\":0,\"slug\":\"stablecoin\",\"tagType\":\"generic\"},{\"meta\":{\"tooltipDescription\":\"USDC is a US dollar-backed stablecoin issued by Circle. USDC is designed to provide a faster, safer, and more efficient way to send, spend, and exchange money around the world.\",\"tooltipUrl\":\"https://www.circle.com/en/usdc\"},\"name\":\"Circle: USDC Token\",\"ordinal\":10,\"slug\":\"circle-usdc-token\",\"tagType\":\"name\"},{\"meta\":{},\"name\":\"Circle\",\"ordinal\":0,\"slug\":\"circle\",\"tagType\":\"protocol\"},{\"meta\":{},\"name\":\"USDC\",\"ordinal\":0,\"slug\":\"usdc\",\"tagType\":\"generic\"},{\"meta\":{},\"name\":\"Token Contract\",\"ordinal\":0,\"slug\":\"token-contract\",\"tagType\":\"generic\"}]},\"name\":\"USDC\",\"private_tags\":[],\"proxy_type\":\"eip1967\",\"public_tags\":[],\"watchlist_names\":[]},\"authorization_list\":[],\"method\":\"transfer\",\"fee\":{\"type\":\"actual\",\"value\":\"94095770892640\"},\"actions\":[],\"gas_limit\":\"150000\",\"gas_price\":\"1511335864\",\"decoded_input\":{\"method_call\":\"transfer(address to, uint256 value)\",\"method_id\":\"a9059cbb\",\"parameters\":[{\"name\":\"to\",\"type\":\"address\",\"value\":\"0xA11237BD889E8582b44D9E794F5be4eb4E6E798f\"},{\"name\":\"value\",\"type\":\"uint256\",\"value\":\"2265326425\"}]},\"token_transfers\":null,\"base_fee_per_gas\":\"1461335864\",\"timestamp\":\"2025-06-13T09:24:11.000000Z\",\"nonce\":35742,\"historic_exchange_rate\":\"2540.82\",\"transaction_types\":[\"contract_call\",\"token_transfer\"],\"exchange_rate\":\"2518.69\",\"block_number\":22694718,\"has_error_in_internal_transactions\":null},{\"priority_fee\":null,\"raw_input\":\"0xa9059cbb000000000000000000000000cad6265f8ff6170f2b2e12a0b9d2776774b9baf8000000000000000000000000000000000000000000000cbee6e64ed980cc7400\",\"result\":\"success\",\"hash\":\"0x7a5db43b4807b269e80146ba376676bc987a9a067aa0ae126e9b16a516c46e24\",\"max_fee_per_gas\":null,\"revert_reason\":null,\"confirmation_duration\":[0,12000],\"transaction_burnt_fee\":null,\"type\":0,\"token_transfers_overflow\":null,\"confirmations\":1,\"position\":209,\"max_priority_fee_per_gas\":null,\"transaction_tag\":null,\"created_contract\":null,\"value\":\"0\",\"from\":{\"ens_domain_name\":null,\"hash\":\"0xEb106d9b66729E2f0e0F065aeD8356658d9AD25D\",\"implementations\":[],\"is_contract\":false,\"is_scam\":false,\"is_verified\":false,\"metadata\":null,\"name\":null,\"private_tags\":[],\"proxy_type\":null,\"public_tags\":[],\"watchlist_names\":[]},\"gas_used\":\"47044\",\"status\":\"ok\",\"to\":{\"ens_domain_name\":null,\"hash\":\"0x491604c0FDF08347Dd1fa4Ee062a822A5DD06B5D\",\"implementations\":[],\"is_contract\":true,\"is_scam\":false,\"is_verified\":true,\"metadata\":{\"tags\":[{\"meta\":{},\"name\":\"Token Contract\",\"ordinal\":0,\"slug\":\"token-contract\",\"tagType\":\"generic\"},{\"meta\":{},\"name\":\"Layer 2\",\"ordinal\":0,\"slug\":\"layer-2\",\"tagType\":\"generic\"},{\"meta\":{\"tooltipDescription\":\"Cartesi is an Operating System for DApps that provides a Linux runtime environment for DApps, enabling complex and intensive computations to run outside blockchains without compromising decentralization. Cartesi brings mainstream productivity to developers and seamless experience for users.\",\"tooltipUrl\":\"https://cartesi.io/\"},\"name\":\"Cartesi: CTSI Token\",\"ordinal\":0,\"slug\":\"cartesi-ctsi-token\",\"tagType\":\"name\"},{\"meta\":{},\"name\":\"Cartesi\",\"ordinal\":0,\"slug\":\"cartesi\",\"tagType\":\"protocol\"}]},\"name\":\"Cartesi\",\"private_tags\":[],\"proxy_type\":\"unknown\",\"public_tags\":[],\"watchlist_names\":[]},\"authorization_list\":[],\"method\":\"transfer\",\"fee\":{\"type\":\"actual\",\"value\":\"141132000000000\"},\"actions\":[],\"gas_limit\":\"62098\",\"gas_price\":\"3000000000\",\"decoded_input\":{\"method_call\":\"transfer(address recipient, uint256 amount)\",\"method_id\":\"a9059cbb\",\"parameters\":[{\"name\":\"recipient\",\"type\":\"address\",\"value\":\"0xCAD6265f8FF6170F2B2e12A0b9d2776774B9BaF8\"},{\"name\":\"amount\",\"type\":\"uint256\",\"value\":\"60189917241010000000000\"}]},\"token_transfers\":null,\"base_fee_per_gas\":\"1461335864\",\"timestamp\":\"2025-06-13T09:24:11.000000Z\",\"nonce\":5,\"historic_exchange_rate\":\"2540.82\",\"transaction_types\":[\"contract_call\",\"token_transfer\"],\"exchange_rate\":\"2518.69\",\"block_number\":22694718,\"has_error_in_internal_transactions\":null},{\"priority_fee\":\"3804600000000\",\"raw_input\":\"0xa9059cbb0000000000000000000000000000000000000000000000000000000000000020000000000000000000000000000000000000000000000000000000000000002000000000000000000000000032ee1b3640b78cad868497181c3dc5e5f1e9c65e000000000000000000000000dd2b1d8814105c1c4ea6772313a180dd691b8886000000000000000000000000227ebcc4aebc370d1923a573aeccd1274038bec300000000000000000000000000000000000000000000000000038d7ea4c6800000000000000000000000000032ee1b3640b78cad868497181c3dc5e5f1e9c65e00000000000000000000000036176c124680a4b0ce965431e0bd1a9a7589fdf80000000000000000000000002be3acc44ae869e31391f3bd4231831970efe6b20000000000000000000000000000000000000000000000000de0926a34b92e3000000000000000000000000032ee1b3640b78cad868497181c3dc5e5f1e9c65e0000000000000000000000007154292f41329bbb7f5fdb9dc5e7a049be4a4bd900000000000000000000000005e8705667e0033b5cbe3899f6f24950765c2ace0000000000000000000000000000000000000000000000006c271b297817e84d00000000000000000000000032ee1b3640b78cad868497181c3dc5e5f1e9c65e0000000000000000000000006e4c5ec3b7e1557f5153ff66f042792f7c9744e20000000000000000000000009310b17fa8c113c6509dae5dd1443ff547eeb6b60000000000000000000000000000000000000000000000000f3b7701615cddc600000000000000000000000032ee1b3640b78cad868497181c3dc5e5f1e9c65e0000000000000000000000003b32f18b53115b4dc7b245a2e3da2efc70da0a45000000000000000000000000f8fc7407ac971e9809f2fc9a73600fb40c1643630000000000000000000000000000000000000000000000000b082ce510d15c4900000000000000000000000032ee1b3640b78cad868497181c3dc5e5f1e9c65e000000000000000000000000626cb23381aa869ce0d8b492632eb48e20a16015000000000000000000000000b9f781622033c74a34994f9f5262978f4f4a85f1000000000000000000000000000000000000000000000000009f295cd5f0000000000000000000000000000032ee1b3640b78cad868497181c3dc5e5f1e9c65e000000000000000000000000c551f0bb2098e0c7d0f171b0d019d99b3f09724700000000000000000000000068d4c0a9ba7425ecfd7d575f98a62ce76c9c063800000000000000000000000000000000000000000000000006ccd46763f10000\",\"result\":\"success\",\"hash\":\"0x660f0df6614630ebf14cefc489d295358bf9362b3c7c77e44eb2637d47a3093e\",\"max_fee_per_gas\":\"2500000000\",\"revert_reason\":null,\"confirmation_duration\":[0,12000],\"transaction_burnt_fee\":\"111195968563488\",\"type\":2,\"token_transfers_overflow\":null,\"confirmations\":1,\"position\":208,\"max_priority_fee_per_gas\":\"50000000\",\"transaction_tag\":null,\"created_contract\":null,\"value\":\"0\",\"from\":{\"ens_domain_name\":null,\"hash\":\"0x4AAE2F2352F6f424C24D63c78b91A116F8466c82\",\"implementations\":[],\"is_contract\":false,\"is_scam\":false,\"is_verified\":false,\"metadata\":null,\"name\":null,\"private_tags\":[],\"proxy_type\":null,\"public_tags\":[],\"watchlist_names\":[]},\"gas_used\":\"76092\",\"status\":\"ok\",\"to\":{\"ens_domain_name\":null,\"hash\":\"0xF3f07b4B57c4Db7D0EE11073A016Eeea05055A4c\",\"implementations\":[],\"is_contract\":true,\"is_scam\":false,\"is_verified\":false,\"metadata\":null,\"name\":null,\"private_tags\":[],\"proxy_type\":null,\"public_tags\":[],\"watchlist_names\":[]},\"authorization_list\":[],\"method\":\"transfer\",\"fee\":{\"type\":\"actual\",\"value\":\"115000568563488\"},\"actions\":[],\"gas_limit\":\"76960\",\"gas_price\":\"1511335864\",\"decoded_input\":{\"method_call\":\"transfer(address _to, uint256 _tokenId)\",\"method_id\":\"a9059cbb\",\"parameters\":[{\"name\":\"_to\",\"type\":\"address\",\"value\":\"0x0000000000000000000000000000000000000020\"},{\"name\":\"_tokenId\",\"type\":\"uint256\",\"value\":\"32\"}]},\"token_transfers\":null,\"base_fee_per_gas\":\"1461335864\",\"timestamp\":\"2025-06-13T09:24:11.000000Z\",\"nonce\":212,\"historic_exchange_rate\":\"2540.82\",\"transaction_types\":[\"contract_call\",\"token_transfer\"],\"exchange_rate\":\"2518.69\",\"block_number\":22694718,\"has_error_in_internal_transactions\":null},{\"priority_fee\":\"4019240000000\",\"raw_input\":\"0xa9059cbb000000000000000000000000b29da64ccb552eb37269f14b859974771e03f7b400000000000000000000000000000000000000000000000000000000087f76c0\",\"result\":\"success\",\"hash\":\"0x8c44e93557a909a4c37bdc6678c53d252bd7d206fbb9eea0285a9b38463b298d\",\"max_fee_per_gas\":\"1582542413\",\"revert_reason\":null,\"confirmation_duration\":[0,12000],\"transaction_burnt_fee\":\"65993927618240\",\"type\":2,\"token_transfers_overflow\":null,\"confirmations\":1,\"position\":207,\"max_priority_fee_per_gas\":\"89000000\",\"transaction_tag\":null,\"created_contract\":null,\"value\":\"0\",\"from\":{\"ens_domain_name\":null,\"hash\":\"0x112b23F5B71499628c1E7Afa188ac7BC14F7B319\",\"implementations\":[],\"is_contract\":false,\"is_scam\":false,\"is_verified\":false,\"metadata\":null,\"name\":null,\"private_tags\":[],\"proxy_type\":null,\"public_tags\":[],\"watchlist_names\":[]},\"gas_used\":\"45160\",\"status\":\"ok\",\"to\":{\"ens_domain_name\":null,\"hash\":\"0xA0b86991c6218b36c1d19D4a2e9Eb0cE3606eB48\",\"implementations\":[{\"address\":\"0x43506849D7C04F9138D1A2050bbF3A0c054402dd\",\"address_hash\":\"0x43506849D7C04F9138D1A2050bbF3A0c054402dd\",\"name\":\"FiatTokenV2_2\"}],\"is_contract\":true,\"is_scam\":false,\"is_verified\":true,\"metadata\":{\"tags\":[{\"meta\":{},\"name\":\"Stablecoin\",\"ordinal\":0,\"slug\":\"stablecoin\",\"tagType\":\"generic\"},{\"meta\":{\"tooltipDescription\":\"USDC is a US dollar-backed stablecoin issued by Circle. USDC is designed to provide a faster, safer, and more efficient way to send, spend, and exchange money around the world.\",\"tooltipUrl\":\"https://www.circle.com/en/usdc\"},\"name\":\"Circle: USDC Token\",\"ordinal\":10,\"slug\":\"circle-usdc-token\",\"tagType\":\"name\"},{\"meta\":{},\"name\":\"Circle\",\"ordinal\":0,\"slug\":\"circle\",\"tagType\":\"protocol\"},{\"meta\":{},\"name\":\"USDC\",\"ordinal\":0,\"slug\":\"usdc\",\"tagType\":\"generic\"},{\"meta\":{},\"name\":\"Token Contract\",\"ordinal\":0,\"slug\":\"token-contract\",\"tagType\":\"generic\"}]},\"name\":\"USDC\",\"private_tags\":[],\"proxy_type\":\"eip1967\",\"public_tags\":[],\"watchlist_names\":[]},\"authorization_list\":[],\"method\":\"transfer\",\"fee\":{\"type\":\"actual\",\"value\":\"70013167618240\"},\"actions\":[],\"gas_limit\":\"50094\",\"gas_price\":\"1550335864\",\"decoded_input\":{\"method_call\":\"transfer(address to, uint256 value)\",\"method_id\":\"a9059cbb\",\"parameters\":[{\"name\":\"to\",\"type\":\"address\",\"value\":\"0xb29da64cCb552eB37269f14b859974771E03F7B4\"},{\"name\":\"value\",\"type\":\"uint256\",\"value\":\"142571200\"}]},\"token_transfers\":null,\"base_fee_per_gas\":\"1461335864\",\"timestamp\":\"2025-06-13T09:24:11.000000Z\",\"nonce\":16,\"historic_exchange_rate\":\"2540.82\",\"transaction_types\":[\"contract_call\",\"token_transfer\"],\"exchange_rate\":\"2518.69\",\"block_number\":22694718,\"has_error_in_internal_transactions\":null},{\"priority_fee\":\"4034800000000\",\"raw_input\":\"0xa9059cbb000000000000000000000000d38500f36a9a0e669eef02ac649483d8905afe300000000000000000000000000000000000000000000000000000000001ed8fb0\",\"result\":\"success\",\"hash\":\"0x1b0a5baafbd0af43ea90d5dad178e49120fd6857af28ee6043dd6f2fdbe49daa\",\"max_fee_per_gas\":\"2090994856\",\"revert_reason\":null,\"confirmation_duration\":[0,12000],\"transaction_burnt_fee\":\"58961979440672\",\"type\":2,\"token_transfers_overflow\":null,\"confirmations\":1,\"position\":206,\"max_priority_fee_per_gas\":\"100000000\",\"transaction_tag\":null,\"created_contract\":null,\"value\":\"0\",\"from\":{\"ens_domain_name\":null,\"hash\":\"0xf750B3249d90B09b4dF8b4a42c57AD8ed74E8C03\",\"implementations\":[],\"is_contract\":false,\"is_scam\":false,\"is_verified\":false,\"metadata\":null,\"name\":null,\"private_tags\":[],\"proxy_type\":null,\"public_tags\":[],\"watchlist_names\":[]},\"gas_used\":\"40348\",\"status\":\"ok\",\"to\":{\"ens_domain_name\":null,\"hash\":\"0xA0b86991c6218b36c1d19D4a2e9Eb0cE3606eB48\",\"implementations\":[{\"address\":\"0x43506849D7C04F9138D1A2050bbF3A0c054402dd\",\"address_hash\":\"0x43506849D7C04F9138D1A2050bbF3A0c054402dd\",\"name\":\"FiatTokenV2_2\"}],\"is_contract\":true,\"is_scam\":false,\"is_verified\":true,\"metadata\":{\"tags\":[{\"meta\":{},\"name\":\"Stablecoin\",\"ordinal\":0,\"slug\":\"stablecoin\",\"tagType\":\"generic\"},{\"meta\":{\"tooltipDescription\":\"USDC is a US dollar-backed stablecoin issued by Circle. USDC is designed to provide a faster, safer, and more efficient way to send, spend, and exchange money around the world.\",\"tooltipUrl\":\"https://www.circle.com/en/usdc\"},\"name\":\"Circle: USDC Token\",\"ordinal\":10,\"slug\":\"circle-usdc-token\",\"tagType\":\"name\"},{\"meta\":{},\"name\":\"Circle\",\"ordinal\":0,\"slug\":\"circle\",\"tagType\":\"protocol\"},{\"meta\":{},\"name\":\"USDC\",\"ordinal\":0,\"slug\":\"usdc\",\"tagType\":\"generic\"},{\"meta\":{},\"name\":\"Token Contract\",\"ordinal\":0,\"slug\":\"token-contract\",\"tagType\":\"generic\"}]},\"name\":\"USDC\",\"private_tags\":[],\"proxy_type\":\"eip1967\",\"public_tags\":[],\"watchlist_names\":[]},\"authorization_list\":[],\"method\":\"transfer\",\"fee\":{\"type\":\"actual\",\"value\":\"62996779440672\"},\"actions\":[],\"gas_limit\":\"57182\",\"gas_price\":\"1561335864\",\"decoded_input\":{\"method_call\":\"transfer(address to, uint256 value)\",\"method_id\":\"a9059cbb\",\"parameters\":[{\"name\":\"to\",\"type\":\"address\",\"value\":\"0xd38500f36A9A0e669eEF02aC649483D8905Afe30\"},{\"name\":\"value\",\"type\":\"uint256\",\"value\":\"32346032\"}]},\"token_transfers\":null,\"base_fee_per_gas\":\"1461335864\",\"timestamp\":\"2025-06-13T09:24:11.000000Z\",\"nonce\":1,\"historic_exchange_rate\":\"2540.82\",\"transaction_types\":[\"contract_call\",\"token_transfer\"],\"exchange_rate\":\"2518.69\",\"block_number\":22694718,\"has_error_in_internal_transactions\":null},{\"priority_fee\":\"4059756044960\",\"raw_input\":\"0xa9059cbb0000000000000000000000001ab4973a48dc892cd9971ece8e01dcc7688f8f230000000000000000000000000000000000000000000000000000000061094f00\",\"result\":\"success\",\"hash\":\"0x8258635d1f135c836db09bd9d3829ee39b2484453609d12a3d3fcadc2d14d4f3\",\"max_fee_per_gas\":\"2570255872\",\"revert_reason\":null,\"confirmation_duration\":[0,12000],\"transaction_burnt_fee\":\"58961979440672\",\"type\":2,\"token_transfers_overflow\":null,\"confirmations\":1,\"position\":205,\"max_priority_fee_per_gas\":\"100618520\",\"transaction_tag\":null,\"created_contract\":null,\"value\":\"0\",\"from\":{\"ens_domain_name\":null,\"hash\":\"0x21D020d874462c23Af0513360959C1a22ae3B39c\",\"implementations\":[],\"is_contract\":false,\"is_scam\":false,\"is_verified\":false,\"metadata\":null,\"name\":null,\"private_tags\":[],\"proxy_type\":null,\"public_tags\":[],\"watchlist_names\":[]},\"gas_used\":\"40348\",\"status\":\"ok\",\"to\":{\"ens_domain_name\":null,\"hash\":\"0xA0b86991c6218b36c1d19D4a2e9Eb0cE3606eB48\",\"implementations\":[{\"address\":\"0x43506849D7C04F9138D1A2050bbF3A0c054402dd\",\"address_hash\":\"0x43506849D7C04F9138D1A2050bbF3A0c054402dd\",\"name\":\"FiatTokenV2_2\"}],\"is_contract\":true,\"is_scam\":false,\"is_verified\":true,\"metadata\":{\"tags\":[{\"meta\":{},\"name\":\"Stablecoin\",\"ordinal\":0,\"slug\":\"stablecoin\",\"tagType\":\"generic\"},{\"meta\":{\"tooltipDescription\":\"USDC is a US dollar-backed stablecoin issued by Circle. USDC is designed to provide a faster, safer, and more efficient way to send, spend, and exchange money around the world.\",\"tooltipUrl\":\"https://www.circle.com/en/usdc\"},\"name\":\"Circle: USDC Token\",\"ordinal\":10,\"slug\":\"circle-usdc-token\",\"tagType\":\"name\"},{\"meta\":{},\"name\":\"Circle\",\"ordinal\":0,\"slug\":\"circle\",\"tagType\":\"protocol\"},{\"meta\":{},\"name\":\"USDC\",\"ordinal\":0,\"slug\":\"usdc\",\"tagType\":\"generic\"},{\"meta\":{},\"name\":\"Token Contract\",\"ordinal\":0,\"slug\":\"token-contract\",\"tagType\":\"generic\"}]},\"name\":\"USDC\",\"private_tags\":[],\"proxy_type\":\"eip1967\",\"public_tags\":[],\"watchlist_names\":[]},\"authorization_list\":[],\"method\":\"transfer\",\"fee\":{\"type\":\"actual\",\"value\":\"63021735485632\"},\"actions\":[],\"gas_limit\":\"200000\",\"gas_price\":\"1561954384\",\"decoded_input\":{\"method_call\":\"transfer(address to, uint256 value)\",\"method_id\":\"a9059cbb\",\"parameters\":[{\"name\":\"to\",\"type\":\"address\",\"value\":\"0x1AB4973a48dc892Cd9971ECE8e01DcC7688f8F23\"},{\"name\":\"value\",\"type\":\"uint256\",\"value\":\"1628000000\"}]},\"token_transfers\":null,\"base_fee_per_gas\":\"1461335864\",\"timestamp\":\"2025-06-13T09:24:11.000000Z\",\"nonce\":0,\"historic_exchange_rate\":\"2540.82\",\"transaction_types\":[\"contract_call\",\"token_transfer\"],\"exchange_rate\":\"2518.69\",\"block_number\":22694718,\"has_error_in_internal_transactions\":null},{\"priority_fee\":\"21000000000000\",\"raw_input\":\"0x\",\"result\":\"success\",\"hash\":\"0xe8973de4a688e5df2436aa6c62a322b63418a749386199a8b4cf58202ed809f7\",\"max_fee_per_gas\":\"2792156923\",\"revert_reason\":null,\"confirmation_duration\":[0,12000],\"transaction_burnt_fee\":\"30688053144000\",\"type\":2,\"token_transfers_overflow\":null,\"confirmations\":1,\"position\":204,\"max_priority_fee_per_gas\":\"1000000000\",\"transaction_tag\":null,\"created_contract\":null,\"value\":\"198733674143045384\",\"from\":{\"ens_domain_name\":null,\"hash\":\"0x62F1991Af7d84506e876B55fd17880D3eDE2c9c8\",\"implementations\":[],\"is_contract\":false,\"is_scam\":false,\"is_verified\":false,\"metadata\":null,\"name\":null,\"private_tags\":[],\"proxy_type\":null,\"public_tags\":[],\"watchlist_names\":[]},\"gas_used\":\"21000\",\"status\":\"ok\",\"to\":{\"ens_domain_name\":null,\"hash\":\"0xF7C42143cb14e987C87C7aDF537dE2b53699c97d\",\"implementations\":[],\"is_contract\":false,\"is_scam\":false,\"is_verified\":false,\"metadata\":null,\"name\":null,\"private_tags\":[],\"proxy_type\":null,\"public_tags\":[],\"watchlist_names\":[]},\"authorization_list\":[],\"method\":null,\"fee\":{\"type\":\"actual\",\"value\":\"51688053144000\"},\"actions\":[],\"gas_limit\":\"21000\",\"gas_price\":\"2461335864\",\"decoded_input\":null,\"token_transfers\":null,\"base_fee_per_gas\":\"1461335864\",\"timestamp\":\"2025-06-13T09:24:11.000000Z\",\"nonce\":1481,\"historic_exchange_rate\":\"2540.82\",\"transaction_types\":[\"coin_transfer\"],\"exchange_rate\":\"2518.69\",\"block_number\":22694718,\"has_error_in_internal_transactions\":null},{\"priority_fee\":\"21000000000000\",\"raw_input\":\"0x\",\"result\":\"success\",\"hash\":\"0xe7f65c518c7b58534e6bbafb768255c556227b72474b1b6d548e4055ee024dbe\",\"max_fee_per_gas\":\"2792156923\",\"revert_reason\":null,\"confirmation_duration\":[0,12000],\"transaction_burnt_fee\":\"30688053144000\",\"type\":2,\"token_transfers_overflow\":null,\"confirmations\":1,\"position\":203,\"max_priority_fee_per_gas\":\"1000000000\",\"transaction_tag\":null,\"created_contract\":null,\"value\":\"19000000000000000\",\"from\":{\"ens_domain_name\":null,\"hash\":\"0x94316655E3e2A75c676C91DfA661E1ad28B37733\",\"implementations\":[],\"is_contract\":false,\"is_scam\":false,\"is_verified\":false,\"metadata\":null,\"name\":null,\"private_tags\":[],\"proxy_type\":null,\"public_tags\":[],\"watchlist_names\":[]},\"gas_used\":\"21000\",\"status\":\"ok\",\"to\":{\"ens_domain_name\":null,\"hash\":\"0x4C39Ed0438D5e8913aCF423db6d56CCe78B2d367\",\"implementations\":[],\"is_contract\":false,\"is_scam\":false,\"is_verified\":false,\"metadata\":null,\"name\":null,\"private_tags\":[],\"proxy_type\":null,\"public_tags\":[],\"watchlist_names\":[]},\"authorization_list\":[],\"method\":null,\"fee\":{\"type\":\"actual\",\"value\":\"51688053144000\"},\"actions\":[],\"gas_limit\":\"21000\",\"gas_price\":\"2461335864\",\"decoded_input\":null,\"token_transfers\":null,\"base_fee_per_gas\":\"1461335864\",\"timestamp\":\"2025-06-13T09:24:11.000000Z\",\"nonce\":107,\"historic_exchange_rate\":\"2540.82\",\"transaction_types\":[\"coin_transfer\"],\"exchange_rate\":\"2518.69\",\"block_number\":22694718,\"has_error_in_internal_transactions\":null},{\"priority_fee\":\"4321929000000\",\"raw_input\":\"0x095ea7b3000000000000000000000000888888888889758f76e7103c6cbf23abbf58f946000000000000000000000000000000000000000000000000000000003ac9be60\",\"result\":\"success\",\"hash\":\"0x7203793fd4a67969f90c5cba935b0ebd262233cc5137835bab2598c791924c46\",\"max_fee_per_gas\":\"3100000000\",\"revert_reason\":null,\"confirmation_duration\":[0,12000],\"transaction_burnt_fee\":\"70963930891704\",\"type\":2,\"token_transfers_overflow\":null,\"confirmations\":1,\"position\":202,\"max_priority_fee_per_gas\":\"89000000\",\"transaction_tag\":null,\"created_contract\":null,\"value\":\"0\",\"from\":{\"ens_domain_name\":null,\"hash\":\"0x00Fb413f3f7119C6399D8aD740b7BbF4DB3dB828\",\"implementations\":[],\"is_contract\":false,\"is_scam\":false,\"is_verified\":false,\"metadata\":null,\"name\":null,\"private_tags\":[],\"proxy_type\":null,\"public_tags\":[],\"watchlist_names\":[]},\"gas_used\":\"48561\",\"status\":\"ok\",\"to\":{\"ens_domain_name\":null,\"hash\":\"0xdAC17F958D2ee523a2206206994597C13D831ec7\",\"implementations\":[],\"is_contract\":true,\"is_scam\":false,\"is_verified\":true,\"metadata\":{\"tags\":[{\"meta\":{\"tooltipDescription\":\"Tether gives you the joint benefits of open blockchain technology and traditional currency by converting your cash into a stable digital currency equivalent.\",\"tooltipUrl\":\"https://tether.to/\"},\"name\":\"Tether: USDT Stablecoin\",\"ordinal\":10,\"slug\":\"tether-usdt-stablecoin\",\"tagType\":\"name\"},{\"meta\":{},\"name\":\"Stablecoin\",\"ordinal\":0,\"slug\":\"stablecoin\",\"tagType\":\"generic\"},{\"meta\":{},\"name\":\"Token Contract\",\"ordinal\":0,\"slug\":\"token-contract\",\"tagType\":\"generic\"},{\"meta\":{},\"name\":\"Tether\",\"ordinal\":0,\"slug\":\"tether\",\"tagType\":\"protocol\"}]},\"name\":\"Tether\",\"private_tags\":[],\"proxy_type\":\"unknown\",\"public_tags\":[],\"watchlist_names\":[]},\"authorization_list\":[],\"method\":\"approve\",\"fee\":{\"type\":\"actual\",\"value\":\"75285859891704\"},\"actions\":[],\"gas_limit\":\"148948\",\"gas_price\":\"1550335864\",\"decoded_input\":{\"method_call\":\"approve(address _spender, uint256 _value)\",\"method_id\":\"095ea7b3\",\"parameters\":[{\"name\":\"_spender\",\"type\":\"address\",\"value\":\"0x888888888889758F76e7103c6CbF23ABbF58F946\"},{\"name\":\"_value\",\"type\":\"uint256\",\"value\":\"986300000\"}]},\"token_transfers\":null,\"base_fee_per_gas\":\"1461335864\",\"timestamp\":\"2025-06-13T09:24:11.000000Z\",\"nonce\":0,\"historic_exchange_rate\":\"2540.82\",\"transaction_types\":[\"contract_call\"],\"exchange_rate\":\"2518.69\",\"block_number\":22694718,\"has_error_in_internal_transactions\":null},{\"priority_fee\":\"4321929000000\",\"raw_input\":\"0x095ea7b3000000000000000000000000888888888889758f76e7103c6cbf23abbf58f946000000000000000000000000000000000000000000000000000000003c643480\",\"result\":\"success\",\"hash\":\"0xb4249656922227b5042ac2a08725b0938248b3a68f42c593af042268720a528e\",\"max_fee_per_gas\":\"3100000000\",\"revert_reason\":null,\"confirmation_duration\":[0,12000],\"transaction_burnt_fee\":\"70963930891704\",\"type\":2,\"token_transfers_overflow\":null,\"confirmations\":1,\"position\":201,\"max_priority_fee_per_gas\":\"89000000\",\"transaction_tag\":null,\"created_contract\":null,\"value\":\"0\",\"from\":{\"ens_domain_name\":null,\"hash\":\"0x1e23852FA5eb549B1766D5D77C069F9CEf68B57c\",\"implementations\":[],\"is_contract\":false,\"is_scam\":false,\"is_verified\":false,\"metadata\":null,\"name\":null,\"private_tags\":[],\"proxy_type\":null,\"public_tags\":[],\"watchlist_names\":[]},\"gas_used\":\"48561\",\"status\":\"ok\",\"to\":{\"ens_domain_name\":null,\"hash\":\"0xdAC17F958D2ee523a2206206994597C13D831ec7\",\"implementations\":[],\"is_contract\":true,\"is_scam\":false,\"is_verified\":true,\"metadata\":{\"tags\":[{\"meta\":{\"tooltipDescription\":\"Tether gives you the joint benefits of open blockchain technology and traditional currency by converting your cash into a stable digital currency equivalent.\",\"tooltipUrl\":\"https://tether.to/\"},\"name\":\"Tether: USDT Stablecoin\",\"ordinal\":10,\"slug\":\"tether-usdt-stablecoin\",\"tagType\":\"name\"},{\"meta\":{},\"name\":\"Stablecoin\",\"ordinal\":0,\"slug\":\"stablecoin\",\"tagType\":\"generic\"},{\"meta\":{},\"name\":\"Token Contract\",\"ordinal\":0,\"slug\":\"token-contract\",\"tagType\":\"generic\"},{\"meta\":{},\"name\":\"Tether\",\"ordinal\":0,\"slug\":\"tether\",\"tagType\":\"protocol\"}]},\"name\":\"Tether\",\"private_tags\":[],\"proxy_type\":\"unknown\",\"public_tags\":[],\"watchlist_names\":[]},\"authorization_list\":[],\"method\":\"approve\",\"fee\":{\"type\":\"actual\",\"value\":\"75285859891704\"},\"actions\":[],\"gas_limit\":\"148948\",\"gas_price\":\"1550335864\",\"decoded_input\":{\"method_call\":\"approve(address _spender, uint256 _value)\",\"method_id\":\"095ea7b3\",\"parameters\":[{\"name\":\"_spender\",\"type\":\"address\",\"value\":\"0x888888888889758F76e7103c6CbF23ABbF58F946\"},{\"name\":\"_value\",\"type\":\"uint256\",\"value\":\"1013200000\"}]},\"token_transfers\":null,\"base_fee_per_gas\":\"1461335864\",\"timestamp\":\"2025-06-13T09:24:11.000000Z\",\"nonce\":0,\"historic_exchange_rate\":\"2540.82\",\"transaction_types\":[\"contract_call\"],\"exchange_rate\":\"2518.69\",\"block_number\":22694718,\"has_error_in_internal_transactions\":null},{\"priority_fee\":\"23767296903000\",\"raw_input\":\"0x\",\"result\":\"success\",\"hash\":\"0xcc86c45d8b994ac41599cb958f62ba5c87a0a6246294abe5be05b2e78f4e8c2b\",\"max_fee_per_gas\":\"2593111907\",\"revert_reason\":null,\"confirmation_duration\":[0,12000],\"transaction_burnt_fee\":\"30688053144000\",\"type\":2,\"token_transfers_overflow\":null,\"confirmations\":1,\"position\":200,\"max_priority_fee_per_gas\":\"2593111907\",\"transaction_tag\":null,\"created_contract\":null,\"value\":\"15391057161519845\",\"from\":{\"ens_domain_name\":null,\"hash\":\"0x1A72Fc561e0f070128f392b708527FCe3F0155C5\",\"implementations\":[],\"is_contract\":false,\"is_scam\":false,\"is_verified\":false,\"metadata\":null,\"name\":null,\"private_tags\":[],\"proxy_type\":null,\"public_tags\":[],\"watchlist_names\":[]},\"gas_used\":\"21000\",\"status\":\"ok\",\"to\":{\"ens_domain_name\":null,\"hash\":\"0x7802092fAA76274efb73f6AD0A283e7D1246f1DF\",\"implementations\":[],\"is_contract\":false,\"is_scam\":false,\"is_verified\":false,\"metadata\":null,\"name\":null,\"private_tags\":[],\"proxy_type\":null,\"public_tags\":[],\"watchlist_names\":[]},\"authorization_list\":[],\"method\":null,\"fee\":{\"type\":\"actual\",\"value\":\"54455350047000\"},\"actions\":[],\"gas_limit\":\"21000\",\"gas_price\":\"2593111907\",\"decoded_input\":null,\"token_transfers\":null,\"base_fee_per_gas\":\"1461335864\",\"timestamp\":\"2025-06-13T09:24:11.000000Z\",\"nonce\":192,\"historic_exchange_rate\":\"2540.82\",\"transaction_types\":[\"coin_transfer\"],\"exchange_rate\":\"2518.69\",\"block_number\":22694718,\"has_error_in_internal_transactions\":null},{\"priority_fee\":\"23767296903000\",\"raw_input\":\"0x\",\"result\":\"success\",\"hash\":\"0xd188ef32c78e9ce6cc0c122e11fdab61e2f907d2ad4dd5621ec186d26acbaf1e\",\"max_fee_per_gas\":\"2593111907\",\"revert_reason\":null,\"confirmation_duration\":[0,12000],\"transaction_burnt_fee\":\"30688053144000\",\"type\":2,\"token_transfers_overflow\":null,\"confirmations\":1,\"position\":199,\"max_priority_fee_per_gas\":\"2593111907\",\"transaction_tag\":null,\"created_contract\":null,\"value\":\"36524540414200844\",\"from\":{\"ens_domain_name\":null,\"hash\":\"0xD68869F40164dCE111120ACc74c1E11C4ec518fa\",\"implementations\":[],\"is_contract\":false,\"is_scam\":false,\"is_verified\":false,\"metadata\":null,\"name\":null,\"private_tags\":[],\"proxy_type\":null,\"public_tags\":[],\"watchlist_names\":[]},\"gas_used\":\"21000\",\"status\":\"ok\",\"to\":{\"ens_domain_name\":null,\"hash\":\"0x0EB377d2Aef685c87377ddB692E2e5Da638e6550\",\"implementations\":[],\"is_contract\":false,\"is_scam\":false,\"is_verified\":false,\"metadata\":null,\"name\":null,\"private_tags\":[],\"proxy_type\":null,\"public_tags\":[],\"watchlist_names\":[]},\"authorization_list\":[],\"method\":null,\"fee\":{\"type\":\"actual\",\"value\":\"54455350047000\"},\"actions\":[],\"gas_limit\":\"21000\",\"gas_price\":\"2593111907\",\"decoded_input\":null,\"token_transfers\":null,\"base_fee_per_gas\":\"1461335864\",\"timestamp\":\"2025-06-13T09:24:11.000000Z\",\"nonce\":142,\"historic_exchange_rate\":\"2540.82\",\"transaction_types\":[\"coin_transfer\"],\"exchange_rate\":\"2518.69\",\"block_number\":22694718,\"has_error_in_internal_transactions\":null},{\"priority_fee\":null,\"raw_input\":\"0x\",\"result\":\"success\",\"hash\":\"0x958e2051c28528e51d7f93ec955b51a51c68bbd8bf0bc337df4588450a18ac97\",\"max_fee_per_gas\":null,\"revert_reason\":null,\"confirmation_duration\":[0,12000],\"transaction_burnt_fee\":null,\"type\":0,\"token_transfers_overflow\":null,\"confirmations\":1,\"position\":198,\"max_priority_fee_per_gas\":null,\"transaction_tag\":null,\"created_contract\":null,\"value\":\"106872316870781135\",\"from\":{\"ens_domain_name\":null,\"hash\":\"0x7D31D90EB69db73E5a293891Ad4e034744C062cc\",\"implementations\":[],\"is_contract\":false,\"is_scam\":false,\"is_verified\":false,\"metadata\":null,\"name\":null,\"private_tags\":[],\"proxy_type\":null,\"public_tags\":[],\"watchlist_names\":[]},\"gas_used\":\"21000\",\"status\":\"ok\",\"to\":{\"ens_domain_name\":null,\"hash\":\"0x5e19709A068606e45C55357E2b0da771495CD25a\",\"implementations\":[],\"is_contract\":false,\"is_scam\":false,\"is_verified\":false,\"metadata\":null,\"name\":null,\"private_tags\":[],\"proxy_type\":null,\"public_tags\":[],\"watchlist_names\":[]},\"authorization_list\":[],\"method\":null,\"fee\":{\"type\":\"actual\",\"value\":\"54600000000000\"},\"actions\":[],\"gas_limit\":\"21000\",\"gas_price\":\"2600000000\",\"decoded_input\":null,\"token_transfers\":null,\"base_fee_per_gas\":\"1461335864\",\"timestamp\":\"2025-06-13T09:24:11.000000Z\",\"nonce\":5,\"historic_exchange_rate\":\"2540.82\",\"transaction_types\":[\"coin_transfer\"],\"exchange_rate\":\"2518.69\",\"block_number\":22694718,\"has_error_in_internal_transactions\":null},{\"priority_fee\":\"27947242239000\",\"raw_input\":\"0x\",\"result\":\"success\",\"hash\":\"0x3db157ef4b436b62fb716ffeee7caa1b50ac764f1024fc474017f7cedfbad6c1\",\"max_fee_per_gas\":\"2792156923\",\"revert_reason\":null,\"confirmation_duration\":[0,12000],\"transaction_burnt_fee\":\"30688053144000\",\"type\":2,\"token_transfers_overflow\":null,\"confirmations\":1,\"position\":197,\"max_priority_fee_per_gas\":\"2792156923\",\"transaction_tag\":null,\"created_contract\":null,\"value\":\"113252258683765006\",\"from\":{\"ens_domain_name\":null,\"hash\":\"0x1dd8537eB7f9711D16eF254A1fef293F185A96bC\",\"implementations\":[],\"is_contract\":false,\"is_scam\":false,\"is_verified\":false,\"metadata\":null,\"name\":null,\"private_tags\":[],\"proxy_type\":null,\"public_tags\":[],\"watchlist_names\":[]},\"gas_used\":\"21000\",\"status\":\"ok\",\"to\":{\"ens_domain_name\":null,\"hash\":\"0x424C9C4a655577DFE98727Fa290b0359C158bE88\",\"implementations\":[],\"is_contract\":false,\"is_scam\":false,\"is_verified\":false,\"metadata\":null,\"name\":null,\"private_tags\":[],\"proxy_type\":null,\"public_tags\":[],\"watchlist_names\":[]},\"authorization_list\":[],\"method\":null,\"fee\":{\"type\":\"actual\",\"value\":\"58635295383000\"},\"actions\":[],\"gas_limit\":\"21000\",\"gas_price\":\"2792156923\",\"decoded_input\":null,\"token_transfers\":null,\"base_fee_per_gas\":\"1461335864\",\"timestamp\":\"2025-06-13T09:24:11.000000Z\",\"nonce\":4,\"historic_exchange_rate\":\"2540.82\",\"transaction_types\":[\"coin_transfer\"],\"exchange_rate\":\"2518.69\",\"block_number\":22694718,\"has_error_in_internal_transactions\":null},{\"priority_fee\":null,\"raw_input\":\"0x\",\"result\":\"success\",\"hash\":\"0xa663b11d600f8b2c661418a5d732a692b733883a252829a3ff524bbeb8985a7c\",\"max_fee_per_gas\":null,\"revert_reason\":null,\"confirmation_duration\":[0,12000],\"transaction_burnt_fee\":null,\"type\":0,\"token_transfers_overflow\":null,\"confirmations\":1,\"position\":196,\"max_priority_fee_per_gas\":null,\"transaction_tag\":null,\"created_contract\":null,\"value\":\"4704987214263000\",\"from\":{\"ens_domain_name\":null,\"hash\":\"0x79d6512c173B55A2cBaCf9a8B1596d3B62E3d686\",\"implementations\":[],\"is_contract\":false,\"is_scam\":false,\"is_verified\":false,\"metadata\":null,\"name\":null,\"private_tags\":[],\"proxy_type\":null,\"public_tags\":[],\"watchlist_names\":[]},\"gas_used\":\"21000\",\"status\":\"ok\",\"to\":{\"ens_domain_name\":null,\"hash\":\"0xCBD6832Ebc203e49E2B771897067fce3c58575ac\",\"implementations\":[],\"is_contract\":false,\"is_scam\":false,\"is_verified\":false,\"metadata\":{\"tags\":[{\"meta\":{\"tooltipUrl\":\"https://rollbit.com/\"},\"name\":\"Rollbit: Hot Wallet\",\"ordinal\":10,\"slug\":\"rollbit-hot-wallet\",\"tagType\":\"name\"},{\"meta\":{},\"name\":\"Rollbit\",\"ordinal\":0,\"slug\":\"rollbit\",\"tagType\":\"protocol\"}]},\"name\":null,\"private_tags\":[],\"proxy_type\":null,\"public_tags\":[],\"watchlist_names\":[]},\"authorization_list\":[],\"method\":null,\"fee\":{\"type\":\"actual\",\"value\":\"35762785737000\"},\"actions\":[],\"gas_limit\":\"21000\",\"gas_price\":\"1702989797\",\"decoded_input\":null,\"token_transfers\":null,\"base_fee_per_gas\":\"1461335864\",\"timestamp\":\"2025-06-13T09:24:11.000000Z\",\"nonce\":196,\"historic_exchange_rate\":\"2540.82\",\"transaction_types\":[\"coin_transfer\"],\"exchange_rate\":\"2518.69\",\"block_number\":22694718,\"has_error_in_internal_transactions\":null},{\"priority_fee\":\"29866808118000\",\"raw_input\":\"0x\",\"result\":\"success\",\"hash\":\"0x67b390bdebd2fc336245ec5d31cbaee57de9455b0ddee0f550c61d27d84ed47a\",\"max_fee_per_gas\":\"2883564822\",\"revert_reason\":null,\"confirmation_duration\":[0,12000],\"transaction_burnt_fee\":\"30688053144000\",\"type\":2,\"token_transfers_overflow\":null,\"confirmations\":1,\"position\":195,\"max_priority_fee_per_gas\":\"2883564822\",\"transaction_tag\":null,\"created_contract\":null,\"value\":\"5792224895306000\",\"from\":{\"ens_domain_name\":null,\"hash\":\"0xa30C0752c3F0cBb5D9b4cB0f884D437F7a148CD9\",\"implementations\":[],\"is_contract\":false,\"is_scam\":false,\"is_verified\":false,\"metadata\":null,\"name\":null,\"private_tags\":[],\"proxy_type\":null,\"public_tags\":[],\"watchlist_names\":[]},\"gas_used\":\"21000\",\"status\":\"ok\",\"to\":{\"ens_domain_name\":null,\"hash\":\"0x218DF4E8551d19A283Ef814dd01113EB9E22D9aa\",\"implementations\":[],\"is_contract\":false,\"is_scam\":false,\"is_verified\":false,\"metadata\":null,\"name\":null,\"private_tags\":[],\"proxy_type\":null,\"public_tags\":[],\"watchlist_names\":[]},\"authorization_list\":[],\"method\":null,\"fee\":{\"type\":\"actual\",\"value\":\"60554861262000\"},\"actions\":[],\"gas_limit\":\"21000\",\"gas_price\":\"2883564822\",\"decoded_input\":null,\"token_transfers\":null,\"base_fee_per_gas\":\"1461335864\",\"timestamp\":\"2025-06-13T09:24:11.000000Z\",\"nonce\":376,\"historic_exchange_rate\":\"2540.82\",\"transaction_types\":[\"coin_transfer\"],\"exchange_rate\":\"2518.69\",\"block_number\":22694718,\"has_error_in_internal_transactions\":null},{\"priority_fee\":\"5198401000000\",\"raw_input\":\"0xa9059cbb0000000000000000000000004ce55797321bb2f8cac8ed4a733ea5ec7bfc98b30000000000000000000000000000000000000000000000000000000002bef0ec\",\"result\":\"success\",\"hash\":\"0x514f7e57e7de376c1e0656982b254d560fe004d3dac02ede2400a8996b713472\",\"max_fee_per_gas\":\"1769147115\",\"revert_reason\":null,\"confirmation_duration\":[0,12000],\"transaction_burnt_fee\":\"85355166480376\",\"type\":2,\"token_transfers_overflow\":null,\"confirmations\":1,\"position\":194,\"max_priority_fee_per_gas\":\"89000000\",\"transaction_tag\":null,\"created_contract\":null,\"value\":\"0\",\"from\":{\"ens_domain_name\":null,\"hash\":\"0x2a7fc55c163137725b9B12F66754593B8eEE5217\",\"implementations\":[],\"is_contract\":false,\"is_scam\":false,\"is_verified\":false,\"metadata\":null,\"name\":null,\"private_tags\":[],\"proxy_type\":null,\"public_tags\":[],\"watchlist_names\":[]},\"gas_used\":\"58409\",\"status\":\"ok\",\"to\":{\"ens_domain_name\":null,\"hash\":\"0xdAC17F958D2ee523a2206206994597C13D831ec7\",\"implementations\":[],\"is_contract\":true,\"is_scam\":false,\"is_verified\":true,\"metadata\":{\"tags\":[{\"meta\":{\"tooltipDescription\":\"Tether gives you the joint benefits of open blockchain technology and traditional currency by converting your cash into a stable digital currency equivalent.\",\"tooltipUrl\":\"https://tether.to/\"},\"name\":\"Tether: USDT Stablecoin\",\"ordinal\":10,\"slug\":\"tether-usdt-stablecoin\",\"tagType\":\"name\"},{\"meta\":{},\"name\":\"Stablecoin\",\"ordinal\":0,\"slug\":\"stablecoin\",\"tagType\":\"generic\"},{\"meta\":{},\"name\":\"Token Contract\",\"ordinal\":0,\"slug\":\"token-contract\",\"tagType\":\"generic\"},{\"meta\":{},\"name\":\"Tether\",\"ordinal\":0,\"slug\":\"tether\",\"tagType\":\"protocol\"}]},\"name\":\"Tether\",\"private_tags\":[],\"proxy_type\":\"unknown\",\"public_tags\":[],\"watchlist_names\":[]},\"authorization_list\":[],\"method\":\"transfer\",\"fee\":{\"type\":\"actual\",\"value\":\"90553567480376\"},\"actions\":[],\"gas_limit\":\"69844\",\"gas_price\":\"1550335864\",\"decoded_input\":{\"method_call\":\"transfer(address _to, uint256 _value)\",\"method_id\":\"a9059cbb\",\"parameters\":[{\"name\":\"_to\",\"type\":\"address\",\"value\":\"0x4ce55797321bb2F8cAC8eD4A733eA5Ec7bFc98b3\"},{\"name\":\"_value\",\"type\":\"uint256\",\"value\":\"46067948\"}]},\"token_transfers\":null,\"base_fee_per_gas\":\"1461335864\",\"timestamp\":\"2025-06-13T09:24:11.000000Z\",\"nonce\":5,\"historic_exchange_rate\":\"2540.82\",\"transaction_types\":[\"contract_call\",\"token_transfer\"],\"exchange_rate\":\"2518.69\",\"block_number\":22694718,\"has_error_in_internal_transactions\":null},{\"priority_fee\":\"20924187512688\",\"raw_input\":\"0x458d2f09adcb8399ad8006af3ebe59a22dbd73a748425b1c475de07ba5d3ddb6865d8597\",\"result\":\"success\",\"hash\":\"0xfed1fcfa91f2e16fab5c7f3a6c33666c4244629b803a77422d68c6466727e648\",\"max_fee_per_gas\":\"2800000000\",\"revert_reason\":null,\"confirmation_duration\":[0,12000],\"transaction_burnt_fee\":\"48189011451264\",\"type\":2,\"token_transfers_overflow\":null,\"confirmations\":1,\"position\":193,\"max_priority_fee_per_gas\":\"634527763\",\"transaction_tag\":null,\"created_contract\":null,\"value\":\"7054798516614358\",\"from\":{\"ens_domain_name\":null,\"hash\":\"0x8018e6297AE93fE4e060f3b7551b4FF9139dB6Ee\",\"implementations\":[],\"is_contract\":false,\"is_scam\":false,\"is_verified\":false,\"metadata\":null,\"name\":null,\"private_tags\":[],\"proxy_type\":null,\"public_tags\":[],\"watchlist_names\":[]},\"gas_used\":\"32976\",\"status\":\"ok\",\"to\":{\"ens_domain_name\":null,\"hash\":\"0xa5F565650890fBA1824Ee0F21EbBbF660a179934\",\"implementations\":[],\"is_contract\":true,\"is_scam\":false,\"is_verified\":true,\"metadata\":null,\"name\":\"RelayReceiver\",\"private_tags\":[],\"proxy_type\":\"unknown\",\"public_tags\":[],\"watchlist_names\":[]},\"authorization_list\":[],\"method\":\"0x458d2f09\",\"fee\":{\"type\":\"actual\",\"value\":\"69113198963952\"},\"actions\":[],\"gas_limit\":\"50535\",\"gas_price\":\"2095863627\",\"decoded_input\":null,\"token_transfers\":null,\"base_fee_per_gas\":\"1461335864\",\"timestamp\":\"2025-06-13T09:24:11.000000Z\",\"nonce\":15,\"historic_exchange_rate\":\"2540.82\",\"transaction_types\":[\"coin_transfer\",\"contract_call\"],\"exchange_rate\":\"2518.69\",\"block_number\":22694718,\"has_error_in_internal_transactions\":null}],\"next_page_params\":{\"block_number\":22694718,\"index\":193,\"items_count\":50}}",
    "headers": {
      "Content-Type": "application/json"
    }
  }
}