{
  "request": {
    "method": "GET",
    "urlPath": "/api/v2/transactions"
  },
  "response": {
    "status": 200,
    "body": "{\"items\":[{\"timestamp\":\"2024-06-12T20:53:59.000000Z\",\"fee\":{\"type\":\"actual\",\"value\":\"412171809907800\"},\"gas_limit\":\"22111\",\"block\":20078262,\"status\":\"ok\",\"method\":null,\"confirmations\":1,\"type\":2,\"exchange_rate\":\"3554.69\",\"to\":{\"ens_domain_name\":null,\"hash\":\"0x388C818CA8B9251b393131C08a736A67ccB19297\",\"implementation_name\":null,\"implementations\":[],\"is_contract\":true,\"is_verified\":true,\"metadata\":{\"tags\":[{\"meta\":{},\"name\":\"Lido: Execution Layer Rewards Vault\",\"ordinal\":0,\"slug\":\"lido-execution-layer-rewards-vault\",\"tagType\":\"name\"}]},\"name\":\"LidoExecutionLayerRewardsVault\",\"private_tags\":[],\"public_tags\":[],\"watchlist_names\":[]},\"tx_burnt_fee\":\"412171809907800\",\"max_fee_per_gas\":\"18641029800\",\"result\":\"success\",\"hash\":\"0x5ef0be7ef020c7e08ddd9b9b0e723ce2e03e3013df722d676eff7de19d3f823b\",\"gas_price\":\"18641029800\",\"priority_fee\":\"0\",\"base_fee_per_gas\":\"18641029800\",\"from\":{\"ens_domain_name\":null,\"hash\":\"0x95222290DD7278Aa3Ddd389Cc1E1d165CC4BAfe5\",\"implementation_name\":null,\"implementations\":[],\"is_contract\":false,\"is_verified\":null,\"metadata\":{\"tags\":[{\"meta\":{},\"name\":\"MEV BUILDER\",\"ordinal\":0,\"slug\":\"mev-builder\",\"tagType\":\"note\"},{\"meta\":{},\"name\":\"beaverbuild\",\"ordinal\":0,\"slug\":\"beaverbuild\",\"tagType\":\"name\"}]},\"name\":null,\"private_tags\":[],\"public_tags\":[],\"watchlist_names\":[]},\"token_transfers\":null,\"tx_types\":[\"coin_transfer\",\"contract_call\"],\"gas_used\":\"22111\",\"created_contract\":null,\"position\":178,\"nonce\":1069340,\"has_error_in_internal_txs\":null,\"actions\":[],\"decoded_input\":null,\"token_transfers_overflow\":null,\"raw_input\":\"0x\",\"value\":\"508960756263667523\",\"max_priority_fee_per_gas\":\"0\",\"revert_reason\":null,\"confirmation_duration\":[0,12000],\"tx_tag\":null},{\"timestamp\":\"2024-06-12T20:53:59.000000Z\",\"fee\":{\"type\":\"actual\",\"value\":\"3341787908971800\"},\"gas_limit\":\"339314\",\"block\":20078262,\"status\":\"ok\",\"method\":\"execute\",\"confirmations\":1,\"type\":2,\"exchange_rate\":\"3554.69\",\"to\":{\"ens_domain_name\":null,\"hash\":\"0x3fC91A3afd70395Cd496C647d5a6CC9D4B2b7FAD\",\"implementation_name\":null,\"implementations\":[],\"is_contract\":true,\"is_verified\":true,\"metadata\":{\"tags\":[{\"meta\":{},\"name\":\"Uniswap: Universal Router\",\"ordinal\":0,\"slug\":\"uniswap-universal-router\",\"tagType\":\"name\"}]},\"name\":\"UniversalRouter\",\"private_tags\":[],\"public_tags\":[],\"watchlist_names\":[]},\"tx_burnt_fee\":\"3332848358971800\",\"max_fee_per_gas\":\"19000000000\",\"result\":\"success\",\"hash\":\"0x0057a5c7f515b79a2fc166f9f4710290edb5945962c0a42af05b43d9bbe677ff\",\"gas_price\":\"18691029800\",\"priority_fee\":\"8939550000000\",\"base_fee_per_gas\":\"18641029800\",\"from\":{\"ens_domain_name\":null,\"hash\":\"0xFcA1b6643b8d74Cd47b6Ad67e2FC8f681E4627ce\",\"implementation_name\":null,\"implementations\":[],\"is_contract\":false,\"is_verified\":null,\"metadata\":null,\"name\":null,\"private_tags\":[],\"public_tags\":[],\"watchlist_names\":[]},\"token_transfers\":null,\"tx_types\":[\"coin_transfer\",\"contract_call\",\"token_transfer\"],\"gas_used\":\"178791\",\"created_contract\":null,\"position\":177,\"nonce\":7,\"has_error_in_internal_txs\":null,\"actions\":[],\"decoded_input\":{\"method_call\":\"execute(bytes commands, bytes[] inputs, uint256 deadline)\",\"method_id\":\"3593564c\",\"parameters\":[{\"name\":\"commands\",\"type\":\"bytes\",\"value\":\"0x0b080604\"},{\"name\":\"inputs\",\"type\":\"bytes[]\",\"value\":[\"0x000000000000000000000000000000000000000000000000000000000000000200000000000000000000000000000000000000000000000000b1a2bc2ec50000\",\"0x000000000000000000000000000000000000000000000000000000000000000200000000000000000000000000000000000000000000000000b1a2bc2ec500000000000000000000000000000000000000000000000000001a49bb80376f484000000000000000000000000000000000000000000000000000000000000000a000000000000000000000000000000000000000000000000000000000000000000000000000000000000000000000000000000000000000000000000000000002000000000000000000000000c02aaa39b223fe8d0a0e5c4f27ead9083c756cc20000000000000000000000008a069e20a31f3f72e8f332cfb39fbb181bd0c9c4\",\"0x0000000000000000000000008a069e20a31f3f72e8f332cfb39fbb181bd0c9c4000000000000000000000000000000fee13a103a10d593b9ae06b3e05f2e7e1c0000000000000000000000000000000000000000000000000000000000000019\",\"0x0000000000000000000000008a069e20a31f3f72e8f332cfb39fbb181bd0c9c400000000000000000000000000000000000000000000000000000000000000010000000000000000000000000000000000000000000000001a38e878db22d811\"]},{\"name\":\"deadline\",\"type\":\"uint256\",\"value\":\"1718226203\"}]},\"token_transfers_overflow\":null,\"raw_input\":\"0x3593564c000000000000000000000000000000000000000000000000000000000000006000000000000000000000000000000000000000000000000000000000000000a000000000000000000000000000000000000000000000000000000000666a0d1b00000000000000000000000000000000000000000000000000000000000000040b080604000000000000000000000000000000000000000000000000000000000000000000000000000000000000000000000000000000000000000000000004000000000000000000000000000000000000000000000000000000000000008000000000000000000000000000000000000000000000000000000000000000e0000000000000000000000000000000000000000000000000000000000000020000000000000000000000000000000000000000000000000000000000000002800000000000000000000000000000000000000000000000000000000000000040000000000000000000000000000000000000000000000000000000000000000200000000000000000000000000000000000000000000000000b1a2bc2ec500000000000000000000000000000000000000000000000000000000000000000100000000000000000000000000000000000000000000000000000000000000000200000000000000000000000000000000000000000000000000b1a2bc2ec500000000000000000000000000000000000000000000000000001a49bb80376f484000000000000000000000000000000000000000000000000000000000000000a000000000000000000000000000000000000000000000000000000000000000000000000000000000000000000000000000000000000000000000000000000002000000000000000000000000c02aaa39b223fe8d0a0e5c4f27ead9083c756cc20000000000000000000000008a069e20a31f3f72e8f332cfb39fbb181bd0c9c400000000000000000000000000000000000000000000000000000000000000600000000000000000000000008a069e20a31f3f72e8f332cfb39fbb181bd0c9c4000000000000000000000000000000fee13a103a10d593b9ae06b3e05f2e7e1c000000000000000000000000000000000000000000000000000000000000001900000000000000000000000000000000000000000000000000000000000000600000000000000000000000008a069e20a31f3f72e8f332cfb39fbb181bd0c9c400000000000000000000000000000000000000000000000000000000000000010000000000000000000000000000000000000000000000001a38e878db22d811\",\"value\":\"50000000000000000\",\"max_priority_fee_per_gas\":\"50000000\",\"revert_reason\":null,\"confirmation_duration\":[0,12000],\"tx_tag\":null},{\"timestamp\":\"2024-06-12T20:53:59.000000Z\",\"fee\":{\"type\":\"actual\",\"value\":\"1576529045900028\"},\"gas_limit\":\"157800\",\"block\":20078262,\"status\":\"ok\",\"method\":\"getTokenReward\",\"confirmations\":1,\"type\":2,\"exchange_rate\":\"3554.69\",\"to\":{\"ens_domain_name\":null,\"hash\":\"0x86CC33dBE3d2fb95bc6734e1E5920D287695215F\",\"implementation_name\":null,\"implementations\":[],\"is_contract\":true,\"is_verified\":false,\"metadata\":null,\"name\":null,\"private_tags\":[],\"public_tags\":[],\"watchlist_names\":[]},\"tx_burnt_fee\":\"1571382889050600\",\"max_fee_per_gas\":\"19000000000\",\"result\":\"success\",\"hash\":\"0xe7d976529bcce9520660592a371b22474e9aa16f2540349aef82a119ffce79f4\",\"gas_price\":\"18702077724\",\"priority_fee\":\"5146156849428\",\"base_fee_per_gas\":\"18641029800\",\"from\":{\"ens_domain_name\":null,\"hash\":\"0xa3D4649c0e1306C3Cf1D3C9B12ABDc81b283F227\",\"implementation_name\":null,\"implementations\":[],\"is_contract\":false,\"is_verified\":null,\"metadata\":null,\"name\":null,\"private_tags\":[],\"public_tags\":[],\"watchlist_names\":[]},\"token_transfers\":null,\"tx_types\":[\"contract_call\",\"token_transfer\"],\"gas_used\":\"84297\",\"created_contract\":null,\"position\":176,\"nonce\":69,\"has_error_in_internal_txs\":null,\"actions\":[],\"decoded_input\":{\"method_call\":\"getTokenReward(address _token)\",\"method_id\":\"fea99c4b\",\"parameters\":[{\"name\":\"_token\",\"type\":\"address\",\"value\":\"0x94e496474f1725f1c1824cb5bdb92d7691a4f03a\"}]},\"token_transfers_overflow\":null,\"raw_input\":\"0xfea99c4b00000000000000000000000094e496474f1725f1c1824cb5bdb92d7691a4f03a\",\"value\":\"0\",\"max_priority_fee_per_gas\":\"61047924\",\"revert_reason\":null,\"confirmation_duration\":[0,12000],\"tx_tag\":null},{\"timestamp\":\"2024-06-12T20:53:59.000000Z\",\"fee\":{\"type\":\"actual\",\"value\":\"393351625800000\"},\"gas_limit\":\"21000\",\"block\":20078262,\"status\":\"ok\",\"method\":null,\"confirmations\":1,\"type\":2,\"exchange_rate\":\"3554.69\",\"to\":{\"ens_domain_name\":null,\"hash\":\"0x42d91494Feaf725B0a38b35DE4996E1a88242a1F\",\"implementation_name\":null,\"implementations\":[],\"is_contract\":false,\"is_verified\":false,\"metadata\":null,\"name\":null,\"private_tags\":[],\"public_tags\":[],\"watchlist_names\":[]},\"tx_burnt_fee\":\"391461625800000\",\"max_fee_per_gas\":\"20620379304\",\"result\":\"success\",\"hash\":\"0x0c97c2c58fe3c8c2570735b273411b5c103e819850d4dfd02edc0fe9b6f05d05\",\"gas_price\":\"18731029800\",\"priority_fee\":\"1890000000000\",\"base_fee_per_gas\":\"18641029800\",\"from\":{\"ens_domain_name\":null,\"hash\":\"0x877072D8C38d5e8Eec69b122392D99D67b0e9b20\",\"implementation_name\":null,\"implementations\":[],\"is_contract\":false,\"is_verified\":null,\"metadata\":null,\"name\":null,\"private_tags\":[],\"public_tags\":[],\"watchlist_names\":[]},\"token_transfers\":null,\"tx_types\":[\"coin_transfer\"],\"gas_used\":\"21000\",\"created_contract\":null,\"position\":175,\"nonce\":1115,\"has_error_in_internal_txs\":null,\"actions\":[],\"decoded_input\":null,\"token_transfers_overflow\":null,\"raw_input\":\"0x\",\"value\":\"123940000000000000\",\"max_priority_fee_per_gas\":\"90000000\",\"revert_reason\":null,\"confirmation_duration\":[0,12000],\"tx_tag\":null},{\"timestamp\":\"2024-06-12T20:53:59.000000Z\",\"fee\":{\"type\":\"actual\",\"value\":\"1054895085382400\"},\"gas_limit\":\"68512\",\"block\":20078262,\"status\":\"ok\",\"method\":\"createOrder\",\"confirmations\":1,\"type\":2,\"exchange_rate\":\"3554.69\",\"to\":{\"ens_domain_name\":null,\"hash\":\"0x40A50cf069e992AA4536211B23F286eF88752187\",\"implementation_name\":null,\"implementations\":[],\"is_contract\":true,\"is_verified\":true,\"metadata\":{\"tags\":[{\"meta\":{},\"name\":\"CoW Protocol: Eth Flow\",\"ordinal\":0,\"slug\":\"cow-protocol-eth-flow\",\"tagType\":\"name\"}]},\"name\":\"CoWSwapEthFlow\",\"private_tags\":[],\"public_tags\":[],\"watchlist_names\":[]},\"tx_burnt_fee\":\"1049266285382400\",\"max_fee_per_gas\":\"25040545188\",\"result\":\"success\",\"hash\":\"0x3d07eb0cafbe9437bf5f70db3cc0a6ffca9d2ea4f9c82842f98107da8bc9a014\",\"gas_price\":\"18741029800\",\"priority_fee\":\"5628800000000\",\"base_fee_per_gas\":\"18641029800\",\"from\":{\"ens_domain_name\":null,\"hash\":\"0x127b0502338DE02C28A9C69e4EC71D327C1f8c59\",\"implementation_name\":null,\"implementations\":[],\"is_contract\":false,\"is_verified\":null,\"metadata\":null,\"name\":null,\"private_tags\":[],\"public_tags\":[],\"watchlist_names\":[]},\"token_transfers\":null,\"tx_types\":[\"coin_transfer\",\"contract_call\"],\"gas_used\":\"56288\",\"created_contract\":null,\"position\":174,\"nonce\":653,\"has_error_in_internal_txs\":null,\"actions\":[],\"decoded_input\":{\"method_call\":\"createOrder((address,address,uint256,uint256,bytes32,uint256,uint32,bool,int64) order)\",\"method_id\":\"322bba21\",\"parameters\":[{\"name\":\"order\",\"type\":\"(address,address,uint256,uint256,bytes32,uint256,uint32,bool,int64)\",\"value\":[\"0x8afe4055ebc86bd2afb3940c0095c9aca511d852\",\"0x127b0502338de02c28a9c69e4ec71d327c1f8c59\",\"180000000000000000\",\"9798367978327918333\",\"0xf3030c8e52b4426ffb24dde325416a3f86251bf0eb587368048d11c231409bb9\",\"0\",\"1718227427\",\"false\",\"532293430\"]}]},\"token_transfers_overflow\":null,\"raw_input\":\"0x322bba210000000000000000000000008afe4055ebc86bd2afb3940c0095c9aca511d852000000000000000000000000127b0502338de02c28a9c69e4ec71d327c1f8c59000000000000000000000000000000000000000000000000027f7d0bdb92000000000000000000000000000000000000000000000000000087facbc326cc46fdf3030c8e52b4426ffb24dde325416a3f86251bf0eb587368048d11c231409bb9000000000000000000000000000000000000000000000000000000000000000000000000000000000000000000000000000000000000000000000000666a11e30000000000000000000000000000000000000000000000000000000000000000000000000000000000000000000000000000000000000000000000001fba2736\",\"value\":\"180000000000000000\",\"max_priority_fee_per_gas\":\"100000000\",\"revert_reason\":null,\"confirmation_duration\":[0,12000],\"tx_tag\":null},{\"timestamp\":\"2024-06-12T20:53:59.000000Z\",\"fee\":{\"type\":\"actual\",\"value\":\"1225176082145200\"},\"gas_limit\":\"104450\",\"block\":20078262,\"status\":\"ok\",\"method\":\"burnRedemptionTicketNft\",\"confirmations\":1,\"type\":2,\"exchange_rate\":\"3554.69\",\"to\":{\"ens_domain_name\":null,\"hash\":\"0x82bA8da44Cd5261762e629dd5c605b17715727bd\",\"implementation_name\":null,\"implementations\":[],\"is_contract\":true,\"is_verified\":true,\"metadata\":null,\"name\":\"FraxEtherRedemptionQueue\",\"private_tags\":[],\"public_tags\":[],\"watchlist_names\":[]},\"tx_burnt_fee\":\"1218638682145200\",\"max_fee_per_gas\":\"22000000000\",\"result\":\"success\",\"hash\":\"0x731b4eeae370b3808c139745e07957b9699bb4f39c41ee97f192b5524c90a508\",\"gas_price\":\"18741029800\",\"priority_fee\":\"6537400000000\",\"base_fee_per_gas\":\"18641029800\",\"from\":{\"ens_domain_name\":null,\"hash\":\"0x213D1F85C6FABC070f15fCB003EE77aC4423b809\",\"implementation_name\":null,\"implementations\":[],\"is_contract\":false,\"is_verified\":null,\"metadata\":null,\"name\":null,\"private_tags\":[],\"public_tags\":[],\"watchlist_names\":[]},\"token_transfers\":null,\"tx_types\":[\"contract_call\",\"token_transfer\"],\"gas_used\":\"65374\",\"created_contract\":null,\"position\":173,\"nonce\":31,\"has_error_in_internal_txs\":null,\"actions\":[],\"decoded_input\":{\"method_call\":\"burnRedemptionTicketNft(uint256 _nftId, address _recipient)\",\"method_id\":\"0a5334e5\",\"parameters\":[{\"name\":\"_nftId\",\"type\":\"uint256\",\"value\":\"499\"},{\"name\":\"_recipient\",\"type\":\"address\",\"value\":\"0x213d1f85c6fabc070f15fcb003ee77ac4423b809\"}]},\"token_transfers_overflow\":null,\"raw_input\":\"0x0a5334e500000000000000000000000000000000000000000000000000000000000001f3000000000000000000000000213d1f85c6fabc070f15fcb003ee77ac4423b809\",\"value\":\"0\",\"max_priority_fee_per_gas\":\"100000000\",\"revert_reason\":null,\"confirmation_duration\":[0,12000],\"tx_tag\":null},{\"timestamp\":\"2024-06-12T20:53:59.000000Z\",\"fee\":{\"type\":\"actual\",\"value\":\"880003795288800\"},\"gas_limit\":\"52074\",\"block\":20078262,\"status\":\"ok\",\"method\":\"approve\",\"confirmations\":1,\"type\":2,\"exchange_rate\":\"3554.69\",\"to\":{\"ens_domain_name\":null,\"hash\":\"0x6968676661Ac9851C38907bDfcC22d5Dd77b564d\",\"implementation_name\":null,\"implementations\":[],\"is_contract\":true,\"is_verified\":true,\"metadata\":null,\"name\":\"BOYSCLUB\",\"private_tags\":[],\"public_tags\":[],\"watchlist_names\":[]},\"tx_burnt_fee\":\"875308195288800\",\"max_fee_per_gas\":\"37247086346\",\"result\":\"success\",\"hash\":\"0x0504afe9a0195a2334863aaf0239109a0356354d34d1a76cdc4094ed08d623c0\",\"gas_price\":\"18741029800\",\"priority_fee\":\"4695600000000\",\"base_fee_per_gas\":\"18641029800\",\"from\":{\"ens_domain_name\":null,\"hash\":\"0x22A3c509DaBFf81324CF0e873136407f5c31543c\",\"implementation_name\":null,\"implementations\":[],\"is_contract\":false,\"is_verified\":null,\"metadata\":null,\"name\":null,\"private_tags\":[],\"public_tags\":[],\"watchlist_names\":[]},\"token_transfers\":null,\"tx_types\":[\"contract_call\"],\"gas_used\":\"46956\",\"created_contract\":null,\"position\":172,\"nonce\":222,\"has_error_in_internal_txs\":null,\"actions\":[],\"decoded_input\":{\"method_call\":\"approve(address spender, uint256 amount)\",\"method_id\":\"095ea7b3\",\"parameters\":[{\"name\":\"spender\",\"type\":\"address\",\"value\":\"0x1111111254eeb25477b68fb85ed929f73a960582\"},{\"name\":\"amount\",\"type\":\"uint256\",\"value\":\"2572855051658281821168\"}]},\"token_transfers_overflow\":null,\"raw_input\":\"0x095ea7b30000000000000000000000001111111254eeb25477b68fb85ed929f73a96058200000000000000000000000000000000000000000000008b798955e9b52f23f0\",\"value\":\"0\",\"max_priority_fee_per_gas\":\"100000000\",\"revert_reason\":null,\"confirmation_duration\":[0,12000],\"tx_tag\":null},{\"timestamp\":\"2024-06-12T20:53:59.000000Z\",\"fee\":{\"type\":\"actual\",\"value\":\"2916291647178000\"},\"gas_limit\":\"185198\",\"block\":20078262,\"status\":\"ok\",\"method\":\"bridge\",\"confirmations\":1,\"type\":2,\"exchange_rate\":\"3554.69\",\"to\":{\"ens_domain_name\":null,\"hash\":\"0x0439e60F02a8900a951603950d8D4527f400C3f1\",\"implementation_name\":null,\"implementations\":[],\"is_contract\":true,\"is_verified\":true,\"metadata\":null,\"name\":\"MetaBridge\",\"private_tags\":[],\"public_tags\":[],\"watchlist_names\":[]},\"tx_burnt_fee\":\"2900730647178000\",\"max_fee_per_gas\":\"22896554694\",\"result\":\"success\",\"hash\":\"0xfe7a0d8ccc6e8a018f4aed33f898cd08b6f8b5d42080d4017bbe1c444ba52370\",\"gas_price\":\"18741029800\",\"priority_fee\":\"15561000000000\",\"base_fee_per_gas\":\"18641029800\",\"from\":{\"ens_domain_name\":null,\"hash\":\"0x216aaf9fbe84f0E3a9381226D183C22F1828cFa6\",\"implementation_name\":null,\"implementations\":[],\"is_contract\":false,\"is_verified\":null,\"metadata\":null,\"name\":null,\"private_tags\":[],\"public_tags\":[],\"watchlist_names\":[]},\"token_transfers\":null,\"tx_types\":[\"coin_transfer\",\"contract_call\"],\"gas_used\":\"155610\",\"created_contract\":null,\"position\":171,\"nonce\":55,\"has_error_in_internal_txs\":null,\"actions\":[],\"decoded_input\":{\"method_call\":\"bridge(string adapterId, address srcToken, uint256 amount, bytes data)\",\"method_id\":\"3ce33bff\",\"parameters\":[{\"name\":\"adapterId\",\"type\":\"string\",\"value\":\"socketAdapterV2\"},{\"name\":\"srcToken\",\"type\":\"address\",\"value\":\"0x0000000000000000000000000000000000000000\"},{\"name\":\"amount\",\"type\":\"uint256\",\"value\":\"5700000000000000000\"},{\"name\":\"data\",\"type\":\"bytes\",\"value\":\"0x0000000000000000000000003a23f943181408eac424116af7b7790c94cb97a50000000000000000000000003a23f943181408eac424116af7b7790c94cb97a5000000000000000000000000000000000000000000000000000000000000008900000000000000000000000000000000000000000000000000000000000000000000000000000000000000007ceb23fd6bc0add59e62ac25578270cff1b9f6190000000000000000000000000000000000000000000000004e6946c0798dd000000000000000000000000000000000000000000000000000000000000000014000000000000000000000000000000000000000000000000000b1310c5a2c3000000000000000000000000000e6b738da243e8fa2a0ed5915645789add5de51520000000000000000000000000000000000000000000000000000000000000068000001a08091c7260000000000000000000000000000000000000000000000004e6946c0798dd00000000000000000000000000000000000000000000000000000000000000000c4000000000000000000000000216aaf9fbe84f0e3a9381226d183c22f1828cfa6000000000000000000000000000000000000000000000000\"}]},\"token_transfers_overflow\":null,\"raw_input\":\"0x3ce33bff000000000000000000000000000000000000000000000000000000000000008000000000000000000000000000000000000000000000000000000000000000000000000000000000000000000000000000000000000000004f1a77ccd3ba000000000000000000000000000000000000000000000000000000000000000000c0000000000000000000000000000000000000000000000000000000000000000f736f636b6574416461707465725632000000000000000000000000000000000000000000000000000000000000000000000000000000000000000000000001c00000000000000000000000003a23f943181408eac424116af7b7790c94cb97a50000000000000000000000003a23f943181408eac424116af7b7790c94cb97a5000000000000000000000000000000000000000000000000000000000000008900000000000000000000000000000000000000000000000000000000000000000000000000000000000000007ceb23fd6bc0add59e62ac25578270cff1b9f6190000000000000000000000000000000000000000000000004e6946c0798dd000000000000000000000000000000000000000000000000000000000000000014000000000000000000000000000000000000000000000000000b1310c5a2c3000000000000000000000000000e6b738da243e8fa2a0ed5915645789add5de51520000000000000000000000000000000000000000000000000000000000000068000001a08091c7260000000000000000000000000000000000000000000000004e6946c0798dd00000000000000000000000000000000000000000000000000000000000000000c4000000000000000000000000216aaf9fbe84f0e3a9381226d183c22f1828cfa6000000000000000000000000000000000000000000000000\",\"value\":\"5700000000000000000\",\"max_priority_fee_per_gas\":\"100000000\",\"revert_reason\":null,\"confirmation_duration\":[0,12000],\"tx_tag\":null},{\"timestamp\":\"2024-06-12T20:53:59.000000Z\",\"fee\":{\"type\":\"actual\",\"value\":\"866922556488400\"},\"gas_limit\":\"46640\",\"block\":20078262,\"status\":\"ok\",\"method\":\"approve\",\"confirmations\":1,\"type\":2,\"exchange_rate\":\"3554.69\",\"to\":{\"ens_domain_name\":null,\"hash\":\"0xbe0Ed4138121EcFC5c0E56B40517da27E6c5226B\",\"implementation_name\":null,\"implementations\":[],\"is_contract\":true,\"is_verified\":true,\"metadata\":null,\"name\":\"AethirToken\",\"private_tags\":[],\"public_tags\":[],\"watchlist_names\":[]},\"tx_burnt_fee\":\"862296756488400\",\"max_fee_per_gas\":\"25439260361\",\"result\":\"success\",\"hash\":\"0xcfd725be877e5cdbe6d7acca1c1cd1c9fc3547953b44c3eaf07579fb79e39718\",\"gas_price\":\"18741029800\",\"priority_fee\":\"4625800000000\",\"base_fee_per_gas\":\"18641029800\",\"from\":{\"ens_domain_name\":null,\"hash\":\"0xD0d52A0017C7B3D5BBD8d22e72629d67C5a5CBeb\",\"implementation_name\":null,\"implementations\":[],\"is_contract\":false,\"is_verified\":null,\"metadata\":null,\"name\":null,\"private_tags\":[],\"public_tags\":[],\"watchlist_names\":[]},\"token_transfers\":null,\"tx_types\":[\"contract_call\"],\"gas_used\":\"46258\",\"created_contract\":null,\"position\":170,\"nonce\":45,\"has_error_in_internal_txs\":null,\"actions\":[],\"decoded_input\":{\"method_call\":\"approve(address spender, uint256 amount)\",\"method_id\":\"095ea7b3\",\"parameters\":[{\"name\":\"spender\",\"type\":\"address\",\"value\":\"0x000000000022d473030f116ddee9f6b43ac78ba3\"},{\"name\":\"amount\",\"type\":\"uint256\",\"value\":\"4000000000000000000000\"}]},\"token_transfers_overflow\":null,\"raw_input\":\"0x095ea7b3000000000000000000000000000000000022d473030f116ddee9f6b43ac78ba30000000000000000000000000000000000000000000000d8d726b7177a800000\",\"value\":\"0\",\"max_priority_fee_per_gas\":\"100000000\",\"revert_reason\":null,\"confirmation_duration\":[0,12000],\"tx_tag\":null},{\"timestamp\":\"2024-06-12T20:53:59.000000Z\",\"fee\":{\"type\":\"actual\",\"value\":\"2612499554120000\"},\"gas_limit\":\"212224\",\"block\":20078262,\"status\":\"ok\",\"method\":\"execute\",\"confirmations\":1,\"type\":2,\"exchange_rate\":\"3554.69\",\"to\":{\"ens_domain_name\":null,\"hash\":\"0x3fC91A3afd70395Cd496C647d5a6CC9D4B2b7FAD\",\"implementation_name\":null,\"implementations\":[],\"is_contract\":true,\"is_verified\":true,\"metadata\":{\"tags\":[{\"meta\":{},\"name\":\"Uniswap: Universal Router\",\"ordinal\":0,\"slug\":\"uniswap-universal-router\",\"tagType\":\"name\"}]},\"name\":\"UniversalRouter\",\"private_tags\":[],\"public_tags\":[],\"watchlist_names\":[]},\"tx_burnt_fee\":\"2598559554120000\",\"max_fee_per_gas\":\"22896554694\",\"result\":\"success\",\"hash\":\"0xffeb105b43733aa76368aae7b5ee1978f06758a9e65aaff122cda255dc6cce7c\",\"gas_price\":\"18741029800\",\"priority_fee\":\"13940000000000\",\"base_fee_per_gas\":\"18641029800\",\"from\":{\"ens_domain_name\":\"bitchesgetstitches.eth\",\"hash\":\"0x9b6f7F58E8ab7bB63Fe2bfd5dc8E5de43B8Ec643\",\"implementation_name\":null,\"implementations\":[],\"is_contract\":false,\"is_verified\":null,\"metadata\":null,\"name\":null,\"private_tags\":[],\"public_tags\":[],\"watchlist_names\":[]},\"token_transfers\":null,\"tx_types\":[\"coin_transfer\",\"contract_call\",\"token_transfer\"],\"gas_used\":\"139400\",\"created_contract\":null,\"position\":169,\"nonce\":373,\"has_error_in_internal_txs\":null,\"actions\":[],\"decoded_input\":{\"method_call\":\"execute(bytes commands, bytes[] inputs, uint256 deadline)\",\"method_id\":\"3593564c\",\"parameters\":[{\"name\":\"commands\",\"type\":\"bytes\",\"value\":\"0x0b080604\"},{\"name\":\"inputs\",\"type\":\"bytes[]\",\"value\":[\"0x000000000000000000000000000000000000000000000000000000000000000200000000000000000000000000000000000000000000000002761137a5fe55d2\",\"0x000000000000000000000000000000000000000000000000000000000000000200000000000000000000000000000000000000000000000002761137a5fe55d20000000000000000000000000000000000000000000001c922e5e2705e82c3c800000000000000000000000000000000000000000000000000000000000000a000000000000000000000000000000000000000000000000000000000000000000000000000000000000000000000000000000000000000000000000000000002000000000000000000000000c02aaa39b223fe8d0a0e5c4f27ead9083c756cc2000000000000000000000000d17d6dcbd1619b979fe5275dad2ee16f8e180a2f\",\"0x000000000000000000000000d17d6dcbd1619b979fe5275dad2ee16f8e180a2f000000000000000000000000000000fee13a103a10d593b9ae06b3e05f2e7e1c0000000000000000000000000000000000000000000000000000000000000019\",\"0x000000000000000000000000d17d6dcbd1619b979fe5275dad2ee16f8e180a2f00000000000000000000000000000000000000000000000000000000000000010000000000000000000000000000000000000000000001c7fe54ab790c5ac202\"]},{\"name\":\"deadline\",\"type\":\"uint256\",\"value\":\"1718226191\"}]},\"token_transfers_overflow\":null,\"raw_input\":\"0x3593564c000000000000000000000000000000000000000000000000000000000000006000000000000000000000000000000000000000000000000000000000000000a000000000000000000000000000000000000000000000000000000000666a0d0f00000000000000000000000000000000000000000000000000000000000000040b080604000000000000000000000000000000000000000000000000000000000000000000000000000000000000000000000000000000000000000000000004000000000000000000000000000000000000000000000000000000000000008000000000000000000000000000000000000000000000000000000000000000e0000000000000000000000000000000000000000000000000000000000000020000000000000000000000000000000000000000000000000000000000000002800000000000000000000000000000000000000000000000000000000000000040000000000000000000000000000000000000000000000000000000000000000200000000000000000000000000000000000000000000000002761137a5fe55d20000000000000000000000000000000000000000000000000000000000000100000000000000000000000000000000000000000000000000000000000000000200000000000000000000000000000000000000000000000002761137a5fe55d20000000000000000000000000000000000000000000001c922e5e2705e82c3c800000000000000000000000000000000000000000000000000000000000000a000000000000000000000000000000000000000000000000000000000000000000000000000000000000000000000000000000000000000000000000000000002000000000000000000000000c02aaa39b223fe8d0a0e5c4f27ead9083c756cc2000000000000000000000000d17d6dcbd1619b979fe5275dad2ee16f8e180a2f0000000000000000000000000000000000000000000000000000000000000060000000000000000000000000d17d6dcbd1619b979fe5275dad2ee16f8e180a2f000000000000000000000000000000fee13a103a10d593b9ae06b3e05f2e7e1c00000000000000000000000000000000000000000000000000000000000000190000000000000000000000000000000000000000000000000000000000000060000000000000000000000000d17d6dcbd1619b979fe5275dad2ee16f8e180a2f00000000000000000000000000000000000000000000000000000000000000010000000000000000000000000000000000000000000001c7fe54ab790c5ac202\",\"value\":\"177348166033495506\",\"max_priority_fee_per_gas\":\"100000000\",\"revert_reason\":null,\"confirmation_duration\":[0,12000],\"tx_tag\":null},{\"timestamp\":\"2024-06-12T20:53:59.000000Z\",\"fee\":{\"type\":\"actual\",\"value\":\"867409823263200\"},\"gas_limit\":\"46667\",\"block\":20078262,\"status\":\"ok\",\"method\":\"approve\",\"confirmations\":1,\"type\":2,\"exchange_rate\":\"3554.69\",\"to\":{\"ens_domain_name\":null,\"hash\":\"0xa462bdE22D98335E18A21555b6752dB93a937cFf\",\"implementation_name\":null,\"implementations\":[],\"is_contract\":true,\"is_verified\":true,\"metadata\":null,\"name\":\"Bobby\",\"private_tags\":[],\"public_tags\":[],\"watchlist_names\":[]},\"tx_burnt_fee\":\"862781423263200\",\"max_fee_per_gas\":\"22896554694\",\"result\":\"success\",\"hash\":\"0xfd1ea501b32bb424b7b263382970ae29640032e848bb6323446bdddba0aeffe7\",\"gas_price\":\"18741029800\",\"priority_fee\":\"4628400000000\",\"base_fee_per_gas\":\"18641029800\",\"from\":{\"ens_domain_name\":null,\"hash\":\"0xb225C0EA6fBFb3a214C086721523875F1b5B539c\",\"implementation_name\":null,\"implementations\":[],\"is_contract\":false,\"is_verified\":null,\"metadata\":null,\"name\":null,\"private_tags\":[],\"public_tags\":[],\"watchlist_names\":[]},\"token_transfers\":null,\"tx_types\":[\"contract_call\"],\"gas_used\":\"46284\",\"created_contract\":null,\"position\":168,\"nonce\":538,\"has_error_in_internal_txs\":null,\"actions\":[],\"decoded_input\":{\"method_call\":\"approve(address spender, uint256 amount)\",\"method_id\":\"095ea7b3\",\"parameters\":[{\"name\":\"spender\",\"type\":\"address\",\"value\":\"0x000000000022d473030f116ddee9f6b43ac78ba3\"},{\"name\":\"amount\",\"type\":\"uint256\",\"value\":\"6290646068752300000000000\"}]},\"token_transfers_overflow\":null,\"raw_input\":\"0x095ea7b3000000000000000000000000000000000022d473030f116ddee9f6b43ac78ba30000000000000000000000000000000000000000000534189b50f2eaa095b800\",\"value\":\"0\",\"max_priority_fee_per_gas\":\"100000000\",\"revert_reason\":null,\"confirmation_duration\":[0,12000],\"tx_tag\":null},{\"timestamp\":\"2024-06-12T20:53:59.000000Z\",\"fee\":{\"type\":\"actual\",\"value\":\"1909860864858400\"},\"gas_limit\":\"155826\",\"block\":20078262,\"status\":\"ok\",\"method\":\"delegateTo\",\"confirmations\":1,\"type\":2,\"exchange_rate\":\"3554.69\",\"to\":{\"ens_domain_name\":null,\"hash\":\"0x39053D51B77DC0d36036Fc1fCc8Cb819df8Ef37A\",\"implementation_name\":\"DelegationManager\",\"implementations\":[{\"name\":\"DelegationManager\"}],\"is_contract\":true,\"is_verified\":true,\"metadata\":{\"tags\":[{\"meta\":{},\"name\":\"EigenLayer: Delegation\",\"ordinal\":0,\"slug\":\"eigenlayer-delegation\",\"tagType\":\"name\"},{\"meta\":{},\"name\":\"EIGENLAYER\",\"ordinal\":0,\"slug\":\"eigenlayer\",\"tagType\":\"note\"}]},\"name\":\"TransparentUpgradeableProxy\",\"private_tags\":[],\"public_tags\":[],\"watchlist_names\":[]},\"tx_burnt_fee\":\"1899670064858400\",\"max_fee_per_gas\":\"22896554694\",\"result\":\"success\",\"hash\":\"0xe382cde4025e77d3cc795ff5e1bee0762b75fa7f937e22e4e3c6577ea293b057\",\"gas_price\":\"18741029800\",\"priority_fee\":\"10190800000000\",\"base_fee_per_gas\":\"18641029800\",\"from\":{\"ens_domain_name\":null,\"hash\":\"0x9Af51e40B31fF5ECfC213aA8188fCEF50dCc6955\",\"implementation_name\":null,\"implementations\":[],\"is_contract\":false,\"is_verified\":null,\"metadata\":null,\"name\":null,\"private_tags\":[],\"public_tags\":[],\"watchlist_names\":[]},\"token_transfers\":null,\"tx_types\":[\"contract_call\"],\"gas_used\":\"101908\",\"created_contract\":null,\"position\":167,\"nonce\":253,\"has_error_in_internal_txs\":null,\"actions\":[],\"decoded_input\":{\"method_call\":\"delegateTo(address operator, (bytes,uint256) approverSignatureAndExpiry, bytes32 approverSalt)\",\"method_id\":\"eea9064b\",\"parameters\":[{\"name\":\"operator\",\"type\":\"address\",\"value\":\"0x4d7c3fc856ab52753b91a6c9213adf013309dd25\"},{\"name\":\"approverSignatureAndExpiry\",\"type\":\"(bytes,uint256)\",\"value\":[\"0x\",\"0\"]},{\"name\":\"approverSalt\",\"type\":\"bytes32\",\"value\":\"0x0000000000000000000000000000000000000000000000000000000000000000\"}]},\"token_transfers_overflow\":null,\"raw_input\":\"0xeea9064b0000000000000000000000004d7c3fc856ab52753b91a6c9213adf013309dd2500000000000000000000000000000000000000000000000000000000000000600000000000000000000000000000000000000000000000000000000000000000000000000000000000000000000000000000000000000000000000000000004000000000000000000000000000000000000000000000000000000000000000000000000000000000000000000000000000000000000000000000000000000000\",\"value\":\"0\",\"max_priority_fee_per_gas\":\"100000000\",\"revert_reason\":null,\"confirmation_duration\":[0,12000],\"tx_tag\":null},{\"timestamp\":\"2024-06-12T20:53:59.000000Z\",\"fee\":{\"type\":\"actual\",\"value\":\"1884204395062200\"},\"gas_limit\":\"104773\",\"block\":20078262,\"status\":\"ok\",\"method\":\"relayMessageWithProof\",\"confirmations\":1,\"type\":2,\"exchange_rate\":\"3554.69\",\"to\":{\"ens_domain_name\":null,\"hash\":\"0x6774Bcbd5ceCeF1336b5300fb5186a12DDD8b367\",\"implementation_name\":\"L1ScrollMessenger\",\"implementations\":[{\"name\":\"L1ScrollMessenger\"}],\"is_contract\":true,\"is_verified\":true,\"metadata\":{\"tags\":[{\"meta\":{},\"name\":\"SCROLL\",\"ordinal\":0,\"slug\":\"scroll\",\"tagType\":\"note\"},{\"meta\":{},\"name\":\"Scroll: L1 Scroll Messenger Proxy\",\"ordinal\":0,\"slug\":\"scroll-l1-scroll-messenger-proxy\",\"tagType\":\"name\"}]},\"name\":\"TransparentUpgradeableProxy\",\"private_tags\":[],\"public_tags\":[],\"watchlist_names\":[]},\"tx_burnt_fee\":\"1874150495062200\",\"max_fee_per_gas\":\"22896554694\",\"result\":\"success\",\"hash\":\"0x858fd8a35f349aeb7cdcf107c8f3c07b2f80215f3b66c8aa5bca7ced936ba801\",\"gas_price\":\"18741029800\",\"priority_fee\":\"10053900000000\",\"base_fee_per_gas\":\"18641029800\",\"from\":{\"ens_domain_name\":\"jimmijaz.eth\",\"hash\":\"0xF0107Ab12Fc100A8BabeF70CbD6D80317F3cd7d8\",\"implementation_name\":null,\"implementations\":[],\"is_contract\":false,\"is_verified\":null,\"metadata\":null,\"name\":null,\"private_tags\":[],\"public_tags\":[],\"watchlist_names\":[]},\"token_transfers\":null,\"tx_types\":[\"contract_call\"],\"gas_used\":\"100539\",\"created_contract\":null,\"position\":166,\"nonce\":94,\"has_error_in_internal_txs\":null,\"actions\":[],\"decoded_input\":{\"method_call\":\"relayMessageWithProof(address _from, address _to, uint256 _value, uint256 _nonce, bytes _message, (uint256,bytes) _proof)\",\"method_id\":\"c311b6fc\",\"parameters\":[{\"name\":\"_from\",\"type\":\"address\",\"value\":\"0xf0107ab12fc100a8babef70cbd6d80317f3cd7d8\"},{\"name\":\"_to\",\"type\":\"address\",\"value\":\"0xf0107ab12fc100a8babef70cbd6d80317f3cd7d8\"},{\"name\":\"_value\",\"type\":\"uint256\",\"value\":\"17000000000000000\"},{\"name\":\"_nonce\",\"type\":\"uint256\",\"value\":\"134949\"},{\"name\":\"_message\",\"type\":\"bytes\",\"value\":\"0x\"},{\"name\":\"_proof\",\"type\":\"(uint256,bytes)\",\"value\":[\"241721\",\"0x337bda2f08d3a2a9a008c9a4030ac074fbb1e188a3d60a4daa537e052259af93ad3228b676f7d3cd4284a5443f17f1962b36e491b30a40b2405849e597ba5fb5291eeb09d65bf5173ffbd88cf0f497316163fa20a6de486a84a11c04609767d921ddb9a356815c3fac1026b6dec5df3124afbadb485c9ba5a3e3398a04b7ba85e58769b32a1beaf1ea27375a44095a0d1fb664ce2dd358e7fcbfb78c26a1934443612b436a8f19e8a13ba8dce66c284b24f12a5842774087c55483d4b184ce21887c22bd8750d34016ac3c66b5ff102dacdd73f6b014e710b51e8022af9a1968ffd70157e48063fc33c97a050f7f640233bf646cc98d9524c6b92bcf3ab56f83c5315f9ac1b0dbd297d58cc8ee680c51ddb12ea6209ecf2b9d65b8439fa943ab2fa5593f0dab1da967bb1bd560f38aab684b36d1e715c93d3475a9d43bfa5e2db80268fd78cb5ad4d0070ebf08ca6cd456cbdd82d706e1df1cacdc2a968fb35e75f534f2a150fad083cd97102921f4f73d849341c45ea79b93a97870a3cbb8f23490c6ceeb450aecdc82e28293031d10c7d73bf85e57bf041a97360aa2c5d99cc1df82d9c4b87413eae2ef048f94b4d3554cea73d92b0f7af96e0271c691e2bb5c67add7c6caf302256adedf7ab114da0acfe870d449a3a489f781d659e8beccda7bce9f4e8618b6bd2f4132ce798cdc7a60e7e1460a7299e3c6342a579626d22733e50f526ec2fa19a22b31e8ed50f23cd1fdf94c9154ed3a7609a2f1ff981f52e25d1e9ce7d1acb85caba116b8ea68633ca77967016b316f606f74d55061e0\"]}]},\"token_transfers_overflow\":null,\"raw_input\":\"0xc311b6fc000000000000000000000000f0107ab12fc100a8babef70cbd6d80317f3cd7d8000000000000000000000000f0107ab12fc100a8babef70cbd6d80317f3cd7d8000000000000000000000000000000000000000000000000003c6568f12e80000000000000000000000000000000000000000000000000000000000000020f2500000000000000000000000000000000000000000000000000000000000000c000000000000000000000000000000000000000000000000000000000000000e00000000000000000000000000000000000000000000000000000000000000000000000000000000000000000000000000000000000000000000000000003b03900000000000000000000000000000000000000000000000000000000000000400000000000000000000000000000000000000000000000000000000000000240337bda2f08d3a2a9a008c9a4030ac074fbb1e188a3d60a4daa537e052259af93ad3228b676f7d3cd4284a5443f17f1962b36e491b30a40b2405849e597ba5fb5291eeb09d65bf5173ffbd88cf0f497316163fa20a6de486a84a11c04609767d921ddb9a356815c3fac1026b6dec5df3124afbadb485c9ba5a3e3398a04b7ba85e58769b32a1beaf1ea27375a44095a0d1fb664ce2dd358e7fcbfb78c26a1934443612b436a8f19e8a13ba8dce66c284b24f12a5842774087c55483d4b184ce21887c22bd8750d34016ac3c66b5ff102dacdd73f6b014e710b51e8022af9a1968ffd70157e48063fc33c97a050f7f640233bf646cc98d9524c6b92bcf3ab56f83c5315f9ac1b0dbd297d58cc8ee680c51ddb12ea6209ecf2b9d65b8439fa943ab2fa5593f0dab1da967bb1bd560f38aab684b36d1e715c93d3475a9d43bfa5e2db80268fd78cb5ad4d0070ebf08ca6cd456cbdd82d706e1df1cacdc2a968fb35e75f534f2a150fad083cd97102921f4f73d849341c45ea79b93a97870a3cbb8f23490c6ceeb450aecdc82e28293031d10c7d73bf85e57bf041a97360aa2c5d99cc1df82d9c4b87413eae2ef048f94b4d3554cea73d92b0f7af96e0271c691e2bb5c67add7c6caf302256adedf7ab114da0acfe870d449a3a489f781d659e8beccda7bce9f4e8618b6bd2f4132ce798cdc7a60e7e1460a7299e3c6342a579626d22733e50f526ec2fa19a22b31e8ed50f23cd1fdf94c9154ed3a7609a2f1ff981f52e25d1e9ce7d1acb85caba116b8ea68633ca77967016b316f606f74d55061e0\",\"value\":\"0\",\"max_priority_fee_per_gas\":\"100000000\",\"revert_reason\":null,\"confirmation_duration\":[0,12000],\"tx_tag\":null},{\"timestamp\":\"2024-06-12T20:53:59.000000Z\",\"fee\":{\"type\":\"actual\",\"value\":\"1005287579501800\"},\"gas_limit\":\"70768\",\"block\":20078262,\"status\":\"ok\",\"method\":\"setApprovalForAll\",\"confirmations\":1,\"type\":2,\"exchange_rate\":\"3554.69\",\"to\":{\"ens_domain_name\":null,\"hash\":\"0xC3581fc724a6665ED69c99D6901ABd3399BcCabC\",\"implementation_name\":\"ChompiesV2\",\"implementations\":[{\"name\":\"ChompiesV2\"}],\"is_contract\":true,\"is_verified\":true,\"metadata\":null,\"name\":\"TransparentUpgradeableProxy\",\"private_tags\":[],\"public_tags\":[],\"watchlist_names\":[]},\"tx_burnt_fee\":\"999923479501800\",\"max_fee_per_gas\":\"22896554694\",\"result\":\"success\",\"hash\":\"0xac1e40d3e1b0a1e15e169b0b231f3c0dd593189b13dcfc2b37335e3be6d4542c\",\"gas_price\":\"18741029800\",\"priority_fee\":\"5364100000000\",\"base_fee_per_gas\":\"18641029800\",\"from\":{\"ens_domain_name\":\"therealtomnook.eth\",\"hash\":\"0x2a0e4ef6C7693Ad911Ee2d3A289f2707296F633b\",\"implementation_name\":null,\"implementations\":[],\"is_contract\":false,\"is_verified\":null,\"metadata\":null,\"name\":null,\"private_tags\":[],\"public_tags\":[],\"watchlist_names\":[]},\"token_transfers\":null,\"tx_types\":[\"contract_call\"],\"gas_used\":\"53641\",\"created_contract\":null,\"position\":165,\"nonce\":10225,\"has_error_in_internal_txs\":null,\"actions\":[],\"decoded_input\":{\"method_call\":\"setApprovalForAll(address operator, bool approved)\",\"method_id\":\"a22cb465\",\"parameters\":[{\"name\":\"operator\",\"type\":\"address\",\"value\":\"0x1e0049783f008a0085193e00003d00cd54003c71\"},{\"name\":\"approved\",\"type\":\"bool\",\"value\":\"true\"}]},\"token_transfers_overflow\":null,\"raw_input\":\"0xa22cb4650000000000000000000000001e0049783f008a0085193e00003d00cd54003c710000000000000000000000000000000000000000000000000000000000000001\",\"value\":\"0\",\"max_priority_fee_per_gas\":\"100000000\",\"revert_reason\":null,\"confirmation_duration\":[0,12000],\"tx_tag\":null},{\"timestamp\":\"2024-06-12T20:53:59.000000Z\",\"fee\":{\"type\":\"actual\",\"value\":\"2678280568718000\"},\"gas_limit\":\"169044\",\"block\":20078262,\"status\":\"ok\",\"method\":\"increaseLockPosition\",\"confirmations\":1,\"type\":2,\"exchange_rate\":\"3554.69\",\"to\":{\"ens_domain_name\":null,\"hash\":\"0xA5aF3fb46358184d83794219F8425388120e9DE2\",\"implementation_name\":null,\"implementations\":[],\"is_contract\":true,\"is_verified\":true,\"metadata\":null,\"name\":\"VotingEscrowZK\",\"private_tags\":[],\"public_tags\":[],\"watchlist_names\":[]},\"tx_burnt_fee\":\"2663989568718000\",\"max_fee_per_gas\":\"25439260361\",\"result\":\"success\",\"hash\":\"0x8bd0b283f720a5fdabe8fc841fa11eeb620709cc12b8e4ead41620645ffadf47\",\"gas_price\":\"18741029800\",\"priority_fee\":\"14291000000000\",\"base_fee_per_gas\":\"18641029800\",\"from\":{\"ens_domain_name\":null,\"hash\":\"0x2a45802B36404D290f54388084C2d1bF1e465B70\",\"implementation_name\":null,\"implementations\":[],\"is_contract\":false,\"is_verified\":null,\"metadata\":null,\"name\":null,\"private_tags\":[],\"public_tags\":[],\"watchlist_names\":[]},\"token_transfers\":null,\"tx_types\":[\"contract_call\",\"token_transfer\"],\"gas_used\":\"142910\",\"created_contract\":null,\"position\":164,\"nonce\":72,\"has_error_in_internal_txs\":null,\"actions\":[],\"decoded_input\":{\"method_call\":\"increaseLockPosition(uint128 additionalAmountToLock, uint128 newExpiry)\",\"method_id\":\"c8121ec2\",\"parameters\":[{\"name\":\"additionalAmountToLock\",\"type\":\"uint128\",\"value\":\"82910000000000000000\"},{\"name\":\"newExpiry\",\"type\":\"uint128\",\"value\":\"1720656000\"}]},\"token_transfers_overflow\":null,\"raw_input\":\"0xc8121ec20000000000000000000000000000000000000000000000047e9b7db957a3000000000000000000000000000000000000000000000000000000000000668f2080\",\"value\":\"0\",\"max_priority_fee_per_gas\":\"100000000\",\"revert_reason\":null,\"confirmation_duration\":[0,12000],\"tx_tag\":null},{\"timestamp\":\"2024-06-12T20:53:59.000000Z\",\"fee\":{\"type\":\"actual\",\"value\":\"393561625800000\"},\"gas_limit\":\"21000\",\"block\":20078262,\"status\":\"ok\",\"method\":null,\"confirmations\":1,\"type\":2,\"exchange_rate\":\"3554.69\",\"to\":{\"ens_domain_name\":null,\"hash\":\"0xdC940C238732b65201218Da0983D789B7181Af84\",\"implementation_name\":null,\"implementations\":[],\"is_contract\":false,\"is_verified\":false,\"metadata\":null,\"name\":null,\"private_tags\":[],\"public_tags\":[],\"watchlist_names\":[]},\"tx_burnt_fee\":\"391461625800000\",\"max_fee_per_gas\":\"24736455165\",\"result\":\"success\",\"hash\":\"0x42b145e79f3c7d26de942060cfc0f46260f4efeb929016f56bfc8c25f166705c\",\"gas_price\":\"18741029800\",\"priority_fee\":\"2100000000000\",\"base_fee_per_gas\":\"18641029800\",\"from\":{\"ens_domain_name\":\"jksovaurdead.eth\",\"hash\":\"0x90BF21634c87F406E3BDA7CD9D794B88F64a0CF9\",\"implementation_name\":null,\"implementations\":[],\"is_contract\":false,\"is_verified\":null,\"metadata\":null,\"name\":null,\"private_tags\":[],\"public_tags\":[],\"watchlist_names\":[]},\"token_transfers\":null,\"tx_types\":[\"coin_transfer\"],\"gas_used\":\"21000\",\"created_contract\":null,\"position\":163,\"nonce\":1199,\"has_error_in_internal_txs\":null,\"actions\":[],\"decoded_input\":null,\"token_transfers_overflow\":null,\"raw_input\":\"0x\",\"value\":\"165000000000000000\",\"max_priority_fee_per_gas\":\"100000000\",\"revert_reason\":null,\"confirmation_duration\":[0,12000],\"tx_tag\":null},{\"timestamp\":\"2024-06-12T20:53:59.000000Z\",\"fee\":{\"type\":\"actual\",\"value\":\"1026989692010200\"},\"gas_limit\":\"100000\",\"block\":20078262,\"status\":\"ok\",\"method\":\"depositETH\",\"confirmations\":1,\"type\":2,\"exchange_rate\":\"3554.69\",\"to\":{\"ens_domain_name\":null,\"hash\":\"0x5Bcfd99c34cf7E06fc756f6f5aE7400504852bc4\",\"implementation_name\":\"L1BatchBridgeGateway\",\"implementations\":[{\"name\":\"L1BatchBridgeGateway\"}],\"is_contract\":true,\"is_verified\":false,\"metadata\":null,\"name\":null,\"private_tags\":[],\"public_tags\":[],\"watchlist_names\":[]},\"tx_burnt_fee\":\"1021509792010200\",\"max_fee_per_gas\":\"22896554694\",\"result\":\"success\",\"hash\":\"0x802bf858b0ee0670b6299be2d1fdfa1e0c932ce0fb577544d20fe660c19cc2a4\",\"gas_price\":\"18741029800\",\"priority_fee\":\"5479900000000\",\"base_fee_per_gas\":\"18641029800\",\"from\":{\"ens_domain_name\":null,\"hash\":\"0x11cc64baBB1bBF478e86208FC624dC9bC90997A8\",\"implementation_name\":null,\"implementations\":[],\"is_contract\":false,\"is_verified\":null,\"metadata\":null,\"name\":null,\"private_tags\":[],\"public_tags\":[],\"watchlist_names\":[]},\"token_transfers\":null,\"tx_types\":[\"coin_transfer\",\"contract_call\"],\"gas_used\":\"54799\",\"created_contract\":null,\"position\":162,\"nonce\":155,\"has_error_in_internal_txs\":null,\"actions\":[],\"decoded_input\":{\"method_call\":\"depositETH()\",\"method_id\":\"f6326fb3\",\"parameters\":[]},\"token_transfers_overflow\":null,\"raw_input\":\"0xf6326fb3\",\"value\":\"140100000000000000\",\"max_priority_fee_per_gas\":\"100000000\",\"revert_reason\":null,\"confirmation_duration\":[0,12000],\"tx_tag\":null},{\"timestamp\":\"2024-06-12T20:53:59.000000Z\",\"fee\":{\"type\":\"actual\",\"value\":\"2961045226340400\"},\"gas_limit\":\"224190\",\"block\":20078262,\"status\":\"ok\",\"method\":\"execute\",\"confirmations\":1,\"type\":2,\"exchange_rate\":\"3554.69\",\"to\":{\"ens_domain_name\":null,\"hash\":\"0x3fC91A3afd70395Cd496C647d5a6CC9D4B2b7FAD\",\"implementation_name\":null,\"implementations\":[],\"is_contract\":true,\"is_verified\":true,\"metadata\":{\"tags\":[{\"meta\":{},\"name\":\"Uniswap: Universal Router\",\"ordinal\":0,\"slug\":\"uniswap-universal-router\",\"tagType\":\"name\"}]},\"name\":\"UniversalRouter\",\"private_tags\":[],\"public_tags\":[],\"watchlist_names\":[]},\"tx_burnt_fee\":\"2945245426340400\",\"max_fee_per_gas\":\"22896554694\",\"result\":\"success\",\"hash\":\"0x114d74ad2c1c4d5d6cde5e5b65073275e87a897badb282f4559a4c338d60e393\",\"gas_price\":\"18741029800\",\"priority_fee\":\"15799800000000\",\"base_fee_per_gas\":\"18641029800\",\"from\":{\"ens_domain_name\":\"wyattlangford.eth\",\"hash\":\"0x36d93339cE3036C31CF2346b59CA874BCF12De0b\",\"implementation_name\":null,\"implementations\":[],\"is_contract\":false,\"is_verified\":null,\"metadata\":null,\"name\":null,\"private_tags\":[],\"public_tags\":[],\"watchlist_names\":[]},\"token_transfers\":null,\"tx_types\":[\"contract_call\",\"token_transfer\"],\"gas_used\":\"157998\",\"created_contract\":null,\"position\":161,\"nonce\":495,\"has_error_in_internal_txs\":null,\"actions\":[],\"decoded_input\":{\"method_call\":\"execute(bytes commands, bytes[] inputs, uint256 deadline)\",\"method_id\":\"3593564c\",\"parameters\":[{\"name\":\"commands\",\"type\":\"bytes\",\"value\":\"0x08060c\"},{\"name\":\"inputs\",\"type\":\"bytes[]\",\"value\":[\"0x0000000000000000000000000000000000000000000000000000000000000002000000000000000000000000000000000000000000002a5a058fc295ed0000000000000000000000000000000000000000000000000000000ff804d80947a77100000000000000000000000000000000000000000000000000000000000000a0000000000000000000000000000000000000000000000000000000000000000100000000000000000000000000000000000000000000000000000000000000020000000000000000000000007ad16874759348f04b6b6119463d66c07ae54899000000000000000000000000c02aaa39b223fe8d0a0e5c4f27ead9083c756cc2\",\"0x000000000000000000000000c02aaa39b223fe8d0a0e5c4f27ead9083c756cc2000000000000000000000000000000fee13a103a10d593b9ae06b3e05f2e7e1c0000000000000000000000000000000000000000000000000000000000000019\",\"0x00000000000000000000000000000000000000000000000000000000000000010000000000000000000000000000000000000000000000000fedcc830422feb4\"]},{\"name\":\"deadline\",\"type\":\"uint256\",\"value\":\"1718226203\"}]},\"token_transfers_overflow\":null,\"raw_input\":\"0x3593564c000000000000000000000000000000000000000000000000000000000000006000000000000000000000000000000000000000000000000000000000000000a000000000000000000000000000000000000000000000000000000000666a0d1b000000000000000000000000000000000000000000000000000000000000000308060c0000000000000000000000000000000000000000000000000000000000000000000000000000000000000000000000000000000000000000000000000300000000000000000000000000000000000000000000000000000000000000600000000000000000000000000000000000000000000000000000000000000180000000000000000000000000000000000000000000000000000000000000020000000000000000000000000000000000000000000000000000000000000001000000000000000000000000000000000000000000000000000000000000000002000000000000000000000000000000000000000000002a5a058fc295ed0000000000000000000000000000000000000000000000000000000ff804d80947a77100000000000000000000000000000000000000000000000000000000000000a0000000000000000000000000000000000000000000000000000000000000000100000000000000000000000000000000000000000000000000000000000000020000000000000000000000007ad16874759348f04b6b6119463d66c07ae54899000000000000000000000000c02aaa39b223fe8d0a0e5c4f27ead9083c756cc20000000000000000000000000000000000000000000000000000000000000060000000000000000000000000c02aaa39b223fe8d0a0e5c4f27ead9083c756cc2000000000000000000000000000000fee13a103a10d593b9ae06b3e05f2e7e1c0000000000000000000000000000000000000000000000000000000000000019000000000000000000000000000000000000000000000000000000000000004000000000000000000000000000000000000000000000000000000000000000010000000000000000000000000000000000000000000000000fedcc830422feb4\",\"value\":\"0\",\"max_priority_fee_per_gas\":\"100000000\",\"revert_reason\":null,\"confirmation_duration\":[0,12000],\"tx_tag\":null},{\"timestamp\":\"2024-06-12T20:53:59.000000Z\",\"fee\":{\"type\":\"actual\",\"value\":\"2011249836076400\"},\"gas_limit\":\"162490\",\"block\":20078262,\"status\":\"ok\",\"method\":\"0x66928f49\",\"confirmations\":1,\"type\":2,\"exchange_rate\":\"3554.69\",\"to\":{\"ens_domain_name\":null,\"hash\":\"0x7ca50Eb6f717843a134aACcA58eBF09fa34707ca\",\"implementation_name\":null,\"implementations\":[],\"is_contract\":true,\"is_verified\":false,\"metadata\":null,\"name\":null,\"private_tags\":[],\"public_tags\":[],\"watchlist_names\":[]},\"tx_burnt_fee\":\"2000518036076400\",\"max_fee_per_gas\":\"22896554694\",\"result\":\"success\",\"hash\":\"0x401f37e2e618469f1eddc0a1f142c4af1d932553bf5de366bcad02e7dc7c43ed\",\"gas_price\":\"18741029800\",\"priority_fee\":\"10731800000000\",\"base_fee_per_gas\":\"18641029800\",\"from\":{\"ens_domain_name\":null,\"hash\":\"0xD0A51964D41d4d195992269DDB65d7b4d60F110a\",\"implementation_name\":null,\"implementations\":[],\"is_contract\":false,\"is_verified\":null,\"metadata\":null,\"name\":null,\"private_tags\":[],\"public_tags\":[],\"watchlist_names\":[]},\"token_transfers\":null,\"tx_types\":[\"contract_call\",\"token_transfer\"],\"gas_used\":\"107318\",\"created_contract\":null,\"position\":160,\"nonce\":64,\"has_error_in_internal_txs\":null,\"actions\":[],\"decoded_input\":null,\"token_transfers_overflow\":null,\"raw_input\":\"0x66928f49000000000000000000000000000000000000000000000000000000000000006000000000000000000000000000000000000000000000000000000000000002a00000000000000000000000000000000000000000000000356ea43ccd6fc480000000000000000000000000000000000000000000000000000000000000000011f2806fc9d2441af22a798cbbb0b117e01a2133a4e5576939061bac5b5523a319d8862c622f20de130f55cc2a5839ec45540d87216d0ef0a11be682eb66783c4b5b78da81c53e4d13e9382f70f900350e99eb3563ef0e95caff34eca955c8129c7520411b675d8347c38846e5766a3bffbccb7491f07b836b3881be7c037a48dc1d72c1c423e691cb508e3789924058cb313ca6da31f1e4fb5bd26d1ab7c9f60b935c80453fa0782de08dfb54f05a39d5b391bd1997f2cb657cc03690e7ff1b100b80e9ca5e22ab6f1f09296818ef094d5a9bc4e455c0cee3821b536220f69e9d03b03a70a9ec9eee2f0c07b9f3f5c3ef09f25e292c50eaddc7a900c63746071c8dbec810ba16345500cd883b6df904881a10bafd5e68b2ee68ffae8115ad57ebba2893237dc4c13c08c2698f3cf2272f140e873c810215f2f9fefa519b9ff877faec185aa3ced558dee2fadb7efc6673e413cd5ad5686ad17dddea6a87cab4194d10e3a86f819f42d11e939fecb2a2c738b263e26b34813b83686befbbf6b0a84f77148d187c955a9c768357551df28dd7332d0ae6a64abd646ee3deff16f43ca0534e613b452f585139265ffd8b9bd509f1b891d535c0eb900e023036238bfc229f1da73c68ee9fddddafab17e0d9ab06dcb087241fdb3af3de110e285521f14eca25d68e9019793efe73d09755e80b8726e4e28a01f11ed378392e475924416475923c27b3630a9b1f4d1601a5bfa64c71b3f39188d6dfc85f7aae60adff850000000000000000000000000000000000000000000000000000000000000041e3facbb6029eeea7a88643289871d97abb83ada889fcd304b00a477779064d0b7ca84763b472d1664293d68c3995214eb23092f5c2cb2f01f08d8996a0a78fc61c00000000000000000000000000000000000000000000000000000000000000\",\"value\":\"0\",\"max_priority_fee_per_gas\":\"100000000\",\"revert_reason\":null,\"confirmation_duration\":[0,12000],\"tx_tag\":null},{\"timestamp\":\"2024-06-12T20:53:59.000000Z\",\"fee\":{\"type\":\"actual\",\"value\":\"1350984615192600\"},\"gas_limit\":\"115962\",\"block\":20078262,\"status\":\"ok\",\"method\":\"transfer\",\"confirmations\":1,\"type\":2,\"exchange_rate\":\"3554.69\",\"to\":{\"ens_domain_name\":null,\"hash\":\"0xbe042e9d09CB588331Ff911c2B46FD833A3E5bd6\",\"implementation_name\":null,\"implementations\":[],\"is_contract\":true,\"is_verified\":true,\"metadata\":null,\"name\":\"Pepe\",\"private_tags\":[],\"public_tags\":[],\"watchlist_names\":[]},\"tx_burnt_fee\":\"1343775915192600\",\"max_fee_per_gas\":\"22896554694\",\"result\":\"success\",\"hash\":\"0x0a5add0eb8f5b1dc5e0037a8df121d8b008b750a2d4ad70c8773099711044a58\",\"gas_price\":\"18741029800\",\"priority_fee\":\"7208700000000\",\"base_fee_per_gas\":\"18641029800\",\"from\":{\"ens_domain_name\":null,\"hash\":\"0x459Bb09BB921d02c6Cbabfb8d8eAfecC8f039685\",\"implementation_name\":null,\"implementations\":[],\"is_contract\":false,\"is_verified\":null,\"metadata\":null,\"name\":null,\"private_tags\":[],\"public_tags\":[],\"watchlist_names\":[]},\"token_transfers\":null,\"tx_types\":[\"contract_call\",\"token_transfer\"],\"gas_used\":\"72087\",\"created_contract\":null,\"position\":159,\"nonce\":4939,\"has_error_in_internal_txs\":null,\"actions\":[],\"decoded_input\":{\"method_call\":\"transfer(address recipient, uint256 amount)\",\"method_id\":\"a9059cbb\",\"parameters\":[{\"name\":\"recipient\",\"type\":\"address\",\"value\":\"0xaa777e9e1f298080398424c8e8128426ac349ab2\"},{\"name\":\"amount\",\"type\":\"uint256\",\"value\":\"5000000000000000000000000\"}]},\"token_transfers_overflow\":null,\"raw_input\":\"0xa9059cbb000000000000000000000000aa777e9e1f298080398424c8e8128426ac349ab20000000000000000000000000000000000000000000422ca8b0a00a425000000\",\"value\":\"0\",\"max_priority_fee_per_gas\":\"100000000\",\"revert_reason\":null,\"confirmation_duration\":[0,12000],\"tx_tag\":null},{\"timestamp\":\"2024-06-12T20:53:59.000000Z\",\"fee\":{\"type\":\"actual\",\"value\":\"874493932527600\"},\"gas_limit\":\"77448\",\"block\":20078262,\"status\":\"ok\",\"method\":\"transfer\",\"confirmations\":1,\"type\":2,\"exchange_rate\":\"3554.69\",\"to\":{\"ens_domain_name\":null,\"hash\":\"0xb131f4A55907B10d1F0A50d8ab8FA09EC342cd74\",\"implementation_name\":null,\"implementations\":[],\"is_contract\":true,\"is_verified\":true,\"metadata\":{\"tags\":[{\"meta\":{},\"name\":\"TOKEN CONTRACT\",\"ordinal\":0,\"slug\":\"token-contract\",\"tagType\":\"note\"},{\"meta\":{},\"name\":\"Memecoin: MEME Token\",\"ordinal\":0,\"slug\":\"memecoin-meme-token\",\"tagType\":\"name\"}]},\"name\":\"Memecoin\",\"private_tags\":[],\"public_tags\":[],\"watchlist_names\":[]},\"tx_burnt_fee\":\"869827732527600\",\"max_fee_per_gas\":\"22896554694\",\"result\":\"success\",\"hash\":\"0x1b7e37fcf7cf1c39e829cea4f754c2f6dede843464c844b3f877b903c5fe421e\",\"gas_price\":\"18741029800\",\"priority_fee\":\"4666200000000\",\"base_fee_per_gas\":\"18641029800\",\"from\":{\"ens_domain_name\":null,\"hash\":\"0x1E5D9A3648d47Da82c33baA2dFbf622ED78772EF\",\"implementation_name\":null,\"implementations\":[],\"is_contract\":false,\"is_verified\":null,\"metadata\":null,\"name\":null,\"private_tags\":[],\"public_tags\":[],\"watchlist_names\":[]},\"token_transfers\":null,\"tx_types\":[\"contract_call\",\"token_transfer\"],\"gas_used\":\"46662\",\"created_contract\":null,\"position\":158,\"nonce\":75,\"has_error_in_internal_txs\":null,\"actions\":[],\"decoded_input\":{\"method_call\":\"transfer(address to, uint256 amount)\",\"method_id\":\"a9059cbb\",\"parameters\":[{\"name\":\"to\",\"type\":\"address\",\"value\":\"0x3032a0c125b0889b2f798cdca55c4411a7a99ec7\"},{\"name\":\"amount\",\"type\":\"uint256\",\"value\":\"2663381634864373542924\"}]},\"token_transfers_overflow\":null,\"raw_input\":\"0xa9059cbb0000000000000000000000003032a0c125b0889b2f798cdca55c4411a7a99ec700000000000000000000000000000000000000000000009061d85db55e1fb00c\",\"value\":\"0\",\"max_priority_fee_per_gas\":\"100000000\",\"revert_reason\":null,\"confirmation_duration\":[0,12000],\"tx_tag\":null},{\"timestamp\":\"2024-06-12T20:53:59.000000Z\",\"fee\":{\"type\":\"actual\",\"value\":\"556327469613000\"},\"gas_limit\":\"51729\",\"block\":20078262,\"status\":\"ok\",\"method\":\"transfer\",\"confirmations\":1,\"type\":2,\"exchange_rate\":\"3554.69\",\"to\":{\"ens_domain_name\":null,\"hash\":\"0xbe0Ed4138121EcFC5c0E56B40517da27E6c5226B\",\"implementation_name\":null,\"implementations\":[],\"is_contract\":true,\"is_verified\":true,\"metadata\":null,\"name\":\"AethirToken\",\"private_tags\":[],\"public_tags\":[],\"watchlist_names\":[]},\"tx_burnt_fee\":\"553358969613000\",\"max_fee_per_gas\":\"22896554694\",\"result\":\"success\",\"hash\":\"0x6f70be97b261ba984a0158d12ab3d4b49957d8323d6e059a61e20d29e90608d9\",\"gas_price\":\"18741029800\",\"priority_fee\":\"2968500000000\",\"base_fee_per_gas\":\"18641029800\",\"from\":{\"ens_domain_name\":null,\"hash\":\"0x55C929976dAd192a0EbF8b284aE9Ff7D2D1E63A5\",\"implementation_name\":null,\"implementations\":[],\"is_contract\":false,\"is_verified\":null,\"metadata\":null,\"name\":null,\"private_tags\":[],\"public_tags\":[],\"watchlist_names\":[]},\"token_transfers\":null,\"tx_types\":[\"contract_call\",\"token_transfer\"],\"gas_used\":\"29685\",\"created_contract\":null,\"position\":157,\"nonce\":1,\"has_error_in_internal_txs\":null,\"actions\":[],\"decoded_input\":{\"method_call\":\"transfer(address to, uint256 amount)\",\"method_id\":\"a9059cbb\",\"parameters\":[{\"name\":\"to\",\"type\":\"address\",\"value\":\"0x7a681d5039017c7a60a6d959b9da7201068873cf\"},{\"name\":\"amount\",\"type\":\"uint256\",\"value\":\"6275040360000000032768\"}]},\"token_transfers_overflow\":null,\"raw_input\":\"0xa9059cbb0000000000000000000000007a681d5039017c7a60a6d959b9da7201068873cf0000000000000000000000000000000000000000000001542badb8d4cf4f0000\",\"value\":\"0\",\"max_priority_fee_per_gas\":\"100000000\",\"revert_reason\":null,\"confirmation_duration\":[0,12000],\"tx_tag\":null},{\"timestamp\":\"2024-06-12T20:53:59.000000Z\",\"fee\":{\"type\":\"actual\",\"value\":\"879685197782200\"},\"gas_limit\":\"70984\",\"block\":20078262,\"status\":\"ok\",\"method\":\"approve\",\"confirmations\":1,\"type\":2,\"exchange_rate\":\"3554.69\",\"to\":{\"ens_domain_name\":null,\"hash\":\"0x32B053F2CBA79F80ada5078cb6b305da92BDe6e1\",\"implementation_name\":null,\"implementations\":[],\"is_contract\":true,\"is_verified\":true,\"metadata\":null,\"name\":\"NeuralAI\",\"private_tags\":[],\"public_tags\":[],\"watchlist_names\":[]},\"tx_burnt_fee\":\"874991297782200\",\"max_fee_per_gas\":\"22896554694\",\"result\":\"success\",\"hash\":\"0xe7c8056b9ab34da87ad02f82c67f4421cfd931f3c183eb7210323d031a1562cd\",\"gas_price\":\"18741029800\",\"priority_fee\":\"4693900000000\",\"base_fee_per_gas\":\"18641029800\",\"from\":{\"ens_domain_name\":null,\"hash\":\"0x0ec5bA86fd2D5159FeF02Baa5502c1b8b0f4A816\",\"implementation_name\":null,\"implementations\":[],\"is_contract\":false,\"is_verified\":null,\"metadata\":null,\"name\":null,\"private_tags\":[],\"public_tags\":[],\"watchlist_names\":[]},\"token_transfers\":null,\"tx_types\":[\"contract_call\"],\"gas_used\":\"46939\",\"created_contract\":null,\"position\":156,\"nonce\":41,\"has_error_in_internal_txs\":null,\"actions\":[],\"decoded_input\":{\"method_call\":\"approve(address spender, uint256 amount)\",\"method_id\":\"095ea7b3\",\"parameters\":[{\"name\":\"spender\",\"type\":\"address\",\"value\":\"0xbe2cf8da9887e2ab997ed53cc49263ebd09b20c3\"},{\"name\":\"amount\",\"type\":\"uint256\",\"value\":\"1000000000000000000000000\"}]},\"token_transfers_overflow\":null,\"raw_input\":\"0x095ea7b3000000000000000000000000be2cf8da9887e2ab997ed53cc49263ebd09b20c300000000000000000000000000000000000000000000d3c21bcecceda1000000\",\"value\":\"0\",\"max_priority_fee_per_gas\":\"100000000\",\"revert_reason\":null,\"confirmation_duration\":[0,12000],\"tx_tag\":null},{\"timestamp\":\"2024-06-12T20:53:59.000000Z\",\"fee\":{\"type\":\"actual\",\"value\":\"3191915972446600\"},\"gas_limit\":\"270612\",\"block\":20078262,\"status\":\"ok\",\"method\":\"execute\",\"confirmations\":1,\"type\":2,\"exchange_rate\":\"3554.69\",\"to\":{\"ens_domain_name\":null,\"hash\":\"0x3fC91A3afd70395Cd496C647d5a6CC9D4B2b7FAD\",\"implementation_name\":null,\"implementations\":[],\"is_contract\":true,\"is_verified\":true,\"metadata\":{\"tags\":[{\"meta\":{},\"name\":\"Uniswap: Universal Router\",\"ordinal\":0,\"slug\":\"uniswap-universal-router\",\"tagType\":\"name\"}]},\"name\":\"UniversalRouter\",\"private_tags\":[],\"public_tags\":[],\"watchlist_names\":[]},\"tx_burnt_fee\":\"3174884272446600\",\"max_fee_per_gas\":\"24736455165\",\"result\":\"success\",\"hash\":\"0xaa6311627ac590209960cf929150a7c9eeb2308b65291d579bb804dc91fc588a\",\"gas_price\":\"18741029800\",\"priority_fee\":\"17031700000000\",\"base_fee_per_gas\":\"18641029800\",\"from\":{\"ens_domain_name\":null,\"hash\":\"0x65Fa41614B226031bAb5E7B4A3E917b042F5C922\",\"implementation_name\":null,\"implementations\":[],\"is_contract\":false,\"is_verified\":null,\"metadata\":null,\"name\":null,\"private_tags\":[],\"public_tags\":[],\"watchlist_names\":[]},\"token_transfers\":null,\"tx_types\":[\"coin_transfer\",\"contract_call\",\"token_transfer\"],\"gas_used\":\"170317\",\"created_contract\":null,\"position\":155,\"nonce\":341,\"has_error_in_internal_txs\":null,\"actions\":[],\"decoded_input\":{\"method_call\":\"execute(bytes commands, bytes[] inputs, uint256 deadline)\",\"method_id\":\"3593564c\",\"parameters\":[{\"name\":\"commands\",\"type\":\"bytes\",\"value\":\"0x0b080604\"},{\"name\":\"inputs\",\"type\":\"bytes[]\",\"value\":[\"0x00000000000000000000000000000000000000000000000000000000000000020000000000000000000000000000000000000000000000000737693eb3340000\",\"0x00000000000000000000000000000000000000000000000000000000000000020000000000000000000000000000000000000000000000000737693eb3340000000000000000000000000000000000000000000000000000000617f324813fac00000000000000000000000000000000000000000000000000000000000000a000000000000000000000000000000000000000000000000000000000000000000000000000000000000000000000000000000000000000000000000000000002000000000000000000000000c02aaa39b223fe8d0a0e5c4f27ead9083c756cc2000000000000000000000000be89151bca537acf81dc1aaa9dc6d23f4bda8555\",\"0x000000000000000000000000be89151bca537acf81dc1aaa9dc6d23f4bda8555000000000000000000000000000000fee13a103a10d593b9ae06b3e05f2e7e1c0000000000000000000000000000000000000000000000000000000000000019\",\"0x000000000000000000000000be89151bca537acf81dc1aaa9dc6d23f4bda855500000000000000000000000000000000000000000000000000000000000000010000000000000000000000000000000000000000000000000006140cc65567d5\"]},{\"name\":\"deadline\",\"type\":\"uint256\",\"value\":\"1718226203\"}]},\"token_transfers_overflow\":null,\"raw_input\":\"0x3593564c000000000000000000000000000000000000000000000000000000000000006000000000000000000000000000000000000000000000000000000000000000a000000000000000000000000000000000000000000000000000000000666a0d1b00000000000000000000000000000000000000000000000000000000000000040b080604000000000000000000000000000000000000000000000000000000000000000000000000000000000000000000000000000000000000000000000004000000000000000000000000000000000000000000000000000000000000008000000000000000000000000000000000000000000000000000000000000000e000000000000000000000000000000000000000000000000000000000000002000000000000000000000000000000000000000000000000000000000000000280000000000000000000000000000000000000000000000000000000000000004000000000000000000000000000000000000000000000000000000000000000020000000000000000000000000000000000000000000000000737693eb3340000000000000000000000000000000000000000000000000000000000000000010000000000000000000000000000000000000000000000000000000000000000020000000000000000000000000000000000000000000000000737693eb3340000000000000000000000000000000000000000000000000000000617f324813fac00000000000000000000000000000000000000000000000000000000000000a000000000000000000000000000000000000000000000000000000000000000000000000000000000000000000000000000000000000000000000000000000002000000000000000000000000c02aaa39b223fe8d0a0e5c4f27ead9083c756cc2000000000000000000000000be89151bca537acf81dc1aaa9dc6d23f4bda85550000000000000000000000000000000000000000000000000000000000000060000000000000000000000000be89151bca537acf81dc1aaa9dc6d23f4bda8555000000000000000000000000000000fee13a103a10d593b9ae06b3e05f2e7e1c00000000000000000000000000000000000000000000000000000000000000190000000000000000000000000000000000000000000000000000000000000060000000000000000000000000be89151bca537acf81dc1aaa9dc6d23f4bda855500000000000000000000000000000000000000000000000000000000000000010000000000000000000000000000000000000000000000000006140cc65567d5\",\"value\":\"520000000000000000\",\"max_priority_fee_per_gas\":\"100000000\",\"revert_reason\":null,\"confirmation_duration\":[0,12000],\"tx_tag\":null},{\"timestamp\":\"2024-06-12T20:53:59.000000Z\",\"fee\":{\"type\":\"actual\",\"value\":\"876574186835400\"},\"gas_limit\":\"77616\",\"block\":20078262,\"status\":\"ok\",\"method\":\"transfer\",\"confirmations\":1,\"type\":2,\"exchange_rate\":\"3554.69\",\"to\":{\"ens_domain_name\":null,\"hash\":\"0xbe0Ed4138121EcFC5c0E56B40517da27E6c5226B\",\"implementation_name\":null,\"implementations\":[],\"is_contract\":true,\"is_verified\":true,\"metadata\":null,\"name\":\"AethirToken\",\"private_tags\":[],\"public_tags\":[],\"watchlist_names\":[]},\"tx_burnt_fee\":\"871896886835400\",\"max_fee_per_gas\":\"24736455165\",\"result\":\"success\",\"hash\":\"0x11e8555bd1e1ab611845d490d610936e40a9b8b0f5f21d43d5bd43068c05d936\",\"gas_price\":\"18741029800\",\"priority_fee\":\"4677300000000\",\"base_fee_per_gas\":\"18641029800\",\"from\":{\"ens_domain_name\":\"volodimirsinenko5.eth\",\"hash\":\"0x6a02f4144296Cd9B352394715bf07E8072c86753\",\"implementation_name\":null,\"implementations\":[],\"is_contract\":false,\"is_verified\":null,\"metadata\":null,\"name\":null,\"private_tags\":[],\"public_tags\":[],\"watchlist_names\":[]},\"token_transfers\":null,\"tx_types\":[\"contract_call\",\"token_transfer\"],\"gas_used\":\"46773\",\"created_contract\":null,\"position\":154,\"nonce\":11,\"has_error_in_internal_txs\":null,\"actions\":[],\"decoded_input\":{\"method_call\":\"transfer(address to, uint256 amount)\",\"method_id\":\"a9059cbb\",\"parameters\":[{\"name\":\"to\",\"type\":\"address\",\"value\":\"0x74091e92a1e67bb1ef1ce87a6da79bbfcd3b0d52\"},{\"name\":\"amount\",\"type\":\"uint256\",\"value\":\"700000000000000000000\"}]},\"token_transfers_overflow\":null,\"raw_input\":\"0xa9059cbb00000000000000000000000074091e92a1e67bb1ef1ce87a6da79bbfcd3b0d52000000000000000000000000000000000000000000000025f273933db5700000\",\"value\":\"0\",\"max_priority_fee_per_gas\":\"100000000\",\"revert_reason\":null,\"confirmation_duration\":[0,12000],\"tx_tag\":null},{\"timestamp\":\"2024-06-12T20:53:59.000000Z\",\"fee\":{\"type\":\"actual\",\"value\":\"1046255470644600\"},\"gas_limit\":\"84946\",\"block\":20078262,\"status\":\"ok\",\"method\":\"transfer\",\"confirmations\":1,\"type\":2,\"exchange_rate\":\"3554.69\",\"to\":{\"ens_domain_name\":null,\"hash\":\"0x32c4EbBD7D34462D4112E2CDE4116Eb2BF850aCb\",\"implementation_name\":null,\"implementations\":[],\"is_contract\":true,\"is_verified\":false,\"metadata\":null,\"name\":null,\"private_tags\":[],\"public_tags\":[],\"watchlist_names\":[]},\"tx_burnt_fee\":\"1040672770644600\",\"max_fee_per_gas\":\"22896554694\",\"result\":\"success\",\"hash\":\"0x773e5f6749bec10b282b9d49f4c55269bd16610c6a6459b747c2c7fff7f837ac\",\"gas_price\":\"18741029800\",\"priority_fee\":\"5582700000000\",\"base_fee_per_gas\":\"18641029800\",\"from\":{\"ens_domain_name\":null,\"hash\":\"0xB3e64fb913bDf9892F4451a37DF08c26d238b966\",\"implementation_name\":null,\"implementations\":[],\"is_contract\":false,\"is_verified\":null,\"metadata\":null,\"name\":null,\"private_tags\":[],\"public_tags\":[],\"watchlist_names\":[]},\"token_transfers\":null,\"tx_types\":[\"contract_call\",\"token_transfer\"],\"gas_used\":\"55827\",\"created_contract\":null,\"position\":153,\"nonce\":1,\"has_error_in_internal_txs\":null,\"actions\":[],\"decoded_input\":{\"method_call\":\"transfer(address receiver, uint256 amount)\",\"method_id\":\"a9059cbb\",\"parameters\":[{\"name\":\"receiver\",\"type\":\"address\",\"value\":\"0x32c4ebbd7d34462d4112e2cde4116eb2bf850acb\"},{\"name\":\"amount\",\"type\":\"uint256\",\"value\":\"42069000000000000000\"}]},\"token_transfers_overflow\":null,\"raw_input\":\"0xa9059cbb00000000000000000000000032c4ebbd7d34462d4112e2cde4116eb2bf850acb00000000000000000000000000000000000000000000000247d31c9bdfe88000\",\"value\":\"0\",\"max_priority_fee_per_gas\":\"100000000\",\"revert_reason\":null,\"confirmation_duration\":[0,12000],\"tx_tag\":null},{\"timestamp\":\"2024-06-12T20:53:59.000000Z\",\"fee\":{\"type\":\"actual\",\"value\":\"3184850604212000\"},\"gas_limit\":\"245616\",\"block\":20078262,\"status\":\"ok\",\"method\":\"execute\",\"confirmations\":1,\"type\":2,\"exchange_rate\":\"3554.69\",\"to\":{\"ens_domain_name\":null,\"hash\":\"0x3fC91A3afd70395Cd496C647d5a6CC9D4B2b7FAD\",\"implementation_name\":null,\"implementations\":[],\"is_contract\":true,\"is_verified\":true,\"metadata\":{\"tags\":[{\"meta\":{},\"name\":\"Uniswap: Universal Router\",\"ordinal\":0,\"slug\":\"uniswap-universal-router\",\"tagType\":\"name\"}]},\"name\":\"UniversalRouter\",\"private_tags\":[],\"public_tags\":[],\"watchlist_names\":[]},\"tx_burnt_fee\":\"3167856604212000\",\"max_fee_per_gas\":\"24736455165\",\"result\":\"success\",\"hash\":\"0x491844bc34d9136691fb0542a25440329482c69ca8428b99844da1fabe4e0510\",\"gas_price\":\"18741029800\",\"priority_fee\":\"16994000000000\",\"base_fee_per_gas\":\"18641029800\",\"from\":{\"ens_domain_name\":null,\"hash\":\"0xADB0523B66B063D1039A8547548bEC46E50CE36F\",\"implementation_name\":null,\"implementations\":[],\"is_contract\":false,\"is_verified\":null,\"metadata\":null,\"name\":null,\"private_tags\":[],\"public_tags\":[],\"watchlist_names\":[]},\"token_transfers\":null,\"tx_types\":[\"coin_transfer\",\"contract_call\",\"token_transfer\"],\"gas_used\":\"169940\",\"created_contract\":null,\"position\":152,\"nonce\":1155,\"has_error_in_internal_txs\":null,\"actions\":[],\"decoded_input\":{\"method_call\":\"execute(bytes commands, bytes[] inputs, uint256 deadline)\",\"method_id\":\"3593564c\",\"parameters\":[{\"name\":\"commands\",\"type\":\"bytes\",\"value\":\"0x0b080604\"},{\"name\":\"inputs\",\"type\":\"bytes[]\",\"value\":[\"0x000000000000000000000000000000000000000000000000000000000000000200000000000000000000000000000000000000000000000000470de4df820000\",\"0x000000000000000000000000000000000000000000000000000000000000000200000000000000000000000000000000000000000000000000470de4df8200000000000000000000000000000000000000000000000067daef7ca5160ac4ba2100000000000000000000000000000000000000000000000000000000000000a000000000000000000000000000000000000000000000000000000000000000000000000000000000000000000000000000000000000000000000000000000002000000000000000000000000c02aaa39b223fe8d0a0e5c4f27ead9083c756cc20000000000000000000000001e8da3cc9ff6d102dabb22992390f42a07d8ed80\",\"0x0000000000000000000000001e8da3cc9ff6d102dabb22992390f42a07d8ed80000000000000000000000000000000fee13a103a10d593b9ae06b3e05f2e7e1c0000000000000000000000000000000000000000000000000000000000000019\",\"0x0000000000000000000000001e8da3cc9ff6d102dabb22992390f42a07d8ed80000000000000000000000000000000000000000000000000000000000000000100000000000000000000000000000000000000000000679877d9221d06e6cb94\"]},{\"name\":\"deadline\",\"type\":\"uint256\",\"value\":\"1718226215\"}]},\"token_transfers_overflow\":null,\"raw_input\":\"0x3593564c000000000000000000000000000000000000000000000000000000000000006000000000000000000000000000000000000000000000000000000000000000a000000000000000000000000000000000000000000000000000000000666a0d2700000000000000000000000000000000000000000000000000000000000000040b080604000000000000000000000000000000000000000000000000000000000000000000000000000000000000000000000000000000000000000000000004000000000000000000000000000000000000000000000000000000000000008000000000000000000000000000000000000000000000000000000000000000e0000000000000000000000000000000000000000000000000000000000000020000000000000000000000000000000000000000000000000000000000000002800000000000000000000000000000000000000000000000000000000000000040000000000000000000000000000000000000000000000000000000000000000200000000000000000000000000000000000000000000000000470de4df8200000000000000000000000000000000000000000000000000000000000000000100000000000000000000000000000000000000000000000000000000000000000200000000000000000000000000000000000000000000000000470de4df8200000000000000000000000000000000000000000000000067daef7ca5160ac4ba2100000000000000000000000000000000000000000000000000000000000000a000000000000000000000000000000000000000000000000000000000000000000000000000000000000000000000000000000000000000000000000000000002000000000000000000000000c02aaa39b223fe8d0a0e5c4f27ead9083c756cc20000000000000000000000001e8da3cc9ff6d102dabb22992390f42a07d8ed8000000000000000000000000000000000000000000000000000000000000000600000000000000000000000001e8da3cc9ff6d102dabb22992390f42a07d8ed80000000000000000000000000000000fee13a103a10d593b9ae06b3e05f2e7e1c000000000000000000000000000000000000000000000000000000000000001900000000000000000000000000000000000000000000000000000000000000600000000000000000000000001e8da3cc9ff6d102dabb22992390f42a07d8ed80000000000000000000000000000000000000000000000000000000000000000100000000000000000000000000000000000000000000679877d9221d06e6cb94\",\"value\":\"20000000000000000\",\"max_priority_fee_per_gas\":\"100000000\",\"revert_reason\":null,\"confirmation_duration\":[0,12000],\"tx_tag\":null},{\"timestamp\":\"2024-06-12T20:53:59.000000Z\",\"fee\":{\"type\":\"actual\",\"value\":\"2023244095148400\"},\"gas_limit\":\"163453\",\"block\":20078262,\"status\":\"ok\",\"method\":\"0x66928f49\",\"confirmations\":1,\"type\":2,\"exchange_rate\":\"3554.69\",\"to\":{\"ens_domain_name\":null,\"hash\":\"0x7ca50Eb6f717843a134aACcA58eBF09fa34707ca\",\"implementation_name\":null,\"implementations\":[],\"is_contract\":true,\"is_verified\":false,\"metadata\":null,\"name\":null,\"private_tags\":[],\"public_tags\":[],\"watchlist_names\":[]},\"tx_burnt_fee\":\"2012448295148400\",\"max_fee_per_gas\":\"22896554694\",\"result\":\"success\",\"hash\":\"0xd5d600c32d2dc49007cfc4c1892a6fd7588faf4b2c82adc33d3bd9cd499b2af3\",\"gas_price\":\"18741029800\",\"priority_fee\":\"10795800000000\",\"base_fee_per_gas\":\"18641029800\",\"from\":{\"ens_domain_name\":null,\"hash\":\"0x0591D3bCb152513FDd0E7730De402BdD71048A7A\",\"implementation_name\":null,\"implementations\":[],\"is_contract\":false,\"is_verified\":null,\"metadata\":null,\"name\":null,\"private_tags\":[],\"public_tags\":[],\"watchlist_names\":[]},\"token_transfers\":null,\"tx_types\":[\"contract_call\",\"token_transfer\"],\"gas_used\":\"107958\",\"created_contract\":null,\"position\":151,\"nonce\":50,\"has_error_in_internal_txs\":null,\"actions\":[],\"decoded_input\":null,\"token_transfers_overflow\":null,\"raw_input\":\"0x66928f49000000000000000000000000000000000000000000000000000000000000006000000000000000000000000000000000000000000000000000000000000002c0000000000000000000000000000000000000000000000025f273933db570000000000000000000000000000000000000000000000000000000000000000000125d3d947f83729e80b68e14687f43e202174e0f8440967d6ee6c72fb3eb0d97d6ff4aa7cef2fc385974b7371f6c6316a594a0a0c5fa2503b7210ef498fb2b0f366bced2e3e6f4bf39f8a0939cc95ae738a6cfa376ccd74d3b8825ff42351695fd24191612a2b222585f7470e0c7c6c194a7ec71ca124fb904d3922a3e65f0aef46e76a9fbb625d9d969d2b002f394d8b7aa389f1b655188e9c429e62a6a5f4a0cff7f7c7370aea75a2373129fd8aa5e3baac4a3984f8d4d5c1ae46f670257c5a14925bf217acdce542159e40095b4c6c27f39bcaf4a660334381a829b28615ee0d8f415af13fdd5b592bc356d8776988976068703009a97b0ac385658a9d8899ce5400c72d8711721299aaadb7378ef118f8a617c42a46cc82d8f2fa751531e9c2e3b77339a3e70c81bd4daf3ea39dc26808060096e0acfd34fa707b4facbee6d6d7feb3b004c807e0cf9dfb99fc8b4f0750a257baec492728dd70ecc7fbf06803527b9eb1bf8cd3d56d5f4778af0c4a2ad6da1e9d4db32c9d77c371d220461449c770f5a94cddf2564c8929ebdb78850cb9f509cffb208a32d6b7c4270565be4974b38272738dc6d1709016beed5db963925de1989d2cbe55ceb7bacfb0e67caf8b6f0cf31e1f8da3a110c3bc9d912dad43b9b3f1379aef523ce5e9fb0b01bbb75e8f5de5a0213ba195b55200890728d7c7b224ef9599018df166a9a8f1aa9ce1fa4b66ed7d04c3f97a4d26c82ceec0977f4f6bd42681a5cd192c3eaf80eb3c3f038f43a5d329b9029985d5a031605181d85c4759a581312c82aa15ce8376f8c00000000000000000000000000000000000000000000000000000000000000418104996e47f62fc27a7ed65328d7a0dc558592d124b81a7e173df07b931b273616299d247aa884cbb8678b6b11df1c0374632866d19af52f20dfc5ad867ef99f1b00000000000000000000000000000000000000000000000000000000000000\",\"value\":\"0\",\"max_priority_fee_per_gas\":\"100000000\",\"revert_reason\":null,\"confirmation_duration\":[0,12000],\"tx_tag\":null},{\"timestamp\":\"2024-06-12T20:53:59.000000Z\",\"fee\":{\"type\":\"actual\",\"value\":\"875936991822200\"},\"gas_limit\":\"65000\",\"block\":20078262,\"status\":\"ok\",\"method\":\"approve\",\"confirmations\":1,\"type\":2,\"exchange_rate\":\"3554.69\",\"to\":{\"ens_domain_name\":null,\"hash\":\"0x514910771AF9Ca656af840dff83E8264EcF986CA\",\"implementation_name\":null,\"implementations\":[],\"is_contract\":true,\"is_verified\":true,\"metadata\":{\"tags\":[{\"meta\":{},\"name\":\"TOKEN CONTRACT\",\"ordinal\":0,\"slug\":\"token-contract\",\"tagType\":\"note\"},{\"meta\":{},\"name\":\"Chainlink: LINK Token\",\"ordinal\":0,\"slug\":\"chainlink-link-token\",\"tagType\":\"name\"}]},\"name\":\"LinkToken\",\"private_tags\":[],\"public_tags\":[],\"watchlist_names\":[]},\"tx_burnt_fee\":\"871263091822200\",\"max_fee_per_gas\":\"22896554694\",\"result\":\"success\",\"hash\":\"0x91b62a2f625a307d3fa880950efab188b170db9c54012372e8f1beb035438bd5\",\"gas_price\":\"18741029800\",\"priority_fee\":\"4673900000000\",\"base_fee_per_gas\":\"18641029800\",\"from\":{\"ens_domain_name\":null,\"hash\":\"0x2186E991CEE5296C55e824f6430221eb2e667aCd\",\"implementation_name\":null,\"implementations\":[],\"is_contract\":false,\"is_verified\":null,\"metadata\":null,\"name\":null,\"private_tags\":[],\"public_tags\":[],\"watchlist_names\":[]},\"token_transfers\":null,\"tx_types\":[\"contract_call\"],\"gas_used\":\"46739\",\"created_contract\":null,\"position\":150,\"nonce\":13,\"has_error_in_internal_txs\":null,\"actions\":[],\"decoded_input\":{\"method_call\":\"approve(address _spender, uint256 _value)\",\"method_id\":\"095ea7b3\",\"parameters\":[{\"name\":\"_spender\",\"type\":\"address\",\"value\":\"0x87870bca3f3fd6335c3f4ce8392d69350b4fa4e2\"},{\"name\":\"_value\",\"type\":\"uint256\",\"value\":\"115792089237316195423570985008687907853269984665640564039457584007913129639935\"}]},\"token_transfers_overflow\":null,\"raw_input\":\"0x095ea7b300000000000000000000000087870bca3f3fd6335c3f4ce8392d69350b4fa4e2ffffffffffffffffffffffffffffffffffffffffffffffffffffffffffffffff\",\"value\":\"0\",\"max_priority_fee_per_gas\":\"100000000\",\"revert_reason\":null,\"confirmation_duration\":[0,12000],\"tx_tag\":null},{\"timestamp\":\"2024-06-12T20:53:59.000000Z\",\"fee\":{\"type\":\"actual\",\"value\":\"393561625800000\"},\"gas_limit\":\"21000\",\"block\":20078262,\"status\":\"ok\",\"method\":null,\"confirmations\":1,\"type\":2,\"exchange_rate\":\"3554.69\",\"to\":{\"ens_domain_name\":null,\"hash\":\"0x22E11255e38FC6003d200C6D26B59C5990278f8C\",\"implementation_name\":null,\"implementations\":[],\"is_contract\":false,\"is_verified\":false,\"metadata\":null,\"name\":null,\"private_tags\":[],\"public_tags\":[],\"watchlist_names\":[]},\"tx_burnt_fee\":\"391461625800000\",\"max_fee_per_gas\":\"22896554694\",\"result\":\"success\",\"hash\":\"0x613a8511f15c1e3652244954a27aa7bf79b59c0a499988a7d970e19006c3312d\",\"gas_price\":\"18741029800\",\"priority_fee\":\"2100000000000\",\"base_fee_per_gas\":\"18641029800\",\"from\":{\"ens_domain_name\":null,\"hash\":\"0xa873B7e53591307d6ddfd43ac21980559543735a\",\"implementation_name\":null,\"implementations\":[],\"is_contract\":false,\"is_verified\":null,\"metadata\":null,\"name\":null,\"private_tags\":[],\"public_tags\":[],\"watchlist_names\":[]},\"token_transfers\":null,\"tx_types\":[\"coin_transfer\"],\"gas_used\":\"21000\",\"created_contract\":null,\"position\":149,\"nonce\":4,\"has_error_in_internal_txs\":null,\"actions\":[],\"decoded_input\":null,\"token_transfers_overflow\":null,\"raw_input\":\"0x\",\"value\":\"11500000000000000\",\"max_priority_fee_per_gas\":\"100000000\",\"revert_reason\":null,\"confirmation_duration\":[0,12000],\"tx_tag\":null},{\"timestamp\":\"2024-06-12T20:53:59.000000Z\",\"fee\":{\"type\":\"actual\",\"value\":\"1487831614792200\"},\"gas_limit\":\"120430\",\"block\":20078262,\"status\":\"ok\",\"method\":\"transfer\",\"confirmations\":1,\"type\":2,\"exchange_rate\":\"3554.69\",\"to\":{\"ens_domain_name\":null,\"hash\":\"0x4Db462d0b0DC15160eBFE5856b1827d57b8D9254\",\"implementation_name\":null,\"implementations\":[],\"is_contract\":true,\"is_verified\":false,\"metadata\":null,\"name\":\"PEPE 3.0\",\"private_tags\":[],\"public_tags\":[],\"watchlist_names\":[]},\"tx_burnt_fee\":\"1479892714792200\",\"max_fee_per_gas\":\"24736455165\",\"result\":\"success\",\"hash\":\"0x98746c7e86befc0610228c99ad61968aefd432aea3694a3010df4cf1fade80e9\",\"gas_price\":\"18741029800\",\"priority_fee\":\"7938900000000\",\"base_fee_per_gas\":\"18641029800\",\"from\":{\"ens_domain_name\":null,\"hash\":\"0x5963B40F4e618938ac73278E89DE4CcaBeDd2109\",\"implementation_name\":null,\"implementations\":[],\"is_contract\":false,\"is_verified\":null,\"metadata\":null,\"name\":null,\"private_tags\":[],\"public_tags\":[],\"watchlist_names\":[]},\"token_transfers\":null,\"tx_types\":[\"contract_call\",\"token_transfer\"],\"gas_used\":\"79389\",\"created_contract\":null,\"position\":148,\"nonce\":75,\"has_error_in_internal_txs\":null,\"actions\":[],\"decoded_input\":{\"method_call\":\"transfer(address receiver, uint256 amount)\",\"method_id\":\"a9059cbb\",\"parameters\":[{\"name\":\"receiver\",\"type\":\"address\",\"value\":\"0xdffd8bbf8dcaf236c4e009ff6013bfc98407b6c0\"},{\"name\":\"amount\",\"type\":\"uint256\",\"value\":\"1000\"}]},\"token_transfers_overflow\":null,\"raw_input\":\"0xa9059cbb000000000000000000000000dffd8bbf8dcaf236c4e009ff6013bfc98407b6c000000000000000000000000000000000000000000000000000000000000003e8\",\"value\":\"0\",\"max_priority_fee_per_gas\":\"100000000\",\"revert_reason\":null,\"confirmation_duration\":[0,12000],\"tx_tag\":null},{\"timestamp\":\"2024-06-12T20:53:59.000000Z\",\"fee\":{\"type\":\"actual\",\"value\":\"556421174762000\"},\"gas_limit\":\"51736\",\"block\":20078262,\"status\":\"ok\",\"method\":\"transfer\",\"confirmations\":1,\"type\":2,\"exchange_rate\":\"3554.69\",\"to\":{\"ens_domain_name\":null,\"hash\":\"0x64Bc2cA1Be492bE7185FAA2c8835d9b824c8a194\",\"implementation_name\":null,\"implementations\":[],\"is_contract\":true,\"is_verified\":true,\"metadata\":null,\"name\":\"BigTimeToken\",\"private_tags\":[],\"public_tags\":[],\"watchlist_names\":[]},\"tx_burnt_fee\":\"553452174762000\",\"max_fee_per_gas\":\"22896554694\",\"result\":\"success\",\"hash\":\"0xc9f157c357ad59218581d22f2b7f80913ef779c337275a7744540a5a5fcfe8ae\",\"gas_price\":\"18741029800\",\"priority_fee\":\"2969000000000\",\"base_fee_per_gas\":\"18641029800\",\"from\":{\"ens_domain_name\":null,\"hash\":\"0x987534966420438EdA37a85a84D14d31596E02b7\",\"implementation_name\":null,\"implementations\":[],\"is_contract\":false,\"is_verified\":null,\"metadata\":null,\"name\":null,\"private_tags\":[],\"public_tags\":[],\"watchlist_names\":[]},\"token_transfers\":null,\"tx_types\":[\"contract_call\",\"token_transfer\"],\"gas_used\":\"29690\",\"created_contract\":null,\"position\":147,\"nonce\":11,\"has_error_in_internal_txs\":null,\"actions\":[],\"decoded_input\":{\"method_call\":\"transfer(address to, uint256 amount)\",\"method_id\":\"a9059cbb\",\"parameters\":[{\"name\":\"to\",\"type\":\"address\",\"value\":\"0xa78064789a619e55d319e4b2e2a504a1738dcb25\"},{\"name\":\"amount\",\"type\":\"uint256\",\"value\":\"8896335000000000000000\"}]},\"token_transfers_overflow\":null,\"raw_input\":\"0xa9059cbb000000000000000000000000a78064789a619e55d319e4b2e2a504a1738dcb250000000000000000000000000000000000000000000001e245730bb272c18000\",\"value\":\"0\",\"max_priority_fee_per_gas\":\"100000000\",\"revert_reason\":null,\"confirmation_duration\":[0,12000],\"tx_tag\":null},{\"timestamp\":\"2024-06-12T20:53:59.000000Z\",\"fee\":{\"type\":\"actual\",\"value\":\"3661809812622000\"},\"gas_limit\":\"269727\",\"block\":20078262,\"status\":\"ok\",\"method\":\"execute\",\"confirmations\":1,\"type\":2,\"exchange_rate\":\"3554.69\",\"to\":{\"ens_domain_name\":null,\"hash\":\"0x3fC91A3afd70395Cd496C647d5a6CC9D4B2b7FAD\",\"implementation_name\":null,\"implementations\":[],\"is_contract\":true,\"is_verified\":true,\"metadata\":{\"tags\":[{\"meta\":{},\"name\":\"Uniswap: Universal Router\",\"ordinal\":0,\"slug\":\"uniswap-universal-router\",\"tagType\":\"name\"}]},\"name\":\"UniversalRouter\",\"private_tags\":[],\"public_tags\":[],\"watchlist_names\":[]},\"tx_burnt_fee\":\"3642270812622000\",\"max_fee_per_gas\":\"22896554694\",\"result\":\"success\",\"hash\":\"0xba0f4a0bc286c3bfa46ed3ca16c78da659a25f0b0038a2d1d76922a9a190c551\",\"gas_price\":\"18741029800\",\"priority_fee\":\"19539000000000\",\"base_fee_per_gas\":\"18641029800\",\"from\":{\"ens_domain_name\":\"good.etherbid.eth\",\"hash\":\"0x84c1164889801d9E8751b3f17c69061Ec265CA19\",\"implementation_name\":null,\"implementations\":[],\"is_contract\":false,\"is_verified\":null,\"metadata\":null,\"name\":null,\"private_tags\":[],\"public_tags\":[],\"watchlist_names\":[]},\"token_transfers\":null,\"tx_types\":[\"contract_call\",\"token_transfer\"],\"gas_used\":\"195390\",\"created_contract\":null,\"position\":146,\"nonce\":834,\"has_error_in_internal_txs\":null,\"actions\":[],\"decoded_input\":{\"method_call\":\"execute(bytes commands, bytes[] inputs, uint256 deadline)\",\"method_id\":\"3593564c\",\"parameters\":[{\"name\":\"commands\",\"type\":\"bytes\",\"value\":\"0x080604\"},{\"name\":\"inputs\",\"type\":\"bytes[]\",\"value\":[\"0x0000000000000000000000000000000000000000000000000000000000000002000000000000000000000000000000000000000000000000016345785d8a00000000000000000000000000000000000000000000000000000393c7a8418cd3b600000000000000000000000000000000000000000000000000000000000000a000000000000000000000000000000000000000000000000000000000000000010000000000000000000000000000000000000000000000000000000000000002000000000000000000000000c02aaa39b223fe8d0a0e5c4f27ead9083c756cc20000000000000000000000006977597bbbdcc453636bd67a161a96d85098f327\",\"0x0000000000000000000000006977597bbbdcc453636bd67a161a96d85098f327000000000000000000000000000000fee13a103a10d593b9ae06b3e05f2e7e1c0000000000000000000000000000000000000000000000000000000000000019\",\"0x0000000000000000000000006977597bbbdcc453636bd67a161a96d85098f327000000000000000000000000000000000000000000000000000000000000000100000000000000000000000000000000000000000000000003917d8ee01b31e7\"]},{\"name\":\"deadline\",\"type\":\"uint256\",\"value\":\"1718226203\"}]},\"token_transfers_overflow\":null,\"raw_input\":\"0x3593564c000000000000000000000000000000000000000000000000000000000000006000000000000000000000000000000000000000000000000000000000000000a000000000000000000000000000000000000000000000000000000000666a0d1b00000000000000000000000000000000000000000000000000000000000000030806040000000000000000000000000000000000000000000000000000000000000000000000000000000000000000000000000000000000000000000000000300000000000000000000000000000000000000000000000000000000000000600000000000000000000000000000000000000000000000000000000000000180000000000000000000000000000000000000000000000000000000000000020000000000000000000000000000000000000000000000000000000000000001000000000000000000000000000000000000000000000000000000000000000002000000000000000000000000000000000000000000000000016345785d8a00000000000000000000000000000000000000000000000000000393c7a8418cd3b600000000000000000000000000000000000000000000000000000000000000a000000000000000000000000000000000000000000000000000000000000000010000000000000000000000000000000000000000000000000000000000000002000000000000000000000000c02aaa39b223fe8d0a0e5c4f27ead9083c756cc20000000000000000000000006977597bbbdcc453636bd67a161a96d85098f32700000000000000000000000000000000000000000000000000000000000000600000000000000000000000006977597bbbdcc453636bd67a161a96d85098f327000000000000000000000000000000fee13a103a10d593b9ae06b3e05f2e7e1c000000000000000000000000000000000000000000000000000000000000001900000000000000000000000000000000000000000000000000000000000000600000000000000000000000006977597bbbdcc453636bd67a161a96d85098f327000000000000000000000000000000000000000000000000000000000000000100000000000000000000000000000000000000000000000003917d8ee01b31e7\",\"value\":\"0\",\"max_priority_fee_per_gas\":\"100000000\",\"revert_reason\":null,\"confirmation_duration\":[0,12000],\"tx_tag\":null},{\"timestamp\":\"2024-06-12T20:53:59.000000Z\",\"fee\":{\"type\":\"actual\",\"value\":\"393561625800000\"},\"gas_limit\":\"21000\",\"block\":20078262,\"status\":\"ok\",\"method\":null,\"confirmations\":1,\"type\":2,\"exchange_rate\":\"3554.69\",\"to\":{\"ens_domain_name\":null,\"hash\":\"0xB944FFea4684908E2D31F935cD062d97044a3176\",\"implementation_name\":null,\"implementations\":[],\"is_contract\":false,\"is_verified\":false,\"metadata\":null,\"name\":null,\"private_tags\":[],\"public_tags\":[],\"watchlist_names\":[]},\"tx_burnt_fee\":\"391461625800000\",\"max_fee_per_gas\":\"24736455165\",\"result\":\"success\",\"hash\":\"0xe2fd4af8d706babf3264a4139ab7548f71ca056314787566acf4902fd4dca0e9\",\"gas_price\":\"18741029800\",\"priority_fee\":\"2100000000000\",\"base_fee_per_gas\":\"18641029800\",\"from\":{\"ens_domain_name\":null,\"hash\":\"0x3d654a89c27d7aD6a84B14A56112854E3568a488\",\"implementation_name\":null,\"implementations\":[],\"is_contract\":false,\"is_verified\":null,\"metadata\":null,\"name\":null,\"private_tags\":[],\"public_tags\":[],\"watchlist_names\":[]},\"token_transfers\":null,\"tx_types\":[\"coin_transfer\"],\"gas_used\":\"21000\",\"created_contract\":null,\"position\":145,\"nonce\":5,\"has_error_in_internal_txs\":null,\"actions\":[],\"decoded_input\":null,\"token_transfers_overflow\":null,\"raw_input\":\"0x\",\"value\":\"78000000000000000\",\"max_priority_fee_per_gas\":\"100000000\",\"revert_reason\":null,\"confirmation_duration\":[0,12000],\"tx_tag\":null},{\"timestamp\":\"2024-06-12T20:53:59.000000Z\",\"fee\":{\"type\":\"actual\",\"value\":\"393561625800000\"},\"gas_limit\":\"21000\",\"block\":20078262,\"status\":\"ok\",\"method\":null,\"confirmations\":1,\"type\":2,\"exchange_rate\":\"3554.69\",\"to\":{\"ens_domain_name\":null,\"hash\":\"0xDd96225974194BB7ce452180cB34543E1A6f1E52\",\"implementation_name\":null,\"implementations\":[],\"is_contract\":false,\"is_verified\":false,\"metadata\":null,\"name\":null,\"private_tags\":[],\"public_tags\":[],\"watchlist_names\":[]},\"tx_burnt_fee\":\"391461625800000\",\"max_fee_per_gas\":\"20000000000\",\"result\":\"success\",\"hash\":\"0x2c20fb08e15e35c165db79c894b7f8690b45c1764556d69aa823cb3ad6a08342\",\"gas_price\":\"18741029800\",\"priority_fee\":\"2100000000000\",\"base_fee_per_gas\":\"18641029800\",\"from\":{\"ens_domain_name\":null,\"hash\":\"0xa3e64f640Dc7Ca3281E0F3fF10c0a12dD9c6f273\",\"implementation_name\":null,\"implementations\":[],\"is_contract\":false,\"is_verified\":null,\"metadata\":null,\"name\":null,\"private_tags\":[],\"public_tags\":[],\"watchlist_names\":[]},\"token_transfers\":null,\"tx_types\":[\"coin_transfer\"],\"gas_used\":\"21000\",\"created_contract\":null,\"position\":144,\"nonce\":0,\"has_error_in_internal_txs\":null,\"actions\":[],\"decoded_input\":null,\"token_transfers_overflow\":null,\"raw_input\":\"0x\",\"value\":\"680000000000000000\",\"max_priority_fee_per_gas\":\"100000000\",\"revert_reason\":null,\"confirmation_duration\":[0,12000],\"tx_tag\":null},{\"timestamp\":\"2024-06-12T20:53:59.000000Z\",\"fee\":{\"type\":\"actual\",\"value\":\"844058500132400\"},\"gas_limit\":\"45418\",\"block\":20078262,\"status\":\"ok\",\"method\":\"deposit\",\"confirmations\":1,\"type\":2,\"exchange_rate\":\"3554.69\",\"to\":{\"ens_domain_name\":null,\"hash\":\"0xC02aaA39b223FE8D0A0e5C4F27eAD9083C756Cc2\",\"implementation_name\":null,\"implementations\":[],\"is_contract\":true,\"is_verified\":true,\"metadata\":{\"tags\":[{\"meta\":{},\"name\":\"TOKEN CONTRACT\",\"ordinal\":0,\"slug\":\"token-contract\",\"tagType\":\"note\"},{\"meta\":{},\"name\":\"Wrapped Ether\",\"ordinal\":0,\"slug\":\"wrapped-ether\",\"tagType\":\"name\"}]},\"name\":\"Wrapped Ether\",\"private_tags\":[],\"public_tags\":[],\"watchlist_names\":[]},\"tx_burnt_fee\":\"839554700132400\",\"max_fee_per_gas\":\"24736455165\",\"result\":\"success\",\"hash\":\"0x605b65a37bc34330d4578e6a035a449c7ba277f01565180662af6db2c4a8c138\",\"gas_price\":\"18741029800\",\"priority_fee\":\"4503800000000\",\"base_fee_per_gas\":\"18641029800\",\"from\":{\"ens_domain_name\":null,\"hash\":\"0xe7E511636FF80F9A2D6137210E2D3DE46457B11a\",\"implementation_name\":null,\"implementations\":[],\"is_contract\":false,\"is_verified\":null,\"metadata\":null,\"name\":null,\"private_tags\":[],\"public_tags\":[],\"watchlist_names\":[]},\"token_transfers\":null,\"tx_types\":[\"coin_transfer\",\"contract_call\",\"token_transfer\"],\"gas_used\":\"45038\",\"created_contract\":null,\"position\":143,\"nonce\":405,\"has_error_in_internal_txs\":null,\"actions\":[],\"decoded_input\":{\"method_call\":\"deposit()\",\"method_id\":\"d0e30db0\",\"parameters\":[]},\"token_transfers_overflow\":null,\"raw_input\":\"0xd0e30db0\",\"value\":\"1330000000000000000\",\"max_priority_fee_per_gas\":\"100000000\",\"revert_reason\":null,\"confirmation_duration\":[0,12000],\"tx_tag\":null},{\"timestamp\":\"2024-06-12T20:53:59.000000Z\",\"fee\":{\"type\":\"actual\",\"value\":\"393561625800000\"},\"gas_limit\":\"31500\",\"block\":20078262,\"status\":\"ok\",\"method\":null,\"confirmations\":1,\"type\":2,\"exchange_rate\":\"3554.69\",\"to\":{\"ens_domain_name\":null,\"hash\":\"0xD107AE41b1ce71C498359fE816816baA7a42fB00\",\"implementation_name\":null,\"implementations\":[],\"is_contract\":false,\"is_verified\":false,\"metadata\":null,\"name\":null,\"private_tags\":[],\"public_tags\":[],\"watchlist_names\":[]},\"tx_burnt_fee\":\"391461625800000\",\"max_fee_per_gas\":\"22896554694\",\"result\":\"success\",\"hash\":\"0xc72bfbd910c93c81b1dbfefd5786cbe9412f7389309f032460f7caf3cc6e93ee\",\"gas_price\":\"18741029800\",\"priority_fee\":\"2100000000000\",\"base_fee_per_gas\":\"18641029800\",\"from\":{\"ens_domain_name\":null,\"hash\":\"0x4e95EbfAa1A28C4eede0fB89D0Abe25c56a273b3\",\"implementation_name\":null,\"implementations\":[],\"is_contract\":false,\"is_verified\":null,\"metadata\":null,\"name\":null,\"private_tags\":[],\"public_tags\":[],\"watchlist_names\":[]},\"token_transfers\":null,\"tx_types\":[\"coin_transfer\"],\"gas_used\":\"21000\",\"created_contract\":null,\"position\":142,\"nonce\":0,\"has_error_in_internal_txs\":null,\"actions\":[],\"decoded_input\":null,\"token_transfers_overflow\":null,\"raw_input\":\"0x\",\"value\":\"11000000000000000\",\"max_priority_fee_per_gas\":\"100000000\",\"revert_reason\":null,\"confirmation_duration\":[0,12000],\"tx_tag\":null},{\"timestamp\":\"2024-06-12T20:53:59.000000Z\",\"fee\":{\"type\":\"actual\",\"value\":\"1094644809588200\"},\"gas_limit\":\"95242\",\"block\":20078262,\"status\":\"ok\",\"method\":\"transfer\",\"confirmations\":1,\"type\":2,\"exchange_rate\":\"3554.69\",\"to\":{\"ens_domain_name\":null,\"hash\":\"0xdAC17F958D2ee523a2206206994597C13D831ec7\",\"implementation_name\":null,\"implementations\":[],\"is_contract\":true,\"is_verified\":true,\"metadata\":{\"tags\":[{\"meta\":{},\"name\":\"TOKEN CONTRACT\",\"ordinal\":0,\"slug\":\"token-contract\",\"tagType\":\"note\"},{\"meta\":{},\"name\":\"Tether: USDT Stablecoin\",\"ordinal\":0,\"slug\":\"tether-usdt-stablecoin\",\"tagType\":\"name\"},{\"meta\":{},\"name\":\"STABLECOIN\",\"ordinal\":0,\"slug\":\"stablecoin\",\"tagType\":\"note\"}]},\"name\":\"TetherToken\",\"private_tags\":[],\"public_tags\":[],\"watchlist_names\":[]},\"tx_burnt_fee\":\"1088803909588200\",\"max_fee_per_gas\":\"22896554694\",\"result\":\"success\",\"hash\":\"0x0507783f712fac714576323b3f2bc5f9e8b387ebd37197a7adb664e3870d6e16\",\"gas_price\":\"18741029800\",\"priority_fee\":\"5840900000000\",\"base_fee_per_gas\":\"18641029800\",\"from\":{\"ens_domain_name\":null,\"hash\":\"0x6576e8De091A24bF77B8Cb4d26Fac6Ff6DE09032\",\"implementation_name\":null,\"implementations\":[],\"is_contract\":false,\"is_verified\":null,\"metadata\":null,\"name\":null,\"private_tags\":[],\"public_tags\":[],\"watchlist_names\":[]},\"token_transfers\":null,\"tx_types\":[\"contract_call\",\"token_transfer\"],\"gas_used\":\"58409\",\"created_contract\":null,\"position\":141,\"nonce\":6,\"has_error_in_internal_txs\":null,\"actions\":[],\"decoded_input\":{\"method_call\":\"transfer(address _to, uint256 _value)\",\"method_id\":\"a9059cbb\",\"parameters\":[{\"name\":\"_to\",\"type\":\"address\",\"value\":\"0x3fbf944438c1c0eb636095bb56b78536bd8c8a49\"},{\"name\":\"_value\",\"type\":\"uint256\",\"value\":\"319477291\"}]},\"token_transfers_overflow\":null,\"raw_input\":\"0xa9059cbb0000000000000000000000003fbf944438c1c0eb636095bb56b78536bd8c8a4900000000000000000000000000000000000000000000000000000000130ad62b\",\"value\":\"0\",\"max_priority_fee_per_gas\":\"100000000\",\"revert_reason\":null,\"confirmation_duration\":[0,12000],\"tx_tag\":null},{\"timestamp\":\"2024-06-12T20:53:59.000000Z\",\"fee\":{\"type\":\"actual\",\"value\":\"864130143048200\"},\"gas_limit\":\"69736\",\"block\":20078262,\"status\":\"ok\",\"method\":\"transfer\",\"confirmations\":1,\"type\":2,\"exchange_rate\":\"3554.69\",\"to\":{\"ens_domain_name\":null,\"hash\":\"0xdAC17F958D2ee523a2206206994597C13D831ec7\",\"implementation_name\":null,\"implementations\":[],\"is_contract\":true,\"is_verified\":true,\"metadata\":{\"tags\":[{\"meta\":{},\"name\":\"TOKEN CONTRACT\",\"ordinal\":0,\"slug\":\"token-contract\",\"tagType\":\"note\"},{\"meta\":{},\"name\":\"Tether: USDT Stablecoin\",\"ordinal\":0,\"slug\":\"tether-usdt-stablecoin\",\"tagType\":\"name\"},{\"meta\":{},\"name\":\"STABLECOIN\",\"ordinal\":0,\"slug\":\"stablecoin\",\"tagType\":\"note\"}]},\"name\":\"TetherToken\",\"private_tags\":[],\"public_tags\":[],\"watchlist_names\":[]},\"tx_burnt_fee\":\"859519243048200\",\"max_fee_per_gas\":\"22896554694\",\"result\":\"success\",\"hash\":\"0x2a2343fd43151316fc3b2f902fdd699da54060aa2500d4ccdaae5f07726ce266\",\"gas_price\":\"18741029800\",\"priority_fee\":\"4610900000000\",\"base_fee_per_gas\":\"18641029800\",\"from\":{\"ens_domain_name\":null,\"hash\":\"0x01E469D884f03090944A747Abf6bc4fb32788495\",\"implementation_name\":null,\"implementations\":[],\"is_contract\":false,\"is_verified\":null,\"metadata\":null,\"name\":null,\"private_tags\":[],\"public_tags\":[],\"watchlist_names\":[]},\"token_transfers\":null,\"tx_types\":[\"contract_call\",\"token_transfer\"],\"gas_used\":\"46109\",\"created_contract\":null,\"position\":140,\"nonce\":149,\"has_error_in_internal_txs\":null,\"actions\":[],\"decoded_input\":{\"method_call\":\"transfer(address _to, uint256 _value)\",\"method_id\":\"a9059cbb\",\"parameters\":[{\"name\":\"_to\",\"type\":\"address\",\"value\":\"0xad3e56213c0536e224615d81b74996ddf704645a\"},{\"name\":\"_value\",\"type\":\"uint256\",\"value\":\"30000000000\"}]},\"token_transfers_overflow\":null,\"raw_input\":\"0xa9059cbb000000000000000000000000ad3e56213c0536e224615d81b74996ddf704645a00000000000000000000000000000000000000000000000000000006fc23ac00\",\"value\":\"0\",\"max_priority_fee_per_gas\":\"100000000\",\"revert_reason\":null,\"confirmation_duration\":[0,12000],\"tx_tag\":null},{\"timestamp\":\"2024-06-12T20:53:59.000000Z\",\"fee\":{\"type\":\"actual\",\"value\":\"2011474728434000\"},\"gas_limit\":\"162508\",\"block\":20078262,\"status\":\"ok\",\"method\":\"0x66928f49\",\"confirmations\":1,\"type\":2,\"exchange_rate\":\"3554.69\",\"to\":{\"ens_domain_name\":null,\"hash\":\"0x7ca50Eb6f717843a134aACcA58eBF09fa34707ca\",\"implementation_name\":null,\"implementations\":[],\"is_contract\":true,\"is_verified\":false,\"metadata\":null,\"name\":null,\"private_tags\":[],\"public_tags\":[],\"watchlist_names\":[]},\"tx_burnt_fee\":\"2000741728434000\",\"max_fee_per_gas\":\"25439260361\",\"result\":\"success\",\"hash\":\"0x572e173f6e99ac937b27f47b227552e8974d8ade705618be14425e1d22ee9b72\",\"gas_price\":\"18741029800\",\"priority_fee\":\"10733000000000\",\"base_fee_per_gas\":\"18641029800\",\"from\":{\"ens_domain_name\":null,\"hash\":\"0xE45c4407c27fC6e27a716367e2FCB3c9A83B68e5\",\"implementation_name\":null,\"implementations\":[],\"is_contract\":false,\"is_verified\":null,\"metadata\":null,\"name\":null,\"private_tags\":[],\"public_tags\":[],\"watchlist_names\":[]},\"token_transfers\":null,\"tx_types\":[\"contract_call\",\"token_transfer\"],\"gas_used\":\"107330\",\"created_contract\":null,\"position\":139,\"nonce\":76,\"has_error_in_internal_txs\":null,\"actions\":[],\"decoded_input\":null,\"token_transfers_overflow\":null,\"raw_input\":\"0x66928f49000000000000000000000000000000000000000000000000000000000000006000000000000000000000000000000000000000000000000000000000000002a0000000000000000000000000000000000000000000000025f273933db57000000000000000000000000000000000000000000000000000000000000000000011a31984bd8cda74e43d6f1f74e50f99c0b3514c2f783d814e897e4f4eb09627c69d64446cd28bf141e2cc5d7e1272c7d6ac9cb46e148cef255efd3127315ea00b73380f93a6b34e3232be8bcc66284e813c462ba36a765a4b75fe7bcd644f8c8e0820a59ce9ee8a907e236c1c3de4ad7e03c499d9466b12293d5670d989d4cbababb1bac805dff49d8dded1472507a542ca6b1c655e3dfce2780cde034756b910afc02bc5d6b9b0b0f72cae253938de13faa8f48b50c1c785123b240cd6b1e65d085d0b234891fd4dd9c32ac63a4289f9107e6b90397a57ec88a8f1893e4fb08d81846b8f63e3be23e5046f7b82ea9ed086e6b29c61f2ed83f504653e15397b05f0a29d4be7420f0c9317f76afce36b9bb03fe0ca8fa15e88a098dfe21556f386b9eb6f8d7870cf1f30407a929d8a71f6ba80b80c1831a5cf394314ab4a19da12b58493a39ad45e16f2122f38690448358e504302d850b7c5d3ae79e981b84ee1f5a3af1d4b440441c7adc401cfddbf6a018e6c33014b7f4c52cf14f5f63f63bd274d2f9d8b222dc65c2c38c7976e911960b2ba41e70180ed4afc258d3a739d6f2c08aa83a1c62602c6b4f860bef36cd397b521a4465d5e32fbcad93883444a22e45efb688aa07ced04f4fbb2e173932688473df0db96bb591cd76e52631d05af4eca25d68e9019793efe73d09755e80b8726e4e28a01f11ed378392e475924416475923c27b3630a9b1f4d1601a5bfa64c71b3f39188d6dfc85f7aae60adff8500000000000000000000000000000000000000000000000000000000000000416101efc17f90cf3939136004fb53a47a2d27538deb4212708963ed728c2518e162292263030700fa8fcae5e30e86d9f1db3872685f351c120814bb875602e71d1c00000000000000000000000000000000000000000000000000000000000000\",\"value\":\"0\",\"max_priority_fee_per_gas\":\"100000000\",\"revert_reason\":null,\"confirmation_duration\":[0,12000],\"tx_tag\":null},{\"timestamp\":\"2024-06-12T20:53:59.000000Z\",\"fee\":{\"type\":\"actual\",\"value\":\"1184601752628200\"},\"gas_limit\":\"96065\",\"block\":20078262,\"status\":\"ok\",\"method\":\"transfer\",\"confirmations\":1,\"type\":2,\"exchange_rate\":\"3554.69\",\"to\":{\"ens_domain_name\":null,\"hash\":\"0xdAC17F958D2ee523a2206206994597C13D831ec7\",\"implementation_name\":null,\"implementations\":[],\"is_contract\":true,\"is_verified\":true,\"metadata\":{\"tags\":[{\"meta\":{},\"name\":\"TOKEN CONTRACT\",\"ordinal\":0,\"slug\":\"token-contract\",\"tagType\":\"note\"},{\"meta\":{},\"name\":\"Tether: USDT Stablecoin\",\"ordinal\":0,\"slug\":\"tether-usdt-stablecoin\",\"tagType\":\"name\"},{\"meta\":{},\"name\":\"STABLECOIN\",\"ordinal\":0,\"slug\":\"stablecoin\",\"tagType\":\"note\"}]},\"name\":\"TetherToken\",\"private_tags\":[],\"public_tags\":[],\"watchlist_names\":[]},\"tx_burnt_fee\":\"1178280852628200\",\"max_fee_per_gas\":\"21000000000\",\"result\":\"success\",\"hash\":\"0x42ea13f7e43bb7cafd2b1cc4192c36bdeb258ae322b590e0cddab40971366e64\",\"gas_price\":\"18741029800\",\"priority_fee\":\"6320900000000\",\"base_fee_per_gas\":\"18641029800\",\"from\":{\"ens_domain_name\":null,\"hash\":\"0xfbdbE32a3D580C05E1E03EfBf15B7085E425A662\",\"implementation_name\":null,\"implementations\":[],\"is_contract\":false,\"is_verified\":null,\"metadata\":null,\"name\":null,\"private_tags\":[],\"public_tags\":[],\"watchlist_names\":[]},\"token_transfers\":null,\"tx_types\":[\"contract_call\",\"token_transfer\"],\"gas_used\":\"63209\",\"created_contract\":null,\"position\":138,\"nonce\":16,\"has_error_in_internal_txs\":null,\"actions\":[],\"decoded_input\":{\"method_call\":\"transfer(address _to, uint256 _value)\",\"method_id\":\"a9059cbb\",\"parameters\":[{\"name\":\"_to\",\"type\":\"address\",\"value\":\"0x248d20b052d988df96ac6473c62e1677ee8fb951\"},{\"name\":\"_value\",\"type\":\"uint256\",\"value\":\"100000000000\"}]},\"token_transfers_overflow\":null,\"raw_input\":\"0xa9059cbb000000000000000000000000248d20b052d988df96ac6473c62e1677ee8fb951000000000000000000000000000000000000000000000000000000174876e800\",\"value\":\"0\",\"max_priority_fee_per_gas\":\"100000000\",\"revert_reason\":null,\"confirmation_duration\":[0,12000],\"tx_tag\":null},{\"timestamp\":\"2024-06-12T20:53:59.000000Z\",\"fee\":{\"type\":\"actual\",\"value\":\"949926577472600\"},\"gas_limit\":\"76617\",\"block\":20078262,\"status\":\"ok\",\"method\":\"transfer\",\"confirmations\":1,\"type\":2,\"exchange_rate\":\"3554.69\",\"to\":{\"ens_domain_name\":null,\"hash\":\"0x3fFEea07a27Fab7ad1df5297fa75e77a43CB5790\",\"implementation_name\":null,\"implementations\":[],\"is_contract\":true,\"is_verified\":true,\"metadata\":null,\"name\":\"Token\",\"private_tags\":[],\"public_tags\":[],\"watchlist_names\":[]},\"tx_burnt_fee\":\"944857877472600\",\"max_fee_per_gas\":\"22896554694\",\"result\":\"success\",\"hash\":\"0x6fe7b48330734f9376e6166863a9590cde4da0e636cd9907743bd46bd714c437\",\"gas_price\":\"18741029800\",\"priority_fee\":\"5068700000000\",\"base_fee_per_gas\":\"18641029800\",\"from\":{\"ens_domain_name\":null,\"hash\":\"0xd74D49CA3D6d748A499D8FbC855983942F4bc35B\",\"implementation_name\":null,\"implementations\":[],\"is_contract\":false,\"is_verified\":null,\"metadata\":null,\"name\":null,\"private_tags\":[],\"public_tags\":[],\"watchlist_names\":[]},\"token_transfers\":null,\"tx_types\":[\"contract_call\",\"token_transfer\"],\"gas_used\":\"50687\",\"created_contract\":null,\"position\":137,\"nonce\":95,\"has_error_in_internal_txs\":null,\"actions\":[],\"decoded_input\":{\"method_call\":\"transfer(address recipient, uint256 amount)\",\"method_id\":\"a9059cbb\",\"parameters\":[{\"name\":\"recipient\",\"type\":\"address\",\"value\":\"0x0b484cf580727e1625fbc6c38cd94bf61d1839bc\"},{\"name\":\"amount\",\"type\":\"uint256\",\"value\":\"9015718292730000000000000000\"}]},\"token_transfers_overflow\":null,\"raw_input\":\"0xa9059cbb0000000000000000000000000b484cf580727e1625fbc6c38cd94bf61d1839bc00000000000000000000000000000000000000001d21a09bf989c513c7d90000\",\"value\":\"0\",\"max_priority_fee_per_gas\":\"100000000\",\"revert_reason\":null,\"confirmation_duration\":[0,12000],\"tx_tag\":null},{\"timestamp\":\"2024-06-12T20:53:59.000000Z\",\"fee\":{\"type\":\"actual\",\"value\":\"424484324970000\"},\"gas_limit\":\"25000\",\"block\":20078262,\"status\":\"ok\",\"method\":null,\"confirmations\":1,\"type\":2,\"exchange_rate\":\"3554.69\",\"to\":{\"ens_domain_name\":null,\"hash\":\"0x38741A69785e84399Fcf7c5ad61D572f7EcB1dab\",\"implementation_name\":null,\"implementations\":[],\"is_contract\":true,\"is_verified\":true,\"metadata\":null,\"name\":\"EverPay\",\"private_tags\":[],\"public_tags\":[],\"watchlist_names\":[]},\"tx_burnt_fee\":\"422219324970000\",\"max_fee_per_gas\":\"22896554694\",\"result\":\"success\",\"hash\":\"0xe57c28d71c40ce719332e6eb98aa6a1c7031cf352ce60c724129d3439e09d0ce\",\"gas_price\":\"18741029800\",\"priority_fee\":\"2265000000000\",\"base_fee_per_gas\":\"18641029800\",\"from\":{\"ens_domain_name\":null,\"hash\":\"0xEf35Da8f95A17faA6a3FC42907E2C197c6F1D5e6\",\"implementation_name\":null,\"implementations\":[],\"is_contract\":false,\"is_verified\":null,\"metadata\":null,\"name\":null,\"private_tags\":[],\"public_tags\":[],\"watchlist_names\":[]},\"token_transfers\":null,\"tx_types\":[\"coin_transfer\",\"contract_call\",\"token_transfer\"],\"gas_used\":\"22650\",\"created_contract\":null,\"position\":136,\"nonce\":15,\"has_error_in_internal_txs\":null,\"actions\":[],\"decoded_input\":null,\"token_transfers_overflow\":null,\"raw_input\":\"0x\",\"value\":\"280000000000000000\",\"max_priority_fee_per_gas\":\"100000000\",\"revert_reason\":null,\"confirmation_duration\":[0,12000],\"tx_tag\":null},{\"timestamp\":\"2024-06-12T20:53:59.000000Z\",\"fee\":{\"type\":\"actual\",\"value\":\"393561625800000\"},\"gas_limit\":\"21000\",\"block\":20078262,\"status\":\"ok\",\"method\":null,\"confirmations\":1,\"type\":2,\"exchange_rate\":\"3554.69\",\"to\":{\"ens_domain_name\":null,\"hash\":\"0x8fc60e68b60F443E935DeE2fA1B84252338AC280\",\"implementation_name\":null,\"implementations\":[],\"is_contract\":false,\"is_verified\":false,\"metadata\":null,\"name\":null,\"private_tags\":[],\"public_tags\":[],\"watchlist_names\":[]},\"tx_burnt_fee\":\"391461625800000\",\"max_fee_per_gas\":\"22896554694\",\"result\":\"success\",\"hash\":\"0xed263101009aa75ba30eca8499be707837d6b337809dfc820a76a1cae3fcc614\",\"gas_price\":\"18741029800\",\"priority_fee\":\"2100000000000\",\"base_fee_per_gas\":\"18641029800\",\"from\":{\"ens_domain_name\":null,\"hash\":\"0x08ccE1b3fcD73F0af90eAAa110CE1cC7647aBfcE\",\"implementation_name\":null,\"implementations\":[],\"is_contract\":false,\"is_verified\":null,\"metadata\":null,\"name\":null,\"private_tags\":[],\"public_tags\":[],\"watchlist_names\":[]},\"token_transfers\":null,\"tx_types\":[\"coin_transfer\"],\"gas_used\":\"21000\",\"created_contract\":null,\"position\":135,\"nonce\":0,\"has_error_in_internal_txs\":null,\"actions\":[],\"decoded_input\":null,\"token_transfers_overflow\":null,\"raw_input\":\"0x\",\"value\":\"14000000000000000\",\"max_priority_fee_per_gas\":\"100000000\",\"revert_reason\":null,\"confirmation_duration\":[0,12000],\"tx_tag\":null},{\"timestamp\":\"2024-06-12T20:53:59.000000Z\",\"fee\":{\"type\":\"actual\",\"value\":\"395661625800000\"},\"gas_limit\":\"21000\",\"block\":20078262,\"status\":\"ok\",\"method\":null,\"confirmations\":1,\"type\":2,\"exchange_rate\":\"3554.69\",\"to\":{\"ens_domain_name\":null,\"hash\":\"0xC79D23cD4ED48134C99b1bdACe382738233D6CF4\",\"implementation_name\":null,\"implementations\":[],\"is_contract\":false,\"is_verified\":false,\"metadata\":null,\"name\":null,\"private_tags\":[],\"public_tags\":[],\"watchlist_names\":[]},\"tx_burnt_fee\":\"391461625800000\",\"max_fee_per_gas\":\"25430000000\",\"result\":\"success\",\"hash\":\"0xae5114006f0a5a6f3b4f587469f0b9b9fdb89090bed0e308f1cc5e5d1c0301fd\",\"gas_price\":\"18841029800\",\"priority_fee\":\"4200000000000\",\"base_fee_per_gas\":\"18641029800\",\"from\":{\"ens_domain_name\":null,\"hash\":\"0x89a6436416D85b0f1D2d274F21ED04192d6E4395\",\"implementation_name\":null,\"implementations\":[],\"is_contract\":false,\"is_verified\":null,\"metadata\":null,\"name\":null,\"private_tags\":[],\"public_tags\":[],\"watchlist_names\":[]},\"token_transfers\":null,\"tx_types\":[\"coin_transfer\"],\"gas_used\":\"21000\",\"created_contract\":null,\"position\":134,\"nonce\":14,\"has_error_in_internal_txs\":null,\"actions\":[],\"decoded_input\":null,\"token_transfers_overflow\":null,\"raw_input\":\"0x\",\"value\":\"500000000000000000\",\"max_priority_fee_per_gas\":\"200000000\",\"revert_reason\":null,\"confirmation_duration\":[0,12000],\"tx_tag\":null},{\"timestamp\":\"2024-06-12T20:53:59.000000Z\",\"fee\":{\"type\":\"actual\",\"value\":\"399000000000000\"},\"gas_limit\":\"21000\",\"block\":20078262,\"status\":\"ok\",\"method\":null,\"confirmations\":1,\"type\":0,\"exchange_rate\":\"3554.69\",\"to\":{\"ens_domain_name\":null,\"hash\":\"0x30498CdCE3cdCB161Bc434c8bC0b3ff9FA83f9Be\",\"implementation_name\":null,\"implementations\":[],\"is_contract\":false,\"is_verified\":false,\"metadata\":null,\"name\":null,\"private_tags\":[],\"public_tags\":[],\"watchlist_names\":[]},\"tx_burnt_fee\":null,\"max_fee_per_gas\":null,\"result\":\"success\",\"hash\":\"0x37a4aba7f9c3d4b96ff92f110ec3f2787b65bd7039be0dacd2244305707f7b99\",\"gas_price\":\"19000000000\",\"priority_fee\":null,\"base_fee_per_gas\":\"18641029800\",\"from\":{\"ens_domain_name\":null,\"hash\":\"0xb79f5Eb88DE906ebD412fe68EEC52a1A1fe1654E\",\"implementation_name\":null,\"implementations\":[],\"is_contract\":false,\"is_verified\":null,\"metadata\":null,\"name\":null,\"private_tags\":[],\"public_tags\":[],\"watchlist_names\":[]},\"token_transfers\":null,\"tx_types\":[\"coin_transfer\"],\"gas_used\":\"21000\",\"created_contract\":null,\"position\":133,\"nonce\":890,\"has_error_in_internal_txs\":null,\"actions\":[],\"decoded_input\":null,\"token_transfers_overflow\":null,\"raw_input\":\"0x\",\"value\":\"784871000000000\",\"max_priority_fee_per_gas\":null,\"revert_reason\":null,\"confirmation_duration\":[0,12000],\"tx_tag\":null},{\"timestamp\":\"2024-06-12T20:53:59.000000Z\",\"fee\":{\"type\":\"actual\",\"value\":\"660288000000000\"},\"gas_limit\":\"57064\",\"block\":20078262,\"status\":\"ok\",\"method\":\"transfer\",\"confirmations\":1,\"type\":0,\"exchange_rate\":\"3554.69\",\"to\":{\"ens_domain_name\":null,\"hash\":\"0x7420B4b9a0110cdC71fB720908340C03F9Bc03EC\",\"implementation_name\":null,\"implementations\":[],\"is_contract\":true,\"is_verified\":true,\"metadata\":{\"tags\":[{\"meta\":{},\"name\":\"TOKEN CONTRACT\",\"ordinal\":0,\"slug\":\"token-contract\",\"tagType\":\"note\"},{\"meta\":{},\"name\":\"Jasmy: JASMY Token\",\"ordinal\":0,\"slug\":\"jasmy-jasmy-token\",\"tagType\":\"name\"}]},\"name\":\"JasmyCoin\",\"private_tags\":[],\"public_tags\":[],\"watchlist_names\":[]},\"tx_burnt_fee\":null,\"max_fee_per_gas\":null,\"result\":\"success\",\"hash\":\"0x228b86e59e5520749ebbe2c431079c0c1f7e3b8ef5a0471234c2c57f9679bb72\",\"gas_price\":\"19000000000\",\"priority_fee\":null,\"base_fee_per_gas\":\"18641029800\",\"from\":{\"ens_domain_name\":null,\"hash\":\"0x48c04ed5691981C42154C6167398f95e8f38a7fF\",\"implementation_name\":null,\"implementations\":[],\"is_contract\":false,\"is_verified\":null,\"metadata\":{\"tags\":[{\"meta\":{},\"name\":\"ChangeNOW 3\",\"ordinal\":0,\"slug\":\"changenow-3\",\"tagType\":\"name\"}]},\"name\":null,\"private_tags\":[],\"public_tags\":[],\"watchlist_names\":[]},\"token_transfers\":null,\"tx_types\":[\"contract_call\",\"token_transfer\"],\"gas_used\":\"34752\",\"created_contract\":null,\"position\":132,\"nonce\":1071090,\"has_error_in_internal_txs\":null,\"actions\":[],\"decoded_input\":{\"method_call\":\"transfer(address recipient, uint256 amount)\",\"method_id\":\"a9059cbb\",\"parameters\":[{\"name\":\"recipient\",\"type\":\"address\",\"value\":\"0x32f439c35e50022a17632899e68057747e1f9c80\"},{\"name\":\"amount\",\"type\":\"uint256\",\"value\":\"2192115474270000000000\"}]},\"token_transfers_overflow\":null,\"raw_input\":\"0xa9059cbb00000000000000000000000032f439c35e50022a17632899e68057747e1f9c80000000000000000000000000000000000000000000000076d5b6a185e44c2c00\",\"value\":\"0\",\"max_priority_fee_per_gas\":null,\"revert_reason\":null,\"confirmation_duration\":[0,12000],\"tx_tag\":null},{\"timestamp\":\"2024-06-12T20:53:59.000000Z\",\"fee\":{\"type\":\"actual\",\"value\":\"400417219167000\"},\"gas_limit\":\"21000\",\"block\":20078262,\"status\":\"ok\",\"method\":null,\"confirmations\":1,\"type\":2,\"exchange_rate\":\"3554.69\",\"to\":{\"ens_domain_name\":null,\"hash\":\"0x4f932FeD30b21d090CF56EeE241289Dded8AfB6C\",\"implementation_name\":null,\"implementations\":[],\"is_contract\":false,\"is_verified\":false,\"metadata\":null,\"name\":null,\"private_tags\":[],\"public_tags\":[],\"watchlist_names\":[]},\"tx_burnt_fee\":\"391461625800000\",\"max_fee_per_gas\":\"21534377839\",\"result\":\"success\",\"hash\":\"0x4141bda174297b1d4b99188bcf3eadfc046ba5162019cd232cbfac31a38f7d29\",\"gas_price\":\"19067486627\",\"priority_fee\":\"8955593367000\",\"base_fee_per_gas\":\"18641029800\",\"from\":{\"ens_domain_name\":null,\"hash\":\"0x3EEBBEBeCde31d36D6AA7AA4FE2A06159119b659\",\"implementation_name\":null,\"implementations\":[],\"is_contract\":false,\"is_verified\":null,\"metadata\":null,\"name\":null,\"private_tags\":[],\"public_tags\":[],\"watchlist_names\":[]},\"token_transfers\":null,\"tx_types\":[\"coin_transfer\"],\"gas_used\":\"21000\",\"created_contract\":null,\"position\":131,\"nonce\":30377,\"has_error_in_internal_txs\":null,\"actions\":[],\"decoded_input\":null,\"token_transfers_overflow\":null,\"raw_input\":\"0x\",\"value\":\"44598920000000000\",\"max_priority_fee_per_gas\":\"426456827\",\"revert_reason\":null,\"confirmation_duration\":[0,12000],\"tx_tag\":null},{\"timestamp\":\"2024-06-12T20:53:59.000000Z\",\"fee\":{\"type\":\"actual\",\"value\":\"861087696075320\"},\"gas_limit\":\"84000\",\"block\":20078262,\"status\":\"ok\",\"method\":\"0xa9059cbb\",\"confirmations\":1,\"type\":2,\"exchange_rate\":\"3554.69\",\"to\":{\"ens_domain_name\":null,\"hash\":\"0xA0b86991c6218b36c1d19D4a2e9Eb0cE3606eB48\",\"implementation_name\":null,\"implementations\":[{\"name\":null}],\"is_contract\":true,\"is_verified\":true,\"metadata\":{\"tags\":[{\"meta\":{},\"name\":\"Circle: USDC Token\",\"ordinal\":0,\"slug\":\"circle-usdc-token\",\"tagType\":\"name\"},{\"meta\":{},\"name\":\"TOKEN CONTRACT\",\"ordinal\":0,\"slug\":\"token-contract\",\"tagType\":\"note\"},{\"meta\":{},\"name\":\"CIRCLE\",\"ordinal\":0,\"slug\":\"circle\",\"tagType\":\"note\"},{\"meta\":{},\"name\":\"USDC\",\"ordinal\":0,\"slug\":\"usdc\",\"tagType\":\"note\"},{\"meta\":{},\"name\":\"STABLECOIN\",\"ordinal\":0,\"slug\":\"stablecoin\",\"tagType\":\"note\"}]},\"name\":\"USD Coin\",\"private_tags\":[],\"public_tags\":[],\"watchlist_names\":[]},\"tx_burnt_fee\":\"841828905768000\",\"max_fee_per_gas\":\"21534377839\",\"result\":\"success\",\"hash\":\"0xcef3d2bf66352fc2416434cb43a59a60546ae10420fd101963d18800caf8b9ac\",\"gas_price\":\"19067486627\",\"priority_fee\":\"19258790307320\",\"base_fee_per_gas\":\"18641029800\",\"from\":{\"ens_domain_name\":null,\"hash\":\"0x404460039499c774c48248552F802CE5dd482e32\",\"implementation_name\":null,\"implementations\":[],\"is_contract\":false,\"is_verified\":null,\"metadata\":null,\"name\":null,\"private_tags\":[],\"public_tags\":[],\"watchlist_names\":[]},\"token_transfers\":null,\"tx_types\":[\"contract_call\",\"token_transfer\"],\"gas_used\":\"45160\",\"created_contract\":null,\"position\":130,\"nonce\":47561,\"has_error_in_internal_txs\":null,\"actions\":[],\"decoded_input\":null,\"token_transfers_overflow\":null,\"raw_input\":\"0xa9059cbb0000000000000000000000008fb87565d194ea6029682c835be892adb4d8f0ff0000000000000000000000000000000000000000000000000000000004d3f640\",\"value\":\"0\",\"max_priority_fee_per_gas\":\"426456827\",\"revert_reason\":null,\"confirmation_duration\":[0,12000],\"tx_tag\":null},{\"timestamp\":\"2024-06-12T20:53:59.000000Z\",\"fee\":{\"type\":\"actual\",\"value\":\"402417484350000\"},\"gas_limit\":\"21000\",\"block\":20078262,\"status\":\"ok\",\"method\":null,\"confirmations\":1,\"type\":0,\"exchange_rate\":\"3554.69\",\"to\":{\"ens_domain_name\":null,\"hash\":\"0x2acf18818Fb2f1B492d42Ec07167997c0b8ba634\",\"implementation_name\":null,\"implementations\":[],\"is_contract\":false,\"is_verified\":false,\"metadata\":null,\"name\":null,\"private_tags\":[],\"public_tags\":[],\"watchlist_names\":[]},\"tx_burnt_fee\":null,\"max_fee_per_gas\":null,\"result\":\"success\",\"hash\":\"0x420d743487dd7de50c6443eb6eb1c9a6a0c76596313ca5cff442338bf39fdb7a\",\"gas_price\":\"19162737350\",\"priority_fee\":null,\"base_fee_per_gas\":\"18641029800\",\"from\":{\"ens_domain_name\":null,\"hash\":\"0x78D8FFcD2FD46CD1Cd3C77042A66D1d0C191E8f8\",\"implementation_name\":null,\"implementations\":[],\"is_contract\":false,\"is_verified\":null,\"metadata\":null,\"name\":null,\"private_tags\":[],\"public_tags\":[],\"watchlist_names\":[]},\"token_transfers\":null,\"tx_types\":[\"coin_transfer\"],\"gas_used\":\"21000\",\"created_contract\":null,\"position\":129,\"nonce\":0,\"has_error_in_internal_txs\":null,\"actions\":[],\"decoded_input\":null,\"token_transfers_overflow\":null,\"raw_input\":\"0x\",\"value\":\"41848902515650000\",\"max_priority_fee_per_gas\":null,\"revert_reason\":null,\"confirmation_duration\":[0,12000],\"tx_tag\":null}],\"next_page_params\":{\"block_number\":20078262,\"index\":129,\"items_count\":50}}",
    "headers": {
      "Content-Type": "application/json"
    }
  }
}