{
  "request": {
    "method": "GET",
    "urlPath": "/api/v2/transactions"
  },
  "response": {
    "status": 200,
    "body": "{\"items\":[{\"priority_fee\":\"0\",\"raw_input\":\"0x\",\"result\":\"success\",\"hash\":\"0xac55a749195b39c01ac2bcb51e688a438e4b73b8acc84fb12910937d99c58cd6\",\"max_fee_per_gas\":\"392347649\",\"revert_reason\":null,\"confirmation_duration\":[0,12000],\"transaction_burnt_fee\":\"8239300629000\",\"type\":2,\"token_transfers_overflow\":null,\"confirmations\":1,\"position\":322,\"max_priority_fee_per_gas\":\"0\",\"transaction_tag\":null,\"created_contract\":null,\"value\":\"16809443096945738\",\"from\":{\"ens_domain_name\":\"buildernet.eth\",\"hash\":\"0xdadB0d80178819F2319190D340ce9A924f783711\",\"implementations\":[],\"is_contract\":false,\"is_scam\":false,\"is_verified\":false,\"metadata\":{\"tags\":[{\"meta\":{},\"name\":\"MEV Builder\",\"ordinal\":0,\"slug\":\"mev-builder\",\"tagType\":\"generic\"},{\"meta\":{\"tooltipUrl\":\"https://buildernet.org/docs/public-identity\"},\"name\":\"BuilderNet\",\"ordinal\":10,\"slug\":\"buildernet\",\"tagType\":\"name\"}]},\"name\":null,\"private_tags\":[],\"proxy_type\":\"unknown\",\"public_tags\":[],\"watchlist_names\":[]},\"gas_used\":\"21000\",\"status\":\"ok\",\"to\":{\"ens_domain_name\":null,\"hash\":\"0xe688b84b23f322a994A53dbF8E15FA82CDB71127\",\"implementations\":[],\"is_contract\":false,\"is_scam\":false,\"is_verified\":false,\"metadata\":{\"tags\":[{\"meta\":{},\"name\":\"Fee Recipient: 0xe68...127\",\"ordinal\":10,\"slug\":\"fee-recipient-0xe68127\",\"tagType\":\"name\"},{\"meta\":{},\"name\":\"Fee Recipient\",\"ordinal\":0,\"slug\":\"fee-recipient\",\"tagType\":\"protocol\"}]},\"name\":null,\"private_tags\":[],\"proxy_type\":null,\"public_tags\":[],\"watchlist_names\":[]},\"authorization_list\":[],\"method\":null,\"fee\":{\"type\":\"actual\",\"value\":\"8239300629000\"},\"actions\":[],\"gas_limit\":\"21000\",\"gas_price\":\"392347649\",\"decoded_input\":null,\"token_transfers\":null,\"base_fee_per_gas\":\"392347649\",\"timestamp\":\"2025-08-11T09:32:59.000000Z\",\"nonce\":640381,\"historic_exchange_rate\":\"4272.89\",\"transaction_types\":[\"coin_transfer\"],\"exchange_rate\":\"4273.59\",\"block_number\":23116935,\"has_error_in_internal_transactions\":false},{\"priority_fee\":\"0\",\"raw_input\":\"0x\",\"result\":\"success\",\"hash\":\"0xffde1da37f4371136f4f8f84ab8193592c105b30a45a70a7c6aafa26ae2c5999\",\"max_fee_per_gas\":\"392347649\",\"revert_reason\":null,\"confirmation_duration\":[0,12000],\"transaction_burnt_fee\":\"8239300629000\",\"type\":2,\"token_transfers_overflow\":null,\"confirmations\":1,\"position\":321,\"max_priority_fee_per_gas\":\"0\",\"transaction_tag\":null,\"created_contract\":null,\"value\":\"174654512955547\",\"from\":{\"ens_domain_name\":\"buildernet.eth\",\"hash\":\"0xdadB0d80178819F2319190D340ce9A924f783711\",\"implementations\":[],\"is_contract\":false,\"is_scam\":false,\"is_verified\":false,\"metadata\":{\"tags\":[{\"meta\":{},\"name\":\"MEV Builder\",\"ordinal\":0,\"slug\":\"mev-builder\",\"tagType\":\"generic\"},{\"meta\":{\"tooltipUrl\":\"https://buildernet.org/docs/public-identity\"},\"name\":\"BuilderNet\",\"ordinal\":10,\"slug\":\"buildernet\",\"tagType\":\"name\"}]},\"name\":null,\"private_tags\":[],\"proxy_type\":\"unknown\",\"public_tags\":[],\"watchlist_names\":[]},\"gas_used\":\"21000\",\"status\":\"ok\",\"to\":{\"ens_domain_name\":null,\"hash\":\"0x9c1BECd2f442e86A326032eDBb644f38CE8BcE96\",\"implementations\":[],\"is_contract\":false,\"is_scam\":false,\"is_verified\":false,\"metadata\":null,\"name\":null,\"private_tags\":[],\"proxy_type\":null,\"public_tags\":[],\"watchlist_names\":[]},\"authorization_list\":[],\"method\":null,\"fee\":{\"type\":\"actual\",\"value\":\"8239300629000\"},\"actions\":[],\"gas_limit\":\"21000\",\"gas_price\":\"392347649\",\"decoded_input\":null,\"token_transfers\":null,\"base_fee_per_gas\":\"392347649\",\"timestamp\":\"2025-08-11T09:32:59.000000Z\",\"nonce\":640380,\"historic_exchange_rate\":\"4272.89\",\"transaction_types\":[\"coin_transfer\"],\"exchange_rate\":\"4273.59\",\"block_number\":23116935,\"has_error_in_internal_transactions\":false},{\"priority_fee\":\"0\",\"raw_input\":\"0x\",\"result\":\"success\",\"hash\":\"0x7b1142e5067831e81b60cbe17c6aac6839da592aafaf2e112afce01158f04600\",\"max_fee_per_gas\":\"392347649\",\"revert_reason\":null,\"confirmation_duration\":[0,12000],\"transaction_burnt_fee\":\"8239300629000\",\"type\":2,\"token_transfers_overflow\":null,\"confirmations\":1,\"position\":320,\"max_priority_fee_per_gas\":\"0\",\"transaction_tag\":null,\"created_contract\":null,\"value\":\"1415358512010352\",\"from\":{\"ens_domain_name\":\"buildernet.eth\",\"hash\":\"0xdadB0d80178819F2319190D340ce9A924f783711\",\"implementations\":[],\"is_contract\":false,\"is_scam\":false,\"is_verified\":false,\"metadata\":{\"tags\":[{\"meta\":{},\"name\":\"MEV Builder\",\"ordinal\":0,\"slug\":\"mev-builder\",\"tagType\":\"generic\"},{\"meta\":{\"tooltipUrl\":\"https://buildernet.org/docs/public-identity\"},\"name\":\"BuilderNet\",\"ordinal\":10,\"slug\":\"buildernet\",\"tagType\":\"name\"}]},\"name\":null,\"private_tags\":[],\"proxy_type\":\"unknown\",\"public_tags\":[],\"watchlist_names\":[]},\"gas_used\":\"21000\",\"status\":\"ok\",\"to\":{\"ens_domain_name\":null,\"hash\":\"0xcf0475d9B0a29975bc5132A3066010eC898d8CaB\",\"implementations\":[],\"is_contract\":false,\"is_scam\":false,\"is_verified\":false,\"metadata\":null,\"name\":null,\"private_tags\":[],\"proxy_type\":null,\"public_tags\":[],\"watchlist_names\":[]},\"authorization_list\":[],\"method\":null,\"fee\":{\"type\":\"actual\",\"value\":\"8239300629000\"},\"actions\":[],\"gas_limit\":\"21000\",\"gas_price\":\"392347649\",\"decoded_input\":null,\"token_transfers\":null,\"base_fee_per_gas\":\"392347649\",\"timestamp\":\"2025-08-11T09:32:59.000000Z\",\"nonce\":640379,\"historic_exchange_rate\":\"4272.89\",\"transaction_types\":[\"coin_transfer\"],\"exchange_rate\":\"4273.59\",\"block_number\":23116935,\"has_error_in_internal_transactions\":false},{\"priority_fee\":\"0\",\"raw_input\":\"0x\",\"result\":\"success\",\"hash\":\"0x2b43906858b57062c7c7be2b123bc4cec7e08d9500d31ac53140b3ae2bc2a75d\",\"max_fee_per_gas\":\"392347649\",\"revert_reason\":null,\"confirmation_duration\":[0,12000],\"transaction_burnt_fee\":\"8239300629000\",\"type\":2,\"token_transfers_overflow\":null,\"confirmations\":1,\"position\":319,\"max_priority_fee_per_gas\":\"0\",\"transaction_tag\":null,\"created_contract\":null,\"value\":\"923247148861812\",\"from\":{\"ens_domain_name\":\"buildernet.eth\",\"hash\":\"0xdadB0d80178819F2319190D340ce9A924f783711\",\"implementations\":[],\"is_contract\":false,\"is_scam\":false,\"is_verified\":false,\"metadata\":{\"tags\":[{\"meta\":{},\"name\":\"MEV Builder\",\"ordinal\":0,\"slug\":\"mev-builder\",\"tagType\":\"generic\"},{\"meta\":{\"tooltipUrl\":\"https://buildernet.org/docs/public-identity\"},\"name\":\"BuilderNet\",\"ordinal\":10,\"slug\":\"buildernet\",\"tagType\":\"name\"}]},\"name\":null,\"private_tags\":[],\"proxy_type\":\"unknown\",\"public_tags\":[],\"watchlist_names\":[]},\"gas_used\":\"21000\",\"status\":\"ok\",\"to\":{\"ens_domain_name\":null,\"hash\":\"0xB423b53D9076b325c0248D62eF74b11adC211020\",\"implementations\":[],\"is_contract\":false,\"is_scam\":false,\"is_verified\":false,\"metadata\":null,\"name\":null,\"private_tags\":[],\"proxy_type\":null,\"public_tags\":[],\"watchlist_names\":[]},\"authorization_list\":[],\"method\":null,\"fee\":{\"type\":\"actual\",\"value\":\"8239300629000\"},\"actions\":[],\"gas_limit\":\"21000\",\"gas_price\":\"392347649\",\"decoded_input\":null,\"token_transfers\":null,\"base_fee_per_gas\":\"392347649\",\"timestamp\":\"2025-08-11T09:32:59.000000Z\",\"nonce\":640378,\"historic_exchange_rate\":\"4272.89\",\"transaction_types\":[\"coin_transfer\"],\"exchange_rate\":\"4273.59\",\"block_number\":23116935,\"has_error_in_internal_transactions\":false},{\"priority_fee\":\"0\",\"raw_input\":\"0x\",\"result\":\"success\",\"hash\":\"0x1dfb6b98de7e06350843d497f3e763dbff4090740d7e45c44d3d6bc72ae2a9a1\",\"max_fee_per_gas\":\"392347649\",\"revert_reason\":null,\"confirmation_duration\":[0,12000],\"transaction_burnt_fee\":\"8239300629000\",\"type\":2,\"token_transfers_overflow\":null,\"confirmations\":1,\"position\":318,\"max_priority_fee_per_gas\":\"0\",\"transaction_tag\":null,\"created_contract\":null,\"value\":\"1327349409792653\",\"from\":{\"ens_domain_name\":\"buildernet.eth\",\"hash\":\"0xdadB0d80178819F2319190D340ce9A924f783711\",\"implementations\":[],\"is_contract\":false,\"is_scam\":false,\"is_verified\":false,\"metadata\":{\"tags\":[{\"meta\":{},\"name\":\"MEV Builder\",\"ordinal\":0,\"slug\":\"mev-builder\",\"tagType\":\"generic\"},{\"meta\":{\"tooltipUrl\":\"https://buildernet.org/docs/public-identity\"},\"name\":\"BuilderNet\",\"ordinal\":10,\"slug\":\"buildernet\",\"tagType\":\"name\"}]},\"name\":null,\"private_tags\":[],\"proxy_type\":\"unknown\",\"public_tags\":[],\"watchlist_names\":[]},\"gas_used\":\"21000\",\"status\":\"ok\",\"to\":{\"ens_domain_name\":null,\"hash\":\"0x03E8482c2BbF8247361b1D6000f138d9f9CA9CD7\",\"implementations\":[],\"is_contract\":false,\"is_scam\":false,\"is_verified\":false,\"metadata\":null,\"name\":null,\"private_tags\":[],\"proxy_type\":null,\"public_tags\":[],\"watchlist_names\":[]},\"authorization_list\":[],\"method\":null,\"fee\":{\"type\":\"actual\",\"value\":\"8239300629000\"},\"actions\":[],\"gas_limit\":\"21000\",\"gas_price\":\"392347649\",\"decoded_input\":null,\"token_transfers\":null,\"base_fee_per_gas\":\"392347649\",\"timestamp\":\"2025-08-11T09:32:59.000000Z\",\"nonce\":640377,\"historic_exchange_rate\":\"4272.89\",\"transaction_types\":[\"coin_transfer\"],\"exchange_rate\":\"4273.59\",\"block_number\":23116935,\"has_error_in_internal_transactions\":false},{\"priority_fee\":\"0\",\"raw_input\":\"0x\",\"result\":\"success\",\"hash\":\"0x957c5715f78cdbcfdad3e4903349ad47eacd8db6003a1154a9866e2866ebac1b\",\"max_fee_per_gas\":\"392347649\",\"revert_reason\":null,\"confirmation_duration\":[0,12000],\"transaction_burnt_fee\":\"8239300629000\",\"type\":2,\"token_transfers_overflow\":null,\"confirmations\":1,\"position\":317,\"max_priority_fee_per_gas\":\"0\",\"transaction_tag\":null,\"created_contract\":null,\"value\":\"2380153533057847\",\"from\":{\"ens_domain_name\":\"buildernet.eth\",\"hash\":\"0xdadB0d80178819F2319190D340ce9A924f783711\",\"implementations\":[],\"is_contract\":false,\"is_scam\":false,\"is_verified\":false,\"metadata\":{\"tags\":[{\"meta\":{},\"name\":\"MEV Builder\",\"ordinal\":0,\"slug\":\"mev-builder\",\"tagType\":\"generic\"},{\"meta\":{\"tooltipUrl\":\"https://buildernet.org/docs/public-identity\"},\"name\":\"BuilderNet\",\"ordinal\":10,\"slug\":\"buildernet\",\"tagType\":\"name\"}]},\"name\":null,\"private_tags\":[],\"proxy_type\":\"unknown\",\"public_tags\":[],\"watchlist_names\":[]},\"gas_used\":\"21000\",\"status\":\"ok\",\"to\":{\"ens_domain_name\":null,\"hash\":\"0x3B932e1BBE73076995faE219f0B05F6546733EDF\",\"implementations\":[],\"is_contract\":false,\"is_scam\":false,\"is_verified\":false,\"metadata\":null,\"name\":null,\"private_tags\":[],\"proxy_type\":null,\"public_tags\":[],\"watchlist_names\":[]},\"authorization_list\":[],\"method\":null,\"fee\":{\"type\":\"actual\",\"value\":\"8239300629000\"},\"actions\":[],\"gas_limit\":\"21000\",\"gas_price\":\"392347649\",\"decoded_input\":null,\"token_transfers\":null,\"base_fee_per_gas\":\"392347649\",\"timestamp\":\"2025-08-11T09:32:59.000000Z\",\"nonce\":640376,\"historic_exchange_rate\":\"4272.89\",\"transaction_types\":[\"coin_transfer\"],\"exchange_rate\":\"4273.59\",\"block_number\":23116935,\"has_error_in_internal_transactions\":false},{\"priority_fee\":\"0\",\"raw_input\":\"0xff190b9f000000000000000000000000aa7ab6f90889d56b79df8bf53c007b9a41237de6000000000000000000000000000000000000000000000000000278a3cfe1a1b8000000000000000000000000000000000000000000000000000000006899bd6b\",\"result\":\"success\",\"hash\":\"0x43ba716373fcb315534d0e2cdac2f619aa1756c8b5a30d096ba8028e455ca235\",\"max_fee_per_gas\":\"844140090\",\"revert_reason\":null,\"confirmation_duration\":[0,12000],\"transaction_burnt_fee\":\"53853245954091\",\"type\":2,\"token_transfers_overflow\":null,\"confirmations\":1,\"position\":316,\"max_priority_fee_per_gas\":\"0\",\"transaction_tag\":null,\"created_contract\":null,\"value\":\"1800000000000000\",\"from\":{\"ens_domain_name\":null,\"hash\":\"0xC023a328c0E641c6D5321E007716599F92C00720\",\"implementations\":[],\"is_contract\":false,\"is_scam\":false,\"is_verified\":false,\"metadata\":null,\"name\":null,\"private_tags\":[],\"proxy_type\":null,\"public_tags\":[],\"watchlist_names\":[]},\"gas_used\":\"137259\",\"status\":\"ok\",\"to\":{\"ens_domain_name\":null,\"hash\":\"0x1793302C9C2693c3454eD1DaB4e6218E321Fa1DE\",\"implementations\":[],\"is_contract\":true,\"is_scam\":false,\"is_verified\":false,\"metadata\":null,\"name\":null,\"private_tags\":[],\"proxy_type\":\"unknown\",\"public_tags\":[],\"watchlist_names\":[]},\"authorization_list\":[],\"method\":\"0xff190b9f\",\"fee\":{\"type\":\"actual\",\"value\":\"53853245954091\"},\"actions\":[],\"gas_limit\":\"193692\",\"gas_price\":\"392347649\",\"decoded_input\":null,\"token_transfers\":null,\"base_fee_per_gas\":\"392347649\",\"timestamp\":\"2025-08-11T09:32:59.000000Z\",\"nonce\":499,\"historic_exchange_rate\":\"4272.89\",\"transaction_types\":[\"coin_transfer\",\"contract_call\",\"token_transfer\"],\"exchange_rate\":\"4273.59\",\"block_number\":23116935,\"has_error_in_internal_transactions\":false},{\"priority_fee\":\"0\",\"raw_input\":\"0x9b4f3af5000000000000000000000000065fbde7142ef3add5f36b24d34242e7bcb6d1070000000000000000000000000000000000000000000000000000000000000000000000000000000000000000000000000000000000000000000000000000000100000000000000000000000000000000000000000000000000000000000000800000000000000000000000000000000000000000000000000000000000000000\",\"result\":\"success\",\"hash\":\"0xe38d011384807448d8066942235eabd2e67d61e700111d26380668cdae22b092\",\"max_fee_per_gas\":\"403573827\",\"revert_reason\":null,\"confirmation_duration\":[0,12000],\"transaction_burnt_fee\":\"35895101711712\",\"type\":2,\"token_transfers_overflow\":null,\"confirmations\":1,\"position\":315,\"max_priority_fee_per_gas\":\"0\",\"transaction_tag\":null,\"created_contract\":null,\"value\":\"0\",\"from\":{\"ens_domain_name\":null,\"hash\":\"0x065FbDe7142eF3adD5f36b24D34242E7bCb6d107\",\"implementations\":[],\"is_contract\":false,\"is_scam\":false,\"is_verified\":false,\"metadata\":null,\"name\":null,\"private_tags\":[],\"proxy_type\":null,\"public_tags\":[],\"watchlist_names\":[]},\"gas_used\":\"91488\",\"status\":\"ok\",\"to\":{\"ens_domain_name\":null,\"hash\":\"0xcAA3C093C16eA400ecB5Ab323075826E8E87E05B\",\"implementations\":[{\"address\":\"0x000000005e0041e1497E0Bb039d8648656138C1c\",\"address_hash\":\"0x000000005e0041e1497E0Bb039d8648656138C1c\",\"name\":null}],\"is_contract\":true,\"is_scam\":false,\"is_verified\":false,\"metadata\":null,\"name\":\"Blue love star\",\"private_tags\":[],\"proxy_type\":\"eip1167\",\"public_tags\":[],\"watchlist_names\":[]},\"authorization_list\":[],\"method\":\"mintPublic\",\"fee\":{\"type\":\"actual\",\"value\":\"35895101711712\"},\"actions\":[],\"gas_limit\":\"260032\",\"gas_price\":\"392347649\",\"decoded_input\":{\"method_call\":\"mintPublic(address to, uint256 tokenId, uint256 qty, bytes data)\",\"method_id\":\"9b4f3af5\",\"parameters\":[{\"name\":\"to\",\"type\":\"address\",\"value\":\"0x065FbDe7142eF3adD5f36b24D34242E7bCb6d107\"},{\"name\":\"tokenId\",\"type\":\"uint256\",\"value\":\"0\"},{\"name\":\"qty\",\"type\":\"uint256\",\"value\":\"1\"},{\"name\":\"data\",\"type\":\"bytes\",\"value\":\"0x\"}]},\"token_transfers\":null,\"base_fee_per_gas\":\"392347649\",\"timestamp\":\"2025-08-11T09:32:59.000000Z\",\"nonce\":1,\"historic_exchange_rate\":\"4272.89\",\"transaction_types\":[\"contract_call\",\"token_transfer\"],\"exchange_rate\":\"4273.59\",\"block_number\":23116935,\"has_error_in_internal_transactions\":false},{\"priority_fee\":\"21000\",\"raw_input\":\"0x\",\"result\":\"success\",\"hash\":\"0x0aa63453c70b9cd127f516a47abdc5f132d8c1033f9660a18fb076f39cf3a17f\",\"max_fee_per_gas\":\"443821210\",\"revert_reason\":null,\"confirmation_duration\":[0,12000],\"transaction_burnt_fee\":\"8239300629000\",\"type\":2,\"token_transfers_overflow\":null,\"confirmations\":1,\"position\":314,\"max_priority_fee_per_gas\":\"1\",\"transaction_tag\":null,\"created_contract\":null,\"value\":\"1000000000000\",\"from\":{\"ens_domain_name\":null,\"hash\":\"0x2B519CCBe966a92B13623eAab006343513cdE703\",\"implementations\":[],\"is_contract\":false,\"is_scam\":false,\"is_verified\":false,\"metadata\":null,\"name\":null,\"private_tags\":[],\"proxy_type\":null,\"public_tags\":[],\"watchlist_names\":[]},\"gas_used\":\"21000\",\"status\":\"ok\",\"to\":{\"ens_domain_name\":null,\"hash\":\"0xbe912363C308FD265c354291a1d67d9c42050feF\",\"implementations\":[],\"is_contract\":false,\"is_scam\":false,\"is_verified\":false,\"metadata\":null,\"name\":null,\"private_tags\":[],\"proxy_type\":null,\"public_tags\":[],\"watchlist_names\":[]},\"authorization_list\":[],\"method\":null,\"fee\":{\"type\":\"actual\",\"value\":\"8239300650000\"},\"actions\":[],\"gas_limit\":\"21000\",\"gas_price\":\"392347650\",\"decoded_input\":null,\"token_transfers\":null,\"base_fee_per_gas\":\"392347649\",\"timestamp\":\"2025-08-11T09:32:59.000000Z\",\"nonce\":0,\"historic_exchange_rate\":\"4272.89\",\"transaction_types\":[\"coin_transfer\"],\"exchange_rate\":\"4273.59\",\"block_number\":23116935,\"has_error_in_internal_transactions\":false},{\"priority_fee\":\"175096\",\"raw_input\":\"0x0f26eb210000000000000000000000000000000000000000000000000000000000000060000000000000000000000000000000000000000000000000000000000000010000000000000000000000000000000000000000000000000000000000000001a00000000000000000000000000000000000000000000000000000000000000004000000000000000000000000872de41e8ba920bb7399f2b3c062463b31912f47000000000000000000000000872de41e8ba920bb7399f2b3c062463b31912f47000000000000000000000000bf179b29a32634304df9e24b79736a0c23d1304d000000000000000000000000bf179b29a32634304df9e24b79736a0c23d1304d00000000000000000000000000000000000000000000000000000000000000040000000000000000000000000000000000000000000000000000000000000000000000000000000000000000dac17f958d2ee523a2206206994597c13d831ec70000000000000000000000000000000000000000000000000000000000000000000000000000000000000000dac17f958d2ee523a2206206994597c13d831ec700000000000000000000000000000000000000000000000000000000000000040000000000000000000000000000000000000000000000000000199b26f5106000000000000000000000000000000000000000000000000000000000000027100000000000000000000000000000000000000000000000000000199b26f510600000000000000000000000000000000000000000000000000000000000002710\",\"result\":\"success\",\"hash\":\"0x39afc700eac9762b40d14302c0b1efbf3853ed0ee9a9e57e1b57e18cc01fabdb\",\"max_fee_per_gas\":\"482642815\",\"revert_reason\":null,\"confirmation_duration\":[0,12000],\"transaction_burnt_fee\":\"68698503949304\",\"type\":2,\"token_transfers_overflow\":null,\"confirmations\":1,\"position\":313,\"max_priority_fee_per_gas\":\"1\",\"transaction_tag\":null,\"created_contract\":null,\"value\":\"0\",\"from\":{\"ens_domain_name\":null,\"hash\":\"0x273110a68d39a8C88e81f3c54096e6F723FB5Cb2\",\"implementations\":[],\"is_contract\":false,\"is_scam\":false,\"is_verified\":false,\"metadata\":null,\"name\":null,\"private_tags\":[],\"proxy_type\":null,\"public_tags\":[],\"watchlist_names\":[]},\"gas_used\":\"175096\",\"status\":\"ok\",\"to\":{\"ens_domain_name\":null,\"hash\":\"0x4eb400703D469ee0bA055A300CA9328bf38AE396\",\"implementations\":[],\"is_contract\":true,\"is_scam\":false,\"is_verified\":false,\"metadata\":null,\"name\":null,\"private_tags\":[],\"proxy_type\":null,\"public_tags\":[],\"watchlist_names\":[]},\"authorization_list\":[],\"method\":\"0x0f26eb21\",\"fee\":{\"type\":\"actual\",\"value\":\"68698504124400\"},\"actions\":[],\"gas_limit\":\"213183\",\"gas_price\":\"392347650\",\"decoded_input\":null,\"token_transfers\":null,\"base_fee_per_gas\":\"392347649\",\"timestamp\":\"2025-08-11T09:32:59.000000Z\",\"nonce\":171,\"historic_exchange_rate\":\"4272.89\",\"transaction_types\":[\"contract_call\",\"token_transfer\"],\"exchange_rate\":\"4273.59\",\"block_number\":23116935,\"has_error_in_internal_transactions\":false},{\"priority_fee\":\"2100000000\",\"raw_input\":\"0x\",\"result\":\"success\",\"hash\":\"0x21430b6b9e67300edfd45fa343f216549af3312b3d36e0840bf0bb4913ea2166\",\"max_fee_per_gas\":\"504442284\",\"revert_reason\":null,\"confirmation_duration\":[0,12000],\"transaction_burnt_fee\":\"8239300629000\",\"type\":2,\"token_transfers_overflow\":null,\"confirmations\":1,\"position\":312,\"max_priority_fee_per_gas\":\"100000\",\"transaction_tag\":null,\"created_contract\":null,\"value\":\"93247165081968\",\"from\":{\"ens_domain_name\":null,\"hash\":\"0x4945cE2d1B5BD904CAc839b7FDAbAfd19Cab982b\",\"implementations\":[],\"is_contract\":false,\"is_scam\":false,\"is_verified\":false,\"metadata\":{\"tags\":[{\"meta\":{\"main_entity\":\"Bitrefill\"},\"name\":\"Bitrefill: Hot Wallet\",\"ordinal\":10,\"slug\":\"bitrefill-hot-wallet\",\"tagType\":\"name\"},{\"meta\":{\"alertStatus\":\"info\",\"data\":\"Submitted by Blockmage Labs.\"},\"name\":\"note_0\",\"ordinal\":0,\"slug\":\"note0\",\"tagType\":\"note\"},{\"meta\":{},\"name\":\"Bitrefill\",\"ordinal\":0,\"slug\":\"bitrefill\",\"tagType\":\"protocol\"},{\"meta\":{},\"name\":\"Exchange\",\"ordinal\":0,\"slug\":\"exchange\",\"tagType\":\"generic\"},{\"meta\":{\"tooltipUrl\":\"https://www.bitrefill.com/buy\"},\"name\":\"Bitrefill: Payment Gateway\",\"ordinal\":10,\"slug\":\"bitrefill-payment-gateway\",\"tagType\":\"name\"},{\"meta\":{},\"name\":\"HOT WALLET\",\"ordinal\":0,\"slug\":\"hot-wallet\",\"tagType\":\"generic\"}]},\"name\":null,\"private_tags\":[],\"proxy_type\":\"unknown\",\"public_tags\":[],\"watchlist_names\":[]},\"gas_used\":\"21000\",\"status\":\"ok\",\"to\":{\"ens_domain_name\":null,\"hash\":\"0xcA2211b496178c7C55D060ffeF0824879A68Aa4d\",\"implementations\":[],\"is_contract\":false,\"is_scam\":false,\"is_verified\":false,\"metadata\":null,\"name\":null,\"private_tags\":[],\"proxy_type\":null,\"public_tags\":[],\"watchlist_names\":[]},\"authorization_list\":[],\"method\":null,\"fee\":{\"type\":\"actual\",\"value\":\"8241400629000\"},\"actions\":[],\"gas_limit\":\"21000\",\"gas_price\":\"392447649\",\"decoded_input\":null,\"token_transfers\":null,\"base_fee_per_gas\":\"392347649\",\"timestamp\":\"2025-08-11T09:32:59.000000Z\",\"nonce\":21782,\"historic_exchange_rate\":\"4272.89\",\"transaction_types\":[\"coin_transfer\"],\"exchange_rate\":\"4273.59\",\"block_number\":23116935,\"has_error_in_internal_transactions\":false},{\"priority_fee\":\"2100000000\",\"raw_input\":\"0x\",\"result\":\"success\",\"hash\":\"0x5b6b05811e935f2eb8accc0d70829e015d800429df36b7e02f0d4a87b4585fb1\",\"max_fee_per_gas\":\"402302345\",\"revert_reason\":null,\"confirmation_duration\":[0,12000],\"transaction_burnt_fee\":\"8239300629000\",\"type\":2,\"token_transfers_overflow\":null,\"confirmations\":1,\"position\":311,\"max_priority_fee_per_gas\":\"100000\",\"transaction_tag\":null,\"created_contract\":null,\"value\":\"5970000000000\",\"from\":{\"ens_domain_name\":null,\"hash\":\"0x78E6ce87B41F75745Afa091e44Bc397D48e3B807\",\"implementations\":[],\"is_contract\":false,\"is_scam\":false,\"is_verified\":false,\"metadata\":null,\"name\":null,\"private_tags\":[],\"proxy_type\":null,\"public_tags\":[],\"watchlist_names\":[]},\"gas_used\":\"21000\",\"status\":\"ok\",\"to\":{\"ens_domain_name\":null,\"hash\":\"0x7188A9E32DdF6C8E0Da499CB2012c33ad353eE73\",\"implementations\":[],\"is_contract\":false,\"is_scam\":false,\"is_verified\":false,\"metadata\":null,\"name\":null,\"private_tags\":[],\"proxy_type\":null,\"public_tags\":[],\"watchlist_names\":[]},\"authorization_list\":[],\"method\":null,\"fee\":{\"type\":\"actual\",\"value\":\"8241400629000\"},\"actions\":[],\"gas_limit\":\"21000\",\"gas_price\":\"392447649\",\"decoded_input\":null,\"token_transfers\":null,\"base_fee_per_gas\":\"392347649\",\"timestamp\":\"2025-08-11T09:32:59.000000Z\",\"nonce\":9,\"historic_exchange_rate\":\"4272.89\",\"transaction_types\":[\"coin_transfer\"],\"exchange_rate\":\"4273.59\",\"block_number\":23116935,\"has_error_in_internal_transactions\":false},{\"priority_fee\":\"2100000000\",\"raw_input\":\"0x\",\"result\":\"success\",\"hash\":\"0x73ebc77902a6fbfc763472a9293fcbc9a2f6f0cbb08cde91e78b306d0a257e1d\",\"max_fee_per_gas\":\"1000000000\",\"revert_reason\":null,\"confirmation_duration\":[0,12000],\"transaction_burnt_fee\":\"8239300629000\",\"type\":2,\"token_transfers_overflow\":null,\"confirmations\":1,\"position\":310,\"max_priority_fee_per_gas\":\"100000\",\"transaction_tag\":null,\"created_contract\":null,\"value\":\"299700000000000000\",\"from\":{\"ens_domain_name\":null,\"hash\":\"0xf943C01C3D4F72B0AbCCC56A076F6985d94F45D7\",\"implementations\":[],\"is_contract\":false,\"is_scam\":false,\"is_verified\":false,\"metadata\":null,\"name\":null,\"private_tags\":[],\"proxy_type\":null,\"public_tags\":[],\"watchlist_names\":[]},\"gas_used\":\"21000\",\"status\":\"ok\",\"to\":{\"ens_domain_name\":null,\"hash\":\"0xFd2fE094558BA171dc30D72C2899852594D38cfF\",\"implementations\":[],\"is_contract\":false,\"is_scam\":false,\"is_verified\":false,\"metadata\":null,\"name\":null,\"private_tags\":[],\"proxy_type\":null,\"public_tags\":[],\"watchlist_names\":[]},\"authorization_list\":[],\"method\":null,\"fee\":{\"type\":\"actual\",\"value\":\"8241400629000\"},\"actions\":[],\"gas_limit\":\"31500\",\"gas_price\":\"392447649\",\"decoded_input\":null,\"token_transfers\":null,\"base_fee_per_gas\":\"392347649\",\"timestamp\":\"2025-08-11T09:32:59.000000Z\",\"nonce\":53,\"historic_exchange_rate\":\"4272.89\",\"transaction_types\":[\"coin_transfer\"],\"exchange_rate\":\"4273.59\",\"block_number\":23116935,\"has_error_in_internal_transactions\":false},{\"priority_fee\":\"2100000000\",\"raw_input\":\"0x\",\"result\":\"success\",\"hash\":\"0x359d82620021e1229578347d5360f21b3d30ce182013aa35e1ecb6142f5c1b48\",\"max_fee_per_gas\":\"493501086\",\"revert_reason\":null,\"confirmation_duration\":[0,12000],\"transaction_burnt_fee\":\"8239300629000\",\"type\":2,\"token_transfers_overflow\":null,\"confirmations\":1,\"position\":309,\"max_priority_fee_per_gas\":\"100000\",\"transaction_tag\":null,\"created_contract\":null,\"value\":\"42169636477194000\",\"from\":{\"ens_domain_name\":null,\"hash\":\"0xF67c2669e3357301303df33C74FB716bc3ED2947\",\"implementations\":[],\"is_contract\":false,\"is_scam\":false,\"is_verified\":false,\"metadata\":null,\"name\":null,\"private_tags\":[],\"proxy_type\":\"unknown\",\"public_tags\":[],\"watchlist_names\":[]},\"gas_used\":\"21000\",\"status\":\"ok\",\"to\":{\"ens_domain_name\":null,\"hash\":\"0x4eCb6E49F803FEaF164736D0e028F598fA4cace9\",\"implementations\":[],\"is_contract\":false,\"is_scam\":false,\"is_verified\":false,\"metadata\":null,\"name\":null,\"private_tags\":[],\"proxy_type\":null,\"public_tags\":[],\"watchlist_names\":[]},\"authorization_list\":[],\"method\":null,\"fee\":{\"type\":\"actual\",\"value\":\"8241400629000\"},\"actions\":[],\"gas_limit\":\"21000\",\"gas_price\":\"392447649\",\"decoded_input\":null,\"token_transfers\":null,\"base_fee_per_gas\":\"392347649\",\"timestamp\":\"2025-08-11T09:32:59.000000Z\",\"nonce\":662,\"historic_exchange_rate\":\"4272.89\",\"transaction_types\":[\"coin_transfer\"],\"exchange_rate\":\"4273.59\",\"block_number\":23116935,\"has_error_in_internal_transactions\":false},{\"priority_fee\":\"2100000000\",\"raw_input\":\"0x\",\"result\":\"success\",\"hash\":\"0xfd7e11ca0fce7f1cf3938de112b95d91dff672ddfbe3d2ff853e824d4885e669\",\"max_fee_per_gas\":\"807147654\",\"revert_reason\":null,\"confirmation_duration\":[0,12000],\"transaction_burnt_fee\":\"8239300629000\",\"type\":2,\"token_transfers_overflow\":null,\"confirmations\":1,\"position\":308,\"max_priority_fee_per_gas\":\"100000\",\"transaction_tag\":null,\"created_contract\":null,\"value\":\"199000000001007\",\"from\":{\"ens_domain_name\":\"memebridge.eth\",\"hash\":\"0x623777Cc098C6058a46cF7530f45150ff6a8459D\",\"implementations\":[],\"is_contract\":false,\"is_scam\":false,\"is_verified\":false,\"metadata\":null,\"name\":null,\"private_tags\":[],\"proxy_type\":null,\"public_tags\":[],\"watchlist_names\":[]},\"gas_used\":\"21000\",\"status\":\"ok\",\"to\":{\"ens_domain_name\":null,\"hash\":\"0xAd446715ABe700CF51D2c840B3939eFb5da98A8B\",\"implementations\":[],\"is_contract\":false,\"is_scam\":false,\"is_verified\":false,\"metadata\":null,\"name\":null,\"private_tags\":[],\"proxy_type\":null,\"public_tags\":[],\"watchlist_names\":[]},\"authorization_list\":[],\"method\":null,\"fee\":{\"type\":\"actual\",\"value\":\"8241400629000\"},\"actions\":[],\"gas_limit\":\"21000\",\"gas_price\":\"392447649\",\"decoded_input\":null,\"token_transfers\":null,\"base_fee_per_gas\":\"392347649\",\"timestamp\":\"2025-08-11T09:32:59.000000Z\",\"nonce\":332126,\"historic_exchange_rate\":\"4272.89\",\"transaction_types\":[\"coin_transfer\"],\"exchange_rate\":\"4273.59\",\"block_number\":23116935,\"has_error_in_internal_transactions\":false},{\"priority_fee\":\"2310000000\",\"raw_input\":\"0x\",\"result\":\"success\",\"hash\":\"0x20a5e6f9a4d117f4da2c680b2cce486be94745ca15baa047709d6899dadb9fb6\",\"max_fee_per_gas\":\"395740319\",\"revert_reason\":null,\"confirmation_duration\":[0,12000],\"transaction_burnt_fee\":\"8239300629000\",\"type\":2,\"token_transfers_overflow\":null,\"confirmations\":1,\"position\":307,\"max_priority_fee_per_gas\":\"110000\",\"transaction_tag\":null,\"created_contract\":null,\"value\":\"113000000000\",\"from\":{\"ens_domain_name\":null,\"hash\":\"0xA08419c79Bb0dD18C74179971DFC70647C93c268\",\"implementations\":[],\"is_contract\":false,\"is_scam\":false,\"is_verified\":false,\"metadata\":null,\"name\":null,\"private_tags\":[],\"proxy_type\":null,\"public_tags\":[],\"watchlist_names\":[]},\"gas_used\":\"21000\",\"status\":\"ok\",\"to\":{\"ens_domain_name\":null,\"hash\":\"0xA08419c79Bb0dD18C74179971DFC70647C93c268\",\"implementations\":[],\"is_contract\":false,\"is_scam\":false,\"is_verified\":false,\"metadata\":null,\"name\":null,\"private_tags\":[],\"proxy_type\":null,\"public_tags\":[],\"watchlist_names\":[]},\"authorization_list\":[],\"method\":null,\"fee\":{\"type\":\"actual\",\"value\":\"8241610629000\"},\"actions\":[],\"gas_limit\":\"21000\",\"gas_price\":\"392457649\",\"decoded_input\":null,\"token_transfers\":null,\"base_fee_per_gas\":\"392347649\",\"timestamp\":\"2025-08-11T09:32:59.000000Z\",\"nonce\":1,\"historic_exchange_rate\":\"4272.89\",\"transaction_types\":[\"coin_transfer\"],\"exchange_rate\":\"4273.59\",\"block_number\":23116935,\"has_error_in_internal_transactions\":false},{\"priority_fee\":\"3245000000\",\"raw_input\":\"0x9e07f0db0000000000000000000000002fd54327f0a5b7b6d94a5272c43bb491bc4e0b660000000000000000000000000000000000000000000030116e0affcba005e800ca3394a1ddd562331166febac49e45e8086fd80f3d44042aa171e178e7c1d69ca47f0d0f866377afb2a4d01b52908049e3e90b291eba0fa5419174a08b44222200000000000000000000000000000000000000000000000000000000000000c0000000000000000000000000000000000000000000000000000000000000014000000000000000000000000000000000000000000000000000000000000000418c8f6e321a626c57239bb46a43aae63b4a2059acc49110cb8bfaa1c40b9377d12bfd940196b6fc47807bf68f90db5950452e18c191924c5041fe6370eb7600661c000000000000000000000000000000000000000000000000000000000000000000000000000000000000000000000000000000000000000000000000000041febfb63df76183de285d3eb7b3463bec9dbf3b922317373e3478462bf0c7dcd9055469a239cb4c7dc484b1448b5868de652d9ecb7a49f64799c87056bdf0b4501c00000000000000000000000000000000000000000000000000000000000000\",\"result\":\"Reverted\",\"hash\":\"0x5f62da61c17008215090d40adb60a7c4d32ed128f121cbdc31cbe32ce4c4d91f\",\"max_fee_per_gas\":\"822806702\",\"revert_reason\":{\"raw\":null},\"confirmation_duration\":[0,12000],\"transaction_burnt_fee\":\"12731681210050\",\"type\":2,\"token_transfers_overflow\":null,\"confirmations\":1,\"position\":306,\"max_priority_fee_per_gas\":\"100000\",\"transaction_tag\":null,\"created_contract\":null,\"value\":\"0\",\"from\":{\"ens_domain_name\":null,\"hash\":\"0xCb6CbFfd05ac7d3c118EDda5099462B4E10A1468\",\"implementations\":[],\"is_contract\":false,\"is_scam\":false,\"is_verified\":false,\"metadata\":null,\"name\":null,\"private_tags\":[],\"proxy_type\":null,\"public_tags\":[],\"watchlist_names\":[]},\"gas_used\":\"32450\",\"status\":\"error\",\"to\":{\"ens_domain_name\":null,\"hash\":\"0x46b0EF8603fDA297f16Dc80742Af4796dD747fa5\",\"implementations\":[],\"is_contract\":true,\"is_scam\":false,\"is_verified\":true,\"metadata\":null,\"name\":\"BridgeMinterTimeLock\",\"private_tags\":[],\"proxy_type\":\"unknown\",\"public_tags\":[],\"watchlist_names\":[]},\"authorization_list\":[],\"method\":\"bridge\",\"fee\":{\"type\":\"actual\",\"value\":\"12734926210050\"},\"actions\":[],\"gas_limit\":\"91116\",\"gas_price\":\"392447649\",\"decoded_input\":{\"method_call\":\"bridge(address sender, uint256 bridgedAmount, bytes32 nonce, bytes32 messageHash, bytes approvedMessage, bytes notarizedMessage)\",\"method_id\":\"9e07f0db\",\"parameters\":[{\"name\":\"sender\",\"type\":\"address\",\"value\":\"0x2fD54327F0A5b7B6d94A5272c43bB491bc4E0B66\"},{\"name\":\"bridgedAmount\",\"type\":\"uint256\",\"value\":\"226995115258340000000000\"},{\"name\":\"nonce\",\"type\":\"bytes32\",\"value\":\"0xca3394a1ddd562331166febac49e45e8086fd80f3d44042aa171e178e7c1d69c\"},{\"name\":\"messageHash\",\"type\":\"bytes32\",\"value\":\"0xa47f0d0f866377afb2a4d01b52908049e3e90b291eba0fa5419174a08b442222\"},{\"name\":\"approvedMessage\",\"type\":\"bytes\",\"value\":\"0x8c8f6e321a626c57239bb46a43aae63b4a2059acc49110cb8bfaa1c40b9377d12bfd940196b6fc47807bf68f90db5950452e18c191924c5041fe6370eb7600661c\"},{\"name\":\"notarizedMessage\",\"type\":\"bytes\",\"value\":\"0xfebfb63df76183de285d3eb7b3463bec9dbf3b922317373e3478462bf0c7dcd9055469a239cb4c7dc484b1448b5868de652d9ecb7a49f64799c87056bdf0b4501c\"}]},\"token_transfers\":null,\"base_fee_per_gas\":\"392347649\",\"timestamp\":\"2025-08-11T09:32:59.000000Z\",\"nonce\":3727,\"historic_exchange_rate\":\"4272.89\",\"transaction_types\":[\"contract_call\"],\"exchange_rate\":\"4273.59\",\"block_number\":23116935,\"has_error_in_internal_transactions\":false},{\"priority_fee\":\"3263800000\",\"raw_input\":\"0x4a2bd96531653b007b62d504c772a9a504a0db349aa46f2ee8de212352ce9869\",\"result\":\"success\",\"hash\":\"0x8524b84ef8299221760bb5ec338a5c9f84cee1146de3eba0e32d0a9364e8dc17\",\"max_fee_per_gas\":\"485696032\",\"revert_reason\":null,\"confirmation_duration\":[0,12000],\"transaction_burnt_fee\":\"12805442568062\",\"type\":2,\"token_transfers_overflow\":null,\"confirmations\":1,\"position\":305,\"max_priority_fee_per_gas\":\"100000\",\"transaction_tag\":null,\"created_contract\":null,\"value\":\"457227422218206\",\"from\":{\"ens_domain_name\":null,\"hash\":\"0x42F12e251d9De5356fd13a5EE678702A8190266b\",\"implementations\":[],\"is_contract\":false,\"is_scam\":false,\"is_verified\":false,\"metadata\":null,\"name\":null,\"private_tags\":[],\"proxy_type\":null,\"public_tags\":[],\"watchlist_names\":[]},\"gas_used\":\"32638\",\"status\":\"ok\",\"to\":{\"ens_domain_name\":null,\"hash\":\"0xa5F565650890fBA1824Ee0F21EbBbF660a179934\",\"implementations\":[],\"is_contract\":true,\"is_scam\":false,\"is_verified\":true,\"metadata\":{\"tags\":[{\"meta\":{\"tooltipUrl\":\"https://www.relay.link/\"},\"name\":\"Reservoir: Relay Receiver\",\"ordinal\":10,\"slug\":\"reservoir-relay-receiver\",\"tagType\":\"name\"},{\"meta\":{},\"name\":\"Reservoir\",\"ordinal\":0,\"slug\":\"reservoir\",\"tagType\":\"protocol\"}]},\"name\":\"RelayReceiver\",\"private_tags\":[],\"proxy_type\":\"unknown\",\"public_tags\":[],\"watchlist_names\":[]},\"authorization_list\":[],\"method\":\"0x4a2bd965\",\"fee\":{\"type\":\"actual\",\"value\":\"12808706368062\"},\"actions\":[],\"gas_limit\":\"33350\",\"gas_price\":\"392447649\",\"decoded_input\":null,\"token_transfers\":null,\"base_fee_per_gas\":\"392347649\",\"timestamp\":\"2025-08-11T09:32:59.000000Z\",\"nonce\":0,\"historic_exchange_rate\":\"4272.89\",\"transaction_types\":[\"coin_transfer\",\"contract_call\"],\"exchange_rate\":\"4273.59\",\"block_number\":23116935,\"has_error_in_internal_transactions\":false},{\"priority_fee\":\"3265000000\",\"raw_input\":\"0x039e1c083c826fc3baf207d7da2499e8a49257bc62292a3991579ef77667b28d\",\"result\":\"success\",\"hash\":\"0x7866fa90f8c62cc0648e6ff3655221422261ee22d0c931893b2959f0ac670626\",\"max_fee_per_gas\":\"499406078\",\"revert_reason\":null,\"confirmation_duration\":[0,12000],\"transaction_burnt_fee\":\"12810150739850\",\"type\":2,\"token_transfers_overflow\":null,\"confirmations\":1,\"position\":304,\"max_priority_fee_per_gas\":\"100000\",\"transaction_tag\":null,\"created_contract\":null,\"value\":\"460766794530761\",\"from\":{\"ens_domain_name\":null,\"hash\":\"0x2C1Ce874de6193Da6e2d4bD079E4B230E59dB00D\",\"implementations\":[],\"is_contract\":false,\"is_scam\":false,\"is_verified\":false,\"metadata\":null,\"name\":null,\"private_tags\":[],\"proxy_type\":null,\"public_tags\":[],\"watchlist_names\":[]},\"gas_used\":\"32650\",\"status\":\"ok\",\"to\":{\"ens_domain_name\":null,\"hash\":\"0xa5F565650890fBA1824Ee0F21EbBbF660a179934\",\"implementations\":[],\"is_contract\":true,\"is_scam\":false,\"is_verified\":true,\"metadata\":{\"tags\":[{\"meta\":{\"tooltipUrl\":\"https://www.relay.link/\"},\"name\":\"Reservoir: Relay Receiver\",\"ordinal\":10,\"slug\":\"reservoir-relay-receiver\",\"tagType\":\"name\"},{\"meta\":{},\"name\":\"Reservoir\",\"ordinal\":0,\"slug\":\"reservoir\",\"tagType\":\"protocol\"}]},\"name\":\"RelayReceiver\",\"private_tags\":[],\"proxy_type\":\"unknown\",\"public_tags\":[],\"watchlist_names\":[]},\"authorization_list\":[],\"method\":\"0x039e1c08\",\"fee\":{\"type\":\"actual\",\"value\":\"12813415739850\"},\"actions\":[],\"gas_limit\":\"33362\",\"gas_price\":\"392447649\",\"decoded_input\":null,\"token_transfers\":null,\"base_fee_per_gas\":\"392347649\",\"timestamp\":\"2025-08-11T09:32:59.000000Z\",\"nonce\":0,\"historic_exchange_rate\":\"4272.89\",\"transaction_types\":[\"coin_transfer\",\"contract_call\"],\"exchange_rate\":\"4273.59\",\"block_number\":23116935,\"has_error_in_internal_transactions\":false},{\"priority_fee\":\"3265000000\",\"raw_input\":\"0x5660d8a97bf4c77a217ebabeaf469d53fa19b09718336e2b0efb56f8bfdc3924\",\"result\":\"success\",\"hash\":\"0xfb603f321280331f8583b8163a5c5f59292719b0f7684d91f369801216840735\",\"max_fee_per_gas\":\"499306667\",\"revert_reason\":null,\"confirmation_duration\":[0,12000],\"transaction_burnt_fee\":\"12810150739850\",\"type\":2,\"token_transfers_overflow\":null,\"confirmations\":1,\"position\":303,\"max_priority_fee_per_gas\":\"100000\",\"transaction_tag\":null,\"created_contract\":null,\"value\":\"461937210680751\",\"from\":{\"ens_domain_name\":null,\"hash\":\"0xE96615DEc1DE0f43df8F526A88bc3896f08A5f83\",\"implementations\":[],\"is_contract\":false,\"is_scam\":false,\"is_verified\":false,\"metadata\":null,\"name\":null,\"private_tags\":[],\"proxy_type\":null,\"public_tags\":[],\"watchlist_names\":[]},\"gas_used\":\"32650\",\"status\":\"ok\",\"to\":{\"ens_domain_name\":null,\"hash\":\"0xa5F565650890fBA1824Ee0F21EbBbF660a179934\",\"implementations\":[],\"is_contract\":true,\"is_scam\":false,\"is_verified\":true,\"metadata\":{\"tags\":[{\"meta\":{\"tooltipUrl\":\"https://www.relay.link/\"},\"name\":\"Reservoir: Relay Receiver\",\"ordinal\":10,\"slug\":\"reservoir-relay-receiver\",\"tagType\":\"name\"},{\"meta\":{},\"name\":\"Reservoir\",\"ordinal\":0,\"slug\":\"reservoir\",\"tagType\":\"protocol\"}]},\"name\":\"RelayReceiver\",\"private_tags\":[],\"proxy_type\":\"unknown\",\"public_tags\":[],\"watchlist_names\":[]},\"authorization_list\":[],\"method\":\"0x5660d8a9\",\"fee\":{\"type\":\"actual\",\"value\":\"12813415739850\"},\"actions\":[],\"gas_limit\":\"33362\",\"gas_price\":\"392447649\",\"decoded_input\":null,\"token_transfers\":null,\"base_fee_per_gas\":\"392347649\",\"timestamp\":\"2025-08-11T09:32:59.000000Z\",\"nonce\":0,\"historic_exchange_rate\":\"4272.89\",\"transaction_types\":[\"coin_transfer\",\"contract_call\"],\"exchange_rate\":\"4273.59\",\"block_number\":23116935,\"has_error_in_internal_transactions\":false},{\"priority_fee\":\"3265000000\",\"raw_input\":\"0xdf2336dd4008646726da21a0ecd264e110983da121ec62a00f5f0ed11ca6c3c0\",\"result\":\"success\",\"hash\":\"0x35cf5cc5c9b15995f419b5d8f9125fdb553ad0c79c8c8d06906f06b14cd126b6\",\"max_fee_per_gas\":\"499406078\",\"revert_reason\":null,\"confirmation_duration\":[0,12000],\"transaction_burnt_fee\":\"12810150739850\",\"type\":2,\"token_transfers_overflow\":null,\"confirmations\":1,\"position\":302,\"max_priority_fee_per_gas\":\"100000\",\"transaction_tag\":null,\"created_contract\":null,\"value\":\"460769219036134\",\"from\":{\"ens_domain_name\":null,\"hash\":\"0xb64475F52c48a2F766622C5375eea21C15B39068\",\"implementations\":[],\"is_contract\":false,\"is_scam\":false,\"is_verified\":false,\"metadata\":null,\"name\":null,\"private_tags\":[],\"proxy_type\":null,\"public_tags\":[],\"watchlist_names\":[]},\"gas_used\":\"32650\",\"status\":\"ok\",\"to\":{\"ens_domain_name\":null,\"hash\":\"0xa5F565650890fBA1824Ee0F21EbBbF660a179934\",\"implementations\":[],\"is_contract\":true,\"is_scam\":false,\"is_verified\":true,\"metadata\":{\"tags\":[{\"meta\":{\"tooltipUrl\":\"https://www.relay.link/\"},\"name\":\"Reservoir: Relay Receiver\",\"ordinal\":10,\"slug\":\"reservoir-relay-receiver\",\"tagType\":\"name\"},{\"meta\":{},\"name\":\"Reservoir\",\"ordinal\":0,\"slug\":\"reservoir\",\"tagType\":\"protocol\"}]},\"name\":\"RelayReceiver\",\"private_tags\":[],\"proxy_type\":\"unknown\",\"public_tags\":[],\"watchlist_names\":[]},\"authorization_list\":[],\"method\":\"0xdf2336dd\",\"fee\":{\"type\":\"actual\",\"value\":\"12813415739850\"},\"actions\":[],\"gas_limit\":\"33362\",\"gas_price\":\"392447649\",\"decoded_input\":null,\"token_transfers\":null,\"base_fee_per_gas\":\"392347649\",\"timestamp\":\"2025-08-11T09:32:59.000000Z\",\"nonce\":0,\"historic_exchange_rate\":\"4272.89\",\"transaction_types\":[\"coin_transfer\",\"contract_call\"],\"exchange_rate\":\"4273.59\",\"block_number\":23116935,\"has_error_in_internal_transactions\":false},{\"priority_fee\":\"4608300000\",\"raw_input\":\"0x095ea7b3000000000000000000000000000000000000c9b3e2c3ec88b1b4c0cd853f43210000000000000000000000000000000000000000000000000000000007046540\",\"result\":\"success\",\"hash\":\"0x02533a7b46d9cf24c1b26985ffe613c1fd44fae7d663a32cd7b3f7d9cad892f6\",\"max_fee_per_gas\":\"509137343\",\"revert_reason\":null,\"confirmation_duration\":[0,12000],\"transaction_burnt_fee\":\"18080556708867\",\"type\":2,\"token_transfers_overflow\":null,\"confirmations\":1,\"position\":301,\"max_priority_fee_per_gas\":\"100000\",\"transaction_tag\":null,\"created_contract\":null,\"value\":\"0\",\"from\":{\"ens_domain_name\":\"instantog.eth\",\"hash\":\"0x627273a2D7f89B58b0fc0bc4bBa795058DC8B0DA\",\"implementations\":[],\"is_contract\":false,\"is_scam\":false,\"is_verified\":false,\"metadata\":{\"tags\":[{\"meta\":{},\"name\":\"Beacon Depositor\",\"ordinal\":0,\"slug\":\"beacon-depositor\",\"tagType\":\"generic\"}]},\"name\":null,\"private_tags\":[],\"proxy_type\":\"unknown\",\"public_tags\":[],\"watchlist_names\":[]},\"gas_used\":\"46083\",\"status\":\"ok\",\"to\":{\"ens_domain_name\":null,\"hash\":\"0x657e8C867D8B37dCC18fA4Caead9C45EB088C642\",\"implementations\":[],\"is_contract\":true,\"is_scam\":false,\"is_verified\":true,\"metadata\":{\"tags\":[{\"meta\":{},\"name\":\"Token Contract\",\"ordinal\":0,\"slug\":\"token-contract\",\"tagType\":\"generic\"},{\"meta\":{},\"name\":\"Liquid staking\",\"ordinal\":0,\"slug\":\"liquid-staking\",\"tagType\":\"generic\"},{\"meta\":{},\"name\":\"ether.fi\",\"ordinal\":0,\"slug\":\"etherfi\",\"tagType\":\"protocol\"},{\"meta\":{\"tooltipDescription\":\"eBTC, ether.fi's Bitcoin-backed liquid restaking token. Created to service the growing demands for alternative collateral within restaking, eBTC simplifies yield optimization and expands utility, bringing a dual-yielding (staking and restaking) Bitcoin product to the market.\",\"tooltipUrl\":\"https://www.ether.fi/\"},\"name\":\"ether.fi: eBTC Token\",\"ordinal\":10,\"slug\":\"etherfi-ebtc-token\",\"tagType\":\"name\"}]},\"name\":\"Ether fi Staked BTC\",\"private_tags\":[],\"proxy_type\":\"unknown\",\"public_tags\":[],\"watchlist_names\":[]},\"authorization_list\":[],\"method\":\"approve\",\"fee\":{\"type\":\"actual\",\"value\":\"18085165008867\"},\"actions\":[],\"gas_limit\":\"146465\",\"gas_price\":\"392447649\",\"decoded_input\":{\"method_call\":\"approve(address spender, uint256 amount)\",\"method_id\":\"095ea7b3\",\"parameters\":[{\"name\":\"spender\",\"type\":\"address\",\"value\":\"0x000000000000c9B3E2C3Ec88B1B4c0cD853f4321\"},{\"name\":\"amount\",\"type\":\"uint256\",\"value\":\"117728576\"}]},\"token_transfers\":null,\"base_fee_per_gas\":\"392347649\",\"timestamp\":\"2025-08-11T09:32:59.000000Z\",\"nonce\":873,\"historic_exchange_rate\":\"4272.89\",\"transaction_types\":[\"contract_call\"],\"exchange_rate\":\"4273.59\",\"block_number\":23116935,\"has_error_in_internal_transactions\":false},{\"priority_fee\":\"4688800000\",\"raw_input\":\"0x23b872dd00000000000000000000000024be2f53ff182dc29ce0781e554dab37ac3bd7890000000000000000000000002bc6457374432452c60bf2ad26c4f07e49e0d6f5000000000000000000000000000000000000000000000000000000009b35e300\",\"result\":\"success\",\"hash\":\"0x741f62fec2f32e550798a4ca67763294466feabf797bad08138aee43ebeac9dd\",\"max_fee_per_gas\":\"686005505\",\"revert_reason\":null,\"confirmation_duration\":[0,12000],\"transaction_burnt_fee\":\"18396396566312\",\"type\":2,\"token_transfers_overflow\":null,\"confirmations\":1,\"position\":300,\"max_priority_fee_per_gas\":\"100000\",\"transaction_tag\":null,\"created_contract\":null,\"value\":\"0\",\"from\":{\"ens_domain_name\":null,\"hash\":\"0x3c6390ecbA1dC417E4CfF55310f5372036ed3D1C\",\"implementations\":[],\"is_contract\":false,\"is_scam\":false,\"is_verified\":false,\"metadata\":null,\"name\":null,\"private_tags\":[],\"proxy_type\":null,\"public_tags\":[],\"watchlist_names\":[]},\"gas_used\":\"46888\",\"status\":\"ok\",\"to\":{\"ens_domain_name\":null,\"hash\":\"0xdAC17F958D2ee523a2206206994597C13D831ec7\",\"implementations\":[],\"is_contract\":true,\"is_scam\":false,\"is_verified\":true,\"metadata\":{\"tags\":[{\"meta\":{},\"name\":\"Tether\",\"ordinal\":0,\"slug\":\"tether\",\"tagType\":\"protocol\"},{\"meta\":{},\"name\":\"Stablecoin\",\"ordinal\":0,\"slug\":\"stablecoin\",\"tagType\":\"generic\"},{\"meta\":{\"tooltipDescription\":\"Address blocked by a custodial stablecoin provider\"},\"name\":\"BLOCKED\",\"ordinal\":0,\"slug\":\"blocked\",\"tagType\":\"generic\"},{\"meta\":{\"data\":\"ok\"},\"name\":\"Token Reputation\",\"ordinal\":0,\"slug\":\"token-reputation\",\"tagType\":\"information\"},{\"meta\":{},\"name\":\"Token Contract\",\"ordinal\":0,\"slug\":\"token-contract\",\"tagType\":\"generic\"},{\"meta\":{\"projectName\":\"Tether\",\"tagUrl\":\"https://app.klerosscout.eth.limo/#/?registry=Single_Tags&itemdetails=0xca4f86e999bee421567b4e8a094a7dff96fa821e9023a63b87f12b64d2356094@0x66260c69d03837016d88c9877e61e08ef74c59f2\",\"tokenAttributes\":\"{\\\"logo_url\\\":\\\"https://cdn.kleros.link/ipfs/QmZF9JKGaGfT7LsARQaFdUUATDha4Ecx9PziFu2M8ifFmR/Bce2S3tXG2WL6pLnJAyHJyQ9B1MenRPiFnSVsNBgGXyWiNKTgcnTFcFjCcB9ujE5tJG7CjurLSL6XHoPQfu3Re4tqJ\\\",\\\"token_symbol\\\":\\\"USDT\\\",\\\"token_name\\\":\\\"Tether\\\",\\\"decimals\\\":6}\",\"tooltipDescription\":\"The contract of Tether (USDT) stablecoin.\",\"tooltipUrl\":\"https://tether.to\",\"verifiedDomains\":[\"app.firebird.finance\",\"swapr.eth.limo\",\"www.sushi.com\",\"swap.defillama.com\",\"app.uniswap.org\",\"traderjoexyz.com\",\"stackly.eth.limo\",\"apeswap.finance\"]},\"name\":\"USDT Stablecoin\",\"ordinal\":10,\"slug\":\"usdt-stablecoin-1\",\"tagType\":\"name\"}]},\"name\":\"Tether\",\"private_tags\":[],\"proxy_type\":\"unknown\",\"public_tags\":[],\"watchlist_names\":[]},\"authorization_list\":[],\"method\":\"transferFrom\",\"fee\":{\"type\":\"actual\",\"value\":\"18401085366312\"},\"actions\":[],\"gas_limit\":\"51859\",\"gas_price\":\"392447649\",\"decoded_input\":{\"method_call\":\"transferFrom(address _from, address _to, uint256 _value)\",\"method_id\":\"23b872dd\",\"parameters\":[{\"name\":\"_from\",\"type\":\"address\",\"value\":\"0x24be2F53FF182Dc29Ce0781e554DAB37AC3bd789\"},{\"name\":\"_to\",\"type\":\"address\",\"value\":\"0x2bc6457374432452c60Bf2ad26c4F07e49e0D6f5\"},{\"name\":\"_value\",\"type\":\"uint256\",\"value\":\"2604000000\"}]},\"token_transfers\":null,\"base_fee_per_gas\":\"392347649\",\"timestamp\":\"2025-08-11T09:32:59.000000Z\",\"nonce\":10059,\"historic_exchange_rate\":\"4272.89\",\"transaction_types\":[\"contract_call\",\"token_transfer\"],\"exchange_rate\":\"4273.59\",\"block_number\":23116935,\"has_error_in_internal_transactions\":false},{\"priority_fee\":\"4752300000\",\"raw_input\":\"0x02fe530500000000000000000000000000000000000000000000000000000000000000200000000000000000000000000000000000000000000000000000000000000042697066733a2f2f626166796265696332667874326b367734726f62706166623234776168336d666d6c64757963633468646973636d6e716d64366c666862326c3665000000000000000000000000000000000000000000000000000000000000\",\"result\":\"success\",\"hash\":\"0x79cfa6a46ab3b516414c9aeb878765f762e5008bbf6f66c8e3a8b617718511ed\",\"max_fee_per_gas\":\"804504690\",\"revert_reason\":null,\"confirmation_duration\":[0,12000],\"transaction_burnt_fee\":\"18645537323427\",\"type\":2,\"token_transfers_overflow\":null,\"confirmations\":1,\"position\":299,\"max_priority_fee_per_gas\":\"100000\",\"transaction_tag\":null,\"created_contract\":null,\"value\":\"0\",\"from\":{\"ens_domain_name\":null,\"hash\":\"0xe445Fb0297F7D1f507dF708185946210eB6a9DE6\",\"implementations\":[],\"is_contract\":false,\"is_scam\":false,\"is_verified\":false,\"metadata\":null,\"name\":null,\"private_tags\":[],\"proxy_type\":null,\"public_tags\":[],\"watchlist_names\":[]},\"gas_used\":\"47523\",\"status\":\"ok\",\"to\":{\"ens_domain_name\":null,\"hash\":\"0xF26e8b9479eb2F778A31030eCB4F417337787e10\",\"implementations\":[{\"address\":\"0xa968ab882ad106b14c3d2C60686315a7c4d0D2F4\",\"address_hash\":\"0xa968ab882ad106b14c3d2C60686315a7c4d0D2F4\",\"name\":\"LondonTokenBase\"}],\"is_contract\":true,\"is_scam\":false,\"is_verified\":true,\"metadata\":null,\"name\":\"Scribbs by Fingacode\",\"private_tags\":[],\"proxy_type\":\"eip1167\",\"public_tags\":[],\"watchlist_names\":[]},\"authorization_list\":[],\"method\":\"setURI\",\"fee\":{\"type\":\"actual\",\"value\":\"18650289623427\"},\"actions\":[],\"gas_limit\":\"300000\",\"gas_price\":\"392447649\",\"decoded_input\":{\"method_call\":\"setURI(string _newURI)\",\"method_id\":\"02fe5305\",\"parameters\":[{\"name\":\"_newURI\",\"type\":\"string\",\"value\":\"ipfs://bafybeic2fxt2k6w4robpafb24wah3mfmlduycc4hdiscmnqmd6lfhb2l6e\"}]},\"token_transfers\":null,\"base_fee_per_gas\":\"392347649\",\"timestamp\":\"2025-08-11T09:32:59.000000Z\",\"nonce\":12859,\"historic_exchange_rate\":\"4272.89\",\"transaction_types\":[\"contract_call\"],\"exchange_rate\":\"4273.59\",\"block_number\":23116935,\"has_error_in_internal_transactions\":false},{\"priority_fee\":\"4846700000\",\"raw_input\":\"0xf14fcbc8fd45b542a03675702b775bf5129a02cd50064ab55b461c832f63acf477e615f5\",\"result\":\"success\",\"hash\":\"0xfeaff3c3c32f87fb13da97a34af4cba060edc57808ef8b14295d46918eb5be5e\",\"max_fee_per_gas\":\"499306667\",\"revert_reason\":null,\"confirmation_duration\":[0,12000],\"transaction_burnt_fee\":\"19015913504083\",\"type\":2,\"token_transfers_overflow\":null,\"confirmations\":1,\"position\":298,\"max_priority_fee_per_gas\":\"100000\",\"transaction_tag\":null,\"created_contract\":null,\"value\":\"0\",\"from\":{\"ens_domain_name\":\"talkfi.eth\",\"hash\":\"0xF949fdA50a8dC4992590757b26b4F1B02D0Fe6D2\",\"implementations\":[],\"is_contract\":false,\"is_scam\":false,\"is_verified\":false,\"metadata\":null,\"name\":null,\"private_tags\":[],\"proxy_type\":null,\"public_tags\":[],\"watchlist_names\":[]},\"gas_used\":\"48467\",\"status\":\"ok\",\"to\":{\"ens_domain_name\":null,\"hash\":\"0x283Af0B28c62C092C9727F1Ee09c02CA627EB7F5\",\"implementations\":[],\"is_contract\":true,\"is_scam\":false,\"is_verified\":true,\"metadata\":{\"tags\":[{\"meta\":{\"appActionButtonText\":\"Mint domain\",\"appLogoURL\":\"https://blockscout-content.s3.amazonaws.com/ens-logo.png\",\"appMarketplaceURL\":\"https://app.ens.domains?utm_source=blockscout&utm_medium=action-button\",\"bgColor\":\"#5298FF\",\"textColor\":\"#FFFFFF\"},\"name\":\"ENS\",\"ordinal\":0,\"slug\":\"ens\",\"tagType\":\"protocol\"},{\"meta\":{\"main_entity\":\"ENS\",\"projectName\":\"ENS\",\"tagUrl\":\"https://app.klerosscout.eth.limo/#/?registry=Single_Tags&itemdetails=0xc519c30fcc7a0d4d8bd1071daf37428c533a80c106591cd0311686cd61d6b8e9@0x66260c69d03837016d88c9877e61e08ef74c59f2\",\"tooltipDescription\":\"ETH Registrar Controller 3 contract by ENS (Ethereum Name Service)\",\"tooltipUrl\":\"https://ens.domains/\",\"verifiedDomains\":[\"app.ens.domains\"]},\"name\":\"ETH Registrar Controller 3\",\"ordinal\":10,\"slug\":\"eth-registrar-controller-3-1\",\"tagType\":\"name\"}]},\"name\":\"ETHRegistrarController\",\"private_tags\":[],\"proxy_type\":\"unknown\",\"public_tags\":[],\"watchlist_names\":[]},\"authorization_list\":[],\"method\":\"commit\",\"fee\":{\"type\":\"actual\",\"value\":\"19020760204083\"},\"actions\":[],\"gas_limit\":\"49436\",\"gas_price\":\"392447649\",\"decoded_input\":{\"method_call\":\"commit(bytes32 commitment)\",\"method_id\":\"f14fcbc8\",\"parameters\":[{\"name\":\"commitment\",\"type\":\"bytes32\",\"value\":\"0xfd45b542a03675702b775bf5129a02cd50064ab55b461c832f63acf477e615f5\"}]},\"token_transfers\":null,\"base_fee_per_gas\":\"392347649\",\"timestamp\":\"2025-08-11T09:32:59.000000Z\",\"nonce\":625,\"historic_exchange_rate\":\"4272.89\",\"transaction_types\":[\"contract_call\"],\"exchange_rate\":\"4273.59\",\"block_number\":23116935,\"has_error_in_internal_transactions\":false},{\"priority_fee\":\"4877752000\",\"raw_input\":\"0xa9059cbb000000000000000000000000aea6291cb48d9675b120f74e2f0b0de01db47a000000000000000000000000000000000000000000000000000000000000000002\",\"result\":\"success\",\"hash\":\"0xfc19ff0ef508c799cabe4dc43fd85c504c45b27131dc24fd69ed532425e1d5c6\",\"max_fee_per_gas\":\"501798972\",\"revert_reason\":null,\"confirmation_duration\":[0,12000],\"transaction_burnt_fee\":\"15816318426488\",\"type\":2,\"token_transfers_overflow\":null,\"confirmations\":1,\"position\":297,\"max_priority_fee_per_gas\":\"121000\",\"transaction_tag\":null,\"created_contract\":null,\"value\":\"0\",\"from\":{\"ens_domain_name\":null,\"hash\":\"0xB190c4B56b8E9F1EE27EDBc0aa3d98Fd79Ab2bc6\",\"implementations\":[],\"is_contract\":false,\"is_scam\":false,\"is_verified\":false,\"metadata\":null,\"name\":null,\"private_tags\":[],\"proxy_type\":null,\"public_tags\":[],\"watchlist_names\":[]},\"gas_used\":\"40312\",\"status\":\"ok\",\"to\":{\"ens_domain_name\":null,\"hash\":\"0xA0b86991c6218b36c1d19D4a2e9Eb0cE3606eB48\",\"implementations\":[{\"address\":\"0x43506849D7C04F9138D1A2050bbF3A0c054402dd\",\"address_hash\":\"0x43506849D7C04F9138D1A2050bbF3A0c054402dd\",\"name\":\"FiatTokenV2_2\"}],\"is_contract\":true,\"is_scam\":false,\"is_verified\":true,\"metadata\":{\"tags\":[{\"meta\":{\"data\":\"ok\"},\"name\":\"Token Reputation\",\"ordinal\":0,\"slug\":\"token-reputation\",\"tagType\":\"information\"},{\"meta\":{},\"name\":\"Token Contract\",\"ordinal\":0,\"slug\":\"token-contract\",\"tagType\":\"generic\"},{\"meta\":{\"projectName\":\"Circle\",\"tagUrl\":\"https://app.klerosscout.eth.limo/#/?registry=Single_Tags&itemdetails=0x924f91c6a015abb7e7a5f8c7c0989761b4df998abdbd6541365eb3c82132a390@0x66260c69d03837016d88c9877e61e08ef74c59f2\",\"tokenAttributes\":\"{\\\"logo_url\\\":\\\"https://cdn.kleros.link/ipfs/Qmc3TH5cPhyh7418kSD83SSBzng1oqbLxjzxfjwA2VAoj8/BccwoeFESYBsv6XiJVRAp5b3pRpvMgdhfZCxV5vSppWbAukhqrBRVRj3jAxHnbfmvg181rcVw9ny4LBLbFdm2S2RRH\\\",\\\"token_symbol\\\":\\\"USDC\\\",\\\"token_name\\\":\\\"USD Coin\\\",\\\"decimals\\\":6}\",\"tooltipDescription\":\"USDC is a US dollar-backed stablecoin issued by Circle. USDC is designed to provide a faster, safer, and more efficient way to send, spend, and exchange money around the world.\",\"tooltipUrl\":\"https://www.circle.com/en/usdc\"},\"name\":\"USDC Token\",\"ordinal\":10,\"slug\":\"usdc-token-1\",\"tagType\":\"name\"},{\"meta\":{},\"name\":\"Circle\",\"ordinal\":0,\"slug\":\"circle\",\"tagType\":\"protocol\"},{\"meta\":{},\"name\":\"USDC\",\"ordinal\":0,\"slug\":\"usdc\",\"tagType\":\"generic\"},{\"meta\":{},\"name\":\"Stablecoin\",\"ordinal\":0,\"slug\":\"stablecoin\",\"tagType\":\"generic\"}]},\"name\":\"USDC\",\"private_tags\":[],\"proxy_type\":\"eip1967\",\"public_tags\":[],\"watchlist_names\":[]},\"authorization_list\":[],\"method\":\"transfer\",\"fee\":{\"type\":\"actual\",\"value\":\"15821196178488\"},\"actions\":[],\"gas_limit\":\"45709\",\"gas_price\":\"392468649\",\"decoded_input\":{\"method_call\":\"transfer(address to, uint256 value)\",\"method_id\":\"a9059cbb\",\"parameters\":[{\"name\":\"to\",\"type\":\"address\",\"value\":\"0xAeA6291CB48d9675B120F74E2F0b0De01dB47a00\"},{\"name\":\"value\",\"type\":\"uint256\",\"value\":\"2\"}]},\"token_transfers\":null,\"base_fee_per_gas\":\"392347649\",\"timestamp\":\"2025-08-11T09:32:59.000000Z\",\"nonce\":1,\"historic_exchange_rate\":\"4272.89\",\"transaction_types\":[\"contract_call\",\"token_transfer\"],\"exchange_rate\":\"4273.59\",\"block_number\":23116935,\"has_error_in_internal_transactions\":false},{\"priority_fee\":\"5086730000\",\"raw_input\":\"0x095ea7b3000000000000000000000000ac4c6e212a361c968f1725b4d055b47e63f80b750000000000000000000000000000000000000000000000056bc75e2d63100000\",\"result\":\"success\",\"hash\":\"0x82187498f661b57f6f282dd1bdbbb65e7ba53f4892a4e7f88f91a0e05bf5c84b\",\"max_fee_per_gas\":\"395740319\",\"revert_reason\":null,\"confirmation_duration\":[0,12000],\"transaction_burnt_fee\":\"18143332332707\",\"type\":2,\"token_transfers_overflow\":null,\"confirmations\":1,\"position\":296,\"max_priority_fee_per_gas\":\"110000\",\"transaction_tag\":null,\"created_contract\":null,\"value\":\"0\",\"from\":{\"ens_domain_name\":\"yavuzhan0707.eth\",\"hash\":\"0x1b8d150c0f54148968dCcff723B3C5f8536C6208\",\"implementations\":[],\"is_contract\":false,\"is_scam\":false,\"is_verified\":false,\"metadata\":null,\"name\":null,\"private_tags\":[],\"proxy_type\":null,\"public_tags\":[],\"watchlist_names\":[]},\"gas_used\":\"46243\",\"status\":\"ok\",\"to\":{\"ens_domain_name\":null,\"hash\":\"0x3f80B1c54Ae920Be41a77f8B902259D48cf24cCf\",\"implementations\":[],\"is_contract\":true,\"is_scam\":false,\"is_verified\":true,\"metadata\":{\"tags\":[{\"meta\":{},\"name\":\"Token Contract\",\"ordinal\":0,\"slug\":\"token-contract\",\"tagType\":\"generic\"},{\"meta\":{},\"name\":\"KernelDAO\",\"ordinal\":0,\"slug\":\"kerneldao\",\"tagType\":\"protocol\"},{\"meta\":{},\"name\":\"DeFi\",\"ordinal\":0,\"slug\":\"defi\",\"tagType\":\"generic\"},{\"meta\":{\"tooltipDescription\":\"Leading restaking protocol with three key products Kernel (Restaking on BNB Chain), Kelp Liquid Restaking (rsETH), Gain (Automated rewards farming)\",\"tooltipUrl\":\"https://kerneldao.com/\"},\"name\":\"KernelDAO: KERNEL Token\",\"ordinal\":10,\"slug\":\"kerneldao-kernel-token\",\"tagType\":\"name\"}]},\"name\":\"KernelDAO\",\"private_tags\":[],\"proxy_type\":\"unknown\",\"public_tags\":[],\"watchlist_names\":[]},\"authorization_list\":[],\"method\":\"approve\",\"fee\":{\"type\":\"actual\",\"value\":\"18148419062707\"},\"actions\":[],\"gas_limit\":\"69937\",\"gas_price\":\"392457649\",\"decoded_input\":{\"method_call\":\"approve(address spender, uint256 amount)\",\"method_id\":\"095ea7b3\",\"parameters\":[{\"name\":\"spender\",\"type\":\"address\",\"value\":\"0xAC4c6e212A361c968F1725b4d055b47E63F80b75\"},{\"name\":\"amount\",\"type\":\"uint256\",\"value\":\"100000000000000000000\"}]},\"token_transfers\":null,\"base_fee_per_gas\":\"392347649\",\"timestamp\":\"2025-08-11T09:32:59.000000Z\",\"nonce\":463,\"historic_exchange_rate\":\"4272.89\",\"transaction_types\":[\"contract_call\"],\"exchange_rate\":\"4273.59\",\"block_number\":23116935,\"has_error_in_internal_transactions\":false},{\"priority_fee\":\"7350000000\",\"raw_input\":\"0x\",\"result\":\"success\",\"hash\":\"0x6695b0068952e9ff11c85c4e44d9abcdbb6ca32eb584f87895d5a5ec3adbb0e9\",\"max_fee_per_gas\":\"506179200\",\"revert_reason\":null,\"confirmation_duration\":[0,12000],\"transaction_burnt_fee\":\"8239300629000\",\"type\":2,\"token_transfers_overflow\":null,\"confirmations\":1,\"position\":295,\"max_priority_fee_per_gas\":\"350000\",\"transaction_tag\":null,\"created_contract\":null,\"value\":\"43099000660961700\",\"from\":{\"ens_domain_name\":null,\"hash\":\"0xA1bE070aE5CC41de85A4d330128726340E39877C\",\"implementations\":[],\"is_contract\":false,\"is_scam\":false,\"is_verified\":false,\"metadata\":null,\"name\":null,\"private_tags\":[],\"proxy_type\":null,\"public_tags\":[],\"watchlist_names\":[]},\"gas_used\":\"21000\",\"status\":\"ok\",\"to\":{\"ens_domain_name\":null,\"hash\":\"0x7DBB4bdCfE614398D1a68ecc219F15280d0959E0\",\"implementations\":[],\"is_contract\":false,\"is_scam\":false,\"is_verified\":false,\"metadata\":{\"tags\":[{\"meta\":{},\"name\":\"Shakepay\",\"ordinal\":0,\"slug\":\"shakepay\",\"tagType\":\"generic\"},{\"meta\":{\"tooltipUrl\":\"https://shakepay.com/\"},\"name\":\"Shakepay 8\",\"ordinal\":10,\"slug\":\"shakepay-8\",\"tagType\":\"name\"}]},\"name\":null,\"private_tags\":[],\"proxy_type\":null,\"public_tags\":[],\"watchlist_names\":[]},\"authorization_list\":[],\"method\":null,\"fee\":{\"type\":\"actual\",\"value\":\"8246650629000\"},\"actions\":[],\"gas_limit\":\"21000\",\"gas_price\":\"392697649\",\"decoded_input\":null,\"token_transfers\":null,\"base_fee_per_gas\":\"392347649\",\"timestamp\":\"2025-08-11T09:32:59.000000Z\",\"nonce\":22,\"historic_exchange_rate\":\"4272.89\",\"transaction_types\":[\"coin_transfer\"],\"exchange_rate\":\"4273.59\",\"block_number\":23116935,\"has_error_in_internal_transactions\":false},{\"priority_fee\":\"7350000000\",\"raw_input\":\"0x\",\"result\":\"success\",\"hash\":\"0x8f2636272016ff701b392a1eaec2ab41f5f15e0edfd6f132916fc83ff1d52c3f\",\"max_fee_per_gas\":\"506179200\",\"revert_reason\":null,\"confirmation_duration\":[0,12000],\"transaction_burnt_fee\":\"8239300629000\",\"type\":2,\"token_transfers_overflow\":null,\"confirmations\":1,\"position\":294,\"max_priority_fee_per_gas\":\"350000\",\"transaction_tag\":null,\"created_contract\":null,\"value\":\"13631946055219000\",\"from\":{\"ens_domain_name\":null,\"hash\":\"0xe1494c0437E676311e8db2272A117a5E8f3b40f7\",\"implementations\":[],\"is_contract\":false,\"is_scam\":false,\"is_verified\":false,\"metadata\":null,\"name\":null,\"private_tags\":[],\"proxy_type\":null,\"public_tags\":[],\"watchlist_names\":[]},\"gas_used\":\"21000\",\"status\":\"ok\",\"to\":{\"ens_domain_name\":null,\"hash\":\"0xDFaa75323fB721e5f29D43859390f62Cc4B600b8\",\"implementations\":[],\"is_contract\":false,\"is_scam\":false,\"is_verified\":false,\"metadata\":{\"tags\":[{\"meta\":{\"tooltipUrl\":\"https://shuffle.com\"},\"name\":\"Shuffle.com\",\"ordinal\":10,\"slug\":\"shufflecom\",\"tagType\":\"name\"}]},\"name\":null,\"private_tags\":[],\"proxy_type\":\"unknown\",\"public_tags\":[],\"watchlist_names\":[]},\"authorization_list\":[],\"method\":null,\"fee\":{\"type\":\"actual\",\"value\":\"8246650629000\"},\"actions\":[],\"gas_limit\":\"21000\",\"gas_price\":\"392697649\",\"decoded_input\":null,\"token_transfers\":null,\"base_fee_per_gas\":\"392347649\",\"timestamp\":\"2025-08-11T09:32:59.000000Z\",\"nonce\":50,\"historic_exchange_rate\":\"4272.89\",\"transaction_types\":[\"coin_transfer\"],\"exchange_rate\":\"4273.59\",\"block_number\":23116935,\"has_error_in_internal_transactions\":false},{\"priority_fee\":\"9156400000\",\"raw_input\":\"0x165a28580000000000000000000000000000000000000000000001151f40537694e000000000000000000000000000000000000000000000000000000000000000000000000000000000000000000000000000000000000000000000000000006899b7f5000000000000000000000000000000000000000000000000000000000000008000000000000000000000000000000000000000000000000000000000000000411c8c9fe0531c3521d4fe77739af255512d5b1a87cfd92f10a94902742263cfb934a23116146025bbe3fc4a12c47512b15ef93beda4acb2318e654cd0e560f6eb1c00000000000000000000000000000000000000000000000000000000000000e6adaddf89608322e2b852253d885d6dc8ff0b644ad3b1e91283da9e62126ba2\",\"result\":\"success\",\"hash\":\"0x655c560e4bd2a8715fa9be813a50109948ea19602888ab591ecc6afbf2fad2cb\",\"max_fee_per_gas\":\"395740319\",\"revert_reason\":null,\"confirmation_duration\":[0,12000],\"transaction_burnt_fee\":\"32659018302760\",\"type\":2,\"token_transfers_overflow\":null,\"confirmations\":1,\"position\":293,\"max_priority_fee_per_gas\":\"110000\",\"transaction_tag\":null,\"created_contract\":null,\"value\":\"0\",\"from\":{\"ens_domain_name\":null,\"hash\":\"0xCF6F1a93bF58438c92f1985b21F9d069A0EA84eC\",\"implementations\":[],\"is_contract\":false,\"is_scam\":false,\"is_verified\":false,\"metadata\":null,\"name\":null,\"private_tags\":[],\"proxy_type\":null,\"public_tags\":[],\"watchlist_names\":[]},\"gas_used\":\"83240\",\"status\":\"ok\",\"to\":{\"ens_domain_name\":null,\"hash\":\"0xF07643d5dbfC2D9DAa080C5985E20f7D439FD926\",\"implementations\":[],\"is_contract\":true,\"is_scam\":false,\"is_verified\":false,\"metadata\":null,\"name\":\"Golden MagFi\",\"private_tags\":[],\"proxy_type\":\"unknown\",\"public_tags\":[],\"watchlist_names\":[]},\"authorization_list\":[],\"method\":\"redeem\",\"fee\":{\"type\":\"actual\",\"value\":\"32668174702760\"},\"actions\":[],\"gas_limit\":\"132858\",\"gas_price\":\"392457649\",\"decoded_input\":{\"method_call\":\"redeem(uint256 amount, uint256 nonce, uint256 balance, bytes signature)\",\"method_id\":\"165a2858\",\"parameters\":[{\"name\":\"amount\",\"type\":\"uint256\",\"value\":\"5112000000000000000000\"},{\"name\":\"nonce\",\"type\":\"uint256\",\"value\":\"0\"},{\"name\":\"balance\",\"type\":\"uint256\",\"value\":\"1754904565\"},{\"name\":\"signature\",\"type\":\"bytes\",\"value\":\"0x1c8c9fe0531c3521d4fe77739af255512d5b1a87cfd92f10a94902742263cfb934a23116146025bbe3fc4a12c47512b15ef93beda4acb2318e654cd0e560f6eb1c\"}]},\"token_transfers\":null,\"base_fee_per_gas\":\"392347649\",\"timestamp\":\"2025-08-11T09:32:59.000000Z\",\"nonce\":1,\"historic_exchange_rate\":\"4272.89\",\"transaction_types\":[\"contract_call\",\"token_transfer\"],\"exchange_rate\":\"4273.59\",\"block_number\":23116935,\"has_error_in_internal_transactions\":false},{\"priority_fee\":\"10500000000\",\"raw_input\":\"0x\",\"result\":\"success\",\"hash\":\"0x0c726ca3a39d3075f4ff74355908001b2214a27fddf1ee48ed8e42bb31b6e108\",\"max_fee_per_gas\":\"520610498\",\"revert_reason\":null,\"confirmation_duration\":[0,12000],\"transaction_burnt_fee\":\"8239300629000\",\"type\":2,\"token_transfers_overflow\":null,\"confirmations\":1,\"position\":292,\"max_priority_fee_per_gas\":\"500000\",\"transaction_tag\":null,\"created_contract\":null,\"value\":\"96134317300393791000\",\"from\":{\"ens_domain_name\":null,\"hash\":\"0xD4996f61A974f9f11F554f6df2B5010dc7829e17\",\"implementations\":[],\"is_contract\":false,\"is_scam\":false,\"is_verified\":false,\"metadata\":{\"tags\":[{\"meta\":{},\"name\":\"Beacon Depositor\",\"ordinal\":0,\"slug\":\"beacon-depositor\",\"tagType\":\"generic\"}]},\"name\":null,\"private_tags\":[],\"proxy_type\":null,\"public_tags\":[],\"watchlist_names\":[]},\"gas_used\":\"21000\",\"status\":\"ok\",\"to\":{\"ens_domain_name\":null,\"hash\":\"0x3Ef6683F2553aF861f91194d23bDf8522d1F2edA\",\"implementations\":[],\"is_contract\":false,\"is_scam\":false,\"is_verified\":false,\"metadata\":null,\"name\":null,\"private_tags\":[],\"proxy_type\":null,\"public_tags\":[],\"watchlist_names\":[]},\"authorization_list\":[],\"method\":null,\"fee\":{\"type\":\"actual\",\"value\":\"8249800629000\"},\"actions\":[],\"gas_limit\":\"21000\",\"gas_price\":\"392847649\",\"decoded_input\":null,\"token_transfers\":null,\"base_fee_per_gas\":\"392347649\",\"timestamp\":\"2025-08-11T09:32:59.000000Z\",\"nonce\":5,\"historic_exchange_rate\":\"4272.89\",\"transaction_types\":[\"coin_transfer\"],\"exchange_rate\":\"4273.59\",\"block_number\":23116935,\"has_error_in_internal_transactions\":false},{\"priority_fee\":\"10500000000\",\"raw_input\":\"0x\",\"result\":\"success\",\"hash\":\"0xd6ffab9d747104774f0e151dcf72c200212f0ca5391ab79cdb0990491f0ee36c\",\"max_fee_per_gas\":\"506329200\",\"revert_reason\":null,\"confirmation_duration\":[0,12000],\"transaction_burnt_fee\":\"8239300629000\",\"type\":2,\"token_transfers_overflow\":null,\"confirmations\":1,\"position\":291,\"max_priority_fee_per_gas\":\"500000\",\"transaction_tag\":null,\"created_contract\":null,\"value\":\"26289367086800000\",\"from\":{\"ens_domain_name\":null,\"hash\":\"0x9776cBECf431869D7Cce96819131476c2E0f4Ed5\",\"implementations\":[],\"is_contract\":false,\"is_scam\":false,\"is_verified\":false,\"metadata\":null,\"name\":null,\"private_tags\":[],\"proxy_type\":null,\"public_tags\":[],\"watchlist_names\":[]},\"gas_used\":\"21000\",\"status\":\"ok\",\"to\":{\"ens_domain_name\":null,\"hash\":\"0x29f5A16a604cBAEf8c3711739D5Ce160D85A67ab\",\"implementations\":[],\"is_contract\":false,\"is_scam\":false,\"is_verified\":false,\"metadata\":null,\"name\":null,\"private_tags\":[],\"proxy_type\":null,\"public_tags\":[],\"watchlist_names\":[]},\"authorization_list\":[],\"method\":null,\"fee\":{\"type\":\"actual\",\"value\":\"8249800629000\"},\"actions\":[],\"gas_limit\":\"21000\",\"gas_price\":\"392847649\",\"decoded_input\":null,\"token_transfers\":null,\"base_fee_per_gas\":\"392347649\",\"timestamp\":\"2025-08-11T09:32:59.000000Z\",\"nonce\":55700,\"historic_exchange_rate\":\"4272.89\",\"transaction_types\":[\"coin_transfer\"],\"exchange_rate\":\"4273.59\",\"block_number\":23116935,\"has_error_in_internal_transactions\":false},{\"priority_fee\":\"10500000000\",\"raw_input\":\"0x\",\"result\":\"success\",\"hash\":\"0xd8c3cf213813a10cbd88976bc9973c8c8445c1978f137b459bb2b61e9ae4a458\",\"max_fee_per_gas\":\"506329200\",\"revert_reason\":null,\"confirmation_duration\":[0,12000],\"transaction_burnt_fee\":\"8239300629000\",\"type\":2,\"token_transfers_overflow\":null,\"confirmations\":1,\"position\":290,\"max_priority_fee_per_gas\":\"500000\",\"transaction_tag\":null,\"created_contract\":null,\"value\":\"16207063331455532\",\"from\":{\"ens_domain_name\":null,\"hash\":\"0x87D18Ee84e8f4f5709CBf3500179a4C601DA12cE\",\"implementations\":[],\"is_contract\":false,\"is_scam\":false,\"is_verified\":false,\"metadata\":null,\"name\":null,\"private_tags\":[],\"proxy_type\":null,\"public_tags\":[],\"watchlist_names\":[]},\"gas_used\":\"21000\",\"status\":\"ok\",\"to\":{\"ens_domain_name\":null,\"hash\":\"0x4af38a21518ce00f50b99F06A997132d868ac59e\",\"implementations\":[],\"is_contract\":false,\"is_scam\":false,\"is_verified\":false,\"metadata\":null,\"name\":null,\"private_tags\":[],\"proxy_type\":null,\"public_tags\":[],\"watchlist_names\":[]},\"authorization_list\":[],\"method\":null,\"fee\":{\"type\":\"actual\",\"value\":\"8249800629000\"},\"actions\":[],\"gas_limit\":\"21000\",\"gas_price\":\"392847649\",\"decoded_input\":null,\"token_transfers\":null,\"base_fee_per_gas\":\"392347649\",\"timestamp\":\"2025-08-11T09:32:59.000000Z\",\"nonce\":73807,\"historic_exchange_rate\":\"4272.89\",\"transaction_types\":[\"coin_transfer\"],\"exchange_rate\":\"4273.59\",\"block_number\":23116935,\"has_error_in_internal_transactions\":false},{\"priority_fee\":\"10769100000\",\"raw_input\":\"0x161ac21f0000000000000000000000004bf5648511c273104684d22790266f105580ac700000000000000000000000000000a26b00c1f0df003000390027140000faa71900000000000000000000000000000000000000000000000000000000000000000000000000000000000000000000000000000000000000000000000000000005\",\"result\":\"success\",\"hash\":\"0x1bc528246063eebc25ca730e97c2ab8fa090bd4786246f6e79a93f1f3401b459\",\"max_fee_per_gas\":\"807047654\",\"revert_reason\":null,\"confirmation_duration\":[0,12000],\"transaction_burnt_fee\":\"42252310668459\",\"type\":2,\"token_transfers_overflow\":null,\"confirmations\":1,\"position\":289,\"max_priority_fee_per_gas\":\"100000\",\"transaction_tag\":null,\"created_contract\":null,\"value\":\"0\",\"from\":{\"ens_domain_name\":null,\"hash\":\"0x3c29D331E0d7557B7537895510C572FeC1398803\",\"implementations\":[],\"is_contract\":false,\"is_scam\":false,\"is_verified\":false,\"metadata\":null,\"name\":null,\"private_tags\":[],\"proxy_type\":null,\"public_tags\":[],\"watchlist_names\":[]},\"gas_used\":\"107691\",\"status\":\"ok\",\"to\":{\"ens_domain_name\":null,\"hash\":\"0x00005EA00Ac477B1030CE78506496e8C2dE24bf5\",\"implementations\":[],\"is_contract\":true,\"is_scam\":false,\"is_verified\":true,\"metadata\":{\"tags\":[{\"meta\":{\"projectName\":\"OpenSea\",\"tagUrl\":\"https://app.klerosscout.eth.limo/#/?registry=Single_Tags&itemdetails=0x66f8eac0fa1c98f2683ac7be438cab1fbe5cc33fbdd2081f13aab560695286dc@0x66260c69d03837016d88c9877e61e08ef74c59f2\",\"tooltipDescription\":\"OpenSea's SeaDrop 1.0 contract\",\"tooltipUrl\":\"https://opensea.io/\"},\"name\":\"SeaDrop 1.0\",\"ordinal\":10,\"slug\":\"seadrop-10-1\",\"tagType\":\"name\"},{\"meta\":{},\"name\":\"OpenSea\",\"ordinal\":0,\"slug\":\"opensea\",\"tagType\":\"generic\"},{\"meta\":{},\"name\":\"NFT\",\"ordinal\":0,\"slug\":\"nft\",\"tagType\":\"generic\"},{\"meta\":{\"alertStatus\":\"info\",\"data\":\"SeaDrop is a contract for conducting primary NFT drops on EVM-compatible blockchains.\"},\"name\":\"note_0\",\"ordinal\":0,\"slug\":\"note0\",\"tagType\":\"note\"}]},\"name\":\"SeaDrop\",\"private_tags\":[],\"proxy_type\":\"unknown\",\"public_tags\":[],\"watchlist_names\":[]},\"authorization_list\":[],\"method\":\"mintPublic\",\"fee\":{\"type\":\"actual\",\"value\":\"42263079768459\"},\"actions\":[],\"gas_limit\":\"139449\",\"gas_price\":\"392447649\",\"decoded_input\":{\"method_call\":\"mintPublic(address nftContract, address feeRecipient, address minterIfNotPayer, uint256 quantity)\",\"method_id\":\"161ac21f\",\"parameters\":[{\"name\":\"nftContract\",\"type\":\"address\",\"value\":\"0x4bF5648511C273104684d22790266f105580aC70\"},{\"name\":\"feeRecipient\",\"type\":\"address\",\"value\":\"0x0000a26b00c1F0DF003000390027140000fAa719\"},{\"name\":\"minterIfNotPayer\",\"type\":\"address\",\"value\":\"0x0000000000000000000000000000000000000000\"},{\"name\":\"quantity\",\"type\":\"uint256\",\"value\":\"5\"}]},\"token_transfers\":null,\"base_fee_per_gas\":\"392347649\",\"timestamp\":\"2025-08-11T09:32:59.000000Z\",\"nonce\":28,\"historic_exchange_rate\":\"4272.89\",\"transaction_types\":[\"contract_call\",\"token_transfer\"],\"exchange_rate\":\"4273.59\",\"block_number\":23116935,\"has_error_in_internal_transactions\":false},{\"priority_fee\":\"15729065200\",\"raw_input\":\"0x095ea7b300000000000000000000000068b3465833fb72a70ecdf485e0e4c7bd8665fc450000000000000000000000000000000000000000000000000000000000000000\",\"result\":\"success\",\"hash\":\"0xedb0a6843f7ef005ebaabdc90eafcd2575ea5bb6a0ce8c70d41fe9c57ac70b9f\",\"max_fee_per_gas\":\"504900000\",\"revert_reason\":null,\"confirmation_duration\":[0,12000],\"transaction_burnt_fee\":\"10241058334198\",\"type\":2,\"token_transfers_overflow\":null,\"confirmations\":1,\"position\":288,\"max_priority_fee_per_gas\":\"602600\",\"transaction_tag\":null,\"created_contract\":null,\"value\":\"0\",\"from\":{\"ens_domain_name\":null,\"hash\":\"0x08af4c3d33B37a66e2E2ff97d914a5eFDfD8A6c8\",\"implementations\":[],\"is_contract\":false,\"is_scam\":false,\"is_verified\":false,\"metadata\":null,\"name\":null,\"private_tags\":[],\"proxy_type\":null,\"public_tags\":[],\"watchlist_names\":[]},\"gas_used\":\"26102\",\"status\":\"ok\",\"to\":{\"ens_domain_name\":null,\"hash\":\"0xfB80c4822b65f3fC8bB4C0496780bDE50d8A1aC7\",\"implementations\":[],\"is_contract\":true,\"is_scam\":false,\"is_verified\":false,\"metadata\":null,\"name\":\"Uniswap V2\",\"private_tags\":[],\"proxy_type\":\"unknown\",\"public_tags\":[],\"watchlist_names\":[]},\"authorization_list\":[],\"method\":\"approve\",\"fee\":{\"type\":\"actual\",\"value\":\"10256787399398\"},\"actions\":[],\"gas_limit\":\"39666\",\"gas_price\":\"392950249\",\"decoded_input\":{\"method_call\":\"approve(address _to, uint256 _tokenId)\",\"method_id\":\"095ea7b3\",\"parameters\":[{\"name\":\"_to\",\"type\":\"address\",\"value\":\"0x68b3465833fb72A70ecDF485E0e4C7bD8665Fc45\"},{\"name\":\"_tokenId\",\"type\":\"uint256\",\"value\":\"0\"}]},\"token_transfers\":null,\"base_fee_per_gas\":\"392347649\",\"timestamp\":\"2025-08-11T09:32:59.000000Z\",\"nonce\":3,\"historic_exchange_rate\":\"4272.89\",\"transaction_types\":[\"contract_call\"],\"exchange_rate\":\"4273.59\",\"block_number\":23116935,\"has_error_in_internal_transactions\":false},{\"priority_fee\":\"15729065200\",\"raw_input\":\"0x095ea7b300000000000000000000000068b3465833fb72a70ecdf485e0e4c7bd8665fc450000000000000000000000000000000000000000000000000000000000000000\",\"result\":\"success\",\"hash\":\"0x43d9b3216846911f79e2f4b79a7c767d1fa8684030e6bf8d8aeba96427dc7c75\",\"max_fee_per_gas\":\"504900000\",\"revert_reason\":null,\"confirmation_duration\":[0,12000],\"transaction_burnt_fee\":\"10241058334198\",\"type\":2,\"token_transfers_overflow\":null,\"confirmations\":1,\"position\":287,\"max_priority_fee_per_gas\":\"602600\",\"transaction_tag\":null,\"created_contract\":null,\"value\":\"0\",\"from\":{\"ens_domain_name\":null,\"hash\":\"0x08af4c3d33B37a66e2E2ff97d914a5eFDfD8A6c8\",\"implementations\":[],\"is_contract\":false,\"is_scam\":false,\"is_verified\":false,\"metadata\":null,\"name\":null,\"private_tags\":[],\"proxy_type\":null,\"public_tags\":[],\"watchlist_names\":[]},\"gas_used\":\"26102\",\"status\":\"ok\",\"to\":{\"ens_domain_name\":null,\"hash\":\"0xfB80c4822b65f3fC8bB4C0496780bDE50d8A1aC7\",\"implementations\":[],\"is_contract\":true,\"is_scam\":false,\"is_verified\":false,\"metadata\":null,\"name\":\"Uniswap V2\",\"private_tags\":[],\"proxy_type\":\"unknown\",\"public_tags\":[],\"watchlist_names\":[]},\"authorization_list\":[],\"method\":\"approve\",\"fee\":{\"type\":\"actual\",\"value\":\"10256787399398\"},\"actions\":[],\"gas_limit\":\"39666\",\"gas_price\":\"392950249\",\"decoded_input\":{\"method_call\":\"approve(address _to, uint256 _tokenId)\",\"method_id\":\"095ea7b3\",\"parameters\":[{\"name\":\"_to\",\"type\":\"address\",\"value\":\"0x68b3465833fb72A70ecDF485E0e4C7bD8665Fc45\"},{\"name\":\"_tokenId\",\"type\":\"uint256\",\"value\":\"0\"}]},\"token_transfers\":null,\"base_fee_per_gas\":\"392347649\",\"timestamp\":\"2025-08-11T09:32:59.000000Z\",\"nonce\":2,\"historic_exchange_rate\":\"4272.89\",\"transaction_types\":[\"contract_call\"],\"exchange_rate\":\"4273.59\",\"block_number\":23116935,\"has_error_in_internal_transactions\":false},{\"priority_fee\":\"17074500000\",\"raw_input\":\"0x3593564c000000000000000000000000000000000000000000000000000000000000006000000000000000000000000000000000000000000000000000000000000000a0000000000000000000000000000000000000000000000000000000006899bfbd00000000000000000000000000000000000000000000000000000000000000040b080604000000000000000000000000000000000000000000000000000000000000000000000000000000000000000000000000000000000000000000000004000000000000000000000000000000000000000000000000000000000000008000000000000000000000000000000000000000000000000000000000000000e0000000000000000000000000000000000000000000000000000000000000020000000000000000000000000000000000000000000000000000000000000002800000000000000000000000000000000000000000000000000000000000000040000000000000000000000000000000000000000000000000000000000000000200000000000000000000000000000000000000000000000000534fa697fba0000000000000000000000000000000000000000000000000000000000000000100000000000000000000000000000000000000000000000000000000000000000200000000000000000000000000000000000000000000000000534fa697fba000000000000000000000000000000000000000000000000000000000000000000000000000000000000000000000000000000000000000000000000000000000a000000000000000000000000000000000000000000000000000000000000000000000000000000000000000000000000000000000000000000000000000000002000000000000000000000000c02aaa39b223fe8d0a0e5c4f27ead9083c756cc2000000000000000000000000255494b830bd4fe7220b3ec4842cba75600b6c800000000000000000000000000000000000000000000000000000000000000060000000000000000000000000255494b830bd4fe7220b3ec4842cba75600b6c80000000000000000000000000000000fee13a103a10d593b9ae06b3e05f2e7e1c00000000000000000000000000000000000000000000000000000000000000190000000000000000000000000000000000000000000000000000000000000060000000000000000000000000255494b830bd4fe7220b3ec4842cba75600b6c80000000000000000000000000e9408ec9a839860933c92dc91d0da28f07bbdac6000000000000000000000000000000000000000000000000000002226bd2e9a60c\",\"result\":\"success\",\"hash\":\"0x0392369eaba6f3c89fbed3d9bf39af8e3d1aee62d3deeb886b2f83443643dc40\",\"max_fee_per_gas\":\"402302345\",\"revert_reason\":null,\"confirmation_duration\":[0,12000],\"transaction_burnt_fee\":\"66991399328505\",\"type\":2,\"token_transfers_overflow\":null,\"confirmations\":1,\"position\":286,\"max_priority_fee_per_gas\":\"100000\",\"transaction_tag\":null,\"created_contract\":null,\"value\":\"23450000000000000\",\"from\":{\"ens_domain_name\":null,\"hash\":\"0xE9408ec9a839860933c92dc91D0dA28f07bBdaC6\",\"implementations\":[],\"is_contract\":false,\"is_scam\":false,\"is_verified\":false,\"metadata\":null,\"name\":null,\"private_tags\":[],\"proxy_type\":null,\"public_tags\":[],\"watchlist_names\":[]},\"gas_used\":\"170745\",\"status\":\"ok\",\"to\":{\"ens_domain_name\":null,\"hash\":\"0x66a9893cC07D91D95644AEDD05D03f95e1dBA8Af\",\"implementations\":[],\"is_contract\":true,\"is_scam\":false,\"is_verified\":true,\"metadata\":{\"tags\":[{\"meta\":{\"appID\":\"uniswap\"},\"name\":\"Uniswap V4\",\"ordinal\":0,\"slug\":\"uniswap-v4\",\"tagType\":\"protocol\"},{\"meta\":{\"tooltipUrl\":\"https://app.uniswap.org/\"},\"name\":\"Uniswap V4: Universal Router\",\"ordinal\":10,\"slug\":\"uniswap-v4-universal-router\",\"tagType\":\"name\"},{\"meta\":{},\"name\":\"Router\",\"ordinal\":0,\"slug\":\"router\",\"tagType\":\"generic\"}]},\"name\":\"UniversalRouter\",\"private_tags\":[],\"proxy_type\":\"unknown\",\"public_tags\":[],\"watchlist_names\":[]},\"authorization_list\":[],\"method\":\"execute\",\"fee\":{\"type\":\"actual\",\"value\":\"67008473828505\"},\"actions\":[],\"gas_limit\":\"248434\",\"gas_price\":\"392447649\",\"decoded_input\":{\"method_call\":\"execute(bytes commands, bytes[] inputs, uint256 deadline)\",\"method_id\":\"3593564c\",\"parameters\":[{\"name\":\"commands\",\"type\":\"bytes\",\"value\":\"0x0b080604\"},{\"name\":\"inputs\",\"type\":\"bytes[]\",\"value\":[\"0x000000000000000000000000000000000000000000000000000000000000000200000000000000000000000000000000000000000000000000534fa697fba000\",\"0x000000000000000000000000000000000000000000000000000000000000000200000000000000000000000000000000000000000000000000534fa697fba000000000000000000000000000000000000000000000000000000000000000000000000000000000000000000000000000000000000000000000000000000000a000000000000000000000000000000000000000000000000000000000000000000000000000000000000000000000000000000000000000000000000000000002000000000000000000000000c02aaa39b223fe8d0a0e5c4f27ead9083c756cc2000000000000000000000000255494b830bd4fe7220b3ec4842cba75600b6c80\",\"0x000000000000000000000000255494b830bd4fe7220b3ec4842cba75600b6c80000000000000000000000000000000fee13a103a10d593b9ae06b3e05f2e7e1c0000000000000000000000000000000000000000000000000000000000000019\",\"0x000000000000000000000000255494b830bd4fe7220b3ec4842cba75600b6c80000000000000000000000000e9408ec9a839860933c92dc91d0da28f07bbdac6000000000000000000000000000000000000000000000000000002226bd2e9a6\"]},{\"name\":\"deadline\",\"type\":\"uint256\",\"value\":\"1754906557\"}]},\"token_transfers\":null,\"base_fee_per_gas\":\"392347649\",\"timestamp\":\"2025-08-11T09:32:59.000000Z\",\"nonce\":788,\"historic_exchange_rate\":\"4272.89\",\"transaction_types\":[\"coin_transfer\",\"contract_call\",\"token_transfer\"],\"exchange_rate\":\"4273.59\",\"block_number\":23116935,\"has_error_in_internal_transactions\":false},{\"priority_fee\":\"17458100000\",\"raw_input\":\"0xb930370100000000000000000000000000000000000000000000000000000000000000c0000000000000000000000000000000000000000000000000000001989879be5a00000000000000000000000000000000000000000000000000000000000003600000000000000000000000000000000000000000000000000000000000000000000000000000000000000000000000000000000000000000000000000000038000000000000000000000000000000000000000000000000000000000000003a0000000000000000000000000a0b86991c6218b36c1d19d4a2e9eb0ce3606eb48000000000000000000000000000000000000000000000000000000004b42dd140000000000000000000000000000000000000000000000000000000000000160000000000000000000000000000000000000000000000000000000004b15dadc0000000000000000000000000000000000000000000000000000000000736f6c00000000000000000000000000000000000000000000000000000000000001a0000000000000000000000000391276932b5105c2db8ee928dfd8872564d6d24600000000000000000000000000000000000000000000000000000000000001e00000000000000000000000000000000000000000000000000000000000000220000000000000000000000000000000000000000000000000000000000000026000000000000000000000000000000000000000000000000000000000000002800000000000000000000000000000000000000000000000000000000000000020c6fa7af3bedbad3a3d65f36aabc97431b1bbe4c2d2f6e0e47ca60203452f5d610000000000000000000000000000000000000000000000000000000000000020ef7230a6b475a0dd4f8fd02090b5155f35cb918550cf3a8cb7d49c8264d7fe4e0000000000000000000000000000000000000000000000000000000000000020ef7230a6b475a0dd4f8fd02090b5155f35cb918550cf3a8cb7d49c8264d7fe4e00000000000000000000000000000000000000000000000000000000000000201bdded375f57c27748f09ce52b7a6e2dc46f6c04d61da47e55747e4fed7e793100000000000000000000000000000000000000000000000000000000000000000000000000000000000000000000000000000000000000000000000000000000000000000000000000000000000000000000000000000000000000000000000000000000000000000000000000000000000000000000000000000000000000000000000000000000000000000000000000000000000000000000000000000042010100000028991d0000000000000000000000000000000000dcda154b00000000000000000000000000000000000000000000000000000000000000000000000000000000000000000000000000000000000000000000000000000000000000\",\"result\":\"success\",\"hash\":\"0x97343cabb7dc436c782603ac628ba9c68a7f68be7af9f9124ecfd8b55d5de49d\",\"max_fee_per_gas\":\"484268592\",\"revert_reason\":null,\"confirmation_duration\":[0,12000],\"transaction_burnt_fee\":\"68496444910069\",\"type\":2,\"token_transfers_overflow\":null,\"confirmations\":1,\"position\":285,\"max_priority_fee_per_gas\":\"100000\",\"transaction_tag\":null,\"created_contract\":null,\"value\":\"1000000000000000\",\"from\":{\"ens_domain_name\":null,\"hash\":\"0x391276932b5105C2DB8eE928dfd8872564d6d246\",\"implementations\":[],\"is_contract\":false,\"is_scam\":false,\"is_verified\":false,\"metadata\":null,\"name\":null,\"private_tags\":[],\"proxy_type\":null,\"public_tags\":[],\"watchlist_names\":[]},\"gas_used\":\"174581\",\"status\":\"ok\",\"to\":{\"ens_domain_name\":null,\"hash\":\"0xeF4fB24aD0916217251F553c0596F8Edc630EB66\",\"implementations\":[{\"address\":\"0xbF20cB9614a0059bBe4b599d1D04358aFe31eDfb\",\"address_hash\":\"0xbF20cB9614a0059bBe4b599d1D04358aFe31eDfb\",\"name\":null}],\"is_contract\":true,\"is_scam\":false,\"is_verified\":true,\"metadata\":{\"tags\":[{\"meta\":{},\"name\":\"Dln\",\"ordinal\":0,\"slug\":\"dln\",\"tagType\":\"protocol\"},{\"meta\":{},\"name\":\"deBridge\",\"ordinal\":0,\"slug\":\"debridge\",\"tagType\":\"protocol\"},{\"meta\":{\"projectName\":\"DLN\",\"tagUrl\":\"https://app.klerosscout.eth.limo/#/?registry=Single_Tags&itemdetails=0xd52a08fb59d3dbf5819e8e1a0e9a7c2b86f9d881e813d406a59fee24209e6d7c@0x66260c69d03837016d88c9877e61e08ef74c59f2\",\"tooltipDescription\":\"DLN's official Source Proxy contract on Ethereum Mainnet\",\"tooltipUrl\":\"https://dln.trade/\",\"verifiedDomains\":[\"app.debridge.finance\",\"app.dln.trade\"]},\"name\":\"deBridge: DlnSource\",\"ordinal\":10,\"slug\":\"debridge-dlnsource\",\"tagType\":\"name\"}]},\"name\":\"TransparentUpgradeableProxy\",\"private_tags\":[],\"proxy_type\":\"eip1967\",\"public_tags\":[],\"watchlist_names\":[]},\"authorization_list\":[],\"method\":\"createSaltedOrder\",\"fee\":{\"type\":\"actual\",\"value\":\"68513903010069\"},\"actions\":[],\"gas_limit\":\"187409\",\"gas_price\":\"392447649\",\"decoded_input\":{\"method_call\":\"createSaltedOrder((address,uint256,bytes,uint256,uint256,bytes,address,bytes,bytes,bytes,bytes) _orderCreation, uint64 _salt, bytes _affiliateFee, uint32 _referralCode, bytes _permitEnvelope, bytes _metadata)\",\"method_id\":\"b9303701\",\"parameters\":[{\"name\":\"_orderCreation\",\"type\":\"(address,uint256,bytes,uint256,uint256,bytes,address,bytes,bytes,bytes,bytes)\",\"value\":[\"0xA0b86991c6218b36c1d19D4a2e9Eb0cE3606eB48\",\"1262673172\",\"0xc6fa7af3bedbad3a3d65f36aabc97431b1bbe4c2d2f6e0e47ca60203452f5d61\",\"1259723484\",\"7565164\",\"0xef7230a6b475a0dd4f8fd02090b5155f35cb918550cf3a8cb7d49c8264d7fe4e\",\"0x391276932b5105C2DB8eE928dfd8872564d6d246\",\"0xef7230a6b475a0dd4f8fd02090b5155f35cb918550cf3a8cb7d49c8264d7fe4e\",\"0x1bdded375f57c27748f09ce52b7a6e2dc46f6c04d61da47e55747e4fed7e7931\",\"0x\",\"0x\"]},{\"name\":\"_salt\",\"type\":\"uint64\",\"value\":\"1754904772186\"},{\"name\":\"_affiliateFee\",\"type\":\"bytes\",\"value\":\"0x\"},{\"name\":\"_referralCode\",\"type\":\"uint32\",\"value\":\"0\"},{\"name\":\"_permitEnvelope\",\"type\":\"bytes\",\"value\":\"0x\"},{\"name\":\"_metadata\",\"type\":\"bytes\",\"value\":\"0x010100000028991d0000000000000000000000000000000000dcda154b00000000000000000000000000000000000000000000000000000000000000000000000000\"}]},\"token_transfers\":null,\"base_fee_per_gas\":\"392347649\",\"timestamp\":\"2025-08-11T09:32:59.000000Z\",\"nonce\":403,\"historic_exchange_rate\":\"4272.89\",\"transaction_types\":[\"coin_transfer\",\"contract_call\",\"token_transfer\"],\"exchange_rate\":\"4273.59\",\"block_number\":23116935,\"has_error_in_internal_transactions\":false},{\"priority_fee\":\"18314219200\",\"raw_input\":\"0x2e1a7d4d000000000000000000000000000000000000000000000000006a94d74f430000\",\"result\":\"success\",\"hash\":\"0x716cae2d90057a78d4d3d97e0c808e5527ef3920295bcda02a4e4792b3f459a0\",\"max_fee_per_gas\":\"504900000\",\"revert_reason\":null,\"confirmation_duration\":[0,12000],\"transaction_burnt_fee\":\"11924229748408\",\"type\":2,\"token_transfers_overflow\":null,\"confirmations\":1,\"position\":284,\"max_priority_fee_per_gas\":\"602600\",\"transaction_tag\":null,\"created_contract\":null,\"value\":\"0\",\"from\":{\"ens_domain_name\":null,\"hash\":\"0xd1F5f86BcA8A99ebd779A478fe70dfc50Ac67b57\",\"implementations\":[],\"is_contract\":false,\"is_scam\":false,\"is_verified\":false,\"metadata\":null,\"name\":null,\"private_tags\":[],\"proxy_type\":null,\"public_tags\":[],\"watchlist_names\":[]},\"gas_used\":\"30392\",\"status\":\"ok\",\"to\":{\"ens_domain_name\":null,\"hash\":\"0xC02aaA39b223FE8D0A0e5C4F27eAD9083C756Cc2\",\"implementations\":[],\"is_contract\":true,\"is_scam\":false,\"is_verified\":true,\"metadata\":{\"tags\":[{\"meta\":{\"projectName\":\"Wrapped Ether\",\"tagUrl\":\"https://app.klerosscout.eth.limo/#/?registry=Single_Tags&itemdetails=0xe27ff4957dc5c9bb33feafde33089e0c03fb4999f3e8d01f4720334161a17224@0x66260c69d03837016d88c9877e61e08ef74c59f2\",\"tokenAttributes\":\"{\\\"logo_url\\\":\\\"https://cdn.kleros.link/ipfs/QmRyTdB5Cc7zH7G4YwWs7jh98zNGLQN1NfJ8KTWTXikhcP/WETH\\\",\\\"token_symbol\\\":\\\"WETH\\\",\\\"token_name\\\":\\\"WETH\\\",\\\"decimals\\\":18}\",\"tooltipDescription\":\"wETH is wrapped ETH which confroms to the ERC20 standard\",\"tooltipUrl\":\"https://weth.io/\",\"verifiedDomains\":[\"traderjoexyz.com\",\"app.mav.xyz\",\"core.app\",\"shibaswap.com\",\"app.dodoex.io\",\"app.uniswap.org\",\"explorer.reservoir.tools\",\"pancakeswap.finance\",\"swapr.eth.limo\"]},\"name\":\"WETH Token (v2)\",\"ordinal\":10,\"slug\":\"weth-token-v2-1\",\"tagType\":\"name\"},{\"meta\":{\"data\":\"ok\"},\"name\":\"Token Reputation\",\"ordinal\":0,\"slug\":\"token-reputation\",\"tagType\":\"information\"},{\"meta\":{},\"name\":\"Token Contract\",\"ordinal\":0,\"slug\":\"token-contract\",\"tagType\":\"generic\"},{\"meta\":{},\"name\":\"Wrapped Token\",\"ordinal\":0,\"slug\":\"wrapped-token\",\"tagType\":\"generic\"},{\"meta\":{\"main_entity\":\"Wrapped\",\"tooltipDescription\":\"wETH is \\\"wrapped ETH\\\"\",\"tooltipUrl\":\"https://weth.io/\"},\"name\":\"Wrapped Ether\",\"ordinal\":10,\"slug\":\"wrapped-ether\",\"tagType\":\"name\"}]},\"name\":\"WETH\",\"private_tags\":[],\"proxy_type\":\"unknown\",\"public_tags\":[],\"watchlist_names\":[]},\"authorization_list\":[],\"method\":\"withdraw\",\"fee\":{\"type\":\"actual\",\"value\":\"11942543967608\"},\"actions\":[],\"gas_limit\":\"54245\",\"gas_price\":\"392950249\",\"decoded_input\":{\"method_call\":\"withdraw(uint256 wad)\",\"method_id\":\"2e1a7d4d\",\"parameters\":[{\"name\":\"wad\",\"type\":\"uint256\",\"value\":\"30000000000000000\"}]},\"token_transfers\":null,\"base_fee_per_gas\":\"392347649\",\"timestamp\":\"2025-08-11T09:32:59.000000Z\",\"nonce\":503,\"historic_exchange_rate\":\"4272.89\",\"transaction_types\":[\"contract_call\",\"token_transfer\"],\"exchange_rate\":\"4273.59\",\"block_number\":23116935,\"has_error_in_internal_transactions\":false},{\"priority_fee\":\"19447900000\",\"raw_input\":\"0xf7a1696300000000000000000000000000000000000000000000000000000000000000c0000000000000000000000000e46109f15ce5f37436afb4ccc8dc3a8273a1f577000000000000000000000000000000000000000000000000000000000028de809923eb94000000038e4b0801283838d897636247895f20a03a3069ae08a8bd6d000000000000000000000000231b0ee14048e9dccd1d247744d114a4eb5e8e63000000000000000000000000e46109f15ce5f37436afb4ccc8dc3a8273a1f57700000000000000000000000000000000000000000000000000000000000000043031313900000000000000000000000000000000000000000000000000000000\",\"result\":\"success\",\"hash\":\"0x3cd78675d4de0d27d42916d898b3bbdbef624811b8b5e0bc7733a42225605e9c\",\"max_fee_per_gas\":\"485696032\",\"revert_reason\":null,\"confirmation_duration\":[0,12000],\"transaction_burnt_fee\":\"76303378429871\",\"type\":2,\"token_transfers_overflow\":null,\"confirmations\":1,\"position\":283,\"max_priority_fee_per_gas\":\"100000\",\"transaction_tag\":null,\"created_contract\":null,\"value\":\"122349734445682227\",\"from\":{\"ens_domain_name\":\"1810.eth\",\"hash\":\"0xE46109F15Ce5f37436AFb4CcC8Dc3A8273A1f577\",\"implementations\":[],\"is_contract\":false,\"is_scam\":false,\"is_verified\":false,\"metadata\":null,\"name\":null,\"private_tags\":[],\"proxy_type\":null,\"public_tags\":[],\"watchlist_names\":[]},\"gas_used\":\"194479\",\"status\":\"ok\",\"to\":{\"ens_domain_name\":null,\"hash\":\"0x283Af0B28c62C092C9727F1Ee09c02CA627EB7F5\",\"implementations\":[],\"is_contract\":true,\"is_scam\":false,\"is_verified\":true,\"metadata\":{\"tags\":[{\"meta\":{\"appActionButtonText\":\"Mint domain\",\"appLogoURL\":\"https://blockscout-content.s3.amazonaws.com/ens-logo.png\",\"appMarketplaceURL\":\"https://app.ens.domains?utm_source=blockscout&utm_medium=action-button\",\"bgColor\":\"#5298FF\",\"textColor\":\"#FFFFFF\"},\"name\":\"ENS\",\"ordinal\":0,\"slug\":\"ens\",\"tagType\":\"protocol\"},{\"meta\":{\"main_entity\":\"ENS\",\"projectName\":\"ENS\",\"tagUrl\":\"https://app.klerosscout.eth.limo/#/?registry=Single_Tags&itemdetails=0xc519c30fcc7a0d4d8bd1071daf37428c533a80c106591cd0311686cd61d6b8e9@0x66260c69d03837016d88c9877e61e08ef74c59f2\",\"tooltipDescription\":\"ETH Registrar Controller 3 contract by ENS (Ethereum Name Service)\",\"tooltipUrl\":\"https://ens.domains/\",\"verifiedDomains\":[\"app.ens.domains\"]},\"name\":\"ETH Registrar Controller 3\",\"ordinal\":10,\"slug\":\"eth-registrar-controller-3-1\",\"tagType\":\"name\"}]},\"name\":\"ETHRegistrarController\",\"private_tags\":[],\"proxy_type\":\"unknown\",\"public_tags\":[],\"watchlist_names\":[]},\"authorization_list\":[],\"method\":\"registerWithConfig\",\"fee\":{\"type\":\"actual\",\"value\":\"76322826329871\"},\"actions\":[],\"gas_limit\":\"209336\",\"gas_price\":\"392447649\",\"decoded_input\":{\"method_call\":\"registerWithConfig(string name, address owner, uint256 duration, bytes32 secret, address resolver, address addr)\",\"method_id\":\"f7a16963\",\"parameters\":[{\"name\":\"name\",\"type\":\"string\",\"value\":\"0119\"},{\"name\":\"owner\",\"type\":\"address\",\"value\":\"0xE46109F15Ce5f37436AFb4CcC8Dc3A8273A1f577\"},{\"name\":\"duration\",\"type\":\"uint256\",\"value\":\"2678400\"},{\"name\":\"secret\",\"type\":\"bytes32\",\"value\":\"0x9923eb94000000038e4b0801283838d897636247895f20a03a3069ae08a8bd6d\"},{\"name\":\"resolver\",\"type\":\"address\",\"value\":\"0x231b0Ee14048e9dCcD1d247744d114a4EB5E8E63\"},{\"name\":\"addr\",\"type\":\"address\",\"value\":\"0xE46109F15Ce5f37436AFb4CcC8Dc3A8273A1f577\"}]},\"token_transfers\":null,\"base_fee_per_gas\":\"392347649\",\"timestamp\":\"2025-08-11T09:32:59.000000Z\",\"nonce\":512,\"historic_exchange_rate\":\"4272.89\",\"transaction_types\":[\"coin_transfer\",\"contract_call\",\"token_transfer\"],\"exchange_rate\":\"4273.59\",\"block_number\":23116935,\"has_error_in_internal_transactions\":false},{\"priority_fee\":\"20180000000\",\"raw_input\":\"0xa9059cbb000000000000000000000000403466a60252e6339572757645426c62894b8bb60000000000000000000000000000000000000000000000000000000c1b710800\",\"result\":\"success\",\"hash\":\"0x3cd74da2eb8dc23eb63ec4c9769e281fb18432b79e01fa127aa4d8989592c48d\",\"max_fee_per_gas\":\"506329200\",\"revert_reason\":null,\"confirmation_duration\":[0,12000],\"transaction_burnt_fee\":\"15835151113640\",\"type\":2,\"token_transfers_overflow\":null,\"confirmations\":1,\"position\":282,\"max_priority_fee_per_gas\":\"500000\",\"transaction_tag\":null,\"created_contract\":null,\"value\":\"0\",\"from\":{\"ens_domain_name\":null,\"hash\":\"0xEDA0cf2fa8b4b80aD2C2D90516BfDC3Be8C23860\",\"implementations\":[],\"is_contract\":false,\"is_scam\":false,\"is_verified\":false,\"metadata\":null,\"name\":null,\"private_tags\":[],\"proxy_type\":null,\"public_tags\":[],\"watchlist_names\":[]},\"gas_used\":\"40360\",\"status\":\"ok\",\"to\":{\"ens_domain_name\":null,\"hash\":\"0xA0b86991c6218b36c1d19D4a2e9Eb0cE3606eB48\",\"implementations\":[{\"address\":\"0x43506849D7C04F9138D1A2050bbF3A0c054402dd\",\"address_hash\":\"0x43506849D7C04F9138D1A2050bbF3A0c054402dd\",\"name\":\"FiatTokenV2_2\"}],\"is_contract\":true,\"is_scam\":false,\"is_verified\":true,\"metadata\":{\"tags\":[{\"meta\":{\"data\":\"ok\"},\"name\":\"Token Reputation\",\"ordinal\":0,\"slug\":\"token-reputation\",\"tagType\":\"information\"},{\"meta\":{},\"name\":\"Token Contract\",\"ordinal\":0,\"slug\":\"token-contract\",\"tagType\":\"generic\"},{\"meta\":{\"projectName\":\"Circle\",\"tagUrl\":\"https://app.klerosscout.eth.limo/#/?registry=Single_Tags&itemdetails=0x924f91c6a015abb7e7a5f8c7c0989761b4df998abdbd6541365eb3c82132a390@0x66260c69d03837016d88c9877e61e08ef74c59f2\",\"tokenAttributes\":\"{\\\"logo_url\\\":\\\"https://cdn.kleros.link/ipfs/Qmc3TH5cPhyh7418kSD83SSBzng1oqbLxjzxfjwA2VAoj8/BccwoeFESYBsv6XiJVRAp5b3pRpvMgdhfZCxV5vSppWbAukhqrBRVRj3jAxHnbfmvg181rcVw9ny4LBLbFdm2S2RRH\\\",\\\"token_symbol\\\":\\\"USDC\\\",\\\"token_name\\\":\\\"USD Coin\\\",\\\"decimals\\\":6}\",\"tooltipDescription\":\"USDC is a US dollar-backed stablecoin issued by Circle. USDC is designed to provide a faster, safer, and more efficient way to send, spend, and exchange money around the world.\",\"tooltipUrl\":\"https://www.circle.com/en/usdc\"},\"name\":\"USDC Token\",\"ordinal\":10,\"slug\":\"usdc-token-1\",\"tagType\":\"name\"},{\"meta\":{},\"name\":\"Circle\",\"ordinal\":0,\"slug\":\"circle\",\"tagType\":\"protocol\"},{\"meta\":{},\"name\":\"USDC\",\"ordinal\":0,\"slug\":\"usdc\",\"tagType\":\"generic\"},{\"meta\":{},\"name\":\"Stablecoin\",\"ordinal\":0,\"slug\":\"stablecoin\",\"tagType\":\"generic\"}]},\"name\":\"USDC\",\"private_tags\":[],\"proxy_type\":\"eip1967\",\"public_tags\":[],\"watchlist_names\":[]},\"authorization_list\":[],\"method\":\"transfer\",\"fee\":{\"type\":\"actual\",\"value\":\"15855331113640\"},\"actions\":[],\"gas_limit\":\"84000\",\"gas_price\":\"392847649\",\"decoded_input\":{\"method_call\":\"transfer(address to, uint256 value)\",\"method_id\":\"a9059cbb\",\"parameters\":[{\"name\":\"to\",\"type\":\"address\",\"value\":\"0x403466A60252E6339572757645426c62894b8bB6\"},{\"name\":\"value\",\"type\":\"uint256\",\"value\":\"52000000000\"}]},\"token_transfers\":null,\"base_fee_per_gas\":\"392347649\",\"timestamp\":\"2025-08-11T09:32:59.000000Z\",\"nonce\":29,\"historic_exchange_rate\":\"4272.89\",\"transaction_types\":[\"contract_call\",\"token_transfer\"],\"exchange_rate\":\"4273.59\",\"block_number\":23116935,\"has_error_in_internal_transactions\":false},{\"priority_fee\":\"20180000000\",\"raw_input\":\"0xa9059cbb00000000000000000000000069e1d487fde9f6bb678fe9ff11a4c7d5e4880fb600000000000000000000000000000000000000000000000000000002540be400\",\"result\":\"success\",\"hash\":\"0x49ca96ad175bbdcef73bdc5aedfce39ccc51ecf29127d19dbea23f2a032f7709\",\"max_fee_per_gas\":\"522500418\",\"revert_reason\":null,\"confirmation_duration\":[0,12000],\"transaction_burnt_fee\":\"15835151113640\",\"type\":2,\"token_transfers_overflow\":null,\"confirmations\":1,\"position\":281,\"max_priority_fee_per_gas\":\"500000\",\"transaction_tag\":null,\"created_contract\":null,\"value\":\"0\",\"from\":{\"ens_domain_name\":null,\"hash\":\"0xAB8B6F1e4D91E8096A93Be7dE4a427B7f0ae9e33\",\"implementations\":[],\"is_contract\":false,\"is_scam\":false,\"is_verified\":false,\"metadata\":null,\"name\":null,\"private_tags\":[],\"proxy_type\":null,\"public_tags\":[],\"watchlist_names\":[]},\"gas_used\":\"40360\",\"status\":\"ok\",\"to\":{\"ens_domain_name\":null,\"hash\":\"0xA0b86991c6218b36c1d19D4a2e9Eb0cE3606eB48\",\"implementations\":[{\"address\":\"0x43506849D7C04F9138D1A2050bbF3A0c054402dd\",\"address_hash\":\"0x43506849D7C04F9138D1A2050bbF3A0c054402dd\",\"name\":\"FiatTokenV2_2\"}],\"is_contract\":true,\"is_scam\":false,\"is_verified\":true,\"metadata\":{\"tags\":[{\"meta\":{\"data\":\"ok\"},\"name\":\"Token Reputation\",\"ordinal\":0,\"slug\":\"token-reputation\",\"tagType\":\"information\"},{\"meta\":{},\"name\":\"Token Contract\",\"ordinal\":0,\"slug\":\"token-contract\",\"tagType\":\"generic\"},{\"meta\":{\"projectName\":\"Circle\",\"tagUrl\":\"https://app.klerosscout.eth.limo/#/?registry=Single_Tags&itemdetails=0x924f91c6a015abb7e7a5f8c7c0989761b4df998abdbd6541365eb3c82132a390@0x66260c69d03837016d88c9877e61e08ef74c59f2\",\"tokenAttributes\":\"{\\\"logo_url\\\":\\\"https://cdn.kleros.link/ipfs/Qmc3TH5cPhyh7418kSD83SSBzng1oqbLxjzxfjwA2VAoj8/BccwoeFESYBsv6XiJVRAp5b3pRpvMgdhfZCxV5vSppWbAukhqrBRVRj3jAxHnbfmvg181rcVw9ny4LBLbFdm2S2RRH\\\",\\\"token_symbol\\\":\\\"USDC\\\",\\\"token_name\\\":\\\"USD Coin\\\",\\\"decimals\\\":6}\",\"tooltipDescription\":\"USDC is a US dollar-backed stablecoin issued by Circle. USDC is designed to provide a faster, safer, and more efficient way to send, spend, and exchange money around the world.\",\"tooltipUrl\":\"https://www.circle.com/en/usdc\"},\"name\":\"USDC Token\",\"ordinal\":10,\"slug\":\"usdc-token-1\",\"tagType\":\"name\"},{\"meta\":{},\"name\":\"Circle\",\"ordinal\":0,\"slug\":\"circle\",\"tagType\":\"protocol\"},{\"meta\":{},\"name\":\"USDC\",\"ordinal\":0,\"slug\":\"usdc\",\"tagType\":\"generic\"},{\"meta\":{},\"name\":\"Stablecoin\",\"ordinal\":0,\"slug\":\"stablecoin\",\"tagType\":\"generic\"}]},\"name\":\"USDC\",\"private_tags\":[],\"proxy_type\":\"eip1967\",\"public_tags\":[],\"watchlist_names\":[]},\"authorization_list\":[],\"method\":\"transfer\",\"fee\":{\"type\":\"actual\",\"value\":\"15855331113640\"},\"actions\":[],\"gas_limit\":\"84000\",\"gas_price\":\"392847649\",\"decoded_input\":{\"method_call\":\"transfer(address to, uint256 value)\",\"method_id\":\"a9059cbb\",\"parameters\":[{\"name\":\"to\",\"type\":\"address\",\"value\":\"0x69E1d487fDE9F6Bb678fE9FF11a4C7D5E4880fb6\"},{\"name\":\"value\",\"type\":\"uint256\",\"value\":\"10000000000\"}]},\"token_transfers\":null,\"base_fee_per_gas\":\"392347649\",\"timestamp\":\"2025-08-11T09:32:59.000000Z\",\"nonce\":0,\"historic_exchange_rate\":\"4272.89\",\"transaction_types\":[\"contract_call\",\"token_transfer\"],\"exchange_rate\":\"4273.59\",\"block_number\":23116935,\"has_error_in_internal_transactions\":false},{\"priority_fee\":\"22580000000\",\"raw_input\":\"0xa9059cbb0000000000000000000000002dcf4e18bcd54362fb3f46f3656114db17a6ed6700000000000000000000000000000000000000000000000000000000dabfc180\",\"result\":\"success\",\"hash\":\"0x70fba28a3f53a0fde74826b82f817fe0e2d33fecde4652984123141b4b4e9b91\",\"max_fee_per_gas\":\"522500418\",\"revert_reason\":null,\"confirmation_duration\":[0,12000],\"transaction_burnt_fee\":\"17718419828840\",\"type\":2,\"token_transfers_overflow\":null,\"confirmations\":1,\"position\":280,\"max_priority_fee_per_gas\":\"500000\",\"transaction_tag\":null,\"created_contract\":null,\"value\":\"0\",\"from\":{\"ens_domain_name\":null,\"hash\":\"0x2f13d388b85e0eCd32e7C3D7F36D1053354EF104\",\"implementations\":[],\"is_contract\":false,\"is_scam\":false,\"is_verified\":false,\"metadata\":{\"tags\":[{\"meta\":{\"tooltipUrl\":\"https://wirexapp.com/\"},\"name\":\"Wirex 1\",\"ordinal\":10,\"slug\":\"wirex-1\",\"tagType\":\"name\"},{\"meta\":{},\"name\":\"Exchange\",\"ordinal\":0,\"slug\":\"exchange\",\"tagType\":\"generic\"},{\"meta\":{\"alertStatus\":\"info\",\"data\":\"This address has been tagged based on hildobby compilation.\"},\"name\":\"note_0\",\"ordinal\":0,\"slug\":\"note0\",\"tagType\":\"note\"}]},\"name\":null,\"private_tags\":[],\"proxy_type\":null,\"public_tags\":[],\"watchlist_names\":[]},\"gas_used\":\"45160\",\"status\":\"ok\",\"to\":{\"ens_domain_name\":null,\"hash\":\"0xA0b86991c6218b36c1d19D4a2e9Eb0cE3606eB48\",\"implementations\":[{\"address\":\"0x43506849D7C04F9138D1A2050bbF3A0c054402dd\",\"address_hash\":\"0x43506849D7C04F9138D1A2050bbF3A0c054402dd\",\"name\":\"FiatTokenV2_2\"}],\"is_contract\":true,\"is_scam\":false,\"is_verified\":true,\"metadata\":{\"tags\":[{\"meta\":{\"data\":\"ok\"},\"name\":\"Token Reputation\",\"ordinal\":0,\"slug\":\"token-reputation\",\"tagType\":\"information\"},{\"meta\":{},\"name\":\"Token Contract\",\"ordinal\":0,\"slug\":\"token-contract\",\"tagType\":\"generic\"},{\"meta\":{\"projectName\":\"Circle\",\"tagUrl\":\"https://app.klerosscout.eth.limo/#/?registry=Single_Tags&itemdetails=0x924f91c6a015abb7e7a5f8c7c0989761b4df998abdbd6541365eb3c82132a390@0x66260c69d03837016d88c9877e61e08ef74c59f2\",\"tokenAttributes\":\"{\\\"logo_url\\\":\\\"https://cdn.kleros.link/ipfs/Qmc3TH5cPhyh7418kSD83SSBzng1oqbLxjzxfjwA2VAoj8/BccwoeFESYBsv6XiJVRAp5b3pRpvMgdhfZCxV5vSppWbAukhqrBRVRj3jAxHnbfmvg181rcVw9ny4LBLbFdm2S2RRH\\\",\\\"token_symbol\\\":\\\"USDC\\\",\\\"token_name\\\":\\\"USD Coin\\\",\\\"decimals\\\":6}\",\"tooltipDescription\":\"USDC is a US dollar-backed stablecoin issued by Circle. USDC is designed to provide a faster, safer, and more efficient way to send, spend, and exchange money around the world.\",\"tooltipUrl\":\"https://www.circle.com/en/usdc\"},\"name\":\"USDC Token\",\"ordinal\":10,\"slug\":\"usdc-token-1\",\"tagType\":\"name\"},{\"meta\":{},\"name\":\"Circle\",\"ordinal\":0,\"slug\":\"circle\",\"tagType\":\"protocol\"},{\"meta\":{},\"name\":\"USDC\",\"ordinal\":0,\"slug\":\"usdc\",\"tagType\":\"generic\"},{\"meta\":{},\"name\":\"Stablecoin\",\"ordinal\":0,\"slug\":\"stablecoin\",\"tagType\":\"generic\"}]},\"name\":\"USDC\",\"private_tags\":[],\"proxy_type\":\"eip1967\",\"public_tags\":[],\"watchlist_names\":[]},\"authorization_list\":[],\"method\":\"transfer\",\"fee\":{\"type\":\"actual\",\"value\":\"17740999828840\"},\"actions\":[],\"gas_limit\":\"84000\",\"gas_price\":\"392847649\",\"decoded_input\":{\"method_call\":\"transfer(address to, uint256 value)\",\"method_id\":\"a9059cbb\",\"parameters\":[{\"name\":\"to\",\"type\":\"address\",\"value\":\"0x2dcf4E18bcd54362fB3f46f3656114db17A6ED67\"},{\"name\":\"value\",\"type\":\"uint256\",\"value\":\"3670000000\"}]},\"token_transfers\":null,\"base_fee_per_gas\":\"392347649\",\"timestamp\":\"2025-08-11T09:32:59.000000Z\",\"nonce\":122732,\"historic_exchange_rate\":\"4272.89\",\"transaction_types\":[\"contract_call\",\"token_transfer\"],\"exchange_rate\":\"4273.59\",\"block_number\":23116935,\"has_error_in_internal_transactions\":false},{\"priority_fee\":\"24299200000\",\"raw_input\":\"0x8aaa8f3b0000000000000000000000000000000000000000000000000000000000000080000000000000000000000000000000000000000000000000000000000000026000000000000000000000000000000000000000000000000000000000000004400000000000000000000000000000000000000000000000000000000000000620000000000000000000000000000000000000000000000000000000000000000e000000000000000000000000be5e90c29e1626bc4a1e47047c1c7141a5aeeb03000000000000000000000000be5e90c29e1626bc4a1e47047c1c7141a5aeeb03000000000000000000000000be5e90c29e1626bc4a1e47047c1c7141a5aeeb03000000000000000000000000be5e90c29e1626bc4a1e47047c1c7141a5aeeb03000000000000000000000000be5e90c29e1626bc4a1e47047c1c7141a5aeeb03000000000000000000000000578f19d609aaeb33ce6a0894a2ec9ed484b53a3c000000000000000000000000b8f65af285fd7e22ad32d7de8a10e0bbdf3f1625000000000000000000000000be5e90c29e1626bc4a1e47047c1c7141a5aeeb03000000000000000000000000be5e90c29e1626bc4a1e47047c1c7141a5aeeb03000000000000000000000000be5e90c29e1626bc4a1e47047c1c7141a5aeeb03000000000000000000000000b8f65af285fd7e22ad32d7de8a10e0bbdf3f16250000000000000000000000000812200b7bbf7a361201fcab63992a980e375fbd0000000000000000000000000812200b7bbf7a361201fcab63992a980e375fbd000000000000000000000000b8f65af285fd7e22ad32d7de8a10e0bbdf3f1625000000000000000000000000000000000000000000000000000000000000000e000000000000000000000000eb138afb6e4437e41d97f54dc5b75ec13391685d000000000000000000000000f510904c6d58ee5f5d2f71b7aecd130e549bcea000000000000000000000000045ebb1c54f223c5905a7683164656b63527bc11b000000000000000000000000011d19410fc79f140c08ffa8301e4153f17f4e270000000000000000000000001e69598af32aa2a579ecd6c0f0b204e2be5a45ef0000000000000000000000006e8977f8003e7df99aaceef6b86bbec3852273c2000000000000000000000000e6471234390a29a28c9970e9ce8c12e0a5fad968000000000000000000000000ac9d82bf89a974ad3e0780d99af3e4fdd2b4cc9f000000000000000000000000e5379345675132653bd303030c6e456034ed1961000000000000000000000000b6af8b4cc2297d2ed44b89af479e45922545126f000000000000000000000000d9efd8dcb4d0a4f50dbc1c0fed29f79adf8053d9000000000000000000000000d886eab495940d1cbd998b3e3a5a77fda33a99f70000000000000000000000002ed382e830e21fbfaaed94c9162dee74afac7129000000000000000000000000acbf3c25a461cfc7f74e7398c86e59edbccfd8d6000000000000000000000000000000000000000000000000000000000000000e00000000000000000000000061cf888edd77e724122d699a9e785757a777005e0000000000000000000000007b29ecff889412a543323d20fc699e812f15eeae000000000000000000000000cbf5bdca4a6eae1e312542005fc4bb2cdbde32d8000000000000000000000000b15504747867a8e9b25716d0682ce72a4a074934000000000000000000000000d4f02c2f2c4f4c37570c45555c98d5e567b42280000000000000000000000000cf585021bccbf63f8565f576c36d308f452bf2fe0000000000000000000000007d7ef244b28e604996ae5fe1b1d709da4b39b321000000000000000000000000068098735c6eb9860a86c010c639e455940c2433000000000000000000000000ab90e975b9b50def0eb4b8ac4ed0af9a7ae5d30d000000000000000000000000b5068d2c56b53f7e4dc5e8cb7b6727cebdb11c52000000000000000000000000b8ca3f51007defe207e967b5e286b70a5b12cd48000000000000000000000000548a4f5aeafc853b612650f7d2778f49f3412e5200000000000000000000000074d01e4704f53c44d24d2946f9aa16b6bc01663100000000000000000000000054c853d98d9f33107a696cf5f6fc4eb6123da749000000000000000000000000000000000000000000000000000000000000000e0000000000000000000000000000000000000000000000000000015d3ef79800000000000000000000000000000000000000000000000000000000ef3d15c2a00000000000000000000000000000000000000000000000000000017ebc1d963b00000000000000000000000000000000000000000000000000000029e8d6080000000000000000000000000000000000000000000000000000000030e4f9b400000000000000000000000000000000000000000000000000000000003b9aca00000000000000000000000000000000000000000000000000b469471f80140000000000000000000000000000000000000000000000000000000000eed48c492000000000000000000000000000000000000000000000000000000574fbde60000000000000000000000000000000000000000000000000000000003a35294400000000000000000000000000000000000000000000000000d02ab486cedc00000000000000000000000000000000000000000000000000050ecc2face7f2000000000000000000000000000000000000000000000004105b71dad5e77c500000000000000000000000000000000000000000000000000013ada310be5acc0000\",\"result\":\"success\",\"hash\":\"0x35acec3bea8846022900a242037187a82743021d9c566504e33fb8e974beed45\",\"max_fee_per_gas\":\"1210571481\",\"revert_reason\":null,\"confirmation_duration\":[0,12000],\"transaction_burnt_fee\":\"47668669962904\",\"type\":2,\"token_transfers_overflow\":null,\"confirmations\":1,\"position\":279,\"max_priority_fee_per_gas\":\"200000\",\"transaction_tag\":null,\"created_contract\":null,\"value\":\"0\",\"from\":{\"ens_domain_name\":null,\"hash\":\"0x6cBB0D52982bA425Aa188048DcF4949bA7Af73E4\",\"implementations\":[],\"is_contract\":false,\"is_scam\":true,\"is_verified\":false,\"metadata\":{\"tags\":[{\"meta\":{},\"name\":\"Fake_Phishing1314191\",\"ordinal\":10,\"slug\":\"fakephishing1314191\",\"tagType\":\"name\"},{\"meta\":{\"alertStatus\":\"info\",\"data\":\"There are reports that this address was used in a Phishing scam. Please exercise caution when interacting with it. Reported by HashDit.\"},\"name\":\"note_0\",\"ordinal\":0,\"slug\":\"note0\",\"tagType\":\"note\"},{\"meta\":{\"bgColor\":\"#FED7D7\",\"textColor\":\"#822727\"},\"name\":\"Phish / Hack\",\"ordinal\":0,\"slug\":\"phish--hack\",\"tagType\":\"generic\"}]},\"name\":null,\"private_tags\":[],\"proxy_type\":null,\"public_tags\":[],\"watchlist_names\":[]},\"gas_used\":\"121496\",\"status\":\"ok\",\"to\":{\"ens_domain_name\":null,\"hash\":\"0x0d62F435a26708E689518595ca61FB49EAb48a7f\",\"implementations\":[],\"is_contract\":true,\"is_scam\":false,\"is_verified\":false,\"metadata\":null,\"name\":null,\"private_tags\":[],\"proxy_type\":null,\"public_tags\":[],\"watchlist_names\":[]},\"authorization_list\":[],\"method\":\"0x8aaa8f3b\",\"fee\":{\"type\":\"actual\",\"value\":\"47692969162904\"},\"actions\":[],\"gas_limit\":\"185442\",\"gas_price\":\"392547649\",\"decoded_input\":null,\"token_transfers\":null,\"base_fee_per_gas\":\"392347649\",\"timestamp\":\"2025-08-11T09:32:59.000000Z\",\"nonce\":40168,\"historic_exchange_rate\":\"4272.89\",\"transaction_types\":[\"contract_call\",\"token_transfer\"],\"exchange_rate\":\"4273.59\",\"block_number\":23116935,\"has_error_in_internal_transactions\":false},{\"priority_fee\":\"25634700000\",\"raw_input\":\"0x7299aa3100000000000000000000000000000000000000000000000000000000000000200000000000000000000000000000000000000000000000000000000000000003000000000000000000000000a0b86991c6218b36c1d19d4a2e9eb0ce3606eb480000000000000000000000005a5b93f762739fa94f3ecc0b34af2e56702e7f70000000000000000000000000b49e92dd51fa1e75d23bc70ef71fc37e3a030494000000000000000000000000870ac11d48b15db9a138cf899d20f13f79ba00bc0000000000000000000000000000000000000000000000000cb2bba6f17b80000000000000000000000000000000000000000000000000000000008dcbe169f3000000000000000000000000a0b86991c6218b36c1d19d4a2e9eb0ce3606eb48000000000000000000000000742b4166878bfd339db65a29a17e49b81a6b6aac000000000000000000000000e1b4af0d9d73cab204de39e1c798f26c3891be27000000000000000000000000870ac11d48b15db9a138cf899d20f13f79ba00bc0000000000000000000000000000000000000000000000000bef55718ad60000000000000000000000000000000000000000000000000000000002e5c7950164000000000000000000000000a0b86991c6218b36c1d19d4a2e9eb0ce3606eb480000000000000000000000001202f5c7b4b9e47a1a484e8b270be34dbbc75055000000000000000000000000da850a72080024e17c1590fbf6ea7a826db90760000000000000000000000000870ac11d48b15db9a138cf899d20f13f79ba00bc0000000000000000000000000000000000000000000000000cb2bba6f17b8000ffffffffffffffffffffffffffffffffffffffffffffffffffffffffffffffff\",\"result\":\"success\",\"hash\":\"0x29dcdcfccbab2262779220cc440d4e3009205c36d269f17df63d6f6dd78b27cf\",\"max_fee_per_gas\":\"807047654\",\"revert_reason\":null,\"confirmation_duration\":[0,12000],\"transaction_burnt_fee\":\"100577142778203\",\"type\":2,\"token_transfers_overflow\":null,\"confirmations\":1,\"position\":278,\"max_priority_fee_per_gas\":\"100000\",\"transaction_tag\":null,\"created_contract\":null,\"value\":\"0\",\"from\":{\"ens_domain_name\":null,\"hash\":\"0x6b1E064bc656be87909D55551547F21483BA731F\",\"implementations\":[],\"is_contract\":false,\"is_scam\":false,\"is_verified\":false,\"metadata\":null,\"name\":null,\"private_tags\":[],\"proxy_type\":null,\"public_tags\":[],\"watchlist_names\":[]},\"gas_used\":\"256347\",\"status\":\"ok\",\"to\":{\"ens_domain_name\":null,\"hash\":\"0x132E6C9C33A62D7727cd359b1f51e5B566E485Eb\",\"implementations\":[],\"is_contract\":true,\"is_scam\":false,\"is_verified\":true,\"metadata\":null,\"name\":\"Resolv USDC\",\"private_tags\":[],\"proxy_type\":\"unknown\",\"public_tags\":[],\"watchlist_names\":[]},\"authorization_list\":[],\"method\":\"reallocate\",\"fee\":{\"type\":\"actual\",\"value\":\"100602777478203\"},\"actions\":[],\"gas_limit\":\"279047\",\"gas_price\":\"392447649\",\"decoded_input\":{\"method_call\":\"reallocate(((address,address,address,address,uint256),uint256)[] allocations)\",\"method_id\":\"7299aa31\",\"parameters\":[{\"name\":\"allocations\",\"type\":\"((address,address,address,address,uint256),uint256)[]\",\"value\":[[[\"0xA0b86991c6218b36c1d19D4a2e9Eb0cE3606eB48\",\"0x5a5b93F762739fa94F3EcC0b34Af2e56702E7f70\",\"0xB49e92DD51Fa1E75D23Bc70EF71Fc37e3A030494\",\"0x870aC11D48B15DB9a138Cf899d20F13F79Ba00BC\",\"915000000000000000\"],\"609010936307\"],[[\"0xA0b86991c6218b36c1d19D4a2e9Eb0cE3606eB48\",\"0x742B4166878Bfd339Db65a29a17E49b81a6B6Aac\",\"0xe1B4af0d9D73CAb204De39e1c798F26c3891Be27\",\"0x870aC11D48B15DB9a138Cf899d20F13F79Ba00BC\",\"860000000000000000\"],\"3185919197540\"],[[\"0xA0b86991c6218b36c1d19D4a2e9Eb0cE3606eB48\",\"0x1202F5C7b4B9E47a1A484E8B270be34dbbC75055\",\"0xDa850a72080024e17c1590fbf6ea7a826dB90760\",\"0x870aC11D48B15DB9a138Cf899d20F13F79Ba00BC\",\"915000000000000000\"],\"115792089237316195423570985008687907853269984665640564039457584007913129639935\"]]}]},\"token_transfers\":null,\"base_fee_per_gas\":\"392347649\",\"timestamp\":\"2025-08-11T09:32:59.000000Z\",\"nonce\":1375,\"historic_exchange_rate\":\"4272.89\",\"transaction_types\":[\"contract_call\",\"token_transfer\"],\"exchange_rate\":\"4273.59\",\"block_number\":23116935,\"has_error_in_internal_transactions\":false},{\"priority_fee\":\"26846500000\",\"raw_input\":\"0x095ea7b3000000000000000000000000111111125421ca6dc452d289314280a0f8842a65ffffffffffffffffffffffffffffffffffffffffffffffffffffffffffffffff\",\"result\":\"success\",\"hash\":\"0x17a4b8efb875d195025a6a2afd3096099dd5906cfae144fa19754ba3157adce1\",\"max_fee_per_gas\":\"483142814\",\"revert_reason\":null,\"confirmation_duration\":[0,12000],\"transaction_burnt_fee\":\"21066322317757\",\"type\":2,\"token_transfers_overflow\":null,\"confirmations\":1,\"position\":277,\"max_priority_fee_per_gas\":\"500000\",\"transaction_tag\":null,\"created_contract\":null,\"value\":\"0\",\"from\":{\"ens_domain_name\":null,\"hash\":\"0xFBb671f63870a784127ec5024Ffac2f1809ED688\",\"implementations\":[],\"is_contract\":false,\"is_scam\":false,\"is_verified\":false,\"metadata\":null,\"name\":null,\"private_tags\":[],\"proxy_type\":null,\"public_tags\":[],\"watchlist_names\":[]},\"gas_used\":\"53693\",\"status\":\"ok\",\"to\":{\"ens_domain_name\":null,\"hash\":\"0xA1290d69c65A6Fe4DF752f95823fae25cB99e5A7\",\"implementations\":[{\"address\":\"0x60FF20BACD9A647e4025Ed8b17CE30e40095A1d2\",\"address_hash\":\"0x60FF20BACD9A647e4025Ed8b17CE30e40095A1d2\",\"name\":\"RSETH\"}],\"is_contract\":true,\"is_scam\":false,\"is_verified\":true,\"metadata\":{\"tags\":[{\"meta\":{},\"name\":\"Kelp DAO: rsETH Token\",\"ordinal\":10,\"slug\":\"kelp-dao-rseth-token\",\"tagType\":\"name\"}]},\"name\":\"Kelp DAO Restaked ETH\",\"private_tags\":[],\"proxy_type\":\"eip1967\",\"public_tags\":[],\"watchlist_names\":[]},\"authorization_list\":[],\"method\":\"approve\",\"fee\":{\"type\":\"actual\",\"value\":\"21093168817757\"},\"actions\":[],\"gas_limit\":\"62662\",\"gas_price\":\"392847649\",\"decoded_input\":{\"method_call\":\"approve(address spender, uint256 amount)\",\"method_id\":\"095ea7b3\",\"parameters\":[{\"name\":\"spender\",\"type\":\"address\",\"value\":\"0x111111125421cA6dc452d289314280a0f8842A65\"},{\"name\":\"amount\",\"type\":\"uint256\",\"value\":\"115792089237316195423570985008687907853269984665640564039457584007913129639935\"}]},\"token_transfers\":null,\"base_fee_per_gas\":\"392347649\",\"timestamp\":\"2025-08-11T09:32:59.000000Z\",\"nonce\":7,\"historic_exchange_rate\":\"4272.89\",\"transaction_types\":[\"contract_call\"],\"exchange_rate\":\"4273.59\",\"block_number\":23116935,\"has_error_in_internal_transactions\":false},{\"priority_fee\":\"32013900000\",\"raw_input\":\"0x94a7900a000000000000000000000000000000000000000000000000000000000000006000000000000000000000000000000000000000000000000000000000000000a000000000000000000000000000000000000000000000000000000000000000e00000000000000000000000000000000000000000000000000000000000000001000000000000000000000000e17f250f3880ca73b39d2d03922b18e8524c4d480000000000000000000000000000000000000000000000000000000000000001000000000000000000000000000000000000000000000000000000002f53537000000000000000000000000000000000000000000000000000000000000000018bd511cf43a416137e032b6c0e7639d3e949737787928afd6c4dfa6038d0d4bc\",\"result\":\"success\",\"hash\":\"0x9f84a4a904289a9f56b6ff4ca16f46a76d00a0eb5a7b67874778f230508bb44f\",\"max_fee_per_gas\":\"605510740\",\"revert_reason\":null,\"confirmation_duration\":[0,12000],\"transaction_burnt_fee\":\"83737189335474\",\"type\":2,\"token_transfers_overflow\":null,\"confirmations\":1,\"position\":276,\"max_priority_fee_per_gas\":\"150000\",\"transaction_tag\":null,\"created_contract\":null,\"value\":\"0\",\"from\":{\"ens_domain_name\":null,\"hash\":\"0x40DC31da1209E963d59CAC8221BB542382788738\",\"implementations\":[],\"is_contract\":false,\"is_scam\":false,\"is_verified\":false,\"metadata\":null,\"name\":null,\"private_tags\":[],\"proxy_type\":\"unknown\",\"public_tags\":[],\"watchlist_names\":[]},\"gas_used\":\"213426\",\"status\":\"ok\",\"to\":{\"ens_domain_name\":null,\"hash\":\"0x57E9E78A627BaA30b71793885B952a9006298AF6\",\"implementations\":[],\"is_contract\":true,\"is_scam\":false,\"is_verified\":true,\"metadata\":{\"tags\":[{\"meta\":{},\"name\":\"Lighter\",\"ordinal\":0,\"slug\":\"lighter\",\"tagType\":\"protocol\"},{\"meta\":{\"tooltipUrl\":\"https://lighter.xyz/\"},\"name\":\"Lighter: FastCCTP\",\"ordinal\":10,\"slug\":\"lighter-fastcctp\",\"tagType\":\"name\"}]},\"name\":\"FastCCTP\",\"private_tags\":[],\"proxy_type\":\"unknown\",\"public_tags\":[],\"watchlist_names\":[]},\"authorization_list\":[],\"method\":\"fastFinishTransfer\",\"fee\":{\"type\":\"actual\",\"value\":\"83769203235474\"},\"actions\":[],\"gas_limit\":\"244102\",\"gas_price\":\"392497649\",\"decoded_input\":{\"method_call\":\"fastFinishTransfer(address[] zklighterRecipient, uint256[] fromAmount, bytes32[] messageHash)\",\"method_id\":\"94a7900a\",\"parameters\":[{\"name\":\"zklighterRecipient\",\"type\":\"address[]\",\"value\":[\"0xE17F250f3880Ca73B39D2d03922b18e8524C4d48\"]},{\"name\":\"fromAmount\",\"type\":\"uint256[]\",\"value\":[\"793990000\"]},{\"name\":\"messageHash\",\"type\":\"bytes32[]\",\"value\":[\"0x8bd511cf43a416137e032b6c0e7639d3e949737787928afd6c4dfa6038d0d4bc\"]}]},\"token_transfers\":null,\"base_fee_per_gas\":\"392347649\",\"timestamp\":\"2025-08-11T09:32:59.000000Z\",\"nonce\":164482,\"historic_exchange_rate\":\"4272.89\",\"transaction_types\":[\"contract_call\",\"token_transfer\"],\"exchange_rate\":\"4273.59\",\"block_number\":23116935,\"has_error_in_internal_transactions\":false},{\"priority_fee\":\"38532654400\",\"raw_input\":\"0x5413fba70000000000000000000000000000000000000000000000000000000000000020077547ac2ddedc6169fb58414c1392448a37ea190f8a803da81c9ba1601ab7180000000000000000000000000000000000000000000000000000000068a2e97500000000000000000000000000000000000000000000000000000000000000000000000000000000000000000000000000000000000000000000000000000002000000000000000000000000a62b204099277762d1669d283732dcc1b3aa96ce000000000000000000000000e49462ffd604d35061fb6937626f675873314c930000000000000000000000008a8c879d39a74fce0593714956bb7ed048a5c1bf0000000000000000000000008a8c879d39a74fce0593714956bb7ed048a5c1bf000000000000000000000000000000000000000000000039cb6ef2576bb8c0de00000000000000000000000000000000000000000000000001bd81305f5927bc0000000000000000000000000000000000000000000000000c7d713b49da000000000000000000000000000000000000000000000000000000000000000001800000000000000000000000000000000000000000000000000000000000000000\",\"result\":\"success\",\"hash\":\"0xf3e6ad1fe00437cd6d3dd99fb3a1deee1ea1b412f3f57989271d4ec19e71a7d4\",\"max_fee_per_gas\":\"504900000\",\"revert_reason\":null,\"confirmation_duration\":[0,12000],\"transaction_burnt_fee\":\"25088278067656\",\"type\":2,\"token_transfers_overflow\":null,\"confirmations\":1,\"position\":275,\"max_priority_fee_per_gas\":\"602600\",\"transaction_tag\":null,\"created_contract\":null,\"value\":\"0\",\"from\":{\"ens_domain_name\":\"ale77.eth\",\"hash\":\"0x8A8C879D39A74fCE0593714956bB7Ed048A5c1BF\",\"implementations\":[],\"is_contract\":false,\"is_scam\":false,\"is_verified\":false,\"metadata\":null,\"name\":null,\"private_tags\":[],\"proxy_type\":null,\"public_tags\":[],\"watchlist_names\":[]},\"gas_used\":\"63944\",\"status\":\"ok\",\"to\":{\"ens_domain_name\":null,\"hash\":\"0x000000000000c9B3E2C3Ec88B1B4c0cD853f4321\",\"implementations\":[{\"address\":\"0xCBEfc0b1FB24995883e31f8E24cb78C25A9f51aB\",\"address_hash\":\"0xCBEfc0b1FB24995883e31f8E24cb78C25A9f51aB\",\"name\":\"PendleLimitRouter\"}],\"is_contract\":true,\"is_scam\":false,\"is_verified\":true,\"metadata\":null,\"name\":\"TransparentUpgradeableProxy\",\"private_tags\":[],\"proxy_type\":\"eip1967\",\"public_tags\":[],\"watchlist_names\":[]},\"authorization_list\":[],\"method\":\"cancelSingle\",\"fee\":{\"type\":\"actual\",\"value\":\"25126810722056\"},\"actions\":[],\"gas_limit\":\"164781\",\"gas_price\":\"392950249\",\"decoded_input\":{\"method_call\":\"cancelSingle((uint256,uint256,uint256,uint8,address,address,address,address,uint256,uint256,uint256,bytes) order)\",\"method_id\":\"5413fba7\",\"parameters\":[{\"name\":\"order\",\"type\":\"(uint256,uint256,uint256,uint8,address,address,address,address,uint256,uint256,uint256,bytes)\",\"value\":[\"3373405712594117330977139679018452327082463379322938080209388954788118050584\",\"1755507061\",\"0\",\"2\",\"0xA62B204099277762d1669d283732dCc1B3AA96CE\",\"0xE49462fFd604D35061fb6937626f675873314C93\",\"0x8A8C879D39A74fCE0593714956bB7Ed048A5c1BF\",\"0x8A8C879D39A74fCE0593714956bB7Ed048A5c1BF\",\"1066123332495865331934\",\"125398409394333628\",\"900000000000000000\",\"0x\"]}]},\"token_transfers\":null,\"base_fee_per_gas\":\"392347649\",\"timestamp\":\"2025-08-11T09:32:59.000000Z\",\"nonce\":1010,\"historic_exchange_rate\":\"4272.89\",\"transaction_types\":[\"contract_call\"],\"exchange_rate\":\"4273.59\",\"block_number\":23116935,\"has_error_in_internal_transactions\":false},{\"priority_fee\":\"43177000000\",\"raw_input\":\"0x2be11ae2\",\"result\":\"success\",\"hash\":\"0x7ba8f67a8a580553ecc65506368bbca9b9afe18f36afca44a4d1c1eaa9f91789\",\"max_fee_per_gas\":\"522500418\",\"revert_reason\":null,\"confirmation_duration\":[0,12000],\"transaction_burnt_fee\":\"33880788881746\",\"type\":2,\"token_transfers_overflow\":null,\"confirmations\":1,\"position\":274,\"max_priority_fee_per_gas\":\"500000\",\"transaction_tag\":null,\"created_contract\":null,\"value\":\"0\",\"from\":{\"ens_domain_name\":null,\"hash\":\"0x24dAdC06573914bBc5f19b4CE7f143521fa5368f\",\"implementations\":[],\"is_contract\":false,\"is_scam\":false,\"is_verified\":false,\"metadata\":null,\"name\":null,\"private_tags\":[],\"proxy_type\":null,\"public_tags\":[],\"watchlist_names\":[]},\"gas_used\":\"86354\",\"status\":\"ok\",\"to\":{\"ens_domain_name\":null,\"hash\":\"0x8d50E8e087Bdb834C8F684CFDaF54f6A25CbcD57\",\"implementations\":[{\"address\":\"0x57023c258ca8D8e7ca52D99C4009D3931E7DA7FA\",\"address_hash\":\"0x57023c258ca8D8e7ca52D99C4009D3931E7DA7FA\",\"name\":\"stakingManager\"}],\"is_contract\":true,\"is_scam\":false,\"is_verified\":true,\"metadata\":null,\"name\":\"TransparentUpgradeableProxy\",\"private_tags\":[],\"proxy_type\":\"eip1967\",\"public_tags\":[],\"watchlist_names\":[]},\"authorization_list\":[],\"method\":\"harvestRewards\",\"fee\":{\"type\":\"actual\",\"value\":\"33923965881746\"},\"actions\":[],\"gas_limit\":\"139648\",\"gas_price\":\"392847649\",\"decoded_input\":{\"method_call\":\"harvestRewards()\",\"method_id\":\"2be11ae2\",\"parameters\":[]},\"token_transfers\":null,\"base_fee_per_gas\":\"392347649\",\"timestamp\":\"2025-08-11T09:32:59.000000Z\",\"nonce\":154,\"historic_exchange_rate\":\"4272.89\",\"transaction_types\":[\"contract_call\",\"token_transfer\"],\"exchange_rate\":\"4273.59\",\"block_number\":23116935,\"has_error_in_internal_transactions\":false},{\"priority_fee\":\"55001712400\",\"raw_input\":\"0x184533f000000000000000000000000000000000000000000000152d02c7e14af6800000344d69721a77dd3891d048b65a2dc6b14b49f9775f8f46b961b2c32f22b41515000000000000000000000000000000000000000000000000000000006899b9e300000000000000000000000000000000000000000000000000000000000000800000000000000000000000000000000000000000000000000000000000000041c427e04345bda5cfd2e1a0c43ae162311e4614b6032b9b6a076d101db0a4197d355a35e3750061d83561457ef33c7bec38f6827cebfc85b9ff698ba224e449651b00000000000000000000000000000000000000000000000000000000000000\",\"result\":\"success\",\"hash\":\"0x856ef3bd1d070cd7001394fe1786e0079214501d49ab07d0f3c6426137a556e2\",\"max_fee_per_gas\":\"504900000\",\"revert_reason\":null,\"confirmation_duration\":[0,12000],\"transaction_burnt_fee\":\"35811139314826\",\"type\":2,\"token_transfers_overflow\":null,\"confirmations\":1,\"position\":273,\"max_priority_fee_per_gas\":\"602600\",\"transaction_tag\":null,\"created_contract\":null,\"value\":\"0\",\"from\":{\"ens_domain_name\":\"alisadeghi.eth\",\"hash\":\"0x6BAc80315aef7291c8aE23ff0a52c554a3f0b598\",\"implementations\":[],\"is_contract\":false,\"is_scam\":false,\"is_verified\":false,\"metadata\":null,\"name\":null,\"private_tags\":[],\"proxy_type\":null,\"public_tags\":[],\"watchlist_names\":[]},\"gas_used\":\"91274\",\"status\":\"ok\",\"to\":{\"ens_domain_name\":null,\"hash\":\"0x93E3D3A752F31CB46813A0265281aD07F2E2E183\",\"implementations\":[],\"is_contract\":true,\"is_scam\":false,\"is_verified\":true,\"metadata\":null,\"name\":\"Vesting\",\"private_tags\":[],\"proxy_type\":\"unknown\",\"public_tags\":[],\"watchlist_names\":[]},\"authorization_list\":[],\"method\":\"migrate\",\"fee\":{\"type\":\"actual\",\"value\":\"35866141027226\"},\"actions\":[],\"gas_limit\":\"138329\",\"gas_price\":\"392950249\",\"decoded_input\":{\"method_call\":\"migrate(uint256 amount, uint256 random, uint256 deadline, bytes signature)\",\"method_id\":\"184533f0\",\"parameters\":[{\"name\":\"amount\",\"type\":\"uint256\",\"value\":\"100000000000000000000000\"},{\"name\":\"random\",\"type\":\"uint256\",\"value\":\"23657043109905549685524997933003617613155405694343892166320921834586901845269\"},{\"name\":\"deadline\",\"type\":\"uint256\",\"value\":\"1754905059\"},{\"name\":\"signature\",\"type\":\"bytes\",\"value\":\"0xc427e04345bda5cfd2e1a0c43ae162311e4614b6032b9b6a076d101db0a4197d355a35e3750061d83561457ef33c7bec38f6827cebfc85b9ff698ba224e449651b\"}]},\"token_transfers\":null,\"base_fee_per_gas\":\"392347649\",\"timestamp\":\"2025-08-11T09:32:59.000000Z\",\"nonce\":27,\"historic_exchange_rate\":\"4272.89\",\"transaction_types\":[\"contract_call\",\"token_transfer\"],\"exchange_rate\":\"4273.59\",\"block_number\":23116935,\"has_error_in_internal_transactions\":false}],\"next_page_params\":{\"block_number\":23116935,\"index\":273,\"items_count\":50}}",
    "headers": {
      "Content-Type": "application/json"
    }
  }
}